{
	"data": {
		"bytecode": {
			"linkReferences": {},
			"object": "612d12610053600b82828239805160001a607314610046577f4e487b7100000000000000000000000000000000000000000000000000000000600052600060045260246000fd5b30600052607381538281f3fe730000000000000000000000000000000000000000301460806040526004361061006c5760003560e01c80636f038971146100715780637ab609e5146100a157806386113702146100d15780638ce70c6814610101578063988974ff14610131578063f613916614610162575b600080fd5b61008b60048036038101906100869190611ccb565b610192565b6040516100989190611de0565b60405180910390f35b6100bb60048036038101906100b69190611e27565b6101d6565b6040516100c89190611eba565b60405180910390f35b6100eb60048036038101906100e691906120b3565b6103ce565b6040516100f8919061210b565b60405180910390f35b61011b60048036038101906101169190612184565b610404565b60405161012891906121db565b60405180910390f35b61014b600480360381019061014691906120b3565b610441565b60405161015992919061220c565b60405180910390f35b61017c600480360381019061017791906123aa565b61050b565b6040516101899190611eba565b60405180910390f35b61019a611b10565b60006101a783600061059c565b905060006040518060400160405280836000015181526020018360200151151581525090508092505050919050565b60606101e0611b2c565b60405180602001604052808480600001906101fb9190612402565b8080601f016020809104026020016040519081016040528093929190818152602001838380828437600081840152601f19601f82011690508083019250505050505050815250816000018190525082602001602081019061025c9190612465565b816020019067ffffffffffffffff16908167ffffffffffffffff168152505082604001602081019061028e9190612492565b8160400190151590811515815250506102a630610404565b81606001819052506102b860006105d7565b816080018190525060405180604001604052808480606001906102db91906124bf565b8080601f016020809104026020016040519081016040528093929190818152602001838380828437600081840152601f19601f820116905080830192505050505050508152602001600115158152508160a00181905250826080016020810190610345919061255b565b8160c0019060070b908160070b815250508260a0016020810190610369919061255b565b8160e0019060070b908160070b815250506103878360c00135610192565b81610100018190525061039d8360e00135610192565b8161012001819052506103b4836101000135610192565b8161014001819052506103c681610626565b915050919050565b6000806103e3836000015184602001516108d0565b9050600081600001516103f5906125c4565b60001c90508092505050919050565b61040c611bc2565b60405180602001604052808360405160200161042891906126ca565b6040516020818303038152906040528152509050919050565b600080826020015115610489576040517f08c379a00000000000000000000000000000000000000000000000000000000081526004016104809061274d565b60405180910390fd5b60006104b67fffffffffffffffffffffffffffffffffffffffffffffffffffffffffffffffff600061059c565b905060006104cc856000015186602001516108d0565b90506104d881836108ec565b156104ec5760006001935093505050610506565b80600001516104fa906125c4565b60001c60009350935050505b915091565b606060006105196040610918565b905061052f60048261093f90919063ffffffff16565b61054683600001518261094f90919063ffffffff16565b61055d83602001518261097890919063ffffffff16565b61057483604001518261098890919063ffffffff16565b61058b83606001518261098890919063ffffffff16565b610594816109a4565b915050919050565b6105a4611bd5565b6105cf836040516020016105b8919061278e565b6040516020818303038152906040528360006109fd565b905092915050565b6105df611bc2565b60006105ea83610aca565b90506040518060200160405280826000015160405160200161060c9190612811565b604051602081830303815290604052815250915050919050565b6060600080610639846101000151610b42565b9050600061064b856101200151610b42565b9050600061065d866101400151610b42565b9050610669600b610caf565b846106749190612862565b9350610687866000015160000151610d03565b846106929190612862565b93506106ab866020015167ffffffffffffffff16610caf565b846106b69190612862565b93506106c0610d22565b846106cb9190612862565b93506106de866060015160000151610d33565b846106e99190612862565b93506106fc866080015160000151610d33565b846107079190612862565b935061071a8660a0015160000151610d33565b846107259190612862565b93506107348660c00151610d52565b8461073f9190612862565b935061074e8660e00151610d52565b846107599190612862565b935061076483610d33565b8461076f9190612862565b935061077a82610d33565b846107859190612862565b935061079081610d33565b8461079b9190612862565b935060006107a885610dc5565b90506107be600b82610dec90919063ffffffff16565b6107d987600001516000015182610dfc90919063ffffffff16565b6107f0876020015182610e6e90919063ffffffff16565b610807876040015182610e7e90919063ffffffff16565b61082287606001516000015182610e9a90919063ffffffff16565b61083d87608001516000015182610e9a90919063ffffffff16565b6108548760a0015182610ec390919063ffffffff16565b61086b8760c0015182610f0490919063ffffffff16565b6108828760e0015182610f0490919063ffffffff16565b6108958482610e9a90919063ffffffff16565b6108a88382610e9a90919063ffffffff16565b6108bb8282610e9a90919063ffffffff16565b6108c481610f1b565b95505050505050919050565b6108d8611bd5565b6108e4838360006109fd565b905092915050565b6000806108fb84846001610f74565b90506001811461090c57600061090f565b60015b91505092915050565b610920611bf8565b61092e816000015183611151565b506000816020018181525050919050565b61094b826004836111ca565b5050565b61095c82600383516111da565b61097381836000015161138390919063ffffffff16565b505050565b610984826000836111da565b5050565b6109a0828261099857601461099b565b60155b61139f565b5050565b606060008260200151146109ed576040517f08c379a00000000000000000000000000000000000000000000000000000000081526004016109e4906128e2565b60405180910390fd5b8160000151600001519050919050565b610a05611bd5565b6020840184516000596000602084061460018114610a3757602084066020036020818401019350808501835250610a41565b6020820192508382525b508282848660046101c2fa506020815101810160405280515b60006020821403610a8d57600060208301511460018114610a7b5750610a8d565b60208301925050602081039050610a5a565b808252818652876020870152505050505060008214610aac5781610aba565b610ab981600001516113c5565b5b8160400181815250509392505050565b610ad2611c18565b5b600115610b3c576000607f8316905060078367ffffffffffffffff16901c925060008367ffffffffffffffff1603610b1f57610b18818361140590919063ffffffff16565b5050610b3d565b610b35608082178361140590919063ffffffff16565b5050610ad3565b5b919050565b606060006001836000015151610b589190612862565b67ffffffffffffffff811115610b7157610b70611ee1565b5b6040519080825280601f01601f191660200182016040528015610ba35781602001600182028036833780820191505090505b509050600115158360200151151514610bc057600060f81b610bc6565b600160f81b5b81600081518110610bda57610bd9612902565b5b60200101907effffffffffffffffffffffffffffffffffffffffffffffffffffffffffffff1916908160001a90535060006001905060005b846000015151811015610ca45784600001518181518110610c3657610c35612902565b5b602001015160f81c60f81b838381518110610c5457610c53612902565b5b60200101907effffffffffffffffffffffffffffffffffffffffffffffffffffffffffffff1916908160001a9053508180610c8e90612931565b9250508080610c9c90612931565b915050610c12565b508192505050919050565b600060178211610cc25760019050610cfe565b60ff8211610cd35760029050610cfe565b61ffff8211610ce55760039050610cfe565b63ffffffff8211610cf95760059050610cfe565b600990505b919050565b60008151610d116002610caf565b610d1b9190612862565b9050919050565b6000610d2e6001610caf565b905090565b60008151610d418351610caf565b610d4b9190612862565b9050919050565b60008082905060008160070b12610d7e57610d768167ffffffffffffffff16610caf565b915050610dc0565b610dbc817fffffffffffffffffffffffffffffffffffffffffffffffffffffffffffffffff610dad9190612979565b67ffffffffffffffff16610caf565b9150505b919050565b610dcd611c32565b610ddb816000015183611151565b506000816020018181525050919050565b610df88260048361146f565b5050565b610e1e60186005600660ff16901b17836000015161140590919063ffffffff16565b50610e37602a836000015161140590919063ffffffff16565b50610e6a81604051602001610e4c91906129e0565b60405160208183030381529060405283610e9a90919063ffffffff16565b5050565b610e7a8260008361147f565b5050565b610e968282610e8e576014610e91565b60155b611628565b5050565b610ea7826002835161147f565b610ebe81836000015161138390919063ffffffff16565b505050565b8060200151610ee857610ee3816000015183610e9a90919063ffffffff16565b610f00565b610eff81600001518361164e90919063ffffffff16565b5b5050565b610f17818361167790919063ffffffff16565b5050565b60606000826020015114610f64576040517f08c379a0000000000000000000000000000000000000000000000000000000008152600401610f5b906128e2565b60405180910390fd5b8160000151600001519050919050565b60008060019050821561103f5784602001518015610f93575083602001515b15610fc0577fffffffffffffffffffffffffffffffffffffffffffffffffffffffffffffffff905061103e565b6000151585602001511515148015610fe057506001151584602001511515145b15610fef57600191505061114a565b600115158560200151151514801561100f57506000151584602001511515145b1561103d577fffffffffffffffffffffffffffffffffffffffffffffffffffffffffffffffff91505061114a565b5b5b836040015185604001511115611058578091505061114a565b84604001518460400151111561109c57807fffffffffffffffffffffffffffffffffffffffffffffffffffffffffffffffff6110949190612a10565b91505061114a565b6000806000806000896000015151905060208a510194506020895101935060005b8181101561113e57808601519350808501519250828411156110e8578697505050505050505061114a565b8383111561112a57867fffffffffffffffffffffffffffffffffffffffffffffffffffffffffffffffff61111c9190612a10565b97505050505050505061114a565b6020816111379190612862565b90506110bd565b50600096505050505050505b9392505050565b611159611c18565b60006020836111689190612ab7565b146111945760208261117a9190612ab7565b60206111869190612ae8565b826111919190612862565b91505b8183602001818152505060405180845260008152828101602001818110156111bb57600080fd5b80604052505082905092915050565b6111d58383836111da565b505050565b60178167ffffffffffffffff16116112155761120f8160058460ff16901b60ff1617846000015161140590919063ffffffff16565b5061137e565b60ff8167ffffffffffffffff161161127357611248601860058460ff16901b17846000015161140590919063ffffffff16565b5061126d8167ffffffffffffffff16600185600001516116cf9092919063ffffffff16565b5061137d565b61ffff8167ffffffffffffffff16116112d2576112a7601960058460ff16901b17846000015161140590919063ffffffff16565b506112cc8167ffffffffffffffff16600285600001516116cf9092919063ffffffff16565b5061137c565b63ffffffff8167ffffffffffffffff161161133357611308601a60058460ff16901b17846000015161140590919063ffffffff16565b5061132d8167ffffffffffffffff16600485600001516116cf9092919063ffffffff16565b5061137b565b611354601b60058460ff16901b17846000015161140590919063ffffffff16565b506113798167ffffffffffffffff16600885600001516116cf9092919063ffffffff16565b505b5b5b5b505050565b61138b611c18565b6113978383845161175c565b905092915050565b6113c0816005600760ff16901b17836000015161140590919063ffffffff16565b505050565b60006113d08261183f565b156113de5760009050611400565b6000602083015190506113f081611896565b9150600860208451030282019150505b919050565b61140d611c18565b6000836000015151905060006001826114269190612862565b90508460200151821061144a57611449856002836114449190612b1c565b611aec565b5b84516020838201018581538151831115611462578282525b5050849250505092915050565b61147a83838361147f565b505050565b60178167ffffffffffffffff16116114ba576114b48160058460ff16901b60ff1617846000015161140590919063ffffffff16565b50611623565b60ff8167ffffffffffffffff1611611518576114ed601860058460ff16901b17846000015161140590919063ffffffff16565b506115128167ffffffffffffffff16600185600001516116cf9092919063ffffffff16565b50611622565b61ffff8167ffffffffffffffff16116115775761154c601960058460ff16901b17846000015161140590919063ffffffff16565b506115718167ffffffffffffffff16600285600001516116cf9092919063ffffffff16565b50611621565b63ffffffff8167ffffffffffffffff16116115d8576115ad601a60058460ff16901b17846000015161140590919063ffffffff16565b506115d28167ffffffffffffffff16600485600001516116cf9092919063ffffffff16565b50611620565b6115f9601b60058460ff16901b17846000015161140590919063ffffffff16565b5061161e8167ffffffffffffffff16600885600001516116cf9092919063ffffffff16565b505b5b5b5b505050565b611649816005600760ff16901b17836000015161140590919063ffffffff16565b505050565b61165b826003835161147f565b61167281836000015161138390919063ffffffff16565b505050565b60008160070b126116935761168e8260008361147f565b6116cb565b6116ca826001837fffffffffffffffffffffffffffffffffffffffffffffffffffffffffffffffff6116c59190612979565b61147f565b5b5050565b6116d7611c18565b60008460000151519050600081846116ef9190612862565b90508560200151811115611714576117138660028361170e9190612b1c565b611aec565b5b60006001856101006117269190612c91565b6117309190612ae8565b90508651828101878319825116178152815184111561174d578382525b50508693505050509392505050565b611764611c18565b825182111561177257600080fd5b600084600001515190506000838261178a9190612862565b905085602001518111156117af576117ae866002836117a99190612b1c565b611aec565b5b600080875180518560208301019350808511156117ca578482525b60208901925050505b6020861061181157805182526020826117ec9190612862565b91506020816117fb9190612862565b905060208661180a9190612ae8565b95506117d3565b60006001876020036101000a0390508019825116818451168181178552505050879450505050509392505050565b600080600060208401905060005b84518110156118895781519250600083111561186f5760009350505050611891565b6020820191506020816118829190612862565b905061184d565b506001925050505b919050565b600080821460018114611ae1578260018403935060028404841793506004840484179350601084048417935061010084048417935062010000840484179350640100000000840484179350680100000000000000008404841793507001000000000000000000000000000000008404841793506001840193506040517ff8f9cbfae6cc78fbefe7cdc3a1793dfcf4f0e8bbd8cec470b6a28a7a5a3e1efd81527ff5ecf1b3e9debc68e1d9cfabc5997135bfb7a7a3938b7b606b5b4b3f2f1f0ffe60208201527ff6e4ed9ff2d6b458eadcdf97bd91692de2d4da8fd2d0ac50c6ae9a827252361660408201527fc8c0b887b0a8a4489c948c7f847c6125746c645c544c444038302820181008ff60608201527ff7cae577eec2a03cf3bad76fb589591debb2dd67e0aa9834bea6925f6a4a2e0e60808201527fe39ed557db96902cd38ed14fad815115c786af479b7e8324736353433727170760a08201527fc976c13bb96e881cb166a933a55e490d9d56952b8d4e801485467d236242260660c08201527f753a6d1b65325d0c552a4d1345224105391a310b29122104190a11030902010060e082015261010081016040527e818283848586878898a8b8c8d8e8f929395969799a9b9d9e9faaeb6bedeeff7f01000000000000000000000000000000000000000000000000000000000000008082880204818160ff038501510496507f800000000000000000000000000000000000000000000000000000000000000085116101000287019650600060018603861603611ad7576001870196505b5050505050611ae6565b600091505b50919050565b600082600001519050611aff8383611151565b50611b0a8382611383565b50505050565b6040518060400160405280606081526020016000151581525090565b604051806101600160405280611b40611c52565b8152602001600067ffffffffffffffff168152602001600015158152602001611b67611bc2565b8152602001611b74611bc2565b8152602001611b81611c65565b8152602001600060070b8152602001600060070b8152602001611ba2611b10565b8152602001611baf611b10565b8152602001611bbc611b10565b81525090565b6040518060200160405280606081525090565b604051806060016040528060608152602001600015158152602001600081525090565b6040518060400160405280611c0b611c18565b8152602001600081525090565b604051806040016040528060608152602001600081525090565b6040518060400160405280611c45611c18565b8152602001600081525090565b6040518060200160405280606081525090565b6040518060400160405280606081526020016000151581525090565b6000604051905090565b600080fd5b600080fd5b6000819050919050565b611ca881611c95565b8114611cb357600080fd5b50565b600081359050611cc581611c9f565b92915050565b600060208284031215611ce157611ce0611c8b565b5b6000611cef84828501611cb6565b91505092915050565b600081519050919050565b600082825260208201905092915050565b60005b83811015611d32578082015181840152602081019050611d17565b60008484015250505050565b6000601f19601f8301169050919050565b6000611d5a82611cf8565b611d648185611d03565b9350611d74818560208601611d14565b611d7d81611d3e565b840191505092915050565b60008115159050919050565b611d9d81611d88565b82525050565b60006040830160008301518482036000860152611dc08282611d4f565b9150506020830151611dd56020860182611d94565b508091505092915050565b60006020820190508181036000830152611dfa8184611da3565b905092915050565b600080fd5b60006101808284031215611e1e57611e1d611e02565b5b81905092915050565b600060208284031215611e3d57611e3c611c8b565b5b600082013567ffffffffffffffff811115611e5b57611e5a611c90565b5b611e6784828501611e07565b91505092915050565b600082825260208201905092915050565b6000611e8c82611cf8565b611e968185611e70565b9350611ea6818560208601611d14565b611eaf81611d3e565b840191505092915050565b60006020820190508181036000830152611ed48184611e81565b905092915050565b600080fd5b7f4e487b7100000000000000000000000000000000000000000000000000000000600052604160045260246000fd5b611f1982611d3e565b810181811067ffffffffffffffff82111715611f3857611f37611ee1565b5b80604052505050565b6000611f4b611c81565b9050611f578282611f10565b919050565b600080fd5b600080fd5b600080fd5b600067ffffffffffffffff821115611f8657611f85611ee1565b5b611f8f82611d3e565b9050602081019050919050565b82818337600083830152505050565b6000611fbe611fb984611f6b565b611f41565b905082815260208101848484011115611fda57611fd9611f66565b5b611fe5848285611f9c565b509392505050565b600082601f83011261200257612001611f61565b5b8135612012848260208601611fab565b91505092915050565b61202481611d88565b811461202f57600080fd5b50565b6000813590506120418161201b565b92915050565b60006040828403121561205d5761205c611edc565b5b6120676040611f41565b9050600082013567ffffffffffffffff81111561208757612086611f5c565b5b61209384828501611fed565b60008301525060206120a784828501612032565b60208301525092915050565b6000602082840312156120c9576120c8611c8b565b5b600082013567ffffffffffffffff8111156120e7576120e6611c90565b5b6120f384828501612047565b91505092915050565b61210581611c95565b82525050565b600060208201905061212060008301846120fc565b92915050565b600073ffffffffffffffffffffffffffffffffffffffff82169050919050565b600061215182612126565b9050919050565b61216181612146565b811461216c57600080fd5b50565b60008135905061217e81612158565b92915050565b60006020828403121561219a57612199611c8b565b5b60006121a88482850161216f565b91505092915050565b600060208301600083015184820360008601526121ce8282611d4f565b9150508091505092915050565b600060208201905081810360008301526121f581846121b1565b905092915050565b61220681611d88565b82525050565b600060408201905061222160008301856120fc565b61222e60208301846121fd565b9392505050565b600067ffffffffffffffff8211156122505761224f611ee1565b5b61225982611d3e565b9050602081019050919050565b600061227961227484612235565b611f41565b90508281526020810184848401111561229557612294611f66565b5b6122a0848285611f9c565b509392505050565b600082601f8301126122bd576122bc611f61565b5b81356122cd848260208601612266565b91505092915050565b600067ffffffffffffffff82169050919050565b6122f3816122d6565b81146122fe57600080fd5b50565b600081359050612310816122ea565b92915050565b60006080828403121561232c5761232b611edc565b5b6123366080611f41565b9050600082013567ffffffffffffffff81111561235657612355611f5c565b5b612362848285016122a8565b600083015250602061237684828501612301565b602083015250604061238a84828501612032565b604083015250606061239e84828501612032565b60608301525092915050565b6000602082840312156123c0576123bf611c8b565b5b600082013567ffffffffffffffff8111156123de576123dd611c90565b5b6123ea84828501612316565b91505092915050565b600080fd5b600080fd5b600080fd5b6000808335600160200384360303811261241f5761241e6123f3565b5b80840192508235915067ffffffffffffffff821115612441576124406123f8565b5b60208301925060018202360383131561245d5761245c6123fd565b5b509250929050565b60006020828403121561247b5761247a611c8b565b5b600061248984828501612301565b91505092915050565b6000602082840312156124a8576124a7611c8b565b5b60006124b684828501612032565b91505092915050565b600080833560016020038436030381126124dc576124db6123f3565b5b80840192508235915067ffffffffffffffff8211156124fe576124fd6123f8565b5b60208301925060018202360383131561251a576125196123fd565b5b509250929050565b60008160070b9050919050565b61253881612522565b811461254357600080fd5b50565b6000813590506125558161252f565b92915050565b60006020828403121561257157612570611c8b565b5b600061257f84828501612546565b91505092915050565b6000819050602082019050919050565b6000819050919050565b60006125ae8251612598565b80915050919050565b600082821b905092915050565b60006125cf82611cf8565b826125d984612588565b90506125e4816125a2565b925060208210156126245761261f7fffffffffffffffffffffffffffffffffffffffffffffffffffffffffffffffff836020036008026125b7565b831692505b5050919050565b600081905092915050565b7f040a000000000000000000000000000000000000000000000000000000000000600082015250565b600061266c60028361262b565b915061267782612636565b600282019050919050565b60008160601b9050919050565b600061269a82612682565b9050919050565b60006126ac8261268f565b9050919050565b6126c46126bf82612146565b6126a1565b82525050565b60006126d58261265f565b91506126e182846126b3565b60148201915081905092915050565b600082825260208201905092915050565b7f4e656761746976652076616c7565206e6f7420616c6c6f776564000000000000600082015250565b6000612737601a836126f0565b915061274282612701565b602082019050919050565b600060208201905081810360008301526127668161272a565b9050919050565b6000819050919050565b61278861278382611c95565b61276d565b82525050565b600061279a8284612777565b60208201915081905092915050565b60008082015250565b60006127bf60018361262b565b91506127ca826127a9565b600182019050919050565b600081905092915050565b60006127eb82611cf8565b6127f581856127d5565b9350612805818560208601611d14565b80840191505092915050565b600061281c826127b2565b915061282882846127e0565b915081905092915050565b7f4e487b7100000000000000000000000000000000000000000000000000000000600052601160045260246000fd5b600061286d82611c95565b915061287883611c95565b92508282019050808211156128905761288f612833565b5b92915050565b7f496e76616c69642043424f520000000000000000000000000000000000000000600082015250565b60006128cc600c836126f0565b91506128d782612896565b602082019050919050565b600060208201905081810360008301526128fb816128bf565b9050919050565b7f4e487b7100000000000000000000000000000000000000000000000000000000600052603260045260246000fd5b600061293c82611c95565b91507fffffffffffffffffffffffffffffffffffffffffffffffffffffffffffffffff820361296e5761296d612833565b5b600182019050919050565b600061298482612522565b915061298f83612522565b92508282039050677fffffffffffffff81137fffffffffffffffffffffffffffffffffffffffffffffffff8000000000000000821217156129d3576129d2612833565b5b92915050565b6000815250565b60006129eb826129d9565b6001820191506129fb82846127e0565b915081905092915050565b6000819050919050565b6000612a1b82612a06565b9150612a2683612a06565b9250828202612a3481612a06565b91507f80000000000000000000000000000000000000000000000000000000000000008414600084121615612a6c57612a6b612833565b5b8282058414831517612a8157612a80612833565b5b5092915050565b7f4e487b7100000000000000000000000000000000000000000000000000000000600052601260045260246000fd5b6000612ac282611c95565b9150612acd83611c95565b925082612add57612adc612a88565b5b828206905092915050565b6000612af382611c95565b9150612afe83611c95565b9250828203905081811115612b1657612b15612833565b5b92915050565b6000612b2782611c95565b9150612b3283611c95565b9250828202612b4081611c95565b91508282048414831517612b5757612b56612833565b5b5092915050565b60008160011c9050919050565b6000808291508390505b6001851115612bb557808604811115612b9157612b90612833565b5b6001851615612ba05780820291505b8081029050612bae85612b5e565b9450612b75565b94509492505050565b600082612bce5760019050612c8a565b81612bdc5760009050612c8a565b8160018114612bf25760028114612bfc57612c2b565b6001915050612c8a565b60ff841115612c0e57612c0d612833565b5b8360020a915084821115612c2557612c24612833565b5b50612c8a565b5060208310610133831016604e8410600b8410161715612c605782820a905083811115612c5b57612c5a612833565b5b612c8a565b612c6d8484846001612b6b565b92509050818404811115612c8457612c83612833565b5b81810290505b9392505050565b6000612c9c82611c95565b9150612ca783611c95565b9250612cd47fffffffffffffffffffffffffffffffffffffffffffffffffffffffffffffffff8484612bbe565b90509291505056fea2646970667358221220840fa01280a48be44ef1a9ca3c8bca681978c143596776f229b15bef91e540d064736f6c63430008110033",
			"opcodes": "PUSH2 0x2D12 PUSH2 0x53 PUSH1 0xB DUP3 DUP3 DUP3 CODECOPY DUP1 MLOAD PUSH1 0x0 BYTE PUSH1 0x73 EQ PUSH2 0x46 JUMPI PUSH32 0x4E487B7100000000000000000000000000000000000000000000000000000000 PUSH1 0x0 MSTORE PUSH1 0x0 PUSH1 0x4 MSTORE PUSH1 0x24 PUSH1 0x0 REVERT JUMPDEST ADDRESS PUSH1 0x0 MSTORE PUSH1 0x73 DUP2 MSTORE8 DUP3 DUP2 RETURN INVALID PUSH20 0x0 ADDRESS EQ PUSH1 0x80 PUSH1 0x40 MSTORE PUSH1 0x4 CALLDATASIZE LT PUSH2 0x6C JUMPI PUSH1 0x0 CALLDATALOAD PUSH1 0xE0 SHR DUP1 PUSH4 0x6F038971 EQ PUSH2 0x71 JUMPI DUP1 PUSH4 0x7AB609E5 EQ PUSH2 0xA1 JUMPI DUP1 PUSH4 0x86113702 EQ PUSH2 0xD1 JUMPI DUP1 PUSH4 0x8CE70C68 EQ PUSH2 0x101 JUMPI DUP1 PUSH4 0x988974FF EQ PUSH2 0x131 JUMPI DUP1 PUSH4 0xF6139166 EQ PUSH2 0x162 JUMPI JUMPDEST PUSH1 0x0 DUP1 REVERT JUMPDEST PUSH2 0x8B PUSH1 0x4 DUP1 CALLDATASIZE SUB DUP2 ADD SWAP1 PUSH2 0x86 SWAP2 SWAP1 PUSH2 0x1CCB JUMP JUMPDEST PUSH2 0x192 JUMP JUMPDEST PUSH1 0x40 MLOAD PUSH2 0x98 SWAP2 SWAP1 PUSH2 0x1DE0 JUMP JUMPDEST PUSH1 0x40 MLOAD DUP1 SWAP2 SUB SWAP1 RETURN JUMPDEST PUSH2 0xBB PUSH1 0x4 DUP1 CALLDATASIZE SUB DUP2 ADD SWAP1 PUSH2 0xB6 SWAP2 SWAP1 PUSH2 0x1E27 JUMP JUMPDEST PUSH2 0x1D6 JUMP JUMPDEST PUSH1 0x40 MLOAD PUSH2 0xC8 SWAP2 SWAP1 PUSH2 0x1EBA JUMP JUMPDEST PUSH1 0x40 MLOAD DUP1 SWAP2 SUB SWAP1 RETURN JUMPDEST PUSH2 0xEB PUSH1 0x4 DUP1 CALLDATASIZE SUB DUP2 ADD SWAP1 PUSH2 0xE6 SWAP2 SWAP1 PUSH2 0x20B3 JUMP JUMPDEST PUSH2 0x3CE JUMP JUMPDEST PUSH1 0x40 MLOAD PUSH2 0xF8 SWAP2 SWAP1 PUSH2 0x210B JUMP JUMPDEST PUSH1 0x40 MLOAD DUP1 SWAP2 SUB SWAP1 RETURN JUMPDEST PUSH2 0x11B PUSH1 0x4 DUP1 CALLDATASIZE SUB DUP2 ADD SWAP1 PUSH2 0x116 SWAP2 SWAP1 PUSH2 0x2184 JUMP JUMPDEST PUSH2 0x404 JUMP JUMPDEST PUSH1 0x40 MLOAD PUSH2 0x128 SWAP2 SWAP1 PUSH2 0x21DB JUMP JUMPDEST PUSH1 0x40 MLOAD DUP1 SWAP2 SUB SWAP1 RETURN JUMPDEST PUSH2 0x14B PUSH1 0x4 DUP1 CALLDATASIZE SUB DUP2 ADD SWAP1 PUSH2 0x146 SWAP2 SWAP1 PUSH2 0x20B3 JUMP JUMPDEST PUSH2 0x441 JUMP JUMPDEST PUSH1 0x40 MLOAD PUSH2 0x159 SWAP3 SWAP2 SWAP1 PUSH2 0x220C JUMP JUMPDEST PUSH1 0x40 MLOAD DUP1 SWAP2 SUB SWAP1 RETURN JUMPDEST PUSH2 0x17C PUSH1 0x4 DUP1 CALLDATASIZE SUB DUP2 ADD SWAP1 PUSH2 0x177 SWAP2 SWAP1 PUSH2 0x23AA JUMP JUMPDEST PUSH2 0x50B JUMP JUMPDEST PUSH1 0x40 MLOAD PUSH2 0x189 SWAP2 SWAP1 PUSH2 0x1EBA JUMP JUMPDEST PUSH1 0x40 MLOAD DUP1 SWAP2 SUB SWAP1 RETURN JUMPDEST PUSH2 0x19A PUSH2 0x1B10 JUMP JUMPDEST PUSH1 0x0 PUSH2 0x1A7 DUP4 PUSH1 0x0 PUSH2 0x59C JUMP JUMPDEST SWAP1 POP PUSH1 0x0 PUSH1 0x40 MLOAD DUP1 PUSH1 0x40 ADD PUSH1 0x40 MSTORE DUP1 DUP4 PUSH1 0x0 ADD MLOAD DUP2 MSTORE PUSH1 0x20 ADD DUP4 PUSH1 0x20 ADD MLOAD ISZERO ISZERO DUP2 MSTORE POP SWAP1 POP DUP1 SWAP3 POP POP POP SWAP2 SWAP1 POP JUMP JUMPDEST PUSH1 0x60 PUSH2 0x1E0 PUSH2 0x1B2C JUMP JUMPDEST PUSH1 0x40 MLOAD DUP1 PUSH1 0x20 ADD PUSH1 0x40 MSTORE DUP1 DUP5 DUP1 PUSH1 0x0 ADD SWAP1 PUSH2 0x1FB SWAP2 SWAP1 PUSH2 0x2402 JUMP JUMPDEST DUP1 DUP1 PUSH1 0x1F ADD PUSH1 0x20 DUP1 SWAP2 DIV MUL PUSH1 0x20 ADD PUSH1 0x40 MLOAD SWAP1 DUP2 ADD PUSH1 0x40 MSTORE DUP1 SWAP4 SWAP3 SWAP2 SWAP1 DUP2 DUP2 MSTORE PUSH1 0x20 ADD DUP4 DUP4 DUP1 DUP3 DUP5 CALLDATACOPY PUSH1 0x0 DUP2 DUP5 ADD MSTORE PUSH1 0x1F NOT PUSH1 0x1F DUP3 ADD AND SWAP1 POP DUP1 DUP4 ADD SWAP3 POP POP POP POP POP POP POP DUP2 MSTORE POP DUP2 PUSH1 0x0 ADD DUP2 SWAP1 MSTORE POP DUP3 PUSH1 0x20 ADD PUSH1 0x20 DUP2 ADD SWAP1 PUSH2 0x25C SWAP2 SWAP1 PUSH2 0x2465 JUMP JUMPDEST DUP2 PUSH1 0x20 ADD SWAP1 PUSH8 0xFFFFFFFFFFFFFFFF AND SWAP1 DUP2 PUSH8 0xFFFFFFFFFFFFFFFF AND DUP2 MSTORE POP POP DUP3 PUSH1 0x40 ADD PUSH1 0x20 DUP2 ADD SWAP1 PUSH2 0x28E SWAP2 SWAP1 PUSH2 0x2492 JUMP JUMPDEST DUP2 PUSH1 0x40 ADD SWAP1 ISZERO ISZERO SWAP1 DUP2 ISZERO ISZERO DUP2 MSTORE POP POP PUSH2 0x2A6 ADDRESS PUSH2 0x404 JUMP JUMPDEST DUP2 PUSH1 0x60 ADD DUP2 SWAP1 MSTORE POP PUSH2 0x2B8 PUSH1 0x0 PUSH2 0x5D7 JUMP JUMPDEST DUP2 PUSH1 0x80 ADD DUP2 SWAP1 MSTORE POP PUSH1 0x40 MLOAD DUP1 PUSH1 0x40 ADD PUSH1 0x40 MSTORE DUP1 DUP5 DUP1 PUSH1 0x60 ADD SWAP1 PUSH2 0x2DB SWAP2 SWAP1 PUSH2 0x24BF JUMP JUMPDEST DUP1 DUP1 PUSH1 0x1F ADD PUSH1 0x20 DUP1 SWAP2 DIV MUL PUSH1 0x20 ADD PUSH1 0x40 MLOAD SWAP1 DUP2 ADD PUSH1 0x40 MSTORE DUP1 SWAP4 SWAP3 SWAP2 SWAP1 DUP2 DUP2 MSTORE PUSH1 0x20 ADD DUP4 DUP4 DUP1 DUP3 DUP5 CALLDATACOPY PUSH1 0x0 DUP2 DUP5 ADD MSTORE PUSH1 0x1F NOT PUSH1 0x1F DUP3 ADD AND SWAP1 POP DUP1 DUP4 ADD SWAP3 POP POP POP POP POP POP POP DUP2 MSTORE PUSH1 0x20 ADD PUSH1 0x1 ISZERO ISZERO DUP2 MSTORE POP DUP2 PUSH1 0xA0 ADD DUP2 SWAP1 MSTORE POP DUP3 PUSH1 0x80 ADD PUSH1 0x20 DUP2 ADD SWAP1 PUSH2 0x345 SWAP2 SWAP1 PUSH2 0x255B JUMP JUMPDEST DUP2 PUSH1 0xC0 ADD SWAP1 PUSH1 0x7 SIGNEXTEND SWAP1 DUP2 PUSH1 0x7 SIGNEXTEND DUP2 MSTORE POP POP DUP3 PUSH1 0xA0 ADD PUSH1 0x20 DUP2 ADD SWAP1 PUSH2 0x369 SWAP2 SWAP1 PUSH2 0x255B JUMP JUMPDEST DUP2 PUSH1 0xE0 ADD SWAP1 PUSH1 0x7 SIGNEXTEND SWAP1 DUP2 PUSH1 0x7 SIGNEXTEND DUP2 MSTORE POP POP PUSH2 0x387 DUP4 PUSH1 0xC0 ADD CALLDATALOAD PUSH2 0x192 JUMP JUMPDEST DUP2 PUSH2 0x100 ADD DUP2 SWAP1 MSTORE POP PUSH2 0x39D DUP4 PUSH1 0xE0 ADD CALLDATALOAD PUSH2 0x192 JUMP JUMPDEST DUP2 PUSH2 0x120 ADD DUP2 SWAP1 MSTORE POP PUSH2 0x3B4 DUP4 PUSH2 0x100 ADD CALLDATALOAD PUSH2 0x192 JUMP JUMPDEST DUP2 PUSH2 0x140 ADD DUP2 SWAP1 MSTORE POP PUSH2 0x3C6 DUP2 PUSH2 0x626 JUMP JUMPDEST SWAP2 POP POP SWAP2 SWAP1 POP JUMP JUMPDEST PUSH1 0x0 DUP1 PUSH2 0x3E3 DUP4 PUSH1 0x0 ADD MLOAD DUP5 PUSH1 0x20 ADD MLOAD PUSH2 0x8D0 JUMP JUMPDEST SWAP1 POP PUSH1 0x0 DUP2 PUSH1 0x0 ADD MLOAD PUSH2 0x3F5 SWAP1 PUSH2 0x25C4 JUMP JUMPDEST PUSH1 0x0 SHR SWAP1 POP DUP1 SWAP3 POP POP POP SWAP2 SWAP1 POP JUMP JUMPDEST PUSH2 0x40C PUSH2 0x1BC2 JUMP JUMPDEST PUSH1 0x40 MLOAD DUP1 PUSH1 0x20 ADD PUSH1 0x40 MSTORE DUP1 DUP4 PUSH1 0x40 MLOAD PUSH1 0x20 ADD PUSH2 0x428 SWAP2 SWAP1 PUSH2 0x26CA JUMP JUMPDEST PUSH1 0x40 MLOAD PUSH1 0x20 DUP2 DUP4 SUB SUB DUP2 MSTORE SWAP1 PUSH1 0x40 MSTORE DUP2 MSTORE POP SWAP1 POP SWAP2 SWAP1 POP JUMP JUMPDEST PUSH1 0x0 DUP1 DUP3 PUSH1 0x20 ADD MLOAD ISZERO PUSH2 0x489 JUMPI PUSH1 0x40 MLOAD PUSH32 0x8C379A000000000000000000000000000000000000000000000000000000000 DUP2 MSTORE PUSH1 0x4 ADD PUSH2 0x480 SWAP1 PUSH2 0x274D JUMP JUMPDEST PUSH1 0x40 MLOAD DUP1 SWAP2 SUB SWAP1 REVERT JUMPDEST PUSH1 0x0 PUSH2 0x4B6 PUSH32 0xFFFFFFFFFFFFFFFFFFFFFFFFFFFFFFFFFFFFFFFFFFFFFFFFFFFFFFFFFFFFFFFF PUSH1 0x0 PUSH2 0x59C JUMP JUMPDEST SWAP1 POP PUSH1 0x0 PUSH2 0x4CC DUP6 PUSH1 0x0 ADD MLOAD DUP7 PUSH1 0x20 ADD MLOAD PUSH2 0x8D0 JUMP JUMPDEST SWAP1 POP PUSH2 0x4D8 DUP2 DUP4 PUSH2 0x8EC JUMP JUMPDEST ISZERO PUSH2 0x4EC JUMPI PUSH1 0x0 PUSH1 0x1 SWAP4 POP SWAP4 POP POP POP PUSH2 0x506 JUMP JUMPDEST DUP1 PUSH1 0x0 ADD MLOAD PUSH2 0x4FA SWAP1 PUSH2 0x25C4 JUMP JUMPDEST PUSH1 0x0 SHR PUSH1 0x0 SWAP4 POP SWAP4 POP POP POP JUMPDEST SWAP2 POP SWAP2 JUMP JUMPDEST PUSH1 0x60 PUSH1 0x0 PUSH2 0x519 PUSH1 0x40 PUSH2 0x918 JUMP JUMPDEST SWAP1 POP PUSH2 0x52F PUSH1 0x4 DUP3 PUSH2 0x93F SWAP1 SWAP2 SWAP1 PUSH4 0xFFFFFFFF AND JUMP JUMPDEST PUSH2 0x546 DUP4 PUSH1 0x0 ADD MLOAD DUP3 PUSH2 0x94F SWAP1 SWAP2 SWAP1 PUSH4 0xFFFFFFFF AND JUMP JUMPDEST PUSH2 0x55D DUP4 PUSH1 0x20 ADD MLOAD DUP3 PUSH2 0x978 SWAP1 SWAP2 SWAP1 PUSH4 0xFFFFFFFF AND JUMP JUMPDEST PUSH2 0x574 DUP4 PUSH1 0x40 ADD MLOAD DUP3 PUSH2 0x988 SWAP1 SWAP2 SWAP1 PUSH4 0xFFFFFFFF AND JUMP JUMPDEST PUSH2 0x58B DUP4 PUSH1 0x60 ADD MLOAD DUP3 PUSH2 0x988 SWAP1 SWAP2 SWAP1 PUSH4 0xFFFFFFFF AND JUMP JUMPDEST PUSH2 0x594 DUP2 PUSH2 0x9A4 JUMP JUMPDEST SWAP2 POP POP SWAP2 SWAP1 POP JUMP JUMPDEST PUSH2 0x5A4 PUSH2 0x1BD5 JUMP JUMPDEST PUSH2 0x5CF DUP4 PUSH1 0x40 MLOAD PUSH1 0x20 ADD PUSH2 0x5B8 SWAP2 SWAP1 PUSH2 0x278E JUMP JUMPDEST PUSH1 0x40 MLOAD PUSH1 0x20 DUP2 DUP4 SUB SUB DUP2 MSTORE SWAP1 PUSH1 0x40 MSTORE DUP4 PUSH1 0x0 PUSH2 0x9FD JUMP JUMPDEST SWAP1 POP SWAP3 SWAP2 POP POP JUMP JUMPDEST PUSH2 0x5DF PUSH2 0x1BC2 JUMP JUMPDEST PUSH1 0x0 PUSH2 0x5EA DUP4 PUSH2 0xACA JUMP JUMPDEST SWAP1 POP PUSH1 0x40 MLOAD DUP1 PUSH1 0x20 ADD PUSH1 0x40 MSTORE DUP1 DUP3 PUSH1 0x0 ADD MLOAD PUSH1 0x40 MLOAD PUSH1 0x20 ADD PUSH2 0x60C SWAP2 SWAP1 PUSH2 0x2811 JUMP JUMPDEST PUSH1 0x40 MLOAD PUSH1 0x20 DUP2 DUP4 SUB SUB DUP2 MSTORE SWAP1 PUSH1 0x40 MSTORE DUP2 MSTORE POP SWAP2 POP POP SWAP2 SWAP1 POP JUMP JUMPDEST PUSH1 0x60 PUSH1 0x0 DUP1 PUSH2 0x639 DUP5 PUSH2 0x100 ADD MLOAD PUSH2 0xB42 JUMP JUMPDEST SWAP1 POP PUSH1 0x0 PUSH2 0x64B DUP6 PUSH2 0x120 ADD MLOAD PUSH2 0xB42 JUMP JUMPDEST SWAP1 POP PUSH1 0x0 PUSH2 0x65D DUP7 PUSH2 0x140 ADD MLOAD PUSH2 0xB42 JUMP JUMPDEST SWAP1 POP PUSH2 0x669 PUSH1 0xB PUSH2 0xCAF JUMP JUMPDEST DUP5 PUSH2 0x674 SWAP2 SWAP1 PUSH2 0x2862 JUMP JUMPDEST SWAP4 POP PUSH2 0x687 DUP7 PUSH1 0x0 ADD MLOAD PUSH1 0x0 ADD MLOAD PUSH2 0xD03 JUMP JUMPDEST DUP5 PUSH2 0x692 SWAP2 SWAP1 PUSH2 0x2862 JUMP JUMPDEST SWAP4 POP PUSH2 0x6AB DUP7 PUSH1 0x20 ADD MLOAD PUSH8 0xFFFFFFFFFFFFFFFF AND PUSH2 0xCAF JUMP JUMPDEST DUP5 PUSH2 0x6B6 SWAP2 SWAP1 PUSH2 0x2862 JUMP JUMPDEST SWAP4 POP PUSH2 0x6C0 PUSH2 0xD22 JUMP JUMPDEST DUP5 PUSH2 0x6CB SWAP2 SWAP1 PUSH2 0x2862 JUMP JUMPDEST SWAP4 POP PUSH2 0x6DE DUP7 PUSH1 0x60 ADD MLOAD PUSH1 0x0 ADD MLOAD PUSH2 0xD33 JUMP JUMPDEST DUP5 PUSH2 0x6E9 SWAP2 SWAP1 PUSH2 0x2862 JUMP JUMPDEST SWAP4 POP PUSH2 0x6FC DUP7 PUSH1 0x80 ADD MLOAD PUSH1 0x0 ADD MLOAD PUSH2 0xD33 JUMP JUMPDEST DUP5 PUSH2 0x707 SWAP2 SWAP1 PUSH2 0x2862 JUMP JUMPDEST SWAP4 POP PUSH2 0x71A DUP7 PUSH1 0xA0 ADD MLOAD PUSH1 0x0 ADD MLOAD PUSH2 0xD33 JUMP JUMPDEST DUP5 PUSH2 0x725 SWAP2 SWAP1 PUSH2 0x2862 JUMP JUMPDEST SWAP4 POP PUSH2 0x734 DUP7 PUSH1 0xC0 ADD MLOAD PUSH2 0xD52 JUMP JUMPDEST DUP5 PUSH2 0x73F SWAP2 SWAP1 PUSH2 0x2862 JUMP JUMPDEST SWAP4 POP PUSH2 0x74E DUP7 PUSH1 0xE0 ADD MLOAD PUSH2 0xD52 JUMP JUMPDEST DUP5 PUSH2 0x759 SWAP2 SWAP1 PUSH2 0x2862 JUMP JUMPDEST SWAP4 POP PUSH2 0x764 DUP4 PUSH2 0xD33 JUMP JUMPDEST DUP5 PUSH2 0x76F SWAP2 SWAP1 PUSH2 0x2862 JUMP JUMPDEST SWAP4 POP PUSH2 0x77A DUP3 PUSH2 0xD33 JUMP JUMPDEST DUP5 PUSH2 0x785 SWAP2 SWAP1 PUSH2 0x2862 JUMP JUMPDEST SWAP4 POP PUSH2 0x790 DUP2 PUSH2 0xD33 JUMP JUMPDEST DUP5 PUSH2 0x79B SWAP2 SWAP1 PUSH2 0x2862 JUMP JUMPDEST SWAP4 POP PUSH1 0x0 PUSH2 0x7A8 DUP6 PUSH2 0xDC5 JUMP JUMPDEST SWAP1 POP PUSH2 0x7BE PUSH1 0xB DUP3 PUSH2 0xDEC SWAP1 SWAP2 SWAP1 PUSH4 0xFFFFFFFF AND JUMP JUMPDEST PUSH2 0x7D9 DUP8 PUSH1 0x0 ADD MLOAD PUSH1 0x0 ADD MLOAD DUP3 PUSH2 0xDFC SWAP1 SWAP2 SWAP1 PUSH4 0xFFFFFFFF AND JUMP JUMPDEST PUSH2 0x7F0 DUP8 PUSH1 0x20 ADD MLOAD DUP3 PUSH2 0xE6E SWAP1 SWAP2 SWAP1 PUSH4 0xFFFFFFFF AND JUMP JUMPDEST PUSH2 0x807 DUP8 PUSH1 0x40 ADD MLOAD DUP3 PUSH2 0xE7E SWAP1 SWAP2 SWAP1 PUSH4 0xFFFFFFFF AND JUMP JUMPDEST PUSH2 0x822 DUP8 PUSH1 0x60 ADD MLOAD PUSH1 0x0 ADD MLOAD DUP3 PUSH2 0xE9A SWAP1 SWAP2 SWAP1 PUSH4 0xFFFFFFFF AND JUMP JUMPDEST PUSH2 0x83D DUP8 PUSH1 0x80 ADD MLOAD PUSH1 0x0 ADD MLOAD DUP3 PUSH2 0xE9A SWAP1 SWAP2 SWAP1 PUSH4 0xFFFFFFFF AND JUMP JUMPDEST PUSH2 0x854 DUP8 PUSH1 0xA0 ADD MLOAD DUP3 PUSH2 0xEC3 SWAP1 SWAP2 SWAP1 PUSH4 0xFFFFFFFF AND JUMP JUMPDEST PUSH2 0x86B DUP8 PUSH1 0xC0 ADD MLOAD DUP3 PUSH2 0xF04 SWAP1 SWAP2 SWAP1 PUSH4 0xFFFFFFFF AND JUMP JUMPDEST PUSH2 0x882 DUP8 PUSH1 0xE0 ADD MLOAD DUP3 PUSH2 0xF04 SWAP1 SWAP2 SWAP1 PUSH4 0xFFFFFFFF AND JUMP JUMPDEST PUSH2 0x895 DUP5 DUP3 PUSH2 0xE9A SWAP1 SWAP2 SWAP1 PUSH4 0xFFFFFFFF AND JUMP JUMPDEST PUSH2 0x8A8 DUP4 DUP3 PUSH2 0xE9A SWAP1 SWAP2 SWAP1 PUSH4 0xFFFFFFFF AND JUMP JUMPDEST PUSH2 0x8BB DUP3 DUP3 PUSH2 0xE9A SWAP1 SWAP2 SWAP1 PUSH4 0xFFFFFFFF AND JUMP JUMPDEST PUSH2 0x8C4 DUP2 PUSH2 0xF1B JUMP JUMPDEST SWAP6 POP POP POP POP POP POP SWAP2 SWAP1 POP JUMP JUMPDEST PUSH2 0x8D8 PUSH2 0x1BD5 JUMP JUMPDEST PUSH2 0x8E4 DUP4 DUP4 PUSH1 0x0 PUSH2 0x9FD JUMP JUMPDEST SWAP1 POP SWAP3 SWAP2 POP POP JUMP JUMPDEST PUSH1 0x0 DUP1 PUSH2 0x8FB DUP5 DUP5 PUSH1 0x1 PUSH2 0xF74 JUMP JUMPDEST SWAP1 POP PUSH1 0x1 DUP2 EQ PUSH2 0x90C JUMPI PUSH1 0x0 PUSH2 0x90F JUMP JUMPDEST PUSH1 0x1 JUMPDEST SWAP2 POP POP SWAP3 SWAP2 POP POP JUMP JUMPDEST PUSH2 0x920 PUSH2 0x1BF8 JUMP JUMPDEST PUSH2 0x92E DUP2 PUSH1 0x0 ADD MLOAD DUP4 PUSH2 0x1151 JUMP JUMPDEST POP PUSH1 0x0 DUP2 PUSH1 0x20 ADD DUP2 DUP2 MSTORE POP POP SWAP2 SWAP1 POP JUMP JUMPDEST PUSH2 0x94B DUP3 PUSH1 0x4 DUP4 PUSH2 0x11CA JUMP JUMPDEST POP POP JUMP JUMPDEST PUSH2 0x95C DUP3 PUSH1 0x3 DUP4 MLOAD PUSH2 0x11DA JUMP JUMPDEST PUSH2 0x973 DUP2 DUP4 PUSH1 0x0 ADD MLOAD PUSH2 0x1383 SWAP1 SWAP2 SWAP1 PUSH4 0xFFFFFFFF AND JUMP JUMPDEST POP POP POP JUMP JUMPDEST PUSH2 0x984 DUP3 PUSH1 0x0 DUP4 PUSH2 0x11DA JUMP JUMPDEST POP POP JUMP JUMPDEST PUSH2 0x9A0 DUP3 DUP3 PUSH2 0x998 JUMPI PUSH1 0x14 PUSH2 0x99B JUMP JUMPDEST PUSH1 0x15 JUMPDEST PUSH2 0x139F JUMP JUMPDEST POP POP JUMP JUMPDEST PUSH1 0x60 PUSH1 0x0 DUP3 PUSH1 0x20 ADD MLOAD EQ PUSH2 0x9ED JUMPI PUSH1 0x40 MLOAD PUSH32 0x8C379A000000000000000000000000000000000000000000000000000000000 DUP2 MSTORE PUSH1 0x4 ADD PUSH2 0x9E4 SWAP1 PUSH2 0x28E2 JUMP JUMPDEST PUSH1 0x40 MLOAD DUP1 SWAP2 SUB SWAP1 REVERT JUMPDEST DUP2 PUSH1 0x0 ADD MLOAD PUSH1 0x0 ADD MLOAD SWAP1 POP SWAP2 SWAP1 POP JUMP JUMPDEST PUSH2 0xA05 PUSH2 0x1BD5 JUMP JUMPDEST PUSH1 0x20 DUP5 ADD DUP5 MLOAD PUSH1 0x0 MSIZE PUSH1 0x0 PUSH1 0x20 DUP5 MOD EQ PUSH1 0x1 DUP2 EQ PUSH2 0xA37 JUMPI PUSH1 0x20 DUP5 MOD PUSH1 0x20 SUB PUSH1 0x20 DUP2 DUP5 ADD ADD SWAP4 POP DUP1 DUP6 ADD DUP4 MSTORE POP PUSH2 0xA41 JUMP JUMPDEST PUSH1 0x20 DUP3 ADD SWAP3 POP DUP4 DUP3 MSTORE JUMPDEST POP DUP3 DUP3 DUP5 DUP7 PUSH1 0x4 PUSH2 0x1C2 STATICCALL POP PUSH1 0x20 DUP2 MLOAD ADD DUP2 ADD PUSH1 0x40 MSTORE DUP1 MLOAD JUMPDEST PUSH1 0x0 PUSH1 0x20 DUP3 EQ SUB PUSH2 0xA8D JUMPI PUSH1 0x0 PUSH1 0x20 DUP4 ADD MLOAD EQ PUSH1 0x1 DUP2 EQ PUSH2 0xA7B JUMPI POP PUSH2 0xA8D JUMP JUMPDEST PUSH1 0x20 DUP4 ADD SWAP3 POP POP PUSH1 0x20 DUP2 SUB SWAP1 POP PUSH2 0xA5A JUMP JUMPDEST DUP1 DUP3 MSTORE DUP2 DUP7 MSTORE DUP8 PUSH1 0x20 DUP8 ADD MSTORE POP POP POP POP POP PUSH1 0x0 DUP3 EQ PUSH2 0xAAC JUMPI DUP2 PUSH2 0xABA JUMP JUMPDEST PUSH2 0xAB9 DUP2 PUSH1 0x0 ADD MLOAD PUSH2 0x13C5 JUMP JUMPDEST JUMPDEST DUP2 PUSH1 0x40 ADD DUP2 DUP2 MSTORE POP POP SWAP4 SWAP3 POP POP POP JUMP JUMPDEST PUSH2 0xAD2 PUSH2 0x1C18 JUMP JUMPDEST JUMPDEST PUSH1 0x1 ISZERO PUSH2 0xB3C JUMPI PUSH1 0x0 PUSH1 0x7F DUP4 AND SWAP1 POP PUSH1 0x7 DUP4 PUSH8 0xFFFFFFFFFFFFFFFF AND SWAP1 SHR SWAP3 POP PUSH1 0x0 DUP4 PUSH8 0xFFFFFFFFFFFFFFFF AND SUB PUSH2 0xB1F JUMPI PUSH2 0xB18 DUP2 DUP4 PUSH2 0x1405 SWAP1 SWAP2 SWAP1 PUSH4 0xFFFFFFFF AND JUMP JUMPDEST POP POP PUSH2 0xB3D JUMP JUMPDEST PUSH2 0xB35 PUSH1 0x80 DUP3 OR DUP4 PUSH2 0x1405 SWAP1 SWAP2 SWAP1 PUSH4 0xFFFFFFFF AND JUMP JUMPDEST POP POP PUSH2 0xAD3 JUMP JUMPDEST JUMPDEST SWAP2 SWAP1 POP JUMP JUMPDEST PUSH1 0x60 PUSH1 0x0 PUSH1 0x1 DUP4 PUSH1 0x0 ADD MLOAD MLOAD PUSH2 0xB58 SWAP2 SWAP1 PUSH2 0x2862 JUMP JUMPDEST PUSH8 0xFFFFFFFFFFFFFFFF DUP2 GT ISZERO PUSH2 0xB71 JUMPI PUSH2 0xB70 PUSH2 0x1EE1 JUMP JUMPDEST JUMPDEST PUSH1 0x40 MLOAD SWAP1 DUP1 DUP3 MSTORE DUP1 PUSH1 0x1F ADD PUSH1 0x1F NOT AND PUSH1 0x20 ADD DUP3 ADD PUSH1 0x40 MSTORE DUP1 ISZERO PUSH2 0xBA3 JUMPI DUP2 PUSH1 0x20 ADD PUSH1 0x1 DUP3 MUL DUP1 CALLDATASIZE DUP4 CALLDATACOPY DUP1 DUP3 ADD SWAP2 POP POP SWAP1 POP JUMPDEST POP SWAP1 POP PUSH1 0x1 ISZERO ISZERO DUP4 PUSH1 0x20 ADD MLOAD ISZERO ISZERO EQ PUSH2 0xBC0 JUMPI PUSH1 0x0 PUSH1 0xF8 SHL PUSH2 0xBC6 JUMP JUMPDEST PUSH1 0x1 PUSH1 0xF8 SHL JUMPDEST DUP2 PUSH1 0x0 DUP2 MLOAD DUP2 LT PUSH2 0xBDA JUMPI PUSH2 0xBD9 PUSH2 0x2902 JUMP JUMPDEST JUMPDEST PUSH1 0x20 ADD ADD SWAP1 PUSH31 0xFFFFFFFFFFFFFFFFFFFFFFFFFFFFFFFFFFFFFFFFFFFFFFFFFFFFFFFFFFFFFF NOT AND SWAP1 DUP2 PUSH1 0x0 BYTE SWAP1 MSTORE8 POP PUSH1 0x0 PUSH1 0x1 SWAP1 POP PUSH1 0x0 JUMPDEST DUP5 PUSH1 0x0 ADD MLOAD MLOAD DUP2 LT ISZERO PUSH2 0xCA4 JUMPI DUP5 PUSH1 0x0 ADD MLOAD DUP2 DUP2 MLOAD DUP2 LT PUSH2 0xC36 JUMPI PUSH2 0xC35 PUSH2 0x2902 JUMP JUMPDEST JUMPDEST PUSH1 0x20 ADD ADD MLOAD PUSH1 0xF8 SHR PUSH1 0xF8 SHL DUP4 DUP4 DUP2 MLOAD DUP2 LT PUSH2 0xC54 JUMPI PUSH2 0xC53 PUSH2 0x2902 JUMP JUMPDEST JUMPDEST PUSH1 0x20 ADD ADD SWAP1 PUSH31 0xFFFFFFFFFFFFFFFFFFFFFFFFFFFFFFFFFFFFFFFFFFFFFFFFFFFFFFFFFFFFFF NOT AND SWAP1 DUP2 PUSH1 0x0 BYTE SWAP1 MSTORE8 POP DUP2 DUP1 PUSH2 0xC8E SWAP1 PUSH2 0x2931 JUMP JUMPDEST SWAP3 POP POP DUP1 DUP1 PUSH2 0xC9C SWAP1 PUSH2 0x2931 JUMP JUMPDEST SWAP2 POP POP PUSH2 0xC12 JUMP JUMPDEST POP DUP2 SWAP3 POP POP POP SWAP2 SWAP1 POP JUMP JUMPDEST PUSH1 0x0 PUSH1 0x17 DUP3 GT PUSH2 0xCC2 JUMPI PUSH1 0x1 SWAP1 POP PUSH2 0xCFE JUMP JUMPDEST PUSH1 0xFF DUP3 GT PUSH2 0xCD3 JUMPI PUSH1 0x2 SWAP1 POP PUSH2 0xCFE JUMP JUMPDEST PUSH2 0xFFFF DUP3 GT PUSH2 0xCE5 JUMPI PUSH1 0x3 SWAP1 POP PUSH2 0xCFE JUMP JUMPDEST PUSH4 0xFFFFFFFF DUP3 GT PUSH2 0xCF9 JUMPI PUSH1 0x5 SWAP1 POP PUSH2 0xCFE JUMP JUMPDEST PUSH1 0x9 SWAP1 POP JUMPDEST SWAP2 SWAP1 POP JUMP JUMPDEST PUSH1 0x0 DUP2 MLOAD PUSH2 0xD11 PUSH1 0x2 PUSH2 0xCAF JUMP JUMPDEST PUSH2 0xD1B SWAP2 SWAP1 PUSH2 0x2862 JUMP JUMPDEST SWAP1 POP SWAP2 SWAP1 POP JUMP JUMPDEST PUSH1 0x0 PUSH2 0xD2E PUSH1 0x1 PUSH2 0xCAF JUMP JUMPDEST SWAP1 POP SWAP1 JUMP JUMPDEST PUSH1 0x0 DUP2 MLOAD PUSH2 0xD41 DUP4 MLOAD PUSH2 0xCAF JUMP JUMPDEST PUSH2 0xD4B SWAP2 SWAP1 PUSH2 0x2862 JUMP JUMPDEST SWAP1 POP SWAP2 SWAP1 POP JUMP JUMPDEST PUSH1 0x0 DUP1 DUP3 SWAP1 POP PUSH1 0x0 DUP2 PUSH1 0x7 SIGNEXTEND SLT PUSH2 0xD7E JUMPI PUSH2 0xD76 DUP2 PUSH8 0xFFFFFFFFFFFFFFFF AND PUSH2 0xCAF JUMP JUMPDEST SWAP2 POP POP PUSH2 0xDC0 JUMP JUMPDEST PUSH2 0xDBC DUP2 PUSH32 0xFFFFFFFFFFFFFFFFFFFFFFFFFFFFFFFFFFFFFFFFFFFFFFFFFFFFFFFFFFFFFFFF PUSH2 0xDAD SWAP2 SWAP1 PUSH2 0x2979 JUMP JUMPDEST PUSH8 0xFFFFFFFFFFFFFFFF AND PUSH2 0xCAF JUMP JUMPDEST SWAP2 POP POP JUMPDEST SWAP2 SWAP1 POP JUMP JUMPDEST PUSH2 0xDCD PUSH2 0x1C32 JUMP JUMPDEST PUSH2 0xDDB DUP2 PUSH1 0x0 ADD MLOAD DUP4 PUSH2 0x1151 JUMP JUMPDEST POP PUSH1 0x0 DUP2 PUSH1 0x20 ADD DUP2 DUP2 MSTORE POP POP SWAP2 SWAP1 POP JUMP JUMPDEST PUSH2 0xDF8 DUP3 PUSH1 0x4 DUP4 PUSH2 0x146F JUMP JUMPDEST POP POP JUMP JUMPDEST PUSH2 0xE1E PUSH1 0x18 PUSH1 0x5 PUSH1 0x6 PUSH1 0xFF AND SWAP1 SHL OR DUP4 PUSH1 0x0 ADD MLOAD PUSH2 0x1405 SWAP1 SWAP2 SWAP1 PUSH4 0xFFFFFFFF AND JUMP JUMPDEST POP PUSH2 0xE37 PUSH1 0x2A DUP4 PUSH1 0x0 ADD MLOAD PUSH2 0x1405 SWAP1 SWAP2 SWAP1 PUSH4 0xFFFFFFFF AND JUMP JUMPDEST POP PUSH2 0xE6A DUP2 PUSH1 0x40 MLOAD PUSH1 0x20 ADD PUSH2 0xE4C SWAP2 SWAP1 PUSH2 0x29E0 JUMP JUMPDEST PUSH1 0x40 MLOAD PUSH1 0x20 DUP2 DUP4 SUB SUB DUP2 MSTORE SWAP1 PUSH1 0x40 MSTORE DUP4 PUSH2 0xE9A SWAP1 SWAP2 SWAP1 PUSH4 0xFFFFFFFF AND JUMP JUMPDEST POP POP JUMP JUMPDEST PUSH2 0xE7A DUP3 PUSH1 0x0 DUP4 PUSH2 0x147F JUMP JUMPDEST POP POP JUMP JUMPDEST PUSH2 0xE96 DUP3 DUP3 PUSH2 0xE8E JUMPI PUSH1 0x14 PUSH2 0xE91 JUMP JUMPDEST PUSH1 0x15 JUMPDEST PUSH2 0x1628 JUMP JUMPDEST POP POP JUMP JUMPDEST PUSH2 0xEA7 DUP3 PUSH1 0x2 DUP4 MLOAD PUSH2 0x147F JUMP JUMPDEST PUSH2 0xEBE DUP2 DUP4 PUSH1 0x0 ADD MLOAD PUSH2 0x1383 SWAP1 SWAP2 SWAP1 PUSH4 0xFFFFFFFF AND JUMP JUMPDEST POP POP POP JUMP JUMPDEST DUP1 PUSH1 0x20 ADD MLOAD PUSH2 0xEE8 JUMPI PUSH2 0xEE3 DUP2 PUSH1 0x0 ADD MLOAD DUP4 PUSH2 0xE9A SWAP1 SWAP2 SWAP1 PUSH4 0xFFFFFFFF AND JUMP JUMPDEST PUSH2 0xF00 JUMP JUMPDEST PUSH2 0xEFF DUP2 PUSH1 0x0 ADD MLOAD DUP4 PUSH2 0x164E SWAP1 SWAP2 SWAP1 PUSH4 0xFFFFFFFF AND JUMP JUMPDEST JUMPDEST POP POP JUMP JUMPDEST PUSH2 0xF17 DUP2 DUP4 PUSH2 0x1677 SWAP1 SWAP2 SWAP1 PUSH4 0xFFFFFFFF AND JUMP JUMPDEST POP POP JUMP JUMPDEST PUSH1 0x60 PUSH1 0x0 DUP3 PUSH1 0x20 ADD MLOAD EQ PUSH2 0xF64 JUMPI PUSH1 0x40 MLOAD PUSH32 0x8C379A000000000000000000000000000000000000000000000000000000000 DUP2 MSTORE PUSH1 0x4 ADD PUSH2 0xF5B SWAP1 PUSH2 0x28E2 JUMP JUMPDEST PUSH1 0x40 MLOAD DUP1 SWAP2 SUB SWAP1 REVERT JUMPDEST DUP2 PUSH1 0x0 ADD MLOAD PUSH1 0x0 ADD MLOAD SWAP1 POP SWAP2 SWAP1 POP JUMP JUMPDEST PUSH1 0x0 DUP1 PUSH1 0x1 SWAP1 POP DUP3 ISZERO PUSH2 0x103F JUMPI DUP5 PUSH1 0x20 ADD MLOAD DUP1 ISZERO PUSH2 0xF93 JUMPI POP DUP4 PUSH1 0x20 ADD MLOAD JUMPDEST ISZERO PUSH2 0xFC0 JUMPI PUSH32 0xFFFFFFFFFFFFFFFFFFFFFFFFFFFFFFFFFFFFFFFFFFFFFFFFFFFFFFFFFFFFFFFF SWAP1 POP PUSH2 0x103E JUMP JUMPDEST PUSH1 0x0 ISZERO ISZERO DUP6 PUSH1 0x20 ADD MLOAD ISZERO ISZERO EQ DUP1 ISZERO PUSH2 0xFE0 JUMPI POP PUSH1 0x1 ISZERO ISZERO DUP5 PUSH1 0x20 ADD MLOAD ISZERO ISZERO EQ JUMPDEST ISZERO PUSH2 0xFEF JUMPI PUSH1 0x1 SWAP2 POP POP PUSH2 0x114A JUMP JUMPDEST PUSH1 0x1 ISZERO ISZERO DUP6 PUSH1 0x20 ADD MLOAD ISZERO ISZERO EQ DUP1 ISZERO PUSH2 0x100F JUMPI POP PUSH1 0x0 ISZERO ISZERO DUP5 PUSH1 0x20 ADD MLOAD ISZERO ISZERO EQ JUMPDEST ISZERO PUSH2 0x103D JUMPI PUSH32 0xFFFFFFFFFFFFFFFFFFFFFFFFFFFFFFFFFFFFFFFFFFFFFFFFFFFFFFFFFFFFFFFF SWAP2 POP POP PUSH2 0x114A JUMP JUMPDEST JUMPDEST JUMPDEST DUP4 PUSH1 0x40 ADD MLOAD DUP6 PUSH1 0x40 ADD MLOAD GT ISZERO PUSH2 0x1058 JUMPI DUP1 SWAP2 POP POP PUSH2 0x114A JUMP JUMPDEST DUP5 PUSH1 0x40 ADD MLOAD DUP5 PUSH1 0x40 ADD MLOAD GT ISZERO PUSH2 0x109C JUMPI DUP1 PUSH32 0xFFFFFFFFFFFFFFFFFFFFFFFFFFFFFFFFFFFFFFFFFFFFFFFFFFFFFFFFFFFFFFFF PUSH2 0x1094 SWAP2 SWAP1 PUSH2 0x2A10 JUMP JUMPDEST SWAP2 POP POP PUSH2 0x114A JUMP JUMPDEST PUSH1 0x0 DUP1 PUSH1 0x0 DUP1 PUSH1 0x0 DUP10 PUSH1 0x0 ADD MLOAD MLOAD SWAP1 POP PUSH1 0x20 DUP11 MLOAD ADD SWAP5 POP PUSH1 0x20 DUP10 MLOAD ADD SWAP4 POP PUSH1 0x0 JUMPDEST DUP2 DUP2 LT ISZERO PUSH2 0x113E JUMPI DUP1 DUP7 ADD MLOAD SWAP4 POP DUP1 DUP6 ADD MLOAD SWAP3 POP DUP3 DUP5 GT ISZERO PUSH2 0x10E8 JUMPI DUP7 SWAP8 POP POP POP POP POP POP POP POP PUSH2 0x114A JUMP JUMPDEST DUP4 DUP4 GT ISZERO PUSH2 0x112A JUMPI DUP7 PUSH32 0xFFFFFFFFFFFFFFFFFFFFFFFFFFFFFFFFFFFFFFFFFFFFFFFFFFFFFFFFFFFFFFFF PUSH2 0x111C SWAP2 SWAP1 PUSH2 0x2A10 JUMP JUMPDEST SWAP8 POP POP POP POP POP POP POP POP PUSH2 0x114A JUMP JUMPDEST PUSH1 0x20 DUP2 PUSH2 0x1137 SWAP2 SWAP1 PUSH2 0x2862 JUMP JUMPDEST SWAP1 POP PUSH2 0x10BD JUMP JUMPDEST POP PUSH1 0x0 SWAP7 POP POP POP POP POP POP POP JUMPDEST SWAP4 SWAP3 POP POP POP JUMP JUMPDEST PUSH2 0x1159 PUSH2 0x1C18 JUMP JUMPDEST PUSH1 0x0 PUSH1 0x20 DUP4 PUSH2 0x1168 SWAP2 SWAP1 PUSH2 0x2AB7 JUMP JUMPDEST EQ PUSH2 0x1194 JUMPI PUSH1 0x20 DUP3 PUSH2 0x117A SWAP2 SWAP1 PUSH2 0x2AB7 JUMP JUMPDEST PUSH1 0x20 PUSH2 0x1186 SWAP2 SWAP1 PUSH2 0x2AE8 JUMP JUMPDEST DUP3 PUSH2 0x1191 SWAP2 SWAP1 PUSH2 0x2862 JUMP JUMPDEST SWAP2 POP JUMPDEST DUP2 DUP4 PUSH1 0x20 ADD DUP2 DUP2 MSTORE POP POP PUSH1 0x40 MLOAD DUP1 DUP5 MSTORE PUSH1 0x0 DUP2 MSTORE DUP3 DUP2 ADD PUSH1 0x20 ADD DUP2 DUP2 LT ISZERO PUSH2 0x11BB JUMPI PUSH1 0x0 DUP1 REVERT JUMPDEST DUP1 PUSH1 0x40 MSTORE POP POP DUP3 SWAP1 POP SWAP3 SWAP2 POP POP JUMP JUMPDEST PUSH2 0x11D5 DUP4 DUP4 DUP4 PUSH2 0x11DA JUMP JUMPDEST POP POP POP JUMP JUMPDEST PUSH1 0x17 DUP2 PUSH8 0xFFFFFFFFFFFFFFFF AND GT PUSH2 0x1215 JUMPI PUSH2 0x120F DUP2 PUSH1 0x5 DUP5 PUSH1 0xFF AND SWAP1 SHL PUSH1 0xFF AND OR DUP5 PUSH1 0x0 ADD MLOAD PUSH2 0x1405 SWAP1 SWAP2 SWAP1 PUSH4 0xFFFFFFFF AND JUMP JUMPDEST POP PUSH2 0x137E JUMP JUMPDEST PUSH1 0xFF DUP2 PUSH8 0xFFFFFFFFFFFFFFFF AND GT PUSH2 0x1273 JUMPI PUSH2 0x1248 PUSH1 0x18 PUSH1 0x5 DUP5 PUSH1 0xFF AND SWAP1 SHL OR DUP5 PUSH1 0x0 ADD MLOAD PUSH2 0x1405 SWAP1 SWAP2 SWAP1 PUSH4 0xFFFFFFFF AND JUMP JUMPDEST POP PUSH2 0x126D DUP2 PUSH8 0xFFFFFFFFFFFFFFFF AND PUSH1 0x1 DUP6 PUSH1 0x0 ADD MLOAD PUSH2 0x16CF SWAP1 SWAP3 SWAP2 SWAP1 PUSH4 0xFFFFFFFF AND JUMP JUMPDEST POP PUSH2 0x137D JUMP JUMPDEST PUSH2 0xFFFF DUP2 PUSH8 0xFFFFFFFFFFFFFFFF AND GT PUSH2 0x12D2 JUMPI PUSH2 0x12A7 PUSH1 0x19 PUSH1 0x5 DUP5 PUSH1 0xFF AND SWAP1 SHL OR DUP5 PUSH1 0x0 ADD MLOAD PUSH2 0x1405 SWAP1 SWAP2 SWAP1 PUSH4 0xFFFFFFFF AND JUMP JUMPDEST POP PUSH2 0x12CC DUP2 PUSH8 0xFFFFFFFFFFFFFFFF AND PUSH1 0x2 DUP6 PUSH1 0x0 ADD MLOAD PUSH2 0x16CF SWAP1 SWAP3 SWAP2 SWAP1 PUSH4 0xFFFFFFFF AND JUMP JUMPDEST POP PUSH2 0x137C JUMP JUMPDEST PUSH4 0xFFFFFFFF DUP2 PUSH8 0xFFFFFFFFFFFFFFFF AND GT PUSH2 0x1333 JUMPI PUSH2 0x1308 PUSH1 0x1A PUSH1 0x5 DUP5 PUSH1 0xFF AND SWAP1 SHL OR DUP5 PUSH1 0x0 ADD MLOAD PUSH2 0x1405 SWAP1 SWAP2 SWAP1 PUSH4 0xFFFFFFFF AND JUMP JUMPDEST POP PUSH2 0x132D DUP2 PUSH8 0xFFFFFFFFFFFFFFFF AND PUSH1 0x4 DUP6 PUSH1 0x0 ADD MLOAD PUSH2 0x16CF SWAP1 SWAP3 SWAP2 SWAP1 PUSH4 0xFFFFFFFF AND JUMP JUMPDEST POP PUSH2 0x137B JUMP JUMPDEST PUSH2 0x1354 PUSH1 0x1B PUSH1 0x5 DUP5 PUSH1 0xFF AND SWAP1 SHL OR DUP5 PUSH1 0x0 ADD MLOAD PUSH2 0x1405 SWAP1 SWAP2 SWAP1 PUSH4 0xFFFFFFFF AND JUMP JUMPDEST POP PUSH2 0x1379 DUP2 PUSH8 0xFFFFFFFFFFFFFFFF AND PUSH1 0x8 DUP6 PUSH1 0x0 ADD MLOAD PUSH2 0x16CF SWAP1 SWAP3 SWAP2 SWAP1 PUSH4 0xFFFFFFFF AND JUMP JUMPDEST POP JUMPDEST JUMPDEST JUMPDEST JUMPDEST POP POP POP JUMP JUMPDEST PUSH2 0x138B PUSH2 0x1C18 JUMP JUMPDEST PUSH2 0x1397 DUP4 DUP4 DUP5 MLOAD PUSH2 0x175C JUMP JUMPDEST SWAP1 POP SWAP3 SWAP2 POP POP JUMP JUMPDEST PUSH2 0x13C0 DUP2 PUSH1 0x5 PUSH1 0x7 PUSH1 0xFF AND SWAP1 SHL OR DUP4 PUSH1 0x0 ADD MLOAD PUSH2 0x1405 SWAP1 SWAP2 SWAP1 PUSH4 0xFFFFFFFF AND JUMP JUMPDEST POP POP POP JUMP JUMPDEST PUSH1 0x0 PUSH2 0x13D0 DUP3 PUSH2 0x183F JUMP JUMPDEST ISZERO PUSH2 0x13DE JUMPI PUSH1 0x0 SWAP1 POP PUSH2 0x1400 JUMP JUMPDEST PUSH1 0x0 PUSH1 0x20 DUP4 ADD MLOAD SWAP1 POP PUSH2 0x13F0 DUP2 PUSH2 0x1896 JUMP JUMPDEST SWAP2 POP PUSH1 0x8 PUSH1 0x20 DUP5 MLOAD SUB MUL DUP3 ADD SWAP2 POP POP JUMPDEST SWAP2 SWAP1 POP JUMP JUMPDEST PUSH2 0x140D PUSH2 0x1C18 JUMP JUMPDEST PUSH1 0x0 DUP4 PUSH1 0x0 ADD MLOAD MLOAD SWAP1 POP PUSH1 0x0 PUSH1 0x1 DUP3 PUSH2 0x1426 SWAP2 SWAP1 PUSH2 0x2862 JUMP JUMPDEST SWAP1 POP DUP5 PUSH1 0x20 ADD MLOAD DUP3 LT PUSH2 0x144A JUMPI PUSH2 0x1449 DUP6 PUSH1 0x2 DUP4 PUSH2 0x1444 SWAP2 SWAP1 PUSH2 0x2B1C JUMP JUMPDEST PUSH2 0x1AEC JUMP JUMPDEST JUMPDEST DUP5 MLOAD PUSH1 0x20 DUP4 DUP3 ADD ADD DUP6 DUP2 MSTORE8 DUP2 MLOAD DUP4 GT ISZERO PUSH2 0x1462 JUMPI DUP3 DUP3 MSTORE JUMPDEST POP POP DUP5 SWAP3 POP POP POP SWAP3 SWAP2 POP POP JUMP JUMPDEST PUSH2 0x147A DUP4 DUP4 DUP4 PUSH2 0x147F JUMP JUMPDEST POP POP POP JUMP JUMPDEST PUSH1 0x17 DUP2 PUSH8 0xFFFFFFFFFFFFFFFF AND GT PUSH2 0x14BA JUMPI PUSH2 0x14B4 DUP2 PUSH1 0x5 DUP5 PUSH1 0xFF AND SWAP1 SHL PUSH1 0xFF AND OR DUP5 PUSH1 0x0 ADD MLOAD PUSH2 0x1405 SWAP1 SWAP2 SWAP1 PUSH4 0xFFFFFFFF AND JUMP JUMPDEST POP PUSH2 0x1623 JUMP JUMPDEST PUSH1 0xFF DUP2 PUSH8 0xFFFFFFFFFFFFFFFF AND GT PUSH2 0x1518 JUMPI PUSH2 0x14ED PUSH1 0x18 PUSH1 0x5 DUP5 PUSH1 0xFF AND SWAP1 SHL OR DUP5 PUSH1 0x0 ADD MLOAD PUSH2 0x1405 SWAP1 SWAP2 SWAP1 PUSH4 0xFFFFFFFF AND JUMP JUMPDEST POP PUSH2 0x1512 DUP2 PUSH8 0xFFFFFFFFFFFFFFFF AND PUSH1 0x1 DUP6 PUSH1 0x0 ADD MLOAD PUSH2 0x16CF SWAP1 SWAP3 SWAP2 SWAP1 PUSH4 0xFFFFFFFF AND JUMP JUMPDEST POP PUSH2 0x1622 JUMP JUMPDEST PUSH2 0xFFFF DUP2 PUSH8 0xFFFFFFFFFFFFFFFF AND GT PUSH2 0x1577 JUMPI PUSH2 0x154C PUSH1 0x19 PUSH1 0x5 DUP5 PUSH1 0xFF AND SWAP1 SHL OR DUP5 PUSH1 0x0 ADD MLOAD PUSH2 0x1405 SWAP1 SWAP2 SWAP1 PUSH4 0xFFFFFFFF AND JUMP JUMPDEST POP PUSH2 0x1571 DUP2 PUSH8 0xFFFFFFFFFFFFFFFF AND PUSH1 0x2 DUP6 PUSH1 0x0 ADD MLOAD PUSH2 0x16CF SWAP1 SWAP3 SWAP2 SWAP1 PUSH4 0xFFFFFFFF AND JUMP JUMPDEST POP PUSH2 0x1621 JUMP JUMPDEST PUSH4 0xFFFFFFFF DUP2 PUSH8 0xFFFFFFFFFFFFFFFF AND GT PUSH2 0x15D8 JUMPI PUSH2 0x15AD PUSH1 0x1A PUSH1 0x5 DUP5 PUSH1 0xFF AND SWAP1 SHL OR DUP5 PUSH1 0x0 ADD MLOAD PUSH2 0x1405 SWAP1 SWAP2 SWAP1 PUSH4 0xFFFFFFFF AND JUMP JUMPDEST POP PUSH2 0x15D2 DUP2 PUSH8 0xFFFFFFFFFFFFFFFF AND PUSH1 0x4 DUP6 PUSH1 0x0 ADD MLOAD PUSH2 0x16CF SWAP1 SWAP3 SWAP2 SWAP1 PUSH4 0xFFFFFFFF AND JUMP JUMPDEST POP PUSH2 0x1620 JUMP JUMPDEST PUSH2 0x15F9 PUSH1 0x1B PUSH1 0x5 DUP5 PUSH1 0xFF AND SWAP1 SHL OR DUP5 PUSH1 0x0 ADD MLOAD PUSH2 0x1405 SWAP1 SWAP2 SWAP1 PUSH4 0xFFFFFFFF AND JUMP JUMPDEST POP PUSH2 0x161E DUP2 PUSH8 0xFFFFFFFFFFFFFFFF AND PUSH1 0x8 DUP6 PUSH1 0x0 ADD MLOAD PUSH2 0x16CF SWAP1 SWAP3 SWAP2 SWAP1 PUSH4 0xFFFFFFFF AND JUMP JUMPDEST POP JUMPDEST JUMPDEST JUMPDEST JUMPDEST POP POP POP JUMP JUMPDEST PUSH2 0x1649 DUP2 PUSH1 0x5 PUSH1 0x7 PUSH1 0xFF AND SWAP1 SHL OR DUP4 PUSH1 0x0 ADD MLOAD PUSH2 0x1405 SWAP1 SWAP2 SWAP1 PUSH4 0xFFFFFFFF AND JUMP JUMPDEST POP POP POP JUMP JUMPDEST PUSH2 0x165B DUP3 PUSH1 0x3 DUP4 MLOAD PUSH2 0x147F JUMP JUMPDEST PUSH2 0x1672 DUP2 DUP4 PUSH1 0x0 ADD MLOAD PUSH2 0x1383 SWAP1 SWAP2 SWAP1 PUSH4 0xFFFFFFFF AND JUMP JUMPDEST POP POP POP JUMP JUMPDEST PUSH1 0x0 DUP2 PUSH1 0x7 SIGNEXTEND SLT PUSH2 0x1693 JUMPI PUSH2 0x168E DUP3 PUSH1 0x0 DUP4 PUSH2 0x147F JUMP JUMPDEST PUSH2 0x16CB JUMP JUMPDEST PUSH2 0x16CA DUP3 PUSH1 0x1 DUP4 PUSH32 0xFFFFFFFFFFFFFFFFFFFFFFFFFFFFFFFFFFFFFFFFFFFFFFFFFFFFFFFFFFFFFFFF PUSH2 0x16C5 SWAP2 SWAP1 PUSH2 0x2979 JUMP JUMPDEST PUSH2 0x147F JUMP JUMPDEST JUMPDEST POP POP JUMP JUMPDEST PUSH2 0x16D7 PUSH2 0x1C18 JUMP JUMPDEST PUSH1 0x0 DUP5 PUSH1 0x0 ADD MLOAD MLOAD SWAP1 POP PUSH1 0x0 DUP2 DUP5 PUSH2 0x16EF SWAP2 SWAP1 PUSH2 0x2862 JUMP JUMPDEST SWAP1 POP DUP6 PUSH1 0x20 ADD MLOAD DUP2 GT ISZERO PUSH2 0x1714 JUMPI PUSH2 0x1713 DUP7 PUSH1 0x2 DUP4 PUSH2 0x170E SWAP2 SWAP1 PUSH2 0x2B1C JUMP JUMPDEST PUSH2 0x1AEC JUMP JUMPDEST JUMPDEST PUSH1 0x0 PUSH1 0x1 DUP6 PUSH2 0x100 PUSH2 0x1726 SWAP2 SWAP1 PUSH2 0x2C91 JUMP JUMPDEST PUSH2 0x1730 SWAP2 SWAP1 PUSH2 0x2AE8 JUMP JUMPDEST SWAP1 POP DUP7 MLOAD DUP3 DUP2 ADD DUP8 DUP4 NOT DUP3 MLOAD AND OR DUP2 MSTORE DUP2 MLOAD DUP5 GT ISZERO PUSH2 0x174D JUMPI DUP4 DUP3 MSTORE JUMPDEST POP POP DUP7 SWAP4 POP POP POP POP SWAP4 SWAP3 POP POP POP JUMP JUMPDEST PUSH2 0x1764 PUSH2 0x1C18 JUMP JUMPDEST DUP3 MLOAD DUP3 GT ISZERO PUSH2 0x1772 JUMPI PUSH1 0x0 DUP1 REVERT JUMPDEST PUSH1 0x0 DUP5 PUSH1 0x0 ADD MLOAD MLOAD SWAP1 POP PUSH1 0x0 DUP4 DUP3 PUSH2 0x178A SWAP2 SWAP1 PUSH2 0x2862 JUMP JUMPDEST SWAP1 POP DUP6 PUSH1 0x20 ADD MLOAD DUP2 GT ISZERO PUSH2 0x17AF JUMPI PUSH2 0x17AE DUP7 PUSH1 0x2 DUP4 PUSH2 0x17A9 SWAP2 SWAP1 PUSH2 0x2B1C JUMP JUMPDEST PUSH2 0x1AEC JUMP JUMPDEST JUMPDEST PUSH1 0x0 DUP1 DUP8 MLOAD DUP1 MLOAD DUP6 PUSH1 0x20 DUP4 ADD ADD SWAP4 POP DUP1 DUP6 GT ISZERO PUSH2 0x17CA JUMPI DUP5 DUP3 MSTORE JUMPDEST PUSH1 0x20 DUP10 ADD SWAP3 POP POP POP JUMPDEST PUSH1 0x20 DUP7 LT PUSH2 0x1811 JUMPI DUP1 MLOAD DUP3 MSTORE PUSH1 0x20 DUP3 PUSH2 0x17EC SWAP2 SWAP1 PUSH2 0x2862 JUMP JUMPDEST SWAP2 POP PUSH1 0x20 DUP2 PUSH2 0x17FB SWAP2 SWAP1 PUSH2 0x2862 JUMP JUMPDEST SWAP1 POP PUSH1 0x20 DUP7 PUSH2 0x180A SWAP2 SWAP1 PUSH2 0x2AE8 JUMP JUMPDEST SWAP6 POP PUSH2 0x17D3 JUMP JUMPDEST PUSH1 0x0 PUSH1 0x1 DUP8 PUSH1 0x20 SUB PUSH2 0x100 EXP SUB SWAP1 POP DUP1 NOT DUP3 MLOAD AND DUP2 DUP5 MLOAD AND DUP2 DUP2 OR DUP6 MSTORE POP POP POP DUP8 SWAP5 POP POP POP POP POP SWAP4 SWAP3 POP POP POP JUMP JUMPDEST PUSH1 0x0 DUP1 PUSH1 0x0 PUSH1 0x20 DUP5 ADD SWAP1 POP PUSH1 0x0 JUMPDEST DUP5 MLOAD DUP2 LT ISZERO PUSH2 0x1889 JUMPI DUP2 MLOAD SWAP3 POP PUSH1 0x0 DUP4 GT ISZERO PUSH2 0x186F JUMPI PUSH1 0x0 SWAP4 POP POP POP POP PUSH2 0x1891 JUMP JUMPDEST PUSH1 0x20 DUP3 ADD SWAP2 POP PUSH1 0x20 DUP2 PUSH2 0x1882 SWAP2 SWAP1 PUSH2 0x2862 JUMP JUMPDEST SWAP1 POP PUSH2 0x184D JUMP JUMPDEST POP PUSH1 0x1 SWAP3 POP POP POP JUMPDEST SWAP2 SWAP1 POP JUMP JUMPDEST PUSH1 0x0 DUP1 DUP3 EQ PUSH1 0x1 DUP2 EQ PUSH2 0x1AE1 JUMPI DUP3 PUSH1 0x1 DUP5 SUB SWAP4 POP PUSH1 0x2 DUP5 DIV DUP5 OR SWAP4 POP PUSH1 0x4 DUP5 DIV DUP5 OR SWAP4 POP PUSH1 0x10 DUP5 DIV DUP5 OR SWAP4 POP PUSH2 0x100 DUP5 DIV DUP5 OR SWAP4 POP PUSH3 0x10000 DUP5 DIV DUP5 OR SWAP4 POP PUSH5 0x100000000 DUP5 DIV DUP5 OR SWAP4 POP PUSH9 0x10000000000000000 DUP5 DIV DUP5 OR SWAP4 POP PUSH17 0x100000000000000000000000000000000 DUP5 DIV DUP5 OR SWAP4 POP PUSH1 0x1 DUP5 ADD SWAP4 POP PUSH1 0x40 MLOAD PUSH32 0xF8F9CBFAE6CC78FBEFE7CDC3A1793DFCF4F0E8BBD8CEC470B6A28A7A5A3E1EFD DUP2 MSTORE PUSH32 0xF5ECF1B3E9DEBC68E1D9CFABC5997135BFB7A7A3938B7B606B5B4B3F2F1F0FFE PUSH1 0x20 DUP3 ADD MSTORE PUSH32 0xF6E4ED9FF2D6B458EADCDF97BD91692DE2D4DA8FD2D0AC50C6AE9A8272523616 PUSH1 0x40 DUP3 ADD MSTORE PUSH32 0xC8C0B887B0A8A4489C948C7F847C6125746C645C544C444038302820181008FF PUSH1 0x60 DUP3 ADD MSTORE PUSH32 0xF7CAE577EEC2A03CF3BAD76FB589591DEBB2DD67E0AA9834BEA6925F6A4A2E0E PUSH1 0x80 DUP3 ADD MSTORE PUSH32 0xE39ED557DB96902CD38ED14FAD815115C786AF479B7E83247363534337271707 PUSH1 0xA0 DUP3 ADD MSTORE PUSH32 0xC976C13BB96E881CB166A933A55E490D9D56952B8D4E801485467D2362422606 PUSH1 0xC0 DUP3 ADD MSTORE PUSH32 0x753A6D1B65325D0C552A4D1345224105391A310B29122104190A110309020100 PUSH1 0xE0 DUP3 ADD MSTORE PUSH2 0x100 DUP2 ADD PUSH1 0x40 MSTORE PUSH31 0x818283848586878898A8B8C8D8E8F929395969799A9B9D9E9FAAEB6BEDEEFF PUSH32 0x100000000000000000000000000000000000000000000000000000000000000 DUP1 DUP3 DUP9 MUL DIV DUP2 DUP2 PUSH1 0xFF SUB DUP6 ADD MLOAD DIV SWAP7 POP PUSH32 0x8000000000000000000000000000000000000000000000000000000000000000 DUP6 GT PUSH2 0x100 MUL DUP8 ADD SWAP7 POP PUSH1 0x0 PUSH1 0x1 DUP7 SUB DUP7 AND SUB PUSH2 0x1AD7 JUMPI PUSH1 0x1 DUP8 ADD SWAP7 POP JUMPDEST POP POP POP POP POP PUSH2 0x1AE6 JUMP JUMPDEST PUSH1 0x0 SWAP2 POP JUMPDEST POP SWAP2 SWAP1 POP JUMP JUMPDEST PUSH1 0x0 DUP3 PUSH1 0x0 ADD MLOAD SWAP1 POP PUSH2 0x1AFF DUP4 DUP4 PUSH2 0x1151 JUMP JUMPDEST POP PUSH2 0x1B0A DUP4 DUP3 PUSH2 0x1383 JUMP JUMPDEST POP POP POP POP JUMP JUMPDEST PUSH1 0x40 MLOAD DUP1 PUSH1 0x40 ADD PUSH1 0x40 MSTORE DUP1 PUSH1 0x60 DUP2 MSTORE PUSH1 0x20 ADD PUSH1 0x0 ISZERO ISZERO DUP2 MSTORE POP SWAP1 JUMP JUMPDEST PUSH1 0x40 MLOAD DUP1 PUSH2 0x160 ADD PUSH1 0x40 MSTORE DUP1 PUSH2 0x1B40 PUSH2 0x1C52 JUMP JUMPDEST DUP2 MSTORE PUSH1 0x20 ADD PUSH1 0x0 PUSH8 0xFFFFFFFFFFFFFFFF AND DUP2 MSTORE PUSH1 0x20 ADD PUSH1 0x0 ISZERO ISZERO DUP2 MSTORE PUSH1 0x20 ADD PUSH2 0x1B67 PUSH2 0x1BC2 JUMP JUMPDEST DUP2 MSTORE PUSH1 0x20 ADD PUSH2 0x1B74 PUSH2 0x1BC2 JUMP JUMPDEST DUP2 MSTORE PUSH1 0x20 ADD PUSH2 0x1B81 PUSH2 0x1C65 JUMP JUMPDEST DUP2 MSTORE PUSH1 0x20 ADD PUSH1 0x0 PUSH1 0x7 SIGNEXTEND DUP2 MSTORE PUSH1 0x20 ADD PUSH1 0x0 PUSH1 0x7 SIGNEXTEND DUP2 MSTORE PUSH1 0x20 ADD PUSH2 0x1BA2 PUSH2 0x1B10 JUMP JUMPDEST DUP2 MSTORE PUSH1 0x20 ADD PUSH2 0x1BAF PUSH2 0x1B10 JUMP JUMPDEST DUP2 MSTORE PUSH1 0x20 ADD PUSH2 0x1BBC PUSH2 0x1B10 JUMP JUMPDEST DUP2 MSTORE POP SWAP1 JUMP JUMPDEST PUSH1 0x40 MLOAD DUP1 PUSH1 0x20 ADD PUSH1 0x40 MSTORE DUP1 PUSH1 0x60 DUP2 MSTORE POP SWAP1 JUMP JUMPDEST PUSH1 0x40 MLOAD DUP1 PUSH1 0x60 ADD PUSH1 0x40 MSTORE DUP1 PUSH1 0x60 DUP2 MSTORE PUSH1 0x20 ADD PUSH1 0x0 ISZERO ISZERO DUP2 MSTORE PUSH1 0x20 ADD PUSH1 0x0 DUP2 MSTORE POP SWAP1 JUMP JUMPDEST PUSH1 0x40 MLOAD DUP1 PUSH1 0x40 ADD PUSH1 0x40 MSTORE DUP1 PUSH2 0x1C0B PUSH2 0x1C18 JUMP JUMPDEST DUP2 MSTORE PUSH1 0x20 ADD PUSH1 0x0 DUP2 MSTORE POP SWAP1 JUMP JUMPDEST PUSH1 0x40 MLOAD DUP1 PUSH1 0x40 ADD PUSH1 0x40 MSTORE DUP1 PUSH1 0x60 DUP2 MSTORE PUSH1 0x20 ADD PUSH1 0x0 DUP2 MSTORE POP SWAP1 JUMP JUMPDEST PUSH1 0x40 MLOAD DUP1 PUSH1 0x40 ADD PUSH1 0x40 MSTORE DUP1 PUSH2 0x1C45 PUSH2 0x1C18 JUMP JUMPDEST DUP2 MSTORE PUSH1 0x20 ADD PUSH1 0x0 DUP2 MSTORE POP SWAP1 JUMP JUMPDEST PUSH1 0x40 MLOAD DUP1 PUSH1 0x20 ADD PUSH1 0x40 MSTORE DUP1 PUSH1 0x60 DUP2 MSTORE POP SWAP1 JUMP JUMPDEST PUSH1 0x40 MLOAD DUP1 PUSH1 0x40 ADD PUSH1 0x40 MSTORE DUP1 PUSH1 0x60 DUP2 MSTORE PUSH1 0x20 ADD PUSH1 0x0 ISZERO ISZERO DUP2 MSTORE POP SWAP1 JUMP JUMPDEST PUSH1 0x0 PUSH1 0x40 MLOAD SWAP1 POP SWAP1 JUMP JUMPDEST PUSH1 0x0 DUP1 REVERT JUMPDEST PUSH1 0x0 DUP1 REVERT JUMPDEST PUSH1 0x0 DUP2 SWAP1 POP SWAP2 SWAP1 POP JUMP JUMPDEST PUSH2 0x1CA8 DUP2 PUSH2 0x1C95 JUMP JUMPDEST DUP2 EQ PUSH2 0x1CB3 JUMPI PUSH1 0x0 DUP1 REVERT JUMPDEST POP JUMP JUMPDEST PUSH1 0x0 DUP2 CALLDATALOAD SWAP1 POP PUSH2 0x1CC5 DUP2 PUSH2 0x1C9F JUMP JUMPDEST SWAP3 SWAP2 POP POP JUMP JUMPDEST PUSH1 0x0 PUSH1 0x20 DUP3 DUP5 SUB SLT ISZERO PUSH2 0x1CE1 JUMPI PUSH2 0x1CE0 PUSH2 0x1C8B JUMP JUMPDEST JUMPDEST PUSH1 0x0 PUSH2 0x1CEF DUP5 DUP3 DUP6 ADD PUSH2 0x1CB6 JUMP JUMPDEST SWAP2 POP POP SWAP3 SWAP2 POP POP JUMP JUMPDEST PUSH1 0x0 DUP2 MLOAD SWAP1 POP SWAP2 SWAP1 POP JUMP JUMPDEST PUSH1 0x0 DUP3 DUP3 MSTORE PUSH1 0x20 DUP3 ADD SWAP1 POP SWAP3 SWAP2 POP POP JUMP JUMPDEST PUSH1 0x0 JUMPDEST DUP4 DUP2 LT ISZERO PUSH2 0x1D32 JUMPI DUP1 DUP3 ADD MLOAD DUP2 DUP5 ADD MSTORE PUSH1 0x20 DUP2 ADD SWAP1 POP PUSH2 0x1D17 JUMP JUMPDEST PUSH1 0x0 DUP5 DUP5 ADD MSTORE POP POP POP POP JUMP JUMPDEST PUSH1 0x0 PUSH1 0x1F NOT PUSH1 0x1F DUP4 ADD AND SWAP1 POP SWAP2 SWAP1 POP JUMP JUMPDEST PUSH1 0x0 PUSH2 0x1D5A DUP3 PUSH2 0x1CF8 JUMP JUMPDEST PUSH2 0x1D64 DUP2 DUP6 PUSH2 0x1D03 JUMP JUMPDEST SWAP4 POP PUSH2 0x1D74 DUP2 DUP6 PUSH1 0x20 DUP7 ADD PUSH2 0x1D14 JUMP JUMPDEST PUSH2 0x1D7D DUP2 PUSH2 0x1D3E JUMP JUMPDEST DUP5 ADD SWAP2 POP POP SWAP3 SWAP2 POP POP JUMP JUMPDEST PUSH1 0x0 DUP2 ISZERO ISZERO SWAP1 POP SWAP2 SWAP1 POP JUMP JUMPDEST PUSH2 0x1D9D DUP2 PUSH2 0x1D88 JUMP JUMPDEST DUP3 MSTORE POP POP JUMP JUMPDEST PUSH1 0x0 PUSH1 0x40 DUP4 ADD PUSH1 0x0 DUP4 ADD MLOAD DUP5 DUP3 SUB PUSH1 0x0 DUP7 ADD MSTORE PUSH2 0x1DC0 DUP3 DUP3 PUSH2 0x1D4F JUMP JUMPDEST SWAP2 POP POP PUSH1 0x20 DUP4 ADD MLOAD PUSH2 0x1DD5 PUSH1 0x20 DUP7 ADD DUP3 PUSH2 0x1D94 JUMP JUMPDEST POP DUP1 SWAP2 POP POP SWAP3 SWAP2 POP POP JUMP JUMPDEST PUSH1 0x0 PUSH1 0x20 DUP3 ADD SWAP1 POP DUP2 DUP2 SUB PUSH1 0x0 DUP4 ADD MSTORE PUSH2 0x1DFA DUP2 DUP5 PUSH2 0x1DA3 JUMP JUMPDEST SWAP1 POP SWAP3 SWAP2 POP POP JUMP JUMPDEST PUSH1 0x0 DUP1 REVERT JUMPDEST PUSH1 0x0 PUSH2 0x180 DUP3 DUP5 SUB SLT ISZERO PUSH2 0x1E1E JUMPI PUSH2 0x1E1D PUSH2 0x1E02 JUMP JUMPDEST JUMPDEST DUP2 SWAP1 POP SWAP3 SWAP2 POP POP JUMP JUMPDEST PUSH1 0x0 PUSH1 0x20 DUP3 DUP5 SUB SLT ISZERO PUSH2 0x1E3D JUMPI PUSH2 0x1E3C PUSH2 0x1C8B JUMP JUMPDEST JUMPDEST PUSH1 0x0 DUP3 ADD CALLDATALOAD PUSH8 0xFFFFFFFFFFFFFFFF DUP2 GT ISZERO PUSH2 0x1E5B JUMPI PUSH2 0x1E5A PUSH2 0x1C90 JUMP JUMPDEST JUMPDEST PUSH2 0x1E67 DUP5 DUP3 DUP6 ADD PUSH2 0x1E07 JUMP JUMPDEST SWAP2 POP POP SWAP3 SWAP2 POP POP JUMP JUMPDEST PUSH1 0x0 DUP3 DUP3 MSTORE PUSH1 0x20 DUP3 ADD SWAP1 POP SWAP3 SWAP2 POP POP JUMP JUMPDEST PUSH1 0x0 PUSH2 0x1E8C DUP3 PUSH2 0x1CF8 JUMP JUMPDEST PUSH2 0x1E96 DUP2 DUP6 PUSH2 0x1E70 JUMP JUMPDEST SWAP4 POP PUSH2 0x1EA6 DUP2 DUP6 PUSH1 0x20 DUP7 ADD PUSH2 0x1D14 JUMP JUMPDEST PUSH2 0x1EAF DUP2 PUSH2 0x1D3E JUMP JUMPDEST DUP5 ADD SWAP2 POP POP SWAP3 SWAP2 POP POP JUMP JUMPDEST PUSH1 0x0 PUSH1 0x20 DUP3 ADD SWAP1 POP DUP2 DUP2 SUB PUSH1 0x0 DUP4 ADD MSTORE PUSH2 0x1ED4 DUP2 DUP5 PUSH2 0x1E81 JUMP JUMPDEST SWAP1 POP SWAP3 SWAP2 POP POP JUMP JUMPDEST PUSH1 0x0 DUP1 REVERT JUMPDEST PUSH32 0x4E487B7100000000000000000000000000000000000000000000000000000000 PUSH1 0x0 MSTORE PUSH1 0x41 PUSH1 0x4 MSTORE PUSH1 0x24 PUSH1 0x0 REVERT JUMPDEST PUSH2 0x1F19 DUP3 PUSH2 0x1D3E JUMP JUMPDEST DUP2 ADD DUP2 DUP2 LT PUSH8 0xFFFFFFFFFFFFFFFF DUP3 GT OR ISZERO PUSH2 0x1F38 JUMPI PUSH2 0x1F37 PUSH2 0x1EE1 JUMP JUMPDEST JUMPDEST DUP1 PUSH1 0x40 MSTORE POP POP POP JUMP JUMPDEST PUSH1 0x0 PUSH2 0x1F4B PUSH2 0x1C81 JUMP JUMPDEST SWAP1 POP PUSH2 0x1F57 DUP3 DUP3 PUSH2 0x1F10 JUMP JUMPDEST SWAP2 SWAP1 POP JUMP JUMPDEST PUSH1 0x0 DUP1 REVERT JUMPDEST PUSH1 0x0 DUP1 REVERT JUMPDEST PUSH1 0x0 DUP1 REVERT JUMPDEST PUSH1 0x0 PUSH8 0xFFFFFFFFFFFFFFFF DUP3 GT ISZERO PUSH2 0x1F86 JUMPI PUSH2 0x1F85 PUSH2 0x1EE1 JUMP JUMPDEST JUMPDEST PUSH2 0x1F8F DUP3 PUSH2 0x1D3E JUMP JUMPDEST SWAP1 POP PUSH1 0x20 DUP2 ADD SWAP1 POP SWAP2 SWAP1 POP JUMP JUMPDEST DUP3 DUP2 DUP4 CALLDATACOPY PUSH1 0x0 DUP4 DUP4 ADD MSTORE POP POP POP JUMP JUMPDEST PUSH1 0x0 PUSH2 0x1FBE PUSH2 0x1FB9 DUP5 PUSH2 0x1F6B JUMP JUMPDEST PUSH2 0x1F41 JUMP JUMPDEST SWAP1 POP DUP3 DUP2 MSTORE PUSH1 0x20 DUP2 ADD DUP5 DUP5 DUP5 ADD GT ISZERO PUSH2 0x1FDA JUMPI PUSH2 0x1FD9 PUSH2 0x1F66 JUMP JUMPDEST JUMPDEST PUSH2 0x1FE5 DUP5 DUP3 DUP6 PUSH2 0x1F9C JUMP JUMPDEST POP SWAP4 SWAP3 POP POP POP JUMP JUMPDEST PUSH1 0x0 DUP3 PUSH1 0x1F DUP4 ADD SLT PUSH2 0x2002 JUMPI PUSH2 0x2001 PUSH2 0x1F61 JUMP JUMPDEST JUMPDEST DUP2 CALLDATALOAD PUSH2 0x2012 DUP5 DUP3 PUSH1 0x20 DUP7 ADD PUSH2 0x1FAB JUMP JUMPDEST SWAP2 POP POP SWAP3 SWAP2 POP POP JUMP JUMPDEST PUSH2 0x2024 DUP2 PUSH2 0x1D88 JUMP JUMPDEST DUP2 EQ PUSH2 0x202F JUMPI PUSH1 0x0 DUP1 REVERT JUMPDEST POP JUMP JUMPDEST PUSH1 0x0 DUP2 CALLDATALOAD SWAP1 POP PUSH2 0x2041 DUP2 PUSH2 0x201B JUMP JUMPDEST SWAP3 SWAP2 POP POP JUMP JUMPDEST PUSH1 0x0 PUSH1 0x40 DUP3 DUP5 SUB SLT ISZERO PUSH2 0x205D JUMPI PUSH2 0x205C PUSH2 0x1EDC JUMP JUMPDEST JUMPDEST PUSH2 0x2067 PUSH1 0x40 PUSH2 0x1F41 JUMP JUMPDEST SWAP1 POP PUSH1 0x0 DUP3 ADD CALLDATALOAD PUSH8 0xFFFFFFFFFFFFFFFF DUP2 GT ISZERO PUSH2 0x2087 JUMPI PUSH2 0x2086 PUSH2 0x1F5C JUMP JUMPDEST JUMPDEST PUSH2 0x2093 DUP5 DUP3 DUP6 ADD PUSH2 0x1FED JUMP JUMPDEST PUSH1 0x0 DUP4 ADD MSTORE POP PUSH1 0x20 PUSH2 0x20A7 DUP5 DUP3 DUP6 ADD PUSH2 0x2032 JUMP JUMPDEST PUSH1 0x20 DUP4 ADD MSTORE POP SWAP3 SWAP2 POP POP JUMP JUMPDEST PUSH1 0x0 PUSH1 0x20 DUP3 DUP5 SUB SLT ISZERO PUSH2 0x20C9 JUMPI PUSH2 0x20C8 PUSH2 0x1C8B JUMP JUMPDEST JUMPDEST PUSH1 0x0 DUP3 ADD CALLDATALOAD PUSH8 0xFFFFFFFFFFFFFFFF DUP2 GT ISZERO PUSH2 0x20E7 JUMPI PUSH2 0x20E6 PUSH2 0x1C90 JUMP JUMPDEST JUMPDEST PUSH2 0x20F3 DUP5 DUP3 DUP6 ADD PUSH2 0x2047 JUMP JUMPDEST SWAP2 POP POP SWAP3 SWAP2 POP POP JUMP JUMPDEST PUSH2 0x2105 DUP2 PUSH2 0x1C95 JUMP JUMPDEST DUP3 MSTORE POP POP JUMP JUMPDEST PUSH1 0x0 PUSH1 0x20 DUP3 ADD SWAP1 POP PUSH2 0x2120 PUSH1 0x0 DUP4 ADD DUP5 PUSH2 0x20FC JUMP JUMPDEST SWAP3 SWAP2 POP POP JUMP JUMPDEST PUSH1 0x0 PUSH20 0xFFFFFFFFFFFFFFFFFFFFFFFFFFFFFFFFFFFFFFFF DUP3 AND SWAP1 POP SWAP2 SWAP1 POP JUMP JUMPDEST PUSH1 0x0 PUSH2 0x2151 DUP3 PUSH2 0x2126 JUMP JUMPDEST SWAP1 POP SWAP2 SWAP1 POP JUMP JUMPDEST PUSH2 0x2161 DUP2 PUSH2 0x2146 JUMP JUMPDEST DUP2 EQ PUSH2 0x216C JUMPI PUSH1 0x0 DUP1 REVERT JUMPDEST POP JUMP JUMPDEST PUSH1 0x0 DUP2 CALLDATALOAD SWAP1 POP PUSH2 0x217E DUP2 PUSH2 0x2158 JUMP JUMPDEST SWAP3 SWAP2 POP POP JUMP JUMPDEST PUSH1 0x0 PUSH1 0x20 DUP3 DUP5 SUB SLT ISZERO PUSH2 0x219A JUMPI PUSH2 0x2199 PUSH2 0x1C8B JUMP JUMPDEST JUMPDEST PUSH1 0x0 PUSH2 0x21A8 DUP5 DUP3 DUP6 ADD PUSH2 0x216F JUMP JUMPDEST SWAP2 POP POP SWAP3 SWAP2 POP POP JUMP JUMPDEST PUSH1 0x0 PUSH1 0x20 DUP4 ADD PUSH1 0x0 DUP4 ADD MLOAD DUP5 DUP3 SUB PUSH1 0x0 DUP7 ADD MSTORE PUSH2 0x21CE DUP3 DUP3 PUSH2 0x1D4F JUMP JUMPDEST SWAP2 POP POP DUP1 SWAP2 POP POP SWAP3 SWAP2 POP POP JUMP JUMPDEST PUSH1 0x0 PUSH1 0x20 DUP3 ADD SWAP1 POP DUP2 DUP2 SUB PUSH1 0x0 DUP4 ADD MSTORE PUSH2 0x21F5 DUP2 DUP5 PUSH2 0x21B1 JUMP JUMPDEST SWAP1 POP SWAP3 SWAP2 POP POP JUMP JUMPDEST PUSH2 0x2206 DUP2 PUSH2 0x1D88 JUMP JUMPDEST DUP3 MSTORE POP POP JUMP JUMPDEST PUSH1 0x0 PUSH1 0x40 DUP3 ADD SWAP1 POP PUSH2 0x2221 PUSH1 0x0 DUP4 ADD DUP6 PUSH2 0x20FC JUMP JUMPDEST PUSH2 0x222E PUSH1 0x20 DUP4 ADD DUP5 PUSH2 0x21FD JUMP JUMPDEST SWAP4 SWAP3 POP POP POP JUMP JUMPDEST PUSH1 0x0 PUSH8 0xFFFFFFFFFFFFFFFF DUP3 GT ISZERO PUSH2 0x2250 JUMPI PUSH2 0x224F PUSH2 0x1EE1 JUMP JUMPDEST JUMPDEST PUSH2 0x2259 DUP3 PUSH2 0x1D3E JUMP JUMPDEST SWAP1 POP PUSH1 0x20 DUP2 ADD SWAP1 POP SWAP2 SWAP1 POP JUMP JUMPDEST PUSH1 0x0 PUSH2 0x2279 PUSH2 0x2274 DUP5 PUSH2 0x2235 JUMP JUMPDEST PUSH2 0x1F41 JUMP JUMPDEST SWAP1 POP DUP3 DUP2 MSTORE PUSH1 0x20 DUP2 ADD DUP5 DUP5 DUP5 ADD GT ISZERO PUSH2 0x2295 JUMPI PUSH2 0x2294 PUSH2 0x1F66 JUMP JUMPDEST JUMPDEST PUSH2 0x22A0 DUP5 DUP3 DUP6 PUSH2 0x1F9C JUMP JUMPDEST POP SWAP4 SWAP3 POP POP POP JUMP JUMPDEST PUSH1 0x0 DUP3 PUSH1 0x1F DUP4 ADD SLT PUSH2 0x22BD JUMPI PUSH2 0x22BC PUSH2 0x1F61 JUMP JUMPDEST JUMPDEST DUP2 CALLDATALOAD PUSH2 0x22CD DUP5 DUP3 PUSH1 0x20 DUP7 ADD PUSH2 0x2266 JUMP JUMPDEST SWAP2 POP POP SWAP3 SWAP2 POP POP JUMP JUMPDEST PUSH1 0x0 PUSH8 0xFFFFFFFFFFFFFFFF DUP3 AND SWAP1 POP SWAP2 SWAP1 POP JUMP JUMPDEST PUSH2 0x22F3 DUP2 PUSH2 0x22D6 JUMP JUMPDEST DUP2 EQ PUSH2 0x22FE JUMPI PUSH1 0x0 DUP1 REVERT JUMPDEST POP JUMP JUMPDEST PUSH1 0x0 DUP2 CALLDATALOAD SWAP1 POP PUSH2 0x2310 DUP2 PUSH2 0x22EA JUMP JUMPDEST SWAP3 SWAP2 POP POP JUMP JUMPDEST PUSH1 0x0 PUSH1 0x80 DUP3 DUP5 SUB SLT ISZERO PUSH2 0x232C JUMPI PUSH2 0x232B PUSH2 0x1EDC JUMP JUMPDEST JUMPDEST PUSH2 0x2336 PUSH1 0x80 PUSH2 0x1F41 JUMP JUMPDEST SWAP1 POP PUSH1 0x0 DUP3 ADD CALLDATALOAD PUSH8 0xFFFFFFFFFFFFFFFF DUP2 GT ISZERO PUSH2 0x2356 JUMPI PUSH2 0x2355 PUSH2 0x1F5C JUMP JUMPDEST JUMPDEST PUSH2 0x2362 DUP5 DUP3 DUP6 ADD PUSH2 0x22A8 JUMP JUMPDEST PUSH1 0x0 DUP4 ADD MSTORE POP PUSH1 0x20 PUSH2 0x2376 DUP5 DUP3 DUP6 ADD PUSH2 0x2301 JUMP JUMPDEST PUSH1 0x20 DUP4 ADD MSTORE POP PUSH1 0x40 PUSH2 0x238A DUP5 DUP3 DUP6 ADD PUSH2 0x2032 JUMP JUMPDEST PUSH1 0x40 DUP4 ADD MSTORE POP PUSH1 0x60 PUSH2 0x239E DUP5 DUP3 DUP6 ADD PUSH2 0x2032 JUMP JUMPDEST PUSH1 0x60 DUP4 ADD MSTORE POP SWAP3 SWAP2 POP POP JUMP JUMPDEST PUSH1 0x0 PUSH1 0x20 DUP3 DUP5 SUB SLT ISZERO PUSH2 0x23C0 JUMPI PUSH2 0x23BF PUSH2 0x1C8B JUMP JUMPDEST JUMPDEST PUSH1 0x0 DUP3 ADD CALLDATALOAD PUSH8 0xFFFFFFFFFFFFFFFF DUP2 GT ISZERO PUSH2 0x23DE JUMPI PUSH2 0x23DD PUSH2 0x1C90 JUMP JUMPDEST JUMPDEST PUSH2 0x23EA DUP5 DUP3 DUP6 ADD PUSH2 0x2316 JUMP JUMPDEST SWAP2 POP POP SWAP3 SWAP2 POP POP JUMP JUMPDEST PUSH1 0x0 DUP1 REVERT JUMPDEST PUSH1 0x0 DUP1 REVERT JUMPDEST PUSH1 0x0 DUP1 REVERT JUMPDEST PUSH1 0x0 DUP1 DUP4 CALLDATALOAD PUSH1 0x1 PUSH1 0x20 SUB DUP5 CALLDATASIZE SUB SUB DUP2 SLT PUSH2 0x241F JUMPI PUSH2 0x241E PUSH2 0x23F3 JUMP JUMPDEST JUMPDEST DUP1 DUP5 ADD SWAP3 POP DUP3 CALLDATALOAD SWAP2 POP PUSH8 0xFFFFFFFFFFFFFFFF DUP3 GT ISZERO PUSH2 0x2441 JUMPI PUSH2 0x2440 PUSH2 0x23F8 JUMP JUMPDEST JUMPDEST PUSH1 0x20 DUP4 ADD SWAP3 POP PUSH1 0x1 DUP3 MUL CALLDATASIZE SUB DUP4 SGT ISZERO PUSH2 0x245D JUMPI PUSH2 0x245C PUSH2 0x23FD JUMP JUMPDEST JUMPDEST POP SWAP3 POP SWAP3 SWAP1 POP JUMP JUMPDEST PUSH1 0x0 PUSH1 0x20 DUP3 DUP5 SUB SLT ISZERO PUSH2 0x247B JUMPI PUSH2 0x247A PUSH2 0x1C8B JUMP JUMPDEST JUMPDEST PUSH1 0x0 PUSH2 0x2489 DUP5 DUP3 DUP6 ADD PUSH2 0x2301 JUMP JUMPDEST SWAP2 POP POP SWAP3 SWAP2 POP POP JUMP JUMPDEST PUSH1 0x0 PUSH1 0x20 DUP3 DUP5 SUB SLT ISZERO PUSH2 0x24A8 JUMPI PUSH2 0x24A7 PUSH2 0x1C8B JUMP JUMPDEST JUMPDEST PUSH1 0x0 PUSH2 0x24B6 DUP5 DUP3 DUP6 ADD PUSH2 0x2032 JUMP JUMPDEST SWAP2 POP POP SWAP3 SWAP2 POP POP JUMP JUMPDEST PUSH1 0x0 DUP1 DUP4 CALLDATALOAD PUSH1 0x1 PUSH1 0x20 SUB DUP5 CALLDATASIZE SUB SUB DUP2 SLT PUSH2 0x24DC JUMPI PUSH2 0x24DB PUSH2 0x23F3 JUMP JUMPDEST JUMPDEST DUP1 DUP5 ADD SWAP3 POP DUP3 CALLDATALOAD SWAP2 POP PUSH8 0xFFFFFFFFFFFFFFFF DUP3 GT ISZERO PUSH2 0x24FE JUMPI PUSH2 0x24FD PUSH2 0x23F8 JUMP JUMPDEST JUMPDEST PUSH1 0x20 DUP4 ADD SWAP3 POP PUSH1 0x1 DUP3 MUL CALLDATASIZE SUB DUP4 SGT ISZERO PUSH2 0x251A JUMPI PUSH2 0x2519 PUSH2 0x23FD JUMP JUMPDEST JUMPDEST POP SWAP3 POP SWAP3 SWAP1 POP JUMP JUMPDEST PUSH1 0x0 DUP2 PUSH1 0x7 SIGNEXTEND SWAP1 POP SWAP2 SWAP1 POP JUMP JUMPDEST PUSH2 0x2538 DUP2 PUSH2 0x2522 JUMP JUMPDEST DUP2 EQ PUSH2 0x2543 JUMPI PUSH1 0x0 DUP1 REVERT JUMPDEST POP JUMP JUMPDEST PUSH1 0x0 DUP2 CALLDATALOAD SWAP1 POP PUSH2 0x2555 DUP2 PUSH2 0x252F JUMP JUMPDEST SWAP3 SWAP2 POP POP JUMP JUMPDEST PUSH1 0x0 PUSH1 0x20 DUP3 DUP5 SUB SLT ISZERO PUSH2 0x2571 JUMPI PUSH2 0x2570 PUSH2 0x1C8B JUMP JUMPDEST JUMPDEST PUSH1 0x0 PUSH2 0x257F DUP5 DUP3 DUP6 ADD PUSH2 0x2546 JUMP JUMPDEST SWAP2 POP POP SWAP3 SWAP2 POP POP JUMP JUMPDEST PUSH1 0x0 DUP2 SWAP1 POP PUSH1 0x20 DUP3 ADD SWAP1 POP SWAP2 SWAP1 POP JUMP JUMPDEST PUSH1 0x0 DUP2 SWAP1 POP SWAP2 SWAP1 POP JUMP JUMPDEST PUSH1 0x0 PUSH2 0x25AE DUP3 MLOAD PUSH2 0x2598 JUMP JUMPDEST DUP1 SWAP2 POP POP SWAP2 SWAP1 POP JUMP JUMPDEST PUSH1 0x0 DUP3 DUP3 SHL SWAP1 POP SWAP3 SWAP2 POP POP JUMP JUMPDEST PUSH1 0x0 PUSH2 0x25CF DUP3 PUSH2 0x1CF8 JUMP JUMPDEST DUP3 PUSH2 0x25D9 DUP5 PUSH2 0x2588 JUMP JUMPDEST SWAP1 POP PUSH2 0x25E4 DUP2 PUSH2 0x25A2 JUMP JUMPDEST SWAP3 POP PUSH1 0x20 DUP3 LT ISZERO PUSH2 0x2624 JUMPI PUSH2 0x261F PUSH32 0xFFFFFFFFFFFFFFFFFFFFFFFFFFFFFFFFFFFFFFFFFFFFFFFFFFFFFFFFFFFFFFFF DUP4 PUSH1 0x20 SUB PUSH1 0x8 MUL PUSH2 0x25B7 JUMP JUMPDEST DUP4 AND SWAP3 POP JUMPDEST POP POP SWAP2 SWAP1 POP JUMP JUMPDEST PUSH1 0x0 DUP2 SWAP1 POP SWAP3 SWAP2 POP POP JUMP JUMPDEST PUSH32 0x40A000000000000000000000000000000000000000000000000000000000000 PUSH1 0x0 DUP3 ADD MSTORE POP JUMP JUMPDEST PUSH1 0x0 PUSH2 0x266C PUSH1 0x2 DUP4 PUSH2 0x262B JUMP JUMPDEST SWAP2 POP PUSH2 0x2677 DUP3 PUSH2 0x2636 JUMP JUMPDEST PUSH1 0x2 DUP3 ADD SWAP1 POP SWAP2 SWAP1 POP JUMP JUMPDEST PUSH1 0x0 DUP2 PUSH1 0x60 SHL SWAP1 POP SWAP2 SWAP1 POP JUMP JUMPDEST PUSH1 0x0 PUSH2 0x269A DUP3 PUSH2 0x2682 JUMP JUMPDEST SWAP1 POP SWAP2 SWAP1 POP JUMP JUMPDEST PUSH1 0x0 PUSH2 0x26AC DUP3 PUSH2 0x268F JUMP JUMPDEST SWAP1 POP SWAP2 SWAP1 POP JUMP JUMPDEST PUSH2 0x26C4 PUSH2 0x26BF DUP3 PUSH2 0x2146 JUMP JUMPDEST PUSH2 0x26A1 JUMP JUMPDEST DUP3 MSTORE POP POP JUMP JUMPDEST PUSH1 0x0 PUSH2 0x26D5 DUP3 PUSH2 0x265F JUMP JUMPDEST SWAP2 POP PUSH2 0x26E1 DUP3 DUP5 PUSH2 0x26B3 JUMP JUMPDEST PUSH1 0x14 DUP3 ADD SWAP2 POP DUP2 SWAP1 POP SWAP3 SWAP2 POP POP JUMP JUMPDEST PUSH1 0x0 DUP3 DUP3 MSTORE PUSH1 0x20 DUP3 ADD SWAP1 POP SWAP3 SWAP2 POP POP JUMP JUMPDEST PUSH32 0x4E656761746976652076616C7565206E6F7420616C6C6F776564000000000000 PUSH1 0x0 DUP3 ADD MSTORE POP JUMP JUMPDEST PUSH1 0x0 PUSH2 0x2737 PUSH1 0x1A DUP4 PUSH2 0x26F0 JUMP JUMPDEST SWAP2 POP PUSH2 0x2742 DUP3 PUSH2 0x2701 JUMP JUMPDEST PUSH1 0x20 DUP3 ADD SWAP1 POP SWAP2 SWAP1 POP JUMP JUMPDEST PUSH1 0x0 PUSH1 0x20 DUP3 ADD SWAP1 POP DUP2 DUP2 SUB PUSH1 0x0 DUP4 ADD MSTORE PUSH2 0x2766 DUP2 PUSH2 0x272A JUMP JUMPDEST SWAP1 POP SWAP2 SWAP1 POP JUMP JUMPDEST PUSH1 0x0 DUP2 SWAP1 POP SWAP2 SWAP1 POP JUMP JUMPDEST PUSH2 0x2788 PUSH2 0x2783 DUP3 PUSH2 0x1C95 JUMP JUMPDEST PUSH2 0x276D JUMP JUMPDEST DUP3 MSTORE POP POP JUMP JUMPDEST PUSH1 0x0 PUSH2 0x279A DUP3 DUP5 PUSH2 0x2777 JUMP JUMPDEST PUSH1 0x20 DUP3 ADD SWAP2 POP DUP2 SWAP1 POP SWAP3 SWAP2 POP POP JUMP JUMPDEST PUSH1 0x0 DUP1 DUP3 ADD MSTORE POP JUMP JUMPDEST PUSH1 0x0 PUSH2 0x27BF PUSH1 0x1 DUP4 PUSH2 0x262B JUMP JUMPDEST SWAP2 POP PUSH2 0x27CA DUP3 PUSH2 0x27A9 JUMP JUMPDEST PUSH1 0x1 DUP3 ADD SWAP1 POP SWAP2 SWAP1 POP JUMP JUMPDEST PUSH1 0x0 DUP2 SWAP1 POP SWAP3 SWAP2 POP POP JUMP JUMPDEST PUSH1 0x0 PUSH2 0x27EB DUP3 PUSH2 0x1CF8 JUMP JUMPDEST PUSH2 0x27F5 DUP2 DUP6 PUSH2 0x27D5 JUMP JUMPDEST SWAP4 POP PUSH2 0x2805 DUP2 DUP6 PUSH1 0x20 DUP7 ADD PUSH2 0x1D14 JUMP JUMPDEST DUP1 DUP5 ADD SWAP2 POP POP SWAP3 SWAP2 POP POP JUMP JUMPDEST PUSH1 0x0 PUSH2 0x281C DUP3 PUSH2 0x27B2 JUMP JUMPDEST SWAP2 POP PUSH2 0x2828 DUP3 DUP5 PUSH2 0x27E0 JUMP JUMPDEST SWAP2 POP DUP2 SWAP1 POP SWAP3 SWAP2 POP POP JUMP JUMPDEST PUSH32 0x4E487B7100000000000000000000000000000000000000000000000000000000 PUSH1 0x0 MSTORE PUSH1 0x11 PUSH1 0x4 MSTORE PUSH1 0x24 PUSH1 0x0 REVERT JUMPDEST PUSH1 0x0 PUSH2 0x286D DUP3 PUSH2 0x1C95 JUMP JUMPDEST SWAP2 POP PUSH2 0x2878 DUP4 PUSH2 0x1C95 JUMP JUMPDEST SWAP3 POP DUP3 DUP3 ADD SWAP1 POP DUP1 DUP3 GT ISZERO PUSH2 0x2890 JUMPI PUSH2 0x288F PUSH2 0x2833 JUMP JUMPDEST JUMPDEST SWAP3 SWAP2 POP POP JUMP JUMPDEST PUSH32 0x496E76616C69642043424F520000000000000000000000000000000000000000 PUSH1 0x0 DUP3 ADD MSTORE POP JUMP JUMPDEST PUSH1 0x0 PUSH2 0x28CC PUSH1 0xC DUP4 PUSH2 0x26F0 JUMP JUMPDEST SWAP2 POP PUSH2 0x28D7 DUP3 PUSH2 0x2896 JUMP JUMPDEST PUSH1 0x20 DUP3 ADD SWAP1 POP SWAP2 SWAP1 POP JUMP JUMPDEST PUSH1 0x0 PUSH1 0x20 DUP3 ADD SWAP1 POP DUP2 DUP2 SUB PUSH1 0x0 DUP4 ADD MSTORE PUSH2 0x28FB DUP2 PUSH2 0x28BF JUMP JUMPDEST SWAP1 POP SWAP2 SWAP1 POP JUMP JUMPDEST PUSH32 0x4E487B7100000000000000000000000000000000000000000000000000000000 PUSH1 0x0 MSTORE PUSH1 0x32 PUSH1 0x4 MSTORE PUSH1 0x24 PUSH1 0x0 REVERT JUMPDEST PUSH1 0x0 PUSH2 0x293C DUP3 PUSH2 0x1C95 JUMP JUMPDEST SWAP2 POP PUSH32 0xFFFFFFFFFFFFFFFFFFFFFFFFFFFFFFFFFFFFFFFFFFFFFFFFFFFFFFFFFFFFFFFF DUP3 SUB PUSH2 0x296E JUMPI PUSH2 0x296D PUSH2 0x2833 JUMP JUMPDEST JUMPDEST PUSH1 0x1 DUP3 ADD SWAP1 POP SWAP2 SWAP1 POP JUMP JUMPDEST PUSH1 0x0 PUSH2 0x2984 DUP3 PUSH2 0x2522 JUMP JUMPDEST SWAP2 POP PUSH2 0x298F DUP4 PUSH2 0x2522 JUMP JUMPDEST SWAP3 POP DUP3 DUP3 SUB SWAP1 POP PUSH8 0x7FFFFFFFFFFFFFFF DUP2 SGT PUSH32 0xFFFFFFFFFFFFFFFFFFFFFFFFFFFFFFFFFFFFFFFFFFFFFFFF8000000000000000 DUP3 SLT OR ISZERO PUSH2 0x29D3 JUMPI PUSH2 0x29D2 PUSH2 0x2833 JUMP JUMPDEST JUMPDEST SWAP3 SWAP2 POP POP JUMP JUMPDEST PUSH1 0x0 DUP2 MSTORE POP JUMP JUMPDEST PUSH1 0x0 PUSH2 0x29EB DUP3 PUSH2 0x29D9 JUMP JUMPDEST PUSH1 0x1 DUP3 ADD SWAP2 POP PUSH2 0x29FB DUP3 DUP5 PUSH2 0x27E0 JUMP JUMPDEST SWAP2 POP DUP2 SWAP1 POP SWAP3 SWAP2 POP POP JUMP JUMPDEST PUSH1 0x0 DUP2 SWAP1 POP SWAP2 SWAP1 POP JUMP JUMPDEST PUSH1 0x0 PUSH2 0x2A1B DUP3 PUSH2 0x2A06 JUMP JUMPDEST SWAP2 POP PUSH2 0x2A26 DUP4 PUSH2 0x2A06 JUMP JUMPDEST SWAP3 POP DUP3 DUP3 MUL PUSH2 0x2A34 DUP2 PUSH2 0x2A06 JUMP JUMPDEST SWAP2 POP PUSH32 0x8000000000000000000000000000000000000000000000000000000000000000 DUP5 EQ PUSH1 0x0 DUP5 SLT AND ISZERO PUSH2 0x2A6C JUMPI PUSH2 0x2A6B PUSH2 0x2833 JUMP JUMPDEST JUMPDEST DUP3 DUP3 SDIV DUP5 EQ DUP4 ISZERO OR PUSH2 0x2A81 JUMPI PUSH2 0x2A80 PUSH2 0x2833 JUMP JUMPDEST JUMPDEST POP SWAP3 SWAP2 POP POP JUMP JUMPDEST PUSH32 0x4E487B7100000000000000000000000000000000000000000000000000000000 PUSH1 0x0 MSTORE PUSH1 0x12 PUSH1 0x4 MSTORE PUSH1 0x24 PUSH1 0x0 REVERT JUMPDEST PUSH1 0x0 PUSH2 0x2AC2 DUP3 PUSH2 0x1C95 JUMP JUMPDEST SWAP2 POP PUSH2 0x2ACD DUP4 PUSH2 0x1C95 JUMP JUMPDEST SWAP3 POP DUP3 PUSH2 0x2ADD JUMPI PUSH2 0x2ADC PUSH2 0x2A88 JUMP JUMPDEST JUMPDEST DUP3 DUP3 MOD SWAP1 POP SWAP3 SWAP2 POP POP JUMP JUMPDEST PUSH1 0x0 PUSH2 0x2AF3 DUP3 PUSH2 0x1C95 JUMP JUMPDEST SWAP2 POP PUSH2 0x2AFE DUP4 PUSH2 0x1C95 JUMP JUMPDEST SWAP3 POP DUP3 DUP3 SUB SWAP1 POP DUP2 DUP2 GT ISZERO PUSH2 0x2B16 JUMPI PUSH2 0x2B15 PUSH2 0x2833 JUMP JUMPDEST JUMPDEST SWAP3 SWAP2 POP POP JUMP JUMPDEST PUSH1 0x0 PUSH2 0x2B27 DUP3 PUSH2 0x1C95 JUMP JUMPDEST SWAP2 POP PUSH2 0x2B32 DUP4 PUSH2 0x1C95 JUMP JUMPDEST SWAP3 POP DUP3 DUP3 MUL PUSH2 0x2B40 DUP2 PUSH2 0x1C95 JUMP JUMPDEST SWAP2 POP DUP3 DUP3 DIV DUP5 EQ DUP4 ISZERO OR PUSH2 0x2B57 JUMPI PUSH2 0x2B56 PUSH2 0x2833 JUMP JUMPDEST JUMPDEST POP SWAP3 SWAP2 POP POP JUMP JUMPDEST PUSH1 0x0 DUP2 PUSH1 0x1 SHR SWAP1 POP SWAP2 SWAP1 POP JUMP JUMPDEST PUSH1 0x0 DUP1 DUP3 SWAP2 POP DUP4 SWAP1 POP JUMPDEST PUSH1 0x1 DUP6 GT ISZERO PUSH2 0x2BB5 JUMPI DUP1 DUP7 DIV DUP2 GT ISZERO PUSH2 0x2B91 JUMPI PUSH2 0x2B90 PUSH2 0x2833 JUMP JUMPDEST JUMPDEST PUSH1 0x1 DUP6 AND ISZERO PUSH2 0x2BA0 JUMPI DUP1 DUP3 MUL SWAP2 POP JUMPDEST DUP1 DUP2 MUL SWAP1 POP PUSH2 0x2BAE DUP6 PUSH2 0x2B5E JUMP JUMPDEST SWAP5 POP PUSH2 0x2B75 JUMP JUMPDEST SWAP5 POP SWAP5 SWAP3 POP POP POP JUMP JUMPDEST PUSH1 0x0 DUP3 PUSH2 0x2BCE JUMPI PUSH1 0x1 SWAP1 POP PUSH2 0x2C8A JUMP JUMPDEST DUP2 PUSH2 0x2BDC JUMPI PUSH1 0x0 SWAP1 POP PUSH2 0x2C8A JUMP JUMPDEST DUP2 PUSH1 0x1 DUP2 EQ PUSH2 0x2BF2 JUMPI PUSH1 0x2 DUP2 EQ PUSH2 0x2BFC JUMPI PUSH2 0x2C2B JUMP JUMPDEST PUSH1 0x1 SWAP2 POP POP PUSH2 0x2C8A JUMP JUMPDEST PUSH1 0xFF DUP5 GT ISZERO PUSH2 0x2C0E JUMPI PUSH2 0x2C0D PUSH2 0x2833 JUMP JUMPDEST JUMPDEST DUP4 PUSH1 0x2 EXP SWAP2 POP DUP5 DUP3 GT ISZERO PUSH2 0x2C25 JUMPI PUSH2 0x2C24 PUSH2 0x2833 JUMP JUMPDEST JUMPDEST POP PUSH2 0x2C8A JUMP JUMPDEST POP PUSH1 0x20 DUP4 LT PUSH2 0x133 DUP4 LT AND PUSH1 0x4E DUP5 LT PUSH1 0xB DUP5 LT AND OR ISZERO PUSH2 0x2C60 JUMPI DUP3 DUP3 EXP SWAP1 POP DUP4 DUP2 GT ISZERO PUSH2 0x2C5B JUMPI PUSH2 0x2C5A PUSH2 0x2833 JUMP JUMPDEST JUMPDEST PUSH2 0x2C8A JUMP JUMPDEST PUSH2 0x2C6D DUP5 DUP5 DUP5 PUSH1 0x1 PUSH2 0x2B6B JUMP JUMPDEST SWAP3 POP SWAP1 POP DUP2 DUP5 DIV DUP2 GT ISZERO PUSH2 0x2C84 JUMPI PUSH2 0x2C83 PUSH2 0x2833 JUMP JUMPDEST JUMPDEST DUP2 DUP2 MUL SWAP1 POP JUMPDEST SWAP4 SWAP3 POP POP POP JUMP JUMPDEST PUSH1 0x0 PUSH2 0x2C9C DUP3 PUSH2 0x1C95 JUMP JUMPDEST SWAP2 POP PUSH2 0x2CA7 DUP4 PUSH2 0x1C95 JUMP JUMPDEST SWAP3 POP PUSH2 0x2CD4 PUSH32 0xFFFFFFFFFFFFFFFFFFFFFFFFFFFFFFFFFFFFFFFFFFFFFFFFFFFFFFFFFFFFFFFF DUP5 DUP5 PUSH2 0x2BBE JUMP JUMPDEST SWAP1 POP SWAP3 SWAP2 POP POP JUMP INVALID LOG2 PUSH5 0x6970667358 0x22 SLT KECCAK256 DUP5 0xF LOG0 SLT DUP1 LOG4 DUP12 0xE4 0x4E CALL 0xA9 0xCA EXTCODECOPY DUP12 0xCA PUSH9 0x1978C143596776F229 0xB1 JUMPDEST 0xEF SWAP2 0xE5 BLOCKHASH 0xD0 PUSH5 0x736F6C6343 STOP ADDMOD GT STOP CALLER "
		},
		"gasEstimates": {
			"creation": {
				"codeDepositCost": "2307600",
				"executionCost": "2496",
				"totalCost": "2310096"
			},
			"external": {
				"bigIntToUint(CommonTypes.BigInt)": "infinite",
				"getDelegatedAddress(address)": "infinite",
				"serializeDealProposal(Structs.DealRequest)": "infinite",
				"serializeExtraParamsV1(Structs.ExtraParamsV1)": "infinite",
				"toUint256(CommonTypes.BigInt)": "infinite",
				"uintToBigInt(uint256)": "infinite"
			}
		},
		"methodIdentifiers": {
			"bigIntToUint(CommonTypes.BigInt)": "86113702",
			"getDelegatedAddress(address)": "8ce70c68",
			"serializeDealProposal(Structs.DealRequest)": "7ab609e5",
			"serializeExtraParamsV1(Structs.ExtraParamsV1)": "f6139166",
			"toUint256(CommonTypes.BigInt)": "988974ff",
			"uintToBigInt(uint256)": "6f038971"
		}
	},
	"abi": [
		{
			"inputs": [
				{
					"components": [
						{
							"internalType": "bytes",
							"name": "val",
							"type": "bytes"
						},
						{
							"internalType": "bool",
							"name": "neg",
							"type": "bool"
						}
					],
					"internalType": "struct CommonTypes.BigInt",
					"name": "bigInt",
					"type": "tuple"
				}
			],
			"name": "bigIntToUint",
			"outputs": [
				{
					"internalType": "uint256",
					"name": "",
					"type": "uint256"
				}
			],
			"stateMutability": "view",
			"type": "function"
		},
		{
			"inputs": [
				{
					"internalType": "address",
					"name": "addr",
					"type": "address"
				}
			],
			"name": "getDelegatedAddress",
			"outputs": [
				{
					"components": [
						{
							"internalType": "bytes",
							"name": "data",
							"type": "bytes"
						}
					],
					"internalType": "struct CommonTypes.FilAddress",
					"name": "",
					"type": "tuple"
				}
			],
			"stateMutability": "pure",
			"type": "function"
		},
		{
			"inputs": [
				{
					"components": [
						{
							"internalType": "bytes",
							"name": "piece_cid",
							"type": "bytes"
						},
						{
							"internalType": "uint64",
							"name": "piece_size",
							"type": "uint64"
						},
						{
							"internalType": "bool",
							"name": "verified_deal",
							"type": "bool"
						},
						{
							"internalType": "string",
							"name": "label",
							"type": "string"
						},
						{
							"internalType": "int64",
							"name": "start_epoch",
							"type": "int64"
						},
						{
							"internalType": "int64",
							"name": "end_epoch",
							"type": "int64"
						},
						{
							"internalType": "uint256",
							"name": "storage_price_per_epoch",
							"type": "uint256"
						},
						{
							"internalType": "uint256",
							"name": "provider_collateral",
							"type": "uint256"
						},
						{
							"internalType": "uint256",
							"name": "client_collateral",
							"type": "uint256"
						},
						{
							"internalType": "string",
							"name": "dataCid",
							"type": "string"
						},
						{
							"internalType": "uint64",
							"name": "extra_params_version",
							"type": "uint64"
						},
						{
							"components": [
								{
									"internalType": "string",
									"name": "location_ref",
									"type": "string"
								},
								{
									"internalType": "uint64",
									"name": "car_size",
									"type": "uint64"
								},
								{
									"internalType": "bool",
									"name": "skip_ipni_announce",
									"type": "bool"
								},
								{
									"internalType": "bool",
									"name": "remove_unsealed_copy",
									"type": "bool"
								}
							],
							"internalType": "struct Structs.ExtraParamsV1",
							"name": "extra_params",
							"type": "tuple"
						}
					],
					"internalType": "struct Structs.DealRequest",
					"name": "deal",
					"type": "tuple"
				}
			],
			"name": "serializeDealProposal",
			"outputs": [
				{
					"internalType": "bytes",
					"name": "",
					"type": "bytes"
				}
			],
			"stateMutability": "view",
			"type": "function"
		},
		{
			"inputs": [
				{
					"components": [
						{
							"internalType": "string",
							"name": "location_ref",
							"type": "string"
						},
						{
							"internalType": "uint64",
							"name": "car_size",
							"type": "uint64"
						},
						{
							"internalType": "bool",
							"name": "skip_ipni_announce",
							"type": "bool"
						},
						{
							"internalType": "bool",
							"name": "remove_unsealed_copy",
							"type": "bool"
						}
					],
					"internalType": "struct Structs.ExtraParamsV1",
					"name": "params",
					"type": "tuple"
				}
			],
			"name": "serializeExtraParamsV1",
			"outputs": [
				{
					"internalType": "bytes",
					"name": "",
					"type": "bytes"
				}
			],
			"stateMutability": "pure",
			"type": "function"
		},
		{
			"inputs": [
				{
					"components": [
						{
							"internalType": "bytes",
							"name": "val",
							"type": "bytes"
						},
						{
							"internalType": "bool",
							"name": "neg",
							"type": "bool"
						}
					],
					"internalType": "struct CommonTypes.BigInt",
					"name": "value",
					"type": "tuple"
				}
			],
			"name": "toUint256",
			"outputs": [
				{
					"internalType": "uint256",
					"name": "",
					"type": "uint256"
				},
				{
					"internalType": "bool",
					"name": "",
					"type": "bool"
				}
			],
			"stateMutability": "view",
			"type": "function"
		},
		{
			"inputs": [
				{
					"internalType": "uint256",
					"name": "value",
					"type": "uint256"
				}
			],
			"name": "uintToBigInt",
			"outputs": [
				{
					"components": [
						{
							"internalType": "bytes",
							"name": "val",
							"type": "bytes"
						},
						{
							"internalType": "bool",
							"name": "neg",
							"type": "bool"
						}
					],
					"internalType": "struct CommonTypes.BigInt",
					"name": "",
					"type": "tuple"
				}
			],
			"stateMutability": "view",
			"type": "function"
		}
	]
}