{
	"data": {
		"bytecode": {
			"linkReferences": {
				"src/core/FundingFormula.sol": {
					"FundingFormula": [
						{
							"length": 20,
							"start": 5579
						},
						{
							"length": 20,
							"start": 9630
						}
					]
				},
				"src/utils/Base64.sol": {
					"Base64": [
						{
							"length": 20,
							"start": 32632
						},
						{
							"length": 20,
							"start": 41698
						}
					]
				}
			},
			"object": "608060405234801561001057600080fd5b5061b2b480620000216000396000f3fe608060405260043610620001875760003560e01c806362ad351b11620000e2578063ab033ea91162000095578063daa58555116200006c578063daa585551462000540578063e243c5fb1462000565578063ef2d6f6f1462000587578063f63aa28814620005ac57600080fd5b8063ab033ea914620004d4578063b266ee3214620004f9578063ce3ec0fb146200051b57600080fd5b806362ad351b14620004065780636da9fc8514620004285780637c7fda3b146200044d5780638a1ce6211462000472578063a17661621462000497578063a4b261cd14620004bc57600080fd5b806322e6101b116200013b57806322e6101b146200030d578063264e1b0a14620003345780634cd2c09a14620003595780634d8dd443146200037e5780635aa6e67514620003a357806361808ae014620003e457600080fd5b8062f714ce146200022b57806310c88e74146200025057806313c6af3914620002675780631bc3a01c146200028c5780631c4d722314620002c357806322564d2414620002e857600080fd5b366200022657600654604051630935e01b60e21b81523360048201526001600160a01b03909116906324d7806c90602401602060405180830381865afa158015620001d6573d6000803e3d6000fd5b505050506040513d601f19601f82011682018060405250810190620001fc919062002b71565b620002245760405162461bcd60e51b81526004016200021b9062002b96565b60405180910390fd5b005b600080fd5b3480156200023857600080fd5b50620002246200024a36600462002bdc565b620005d1565b620002246200026136600462002c0f565b62000787565b3480156200027457600080fd5b50620002246200028636600462002c29565b62000ae3565b3480156200029957600080fd5b50600454600554620002a9919082565b604080519283526020830191909152015b60405180910390f35b348015620002d057600080fd5b5062000224620002e236600462002c8d565b62000b81565b348015620002f557600080fd5b50620002246200030736600462002c0f565b62000da6565b3480156200031a57600080fd5b506200032560075481565b604051908152602001620002ba565b3480156200034157600080fd5b50620002246200035336600462002d3a565b62000edc565b3480156200036657600080fd5b50620002246200037836600462002c0f565b62001348565b3480156200038b57600080fd5b50620002246200039d36600462002c0f565b620016db565b348015620003b057600080fd5b50600054620003cb906201000090046001600160a01b031681565b6040516001600160a01b039091168152602001620002ba565b348015620003f157600080fd5b50600254620003cb906001600160a01b031681565b3480156200041357600080fd5b50600154620003cb906001600160a01b031681565b3480156200043557600080fd5b50620002246200044736600462002c0f565b62001ad3565b3480156200045a57600080fd5b50620002246200046c36600462002c0f565b62001c9e565b3480156200047f57600080fd5b50620002246200049136600462002eed565b62001cd6565b348015620004a457600080fd5b5062000224620004b636600462002fa8565b62001f28565b348015620004c957600080fd5b506200032560085481565b348015620004e157600080fd5b5062000224620004f336600462002fd3565b62002217565b3480156200050657600080fd5b50600654620003cb906001600160a01b031681565b3480156200052857600080fd5b50620002246200053a36600462002ff3565b620022a2565b3480156200054d57600080fd5b50620002246200055f36600462002c0f565b620027d7565b3480156200057257600080fd5b50600354620003cb906001600160a01b031681565b3480156200059457600080fd5b5062000224620005a636600462002c0f565b62002967565b348015620005b957600080fd5b5062000224620005cb36600462002c0f565b6200299f565b6000546201000090046001600160a01b03163314620006045760405162461bcd60e51b81526004016200021b9062003097565b60065460408051630d56517960e31b815290516000926001600160a01b031691636ab28bc89160048083019260209291908290030181865afa1580156200064f573d6000803e3d6000fd5b505050506040513d601f19601f82011682018060405250810190620006759190620030ce565b90506000620006858247620030fe565b905080841115620006e75760405162461bcd60e51b815260206004820152602560248201527f547279696e6720746f207769746864726177206d6f7265207468616e20706f736044820152647369626c6560d81b60648201526084016200021b565b6000836001600160a01b03168560405160006040518083038185875af1925050503d806000811462000736576040519150601f19603f3d011682016040523d82523d6000602084013e6200073b565b606091505b5050905080620007805760405162461bcd60e51b815260206004820152600f60248201526e15da5d1a191c985dc819985a5b1959608a1b60448201526064016200021b565b5050505050565b60065460405163725f4c7960e11b8152600481018390526000916001600160a01b03169063e4be98f290602401600060405180830381865afa158015620007d2573d6000803e3d6000fd5b505050506040513d6000823e601f3d908101601f19168201604052620007fc9190810190620031a1565b80519091508214620008515760405162461bcd60e51b815260206004820152601b60248201527f5265736561726368206465616c20646f65736e2774206578697374000000000060448201526064016200021b565b8060a0015134146200089c5760405162461bcd60e51b8152602060048201526013602482015272125b9d985b1a5908185b5bdd5b9d081cd95b9d606a1b60448201526064016200021b565b600654604051631adf7eb160e01b8152600481018490526000916001600160a01b031690631adf7eb1906024016040805180830381865afa158015620008e6573d6000803e3d6000fd5b505050506040513d601f19601f820116820180604052508101906200090c91906200328d565b600654815160405163bad79de960e01b81529293506000926001600160a01b039092169163bad79de991620009479160040190815260200190565b600060405180830381865afa15801562000965573d6000803e3d6000fd5b505050506040513d6000823e601f3d908101601f191682016040526200098f919081019062003397565b9050600260065482516040516314da36f760e31b81526001600160a01b039092169163a6d1b7b891620009c5916004016200354b565b602060405180830381865afa158015620009e3573d6000803e3d6000fd5b505050506040513d601f19601f8201168201806040525081019062000a09919062003560565b600481111562000a1d5762000a1d62003507565b1462000a655760405162461bcd60e51b81526020600482015260166024820152751119585b081b9bdd081c1d589b1a5cda1959081e595d60521b60448201526064016200021b565b600354604080850151905163d0def52160e01b81526001600160a01b039092169163d0def5219162000a9d9133919060040162003583565b6020604051808303816000875af115801562000abd573d6000803e3d6000fd5b505050506040513d601f19601f82011682018060405250810190620007809190620030ce565b6000546201000090046001600160a01b0316331462000b165760405162461bcd60e51b81526004016200021b9062003097565b80351580159062000b2b575060208101358135105b62000b735760405162461bcd60e51b815260206004820152601760248201527624b73b30b634b2103b37ba34b73390323ab930ba34b7b760491b60448201526064016200021b565b803560045560200135600555565b6001546040516370a0823160e01b81523360048201526001600160a01b03909116906370a0823190602401602060405180830381865afa15801562000bca573d6000803e3d6000fd5b505050506040513d601f19601f8201168201806040525081019062000bf09190620030ce565b60011462000c3c5760405162461bcd60e51b815260206004820152601860248201527713db9b1e48111053c81b595b58995c8818d85b8818d85b1b60421b60448201526064016200021b565b600033838360405160200162000c5593929190620035a9565b60408051601f19818403018152828252805160209182012060c08401835280845233848301528251601f87018390048302810183018452868152909450600093928301918790879081908401838280828437600092019190915250505090825250604080516020601f8d018190048102820181019092528b815291810191908c908c9081908401838280828437600092019190915250505090825250604080516020601f8b0181900481028201810190925289815291810191908a908a908190840183828082843760009201919091525050509082525060200186905260065460405163e7e1a57360e01b81529192506001600160a01b03169063e7e1a5739062000d679085908590600401620035d5565b600060405180830381600087803b15801562000d8257600080fd5b505af115801562000d97573d6000803e3d6000fd5b50505050505050505050505050565b60065460405163d117658f60e01b8152600481018390526000916001600160a01b03169063d117658f90602401602060405180830381865afa15801562000df1573d6000803e3d6000fd5b505050506040513d601f19601f8201168201806040525081019062000e179190620030ce565b905060006008548262000e2b91906200366e565b905080421162000e775760405162461bcd60e51b8152602060048201526016602482015275566f74696e67206973207374696c6c2061637469766560501b60448201526064016200021b565b600654604051636024dffb60e01b8152600481018590526001600160a01b0390911690636024dffb90602401600060405180830381600087803b15801562000ebe57600080fd5b505af115801562000ed3573d6000803e3d6000fd5b50505050505050565b600654604051632859602760e21b8152600481018490526000916001600160a01b03169063a165809c90602401600060405180830381865afa15801562000f27573d6000803e3d6000fd5b505050506040513d6000823e601f3d908101601f1916820160405262000f5191908101906200371c565b8051909150831462000f9c5760405162461bcd60e51b8152602060048201526013602482015272125b9d985b1a59081c1c9bdc1bdcd85b081a59606a1b60448201526064016200021b565b60008160400151600581111562000fb75762000fb762003507565b14620010125760405162461bcd60e51b815260206004820152602360248201527f46756e64696e672070726f706f73616c206973206e6f7420696e2070726f677260448201526265737360e81b60648201526084016200021b565b60008160e001518261012001516200102b91906200366e565b90508042106200107e5760405162461bcd60e51b815260206004820152601860248201527f46756e64696e672070726f706f73616c2065787069726564000000000000000060448201526064016200021b565b6000838361016001516200109391906200366e565b90508260c00151811115620010eb5760405162461bcd60e51b815260206004820152601960248201527f547279696e6720746f20696e7665737420746f6f206d7563680000000000000060448201526064016200021b565b60a08301516040516323b872dd60e01b8152336004820152306024820152604481018690526001600160a01b03909116906323b872dd906064016020604051808303816000875af115801562001145573d6000803e3d6000fd5b505050506040513d601f19601f820116820180604052508101906200116b919062002b71565b50600654604051630ed5db1960e41b815260048101879052602481018390526001600160a01b039091169063ed5db19090604401600060405180830381600087803b158015620011ba57600080fd5b505af1158015620011cf573d6000803e3d6000fd5b505050508260c001518103620012485760065460405163d77907df60e01b81526001600160a01b039091169063d77907df906200121390889060049081016200386c565b600060405180830381600087803b1580156200122e57600080fd5b505af115801562001243573d6000803e3d6000fd5b505050505b60025460a08401516040516309024e4d60e31b8152336004820152602481018890526001600160a01b0391821660448201526064810187905260009291909116906348127268906084016020604051808303816000875af1158015620012b2573d6000803e3d6000fd5b505050506040513d601f19601f82011682018060405250810190620012d89190620030ce565b600654604051636697221960e01b815260048101899052602481018390529192506001600160a01b031690636697221990604401600060405180830381600087803b1580156200132757600080fd5b505af11580156200133c573d6000803e3d6000fd5b50505050505050505050565b600654604051630935e01b60e21b81523360048201526001600160a01b03909116906324d7806c90602401602060405180830381865afa15801562001391573d6000803e3d6000fd5b505050506040513d601f19601f82011682018060405250810190620013b7919062002b71565b620013d65760405162461bcd60e51b81526004016200021b9062002b96565b60065460408051630d56517960e31b815290516000926001600160a01b031691636ab28bc89160048083019260209291908290030181865afa15801562001421573d6000803e3d6000fd5b505050506040513d601f19601f82011682018060405250810190620014479190620030ce565b905080821115620014a55760405162461bcd60e51b815260206004820152602160248201527f547279696e6720746f206c6f636b206d6f7265207468616e20706f737369626c6044820152606560f81b60648201526084016200021b565b60065460408051630b1cfe1760e31b815290516000926001600160a01b0316916358e7f0b89160048083019260209291908290030181865afa158015620014f0573d6000803e3d6000fd5b505050506040513d601f19601f82011682018060405250810190620015169190620030ce565b90506000600660009054906101000a90046001600160a01b03166001600160a01b031663fe47a8a76040518163ffffffff1660e01b81526004016040805180830381865afa1580156200156d573d6000803e3d6000fd5b505050506040513d601f19601f8201168201806040525081019062001593919062003882565b8051604051638a36baa760e01b815291925060009173__$c7235e5c6731d0e382bf0b7105bd2e3e9a$__91638a36baa791620015dc918791600401918252602082015260400190565b602060405180830381865af4158015620015fa573d6000803e3d6000fd5b505050506040513d601f19601f82011682018060405250810190620016209190620030ce565b9050808510620016735760405162461bcd60e51b815260206004820152601960248201527f547279696e6720746f20756e6c6f636b20746f6f206d7563680000000000000060448201526064016200021b565b600654604051632c27219b60e11b8152600481018790526001600160a01b039091169063584e4336906024015b600060405180830381600087803b158015620016bb57600080fd5b505af1158015620016d0573d6000803e3d6000fd5b505050505050505050565b600654604051632859602760e21b8152600481018390526000916001600160a01b03169063a165809c90602401600060405180830381865afa15801562001726573d6000803e3d6000fd5b505050506040513d6000823e601f3d908101601f191682016040526200175091908101906200371c565b80519091508214620017765760405162461bcd60e51b81526004016200021b90620038b7565b8060e001518161012001516200178d91906200366e565b4211620017dd5760405162461bcd60e51b815260206004820152601c60248201527f50726f706f73616c20686173206e6f742065787069726564207965740000000060448201526064016200021b565b8060c0015181610160015110620018455760405162461bcd60e51b815260206004820152602560248201527f50726f706f73616c20696e766573746d656e74207472657368686f6c642072656044820152641858da195960da1b60648201526084016200021b565b60065460405163d77907df60e01b81526001600160a01b039091169063d77907df906200187a9085906002906004016200386c565b600060405180830381600087803b1580156200189557600080fd5b505af1158015620018aa573d6000803e3d6000fd5b5050600654604051634eeae79160e11b815260048101869052600093506001600160a01b039091169150639dd5cf2290602401600060405180830381865afa158015620018fb573d6000803e3d6000fd5b505050506040513d6000823e601f3d908101601f19168201604052620019259190810190620038ee565b905060005b815181101562001acd5760008282815181106200194b576200194b62003926565b6020908102919091010151600254604051636031680160e01b8152600481018390529192506000916001600160a01b039091169063603168019060240160e060405180830381865afa158015620019a6573d6000803e3d6000fd5b505050506040513d601f19601f82011682018060405250810190620019cc91906200393c565b6080810151602082015160a083015160405163a9059cbb60e01b81526001600160a01b0392831660048201526024810191909152929350169063a9059cbb906044016020604051808303816000875af115801562001a2e573d6000803e3d6000fd5b505050506040513d601f19601f8201168201806040525081019062001a54919062002b71565b50600254604051637e79d26160e11b8152600481018490526001600160a01b039091169063fcf3a4c290602401600060405180830381600087803b15801562001a9c57600080fd5b505af115801562001ab1573d6000803e3d6000fd5b505050505050808062001ac490620039d0565b9150506200192a565b50505050565b600654604051632859602760e21b8152600481018390526000916001600160a01b03169063a165809c90602401600060405180830381865afa15801562001b1e573d6000803e3d6000fd5b505050506040513d6000823e601f3d908101601f1916820160405262001b4891908101906200371c565b8051909150821462001b6e5760405162461bcd60e51b81526004016200021b90620038b7565b80602001516001600160a01b0316336001600160a01b03161462001bd55760405162461bcd60e51b815260206004820152601e60248201527f4f6e6c792070726f706f73616c2063726561746f722063616e2063616c6c000060448201526064016200021b565b8061016001518160c001511462001c395760405162461bcd60e51b815260206004820152602160248201527f5461726765742066756e64696e6720686173206e6f74206265656e20726561636044820152600d60fb1b60648201526084016200021b565b600654604051636da9fc8560e01b8152600481018490526001600160a01b0390911690636da9fc85906024015b600060405180830381600087803b15801562001c8157600080fd5b505af115801562001c96573d6000803e3d6000fd5b505050505050565b6000546201000090046001600160a01b0316331462001cd15760405162461bcd60e51b81526004016200021b9062003097565b600755565b600054610100900460ff161580801562001cf75750600054600160ff909116105b8062001d135750303b15801562001d13575060005460ff166001145b62001d785760405162461bcd60e51b815260206004820152602e60248201527f496e697469616c697a61626c653a20636f6e747261637420697320616c72656160448201526d191e481a5b9a5d1a585b1a5e995960921b60648201526084016200021b565b6000805460ff19166001179055801562001d9c576000805461ff0019166101001790555b858560405162001dac9062002b31565b62001db9929190620039ec565b604051809103906000f08015801562001dd6573d6000803e3d6000fd5b50600160006101000a8154816001600160a01b0302191690836001600160a01b03160217905550858560405162001e0d9062002b3f565b62001e1a929190620039ec565b604051809103906000f08015801562001e37573d6000803e3d6000fd5b50600260006101000a8154816001600160a01b0302191690836001600160a01b03160217905550858560405162001e6e9062002b4d565b62001e7b929190620039ec565b604051809103906000f08015801562001e98573d6000803e3d6000fd5b50600380546001600160a01b03199081166001600160a01b039384161790915585516004556020860151600555600680549091169185169190911790556008829055801562001c96576000805461ff0019169055604051600181527f7f26b83ff96e1f2b6a682f133852f6798a09c465da95921460cefb38474024989060200160405180910390a1505050505050565b600654604051632859602760e21b8152600481018490526000916001600160a01b03169063a165809c90602401600060405180830381865afa15801562001f73573d6000803e3d6000fd5b505050506040513d6000823e601f3d908101601f1916820160405262001f9d91908101906200371c565b805190915060000362001fec5760405162461bcd60e51b8152602060048201526016602482015275141c9bdc1bdcd85b08191bd95cdb89dd08195e1a5cdd60521b60448201526064016200021b565b60038160400151600581111562002007576200200762003507565b146200204b5760405162461bcd60e51b81526020600482015260126024820152712b37ba34b7339034b9903737ba1037b832b760711b60448201526064016200021b565b60065460405163d117658f60e01b8152600481018590526000916001600160a01b03169063d117658f90602401602060405180830381865afa15801562002096573d6000803e3d6000fd5b505050506040513d601f19601f82011682018060405250810190620020bc9190620030ce565b9050600060085482620020d091906200366e565b9050804210620021185760405162461bcd60e51b81526020600482015260126024820152712b37ba34b733903832b934b7b21037bb32b960711b60448201526064016200021b565b60025460405163a32e694760e01b8152600481018790523360248201526001600160a01b039091169063a32e694790604401602060405180830381865afa15801562002168573d6000803e3d6000fd5b505050506040513d601f19601f820116820180604052508101906200218e919062002b71565b1515600114620021e15760405162461bcd60e51b815260206004820152601960248201527f43616c6c6572206973206e6f7420616e20696e766573746f720000000000000060448201526064016200021b565b60065460405163598e8f0b60e01b81526001600160a01b039091169063598e8f0b90620016a09088903390899060040162003a1e565b6000546201000090046001600160a01b031615620022785760405162461bcd60e51b815260206004820152601b60248201527f44414f3a20476f7665726e616e636520616c726561647920736574000000000060448201526064016200021b565b600080546001600160a01b03909216620100000262010000600160b01b0319909216919091179055565b6001546040516370a0823160e01b81523360048201526001600160a01b03909116906370a0823190602401602060405180830381865afa158015620022eb573d6000803e3d6000fd5b505050506040513d601f19601f82011682018060405250810190620023119190620030ce565b6001146200235d5760405162461bcd60e51b815260206004820152601860248201527713db9b1e48111053c81b595b58995c8818d85b8818d85b1b60421b60448201526064016200021b565b6006546040516375151b6360e01b81526001600160a01b038681166004830152909116906375151b6390602401602060405180830381865afa158015620023a8573d6000803e3d6000fd5b505050506040513d601f19601f82011682018060405250810190620023ce919062002b71565b620024105760405162461bcd60e51b81526020600482015260116024820152702ab739bab83837b93a32b2103a37b5b2b760791b60448201526064016200021b565b6004548211801562002423575060055482105b6200246b5760405162461bcd60e51b815260206004820152601760248201527624b73b30b634b2103b37ba34b73390323ab930ba34b7b760491b60448201526064016200021b565b60065460408051630b1cfe1760e31b815290516000926001600160a01b0316916358e7f0b89160048083019260209291908290030181865afa158015620024b6573d6000803e3d6000fd5b505050506040513d601f19601f82011682018060405250810190620024dc9190620030ce565b90506000600660009054906101000a90046001600160a01b03166001600160a01b0316636ab28bc86040518163ffffffff1660e01b8152600401602060405180830381865afa15801562002534573d6000803e3d6000fd5b505050506040513d601f19601f820116820180604052508101906200255a9190620030ce565b604051639c2f3d2360e01b8152600481018490526024810182905290915060009073__$c7235e5c6731d0e382bf0b7105bd2e3e9a$__90639c2f3d2390604401602060405180830381865af4158015620025b8573d6000803e3d6000fd5b505050506040513d601f19601f82011682018060405250810190620025de9190620030ce565b905080861115620026465760405162461bcd60e51b815260206004820152602b60248201527f547279696e6720746f2072657175657374206d6f72652066756e64696e67207460448201526a1a185b88185b1b1bddd95960aa1b60648201526084016200021b565b60008b8b8b8b8b8b8b8b6040516020016200266998979695949392919062003a55565b60408051601f1981840301815282825280516020918201206101a0840183528084523391840191909152925060609160009181018281526020018f8f8080601f016020809104026020016040519081016040528093929190818152602001838380828437600081840152601f19601f8201169050808301925050505050505081526020018d8d8080601f01602080910402602001604051908101604052809392919081815260200183838082843760009201829052509385525050506001600160a01b03808e16602084015260408084018e9052606084018d9052608084018c90524260a085015260c0840183905260e084019290925261010090920185905260065490516388a9bb2d60e01b815292935016906388a9bb2d906200279390849060040162003add565b600060405180830381600087803b158015620027ae57600080fd5b505af1158015620027c3573d6000803e3d6000fd5b505050505050505050505050505050505050565b600654604051630935e01b60e21b81523360048201526001600160a01b03909116906324d7806c90602401602060405180830381865afa15801562002820573d6000803e3d6000fd5b505050506040513d601f19601f8201168201806040525081019062002846919062002b71565b620028655760405162461bcd60e51b81526004016200021b9062002b96565b47811115620028b75760405162461bcd60e51b815260206004820181905260248201527f547279696e6720746f206c6f636b206d6f7265207468616e2062616c616e636560448201526064016200021b565b60065460408051630d56517960e31b815290516000926001600160a01b031691636ab28bc89160048083019260209291908290030181865afa15801562002902573d6000803e3d6000fd5b505050506040513d601f19601f82011682018060405250810190620029289190620030ce565b6006549091506001600160a01b031663584e43366200294884846200366e565b6040518263ffffffff1660e01b815260040162001c6691815260200190565b6000546201000090046001600160a01b031633146200299a5760405162461bcd60e51b81526004016200021b9062003097565b600855565b600654604051632859602760e21b8152600481018390526000916001600160a01b03169063a165809c90602401600060405180830381865afa158015620029ea573d6000803e3d6000fd5b505050506040513d6000823e601f3d908101601f1916820160405262002a1491908101906200371c565b8051909150821462002a3a5760405162461bcd60e51b81526004016200021b90620038b7565b60018160400151600581111562002a555762002a5562003507565b1462002a945760405162461bcd60e51b815260206004820152600d60248201526c496e76616c696420737461746560981b60448201526064016200021b565b80610100015181610140015162002aac91906200366e565b421162002afc5760405162461bcd60e51b815260206004820152601b60248201527f526573656172636820706572696f64206973206e6f74206f766572000000000060448201526064016200021b565b60065460405163d77907df60e01b81526001600160a01b039091169063d77907df9062001c669085906003906004016200386c565b6131d78062003bed83390190565b6124738062006dc483390190565b612048806200923783390190565b8051801515811462002b6c57600080fd5b919050565b60006020828403121562002b8457600080fd5b62002b8f8262002b5b565b9392505050565b60208082526013908201527213db9b1e4818591b5a5b8818d85b8818d85b1b606a1b604082015260600190565b6001600160a01b038116811462002bd957600080fd5b50565b6000806040838503121562002bf057600080fd5b82359150602083013562002c048162002bc3565b809150509250929050565b60006020828403121562002c2257600080fd5b5035919050565b60006040828403121562002c3c57600080fd5b50919050565b60008083601f84011262002c5557600080fd5b5081356001600160401b0381111562002c6d57600080fd5b60208301915083602082850101111562002c8657600080fd5b9250929050565b60008060008060008060006080888a03121562002ca957600080fd5b87356001600160401b038082111562002cc157600080fd5b62002ccf8b838c0162002c42565b909950975060208a013591508082111562002ce957600080fd5b62002cf78b838c0162002c42565b909750955060408a0135945060608a013591508082111562002d1857600080fd5b5062002d278a828b0162002c42565b989b979a50959850939692959293505050565b6000806040838503121562002d4e57600080fd5b50508035926020909101359150565b634e487b7160e01b600052604160045260246000fd5b604080519081016001600160401b038111828210171562002d985762002d9862002d5d565b60405290565b60405160c081016001600160401b038111828210171562002d985762002d9862002d5d565b60405161018081016001600160401b038111828210171562002d985762002d9862002d5d565b6040516101a081016001600160401b038111828210171562002d985762002d9862002d5d565b60405160e081016001600160401b038111828210171562002d985762002d9862002d5d565b604051601f8201601f191681016001600160401b038111828210171562002e5f5762002e5f62002d5d565b604052919050565b60006001600160401b0382111562002e835762002e8362002d5d565b50601f01601f191660200190565b600082601f83011262002ea357600080fd5b813562002eba62002eb48262002e67565b62002e34565b81815284602083860101111562002ed057600080fd5b816020850160208301376000918101602001919091529392505050565b600080600080600085870360c081121562002f0757600080fd5b86356001600160401b038082111562002f1f57600080fd5b62002f2d8a838b0162002e91565b9750602089013591508082111562002f4457600080fd5b5062002f5389828a0162002e91565b9550506040603f198201121562002f6957600080fd5b5062002f7462002d73565b60408701358152606087013560208201529250608086013562002f978162002bc3565b9497939650919460a0013592915050565b6000806040838503121562002fbc57600080fd5b8235915060208301356003811062002c0457600080fd5b60006020828403121562002fe657600080fd5b813562002b8f8162002bc3565b60008060008060008060008060c0898b0312156200301057600080fd5b88356001600160401b03808211156200302857600080fd5b620030368c838d0162002c42565b909a50985060208b01359150808211156200305057600080fd5b506200305f8b828c0162002c42565b9097509550506040890135620030758162002bc3565b979a96995094979396956060850135955060808501359460a001359350915050565b60208082526018908201527f4f6e6c7920676f7665726e616e63652063616e2063616c6c0000000000000000604082015260600190565b600060208284031215620030e157600080fd5b5051919050565b634e487b7160e01b600052601160045260246000fd5b81810381811115620031145762003114620030e8565b92915050565b805162002b6c8162002bc3565b60005b83811015620031445781810151838201526020016200312a565b50506000910152565b600082601f8301126200315f57600080fd5b81516200317062002eb48262002e67565b8181528460208386010111156200318657600080fd5b6200319982602083016020870162003127565b949350505050565b600060208284031215620031b457600080fd5b81516001600160401b0380821115620031cc57600080fd5b9083019060c08286031215620031e157600080fd5b620031eb62002d9e565b82518152620031fd602084016200311a565b60208201526040830151828111156200321557600080fd5b62003223878286016200314d565b6040830152506060830151828111156200323c57600080fd5b6200324a878286016200314d565b6060830152506080830151828111156200326357600080fd5b62003271878286016200314d565b60808301525060a083015160a082015280935050505092915050565b600060408284031215620032a057600080fd5b620032aa62002d73565b82518152620032bc6020840162002b5b565b60208201529392505050565b80516001600160401b038116811462002b6c57600080fd5b8051600781900b811462002b6c57600080fd5b6000608082840312156200330657600080fd5b604051608081016001600160401b0382821081831117156200332c576200332c62002d5d565b8160405282935084519150808211156200334557600080fd5b5062003354858286016200314d565b8252506200336560208401620032c8565b6020820152620033786040840162002b5b565b60408201526200338b6060840162002b5b565b60608201525092915050565b600060208284031215620033aa57600080fd5b81516001600160401b0380821115620033c257600080fd5b908301906101808286031215620033d857600080fd5b620033e262002dc3565b825182811115620033f257600080fd5b62003400878286016200314d565b8252506200341160208401620032c8565b6020820152620034246040840162002b5b565b60408201526060830151828111156200343c57600080fd5b6200344a878286016200314d565b6060830152506200345e60808401620032e0565b60808201526200347160a08401620032e0565b60a082015260c083015160c082015260e083015160e08201526101008084015181830152506101208084015183811115620034ab57600080fd5b620034b9888287016200314d565b828401525050610140620034cf818501620032c8565b908201526101608381015183811115620034e857600080fd5b620034f688828701620032f3565b918301919091525095945050505050565b634e487b7160e01b600052602160045260246000fd5b600081518084526200353781602086016020860162003127565b601f01601f19169290920160200192915050565b60208152600062002b8f60208301846200351d565b6000602082840312156200357357600080fd5b81516005811062002b8f57600080fd5b6001600160a01b038316815260406020820181905260009062003199908301846200351d565b6bffffffffffffffffffffffff198460601b168152818360148301376000910160140190815292915050565b828152604060208083018290528351828401528301516001600160a01b0316606083015282015160c06080830152600090620036166101008401826200351d565b90506060840151603f19808584030160a08601526200363683836200351d565b925060808601519150808584030160c0860152506200365682826200351d565b91505060a084015160e0840152809150509392505050565b80820180821115620031145762003114620030e8565b80516006811062002b6c57600080fd5b600082601f830112620036a657600080fd5b815160206001600160401b03821115620036c457620036c462002d5d565b8160051b620036d582820162002e34565b9283528481018201928281019087851115620036f057600080fd5b83870192505b848310156200371157825182529183019190830190620036f6565b979650505050505050565b6000602082840312156200372f57600080fd5b81516001600160401b03808211156200374757600080fd5b908301906101a082860312156200375d57600080fd5b6200376762002de9565b8251815262003779602084016200311a565b60208201526200378c6040840162003684565b6040820152606083015182811115620037a457600080fd5b620037b2878286016200314d565b606083015250608083015182811115620037cb57600080fd5b620037d9878286016200314d565b608083015250620037ed60a084016200311a565b60a082015260c0838101519082015260e08084015190820152610100808401519082015261012080840151908201526101408084015190820152610160808401519082015261018080840151838111156200384757600080fd5b620034f68882870162003694565b6006811062003868576200386862003507565b9052565b8281526040810162002b8f602083018462003855565b6000604082840312156200389557600080fd5b6200389f62002d73565b82518152602083015160208201528091505092915050565b60208082526017908201527f50726f706f73616c20646f6573206e6f74206578697374000000000000000000604082015260600190565b6000602082840312156200390157600080fd5b81516001600160401b038111156200391857600080fd5b620031998482850162003694565b634e487b7160e01b600052603260045260246000fd5b600060e082840312156200394f57600080fd5b6200395962002e0f565b8251620039668162002bc3565b81526020830151620039788162002bc3565b60208201526040830151600281106200399057600080fd5b604082015260608381015190820152620039ad608084016200311a565b608082015260a083015160a082015260c083015160c08201528091505092915050565b600060018201620039e557620039e5620030e8565b5060010190565b60408152600062003a0160408301856200351d565b828103602084015262003a1581856200351d565b95945050505050565b8381526001600160a01b0383166020820152606081016003831062003a475762003a4762003507565b826040830152949350505050565b878982376000888201600081528789823760609690961b6bffffffffffffffffffffffff19169590960194855250601484019290925260348301526054820152607401949350505050565b600081518084526020808501945080840160005b8381101562003ad25781518752958201959082019060010162003ab4565b509495945050505050565b60208152815160208201526000602083015162003b0560408401826001600160a01b03169052565b50604083015162003b1a606084018262003855565b5060608301516101a080608085015262003b396101c08501836200351d565b91506080850151601f19808685030160a087015262003b5984836200351d565b935060a0870151915062003b7860c08701836001600160a01b03169052565b60c087015160e087810191909152870151610100808801919091528701516101208088019190915287015161014080880191909152870151610160808801919091528701516101808088019190915287015186850390910183870152905062003be2838262003aa0565b969550505050505056fe6101606040523480156200001257600080fd5b50604051620031d7380380620031d78339810160408190526200003591620002b5565b6040805180820190915260018152603160f81b60208201528290818360006200005f8382620003ae565b5060016200006e8282620003ae565b5050506200008c6006836200014960201b62000ff81790919060201c565b61012052620000a981600762000149602090811b62000ff817901c565b61014052815160208084019190912060e052815190820120610100524660a0526200013760e05161010051604080517f8b73c3c69bb8fe3d512ecc4cf759cc79239f7b179b0ffacaa9a75d522b39400f60208201529081019290925260608201524660808201523060a082015260009060c00160405160208183030381529060405280519060200120905090565b60805250503060c05250620004d49050565b60006020835110156200016957620001618362000199565b905062000193565b826200018083620001e560201b620010291760201c565b906200018d9082620003ae565b5060ff90505b92915050565b600080829050601f81511115620001d0578260405163305a27a960e01b8152600401620001c791906200047a565b60405180910390fd5b8051620001dd82620004af565b179392505050565b90565b634e487b7160e01b600052604160045260246000fd5b60005b838110156200021b57818101518382015260200162000201565b50506000910152565b600082601f8301126200023657600080fd5b81516001600160401b0380821115620002535762000253620001e8565b604051601f8301601f19908116603f011681019082821181831017156200027e576200027e620001e8565b816040528381528660208588010111156200029857600080fd5b620002ab846020830160208901620001fe565b9695505050505050565b60008060408385031215620002c957600080fd5b82516001600160401b0380821115620002e157600080fd5b620002ef8683870162000224565b935060208501519150808211156200030657600080fd5b50620003158582860162000224565b9150509250929050565b600181811c908216806200033457607f821691505b6020821081036200035557634e487b7160e01b600052602260045260246000fd5b50919050565b601f821115620003a957600081815260208120601f850160051c81016020861015620003845750805b601f850160051c820191505b81811015620003a55782815560010162000390565b5050505b505050565b81516001600160401b03811115620003ca57620003ca620001e8565b620003e281620003db84546200031f565b846200035b565b602080601f8311600181146200041a5760008415620004015750858301515b600019600386901b1c1916600185901b178555620003a5565b600085815260208120601f198616915b828110156200044b578886015182559484019460019091019084016200042a565b50858210156200046a5787850151600019600388901b60f8161c191681555b5050505050600190811b01905550565b60208152600082518060208401526200049b816040850160208701620001fe565b601f01601f19169190910160400192915050565b80516020808301519190811015620003555760001960209190910360031b1b16919050565b60805160a05160c05160e051610100516101205161014051612ca86200052f6000396000610cee01526000610cc3015260006113440152600061131c01526000611277015260006112a1015260006112cb0152612ca86000f3fe608060405234801561001057600080fd5b50600436106101e55760003560e01c80636a6278421161010f5780639f181b5e116100a2578063c3cda52011610071578063c3cda52014610439578063c87b56dd1461044c578063d58778d61461045f578063e985e9c51461047257600080fd5b80639f181b5e146103ea578063a22cb465146103f3578063b88d4fde14610406578063bc14a1ea1461041957600080fd5b80638e539e8c116100de5780638e539e8c1461039d57806391ddadf4146103b057806395d89b41146103cf5780639ab24eb0146103d757600080fd5b80636a6278421461034957806370a082311461035c5780637ecebe001461036f57806384b0196e1461038257600080fd5b80633a46b1a811610187578063587cde1e11610156578063587cde1e146102e45780635c19a95c146103105780636352211e146103235780636637b8821461033657600080fd5b80633a46b1a8146102a35780634162169f146102b657806342842e0e146102c95780634bf5d7e9146102dc57600080fd5b8063095ea7b3116101c3578063095ea7b31461025257806320c5429b1461026757806323b872dd1461027a5780633644e5151461028d57600080fd5b806301ffc9a7146101ea57806306fdde0314610212578063081812fc14610227575b600080fd5b6101fd6101f836600461252a565b6104ae565b60405190151581526020015b60405180910390f35b61021a61050f565b6040516102099190612597565b61023a6102353660046125aa565b6105a1565b6040516001600160a01b039091168152602001610209565b6102656102603660046125df565b6105c8565b005b6102656102753660046125aa565b6106e2565b610265610288366004612609565b61088b565b6102956108b9565b604051908152602001610209565b6102956102b13660046125df565b6108c8565b60105461023a906001600160a01b031681565b6102656102d7366004612609565b610959565b61021a610974565b61023a6102f2366004612645565b6001600160a01b039081166000908152600860205260409020541690565b61026561031e366004612645565b610a0c565b61023a6103313660046125aa565b610a1b565b610265610344366004612645565b610a7b565b610265610357366004612645565b610ae8565b61029561036a366004612645565b610c11565b61029561037d366004612645565b610c97565b61038a610cb5565b6040516102099796959493929190612660565b6102956103ab3660046125aa565b610d3e565b6103b8610db8565b60405165ffffffffffff9091168152602001610209565b61021a610dc3565b6102956103e5366004612645565b610dd2565b610295600c5481565b6102656104013660046126f6565b610df3565b610265610414366004612748565b610dfe565b610295610427366004612645565b600f6020526000908152604090205481565b610265610447366004612824565b610e36565b61021a61045a3660046125aa565b610f63565b61029561046d3660046125aa565b610fd7565b6101fd610480366004612884565b6001600160a01b03918216600090815260056020908152604080832093909416825291909152205460ff1690565b60006001600160e01b031982166380ac58cd60e01b14806104df57506001600160e01b03198216635b5e139f60e01b145b806104fa57506001600160e01b03198216637965db0b60e01b145b8061050957506105098261102c565b92915050565b60606000805461051e906128b7565b80601f016020809104026020016040519081016040528092919081815260200182805461054a906128b7565b80156105975780601f1061056c57610100808354040283529160200191610597565b820191906000526020600020905b81548152906001019060200180831161057a57829003601f168201915b5050505050905090565b60006105ac8261107c565b506000908152600460205260409020546001600160a01b031690565b60006105d382610a1b565b9050806001600160a01b0316836001600160a01b0316036106455760405162461bcd60e51b815260206004820152602160248201527f4552433732313a20617070726f76616c20746f2063757272656e74206f776e656044820152603960f91b60648201526084015b60405180910390fd5b336001600160a01b038216148061066157506106618133610480565b6106d35760405162461bcd60e51b815260206004820152603d60248201527f4552433732313a20617070726f76652063616c6c6572206973206e6f7420746f60448201527f6b656e206f776e6572206f7220617070726f76656420666f7220616c6c000000606482015260840161063c565b6106dd83836110de565b505050565b6010546001600160a01b031633146107305760405162461bcd60e51b815260206004820152601160248201527013db9b1e48111053c818d85b8818d85b1b607a1b604482015260640161063c565b6000818152600260205260409020546001600160a01b03166107945760405162461bcd60e51b815260206004820152601c60248201527f546f6b656e207769746820696420646f6573206e6f7420657869737400000000604482015260640161063c565b600c80549060006107a483612901565b91905055506107b28161114c565b6000818152600e6020526040812054600d80549192916107d490600190612918565b815481106107e4576107e461292b565b9060005260206000200154905080600d83815481106108055761080561292b565b6000918252602080832090910192909255828152600e90915260409020829055600d80548061083657610836612941565b60019003818190600052602060002001600090559055600061086d846000908152600260205260409020546001600160a01b031690565b6001600160a01b03166000908152600f602052604081205550505050565b61089533826111eb565b6108b15760405162461bcd60e51b815260040161063c90612957565b6106dd600080fd5b60006108c361126a565b905090565b60006108d2610db8565b65ffffffffffff16821061091f5760405162461bcd60e51b81526020600482015260146024820152730566f7465733a20667574757265206c6f6f6b75760641b604482015260640161063c565b61094961092b83611395565b6001600160a01b0385166000908152600960205260409020906113fe565b6001600160e01b03169392505050565b6106dd83838360405180602001604052806000815250610dfe565b60604361097f610db8565b65ffffffffffff16146109d45760405162461bcd60e51b815260206004820152601860248201527f566f7465733a2062726f6b656e20636c6f636b206d6f64650000000000000000604482015260640161063c565b5060408051808201909152601d81527f6d6f64653d626c6f636b6e756d6265722666726f6d3d64656661756c74000000602082015290565b33610a1781836114b3565b5050565b6000818152600260205260408120546001600160a01b0316806105095760405162461bcd60e51b8152602060048201526018602482015277115490cdcc8c4e881a5b9d985b1a59081d1bdad95b88125160421b604482015260640161063c565b6010546001600160a01b031615610ac65760405162461bcd60e51b815260206004820152600f60248201526e111053c8185b1c9958591e481cd95d608a1b604482015260640161063c565b601080546001600160a01b0319166001600160a01b0392909216919091179055565b6010546001600160a01b03163314610b365760405162461bcd60e51b815260206004820152601160248201527013db9b1e48111053c818d85b8818d85b1b607a1b604482015260640161063c565b610b3f81610c11565b15610b8c5760405162461bcd60e51b815260206004820152601b60248201527f4164647265737320697320616c72656164792061206d656d6265720000000000604482015260640161063c565b600c8054906000610b9c836129a4565b9190505550610bad81600c54611525565b600d8054600c80546000908152600e602090815260408083208590559254600185019095557fd7b6990105719101dabeb77144f2a3385c8033acd3af97e9423a695e81ad1eb59093018490556001600160a01b039094168452600f90915290912055565b60006001600160a01b038216610c7b5760405162461bcd60e51b815260206004820152602960248201527f4552433732313a2061646472657373207a65726f206973206e6f7420612076616044820152683634b21037bbb732b960b91b606482015260840161063c565b506001600160a01b031660009081526003602052604090205490565b6001600160a01b0381166000908152600b6020526040812054610509565b600060608082808083610ce97f000000000000000000000000000000000000000000000000000000000000000060066116ba565b610d147f000000000000000000000000000000000000000000000000000000000000000060076116ba565b60408051600080825260208201909252600f60f81b9b939a50919850469750309650945092509050565b6000610d48610db8565b65ffffffffffff168210610d955760405162461bcd60e51b81526020600482015260146024820152730566f7465733a20667574757265206c6f6f6b75760641b604482015260640161063c565b610da9610da183611395565b600a906113fe565b6001600160e01b031692915050565b60006108c34361175e565b60606001805461051e906128b7565b6001600160a01b0381166000908152600960205260408120610da9906117c5565b610a173383836117ff565b610e0833836111eb565b610e245760405162461bcd60e51b815260040161063c90612957565b610e30848484846118cd565b50505050565b83421115610e865760405162461bcd60e51b815260206004820152601860248201527f566f7465733a207369676e617475726520657870697265640000000000000000604482015260640161063c565b604080517fe48329057bfd03d55e49b547132e39cffd9c1820ad7b9d4c5307691425d15adf60208201526001600160a01b038816918101919091526060810186905260808101859052600090610f0090610ef89060a001604051602081830303815290604052805190602001206118fd565b85858561192a565b9050610f0b81611952565b8614610f505760405162461bcd60e51b8152602060048201526014602482015273566f7465733a20696e76616c6964206e6f6e636560601b604482015260640161063c565b610f5a81886114b3565b50505050505050565b6060610f6e8261107c565b6000610f8560408051602081019091526000815290565b90506000815111610fa55760405180602001604052806000815250610fd0565b80610faf8461197a565b604051602001610fc09291906129bd565b6040516020818303038152906040525b9392505050565b600d8181548110610fe757600080fd5b600091825260209091200154905081565b60006020835110156110145761100d83611a0d565b9050610509565b8161101f8482612a3a565b5060ff9050610509565b90565b60006001600160e01b031982166380ac58cd60e01b148061105d57506001600160e01b03198216635b5e139f60e01b145b8061050957506301ffc9a760e01b6001600160e01b0319831614610509565b6000818152600260205260409020546001600160a01b03166110db5760405162461bcd60e51b8152602060048201526018602482015277115490cdcc8c4e881a5b9d985b1a59081d1bdad95b88125160421b604482015260640161063c565b50565b600081815260046020526040902080546001600160a01b0319166001600160a01b038416908117909155819061111382610a1b565b6001600160a01b03167f8c5be1e5ebec7d5bd14f71427d1e84f3dd0314c0f7b2291e5b200ac8c7c3b92560405160405180910390a45050565b600061115782610a1b565b905061116282610a1b565b600083815260046020908152604080832080546001600160a01b03199081169091556001600160a01b0385168085526003845282852080546000190190558785526002909352818420805490911690555192935084927fddf252ad1be2c89b69c2b068fc378daa952ba7f163c4a11628f55a4df523b3ef908390a4610a17816000846001611a4b565b6000806111f783610a1b565b9050806001600160a01b0316846001600160a01b0316148061123e57506001600160a01b0380821660009081526005602090815260408083209388168352929052205460ff165b806112625750836001600160a01b0316611257846105a1565b6001600160a01b0316145b949350505050565b6000306001600160a01b037f0000000000000000000000000000000000000000000000000000000000000000161480156112c357507f000000000000000000000000000000000000000000000000000000000000000046145b156112ed57507f000000000000000000000000000000000000000000000000000000000000000090565b6108c3604080517f8b73c3c69bb8fe3d512ecc4cf759cc79239f7b179b0ffacaa9a75d522b39400f60208201527f0000000000000000000000000000000000000000000000000000000000000000918101919091527f000000000000000000000000000000000000000000000000000000000000000060608201524660808201523060a082015260009060c00160405160208183030381529060405280519060200120905090565b600063ffffffff8211156113fa5760405162461bcd60e51b815260206004820152602660248201527f53616665436173743a2076616c756520646f65736e27742066697420696e203360448201526532206269747360d01b606482015260840161063c565b5090565b81546000908181600581111561145b57600061141984611a5b565b6114239085612918565b60008881526020902090915081015463ffffffff908116908716101561144b57809150611459565b611456816001612afa565b92505b505b600061146987878585611b43565b905080156114a55761148e87611480600184612918565b600091825260209091200190565b5464010000000090046001600160e01b03166114a8565b60005b979650505050505050565b6001600160a01b0382811660008181526008602052604080822080548686166001600160a01b0319821681179092559151919094169392849290917f3134e8a2e6d97e929a7e54011ea5485d7d196dd5f0ba4d4ef95803e8e3fc257f9190a46106dd818361152086611ba1565b611bac565b6001600160a01b03821661157b5760405162461bcd60e51b815260206004820181905260248201527f4552433732313a206d696e7420746f20746865207a65726f2061646472657373604482015260640161063c565b6000818152600260205260409020546001600160a01b0316156115e05760405162461bcd60e51b815260206004820152601c60248201527f4552433732313a20746f6b656e20616c7265616479206d696e74656400000000604482015260640161063c565b6000818152600260205260409020546001600160a01b0316156116455760405162461bcd60e51b815260206004820152601c60248201527f4552433732313a20746f6b656e20616c7265616479206d696e74656400000000604482015260640161063c565b6001600160a01b038216600081815260036020908152604080832080546001019055848352600290915280822080546001600160a01b0319168417905551839291907fddf252ad1be2c89b69c2b068fc378daa952ba7f163c4a11628f55a4df523b3ef908290a4610a17600083836001611a4b565b606060ff83146116cd5761100d83611d18565b8180546116d9906128b7565b80601f0160208091040260200160405190810160405280929190818152602001828054611705906128b7565b80156117525780601f1061172757610100808354040283529160200191611752565b820191906000526020600020905b81548152906001019060200180831161173557829003601f168201915b50505050509050610509565b600065ffffffffffff8211156113fa5760405162461bcd60e51b815260206004820152602660248201527f53616665436173743a2076616c756520646f65736e27742066697420696e203460448201526538206269747360d01b606482015260840161063c565b805460009080156117f6576117df83611480600184612918565b5464010000000090046001600160e01b0316610fd0565b60009392505050565b816001600160a01b0316836001600160a01b0316036118605760405162461bcd60e51b815260206004820152601960248201527f4552433732313a20617070726f766520746f2063616c6c657200000000000000604482015260640161063c565b6001600160a01b03838116600081815260056020908152604080832094871680845294825291829020805460ff191686151590811790915591519182527f17307eab39ab6107e8899845ad3d59bd9653f200f220920489ca2b5937696c31910160405180910390a3505050565b6118d5600080fd5b6118e184848484611d57565b610e305760405162461bcd60e51b815260040161063c90612b0d565b600061050961190a61126a565b8360405161190160f01b8152600281019290925260228201526042902090565b600080600061193b87878787611e55565b9150915061194881611f19565b5095945050505050565b6001600160a01b0381166000908152600b602052604090208054600181018255905b50919050565b6060600061198783612063565b600101905060008167ffffffffffffffff8111156119a7576119a7612732565b6040519080825280601f01601f1916602001820160405280156119d1576020820181803683370190505b5090508181016020015b600019016f181899199a1a9b1b9c1cb0b131b232b360811b600a86061a8153600a85049450846119db57509392505050565b600080829050601f81511115611a38578260405163305a27a960e01b815260040161063c9190612597565b8051611a4382612b75565b179392505050565b611a5684848361213b565b610e30565b600081600003611a6d57506000919050565b60006001611a7a846121b1565b901c6001901b90506001818481611a9357611a93612b5f565b048201901c90506001818481611aab57611aab612b5f565b048201901c90506001818481611ac357611ac3612b5f565b048201901c90506001818481611adb57611adb612b5f565b048201901c90506001818481611af357611af3612b5f565b048201901c90506001818481611b0b57611b0b612b5f565b048201901c90506001818481611b2357611b23612b5f565b048201901c9050610fd081828581611b3d57611b3d612b5f565b04612245565b60005b81831015611b99576000611b5a848461225b565b60008781526020902090915063ffffffff86169082015463ffffffff161115611b8557809250611b93565b611b90816001612afa565b93505b50611b46565b509392505050565b600061050982610c11565b816001600160a01b0316836001600160a01b031614158015611bce5750600081115b156106dd576001600160a01b03831615611c76576001600160a01b03831660009081526009602052604081208190611c1190612276611c0c86612282565b6122eb565b6001600160e01b031691506001600160e01b03169150846001600160a01b03167fdec2bacdd2f05b59de34da9b523dff8be42e5e38e818c82fdb0bae774387a7248383604051611c6b929190918252602082015260400190565b60405180910390a250505b6001600160a01b038216156106dd576001600160a01b03821660009081526009602052604081208190611caf90612334611c0c86612282565b6001600160e01b031691506001600160e01b03169150836001600160a01b03167fdec2bacdd2f05b59de34da9b523dff8be42e5e38e818c82fdb0bae774387a7248383604051611d09929190918252602082015260400190565b60405180910390a25050505050565b60606000611d2583612340565b604080516020808252818301909252919250600091906020820181803683375050509182525060208101929092525090565b60006001600160a01b0384163b15611e4d57604051630a85bd0160e11b81526001600160a01b0385169063150b7a0290611d9b903390899088908890600401612b99565b6020604051808303816000875af1925050508015611dd6575060408051601f3d908101601f19168201909252611dd391810190612bd6565b60015b611e33573d808015611e04576040519150601f19603f3d011682016040523d82523d6000602084013e611e09565b606091505b508051600003611e2b5760405162461bcd60e51b815260040161063c90612b0d565b805181602001fd5b6001600160e01b031916630a85bd0160e11b149050611262565b506001611262565b6000807f7fffffffffffffffffffffffffffffff5d576e7357a4501ddfe92f46681b20a0831115611e8c5750600090506003611f10565b6040805160008082526020820180845289905260ff881692820192909252606081018690526080810185905260019060a0016020604051602081039080840390855afa158015611ee0573d6000803e3d6000fd5b5050604051601f1901519150506001600160a01b038116611f0957600060019250925050611f10565b9150600090505b94509492505050565b6000816004811115611f2d57611f2d612bf3565b03611f355750565b6001816004811115611f4957611f49612bf3565b03611f965760405162461bcd60e51b815260206004820152601860248201527f45434453413a20696e76616c6964207369676e61747572650000000000000000604482015260640161063c565b6002816004811115611faa57611faa612bf3565b03611ff75760405162461bcd60e51b815260206004820152601f60248201527f45434453413a20696e76616c6964207369676e6174757265206c656e67746800604482015260640161063c565b600381600481111561200b5761200b612bf3565b036110db5760405162461bcd60e51b815260206004820152602260248201527f45434453413a20696e76616c6964207369676e6174757265202773272076616c604482015261756560f01b606482015260840161063c565b60008072184f03e93ff9f4daa797ed6e38ed64bf6a1f0160401b83106120a25772184f03e93ff9f4daa797ed6e38ed64bf6a1f0160401b830492506040015b6d04ee2d6d415b85acef810000000083106120ce576d04ee2d6d415b85acef8100000000830492506020015b662386f26fc1000083106120ec57662386f26fc10000830492506010015b6305f5e1008310612104576305f5e100830492506008015b612710831061211857612710830492506004015b6064831061212a576064830492506002015b600a83106105095760010192915050565b6001600160a01b03831661215d5761215a600a612334611c0c84612282565b50505b6001600160a01b03821661217f5761217c600a612276611c0c84612282565b50505b6001600160a01b038381166000908152600860205260408082205485841683529120546106dd92918216911683611bac565b600080608083901c156121c657608092831c92015b604083901c156121d857604092831c92015b602083901c156121ea57602092831c92015b601083901c156121fc57601092831c92015b600883901c1561220e57600892831c92015b600483901c1561222057600492831c92015b600283901c1561223257600292831c92015b600183901c156105095760010192915050565b60008183106122545781610fd0565b5090919050565b600061226a6002848418612c09565b610fd090848416612afa565b6000610fd08284612c2b565b60006001600160e01b038211156113fa5760405162461bcd60e51b815260206004820152602760248201527f53616665436173743a2076616c756520646f65736e27742066697420696e20326044820152663234206269747360c81b606482015260840161063c565b6000806123276123096122fc610db8565b65ffffffffffff16611395565b61231f612315886117c5565b868863ffffffff16565b879190612368565b915091505b935093915050565b6000610fd08284612c52565b600060ff8216601f81111561050957604051632cd44ac360e21b815260040160405180910390fd5b6000806123278585858254600090819080156124ba57600061238f87611480600185612918565b60408051808201909152905463ffffffff8082168084526401000000009092046001600160e01b0316602084015291925090871610156124115760405162461bcd60e51b815260206004820152601b60248201527f436865636b706f696e743a2064656372656173696e67206b6579730000000000604482015260640161063c565b805163ffffffff80881691160361245a578461243288611480600186612918565b80546001600160e01b03929092166401000000000263ffffffff9092169190911790556124aa565b6040805180820190915263ffffffff80881682526001600160e01b0380881660208085019182528b54600181018d5560008d81529190912094519151909216640100000000029216919091179101555b60200151925083915061232c9050565b50506040805180820190915263ffffffff80851682526001600160e01b0380851660208085019182528854600181018a5560008a81529182209551925190931664010000000002919093161792019190915590508161232c565b6001600160e01b0319811681146110db57600080fd5b60006020828403121561253c57600080fd5b8135610fd081612514565b60005b8381101561256257818101518382015260200161254a565b50506000910152565b60008151808452612583816020860160208601612547565b601f01601f19169290920160200192915050565b602081526000610fd0602083018461256b565b6000602082840312156125bc57600080fd5b5035919050565b80356001600160a01b03811681146125da57600080fd5b919050565b600080604083850312156125f257600080fd5b6125fb836125c3565b946020939093013593505050565b60008060006060848603121561261e57600080fd5b612627846125c3565b9250612635602085016125c3565b9150604084013590509250925092565b60006020828403121561265757600080fd5b610fd0826125c3565b60ff60f81b881681526000602060e08184015261268060e084018a61256b565b8381036040850152612692818a61256b565b606085018990526001600160a01b038816608086015260a0850187905284810360c0860152855180825283870192509083019060005b818110156126e4578351835292840192918401916001016126c8565b50909c9b505050505050505050505050565b6000806040838503121561270957600080fd5b612712836125c3565b91506020830135801515811461272757600080fd5b809150509250929050565b634e487b7160e01b600052604160045260246000fd5b6000806000806080858703121561275e57600080fd5b612767856125c3565b9350612775602086016125c3565b925060408501359150606085013567ffffffffffffffff8082111561279957600080fd5b818701915087601f8301126127ad57600080fd5b8135818111156127bf576127bf612732565b604051601f8201601f19908116603f011681019083821181831017156127e7576127e7612732565b816040528281528a602084870101111561280057600080fd5b82602086016020830137600060208483010152809550505050505092959194509250565b60008060008060008060c0878903121561283d57600080fd5b612846876125c3565b95506020870135945060408701359350606087013560ff8116811461286a57600080fd5b9598949750929560808101359460a0909101359350915050565b6000806040838503121561289757600080fd5b6128a0836125c3565b91506128ae602084016125c3565b90509250929050565b600181811c908216806128cb57607f821691505b60208210810361197457634e487b7160e01b600052602260045260246000fd5b634e487b7160e01b600052601160045260246000fd5b600081612910576129106128eb565b506000190190565b81810381811115610509576105096128eb565b634e487b7160e01b600052603260045260246000fd5b634e487b7160e01b600052603160045260246000fd5b6020808252602d908201527f4552433732313a2063616c6c6572206973206e6f7420746f6b656e206f776e6560408201526c1c881bdc88185c1c1c9bdd9959609a1b606082015260800190565b6000600182016129b6576129b66128eb565b5060010190565b600083516129cf818460208801612547565b8351908301906129e3818360208801612547565b01949350505050565b601f8211156106dd57600081815260208120601f850160051c81016020861015612a135750805b601f850160051c820191505b81811015612a3257828155600101612a1f565b505050505050565b815167ffffffffffffffff811115612a5457612a54612732565b612a6881612a6284546128b7565b846129ec565b602080601f831160018114612a9d5760008415612a855750858301515b600019600386901b1c1916600185901b178555612a32565b600085815260208120601f198616915b82811015612acc57888601518255948401946001909101908401612aad565b5085821015612aea5787850151600019600388901b60f8161c191681555b5050505050600190811b01905550565b80820180821115610509576105096128eb565b60208082526032908201527f4552433732313a207472616e7366657220746f206e6f6e20455243373231526560408201527131b2b4bb32b91034b6b83632b6b2b73a32b960711b606082015260800190565b634e487b7160e01b600052601260045260246000fd5b805160208083015191908110156119745760001960209190910360031b1b16919050565b6001600160a01b0385811682528416602082015260408101839052608060608201819052600090612bcc9083018461256b565b9695505050505050565b600060208284031215612be857600080fd5b8151610fd081612514565b634e487b7160e01b600052602160045260246000fd5b600082612c2657634e487b7160e01b600052601260045260246000fd5b500490565b6001600160e01b03828116828216039080821115612c4b57612c4b6128eb565b5092915050565b6001600160e01b03818116838216019080821115612c4b57612c4b6128eb56fea2646970667358221220cfc0c15aff16270546c77f59bf41ae6eb73ebc3eb9a3e7fd96ae5918e405c65b64736f6c6343000812003360806040523480156200001157600080fd5b506040516200247338038062002473833981016040819052620000349162000127565b81818181600062000046838262000220565b50600162000055828262000220565b50505050505050620002ec565b634e487b7160e01b600052604160045260246000fd5b600082601f8301126200008a57600080fd5b81516001600160401b0380821115620000a757620000a762000062565b604051601f8301601f19908116603f01168101908282118183101715620000d257620000d262000062565b81604052838152602092508683858801011115620000ef57600080fd5b600091505b83821015620001135785820183015181830184015290820190620000f4565b600093810190920192909252949350505050565b600080604083850312156200013b57600080fd5b82516001600160401b03808211156200015357600080fd5b620001618683870162000078565b935060208501519150808211156200017857600080fd5b50620001878582860162000078565b9150509250929050565b600181811c90821680620001a657607f821691505b602082108103620001c757634e487b7160e01b600052602260045260246000fd5b50919050565b601f8211156200021b57600081815260208120601f850160051c81016020861015620001f65750805b601f850160051c820191505b81811015620002175782815560010162000202565b5050505b505050565b81516001600160401b038111156200023c576200023c62000062565b62000254816200024d845462000191565b84620001cd565b602080601f8311600181146200028c5760008415620002735750858301515b600019600386901b1c1916600185901b17855562000217565b600085815260208120601f198616915b82811015620002bd578886015182559484019460019091019084016200029c565b5085821015620002dc5787850151600019600388901b60f8161c191681555b5050505050600190811b01905550565b61217780620002fc6000396000f3fe608060405234801561001057600080fd5b50600436106101375760003560e01c80636637b882116100b8578063a22cb4651161007c578063a22cb4651461028b578063a32e69471461029e578063b88d4fde146102cc578063c87b56dd146102df578063e985e9c5146102f2578063fcf3a4c21461030557600080fd5b80636637b882146102465780636a6278421461025957806370a082311461026757806395d89b411461027a5780639f181b5e1461028257600080fd5b80634162169f116100ff5780634162169f146101cc57806342842e0e146101df57806348127268146101f257806360316801146102135780636352211e1461023357600080fd5b806301ffc9a71461013c57806306fdde0314610164578063081812fc14610179578063095ea7b3146101a457806323b872dd146101b9575b600080fd5b61014f61014a366004611807565b610318565b60405190151581526020015b60405180910390f35b61016c61035e565b60405161015b9190611874565b61018c610187366004611887565b6103f0565b6040516001600160a01b03909116815260200161015b565b6101b76101b23660046118bc565b610417565b005b6101b76101c73660046118e6565b610531565b60075461018c906001600160a01b031681565b6101b76101ed3660046118e6565b61055f565b610205610200366004611922565b61057a565b60405190815260200161015b565b610226610221366004611887565b610756565b60405161015b919061197c565b61018c610241366004611887565b610837565b6101b7610254366004611a06565b610897565b6101b7610137366004611a06565b610205610275366004611a06565b610904565b61016c61098a565b61020560065481565b6101b7610299366004611a21565b610999565b61014f6102ac366004611a5d565b600a60209081526000928352604080842090915290825290205460ff1681565b6101b76102da366004611af8565b6109a8565b61016c6102ed366004611887565b6109e0565b61014f610300366004611ba3565b610b34565b6101b7610313366004611887565b610b62565b60006001600160e01b031982166380ac58cd60e01b148061034957506001600160e01b03198216635b5e139f60e01b145b80610358575061035882610d24565b92915050565b60606000805461036d90611bcd565b80601f016020809104026020016040519081016040528092919081815260200182805461039990611bcd565b80156103e65780601f106103bb576101008083540402835291602001916103e6565b820191906000526020600020905b8154815290600101906020018083116103c957829003601f168201915b5050505050905090565b60006103fb82610d74565b506000908152600460205260409020546001600160a01b031690565b600061042282610837565b9050806001600160a01b0316836001600160a01b0316036104945760405162461bcd60e51b815260206004820152602160248201527f4552433732313a20617070726f76616c20746f2063757272656e74206f776e656044820152603960f91b60648201526084015b60405180910390fd5b336001600160a01b03821614806104b057506104b08133610b34565b6105225760405162461bcd60e51b815260206004820152603d60248201527f4552433732313a20617070726f76652063616c6c6572206973206e6f7420746f60448201527f6b656e206f776e6572206f7220617070726f76656420666f7220616c6c000000606482015260840161048b565b61052c8383610dc7565b505050565b61053b3382610e35565b6105575760405162461bcd60e51b815260040161048b90611c07565b61052c600080fd5b61052c838383604051806020016040528060008152506109a8565b600061058585610904565b156105d25760405162461bcd60e51b815260206004820152601b60248201527f4164647265737320697320616c72656164792061206d656d6265720000000000604482015260640161048b565b600680549060006105e283611c6a565b9091555042905060006105f786868685610e93565b6040805160e0810182526007546001600160a01b0390811682528a166020820152919250600091908101828152602001888152602001876001600160a01b0316815260200186815260200184815250905061065488600654610f9c565b61066060065483611109565b600654600090815260096020908152604091829020835181546001600160a01b039182166001600160a01b031991821617835592850151600180840180549290931694821685178355948601518695939490936001600160a81b03199092161790600160a01b9084908111156106d8576106d8611966565b02179055506060820151600282015560808201516003820180546001600160a01b0319166001600160a01b0392831617905560a0830151600483015560c0909201516005909101556000888152600a60209081526040808320938c16835292905220805460ff1916600117905550506006549150505b949350505050565b6040805160e081018252600080825260208201819052918101829052606081018290526080810182905260a0810182905260c0810191909152600082815260096020908152604091829020825160e08101845281546001600160a01b039081168252600180840154918216948301949094529093919291840191600160a01b90910460ff16908111156107eb576107eb611966565b60018111156107fc576107fc611966565b81526002820154602082015260038201546001600160a01b031660408201526004820154606082015260059091015460809091015292915050565b6000818152600260205260408120546001600160a01b0316806103585760405162461bcd60e51b8152602060048201526018602482015277115490cdcc8c4e881a5b9d985b1a59081d1bdad95b88125160421b604482015260640161048b565b6007546001600160a01b0316156108e25760405162461bcd60e51b815260206004820152600f60248201526e111053c8185b1c9958591e481cd95d608a1b604482015260640161048b565b600780546001600160a01b0319166001600160a01b0392909216919091179055565b60006001600160a01b03821661096e5760405162461bcd60e51b815260206004820152602960248201527f4552433732313a2061646472657373207a65726f206973206e6f7420612076616044820152683634b21037bbb732b960b91b606482015260840161048b565b506001600160a01b031660009081526003602052604090205490565b60606001805461036d90611bcd565b6109a4338383611176565b5050565b6109b23383610e35565b6109ce5760405162461bcd60e51b815260040161048b90611c07565b6109da84848484611244565b50505050565b60606109eb82611274565b610a375760405162461bcd60e51b815260206004820152601d60248201527f546f6b656e20686173206e6f74206265656e206d696e74656420796574000000604482015260640161048b565b60008281526008602052604081208054610a5090611bcd565b80601f0160208091040260200160405190810160405280929190818152602001828054610a7c90611bcd565b8015610ac95780601f10610a9e57610100808354040283529160200191610ac9565b820191906000526020600020905b815481529060010190602001808311610aac57829003601f168201915b505050505090506000610ae760408051602081019091526000815290565b90508051600003610af9575092915050565b815115610b2b578082604051602001610b13929190611c9f565b60405160208183030381529060405292505050919050565b61074e84611291565b6001600160a01b03918216600090815260056020908152604080832093909416825291909152205460ff1690565b6007546001600160a01b03163314610bb05760405162461bcd60e51b815260206004820152601160248201527013db9b1e48111053c818d85b8818d85b1b607a1b604482015260640161048b565b6000818152600960209081526040808320815160e08101835281546001600160a01b0390811682526001808401549182169583019590955290939192840191600160a01b90910460ff1690811115610c0a57610c0a611966565b6001811115610c1b57610c1b611966565b81526002820154602082015260038201546001600160a01b031660408083019190915260048301546060830152600590920154608090910152909150600190820181905250600082815260096020908152604091829020835181546001600160a01b039182166001600160a01b031991821617835592850151600180840180549290931694821685178355948601518695939490936001600160a81b03199092161790600160a01b908490811115610cd557610cd5611966565b02179055506060820151600282015560808201516003820180546001600160a01b0319166001600160a01b0390921691909117905560a0820151600482015560c0909101516005909101555050565b60006001600160e01b031982166380ac58cd60e01b1480610d5557506001600160e01b03198216635b5e139f60e01b145b8061035857506301ffc9a760e01b6001600160e01b0319831614610358565b610d7d81611274565b610dc45760405162461bcd60e51b8152602060048201526018602482015277115490cdcc8c4e881a5b9d985b1a59081d1bdad95b88125160421b604482015260640161048b565b50565b600081815260046020526040902080546001600160a01b0319166001600160a01b0384169081179091558190610dfc82610837565b6001600160a01b03167f8c5be1e5ebec7d5bd14f71427d1e84f3dd0314c0f7b2291e5b200ac8c7c3b92560405160405180910390a45050565b600080610e4183610837565b9050806001600160a01b0316846001600160a01b03161480610e685750610e688185610b34565b8061074e5750836001600160a01b0316610e81846103f0565b6001600160a01b031614949350505050565b606073__$44e65ce1626a4fb10403dde4233e47d3e6$__6312496a1b610eba3360146112f1565b600754610ed1906001600160a01b031660146112f1565b610eda89611494565b610eec896001600160a01b0316611494565b8888604051602001610f0396959493929190611cce565b6040516020818303038152906040526040518263ffffffff1660e01b8152600401610f2e9190611874565b600060405180830381865af4158015610f4b573d6000803e3d6000fd5b505050506040513d6000823e601f3d908101601f19168201604052610f739190810190611e74565b604051602001610f839190611eeb565b6040516020818303038152906040529050949350505050565b6001600160a01b038216610ff25760405162461bcd60e51b815260206004820181905260248201527f4552433732313a206d696e7420746f20746865207a65726f2061646472657373604482015260640161048b565b610ffb81611274565b156110485760405162461bcd60e51b815260206004820152601c60248201527f4552433732313a20746f6b656e20616c7265616479206d696e74656400000000604482015260640161048b565b61105181611274565b1561109e5760405162461bcd60e51b815260206004820152601c60248201527f4552433732313a20746f6b656e20616c7265616479206d696e74656400000000604482015260640161048b565b6001600160a01b038216600081815260036020908152604080832080546001019055848352600290915280822080546001600160a01b0319168417905551839291907fddf252ad1be2c89b69c2b068fc378daa952ba7f163c4a11628f55a4df523b3ef908290a45050565b61111282611274565b61115e5760405162461bcd60e51b815260206004820152601c60248201527f55524920736574206f66206e6f6e6578697374656e7420746f6b656e00000000604482015260640161048b565b600082815260086020526040902061052c8282611f7e565b816001600160a01b0316836001600160a01b0316036111d75760405162461bcd60e51b815260206004820152601960248201527f4552433732313a20617070726f766520746f2063616c6c657200000000000000604482015260640161048b565b6001600160a01b03838116600081815260056020908152604080832094871680845294825291829020805460ff191686151590811790915591519182527f17307eab39ab6107e8899845ad3d59bd9653f200f220920489ca2b5937696c31910160405180910390a3505050565b61124c600080fd5b611258848484846114ab565b6109da5760405162461bcd60e51b815260040161048b9061203e565b6000908152600260205260409020546001600160a01b0316151590565b606061129c82611274565b6112e85760405162461bcd60e51b815260206004820152601d60248201527f546f6b656e20686173206e6f74206265656e206d696e74656420796574000000604482015260640161048b565b610358826115a9565b60606000611300836002612090565b61130b9060026120a7565b67ffffffffffffffff81111561132357611323611a89565b6040519080825280601f01601f19166020018201604052801561134d576020820181803683370190505b509050600360fc1b81600081518110611368576113686120ba565b60200101906001600160f81b031916908160001a905350600f60fb1b81600181518110611397576113976120ba565b60200101906001600160f81b031916908160001a90535060006113bb846002612090565b6113c69060016120a7565b90505b600181111561143e576f181899199a1a9b1b9c1cb0b131b232b360811b85600f16601081106113fa576113fa6120ba565b1a60f81b828281518110611410576114106120ba565b60200101906001600160f81b031916908160001a90535060049490941c93611437816120d0565b90506113c9565b50831561148d5760405162461bcd60e51b815260206004820181905260248201527f537472696e67733a20686578206c656e67746820696e73756666696369656e74604482015260640161048b565b9392505050565b6060610358826114a38461161c565b6001016112f1565b60006001600160a01b0384163b156115a157604051630a85bd0160e11b81526001600160a01b0385169063150b7a02906114ef9033908990889088906004016120e7565b6020604051808303816000875af192505050801561152a575060408051601f3d908101601f1916820190925261152791810190612124565b60015b611587573d808015611558576040519150601f19603f3d011682016040523d82523d6000602084013e61155d565b606091505b50805160000361157f5760405162461bcd60e51b815260040161048b9061203e565b805181602001fd5b6001600160e01b031916630a85bd0160e11b14905061074e565b50600161074e565b60606115b482610d74565b60006115cb60408051602081019091526000815290565b905060008151116115eb576040518060200160405280600081525061148d565b806115f584611686565b604051602001611606929190611c9f565b6040516020818303038152906040529392505050565b600080608083901c156116345760809290921c916010015b604083901c156116495760409290921c916008015b602083901c1561165e5760209290921c916004015b601083901c156116735760109290921c916002015b600883901c156103585760010192915050565b6060600061169383611719565b600101905060008167ffffffffffffffff8111156116b3576116b3611a89565b6040519080825280601f01601f1916602001820160405280156116dd576020820181803683370190505b5090508181016020015b600019016f181899199a1a9b1b9c1cb0b131b232b360811b600a86061a8153600a85049450846116e757509392505050565b60008072184f03e93ff9f4daa797ed6e38ed64bf6a1f0160401b83106117585772184f03e93ff9f4daa797ed6e38ed64bf6a1f0160401b830492506040015b6d04ee2d6d415b85acef81000000008310611784576d04ee2d6d415b85acef8100000000830492506020015b662386f26fc1000083106117a257662386f26fc10000830492506010015b6305f5e10083106117ba576305f5e100830492506008015b61271083106117ce57612710830492506004015b606483106117e0576064830492506002015b600a83106103585760010192915050565b6001600160e01b031981168114610dc457600080fd5b60006020828403121561181957600080fd5b813561148d816117f1565b60005b8381101561183f578181015183820152602001611827565b50506000910152565b60008151808452611860816020860160208601611824565b601f01601f19169290920160200192915050565b60208152600061148d6020830184611848565b60006020828403121561189957600080fd5b5035919050565b80356001600160a01b03811681146118b757600080fd5b919050565b600080604083850312156118cf57600080fd5b6118d8836118a0565b946020939093013593505050565b6000806000606084860312156118fb57600080fd5b611904846118a0565b9250611912602085016118a0565b9150604084013590509250925092565b6000806000806080858703121561193857600080fd5b611941856118a0565b935060208501359250611956604086016118a0565b9396929550929360600135925050565b634e487b7160e01b600052602160045260246000fd5b81516001600160a01b03908116825260208084015190911690820152604082015160e0820190600281106119c057634e487b7160e01b600052602160045260246000fd5b806040840152506060830151606083015260808301516119eb60808401826001600160a01b03169052565b5060a083015160a083015260c083015160c083015292915050565b600060208284031215611a1857600080fd5b61148d826118a0565b60008060408385031215611a3457600080fd5b611a3d836118a0565b915060208301358015158114611a5257600080fd5b809150509250929050565b60008060408385031215611a7057600080fd5b82359150611a80602084016118a0565b90509250929050565b634e487b7160e01b600052604160045260246000fd5b604051601f8201601f1916810167ffffffffffffffff81118282101715611ac857611ac8611a89565b604052919050565b600067ffffffffffffffff821115611aea57611aea611a89565b50601f01601f191660200190565b60008060008060808587031215611b0e57600080fd5b611b17856118a0565b9350611b25602086016118a0565b925060408501359150606085013567ffffffffffffffff811115611b4857600080fd5b8501601f81018713611b5957600080fd5b8035611b6c611b6782611ad0565b611a9f565b818152886020838501011115611b8157600080fd5b8160208401602083013760006020838301015280935050505092959194509250565b60008060408385031215611bb657600080fd5b611bbf836118a0565b9150611a80602084016118a0565b600181811c90821680611be157607f821691505b602082108103611c0157634e487b7160e01b600052602260045260246000fd5b50919050565b6020808252602d908201527f4552433732313a2063616c6c6572206973206e6f7420746f6b656e206f776e6560408201526c1c881bdc88185c1c1c9bdd9959609a1b606082015260800190565b634e487b7160e01b600052601160045260246000fd5b600060018201611c7c57611c7c611c54565b5060010190565b60008151611c95818560208601611824565b9290920192915050565b60008351611cb1818460208801611824565b835190830190611cc5818360208801611824565b01949350505050565b7f7b6e616d653a2022446553636920496e766573746f7220546f6b656e222c20648152600060207f65736372697074696f6e3a20225468697320746f6b656e206174746573746174818401527f657320696e766573746d656e7420696e20612072657365617263682044414f2e60408401526f1116101134b73b32b9ba37b9111d101160811b60608401528851611d6b8160708601848d01611824565b681116102220a79d101160b91b6070918501918201528851611d938160798401858d01611824565b75111610333ab73234b733afb83937b837b9b0b61d101160511b607992909101918201528751611dc981608f8401858c01611824565b611e22611e00611dfa608f848601017511161034b73b32b9ba36b2b73a2fba37b5b2b71d101160511b815260160190565b8a611c83565b75011161034b73b32b9ba36b2b73a2fb0b6b7bab73a1d160551b815260160190565b915050858152611e4d828201720161034b73b32b9ba36b2b73a2fba34b6b29d1606d1b815260130190565b9050848152611e6682820161227d60f01b815260020190565b9a9950505050505050505050565b600060208284031215611e8657600080fd5b815167ffffffffffffffff811115611e9d57600080fd5b8201601f81018413611eae57600080fd5b8051611ebc611b6782611ad0565b818152856020838501011115611ed157600080fd5b611ee2826020830160208601611824565b95945050505050565b7f646174613a6170706c69636174696f6e2f6a736f6e3b6261736536342c000000815260008251611f2381601d850160208701611824565b91909101601d0192915050565b601f82111561052c57600081815260208120601f850160051c81016020861015611f575750805b601f850160051c820191505b81811015611f7657828155600101611f63565b505050505050565b815167ffffffffffffffff811115611f9857611f98611a89565b611fac81611fa68454611bcd565b84611f30565b602080601f831160018114611fe15760008415611fc95750858301515b600019600386901b1c1916600185901b178555611f76565b600085815260208120601f198616915b8281101561201057888601518255948401946001909101908401611ff1565b508582101561202e5787850151600019600388901b60f8161c191681555b5050505050600190811b01905550565b60208082526032908201527f4552433732313a207472616e7366657220746f206e6f6e20455243373231526560408201527131b2b4bb32b91034b6b83632b6b2b73a32b960711b606082015260800190565b808202811582820484141761035857610358611c54565b8082018082111561035857610358611c54565b634e487b7160e01b600052603260045260246000fd5b6000816120df576120df611c54565b506000190190565b6001600160a01b038581168252841660208201526040810183905260806060820181905260009061211a90830184611848565b9695505050505050565b60006020828403121561213657600080fd5b815161148d816117f156fea2646970667358221220f3bb41925ef0755faf3e31fe158c0c4165d10d114231c616b8989a7cee2292b164736f6c6343000812003360806040523480156200001157600080fd5b506040516200204838038062002048833981016040819052620000349162000127565b81818181600062000046838262000220565b50600162000055828262000220565b50505050505050620002ec565b634e487b7160e01b600052604160045260246000fd5b600082601f8301126200008a57600080fd5b81516001600160401b0380821115620000a757620000a762000062565b604051601f8301601f19908116603f01168101908282118183101715620000d257620000d262000062565b81604052838152602092508683858801011115620000ef57600080fd5b600091505b83821015620001135785820183015181830184015290820190620000f4565b600093810190920192909252949350505050565b600080604083850312156200013b57600080fd5b82516001600160401b03808211156200015357600080fd5b620001618683870162000078565b935060208501519150808211156200017857600080fd5b50620001878582860162000078565b9150509250929050565b600181811c90821680620001a657607f821691505b602082108103620001c757634e487b7160e01b600052602260045260246000fd5b50919050565b601f8211156200021b57600081815260208120601f850160051c81016020861015620001f65750805b601f850160051c820191505b81811015620002175782815560010162000202565b5050505b505050565b81516001600160401b038111156200023c576200023c62000062565b62000254816200024d845462000191565b84620001cd565b602080601f8311600181146200028c5760008415620002735750858301515b600019600386901b1c1916600185901b17855562000217565b600085815260208120601f198616915b82811015620002bd578886015182559484019460019091019084016200029c565b5085821015620002dc5787850151600019600388901b60f8161c191681555b5050505050600190811b01905550565b611d4c80620002fc6000396000f3fe608060405234801561001057600080fd5b50600436106101215760003560e01c80636637b882116100ad578063a22cb46511610071578063a22cb46514610262578063b88d4fde14610275578063c87b56dd14610288578063d0def5211461029b578063e985e9c5146102ae57600080fd5b80636637b8821461020f5780636a6278421461022257806370a082311461023057806395d89b41146102515780639f181b5e1461025957600080fd5b806323b872dd116100f457806323b872dd146101a35780634162169f146101b657806342842e0e146101c957806360316801146101dc5780636352211e146101fc57600080fd5b806301ffc9a71461012657806306fdde031461014e578063081812fc14610163578063095ea7b31461018e575b600080fd5b6101396101343660046114ea565b6102c1565b60405190151581526020015b60405180910390f35b610156610307565b6040516101459190611557565b61017661017136600461156a565b610399565b6040516001600160a01b039091168152602001610145565b6101a161019c36600461159f565b6103c0565b005b6101a16101b13660046115c9565b6104da565b600754610176906001600160a01b031681565b6101a16101d73660046115c9565b610508565b6101ef6101ea36600461156a565b610523565b6040516101459190611605565b61017661020a36600461156a565b610610565b6101a161021d366004611640565b610670565b6101a1610121366004611640565b61024361023e366004611640565b6106dd565b604051908152602001610145565b610156610763565b61024360065481565b6101a161027036600461165b565b610772565b6101a1610283366004611706565b610781565b61015661029636600461156a565b6107b9565b6102436102a93660046117b1565b610915565b6101396102bc366004611834565b610a72565b60006001600160e01b031982166380ac58cd60e01b14806102f257506001600160e01b03198216635b5e139f60e01b145b80610301575061030182610aa0565b92915050565b60606000805461031690611867565b80601f016020809104026020016040519081016040528092919081815260200182805461034290611867565b801561038f5780601f106103645761010080835404028352916020019161038f565b820191906000526020600020905b81548152906001019060200180831161037257829003601f168201915b5050505050905090565b60006103a482610af0565b506000908152600460205260409020546001600160a01b031690565b60006103cb82610610565b9050806001600160a01b0316836001600160a01b03160361043d5760405162461bcd60e51b815260206004820152602160248201527f4552433732313a20617070726f76616c20746f2063757272656e74206f776e656044820152603960f91b60648201526084015b60405180910390fd5b336001600160a01b038216148061045957506104598133610a72565b6104cb5760405162461bcd60e51b815260206004820152603d60248201527f4552433732313a20617070726f76652063616c6c6572206973206e6f7420746f60448201527f6b656e206f776e6572206f7220617070726f76656420666f7220616c6c0000006064820152608401610434565b6104d58383610b43565b505050565b6104e43382610bb1565b6105005760405162461bcd60e51b8152600401610434906118a1565b6104d5600080fd5b6104d583838360405180602001604052806000815250610781565b60408051606080820183526000808352602080840182905283850183905285825260098152908490208451928301855280546001600160a01b0390811684526001820154169183019190915260028101805493949293919284019161058790611867565b80601f01602080910402602001604051908101604052809291908181526020018280546105b390611867565b80156106005780601f106105d557610100808354040283529160200191610600565b820191906000526020600020905b8154815290600101906020018083116105e357829003601f168201915b5050505050815250509050919050565b6000818152600260205260408120546001600160a01b0316806103015760405162461bcd60e51b8152602060048201526018602482015277115490cdcc8c4e881a5b9d985b1a59081d1bdad95b88125160421b6044820152606401610434565b6007546001600160a01b0316156106bb5760405162461bcd60e51b815260206004820152600f60248201526e111053c8185b1c9958591e481cd95d608a1b6044820152606401610434565b600780546001600160a01b0319166001600160a01b0392909216919091179055565b60006001600160a01b0382166107475760405162461bcd60e51b815260206004820152602960248201527f4552433732313a2061646472657373207a65726f206973206e6f7420612076616044820152683634b21037bbb732b960b91b6064820152608401610434565b506001600160a01b031660009081526003602052604090205490565b60606001805461031690611867565b61077d338383610c0f565b5050565b61078b3383610bb1565b6107a75760405162461bcd60e51b8152600401610434906118a1565b6107b384848484610cdd565b50505050565b60606107c482610d0d565b6108105760405162461bcd60e51b815260206004820152601d60248201527f546f6b656e20686173206e6f74206265656e206d696e746564207965740000006044820152606401610434565b6000828152600860205260408120805461082990611867565b80601f016020809104026020016040519081016040528092919081815260200182805461085590611867565b80156108a25780601f10610877576101008083540402835291602001916108a2565b820191906000526020600020905b81548152906001019060200180831161088557829003601f168201915b5050505050905060006108c060408051602081019091526000815290565b905080516000036108d2575092915050565b8151156109045780826040516020016108ec9291906118ee565b60405160208183030381529060405292505050919050565b61090d84610d2a565b949350505050565b6007546000906001600160a01b031633146109665760405162461bcd60e51b815260206004820152601160248201527013db9b1e48111053c818d85b8818d85b1b607a1b6044820152606401610434565b6006805490600061097683611933565b91905055506000610988858585610d8a565b604080516060810182526007546001600160a01b03908116825288166020808301919091528251601f88018290048202810182018452878152939450600093919283019190889088908190840183828082843760009201919091525050509152506006549091506109fa908790610e7e565b610a0660065483610feb565b600654600090815260096020908152604091829020835181546001600160a01b03199081166001600160a01b0392831617835592850151600183018054909416911617909155908201518291906002820190610a62908261199a565b5050600654979650505050505050565b6001600160a01b03918216600090815260056020908152604080832093909416825291909152205460ff1690565b60006001600160e01b031982166380ac58cd60e01b1480610ad157506001600160e01b03198216635b5e139f60e01b145b8061030157506301ffc9a760e01b6001600160e01b0319831614610301565b610af981610d0d565b610b405760405162461bcd60e51b8152602060048201526018602482015277115490cdcc8c4e881a5b9d985b1a59081d1bdad95b88125160421b6044820152606401610434565b50565b600081815260046020526040902080546001600160a01b0319166001600160a01b0384169081179091558190610b7882610610565b6001600160a01b03167f8c5be1e5ebec7d5bd14f71427d1e84f3dd0314c0f7b2291e5b200ac8c7c3b92560405160405180910390a45050565b600080610bbd83610610565b9050806001600160a01b0316846001600160a01b03161480610be45750610be48185610a72565b8061090d5750836001600160a01b0316610bfd84610399565b6001600160a01b031614949350505050565b816001600160a01b0316836001600160a01b031603610c705760405162461bcd60e51b815260206004820152601960248201527f4552433732313a20617070726f766520746f2063616c6c6572000000000000006044820152606401610434565b6001600160a01b03838116600081815260056020908152604080832094871680845294825291829020805460ff191686151590811790915591519182527f17307eab39ab6107e8899845ad3d59bd9653f200f220920489ca2b5937696c31910160405180910390a3505050565b610ce5600080fd5b610cf184848484611058565b6107b35760405162461bcd60e51b815260040161043490611a5a565b6000908152600260205260409020546001600160a01b0316151590565b6060610d3582610d0d565b610d815760405162461bcd60e51b815260206004820152601d60248201527f546f6b656e20686173206e6f74206265656e206d696e746564207965740000006044820152606401610434565b61030182611159565b606073__$44e65ce1626a4fb10403dde4233e47d3e6$__6312496a1b610dba866001600160a01b031660146111cd565b600754610dd1906001600160a01b031660146111cd565b8686604051602001610de69493929190611aac565b6040516020818303038152906040526040518263ffffffff1660e01b8152600401610e119190611557565b600060405180830381865af4158015610e2e573d6000803e3d6000fd5b505050506040513d6000823e601f3d908101601f19168201604052610e569190810190611ba9565b604051602001610e669190611c20565b60405160208183030381529060405290509392505050565b6001600160a01b038216610ed45760405162461bcd60e51b815260206004820181905260248201527f4552433732313a206d696e7420746f20746865207a65726f20616464726573736044820152606401610434565b610edd81610d0d565b15610f2a5760405162461bcd60e51b815260206004820152601c60248201527f4552433732313a20746f6b656e20616c7265616479206d696e746564000000006044820152606401610434565b610f3381610d0d565b15610f805760405162461bcd60e51b815260206004820152601c60248201527f4552433732313a20746f6b656e20616c7265616479206d696e746564000000006044820152606401610434565b6001600160a01b038216600081815260036020908152604080832080546001019055848352600290915280822080546001600160a01b0319168417905551839291907fddf252ad1be2c89b69c2b068fc378daa952ba7f163c4a11628f55a4df523b3ef908290a45050565b610ff482610d0d565b6110405760405162461bcd60e51b815260206004820152601c60248201527f55524920736574206f66206e6f6e6578697374656e7420746f6b656e000000006044820152606401610434565b60008281526008602052604090206104d5828261199a565b60006001600160a01b0384163b1561114e57604051630a85bd0160e11b81526001600160a01b0385169063150b7a029061109c903390899088908890600401611c65565b6020604051808303816000875af19250505080156110d7575060408051601f3d908101601f191682019092526110d491810190611ca2565b60015b611134573d808015611105576040519150601f19603f3d011682016040523d82523d6000602084013e61110a565b606091505b50805160000361112c5760405162461bcd60e51b815260040161043490611a5a565b805181602001fd5b6001600160e01b031916630a85bd0160e11b14905061090d565b506001949350505050565b606061116482610af0565b600061117b60408051602081019091526000815290565b9050600081511161119b57604051806020016040528060008152506111c6565b806111a584611369565b6040516020016111b69291906118ee565b6040516020818303038152906040525b9392505050565b606060006111dc836002611cbf565b6111e7906002611cd6565b67ffffffffffffffff8111156111ff576111ff611697565b6040519080825280601f01601f191660200182016040528015611229576020820181803683370190505b509050600360fc1b8160008151811061124457611244611ce9565b60200101906001600160f81b031916908160001a905350600f60fb1b8160018151811061127357611273611ce9565b60200101906001600160f81b031916908160001a9053506000611297846002611cbf565b6112a2906001611cd6565b90505b600181111561131a576f181899199a1a9b1b9c1cb0b131b232b360811b85600f16601081106112d6576112d6611ce9565b1a60f81b8282815181106112ec576112ec611ce9565b60200101906001600160f81b031916908160001a90535060049490941c9361131381611cff565b90506112a5565b5083156111c65760405162461bcd60e51b815260206004820181905260248201527f537472696e67733a20686578206c656e67746820696e73756666696369656e746044820152606401610434565b60606000611376836113fc565b600101905060008167ffffffffffffffff81111561139657611396611697565b6040519080825280601f01601f1916602001820160405280156113c0576020820181803683370190505b5090508181016020015b600019016f181899199a1a9b1b9c1cb0b131b232b360811b600a86061a8153600a85049450846113ca57509392505050565b60008072184f03e93ff9f4daa797ed6e38ed64bf6a1f0160401b831061143b5772184f03e93ff9f4daa797ed6e38ed64bf6a1f0160401b830492506040015b6d04ee2d6d415b85acef81000000008310611467576d04ee2d6d415b85acef8100000000830492506020015b662386f26fc10000831061148557662386f26fc10000830492506010015b6305f5e100831061149d576305f5e100830492506008015b61271083106114b157612710830492506004015b606483106114c3576064830492506002015b600a83106103015760010192915050565b6001600160e01b031981168114610b4057600080fd5b6000602082840312156114fc57600080fd5b81356111c6816114d4565b60005b8381101561152257818101518382015260200161150a565b50506000910152565b60008151808452611543816020860160208601611507565b601f01601f19169290920160200192915050565b6020815260006111c6602083018461152b565b60006020828403121561157c57600080fd5b5035919050565b80356001600160a01b038116811461159a57600080fd5b919050565b600080604083850312156115b257600080fd5b6115bb83611583565b946020939093013593505050565b6000806000606084860312156115de57600080fd5b6115e784611583565b92506115f560208501611583565b9150604084013590509250925092565b60208152600060018060a01b0380845116602084015280602085015116604084015250604083015160608084015261090d608084018261152b565b60006020828403121561165257600080fd5b6111c682611583565b6000806040838503121561166e57600080fd5b61167783611583565b91506020830135801515811461168c57600080fd5b809150509250929050565b634e487b7160e01b600052604160045260246000fd5b604051601f8201601f1916810167ffffffffffffffff811182821017156116d6576116d6611697565b604052919050565b600067ffffffffffffffff8211156116f8576116f8611697565b50601f01601f191660200190565b6000806000806080858703121561171c57600080fd5b61172585611583565b935061173360208601611583565b925060408501359150606085013567ffffffffffffffff81111561175657600080fd5b8501601f8101871361176757600080fd5b803561177a611775826116de565b6116ad565b81815288602083850101111561178f57600080fd5b8160208401602083013760006020838301015280935050505092959194509250565b6000806000604084860312156117c657600080fd5b6117cf84611583565b9250602084013567ffffffffffffffff808211156117ec57600080fd5b818601915086601f83011261180057600080fd5b81358181111561180f57600080fd5b87602082850101111561182157600080fd5b6020830194508093505050509250925092565b6000806040838503121561184757600080fd5b61185083611583565b915061185e60208401611583565b90509250929050565b600181811c9082168061187b57607f821691505b60208210810361189b57634e487b7160e01b600052602260045260246000fd5b50919050565b6020808252602d908201527f4552433732313a2063616c6c6572206973206e6f7420746f6b656e206f776e6560408201526c1c881bdc88185c1c1c9bdd9959609a1b606082015260800190565b60008351611900818460208801611507565b835190830190611914818360208801611507565b01949350505050565b634e487b7160e01b600052601160045260246000fd5b6000600182016119455761194561191d565b5060010190565b601f8211156104d557600081815260208120601f850160051c810160208610156119735750805b601f850160051c820191505b818110156119925782815560010161197f565b505050505050565b815167ffffffffffffffff8111156119b4576119b4611697565b6119c8816119c28454611867565b8461194c565b602080601f8311600181146119fd57600084156119e55750858301515b600019600386901b1c1916600185901b178555611992565b600085815260208120601f198616915b82811015611a2c57888601518255948401946001909101908401611a0d565b5085821015611a4a5787850151600019600388901b60f8161c191681555b5050505050600190811b01905550565b60208082526032908201527f4552433732313a207472616e7366657220746f206e6f6e20455243373231526560408201527131b2b4bb32b91034b6b83632b6b2b73a32b960711b606082015260800190565b7f7b6e616d653a202244655363692041636365737320546f6b656e222c2064657381527f6372697074696f6e3a20225468697320746f6b656e206772616e74732061636360208201527f65737320746f20736369656e74696669632072657365617263682e222c20226f6040820152673bb732b9111d101160c11b606082015260008551611b41816068850160208a01611507565b681116102220a79d101160b91b6068918401918201528551611b6a816071840160208a01611507565b6d1116103230ba30afb1b4b21d101160911b607192909101918201528385607f83013761227d60f01b9301607f81019390935250506081019392505050565b600060208284031215611bbb57600080fd5b815167ffffffffffffffff811115611bd257600080fd5b8201601f81018413611be357600080fd5b8051611bf1611775826116de565b818152856020838501011115611c0657600080fd5b611c17826020830160208601611507565b95945050505050565b7f646174613a6170706c69636174696f6e2f6a736f6e3b6261736536342c000000815260008251611c5881601d850160208701611507565b91909101601d0192915050565b6001600160a01b0385811682528416602082015260408101839052608060608201819052600090611c989083018461152b565b9695505050505050565b600060208284031215611cb457600080fd5b81516111c6816114d4565b80820281158282048414176103015761030161191d565b808201808211156103015761030161191d565b634e487b7160e01b600052603260045260246000fd5b600081611d0e57611d0e61191d565b50600019019056fea2646970667358221220483c7bcf3e5cb381e83ae97c47f47716c4c78db2f8e287a28063c4ea6439a04f64736f6c63430008120033a26469706673582212209ed271ce2046eb20c9ca61cd305f592e7040a6b66c6241ec493451047a2645b564736f6c63430008120033",
			"opcodes": "PUSH1 0x80 PUSH1 0x40 MSTORE CALLVALUE DUP1 ISZERO PUSH2 0x10 JUMPI PUSH1 0x0 DUP1 REVERT JUMPDEST POP PUSH2 0xB2B4 DUP1 PUSH3 0x21 PUSH1 0x0 CODECOPY PUSH1 0x0 RETURN INVALID PUSH1 0x80 PUSH1 0x40 MSTORE PUSH1 0x4 CALLDATASIZE LT PUSH3 0x187 JUMPI PUSH1 0x0 CALLDATALOAD PUSH1 0xE0 SHR DUP1 PUSH4 0x62AD351B GT PUSH3 0xE2 JUMPI DUP1 PUSH4 0xAB033EA9 GT PUSH3 0x95 JUMPI DUP1 PUSH4 0xDAA58555 GT PUSH3 0x6C JUMPI DUP1 PUSH4 0xDAA58555 EQ PUSH3 0x540 JUMPI DUP1 PUSH4 0xE243C5FB EQ PUSH3 0x565 JUMPI DUP1 PUSH4 0xEF2D6F6F EQ PUSH3 0x587 JUMPI DUP1 PUSH4 0xF63AA288 EQ PUSH3 0x5AC JUMPI PUSH1 0x0 DUP1 REVERT JUMPDEST DUP1 PUSH4 0xAB033EA9 EQ PUSH3 0x4D4 JUMPI DUP1 PUSH4 0xB266EE32 EQ PUSH3 0x4F9 JUMPI DUP1 PUSH4 0xCE3EC0FB EQ PUSH3 0x51B JUMPI PUSH1 0x0 DUP1 REVERT JUMPDEST DUP1 PUSH4 0x62AD351B EQ PUSH3 0x406 JUMPI DUP1 PUSH4 0x6DA9FC85 EQ PUSH3 0x428 JUMPI DUP1 PUSH4 0x7C7FDA3B EQ PUSH3 0x44D JUMPI DUP1 PUSH4 0x8A1CE621 EQ PUSH3 0x472 JUMPI DUP1 PUSH4 0xA1766162 EQ PUSH3 0x497 JUMPI DUP1 PUSH4 0xA4B261CD EQ PUSH3 0x4BC JUMPI PUSH1 0x0 DUP1 REVERT JUMPDEST DUP1 PUSH4 0x22E6101B GT PUSH3 0x13B JUMPI DUP1 PUSH4 0x22E6101B EQ PUSH3 0x30D JUMPI DUP1 PUSH4 0x264E1B0A EQ PUSH3 0x334 JUMPI DUP1 PUSH4 0x4CD2C09A EQ PUSH3 0x359 JUMPI DUP1 PUSH4 0x4D8DD443 EQ PUSH3 0x37E JUMPI DUP1 PUSH4 0x5AA6E675 EQ PUSH3 0x3A3 JUMPI DUP1 PUSH4 0x61808AE0 EQ PUSH3 0x3E4 JUMPI PUSH1 0x0 DUP1 REVERT JUMPDEST DUP1 PUSH3 0xF714CE EQ PUSH3 0x22B JUMPI DUP1 PUSH4 0x10C88E74 EQ PUSH3 0x250 JUMPI DUP1 PUSH4 0x13C6AF39 EQ PUSH3 0x267 JUMPI DUP1 PUSH4 0x1BC3A01C EQ PUSH3 0x28C JUMPI DUP1 PUSH4 0x1C4D7223 EQ PUSH3 0x2C3 JUMPI DUP1 PUSH4 0x22564D24 EQ PUSH3 0x2E8 JUMPI PUSH1 0x0 DUP1 REVERT JUMPDEST CALLDATASIZE PUSH3 0x226 JUMPI PUSH1 0x6 SLOAD PUSH1 0x40 MLOAD PUSH4 0x935E01B PUSH1 0xE2 SHL DUP2 MSTORE CALLER PUSH1 0x4 DUP3 ADD MSTORE PUSH1 0x1 PUSH1 0x1 PUSH1 0xA0 SHL SUB SWAP1 SWAP2 AND SWAP1 PUSH4 0x24D7806C SWAP1 PUSH1 0x24 ADD PUSH1 0x20 PUSH1 0x40 MLOAD DUP1 DUP4 SUB DUP2 DUP7 GAS STATICCALL ISZERO DUP1 ISZERO PUSH3 0x1D6 JUMPI RETURNDATASIZE PUSH1 0x0 DUP1 RETURNDATACOPY RETURNDATASIZE PUSH1 0x0 REVERT JUMPDEST POP POP POP POP PUSH1 0x40 MLOAD RETURNDATASIZE PUSH1 0x1F NOT PUSH1 0x1F DUP3 ADD AND DUP3 ADD DUP1 PUSH1 0x40 MSTORE POP DUP2 ADD SWAP1 PUSH3 0x1FC SWAP2 SWAP1 PUSH3 0x2B71 JUMP JUMPDEST PUSH3 0x224 JUMPI PUSH1 0x40 MLOAD PUSH3 0x461BCD PUSH1 0xE5 SHL DUP2 MSTORE PUSH1 0x4 ADD PUSH3 0x21B SWAP1 PUSH3 0x2B96 JUMP JUMPDEST PUSH1 0x40 MLOAD DUP1 SWAP2 SUB SWAP1 REVERT JUMPDEST STOP JUMPDEST PUSH1 0x0 DUP1 REVERT JUMPDEST CALLVALUE DUP1 ISZERO PUSH3 0x238 JUMPI PUSH1 0x0 DUP1 REVERT JUMPDEST POP PUSH3 0x224 PUSH3 0x24A CALLDATASIZE PUSH1 0x4 PUSH3 0x2BDC JUMP JUMPDEST PUSH3 0x5D1 JUMP JUMPDEST PUSH3 0x224 PUSH3 0x261 CALLDATASIZE PUSH1 0x4 PUSH3 0x2C0F JUMP JUMPDEST PUSH3 0x787 JUMP JUMPDEST CALLVALUE DUP1 ISZERO PUSH3 0x274 JUMPI PUSH1 0x0 DUP1 REVERT JUMPDEST POP PUSH3 0x224 PUSH3 0x286 CALLDATASIZE PUSH1 0x4 PUSH3 0x2C29 JUMP JUMPDEST PUSH3 0xAE3 JUMP JUMPDEST CALLVALUE DUP1 ISZERO PUSH3 0x299 JUMPI PUSH1 0x0 DUP1 REVERT JUMPDEST POP PUSH1 0x4 SLOAD PUSH1 0x5 SLOAD PUSH3 0x2A9 SWAP2 SWAP1 DUP3 JUMP JUMPDEST PUSH1 0x40 DUP1 MLOAD SWAP3 DUP4 MSTORE PUSH1 0x20 DUP4 ADD SWAP2 SWAP1 SWAP2 MSTORE ADD JUMPDEST PUSH1 0x40 MLOAD DUP1 SWAP2 SUB SWAP1 RETURN JUMPDEST CALLVALUE DUP1 ISZERO PUSH3 0x2D0 JUMPI PUSH1 0x0 DUP1 REVERT JUMPDEST POP PUSH3 0x224 PUSH3 0x2E2 CALLDATASIZE PUSH1 0x4 PUSH3 0x2C8D JUMP JUMPDEST PUSH3 0xB81 JUMP JUMPDEST CALLVALUE DUP1 ISZERO PUSH3 0x2F5 JUMPI PUSH1 0x0 DUP1 REVERT JUMPDEST POP PUSH3 0x224 PUSH3 0x307 CALLDATASIZE PUSH1 0x4 PUSH3 0x2C0F JUMP JUMPDEST PUSH3 0xDA6 JUMP JUMPDEST CALLVALUE DUP1 ISZERO PUSH3 0x31A JUMPI PUSH1 0x0 DUP1 REVERT JUMPDEST POP PUSH3 0x325 PUSH1 0x7 SLOAD DUP2 JUMP JUMPDEST PUSH1 0x40 MLOAD SWAP1 DUP2 MSTORE PUSH1 0x20 ADD PUSH3 0x2BA JUMP JUMPDEST CALLVALUE DUP1 ISZERO PUSH3 0x341 JUMPI PUSH1 0x0 DUP1 REVERT JUMPDEST POP PUSH3 0x224 PUSH3 0x353 CALLDATASIZE PUSH1 0x4 PUSH3 0x2D3A JUMP JUMPDEST PUSH3 0xEDC JUMP JUMPDEST CALLVALUE DUP1 ISZERO PUSH3 0x366 JUMPI PUSH1 0x0 DUP1 REVERT JUMPDEST POP PUSH3 0x224 PUSH3 0x378 CALLDATASIZE PUSH1 0x4 PUSH3 0x2C0F JUMP JUMPDEST PUSH3 0x1348 JUMP JUMPDEST CALLVALUE DUP1 ISZERO PUSH3 0x38B JUMPI PUSH1 0x0 DUP1 REVERT JUMPDEST POP PUSH3 0x224 PUSH3 0x39D CALLDATASIZE PUSH1 0x4 PUSH3 0x2C0F JUMP JUMPDEST PUSH3 0x16DB JUMP JUMPDEST CALLVALUE DUP1 ISZERO PUSH3 0x3B0 JUMPI PUSH1 0x0 DUP1 REVERT JUMPDEST POP PUSH1 0x0 SLOAD PUSH3 0x3CB SWAP1 PUSH3 0x10000 SWAP1 DIV PUSH1 0x1 PUSH1 0x1 PUSH1 0xA0 SHL SUB AND DUP2 JUMP JUMPDEST PUSH1 0x40 MLOAD PUSH1 0x1 PUSH1 0x1 PUSH1 0xA0 SHL SUB SWAP1 SWAP2 AND DUP2 MSTORE PUSH1 0x20 ADD PUSH3 0x2BA JUMP JUMPDEST CALLVALUE DUP1 ISZERO PUSH3 0x3F1 JUMPI PUSH1 0x0 DUP1 REVERT JUMPDEST POP PUSH1 0x2 SLOAD PUSH3 0x3CB SWAP1 PUSH1 0x1 PUSH1 0x1 PUSH1 0xA0 SHL SUB AND DUP2 JUMP JUMPDEST CALLVALUE DUP1 ISZERO PUSH3 0x413 JUMPI PUSH1 0x0 DUP1 REVERT JUMPDEST POP PUSH1 0x1 SLOAD PUSH3 0x3CB SWAP1 PUSH1 0x1 PUSH1 0x1 PUSH1 0xA0 SHL SUB AND DUP2 JUMP JUMPDEST CALLVALUE DUP1 ISZERO PUSH3 0x435 JUMPI PUSH1 0x0 DUP1 REVERT JUMPDEST POP PUSH3 0x224 PUSH3 0x447 CALLDATASIZE PUSH1 0x4 PUSH3 0x2C0F JUMP JUMPDEST PUSH3 0x1AD3 JUMP JUMPDEST CALLVALUE DUP1 ISZERO PUSH3 0x45A JUMPI PUSH1 0x0 DUP1 REVERT JUMPDEST POP PUSH3 0x224 PUSH3 0x46C CALLDATASIZE PUSH1 0x4 PUSH3 0x2C0F JUMP JUMPDEST PUSH3 0x1C9E JUMP JUMPDEST CALLVALUE DUP1 ISZERO PUSH3 0x47F JUMPI PUSH1 0x0 DUP1 REVERT JUMPDEST POP PUSH3 0x224 PUSH3 0x491 CALLDATASIZE PUSH1 0x4 PUSH3 0x2EED JUMP JUMPDEST PUSH3 0x1CD6 JUMP JUMPDEST CALLVALUE DUP1 ISZERO PUSH3 0x4A4 JUMPI PUSH1 0x0 DUP1 REVERT JUMPDEST POP PUSH3 0x224 PUSH3 0x4B6 CALLDATASIZE PUSH1 0x4 PUSH3 0x2FA8 JUMP JUMPDEST PUSH3 0x1F28 JUMP JUMPDEST CALLVALUE DUP1 ISZERO PUSH3 0x4C9 JUMPI PUSH1 0x0 DUP1 REVERT JUMPDEST POP PUSH3 0x325 PUSH1 0x8 SLOAD DUP2 JUMP JUMPDEST CALLVALUE DUP1 ISZERO PUSH3 0x4E1 JUMPI PUSH1 0x0 DUP1 REVERT JUMPDEST POP PUSH3 0x224 PUSH3 0x4F3 CALLDATASIZE PUSH1 0x4 PUSH3 0x2FD3 JUMP JUMPDEST PUSH3 0x2217 JUMP JUMPDEST CALLVALUE DUP1 ISZERO PUSH3 0x506 JUMPI PUSH1 0x0 DUP1 REVERT JUMPDEST POP PUSH1 0x6 SLOAD PUSH3 0x3CB SWAP1 PUSH1 0x1 PUSH1 0x1 PUSH1 0xA0 SHL SUB AND DUP2 JUMP JUMPDEST CALLVALUE DUP1 ISZERO PUSH3 0x528 JUMPI PUSH1 0x0 DUP1 REVERT JUMPDEST POP PUSH3 0x224 PUSH3 0x53A CALLDATASIZE PUSH1 0x4 PUSH3 0x2FF3 JUMP JUMPDEST PUSH3 0x22A2 JUMP JUMPDEST CALLVALUE DUP1 ISZERO PUSH3 0x54D JUMPI PUSH1 0x0 DUP1 REVERT JUMPDEST POP PUSH3 0x224 PUSH3 0x55F CALLDATASIZE PUSH1 0x4 PUSH3 0x2C0F JUMP JUMPDEST PUSH3 0x27D7 JUMP JUMPDEST CALLVALUE DUP1 ISZERO PUSH3 0x572 JUMPI PUSH1 0x0 DUP1 REVERT JUMPDEST POP PUSH1 0x3 SLOAD PUSH3 0x3CB SWAP1 PUSH1 0x1 PUSH1 0x1 PUSH1 0xA0 SHL SUB AND DUP2 JUMP JUMPDEST CALLVALUE DUP1 ISZERO PUSH3 0x594 JUMPI PUSH1 0x0 DUP1 REVERT JUMPDEST POP PUSH3 0x224 PUSH3 0x5A6 CALLDATASIZE PUSH1 0x4 PUSH3 0x2C0F JUMP JUMPDEST PUSH3 0x2967 JUMP JUMPDEST CALLVALUE DUP1 ISZERO PUSH3 0x5B9 JUMPI PUSH1 0x0 DUP1 REVERT JUMPDEST POP PUSH3 0x224 PUSH3 0x5CB CALLDATASIZE PUSH1 0x4 PUSH3 0x2C0F JUMP JUMPDEST PUSH3 0x299F JUMP JUMPDEST PUSH1 0x0 SLOAD PUSH3 0x10000 SWAP1 DIV PUSH1 0x1 PUSH1 0x1 PUSH1 0xA0 SHL SUB AND CALLER EQ PUSH3 0x604 JUMPI PUSH1 0x40 MLOAD PUSH3 0x461BCD PUSH1 0xE5 SHL DUP2 MSTORE PUSH1 0x4 ADD PUSH3 0x21B SWAP1 PUSH3 0x3097 JUMP JUMPDEST PUSH1 0x6 SLOAD PUSH1 0x40 DUP1 MLOAD PUSH4 0xD565179 PUSH1 0xE3 SHL DUP2 MSTORE SWAP1 MLOAD PUSH1 0x0 SWAP3 PUSH1 0x1 PUSH1 0x1 PUSH1 0xA0 SHL SUB AND SWAP2 PUSH4 0x6AB28BC8 SWAP2 PUSH1 0x4 DUP1 DUP4 ADD SWAP3 PUSH1 0x20 SWAP3 SWAP2 SWAP1 DUP3 SWAP1 SUB ADD DUP2 DUP7 GAS STATICCALL ISZERO DUP1 ISZERO PUSH3 0x64F JUMPI RETURNDATASIZE PUSH1 0x0 DUP1 RETURNDATACOPY RETURNDATASIZE PUSH1 0x0 REVERT JUMPDEST POP POP POP POP PUSH1 0x40 MLOAD RETURNDATASIZE PUSH1 0x1F NOT PUSH1 0x1F DUP3 ADD AND DUP3 ADD DUP1 PUSH1 0x40 MSTORE POP DUP2 ADD SWAP1 PUSH3 0x675 SWAP2 SWAP1 PUSH3 0x30CE JUMP JUMPDEST SWAP1 POP PUSH1 0x0 PUSH3 0x685 DUP3 SELFBALANCE PUSH3 0x30FE JUMP JUMPDEST SWAP1 POP DUP1 DUP5 GT ISZERO PUSH3 0x6E7 JUMPI PUSH1 0x40 MLOAD PUSH3 0x461BCD PUSH1 0xE5 SHL DUP2 MSTORE PUSH1 0x20 PUSH1 0x4 DUP3 ADD MSTORE PUSH1 0x25 PUSH1 0x24 DUP3 ADD MSTORE PUSH32 0x547279696E6720746F207769746864726177206D6F7265207468616E20706F73 PUSH1 0x44 DUP3 ADD MSTORE PUSH5 0x7369626C65 PUSH1 0xD8 SHL PUSH1 0x64 DUP3 ADD MSTORE PUSH1 0x84 ADD PUSH3 0x21B JUMP JUMPDEST PUSH1 0x0 DUP4 PUSH1 0x1 PUSH1 0x1 PUSH1 0xA0 SHL SUB AND DUP6 PUSH1 0x40 MLOAD PUSH1 0x0 PUSH1 0x40 MLOAD DUP1 DUP4 SUB DUP2 DUP6 DUP8 GAS CALL SWAP3 POP POP POP RETURNDATASIZE DUP1 PUSH1 0x0 DUP2 EQ PUSH3 0x736 JUMPI PUSH1 0x40 MLOAD SWAP2 POP PUSH1 0x1F NOT PUSH1 0x3F RETURNDATASIZE ADD AND DUP3 ADD PUSH1 0x40 MSTORE RETURNDATASIZE DUP3 MSTORE RETURNDATASIZE PUSH1 0x0 PUSH1 0x20 DUP5 ADD RETURNDATACOPY PUSH3 0x73B JUMP JUMPDEST PUSH1 0x60 SWAP2 POP JUMPDEST POP POP SWAP1 POP DUP1 PUSH3 0x780 JUMPI PUSH1 0x40 MLOAD PUSH3 0x461BCD PUSH1 0xE5 SHL DUP2 MSTORE PUSH1 0x20 PUSH1 0x4 DUP3 ADD MSTORE PUSH1 0xF PUSH1 0x24 DUP3 ADD MSTORE PUSH15 0x15DA5D1A191C985DC819985A5B1959 PUSH1 0x8A SHL PUSH1 0x44 DUP3 ADD MSTORE PUSH1 0x64 ADD PUSH3 0x21B JUMP JUMPDEST POP POP POP POP POP JUMP JUMPDEST PUSH1 0x6 SLOAD PUSH1 0x40 MLOAD PUSH4 0x725F4C79 PUSH1 0xE1 SHL DUP2 MSTORE PUSH1 0x4 DUP2 ADD DUP4 SWAP1 MSTORE PUSH1 0x0 SWAP2 PUSH1 0x1 PUSH1 0x1 PUSH1 0xA0 SHL SUB AND SWAP1 PUSH4 0xE4BE98F2 SWAP1 PUSH1 0x24 ADD PUSH1 0x0 PUSH1 0x40 MLOAD DUP1 DUP4 SUB DUP2 DUP7 GAS STATICCALL ISZERO DUP1 ISZERO PUSH3 0x7D2 JUMPI RETURNDATASIZE PUSH1 0x0 DUP1 RETURNDATACOPY RETURNDATASIZE PUSH1 0x0 REVERT JUMPDEST POP POP POP POP PUSH1 0x40 MLOAD RETURNDATASIZE PUSH1 0x0 DUP3 RETURNDATACOPY PUSH1 0x1F RETURNDATASIZE SWAP1 DUP2 ADD PUSH1 0x1F NOT AND DUP3 ADD PUSH1 0x40 MSTORE PUSH3 0x7FC SWAP2 SWAP1 DUP2 ADD SWAP1 PUSH3 0x31A1 JUMP JUMPDEST DUP1 MLOAD SWAP1 SWAP2 POP DUP3 EQ PUSH3 0x851 JUMPI PUSH1 0x40 MLOAD PUSH3 0x461BCD PUSH1 0xE5 SHL DUP2 MSTORE PUSH1 0x20 PUSH1 0x4 DUP3 ADD MSTORE PUSH1 0x1B PUSH1 0x24 DUP3 ADD MSTORE PUSH32 0x5265736561726368206465616C20646F65736E27742065786973740000000000 PUSH1 0x44 DUP3 ADD MSTORE PUSH1 0x64 ADD PUSH3 0x21B JUMP JUMPDEST DUP1 PUSH1 0xA0 ADD MLOAD CALLVALUE EQ PUSH3 0x89C JUMPI PUSH1 0x40 MLOAD PUSH3 0x461BCD PUSH1 0xE5 SHL DUP2 MSTORE PUSH1 0x20 PUSH1 0x4 DUP3 ADD MSTORE PUSH1 0x13 PUSH1 0x24 DUP3 ADD MSTORE PUSH19 0x125B9D985B1A5908185B5BDD5B9D081CD95B9D PUSH1 0x6A SHL PUSH1 0x44 DUP3 ADD MSTORE PUSH1 0x64 ADD PUSH3 0x21B JUMP JUMPDEST PUSH1 0x6 SLOAD PUSH1 0x40 MLOAD PUSH4 0x1ADF7EB1 PUSH1 0xE0 SHL DUP2 MSTORE PUSH1 0x4 DUP2 ADD DUP5 SWAP1 MSTORE PUSH1 0x0 SWAP2 PUSH1 0x1 PUSH1 0x1 PUSH1 0xA0 SHL SUB AND SWAP1 PUSH4 0x1ADF7EB1 SWAP1 PUSH1 0x24 ADD PUSH1 0x40 DUP1 MLOAD DUP1 DUP4 SUB DUP2 DUP7 GAS STATICCALL ISZERO DUP1 ISZERO PUSH3 0x8E6 JUMPI RETURNDATASIZE PUSH1 0x0 DUP1 RETURNDATACOPY RETURNDATASIZE PUSH1 0x0 REVERT JUMPDEST POP POP POP POP PUSH1 0x40 MLOAD RETURNDATASIZE PUSH1 0x1F NOT PUSH1 0x1F DUP3 ADD AND DUP3 ADD DUP1 PUSH1 0x40 MSTORE POP DUP2 ADD SWAP1 PUSH3 0x90C SWAP2 SWAP1 PUSH3 0x328D JUMP JUMPDEST PUSH1 0x6 SLOAD DUP2 MLOAD PUSH1 0x40 MLOAD PUSH4 0xBAD79DE9 PUSH1 0xE0 SHL DUP2 MSTORE SWAP3 SWAP4 POP PUSH1 0x0 SWAP3 PUSH1 0x1 PUSH1 0x1 PUSH1 0xA0 SHL SUB SWAP1 SWAP3 AND SWAP2 PUSH4 0xBAD79DE9 SWAP2 PUSH3 0x947 SWAP2 PUSH1 0x4 ADD SWAP1 DUP2 MSTORE PUSH1 0x20 ADD SWAP1 JUMP JUMPDEST PUSH1 0x0 PUSH1 0x40 MLOAD DUP1 DUP4 SUB DUP2 DUP7 GAS STATICCALL ISZERO DUP1 ISZERO PUSH3 0x965 JUMPI RETURNDATASIZE PUSH1 0x0 DUP1 RETURNDATACOPY RETURNDATASIZE PUSH1 0x0 REVERT JUMPDEST POP POP POP POP PUSH1 0x40 MLOAD RETURNDATASIZE PUSH1 0x0 DUP3 RETURNDATACOPY PUSH1 0x1F RETURNDATASIZE SWAP1 DUP2 ADD PUSH1 0x1F NOT AND DUP3 ADD PUSH1 0x40 MSTORE PUSH3 0x98F SWAP2 SWAP1 DUP2 ADD SWAP1 PUSH3 0x3397 JUMP JUMPDEST SWAP1 POP PUSH1 0x2 PUSH1 0x6 SLOAD DUP3 MLOAD PUSH1 0x40 MLOAD PUSH4 0x14DA36F7 PUSH1 0xE3 SHL DUP2 MSTORE PUSH1 0x1 PUSH1 0x1 PUSH1 0xA0 SHL SUB SWAP1 SWAP3 AND SWAP2 PUSH4 0xA6D1B7B8 SWAP2 PUSH3 0x9C5 SWAP2 PUSH1 0x4 ADD PUSH3 0x354B JUMP JUMPDEST PUSH1 0x20 PUSH1 0x40 MLOAD DUP1 DUP4 SUB DUP2 DUP7 GAS STATICCALL ISZERO DUP1 ISZERO PUSH3 0x9E3 JUMPI RETURNDATASIZE PUSH1 0x0 DUP1 RETURNDATACOPY RETURNDATASIZE PUSH1 0x0 REVERT JUMPDEST POP POP POP POP PUSH1 0x40 MLOAD RETURNDATASIZE PUSH1 0x1F NOT PUSH1 0x1F DUP3 ADD AND DUP3 ADD DUP1 PUSH1 0x40 MSTORE POP DUP2 ADD SWAP1 PUSH3 0xA09 SWAP2 SWAP1 PUSH3 0x3560 JUMP JUMPDEST PUSH1 0x4 DUP2 GT ISZERO PUSH3 0xA1D JUMPI PUSH3 0xA1D PUSH3 0x3507 JUMP JUMPDEST EQ PUSH3 0xA65 JUMPI PUSH1 0x40 MLOAD PUSH3 0x461BCD PUSH1 0xE5 SHL DUP2 MSTORE PUSH1 0x20 PUSH1 0x4 DUP3 ADD MSTORE PUSH1 0x16 PUSH1 0x24 DUP3 ADD MSTORE PUSH22 0x1119585B081B9BDD081C1D589B1A5CDA1959081E595D PUSH1 0x52 SHL PUSH1 0x44 DUP3 ADD MSTORE PUSH1 0x64 ADD PUSH3 0x21B JUMP JUMPDEST PUSH1 0x3 SLOAD PUSH1 0x40 DUP1 DUP6 ADD MLOAD SWAP1 MLOAD PUSH4 0xD0DEF521 PUSH1 0xE0 SHL DUP2 MSTORE PUSH1 0x1 PUSH1 0x1 PUSH1 0xA0 SHL SUB SWAP1 SWAP3 AND SWAP2 PUSH4 0xD0DEF521 SWAP2 PUSH3 0xA9D SWAP2 CALLER SWAP2 SWAP1 PUSH1 0x4 ADD PUSH3 0x3583 JUMP JUMPDEST PUSH1 0x20 PUSH1 0x40 MLOAD DUP1 DUP4 SUB DUP2 PUSH1 0x0 DUP8 GAS CALL ISZERO DUP1 ISZERO PUSH3 0xABD JUMPI RETURNDATASIZE PUSH1 0x0 DUP1 RETURNDATACOPY RETURNDATASIZE PUSH1 0x0 REVERT JUMPDEST POP POP POP POP PUSH1 0x40 MLOAD RETURNDATASIZE PUSH1 0x1F NOT PUSH1 0x1F DUP3 ADD AND DUP3 ADD DUP1 PUSH1 0x40 MSTORE POP DUP2 ADD SWAP1 PUSH3 0x780 SWAP2 SWAP1 PUSH3 0x30CE JUMP JUMPDEST PUSH1 0x0 SLOAD PUSH3 0x10000 SWAP1 DIV PUSH1 0x1 PUSH1 0x1 PUSH1 0xA0 SHL SUB AND CALLER EQ PUSH3 0xB16 JUMPI PUSH1 0x40 MLOAD PUSH3 0x461BCD PUSH1 0xE5 SHL DUP2 MSTORE PUSH1 0x4 ADD PUSH3 0x21B SWAP1 PUSH3 0x3097 JUMP JUMPDEST DUP1 CALLDATALOAD ISZERO DUP1 ISZERO SWAP1 PUSH3 0xB2B JUMPI POP PUSH1 0x20 DUP2 ADD CALLDATALOAD DUP2 CALLDATALOAD LT JUMPDEST PUSH3 0xB73 JUMPI PUSH1 0x40 MLOAD PUSH3 0x461BCD PUSH1 0xE5 SHL DUP2 MSTORE PUSH1 0x20 PUSH1 0x4 DUP3 ADD MSTORE PUSH1 0x17 PUSH1 0x24 DUP3 ADD MSTORE PUSH23 0x24B73B30B634B2103B37BA34B73390323AB930BA34B7B7 PUSH1 0x49 SHL PUSH1 0x44 DUP3 ADD MSTORE PUSH1 0x64 ADD PUSH3 0x21B JUMP JUMPDEST DUP1 CALLDATALOAD PUSH1 0x4 SSTORE PUSH1 0x20 ADD CALLDATALOAD PUSH1 0x5 SSTORE JUMP JUMPDEST PUSH1 0x1 SLOAD PUSH1 0x40 MLOAD PUSH4 0x70A08231 PUSH1 0xE0 SHL DUP2 MSTORE CALLER PUSH1 0x4 DUP3 ADD MSTORE PUSH1 0x1 PUSH1 0x1 PUSH1 0xA0 SHL SUB SWAP1 SWAP2 AND SWAP1 PUSH4 0x70A08231 SWAP1 PUSH1 0x24 ADD PUSH1 0x20 PUSH1 0x40 MLOAD DUP1 DUP4 SUB DUP2 DUP7 GAS STATICCALL ISZERO DUP1 ISZERO PUSH3 0xBCA JUMPI RETURNDATASIZE PUSH1 0x0 DUP1 RETURNDATACOPY RETURNDATASIZE PUSH1 0x0 REVERT JUMPDEST POP POP POP POP PUSH1 0x40 MLOAD RETURNDATASIZE PUSH1 0x1F NOT PUSH1 0x1F DUP3 ADD AND DUP3 ADD DUP1 PUSH1 0x40 MSTORE POP DUP2 ADD SWAP1 PUSH3 0xBF0 SWAP2 SWAP1 PUSH3 0x30CE JUMP JUMPDEST PUSH1 0x1 EQ PUSH3 0xC3C JUMPI PUSH1 0x40 MLOAD PUSH3 0x461BCD PUSH1 0xE5 SHL DUP2 MSTORE PUSH1 0x20 PUSH1 0x4 DUP3 ADD MSTORE PUSH1 0x18 PUSH1 0x24 DUP3 ADD MSTORE PUSH24 0x13DB9B1E48111053C81B595B58995C8818D85B8818D85B1B PUSH1 0x42 SHL PUSH1 0x44 DUP3 ADD MSTORE PUSH1 0x64 ADD PUSH3 0x21B JUMP JUMPDEST PUSH1 0x0 CALLER DUP4 DUP4 PUSH1 0x40 MLOAD PUSH1 0x20 ADD PUSH3 0xC55 SWAP4 SWAP3 SWAP2 SWAP1 PUSH3 0x35A9 JUMP JUMPDEST PUSH1 0x40 DUP1 MLOAD PUSH1 0x1F NOT DUP2 DUP5 SUB ADD DUP2 MSTORE DUP3 DUP3 MSTORE DUP1 MLOAD PUSH1 0x20 SWAP2 DUP3 ADD KECCAK256 PUSH1 0xC0 DUP5 ADD DUP4 MSTORE DUP1 DUP5 MSTORE CALLER DUP5 DUP4 ADD MSTORE DUP3 MLOAD PUSH1 0x1F DUP8 ADD DUP4 SWAP1 DIV DUP4 MUL DUP2 ADD DUP4 ADD DUP5 MSTORE DUP7 DUP2 MSTORE SWAP1 SWAP5 POP PUSH1 0x0 SWAP4 SWAP3 DUP4 ADD SWAP2 DUP8 SWAP1 DUP8 SWAP1 DUP2 SWAP1 DUP5 ADD DUP4 DUP3 DUP1 DUP3 DUP5 CALLDATACOPY PUSH1 0x0 SWAP3 ADD SWAP2 SWAP1 SWAP2 MSTORE POP POP POP SWAP1 DUP3 MSTORE POP PUSH1 0x40 DUP1 MLOAD PUSH1 0x20 PUSH1 0x1F DUP14 ADD DUP2 SWAP1 DIV DUP2 MUL DUP3 ADD DUP2 ADD SWAP1 SWAP3 MSTORE DUP12 DUP2 MSTORE SWAP2 DUP2 ADD SWAP2 SWAP1 DUP13 SWAP1 DUP13 SWAP1 DUP2 SWAP1 DUP5 ADD DUP4 DUP3 DUP1 DUP3 DUP5 CALLDATACOPY PUSH1 0x0 SWAP3 ADD SWAP2 SWAP1 SWAP2 MSTORE POP POP POP SWAP1 DUP3 MSTORE POP PUSH1 0x40 DUP1 MLOAD PUSH1 0x20 PUSH1 0x1F DUP12 ADD DUP2 SWAP1 DIV DUP2 MUL DUP3 ADD DUP2 ADD SWAP1 SWAP3 MSTORE DUP10 DUP2 MSTORE SWAP2 DUP2 ADD SWAP2 SWAP1 DUP11 SWAP1 DUP11 SWAP1 DUP2 SWAP1 DUP5 ADD DUP4 DUP3 DUP1 DUP3 DUP5 CALLDATACOPY PUSH1 0x0 SWAP3 ADD SWAP2 SWAP1 SWAP2 MSTORE POP POP POP SWAP1 DUP3 MSTORE POP PUSH1 0x20 ADD DUP7 SWAP1 MSTORE PUSH1 0x6 SLOAD PUSH1 0x40 MLOAD PUSH4 0xE7E1A573 PUSH1 0xE0 SHL DUP2 MSTORE SWAP2 SWAP3 POP PUSH1 0x1 PUSH1 0x1 PUSH1 0xA0 SHL SUB AND SWAP1 PUSH4 0xE7E1A573 SWAP1 PUSH3 0xD67 SWAP1 DUP6 SWAP1 DUP6 SWAP1 PUSH1 0x4 ADD PUSH3 0x35D5 JUMP JUMPDEST PUSH1 0x0 PUSH1 0x40 MLOAD DUP1 DUP4 SUB DUP2 PUSH1 0x0 DUP8 DUP1 EXTCODESIZE ISZERO DUP1 ISZERO PUSH3 0xD82 JUMPI PUSH1 0x0 DUP1 REVERT JUMPDEST POP GAS CALL ISZERO DUP1 ISZERO PUSH3 0xD97 JUMPI RETURNDATASIZE PUSH1 0x0 DUP1 RETURNDATACOPY RETURNDATASIZE PUSH1 0x0 REVERT JUMPDEST POP POP POP POP POP POP POP POP POP POP POP POP POP JUMP JUMPDEST PUSH1 0x6 SLOAD PUSH1 0x40 MLOAD PUSH4 0xD117658F PUSH1 0xE0 SHL DUP2 MSTORE PUSH1 0x4 DUP2 ADD DUP4 SWAP1 MSTORE PUSH1 0x0 SWAP2 PUSH1 0x1 PUSH1 0x1 PUSH1 0xA0 SHL SUB AND SWAP1 PUSH4 0xD117658F SWAP1 PUSH1 0x24 ADD PUSH1 0x20 PUSH1 0x40 MLOAD DUP1 DUP4 SUB DUP2 DUP7 GAS STATICCALL ISZERO DUP1 ISZERO PUSH3 0xDF1 JUMPI RETURNDATASIZE PUSH1 0x0 DUP1 RETURNDATACOPY RETURNDATASIZE PUSH1 0x0 REVERT JUMPDEST POP POP POP POP PUSH1 0x40 MLOAD RETURNDATASIZE PUSH1 0x1F NOT PUSH1 0x1F DUP3 ADD AND DUP3 ADD DUP1 PUSH1 0x40 MSTORE POP DUP2 ADD SWAP1 PUSH3 0xE17 SWAP2 SWAP1 PUSH3 0x30CE JUMP JUMPDEST SWAP1 POP PUSH1 0x0 PUSH1 0x8 SLOAD DUP3 PUSH3 0xE2B SWAP2 SWAP1 PUSH3 0x366E JUMP JUMPDEST SWAP1 POP DUP1 TIMESTAMP GT PUSH3 0xE77 JUMPI PUSH1 0x40 MLOAD PUSH3 0x461BCD PUSH1 0xE5 SHL DUP2 MSTORE PUSH1 0x20 PUSH1 0x4 DUP3 ADD MSTORE PUSH1 0x16 PUSH1 0x24 DUP3 ADD MSTORE PUSH22 0x566F74696E67206973207374696C6C20616374697665 PUSH1 0x50 SHL PUSH1 0x44 DUP3 ADD MSTORE PUSH1 0x64 ADD PUSH3 0x21B JUMP JUMPDEST PUSH1 0x6 SLOAD PUSH1 0x40 MLOAD PUSH4 0x6024DFFB PUSH1 0xE0 SHL DUP2 MSTORE PUSH1 0x4 DUP2 ADD DUP6 SWAP1 MSTORE PUSH1 0x1 PUSH1 0x1 PUSH1 0xA0 SHL SUB SWAP1 SWAP2 AND SWAP1 PUSH4 0x6024DFFB SWAP1 PUSH1 0x24 ADD PUSH1 0x0 PUSH1 0x40 MLOAD DUP1 DUP4 SUB DUP2 PUSH1 0x0 DUP8 DUP1 EXTCODESIZE ISZERO DUP1 ISZERO PUSH3 0xEBE JUMPI PUSH1 0x0 DUP1 REVERT JUMPDEST POP GAS CALL ISZERO DUP1 ISZERO PUSH3 0xED3 JUMPI RETURNDATASIZE PUSH1 0x0 DUP1 RETURNDATACOPY RETURNDATASIZE PUSH1 0x0 REVERT JUMPDEST POP POP POP POP POP POP POP JUMP JUMPDEST PUSH1 0x6 SLOAD PUSH1 0x40 MLOAD PUSH4 0x28596027 PUSH1 0xE2 SHL DUP2 MSTORE PUSH1 0x4 DUP2 ADD DUP5 SWAP1 MSTORE PUSH1 0x0 SWAP2 PUSH1 0x1 PUSH1 0x1 PUSH1 0xA0 SHL SUB AND SWAP1 PUSH4 0xA165809C SWAP1 PUSH1 0x24 ADD PUSH1 0x0 PUSH1 0x40 MLOAD DUP1 DUP4 SUB DUP2 DUP7 GAS STATICCALL ISZERO DUP1 ISZERO PUSH3 0xF27 JUMPI RETURNDATASIZE PUSH1 0x0 DUP1 RETURNDATACOPY RETURNDATASIZE PUSH1 0x0 REVERT JUMPDEST POP POP POP POP PUSH1 0x40 MLOAD RETURNDATASIZE PUSH1 0x0 DUP3 RETURNDATACOPY PUSH1 0x1F RETURNDATASIZE SWAP1 DUP2 ADD PUSH1 0x1F NOT AND DUP3 ADD PUSH1 0x40 MSTORE PUSH3 0xF51 SWAP2 SWAP1 DUP2 ADD SWAP1 PUSH3 0x371C JUMP JUMPDEST DUP1 MLOAD SWAP1 SWAP2 POP DUP4 EQ PUSH3 0xF9C JUMPI PUSH1 0x40 MLOAD PUSH3 0x461BCD PUSH1 0xE5 SHL DUP2 MSTORE PUSH1 0x20 PUSH1 0x4 DUP3 ADD MSTORE PUSH1 0x13 PUSH1 0x24 DUP3 ADD MSTORE PUSH19 0x125B9D985B1A59081C1C9BDC1BDCD85B081A59 PUSH1 0x6A SHL PUSH1 0x44 DUP3 ADD MSTORE PUSH1 0x64 ADD PUSH3 0x21B JUMP JUMPDEST PUSH1 0x0 DUP2 PUSH1 0x40 ADD MLOAD PUSH1 0x5 DUP2 GT ISZERO PUSH3 0xFB7 JUMPI PUSH3 0xFB7 PUSH3 0x3507 JUMP JUMPDEST EQ PUSH3 0x1012 JUMPI PUSH1 0x40 MLOAD PUSH3 0x461BCD PUSH1 0xE5 SHL DUP2 MSTORE PUSH1 0x20 PUSH1 0x4 DUP3 ADD MSTORE PUSH1 0x23 PUSH1 0x24 DUP3 ADD MSTORE PUSH32 0x46756E64696E672070726F706F73616C206973206E6F7420696E2070726F6772 PUSH1 0x44 DUP3 ADD MSTORE PUSH3 0x657373 PUSH1 0xE8 SHL PUSH1 0x64 DUP3 ADD MSTORE PUSH1 0x84 ADD PUSH3 0x21B JUMP JUMPDEST PUSH1 0x0 DUP2 PUSH1 0xE0 ADD MLOAD DUP3 PUSH2 0x120 ADD MLOAD PUSH3 0x102B SWAP2 SWAP1 PUSH3 0x366E JUMP JUMPDEST SWAP1 POP DUP1 TIMESTAMP LT PUSH3 0x107E JUMPI PUSH1 0x40 MLOAD PUSH3 0x461BCD PUSH1 0xE5 SHL DUP2 MSTORE PUSH1 0x20 PUSH1 0x4 DUP3 ADD MSTORE PUSH1 0x18 PUSH1 0x24 DUP3 ADD MSTORE PUSH32 0x46756E64696E672070726F706F73616C20657870697265640000000000000000 PUSH1 0x44 DUP3 ADD MSTORE PUSH1 0x64 ADD PUSH3 0x21B JUMP JUMPDEST PUSH1 0x0 DUP4 DUP4 PUSH2 0x160 ADD MLOAD PUSH3 0x1093 SWAP2 SWAP1 PUSH3 0x366E JUMP JUMPDEST SWAP1 POP DUP3 PUSH1 0xC0 ADD MLOAD DUP2 GT ISZERO PUSH3 0x10EB JUMPI PUSH1 0x40 MLOAD PUSH3 0x461BCD PUSH1 0xE5 SHL DUP2 MSTORE PUSH1 0x20 PUSH1 0x4 DUP3 ADD MSTORE PUSH1 0x19 PUSH1 0x24 DUP3 ADD MSTORE PUSH32 0x547279696E6720746F20696E7665737420746F6F206D75636800000000000000 PUSH1 0x44 DUP3 ADD MSTORE PUSH1 0x64 ADD PUSH3 0x21B JUMP JUMPDEST PUSH1 0xA0 DUP4 ADD MLOAD PUSH1 0x40 MLOAD PUSH4 0x23B872DD PUSH1 0xE0 SHL DUP2 MSTORE CALLER PUSH1 0x4 DUP3 ADD MSTORE ADDRESS PUSH1 0x24 DUP3 ADD MSTORE PUSH1 0x44 DUP2 ADD DUP7 SWAP1 MSTORE PUSH1 0x1 PUSH1 0x1 PUSH1 0xA0 SHL SUB SWAP1 SWAP2 AND SWAP1 PUSH4 0x23B872DD SWAP1 PUSH1 0x64 ADD PUSH1 0x20 PUSH1 0x40 MLOAD DUP1 DUP4 SUB DUP2 PUSH1 0x0 DUP8 GAS CALL ISZERO DUP1 ISZERO PUSH3 0x1145 JUMPI RETURNDATASIZE PUSH1 0x0 DUP1 RETURNDATACOPY RETURNDATASIZE PUSH1 0x0 REVERT JUMPDEST POP POP POP POP PUSH1 0x40 MLOAD RETURNDATASIZE PUSH1 0x1F NOT PUSH1 0x1F DUP3 ADD AND DUP3 ADD DUP1 PUSH1 0x40 MSTORE POP DUP2 ADD SWAP1 PUSH3 0x116B SWAP2 SWAP1 PUSH3 0x2B71 JUMP JUMPDEST POP PUSH1 0x6 SLOAD PUSH1 0x40 MLOAD PUSH4 0xED5DB19 PUSH1 0xE4 SHL DUP2 MSTORE PUSH1 0x4 DUP2 ADD DUP8 SWAP1 MSTORE PUSH1 0x24 DUP2 ADD DUP4 SWAP1 MSTORE PUSH1 0x1 PUSH1 0x1 PUSH1 0xA0 SHL SUB SWAP1 SWAP2 AND SWAP1 PUSH4 0xED5DB190 SWAP1 PUSH1 0x44 ADD PUSH1 0x0 PUSH1 0x40 MLOAD DUP1 DUP4 SUB DUP2 PUSH1 0x0 DUP8 DUP1 EXTCODESIZE ISZERO DUP1 ISZERO PUSH3 0x11BA JUMPI PUSH1 0x0 DUP1 REVERT JUMPDEST POP GAS CALL ISZERO DUP1 ISZERO PUSH3 0x11CF JUMPI RETURNDATASIZE PUSH1 0x0 DUP1 RETURNDATACOPY RETURNDATASIZE PUSH1 0x0 REVERT JUMPDEST POP POP POP POP DUP3 PUSH1 0xC0 ADD MLOAD DUP2 SUB PUSH3 0x1248 JUMPI PUSH1 0x6 SLOAD PUSH1 0x40 MLOAD PUSH4 0xD77907DF PUSH1 0xE0 SHL DUP2 MSTORE PUSH1 0x1 PUSH1 0x1 PUSH1 0xA0 SHL SUB SWAP1 SWAP2 AND SWAP1 PUSH4 0xD77907DF SWAP1 PUSH3 0x1213 SWAP1 DUP9 SWAP1 PUSH1 0x4 SWAP1 DUP2 ADD PUSH3 0x386C JUMP JUMPDEST PUSH1 0x0 PUSH1 0x40 MLOAD DUP1 DUP4 SUB DUP2 PUSH1 0x0 DUP8 DUP1 EXTCODESIZE ISZERO DUP1 ISZERO PUSH3 0x122E JUMPI PUSH1 0x0 DUP1 REVERT JUMPDEST POP GAS CALL ISZERO DUP1 ISZERO PUSH3 0x1243 JUMPI RETURNDATASIZE PUSH1 0x0 DUP1 RETURNDATACOPY RETURNDATASIZE PUSH1 0x0 REVERT JUMPDEST POP POP POP POP JUMPDEST PUSH1 0x2 SLOAD PUSH1 0xA0 DUP5 ADD MLOAD PUSH1 0x40 MLOAD PUSH4 0x9024E4D PUSH1 0xE3 SHL DUP2 MSTORE CALLER PUSH1 0x4 DUP3 ADD MSTORE PUSH1 0x24 DUP2 ADD DUP9 SWAP1 MSTORE PUSH1 0x1 PUSH1 0x1 PUSH1 0xA0 SHL SUB SWAP2 DUP3 AND PUSH1 0x44 DUP3 ADD MSTORE PUSH1 0x64 DUP2 ADD DUP8 SWAP1 MSTORE PUSH1 0x0 SWAP3 SWAP2 SWAP1 SWAP2 AND SWAP1 PUSH4 0x48127268 SWAP1 PUSH1 0x84 ADD PUSH1 0x20 PUSH1 0x40 MLOAD DUP1 DUP4 SUB DUP2 PUSH1 0x0 DUP8 GAS CALL ISZERO DUP1 ISZERO PUSH3 0x12B2 JUMPI RETURNDATASIZE PUSH1 0x0 DUP1 RETURNDATACOPY RETURNDATASIZE PUSH1 0x0 REVERT JUMPDEST POP POP POP POP PUSH1 0x40 MLOAD RETURNDATASIZE PUSH1 0x1F NOT PUSH1 0x1F DUP3 ADD AND DUP3 ADD DUP1 PUSH1 0x40 MSTORE POP DUP2 ADD SWAP1 PUSH3 0x12D8 SWAP2 SWAP1 PUSH3 0x30CE JUMP JUMPDEST PUSH1 0x6 SLOAD PUSH1 0x40 MLOAD PUSH4 0x66972219 PUSH1 0xE0 SHL DUP2 MSTORE PUSH1 0x4 DUP2 ADD DUP10 SWAP1 MSTORE PUSH1 0x24 DUP2 ADD DUP4 SWAP1 MSTORE SWAP2 SWAP3 POP PUSH1 0x1 PUSH1 0x1 PUSH1 0xA0 SHL SUB AND SWAP1 PUSH4 0x66972219 SWAP1 PUSH1 0x44 ADD PUSH1 0x0 PUSH1 0x40 MLOAD DUP1 DUP4 SUB DUP2 PUSH1 0x0 DUP8 DUP1 EXTCODESIZE ISZERO DUP1 ISZERO PUSH3 0x1327 JUMPI PUSH1 0x0 DUP1 REVERT JUMPDEST POP GAS CALL ISZERO DUP1 ISZERO PUSH3 0x133C JUMPI RETURNDATASIZE PUSH1 0x0 DUP1 RETURNDATACOPY RETURNDATASIZE PUSH1 0x0 REVERT JUMPDEST POP POP POP POP POP POP POP POP POP POP JUMP JUMPDEST PUSH1 0x6 SLOAD PUSH1 0x40 MLOAD PUSH4 0x935E01B PUSH1 0xE2 SHL DUP2 MSTORE CALLER PUSH1 0x4 DUP3 ADD MSTORE PUSH1 0x1 PUSH1 0x1 PUSH1 0xA0 SHL SUB SWAP1 SWAP2 AND SWAP1 PUSH4 0x24D7806C SWAP1 PUSH1 0x24 ADD PUSH1 0x20 PUSH1 0x40 MLOAD DUP1 DUP4 SUB DUP2 DUP7 GAS STATICCALL ISZERO DUP1 ISZERO PUSH3 0x1391 JUMPI RETURNDATASIZE PUSH1 0x0 DUP1 RETURNDATACOPY RETURNDATASIZE PUSH1 0x0 REVERT JUMPDEST POP POP POP POP PUSH1 0x40 MLOAD RETURNDATASIZE PUSH1 0x1F NOT PUSH1 0x1F DUP3 ADD AND DUP3 ADD DUP1 PUSH1 0x40 MSTORE POP DUP2 ADD SWAP1 PUSH3 0x13B7 SWAP2 SWAP1 PUSH3 0x2B71 JUMP JUMPDEST PUSH3 0x13D6 JUMPI PUSH1 0x40 MLOAD PUSH3 0x461BCD PUSH1 0xE5 SHL DUP2 MSTORE PUSH1 0x4 ADD PUSH3 0x21B SWAP1 PUSH3 0x2B96 JUMP JUMPDEST PUSH1 0x6 SLOAD PUSH1 0x40 DUP1 MLOAD PUSH4 0xD565179 PUSH1 0xE3 SHL DUP2 MSTORE SWAP1 MLOAD PUSH1 0x0 SWAP3 PUSH1 0x1 PUSH1 0x1 PUSH1 0xA0 SHL SUB AND SWAP2 PUSH4 0x6AB28BC8 SWAP2 PUSH1 0x4 DUP1 DUP4 ADD SWAP3 PUSH1 0x20 SWAP3 SWAP2 SWAP1 DUP3 SWAP1 SUB ADD DUP2 DUP7 GAS STATICCALL ISZERO DUP1 ISZERO PUSH3 0x1421 JUMPI RETURNDATASIZE PUSH1 0x0 DUP1 RETURNDATACOPY RETURNDATASIZE PUSH1 0x0 REVERT JUMPDEST POP POP POP POP PUSH1 0x40 MLOAD RETURNDATASIZE PUSH1 0x1F NOT PUSH1 0x1F DUP3 ADD AND DUP3 ADD DUP1 PUSH1 0x40 MSTORE POP DUP2 ADD SWAP1 PUSH3 0x1447 SWAP2 SWAP1 PUSH3 0x30CE JUMP JUMPDEST SWAP1 POP DUP1 DUP3 GT ISZERO PUSH3 0x14A5 JUMPI PUSH1 0x40 MLOAD PUSH3 0x461BCD PUSH1 0xE5 SHL DUP2 MSTORE PUSH1 0x20 PUSH1 0x4 DUP3 ADD MSTORE PUSH1 0x21 PUSH1 0x24 DUP3 ADD MSTORE PUSH32 0x547279696E6720746F206C6F636B206D6F7265207468616E20706F737369626C PUSH1 0x44 DUP3 ADD MSTORE PUSH1 0x65 PUSH1 0xF8 SHL PUSH1 0x64 DUP3 ADD MSTORE PUSH1 0x84 ADD PUSH3 0x21B JUMP JUMPDEST PUSH1 0x6 SLOAD PUSH1 0x40 DUP1 MLOAD PUSH4 0xB1CFE17 PUSH1 0xE3 SHL DUP2 MSTORE SWAP1 MLOAD PUSH1 0x0 SWAP3 PUSH1 0x1 PUSH1 0x1 PUSH1 0xA0 SHL SUB AND SWAP2 PUSH4 0x58E7F0B8 SWAP2 PUSH1 0x4 DUP1 DUP4 ADD SWAP3 PUSH1 0x20 SWAP3 SWAP2 SWAP1 DUP3 SWAP1 SUB ADD DUP2 DUP7 GAS STATICCALL ISZERO DUP1 ISZERO PUSH3 0x14F0 JUMPI RETURNDATASIZE PUSH1 0x0 DUP1 RETURNDATACOPY RETURNDATASIZE PUSH1 0x0 REVERT JUMPDEST POP POP POP POP PUSH1 0x40 MLOAD RETURNDATASIZE PUSH1 0x1F NOT PUSH1 0x1F DUP3 ADD AND DUP3 ADD DUP1 PUSH1 0x40 MSTORE POP DUP2 ADD SWAP1 PUSH3 0x1516 SWAP2 SWAP1 PUSH3 0x30CE JUMP JUMPDEST SWAP1 POP PUSH1 0x0 PUSH1 0x6 PUSH1 0x0 SWAP1 SLOAD SWAP1 PUSH2 0x100 EXP SWAP1 DIV PUSH1 0x1 PUSH1 0x1 PUSH1 0xA0 SHL SUB AND PUSH1 0x1 PUSH1 0x1 PUSH1 0xA0 SHL SUB AND PUSH4 0xFE47A8A7 PUSH1 0x40 MLOAD DUP2 PUSH4 0xFFFFFFFF AND PUSH1 0xE0 SHL DUP2 MSTORE PUSH1 0x4 ADD PUSH1 0x40 DUP1 MLOAD DUP1 DUP4 SUB DUP2 DUP7 GAS STATICCALL ISZERO DUP1 ISZERO PUSH3 0x156D JUMPI RETURNDATASIZE PUSH1 0x0 DUP1 RETURNDATACOPY RETURNDATASIZE PUSH1 0x0 REVERT JUMPDEST POP POP POP POP PUSH1 0x40 MLOAD RETURNDATASIZE PUSH1 0x1F NOT PUSH1 0x1F DUP3 ADD AND DUP3 ADD DUP1 PUSH1 0x40 MSTORE POP DUP2 ADD SWAP1 PUSH3 0x1593 SWAP2 SWAP1 PUSH3 0x3882 JUMP JUMPDEST DUP1 MLOAD PUSH1 0x40 MLOAD PUSH4 0x8A36BAA7 PUSH1 0xE0 SHL DUP2 MSTORE SWAP2 SWAP3 POP PUSH1 0x0 SWAP2 PUSH20 0x0 SWAP2 PUSH4 0x8A36BAA7 SWAP2 PUSH3 0x15DC SWAP2 DUP8 SWAP2 PUSH1 0x4 ADD SWAP2 DUP3 MSTORE PUSH1 0x20 DUP3 ADD MSTORE PUSH1 0x40 ADD SWAP1 JUMP JUMPDEST PUSH1 0x20 PUSH1 0x40 MLOAD DUP1 DUP4 SUB DUP2 DUP7 GAS DELEGATECALL ISZERO DUP1 ISZERO PUSH3 0x15FA JUMPI RETURNDATASIZE PUSH1 0x0 DUP1 RETURNDATACOPY RETURNDATASIZE PUSH1 0x0 REVERT JUMPDEST POP POP POP POP PUSH1 0x40 MLOAD RETURNDATASIZE PUSH1 0x1F NOT PUSH1 0x1F DUP3 ADD AND DUP3 ADD DUP1 PUSH1 0x40 MSTORE POP DUP2 ADD SWAP1 PUSH3 0x1620 SWAP2 SWAP1 PUSH3 0x30CE JUMP JUMPDEST SWAP1 POP DUP1 DUP6 LT PUSH3 0x1673 JUMPI PUSH1 0x40 MLOAD PUSH3 0x461BCD PUSH1 0xE5 SHL DUP2 MSTORE PUSH1 0x20 PUSH1 0x4 DUP3 ADD MSTORE PUSH1 0x19 PUSH1 0x24 DUP3 ADD MSTORE PUSH32 0x547279696E6720746F20756E6C6F636B20746F6F206D75636800000000000000 PUSH1 0x44 DUP3 ADD MSTORE PUSH1 0x64 ADD PUSH3 0x21B JUMP JUMPDEST PUSH1 0x6 SLOAD PUSH1 0x40 MLOAD PUSH4 0x2C27219B PUSH1 0xE1 SHL DUP2 MSTORE PUSH1 0x4 DUP2 ADD DUP8 SWAP1 MSTORE PUSH1 0x1 PUSH1 0x1 PUSH1 0xA0 SHL SUB SWAP1 SWAP2 AND SWAP1 PUSH4 0x584E4336 SWAP1 PUSH1 0x24 ADD JUMPDEST PUSH1 0x0 PUSH1 0x40 MLOAD DUP1 DUP4 SUB DUP2 PUSH1 0x0 DUP8 DUP1 EXTCODESIZE ISZERO DUP1 ISZERO PUSH3 0x16BB JUMPI PUSH1 0x0 DUP1 REVERT JUMPDEST POP GAS CALL ISZERO DUP1 ISZERO PUSH3 0x16D0 JUMPI RETURNDATASIZE PUSH1 0x0 DUP1 RETURNDATACOPY RETURNDATASIZE PUSH1 0x0 REVERT JUMPDEST POP POP POP POP POP POP POP POP POP JUMP JUMPDEST PUSH1 0x6 SLOAD PUSH1 0x40 MLOAD PUSH4 0x28596027 PUSH1 0xE2 SHL DUP2 MSTORE PUSH1 0x4 DUP2 ADD DUP4 SWAP1 MSTORE PUSH1 0x0 SWAP2 PUSH1 0x1 PUSH1 0x1 PUSH1 0xA0 SHL SUB AND SWAP1 PUSH4 0xA165809C SWAP1 PUSH1 0x24 ADD PUSH1 0x0 PUSH1 0x40 MLOAD DUP1 DUP4 SUB DUP2 DUP7 GAS STATICCALL ISZERO DUP1 ISZERO PUSH3 0x1726 JUMPI RETURNDATASIZE PUSH1 0x0 DUP1 RETURNDATACOPY RETURNDATASIZE PUSH1 0x0 REVERT JUMPDEST POP POP POP POP PUSH1 0x40 MLOAD RETURNDATASIZE PUSH1 0x0 DUP3 RETURNDATACOPY PUSH1 0x1F RETURNDATASIZE SWAP1 DUP2 ADD PUSH1 0x1F NOT AND DUP3 ADD PUSH1 0x40 MSTORE PUSH3 0x1750 SWAP2 SWAP1 DUP2 ADD SWAP1 PUSH3 0x371C JUMP JUMPDEST DUP1 MLOAD SWAP1 SWAP2 POP DUP3 EQ PUSH3 0x1776 JUMPI PUSH1 0x40 MLOAD PUSH3 0x461BCD PUSH1 0xE5 SHL DUP2 MSTORE PUSH1 0x4 ADD PUSH3 0x21B SWAP1 PUSH3 0x38B7 JUMP JUMPDEST DUP1 PUSH1 0xE0 ADD MLOAD DUP2 PUSH2 0x120 ADD MLOAD PUSH3 0x178D SWAP2 SWAP1 PUSH3 0x366E JUMP JUMPDEST TIMESTAMP GT PUSH3 0x17DD JUMPI PUSH1 0x40 MLOAD PUSH3 0x461BCD PUSH1 0xE5 SHL DUP2 MSTORE PUSH1 0x20 PUSH1 0x4 DUP3 ADD MSTORE PUSH1 0x1C PUSH1 0x24 DUP3 ADD MSTORE PUSH32 0x50726F706F73616C20686173206E6F7420657870697265642079657400000000 PUSH1 0x44 DUP3 ADD MSTORE PUSH1 0x64 ADD PUSH3 0x21B JUMP JUMPDEST DUP1 PUSH1 0xC0 ADD MLOAD DUP2 PUSH2 0x160 ADD MLOAD LT PUSH3 0x1845 JUMPI PUSH1 0x40 MLOAD PUSH3 0x461BCD PUSH1 0xE5 SHL DUP2 MSTORE PUSH1 0x20 PUSH1 0x4 DUP3 ADD MSTORE PUSH1 0x25 PUSH1 0x24 DUP3 ADD MSTORE PUSH32 0x50726F706F73616C20696E766573746D656E74207472657368686F6C64207265 PUSH1 0x44 DUP3 ADD MSTORE PUSH5 0x1858DA1959 PUSH1 0xDA SHL PUSH1 0x64 DUP3 ADD MSTORE PUSH1 0x84 ADD PUSH3 0x21B JUMP JUMPDEST PUSH1 0x6 SLOAD PUSH1 0x40 MLOAD PUSH4 0xD77907DF PUSH1 0xE0 SHL DUP2 MSTORE PUSH1 0x1 PUSH1 0x1 PUSH1 0xA0 SHL SUB SWAP1 SWAP2 AND SWAP1 PUSH4 0xD77907DF SWAP1 PUSH3 0x187A SWAP1 DUP6 SWAP1 PUSH1 0x2 SWAP1 PUSH1 0x4 ADD PUSH3 0x386C JUMP JUMPDEST PUSH1 0x0 PUSH1 0x40 MLOAD DUP1 DUP4 SUB DUP2 PUSH1 0x0 DUP8 DUP1 EXTCODESIZE ISZERO DUP1 ISZERO PUSH3 0x1895 JUMPI PUSH1 0x0 DUP1 REVERT JUMPDEST POP GAS CALL ISZERO DUP1 ISZERO PUSH3 0x18AA JUMPI RETURNDATASIZE PUSH1 0x0 DUP1 RETURNDATACOPY RETURNDATASIZE PUSH1 0x0 REVERT JUMPDEST POP POP PUSH1 0x6 SLOAD PUSH1 0x40 MLOAD PUSH4 0x4EEAE791 PUSH1 0xE1 SHL DUP2 MSTORE PUSH1 0x4 DUP2 ADD DUP7 SWAP1 MSTORE PUSH1 0x0 SWAP4 POP PUSH1 0x1 PUSH1 0x1 PUSH1 0xA0 SHL SUB SWAP1 SWAP2 AND SWAP2 POP PUSH4 0x9DD5CF22 SWAP1 PUSH1 0x24 ADD PUSH1 0x0 PUSH1 0x40 MLOAD DUP1 DUP4 SUB DUP2 DUP7 GAS STATICCALL ISZERO DUP1 ISZERO PUSH3 0x18FB JUMPI RETURNDATASIZE PUSH1 0x0 DUP1 RETURNDATACOPY RETURNDATASIZE PUSH1 0x0 REVERT JUMPDEST POP POP POP POP PUSH1 0x40 MLOAD RETURNDATASIZE PUSH1 0x0 DUP3 RETURNDATACOPY PUSH1 0x1F RETURNDATASIZE SWAP1 DUP2 ADD PUSH1 0x1F NOT AND DUP3 ADD PUSH1 0x40 MSTORE PUSH3 0x1925 SWAP2 SWAP1 DUP2 ADD SWAP1 PUSH3 0x38EE JUMP JUMPDEST SWAP1 POP PUSH1 0x0 JUMPDEST DUP2 MLOAD DUP2 LT ISZERO PUSH3 0x1ACD JUMPI PUSH1 0x0 DUP3 DUP3 DUP2 MLOAD DUP2 LT PUSH3 0x194B JUMPI PUSH3 0x194B PUSH3 0x3926 JUMP JUMPDEST PUSH1 0x20 SWAP1 DUP2 MUL SWAP2 SWAP1 SWAP2 ADD ADD MLOAD PUSH1 0x2 SLOAD PUSH1 0x40 MLOAD PUSH4 0x60316801 PUSH1 0xE0 SHL DUP2 MSTORE PUSH1 0x4 DUP2 ADD DUP4 SWAP1 MSTORE SWAP2 SWAP3 POP PUSH1 0x0 SWAP2 PUSH1 0x1 PUSH1 0x1 PUSH1 0xA0 SHL SUB SWAP1 SWAP2 AND SWAP1 PUSH4 0x60316801 SWAP1 PUSH1 0x24 ADD PUSH1 0xE0 PUSH1 0x40 MLOAD DUP1 DUP4 SUB DUP2 DUP7 GAS STATICCALL ISZERO DUP1 ISZERO PUSH3 0x19A6 JUMPI RETURNDATASIZE PUSH1 0x0 DUP1 RETURNDATACOPY RETURNDATASIZE PUSH1 0x0 REVERT JUMPDEST POP POP POP POP PUSH1 0x40 MLOAD RETURNDATASIZE PUSH1 0x1F NOT PUSH1 0x1F DUP3 ADD AND DUP3 ADD DUP1 PUSH1 0x40 MSTORE POP DUP2 ADD SWAP1 PUSH3 0x19CC SWAP2 SWAP1 PUSH3 0x393C JUMP JUMPDEST PUSH1 0x80 DUP2 ADD MLOAD PUSH1 0x20 DUP3 ADD MLOAD PUSH1 0xA0 DUP4 ADD MLOAD PUSH1 0x40 MLOAD PUSH4 0xA9059CBB PUSH1 0xE0 SHL DUP2 MSTORE PUSH1 0x1 PUSH1 0x1 PUSH1 0xA0 SHL SUB SWAP3 DUP4 AND PUSH1 0x4 DUP3 ADD MSTORE PUSH1 0x24 DUP2 ADD SWAP2 SWAP1 SWAP2 MSTORE SWAP3 SWAP4 POP AND SWAP1 PUSH4 0xA9059CBB SWAP1 PUSH1 0x44 ADD PUSH1 0x20 PUSH1 0x40 MLOAD DUP1 DUP4 SUB DUP2 PUSH1 0x0 DUP8 GAS CALL ISZERO DUP1 ISZERO PUSH3 0x1A2E JUMPI RETURNDATASIZE PUSH1 0x0 DUP1 RETURNDATACOPY RETURNDATASIZE PUSH1 0x0 REVERT JUMPDEST POP POP POP POP PUSH1 0x40 MLOAD RETURNDATASIZE PUSH1 0x1F NOT PUSH1 0x1F DUP3 ADD AND DUP3 ADD DUP1 PUSH1 0x40 MSTORE POP DUP2 ADD SWAP1 PUSH3 0x1A54 SWAP2 SWAP1 PUSH3 0x2B71 JUMP JUMPDEST POP PUSH1 0x2 SLOAD PUSH1 0x40 MLOAD PUSH4 0x7E79D261 PUSH1 0xE1 SHL DUP2 MSTORE PUSH1 0x4 DUP2 ADD DUP5 SWAP1 MSTORE PUSH1 0x1 PUSH1 0x1 PUSH1 0xA0 SHL SUB SWAP1 SWAP2 AND SWAP1 PUSH4 0xFCF3A4C2 SWAP1 PUSH1 0x24 ADD PUSH1 0x0 PUSH1 0x40 MLOAD DUP1 DUP4 SUB DUP2 PUSH1 0x0 DUP8 DUP1 EXTCODESIZE ISZERO DUP1 ISZERO PUSH3 0x1A9C JUMPI PUSH1 0x0 DUP1 REVERT JUMPDEST POP GAS CALL ISZERO DUP1 ISZERO PUSH3 0x1AB1 JUMPI RETURNDATASIZE PUSH1 0x0 DUP1 RETURNDATACOPY RETURNDATASIZE PUSH1 0x0 REVERT JUMPDEST POP POP POP POP POP POP DUP1 DUP1 PUSH3 0x1AC4 SWAP1 PUSH3 0x39D0 JUMP JUMPDEST SWAP2 POP POP PUSH3 0x192A JUMP JUMPDEST POP POP POP POP JUMP JUMPDEST PUSH1 0x6 SLOAD PUSH1 0x40 MLOAD PUSH4 0x28596027 PUSH1 0xE2 SHL DUP2 MSTORE PUSH1 0x4 DUP2 ADD DUP4 SWAP1 MSTORE PUSH1 0x0 SWAP2 PUSH1 0x1 PUSH1 0x1 PUSH1 0xA0 SHL SUB AND SWAP1 PUSH4 0xA165809C SWAP1 PUSH1 0x24 ADD PUSH1 0x0 PUSH1 0x40 MLOAD DUP1 DUP4 SUB DUP2 DUP7 GAS STATICCALL ISZERO DUP1 ISZERO PUSH3 0x1B1E JUMPI RETURNDATASIZE PUSH1 0x0 DUP1 RETURNDATACOPY RETURNDATASIZE PUSH1 0x0 REVERT JUMPDEST POP POP POP POP PUSH1 0x40 MLOAD RETURNDATASIZE PUSH1 0x0 DUP3 RETURNDATACOPY PUSH1 0x1F RETURNDATASIZE SWAP1 DUP2 ADD PUSH1 0x1F NOT AND DUP3 ADD PUSH1 0x40 MSTORE PUSH3 0x1B48 SWAP2 SWAP1 DUP2 ADD SWAP1 PUSH3 0x371C JUMP JUMPDEST DUP1 MLOAD SWAP1 SWAP2 POP DUP3 EQ PUSH3 0x1B6E JUMPI PUSH1 0x40 MLOAD PUSH3 0x461BCD PUSH1 0xE5 SHL DUP2 MSTORE PUSH1 0x4 ADD PUSH3 0x21B SWAP1 PUSH3 0x38B7 JUMP JUMPDEST DUP1 PUSH1 0x20 ADD MLOAD PUSH1 0x1 PUSH1 0x1 PUSH1 0xA0 SHL SUB AND CALLER PUSH1 0x1 PUSH1 0x1 PUSH1 0xA0 SHL SUB AND EQ PUSH3 0x1BD5 JUMPI PUSH1 0x40 MLOAD PUSH3 0x461BCD PUSH1 0xE5 SHL DUP2 MSTORE PUSH1 0x20 PUSH1 0x4 DUP3 ADD MSTORE PUSH1 0x1E PUSH1 0x24 DUP3 ADD MSTORE PUSH32 0x4F6E6C792070726F706F73616C2063726561746F722063616E2063616C6C0000 PUSH1 0x44 DUP3 ADD MSTORE PUSH1 0x64 ADD PUSH3 0x21B JUMP JUMPDEST DUP1 PUSH2 0x160 ADD MLOAD DUP2 PUSH1 0xC0 ADD MLOAD EQ PUSH3 0x1C39 JUMPI PUSH1 0x40 MLOAD PUSH3 0x461BCD PUSH1 0xE5 SHL DUP2 MSTORE PUSH1 0x20 PUSH1 0x4 DUP3 ADD MSTORE PUSH1 0x21 PUSH1 0x24 DUP3 ADD MSTORE PUSH32 0x5461726765742066756E64696E6720686173206E6F74206265656E2072656163 PUSH1 0x44 DUP3 ADD MSTORE PUSH1 0xD PUSH1 0xFB SHL PUSH1 0x64 DUP3 ADD MSTORE PUSH1 0x84 ADD PUSH3 0x21B JUMP JUMPDEST PUSH1 0x6 SLOAD PUSH1 0x40 MLOAD PUSH4 0x6DA9FC85 PUSH1 0xE0 SHL DUP2 MSTORE PUSH1 0x4 DUP2 ADD DUP5 SWAP1 MSTORE PUSH1 0x1 PUSH1 0x1 PUSH1 0xA0 SHL SUB SWAP1 SWAP2 AND SWAP1 PUSH4 0x6DA9FC85 SWAP1 PUSH1 0x24 ADD JUMPDEST PUSH1 0x0 PUSH1 0x40 MLOAD DUP1 DUP4 SUB DUP2 PUSH1 0x0 DUP8 DUP1 EXTCODESIZE ISZERO DUP1 ISZERO PUSH3 0x1C81 JUMPI PUSH1 0x0 DUP1 REVERT JUMPDEST POP GAS CALL ISZERO DUP1 ISZERO PUSH3 0x1C96 JUMPI RETURNDATASIZE PUSH1 0x0 DUP1 RETURNDATACOPY RETURNDATASIZE PUSH1 0x0 REVERT JUMPDEST POP POP POP POP POP POP JUMP JUMPDEST PUSH1 0x0 SLOAD PUSH3 0x10000 SWAP1 DIV PUSH1 0x1 PUSH1 0x1 PUSH1 0xA0 SHL SUB AND CALLER EQ PUSH3 0x1CD1 JUMPI PUSH1 0x40 MLOAD PUSH3 0x461BCD PUSH1 0xE5 SHL DUP2 MSTORE PUSH1 0x4 ADD PUSH3 0x21B SWAP1 PUSH3 0x3097 JUMP JUMPDEST PUSH1 0x7 SSTORE JUMP JUMPDEST PUSH1 0x0 SLOAD PUSH2 0x100 SWAP1 DIV PUSH1 0xFF AND ISZERO DUP1 DUP1 ISZERO PUSH3 0x1CF7 JUMPI POP PUSH1 0x0 SLOAD PUSH1 0x1 PUSH1 0xFF SWAP1 SWAP2 AND LT JUMPDEST DUP1 PUSH3 0x1D13 JUMPI POP ADDRESS EXTCODESIZE ISZERO DUP1 ISZERO PUSH3 0x1D13 JUMPI POP PUSH1 0x0 SLOAD PUSH1 0xFF AND PUSH1 0x1 EQ JUMPDEST PUSH3 0x1D78 JUMPI PUSH1 0x40 MLOAD PUSH3 0x461BCD PUSH1 0xE5 SHL DUP2 MSTORE PUSH1 0x20 PUSH1 0x4 DUP3 ADD MSTORE PUSH1 0x2E PUSH1 0x24 DUP3 ADD MSTORE PUSH32 0x496E697469616C697A61626C653A20636F6E747261637420697320616C726561 PUSH1 0x44 DUP3 ADD MSTORE PUSH14 0x191E481A5B9A5D1A585B1A5E9959 PUSH1 0x92 SHL PUSH1 0x64 DUP3 ADD MSTORE PUSH1 0x84 ADD PUSH3 0x21B JUMP JUMPDEST PUSH1 0x0 DUP1 SLOAD PUSH1 0xFF NOT AND PUSH1 0x1 OR SWAP1 SSTORE DUP1 ISZERO PUSH3 0x1D9C JUMPI PUSH1 0x0 DUP1 SLOAD PUSH2 0xFF00 NOT AND PUSH2 0x100 OR SWAP1 SSTORE JUMPDEST DUP6 DUP6 PUSH1 0x40 MLOAD PUSH3 0x1DAC SWAP1 PUSH3 0x2B31 JUMP JUMPDEST PUSH3 0x1DB9 SWAP3 SWAP2 SWAP1 PUSH3 0x39EC JUMP JUMPDEST PUSH1 0x40 MLOAD DUP1 SWAP2 SUB SWAP1 PUSH1 0x0 CREATE DUP1 ISZERO DUP1 ISZERO PUSH3 0x1DD6 JUMPI RETURNDATASIZE PUSH1 0x0 DUP1 RETURNDATACOPY RETURNDATASIZE PUSH1 0x0 REVERT JUMPDEST POP PUSH1 0x1 PUSH1 0x0 PUSH2 0x100 EXP DUP2 SLOAD DUP2 PUSH1 0x1 PUSH1 0x1 PUSH1 0xA0 SHL SUB MUL NOT AND SWAP1 DUP4 PUSH1 0x1 PUSH1 0x1 PUSH1 0xA0 SHL SUB AND MUL OR SWAP1 SSTORE POP DUP6 DUP6 PUSH1 0x40 MLOAD PUSH3 0x1E0D SWAP1 PUSH3 0x2B3F JUMP JUMPDEST PUSH3 0x1E1A SWAP3 SWAP2 SWAP1 PUSH3 0x39EC JUMP JUMPDEST PUSH1 0x40 MLOAD DUP1 SWAP2 SUB SWAP1 PUSH1 0x0 CREATE DUP1 ISZERO DUP1 ISZERO PUSH3 0x1E37 JUMPI RETURNDATASIZE PUSH1 0x0 DUP1 RETURNDATACOPY RETURNDATASIZE PUSH1 0x0 REVERT JUMPDEST POP PUSH1 0x2 PUSH1 0x0 PUSH2 0x100 EXP DUP2 SLOAD DUP2 PUSH1 0x1 PUSH1 0x1 PUSH1 0xA0 SHL SUB MUL NOT AND SWAP1 DUP4 PUSH1 0x1 PUSH1 0x1 PUSH1 0xA0 SHL SUB AND MUL OR SWAP1 SSTORE POP DUP6 DUP6 PUSH1 0x40 MLOAD PUSH3 0x1E6E SWAP1 PUSH3 0x2B4D JUMP JUMPDEST PUSH3 0x1E7B SWAP3 SWAP2 SWAP1 PUSH3 0x39EC JUMP JUMPDEST PUSH1 0x40 MLOAD DUP1 SWAP2 SUB SWAP1 PUSH1 0x0 CREATE DUP1 ISZERO DUP1 ISZERO PUSH3 0x1E98 JUMPI RETURNDATASIZE PUSH1 0x0 DUP1 RETURNDATACOPY RETURNDATASIZE PUSH1 0x0 REVERT JUMPDEST POP PUSH1 0x3 DUP1 SLOAD PUSH1 0x1 PUSH1 0x1 PUSH1 0xA0 SHL SUB NOT SWAP1 DUP2 AND PUSH1 0x1 PUSH1 0x1 PUSH1 0xA0 SHL SUB SWAP4 DUP5 AND OR SWAP1 SWAP2 SSTORE DUP6 MLOAD PUSH1 0x4 SSTORE PUSH1 0x20 DUP7 ADD MLOAD PUSH1 0x5 SSTORE PUSH1 0x6 DUP1 SLOAD SWAP1 SWAP2 AND SWAP2 DUP6 AND SWAP2 SWAP1 SWAP2 OR SWAP1 SSTORE PUSH1 0x8 DUP3 SWAP1 SSTORE DUP1 ISZERO PUSH3 0x1C96 JUMPI PUSH1 0x0 DUP1 SLOAD PUSH2 0xFF00 NOT AND SWAP1 SSTORE PUSH1 0x40 MLOAD PUSH1 0x1 DUP2 MSTORE PUSH32 0x7F26B83FF96E1F2B6A682F133852F6798A09C465DA95921460CEFB3847402498 SWAP1 PUSH1 0x20 ADD PUSH1 0x40 MLOAD DUP1 SWAP2 SUB SWAP1 LOG1 POP POP POP POP POP POP JUMP JUMPDEST PUSH1 0x6 SLOAD PUSH1 0x40 MLOAD PUSH4 0x28596027 PUSH1 0xE2 SHL DUP2 MSTORE PUSH1 0x4 DUP2 ADD DUP5 SWAP1 MSTORE PUSH1 0x0 SWAP2 PUSH1 0x1 PUSH1 0x1 PUSH1 0xA0 SHL SUB AND SWAP1 PUSH4 0xA165809C SWAP1 PUSH1 0x24 ADD PUSH1 0x0 PUSH1 0x40 MLOAD DUP1 DUP4 SUB DUP2 DUP7 GAS STATICCALL ISZERO DUP1 ISZERO PUSH3 0x1F73 JUMPI RETURNDATASIZE PUSH1 0x0 DUP1 RETURNDATACOPY RETURNDATASIZE PUSH1 0x0 REVERT JUMPDEST POP POP POP POP PUSH1 0x40 MLOAD RETURNDATASIZE PUSH1 0x0 DUP3 RETURNDATACOPY PUSH1 0x1F RETURNDATASIZE SWAP1 DUP2 ADD PUSH1 0x1F NOT AND DUP3 ADD PUSH1 0x40 MSTORE PUSH3 0x1F9D SWAP2 SWAP1 DUP2 ADD SWAP1 PUSH3 0x371C JUMP JUMPDEST DUP1 MLOAD SWAP1 SWAP2 POP PUSH1 0x0 SUB PUSH3 0x1FEC JUMPI PUSH1 0x40 MLOAD PUSH3 0x461BCD PUSH1 0xE5 SHL DUP2 MSTORE PUSH1 0x20 PUSH1 0x4 DUP3 ADD MSTORE PUSH1 0x16 PUSH1 0x24 DUP3 ADD MSTORE PUSH22 0x141C9BDC1BDCD85B08191BD95CDB89DD08195E1A5CDD PUSH1 0x52 SHL PUSH1 0x44 DUP3 ADD MSTORE PUSH1 0x64 ADD PUSH3 0x21B JUMP JUMPDEST PUSH1 0x3 DUP2 PUSH1 0x40 ADD MLOAD PUSH1 0x5 DUP2 GT ISZERO PUSH3 0x2007 JUMPI PUSH3 0x2007 PUSH3 0x3507 JUMP JUMPDEST EQ PUSH3 0x204B JUMPI PUSH1 0x40 MLOAD PUSH3 0x461BCD PUSH1 0xE5 SHL DUP2 MSTORE PUSH1 0x20 PUSH1 0x4 DUP3 ADD MSTORE PUSH1 0x12 PUSH1 0x24 DUP3 ADD MSTORE PUSH18 0x2B37BA34B7339034B9903737BA1037B832B7 PUSH1 0x71 SHL PUSH1 0x44 DUP3 ADD MSTORE PUSH1 0x64 ADD PUSH3 0x21B JUMP JUMPDEST PUSH1 0x6 SLOAD PUSH1 0x40 MLOAD PUSH4 0xD117658F PUSH1 0xE0 SHL DUP2 MSTORE PUSH1 0x4 DUP2 ADD DUP6 SWAP1 MSTORE PUSH1 0x0 SWAP2 PUSH1 0x1 PUSH1 0x1 PUSH1 0xA0 SHL SUB AND SWAP1 PUSH4 0xD117658F SWAP1 PUSH1 0x24 ADD PUSH1 0x20 PUSH1 0x40 MLOAD DUP1 DUP4 SUB DUP2 DUP7 GAS STATICCALL ISZERO DUP1 ISZERO PUSH3 0x2096 JUMPI RETURNDATASIZE PUSH1 0x0 DUP1 RETURNDATACOPY RETURNDATASIZE PUSH1 0x0 REVERT JUMPDEST POP POP POP POP PUSH1 0x40 MLOAD RETURNDATASIZE PUSH1 0x1F NOT PUSH1 0x1F DUP3 ADD AND DUP3 ADD DUP1 PUSH1 0x40 MSTORE POP DUP2 ADD SWAP1 PUSH3 0x20BC SWAP2 SWAP1 PUSH3 0x30CE JUMP JUMPDEST SWAP1 POP PUSH1 0x0 PUSH1 0x8 SLOAD DUP3 PUSH3 0x20D0 SWAP2 SWAP1 PUSH3 0x366E JUMP JUMPDEST SWAP1 POP DUP1 TIMESTAMP LT PUSH3 0x2118 JUMPI PUSH1 0x40 MLOAD PUSH3 0x461BCD PUSH1 0xE5 SHL DUP2 MSTORE PUSH1 0x20 PUSH1 0x4 DUP3 ADD MSTORE PUSH1 0x12 PUSH1 0x24 DUP3 ADD MSTORE PUSH18 0x2B37BA34B733903832B934B7B21037BB32B9 PUSH1 0x71 SHL PUSH1 0x44 DUP3 ADD MSTORE PUSH1 0x64 ADD PUSH3 0x21B JUMP JUMPDEST PUSH1 0x2 SLOAD PUSH1 0x40 MLOAD PUSH4 0xA32E6947 PUSH1 0xE0 SHL DUP2 MSTORE PUSH1 0x4 DUP2 ADD DUP8 SWAP1 MSTORE CALLER PUSH1 0x24 DUP3 ADD MSTORE PUSH1 0x1 PUSH1 0x1 PUSH1 0xA0 SHL SUB SWAP1 SWAP2 AND SWAP1 PUSH4 0xA32E6947 SWAP1 PUSH1 0x44 ADD PUSH1 0x20 PUSH1 0x40 MLOAD DUP1 DUP4 SUB DUP2 DUP7 GAS STATICCALL ISZERO DUP1 ISZERO PUSH3 0x2168 JUMPI RETURNDATASIZE PUSH1 0x0 DUP1 RETURNDATACOPY RETURNDATASIZE PUSH1 0x0 REVERT JUMPDEST POP POP POP POP PUSH1 0x40 MLOAD RETURNDATASIZE PUSH1 0x1F NOT PUSH1 0x1F DUP3 ADD AND DUP3 ADD DUP1 PUSH1 0x40 MSTORE POP DUP2 ADD SWAP1 PUSH3 0x218E SWAP2 SWAP1 PUSH3 0x2B71 JUMP JUMPDEST ISZERO ISZERO PUSH1 0x1 EQ PUSH3 0x21E1 JUMPI PUSH1 0x40 MLOAD PUSH3 0x461BCD PUSH1 0xE5 SHL DUP2 MSTORE PUSH1 0x20 PUSH1 0x4 DUP3 ADD MSTORE PUSH1 0x19 PUSH1 0x24 DUP3 ADD MSTORE PUSH32 0x43616C6C6572206973206E6F7420616E20696E766573746F7200000000000000 PUSH1 0x44 DUP3 ADD MSTORE PUSH1 0x64 ADD PUSH3 0x21B JUMP JUMPDEST PUSH1 0x6 SLOAD PUSH1 0x40 MLOAD PUSH4 0x598E8F0B PUSH1 0xE0 SHL DUP2 MSTORE PUSH1 0x1 PUSH1 0x1 PUSH1 0xA0 SHL SUB SWAP1 SWAP2 AND SWAP1 PUSH4 0x598E8F0B SWAP1 PUSH3 0x16A0 SWAP1 DUP9 SWAP1 CALLER SWAP1 DUP10 SWAP1 PUSH1 0x4 ADD PUSH3 0x3A1E JUMP JUMPDEST PUSH1 0x0 SLOAD PUSH3 0x10000 SWAP1 DIV PUSH1 0x1 PUSH1 0x1 PUSH1 0xA0 SHL SUB AND ISZERO PUSH3 0x2278 JUMPI PUSH1 0x40 MLOAD PUSH3 0x461BCD PUSH1 0xE5 SHL DUP2 MSTORE PUSH1 0x20 PUSH1 0x4 DUP3 ADD MSTORE PUSH1 0x1B PUSH1 0x24 DUP3 ADD MSTORE PUSH32 0x44414F3A20476F7665726E616E636520616C7265616479207365740000000000 PUSH1 0x44 DUP3 ADD MSTORE PUSH1 0x64 ADD PUSH3 0x21B JUMP JUMPDEST PUSH1 0x0 DUP1 SLOAD PUSH1 0x1 PUSH1 0x1 PUSH1 0xA0 SHL SUB SWAP1 SWAP3 AND PUSH3 0x10000 MUL PUSH3 0x10000 PUSH1 0x1 PUSH1 0xB0 SHL SUB NOT SWAP1 SWAP3 AND SWAP2 SWAP1 SWAP2 OR SWAP1 SSTORE JUMP JUMPDEST PUSH1 0x1 SLOAD PUSH1 0x40 MLOAD PUSH4 0x70A08231 PUSH1 0xE0 SHL DUP2 MSTORE CALLER PUSH1 0x4 DUP3 ADD MSTORE PUSH1 0x1 PUSH1 0x1 PUSH1 0xA0 SHL SUB SWAP1 SWAP2 AND SWAP1 PUSH4 0x70A08231 SWAP1 PUSH1 0x24 ADD PUSH1 0x20 PUSH1 0x40 MLOAD DUP1 DUP4 SUB DUP2 DUP7 GAS STATICCALL ISZERO DUP1 ISZERO PUSH3 0x22EB JUMPI RETURNDATASIZE PUSH1 0x0 DUP1 RETURNDATACOPY RETURNDATASIZE PUSH1 0x0 REVERT JUMPDEST POP POP POP POP PUSH1 0x40 MLOAD RETURNDATASIZE PUSH1 0x1F NOT PUSH1 0x1F DUP3 ADD AND DUP3 ADD DUP1 PUSH1 0x40 MSTORE POP DUP2 ADD SWAP1 PUSH3 0x2311 SWAP2 SWAP1 PUSH3 0x30CE JUMP JUMPDEST PUSH1 0x1 EQ PUSH3 0x235D JUMPI PUSH1 0x40 MLOAD PUSH3 0x461BCD PUSH1 0xE5 SHL DUP2 MSTORE PUSH1 0x20 PUSH1 0x4 DUP3 ADD MSTORE PUSH1 0x18 PUSH1 0x24 DUP3 ADD MSTORE PUSH24 0x13DB9B1E48111053C81B595B58995C8818D85B8818D85B1B PUSH1 0x42 SHL PUSH1 0x44 DUP3 ADD MSTORE PUSH1 0x64 ADD PUSH3 0x21B JUMP JUMPDEST PUSH1 0x6 SLOAD PUSH1 0x40 MLOAD PUSH4 0x75151B63 PUSH1 0xE0 SHL DUP2 MSTORE PUSH1 0x1 PUSH1 0x1 PUSH1 0xA0 SHL SUB DUP7 DUP2 AND PUSH1 0x4 DUP4 ADD MSTORE SWAP1 SWAP2 AND SWAP1 PUSH4 0x75151B63 SWAP1 PUSH1 0x24 ADD PUSH1 0x20 PUSH1 0x40 MLOAD DUP1 DUP4 SUB DUP2 DUP7 GAS STATICCALL ISZERO DUP1 ISZERO PUSH3 0x23A8 JUMPI RETURNDATASIZE PUSH1 0x0 DUP1 RETURNDATACOPY RETURNDATASIZE PUSH1 0x0 REVERT JUMPDEST POP POP POP POP PUSH1 0x40 MLOAD RETURNDATASIZE PUSH1 0x1F NOT PUSH1 0x1F DUP3 ADD AND DUP3 ADD DUP1 PUSH1 0x40 MSTORE POP DUP2 ADD SWAP1 PUSH3 0x23CE SWAP2 SWAP1 PUSH3 0x2B71 JUMP JUMPDEST PUSH3 0x2410 JUMPI PUSH1 0x40 MLOAD PUSH3 0x461BCD PUSH1 0xE5 SHL DUP2 MSTORE PUSH1 0x20 PUSH1 0x4 DUP3 ADD MSTORE PUSH1 0x11 PUSH1 0x24 DUP3 ADD MSTORE PUSH17 0x2AB739BAB83837B93A32B2103A37B5B2B7 PUSH1 0x79 SHL PUSH1 0x44 DUP3 ADD MSTORE PUSH1 0x64 ADD PUSH3 0x21B JUMP JUMPDEST PUSH1 0x4 SLOAD DUP3 GT DUP1 ISZERO PUSH3 0x2423 JUMPI POP PUSH1 0x5 SLOAD DUP3 LT JUMPDEST PUSH3 0x246B JUMPI PUSH1 0x40 MLOAD PUSH3 0x461BCD PUSH1 0xE5 SHL DUP2 MSTORE PUSH1 0x20 PUSH1 0x4 DUP3 ADD MSTORE PUSH1 0x17 PUSH1 0x24 DUP3 ADD MSTORE PUSH23 0x24B73B30B634B2103B37BA34B73390323AB930BA34B7B7 PUSH1 0x49 SHL PUSH1 0x44 DUP3 ADD MSTORE PUSH1 0x64 ADD PUSH3 0x21B JUMP JUMPDEST PUSH1 0x6 SLOAD PUSH1 0x40 DUP1 MLOAD PUSH4 0xB1CFE17 PUSH1 0xE3 SHL DUP2 MSTORE SWAP1 MLOAD PUSH1 0x0 SWAP3 PUSH1 0x1 PUSH1 0x1 PUSH1 0xA0 SHL SUB AND SWAP2 PUSH4 0x58E7F0B8 SWAP2 PUSH1 0x4 DUP1 DUP4 ADD SWAP3 PUSH1 0x20 SWAP3 SWAP2 SWAP1 DUP3 SWAP1 SUB ADD DUP2 DUP7 GAS STATICCALL ISZERO DUP1 ISZERO PUSH3 0x24B6 JUMPI RETURNDATASIZE PUSH1 0x0 DUP1 RETURNDATACOPY RETURNDATASIZE PUSH1 0x0 REVERT JUMPDEST POP POP POP POP PUSH1 0x40 MLOAD RETURNDATASIZE PUSH1 0x1F NOT PUSH1 0x1F DUP3 ADD AND DUP3 ADD DUP1 PUSH1 0x40 MSTORE POP DUP2 ADD SWAP1 PUSH3 0x24DC SWAP2 SWAP1 PUSH3 0x30CE JUMP JUMPDEST SWAP1 POP PUSH1 0x0 PUSH1 0x6 PUSH1 0x0 SWAP1 SLOAD SWAP1 PUSH2 0x100 EXP SWAP1 DIV PUSH1 0x1 PUSH1 0x1 PUSH1 0xA0 SHL SUB AND PUSH1 0x1 PUSH1 0x1 PUSH1 0xA0 SHL SUB AND PUSH4 0x6AB28BC8 PUSH1 0x40 MLOAD DUP2 PUSH4 0xFFFFFFFF AND PUSH1 0xE0 SHL DUP2 MSTORE PUSH1 0x4 ADD PUSH1 0x20 PUSH1 0x40 MLOAD DUP1 DUP4 SUB DUP2 DUP7 GAS STATICCALL ISZERO DUP1 ISZERO PUSH3 0x2534 JUMPI RETURNDATASIZE PUSH1 0x0 DUP1 RETURNDATACOPY RETURNDATASIZE PUSH1 0x0 REVERT JUMPDEST POP POP POP POP PUSH1 0x40 MLOAD RETURNDATASIZE PUSH1 0x1F NOT PUSH1 0x1F DUP3 ADD AND DUP3 ADD DUP1 PUSH1 0x40 MSTORE POP DUP2 ADD SWAP1 PUSH3 0x255A SWAP2 SWAP1 PUSH3 0x30CE JUMP JUMPDEST PUSH1 0x40 MLOAD PUSH4 0x9C2F3D23 PUSH1 0xE0 SHL DUP2 MSTORE PUSH1 0x4 DUP2 ADD DUP5 SWAP1 MSTORE PUSH1 0x24 DUP2 ADD DUP3 SWAP1 MSTORE SWAP1 SWAP2 POP PUSH1 0x0 SWAP1 PUSH20 0x0 SWAP1 PUSH4 0x9C2F3D23 SWAP1 PUSH1 0x44 ADD PUSH1 0x20 PUSH1 0x40 MLOAD DUP1 DUP4 SUB DUP2 DUP7 GAS DELEGATECALL ISZERO DUP1 ISZERO PUSH3 0x25B8 JUMPI RETURNDATASIZE PUSH1 0x0 DUP1 RETURNDATACOPY RETURNDATASIZE PUSH1 0x0 REVERT JUMPDEST POP POP POP POP PUSH1 0x40 MLOAD RETURNDATASIZE PUSH1 0x1F NOT PUSH1 0x1F DUP3 ADD AND DUP3 ADD DUP1 PUSH1 0x40 MSTORE POP DUP2 ADD SWAP1 PUSH3 0x25DE SWAP2 SWAP1 PUSH3 0x30CE JUMP JUMPDEST SWAP1 POP DUP1 DUP7 GT ISZERO PUSH3 0x2646 JUMPI PUSH1 0x40 MLOAD PUSH3 0x461BCD PUSH1 0xE5 SHL DUP2 MSTORE PUSH1 0x20 PUSH1 0x4 DUP3 ADD MSTORE PUSH1 0x2B PUSH1 0x24 DUP3 ADD MSTORE PUSH32 0x547279696E6720746F2072657175657374206D6F72652066756E64696E672074 PUSH1 0x44 DUP3 ADD MSTORE PUSH11 0x1A185B88185B1B1BDDD959 PUSH1 0xAA SHL PUSH1 0x64 DUP3 ADD MSTORE PUSH1 0x84 ADD PUSH3 0x21B JUMP JUMPDEST PUSH1 0x0 DUP12 DUP12 DUP12 DUP12 DUP12 DUP12 DUP12 DUP12 PUSH1 0x40 MLOAD PUSH1 0x20 ADD PUSH3 0x2669 SWAP9 SWAP8 SWAP7 SWAP6 SWAP5 SWAP4 SWAP3 SWAP2 SWAP1 PUSH3 0x3A55 JUMP JUMPDEST PUSH1 0x40 DUP1 MLOAD PUSH1 0x1F NOT DUP2 DUP5 SUB ADD DUP2 MSTORE DUP3 DUP3 MSTORE DUP1 MLOAD PUSH1 0x20 SWAP2 DUP3 ADD KECCAK256 PUSH2 0x1A0 DUP5 ADD DUP4 MSTORE DUP1 DUP5 MSTORE CALLER SWAP2 DUP5 ADD SWAP2 SWAP1 SWAP2 MSTORE SWAP3 POP PUSH1 0x60 SWAP2 PUSH1 0x0 SWAP2 DUP2 ADD DUP3 DUP2 MSTORE PUSH1 0x20 ADD DUP16 DUP16 DUP1 DUP1 PUSH1 0x1F ADD PUSH1 0x20 DUP1 SWAP2 DIV MUL PUSH1 0x20 ADD PUSH1 0x40 MLOAD SWAP1 DUP2 ADD PUSH1 0x40 MSTORE DUP1 SWAP4 SWAP3 SWAP2 SWAP1 DUP2 DUP2 MSTORE PUSH1 0x20 ADD DUP4 DUP4 DUP1 DUP3 DUP5 CALLDATACOPY PUSH1 0x0 DUP2 DUP5 ADD MSTORE PUSH1 0x1F NOT PUSH1 0x1F DUP3 ADD AND SWAP1 POP DUP1 DUP4 ADD SWAP3 POP POP POP POP POP POP POP DUP2 MSTORE PUSH1 0x20 ADD DUP14 DUP14 DUP1 DUP1 PUSH1 0x1F ADD PUSH1 0x20 DUP1 SWAP2 DIV MUL PUSH1 0x20 ADD PUSH1 0x40 MLOAD SWAP1 DUP2 ADD PUSH1 0x40 MSTORE DUP1 SWAP4 SWAP3 SWAP2 SWAP1 DUP2 DUP2 MSTORE PUSH1 0x20 ADD DUP4 DUP4 DUP1 DUP3 DUP5 CALLDATACOPY PUSH1 0x0 SWAP3 ADD DUP3 SWAP1 MSTORE POP SWAP4 DUP6 MSTORE POP POP POP PUSH1 0x1 PUSH1 0x1 PUSH1 0xA0 SHL SUB DUP1 DUP15 AND PUSH1 0x20 DUP5 ADD MSTORE PUSH1 0x40 DUP1 DUP5 ADD DUP15 SWAP1 MSTORE PUSH1 0x60 DUP5 ADD DUP14 SWAP1 MSTORE PUSH1 0x80 DUP5 ADD DUP13 SWAP1 MSTORE TIMESTAMP PUSH1 0xA0 DUP6 ADD MSTORE PUSH1 0xC0 DUP5 ADD DUP4 SWAP1 MSTORE PUSH1 0xE0 DUP5 ADD SWAP3 SWAP1 SWAP3 MSTORE PUSH2 0x100 SWAP1 SWAP3 ADD DUP6 SWAP1 MSTORE PUSH1 0x6 SLOAD SWAP1 MLOAD PUSH4 0x88A9BB2D PUSH1 0xE0 SHL DUP2 MSTORE SWAP3 SWAP4 POP AND SWAP1 PUSH4 0x88A9BB2D SWAP1 PUSH3 0x2793 SWAP1 DUP5 SWAP1 PUSH1 0x4 ADD PUSH3 0x3ADD JUMP JUMPDEST PUSH1 0x0 PUSH1 0x40 MLOAD DUP1 DUP4 SUB DUP2 PUSH1 0x0 DUP8 DUP1 EXTCODESIZE ISZERO DUP1 ISZERO PUSH3 0x27AE JUMPI PUSH1 0x0 DUP1 REVERT JUMPDEST POP GAS CALL ISZERO DUP1 ISZERO PUSH3 0x27C3 JUMPI RETURNDATASIZE PUSH1 0x0 DUP1 RETURNDATACOPY RETURNDATASIZE PUSH1 0x0 REVERT JUMPDEST POP POP POP POP POP POP POP POP POP POP POP POP POP POP POP POP POP POP JUMP JUMPDEST PUSH1 0x6 SLOAD PUSH1 0x40 MLOAD PUSH4 0x935E01B PUSH1 0xE2 SHL DUP2 MSTORE CALLER PUSH1 0x4 DUP3 ADD MSTORE PUSH1 0x1 PUSH1 0x1 PUSH1 0xA0 SHL SUB SWAP1 SWAP2 AND SWAP1 PUSH4 0x24D7806C SWAP1 PUSH1 0x24 ADD PUSH1 0x20 PUSH1 0x40 MLOAD DUP1 DUP4 SUB DUP2 DUP7 GAS STATICCALL ISZERO DUP1 ISZERO PUSH3 0x2820 JUMPI RETURNDATASIZE PUSH1 0x0 DUP1 RETURNDATACOPY RETURNDATASIZE PUSH1 0x0 REVERT JUMPDEST POP POP POP POP PUSH1 0x40 MLOAD RETURNDATASIZE PUSH1 0x1F NOT PUSH1 0x1F DUP3 ADD AND DUP3 ADD DUP1 PUSH1 0x40 MSTORE POP DUP2 ADD SWAP1 PUSH3 0x2846 SWAP2 SWAP1 PUSH3 0x2B71 JUMP JUMPDEST PUSH3 0x2865 JUMPI PUSH1 0x40 MLOAD PUSH3 0x461BCD PUSH1 0xE5 SHL DUP2 MSTORE PUSH1 0x4 ADD PUSH3 0x21B SWAP1 PUSH3 0x2B96 JUMP JUMPDEST SELFBALANCE DUP2 GT ISZERO PUSH3 0x28B7 JUMPI PUSH1 0x40 MLOAD PUSH3 0x461BCD PUSH1 0xE5 SHL DUP2 MSTORE PUSH1 0x20 PUSH1 0x4 DUP3 ADD DUP2 SWAP1 MSTORE PUSH1 0x24 DUP3 ADD MSTORE PUSH32 0x547279696E6720746F206C6F636B206D6F7265207468616E2062616C616E6365 PUSH1 0x44 DUP3 ADD MSTORE PUSH1 0x64 ADD PUSH3 0x21B JUMP JUMPDEST PUSH1 0x6 SLOAD PUSH1 0x40 DUP1 MLOAD PUSH4 0xD565179 PUSH1 0xE3 SHL DUP2 MSTORE SWAP1 MLOAD PUSH1 0x0 SWAP3 PUSH1 0x1 PUSH1 0x1 PUSH1 0xA0 SHL SUB AND SWAP2 PUSH4 0x6AB28BC8 SWAP2 PUSH1 0x4 DUP1 DUP4 ADD SWAP3 PUSH1 0x20 SWAP3 SWAP2 SWAP1 DUP3 SWAP1 SUB ADD DUP2 DUP7 GAS STATICCALL ISZERO DUP1 ISZERO PUSH3 0x2902 JUMPI RETURNDATASIZE PUSH1 0x0 DUP1 RETURNDATACOPY RETURNDATASIZE PUSH1 0x0 REVERT JUMPDEST POP POP POP POP PUSH1 0x40 MLOAD RETURNDATASIZE PUSH1 0x1F NOT PUSH1 0x1F DUP3 ADD AND DUP3 ADD DUP1 PUSH1 0x40 MSTORE POP DUP2 ADD SWAP1 PUSH3 0x2928 SWAP2 SWAP1 PUSH3 0x30CE JUMP JUMPDEST PUSH1 0x6 SLOAD SWAP1 SWAP2 POP PUSH1 0x1 PUSH1 0x1 PUSH1 0xA0 SHL SUB AND PUSH4 0x584E4336 PUSH3 0x2948 DUP5 DUP5 PUSH3 0x366E JUMP JUMPDEST PUSH1 0x40 MLOAD DUP3 PUSH4 0xFFFFFFFF AND PUSH1 0xE0 SHL DUP2 MSTORE PUSH1 0x4 ADD PUSH3 0x1C66 SWAP2 DUP2 MSTORE PUSH1 0x20 ADD SWAP1 JUMP JUMPDEST PUSH1 0x0 SLOAD PUSH3 0x10000 SWAP1 DIV PUSH1 0x1 PUSH1 0x1 PUSH1 0xA0 SHL SUB AND CALLER EQ PUSH3 0x299A JUMPI PUSH1 0x40 MLOAD PUSH3 0x461BCD PUSH1 0xE5 SHL DUP2 MSTORE PUSH1 0x4 ADD PUSH3 0x21B SWAP1 PUSH3 0x3097 JUMP JUMPDEST PUSH1 0x8 SSTORE JUMP JUMPDEST PUSH1 0x6 SLOAD PUSH1 0x40 MLOAD PUSH4 0x28596027 PUSH1 0xE2 SHL DUP2 MSTORE PUSH1 0x4 DUP2 ADD DUP4 SWAP1 MSTORE PUSH1 0x0 SWAP2 PUSH1 0x1 PUSH1 0x1 PUSH1 0xA0 SHL SUB AND SWAP1 PUSH4 0xA165809C SWAP1 PUSH1 0x24 ADD PUSH1 0x0 PUSH1 0x40 MLOAD DUP1 DUP4 SUB DUP2 DUP7 GAS STATICCALL ISZERO DUP1 ISZERO PUSH3 0x29EA JUMPI RETURNDATASIZE PUSH1 0x0 DUP1 RETURNDATACOPY RETURNDATASIZE PUSH1 0x0 REVERT JUMPDEST POP POP POP POP PUSH1 0x40 MLOAD RETURNDATASIZE PUSH1 0x0 DUP3 RETURNDATACOPY PUSH1 0x1F RETURNDATASIZE SWAP1 DUP2 ADD PUSH1 0x1F NOT AND DUP3 ADD PUSH1 0x40 MSTORE PUSH3 0x2A14 SWAP2 SWAP1 DUP2 ADD SWAP1 PUSH3 0x371C JUMP JUMPDEST DUP1 MLOAD SWAP1 SWAP2 POP DUP3 EQ PUSH3 0x2A3A JUMPI PUSH1 0x40 MLOAD PUSH3 0x461BCD PUSH1 0xE5 SHL DUP2 MSTORE PUSH1 0x4 ADD PUSH3 0x21B SWAP1 PUSH3 0x38B7 JUMP JUMPDEST PUSH1 0x1 DUP2 PUSH1 0x40 ADD MLOAD PUSH1 0x5 DUP2 GT ISZERO PUSH3 0x2A55 JUMPI PUSH3 0x2A55 PUSH3 0x3507 JUMP JUMPDEST EQ PUSH3 0x2A94 JUMPI PUSH1 0x40 MLOAD PUSH3 0x461BCD PUSH1 0xE5 SHL DUP2 MSTORE PUSH1 0x20 PUSH1 0x4 DUP3 ADD MSTORE PUSH1 0xD PUSH1 0x24 DUP3 ADD MSTORE PUSH13 0x496E76616C6964207374617465 PUSH1 0x98 SHL PUSH1 0x44 DUP3 ADD MSTORE PUSH1 0x64 ADD PUSH3 0x21B JUMP JUMPDEST DUP1 PUSH2 0x100 ADD MLOAD DUP2 PUSH2 0x140 ADD MLOAD PUSH3 0x2AAC SWAP2 SWAP1 PUSH3 0x366E JUMP JUMPDEST TIMESTAMP GT PUSH3 0x2AFC JUMPI PUSH1 0x40 MLOAD PUSH3 0x461BCD PUSH1 0xE5 SHL DUP2 MSTORE PUSH1 0x20 PUSH1 0x4 DUP3 ADD MSTORE PUSH1 0x1B PUSH1 0x24 DUP3 ADD MSTORE PUSH32 0x526573656172636820706572696F64206973206E6F74206F7665720000000000 PUSH1 0x44 DUP3 ADD MSTORE PUSH1 0x64 ADD PUSH3 0x21B JUMP JUMPDEST PUSH1 0x6 SLOAD PUSH1 0x40 MLOAD PUSH4 0xD77907DF PUSH1 0xE0 SHL DUP2 MSTORE PUSH1 0x1 PUSH1 0x1 PUSH1 0xA0 SHL SUB SWAP1 SWAP2 AND SWAP1 PUSH4 0xD77907DF SWAP1 PUSH3 0x1C66 SWAP1 DUP6 SWAP1 PUSH1 0x3 SWAP1 PUSH1 0x4 ADD PUSH3 0x386C JUMP JUMPDEST PUSH2 0x31D7 DUP1 PUSH3 0x3BED DUP4 CODECOPY ADD SWAP1 JUMP JUMPDEST PUSH2 0x2473 DUP1 PUSH3 0x6DC4 DUP4 CODECOPY ADD SWAP1 JUMP JUMPDEST PUSH2 0x2048 DUP1 PUSH3 0x9237 DUP4 CODECOPY ADD SWAP1 JUMP JUMPDEST DUP1 MLOAD DUP1 ISZERO ISZERO DUP2 EQ PUSH3 0x2B6C JUMPI PUSH1 0x0 DUP1 REVERT JUMPDEST SWAP2 SWAP1 POP JUMP JUMPDEST PUSH1 0x0 PUSH1 0x20 DUP3 DUP5 SUB SLT ISZERO PUSH3 0x2B84 JUMPI PUSH1 0x0 DUP1 REVERT JUMPDEST PUSH3 0x2B8F DUP3 PUSH3 0x2B5B JUMP JUMPDEST SWAP4 SWAP3 POP POP POP JUMP JUMPDEST PUSH1 0x20 DUP1 DUP3 MSTORE PUSH1 0x13 SWAP1 DUP3 ADD MSTORE PUSH19 0x13DB9B1E4818591B5A5B8818D85B8818D85B1B PUSH1 0x6A SHL PUSH1 0x40 DUP3 ADD MSTORE PUSH1 0x60 ADD SWAP1 JUMP JUMPDEST PUSH1 0x1 PUSH1 0x1 PUSH1 0xA0 SHL SUB DUP2 AND DUP2 EQ PUSH3 0x2BD9 JUMPI PUSH1 0x0 DUP1 REVERT JUMPDEST POP JUMP JUMPDEST PUSH1 0x0 DUP1 PUSH1 0x40 DUP4 DUP6 SUB SLT ISZERO PUSH3 0x2BF0 JUMPI PUSH1 0x0 DUP1 REVERT JUMPDEST DUP3 CALLDATALOAD SWAP2 POP PUSH1 0x20 DUP4 ADD CALLDATALOAD PUSH3 0x2C04 DUP2 PUSH3 0x2BC3 JUMP JUMPDEST DUP1 SWAP2 POP POP SWAP3 POP SWAP3 SWAP1 POP JUMP JUMPDEST PUSH1 0x0 PUSH1 0x20 DUP3 DUP5 SUB SLT ISZERO PUSH3 0x2C22 JUMPI PUSH1 0x0 DUP1 REVERT JUMPDEST POP CALLDATALOAD SWAP2 SWAP1 POP JUMP JUMPDEST PUSH1 0x0 PUSH1 0x40 DUP3 DUP5 SUB SLT ISZERO PUSH3 0x2C3C JUMPI PUSH1 0x0 DUP1 REVERT JUMPDEST POP SWAP2 SWAP1 POP JUMP JUMPDEST PUSH1 0x0 DUP1 DUP4 PUSH1 0x1F DUP5 ADD SLT PUSH3 0x2C55 JUMPI PUSH1 0x0 DUP1 REVERT JUMPDEST POP DUP2 CALLDATALOAD PUSH1 0x1 PUSH1 0x1 PUSH1 0x40 SHL SUB DUP2 GT ISZERO PUSH3 0x2C6D JUMPI PUSH1 0x0 DUP1 REVERT JUMPDEST PUSH1 0x20 DUP4 ADD SWAP2 POP DUP4 PUSH1 0x20 DUP3 DUP6 ADD ADD GT ISZERO PUSH3 0x2C86 JUMPI PUSH1 0x0 DUP1 REVERT JUMPDEST SWAP3 POP SWAP3 SWAP1 POP JUMP JUMPDEST PUSH1 0x0 DUP1 PUSH1 0x0 DUP1 PUSH1 0x0 DUP1 PUSH1 0x0 PUSH1 0x80 DUP9 DUP11 SUB SLT ISZERO PUSH3 0x2CA9 JUMPI PUSH1 0x0 DUP1 REVERT JUMPDEST DUP8 CALLDATALOAD PUSH1 0x1 PUSH1 0x1 PUSH1 0x40 SHL SUB DUP1 DUP3 GT ISZERO PUSH3 0x2CC1 JUMPI PUSH1 0x0 DUP1 REVERT JUMPDEST PUSH3 0x2CCF DUP12 DUP4 DUP13 ADD PUSH3 0x2C42 JUMP JUMPDEST SWAP1 SWAP10 POP SWAP8 POP PUSH1 0x20 DUP11 ADD CALLDATALOAD SWAP2 POP DUP1 DUP3 GT ISZERO PUSH3 0x2CE9 JUMPI PUSH1 0x0 DUP1 REVERT JUMPDEST PUSH3 0x2CF7 DUP12 DUP4 DUP13 ADD PUSH3 0x2C42 JUMP JUMPDEST SWAP1 SWAP8 POP SWAP6 POP PUSH1 0x40 DUP11 ADD CALLDATALOAD SWAP5 POP PUSH1 0x60 DUP11 ADD CALLDATALOAD SWAP2 POP DUP1 DUP3 GT ISZERO PUSH3 0x2D18 JUMPI PUSH1 0x0 DUP1 REVERT JUMPDEST POP PUSH3 0x2D27 DUP11 DUP3 DUP12 ADD PUSH3 0x2C42 JUMP JUMPDEST SWAP9 SWAP12 SWAP8 SWAP11 POP SWAP6 SWAP9 POP SWAP4 SWAP7 SWAP3 SWAP6 SWAP3 SWAP4 POP POP POP JUMP JUMPDEST PUSH1 0x0 DUP1 PUSH1 0x40 DUP4 DUP6 SUB SLT ISZERO PUSH3 0x2D4E JUMPI PUSH1 0x0 DUP1 REVERT JUMPDEST POP POP DUP1 CALLDATALOAD SWAP3 PUSH1 0x20 SWAP1 SWAP2 ADD CALLDATALOAD SWAP2 POP JUMP JUMPDEST PUSH4 0x4E487B71 PUSH1 0xE0 SHL PUSH1 0x0 MSTORE PUSH1 0x41 PUSH1 0x4 MSTORE PUSH1 0x24 PUSH1 0x0 REVERT JUMPDEST PUSH1 0x40 DUP1 MLOAD SWAP1 DUP2 ADD PUSH1 0x1 PUSH1 0x1 PUSH1 0x40 SHL SUB DUP2 GT DUP3 DUP3 LT OR ISZERO PUSH3 0x2D98 JUMPI PUSH3 0x2D98 PUSH3 0x2D5D JUMP JUMPDEST PUSH1 0x40 MSTORE SWAP1 JUMP JUMPDEST PUSH1 0x40 MLOAD PUSH1 0xC0 DUP2 ADD PUSH1 0x1 PUSH1 0x1 PUSH1 0x40 SHL SUB DUP2 GT DUP3 DUP3 LT OR ISZERO PUSH3 0x2D98 JUMPI PUSH3 0x2D98 PUSH3 0x2D5D JUMP JUMPDEST PUSH1 0x40 MLOAD PUSH2 0x180 DUP2 ADD PUSH1 0x1 PUSH1 0x1 PUSH1 0x40 SHL SUB DUP2 GT DUP3 DUP3 LT OR ISZERO PUSH3 0x2D98 JUMPI PUSH3 0x2D98 PUSH3 0x2D5D JUMP JUMPDEST PUSH1 0x40 MLOAD PUSH2 0x1A0 DUP2 ADD PUSH1 0x1 PUSH1 0x1 PUSH1 0x40 SHL SUB DUP2 GT DUP3 DUP3 LT OR ISZERO PUSH3 0x2D98 JUMPI PUSH3 0x2D98 PUSH3 0x2D5D JUMP JUMPDEST PUSH1 0x40 MLOAD PUSH1 0xE0 DUP2 ADD PUSH1 0x1 PUSH1 0x1 PUSH1 0x40 SHL SUB DUP2 GT DUP3 DUP3 LT OR ISZERO PUSH3 0x2D98 JUMPI PUSH3 0x2D98 PUSH3 0x2D5D JUMP JUMPDEST PUSH1 0x40 MLOAD PUSH1 0x1F DUP3 ADD PUSH1 0x1F NOT AND DUP2 ADD PUSH1 0x1 PUSH1 0x1 PUSH1 0x40 SHL SUB DUP2 GT DUP3 DUP3 LT OR ISZERO PUSH3 0x2E5F JUMPI PUSH3 0x2E5F PUSH3 0x2D5D JUMP JUMPDEST PUSH1 0x40 MSTORE SWAP2 SWAP1 POP JUMP JUMPDEST PUSH1 0x0 PUSH1 0x1 PUSH1 0x1 PUSH1 0x40 SHL SUB DUP3 GT ISZERO PUSH3 0x2E83 JUMPI PUSH3 0x2E83 PUSH3 0x2D5D JUMP JUMPDEST POP PUSH1 0x1F ADD PUSH1 0x1F NOT AND PUSH1 0x20 ADD SWAP1 JUMP JUMPDEST PUSH1 0x0 DUP3 PUSH1 0x1F DUP4 ADD SLT PUSH3 0x2EA3 JUMPI PUSH1 0x0 DUP1 REVERT JUMPDEST DUP2 CALLDATALOAD PUSH3 0x2EBA PUSH3 0x2EB4 DUP3 PUSH3 0x2E67 JUMP JUMPDEST PUSH3 0x2E34 JUMP JUMPDEST DUP2 DUP2 MSTORE DUP5 PUSH1 0x20 DUP4 DUP7 ADD ADD GT ISZERO PUSH3 0x2ED0 JUMPI PUSH1 0x0 DUP1 REVERT JUMPDEST DUP2 PUSH1 0x20 DUP6 ADD PUSH1 0x20 DUP4 ADD CALLDATACOPY PUSH1 0x0 SWAP2 DUP2 ADD PUSH1 0x20 ADD SWAP2 SWAP1 SWAP2 MSTORE SWAP4 SWAP3 POP POP POP JUMP JUMPDEST PUSH1 0x0 DUP1 PUSH1 0x0 DUP1 PUSH1 0x0 DUP6 DUP8 SUB PUSH1 0xC0 DUP2 SLT ISZERO PUSH3 0x2F07 JUMPI PUSH1 0x0 DUP1 REVERT JUMPDEST DUP7 CALLDATALOAD PUSH1 0x1 PUSH1 0x1 PUSH1 0x40 SHL SUB DUP1 DUP3 GT ISZERO PUSH3 0x2F1F JUMPI PUSH1 0x0 DUP1 REVERT JUMPDEST PUSH3 0x2F2D DUP11 DUP4 DUP12 ADD PUSH3 0x2E91 JUMP JUMPDEST SWAP8 POP PUSH1 0x20 DUP10 ADD CALLDATALOAD SWAP2 POP DUP1 DUP3 GT ISZERO PUSH3 0x2F44 JUMPI PUSH1 0x0 DUP1 REVERT JUMPDEST POP PUSH3 0x2F53 DUP10 DUP3 DUP11 ADD PUSH3 0x2E91 JUMP JUMPDEST SWAP6 POP POP PUSH1 0x40 PUSH1 0x3F NOT DUP3 ADD SLT ISZERO PUSH3 0x2F69 JUMPI PUSH1 0x0 DUP1 REVERT JUMPDEST POP PUSH3 0x2F74 PUSH3 0x2D73 JUMP JUMPDEST PUSH1 0x40 DUP8 ADD CALLDATALOAD DUP2 MSTORE PUSH1 0x60 DUP8 ADD CALLDATALOAD PUSH1 0x20 DUP3 ADD MSTORE SWAP3 POP PUSH1 0x80 DUP7 ADD CALLDATALOAD PUSH3 0x2F97 DUP2 PUSH3 0x2BC3 JUMP JUMPDEST SWAP5 SWAP8 SWAP4 SWAP7 POP SWAP2 SWAP5 PUSH1 0xA0 ADD CALLDATALOAD SWAP3 SWAP2 POP POP JUMP JUMPDEST PUSH1 0x0 DUP1 PUSH1 0x40 DUP4 DUP6 SUB SLT ISZERO PUSH3 0x2FBC JUMPI PUSH1 0x0 DUP1 REVERT JUMPDEST DUP3 CALLDATALOAD SWAP2 POP PUSH1 0x20 DUP4 ADD CALLDATALOAD PUSH1 0x3 DUP2 LT PUSH3 0x2C04 JUMPI PUSH1 0x0 DUP1 REVERT JUMPDEST PUSH1 0x0 PUSH1 0x20 DUP3 DUP5 SUB SLT ISZERO PUSH3 0x2FE6 JUMPI PUSH1 0x0 DUP1 REVERT JUMPDEST DUP2 CALLDATALOAD PUSH3 0x2B8F DUP2 PUSH3 0x2BC3 JUMP JUMPDEST PUSH1 0x0 DUP1 PUSH1 0x0 DUP1 PUSH1 0x0 DUP1 PUSH1 0x0 DUP1 PUSH1 0xC0 DUP10 DUP12 SUB SLT ISZERO PUSH3 0x3010 JUMPI PUSH1 0x0 DUP1 REVERT JUMPDEST DUP9 CALLDATALOAD PUSH1 0x1 PUSH1 0x1 PUSH1 0x40 SHL SUB DUP1 DUP3 GT ISZERO PUSH3 0x3028 JUMPI PUSH1 0x0 DUP1 REVERT JUMPDEST PUSH3 0x3036 DUP13 DUP4 DUP14 ADD PUSH3 0x2C42 JUMP JUMPDEST SWAP1 SWAP11 POP SWAP9 POP PUSH1 0x20 DUP12 ADD CALLDATALOAD SWAP2 POP DUP1 DUP3 GT ISZERO PUSH3 0x3050 JUMPI PUSH1 0x0 DUP1 REVERT JUMPDEST POP PUSH3 0x305F DUP12 DUP3 DUP13 ADD PUSH3 0x2C42 JUMP JUMPDEST SWAP1 SWAP8 POP SWAP6 POP POP PUSH1 0x40 DUP10 ADD CALLDATALOAD PUSH3 0x3075 DUP2 PUSH3 0x2BC3 JUMP JUMPDEST SWAP8 SWAP11 SWAP7 SWAP10 POP SWAP5 SWAP8 SWAP4 SWAP7 SWAP6 PUSH1 0x60 DUP6 ADD CALLDATALOAD SWAP6 POP PUSH1 0x80 DUP6 ADD CALLDATALOAD SWAP5 PUSH1 0xA0 ADD CALLDATALOAD SWAP4 POP SWAP2 POP POP JUMP JUMPDEST PUSH1 0x20 DUP1 DUP3 MSTORE PUSH1 0x18 SWAP1 DUP3 ADD MSTORE PUSH32 0x4F6E6C7920676F7665726E616E63652063616E2063616C6C0000000000000000 PUSH1 0x40 DUP3 ADD MSTORE PUSH1 0x60 ADD SWAP1 JUMP JUMPDEST PUSH1 0x0 PUSH1 0x20 DUP3 DUP5 SUB SLT ISZERO PUSH3 0x30E1 JUMPI PUSH1 0x0 DUP1 REVERT JUMPDEST POP MLOAD SWAP2 SWAP1 POP JUMP JUMPDEST PUSH4 0x4E487B71 PUSH1 0xE0 SHL PUSH1 0x0 MSTORE PUSH1 0x11 PUSH1 0x4 MSTORE PUSH1 0x24 PUSH1 0x0 REVERT JUMPDEST DUP2 DUP2 SUB DUP2 DUP2 GT ISZERO PUSH3 0x3114 JUMPI PUSH3 0x3114 PUSH3 0x30E8 JUMP JUMPDEST SWAP3 SWAP2 POP POP JUMP JUMPDEST DUP1 MLOAD PUSH3 0x2B6C DUP2 PUSH3 0x2BC3 JUMP JUMPDEST PUSH1 0x0 JUMPDEST DUP4 DUP2 LT ISZERO PUSH3 0x3144 JUMPI DUP2 DUP2 ADD MLOAD DUP4 DUP3 ADD MSTORE PUSH1 0x20 ADD PUSH3 0x312A JUMP JUMPDEST POP POP PUSH1 0x0 SWAP2 ADD MSTORE JUMP JUMPDEST PUSH1 0x0 DUP3 PUSH1 0x1F DUP4 ADD SLT PUSH3 0x315F JUMPI PUSH1 0x0 DUP1 REVERT JUMPDEST DUP2 MLOAD PUSH3 0x3170 PUSH3 0x2EB4 DUP3 PUSH3 0x2E67 JUMP JUMPDEST DUP2 DUP2 MSTORE DUP5 PUSH1 0x20 DUP4 DUP7 ADD ADD GT ISZERO PUSH3 0x3186 JUMPI PUSH1 0x0 DUP1 REVERT JUMPDEST PUSH3 0x3199 DUP3 PUSH1 0x20 DUP4 ADD PUSH1 0x20 DUP8 ADD PUSH3 0x3127 JUMP JUMPDEST SWAP5 SWAP4 POP POP POP POP JUMP JUMPDEST PUSH1 0x0 PUSH1 0x20 DUP3 DUP5 SUB SLT ISZERO PUSH3 0x31B4 JUMPI PUSH1 0x0 DUP1 REVERT JUMPDEST DUP2 MLOAD PUSH1 0x1 PUSH1 0x1 PUSH1 0x40 SHL SUB DUP1 DUP3 GT ISZERO PUSH3 0x31CC JUMPI PUSH1 0x0 DUP1 REVERT JUMPDEST SWAP1 DUP4 ADD SWAP1 PUSH1 0xC0 DUP3 DUP7 SUB SLT ISZERO PUSH3 0x31E1 JUMPI PUSH1 0x0 DUP1 REVERT JUMPDEST PUSH3 0x31EB PUSH3 0x2D9E JUMP JUMPDEST DUP3 MLOAD DUP2 MSTORE PUSH3 0x31FD PUSH1 0x20 DUP5 ADD PUSH3 0x311A JUMP JUMPDEST PUSH1 0x20 DUP3 ADD MSTORE PUSH1 0x40 DUP4 ADD MLOAD DUP3 DUP2 GT ISZERO PUSH3 0x3215 JUMPI PUSH1 0x0 DUP1 REVERT JUMPDEST PUSH3 0x3223 DUP8 DUP3 DUP7 ADD PUSH3 0x314D JUMP JUMPDEST PUSH1 0x40 DUP4 ADD MSTORE POP PUSH1 0x60 DUP4 ADD MLOAD DUP3 DUP2 GT ISZERO PUSH3 0x323C JUMPI PUSH1 0x0 DUP1 REVERT JUMPDEST PUSH3 0x324A DUP8 DUP3 DUP7 ADD PUSH3 0x314D JUMP JUMPDEST PUSH1 0x60 DUP4 ADD MSTORE POP PUSH1 0x80 DUP4 ADD MLOAD DUP3 DUP2 GT ISZERO PUSH3 0x3263 JUMPI PUSH1 0x0 DUP1 REVERT JUMPDEST PUSH3 0x3271 DUP8 DUP3 DUP7 ADD PUSH3 0x314D JUMP JUMPDEST PUSH1 0x80 DUP4 ADD MSTORE POP PUSH1 0xA0 DUP4 ADD MLOAD PUSH1 0xA0 DUP3 ADD MSTORE DUP1 SWAP4 POP POP POP POP SWAP3 SWAP2 POP POP JUMP JUMPDEST PUSH1 0x0 PUSH1 0x40 DUP3 DUP5 SUB SLT ISZERO PUSH3 0x32A0 JUMPI PUSH1 0x0 DUP1 REVERT JUMPDEST PUSH3 0x32AA PUSH3 0x2D73 JUMP JUMPDEST DUP3 MLOAD DUP2 MSTORE PUSH3 0x32BC PUSH1 0x20 DUP5 ADD PUSH3 0x2B5B JUMP JUMPDEST PUSH1 0x20 DUP3 ADD MSTORE SWAP4 SWAP3 POP POP POP JUMP JUMPDEST DUP1 MLOAD PUSH1 0x1 PUSH1 0x1 PUSH1 0x40 SHL SUB DUP2 AND DUP2 EQ PUSH3 0x2B6C JUMPI PUSH1 0x0 DUP1 REVERT JUMPDEST DUP1 MLOAD PUSH1 0x7 DUP2 SWAP1 SIGNEXTEND DUP2 EQ PUSH3 0x2B6C JUMPI PUSH1 0x0 DUP1 REVERT JUMPDEST PUSH1 0x0 PUSH1 0x80 DUP3 DUP5 SUB SLT ISZERO PUSH3 0x3306 JUMPI PUSH1 0x0 DUP1 REVERT JUMPDEST PUSH1 0x40 MLOAD PUSH1 0x80 DUP2 ADD PUSH1 0x1 PUSH1 0x1 PUSH1 0x40 SHL SUB DUP3 DUP3 LT DUP2 DUP4 GT OR ISZERO PUSH3 0x332C JUMPI PUSH3 0x332C PUSH3 0x2D5D JUMP JUMPDEST DUP2 PUSH1 0x40 MSTORE DUP3 SWAP4 POP DUP5 MLOAD SWAP2 POP DUP1 DUP3 GT ISZERO PUSH3 0x3345 JUMPI PUSH1 0x0 DUP1 REVERT JUMPDEST POP PUSH3 0x3354 DUP6 DUP3 DUP7 ADD PUSH3 0x314D JUMP JUMPDEST DUP3 MSTORE POP PUSH3 0x3365 PUSH1 0x20 DUP5 ADD PUSH3 0x32C8 JUMP JUMPDEST PUSH1 0x20 DUP3 ADD MSTORE PUSH3 0x3378 PUSH1 0x40 DUP5 ADD PUSH3 0x2B5B JUMP JUMPDEST PUSH1 0x40 DUP3 ADD MSTORE PUSH3 0x338B PUSH1 0x60 DUP5 ADD PUSH3 0x2B5B JUMP JUMPDEST PUSH1 0x60 DUP3 ADD MSTORE POP SWAP3 SWAP2 POP POP JUMP JUMPDEST PUSH1 0x0 PUSH1 0x20 DUP3 DUP5 SUB SLT ISZERO PUSH3 0x33AA JUMPI PUSH1 0x0 DUP1 REVERT JUMPDEST DUP2 MLOAD PUSH1 0x1 PUSH1 0x1 PUSH1 0x40 SHL SUB DUP1 DUP3 GT ISZERO PUSH3 0x33C2 JUMPI PUSH1 0x0 DUP1 REVERT JUMPDEST SWAP1 DUP4 ADD SWAP1 PUSH2 0x180 DUP3 DUP7 SUB SLT ISZERO PUSH3 0x33D8 JUMPI PUSH1 0x0 DUP1 REVERT JUMPDEST PUSH3 0x33E2 PUSH3 0x2DC3 JUMP JUMPDEST DUP3 MLOAD DUP3 DUP2 GT ISZERO PUSH3 0x33F2 JUMPI PUSH1 0x0 DUP1 REVERT JUMPDEST PUSH3 0x3400 DUP8 DUP3 DUP7 ADD PUSH3 0x314D JUMP JUMPDEST DUP3 MSTORE POP PUSH3 0x3411 PUSH1 0x20 DUP5 ADD PUSH3 0x32C8 JUMP JUMPDEST PUSH1 0x20 DUP3 ADD MSTORE PUSH3 0x3424 PUSH1 0x40 DUP5 ADD PUSH3 0x2B5B JUMP JUMPDEST PUSH1 0x40 DUP3 ADD MSTORE PUSH1 0x60 DUP4 ADD MLOAD DUP3 DUP2 GT ISZERO PUSH3 0x343C JUMPI PUSH1 0x0 DUP1 REVERT JUMPDEST PUSH3 0x344A DUP8 DUP3 DUP7 ADD PUSH3 0x314D JUMP JUMPDEST PUSH1 0x60 DUP4 ADD MSTORE POP PUSH3 0x345E PUSH1 0x80 DUP5 ADD PUSH3 0x32E0 JUMP JUMPDEST PUSH1 0x80 DUP3 ADD MSTORE PUSH3 0x3471 PUSH1 0xA0 DUP5 ADD PUSH3 0x32E0 JUMP JUMPDEST PUSH1 0xA0 DUP3 ADD MSTORE PUSH1 0xC0 DUP4 ADD MLOAD PUSH1 0xC0 DUP3 ADD MSTORE PUSH1 0xE0 DUP4 ADD MLOAD PUSH1 0xE0 DUP3 ADD MSTORE PUSH2 0x100 DUP1 DUP5 ADD MLOAD DUP2 DUP4 ADD MSTORE POP PUSH2 0x120 DUP1 DUP5 ADD MLOAD DUP4 DUP2 GT ISZERO PUSH3 0x34AB JUMPI PUSH1 0x0 DUP1 REVERT JUMPDEST PUSH3 0x34B9 DUP9 DUP3 DUP8 ADD PUSH3 0x314D JUMP JUMPDEST DUP3 DUP5 ADD MSTORE POP POP PUSH2 0x140 PUSH3 0x34CF DUP2 DUP6 ADD PUSH3 0x32C8 JUMP JUMPDEST SWAP1 DUP3 ADD MSTORE PUSH2 0x160 DUP4 DUP2 ADD MLOAD DUP4 DUP2 GT ISZERO PUSH3 0x34E8 JUMPI PUSH1 0x0 DUP1 REVERT JUMPDEST PUSH3 0x34F6 DUP9 DUP3 DUP8 ADD PUSH3 0x32F3 JUMP JUMPDEST SWAP2 DUP4 ADD SWAP2 SWAP1 SWAP2 MSTORE POP SWAP6 SWAP5 POP POP POP POP POP JUMP JUMPDEST PUSH4 0x4E487B71 PUSH1 0xE0 SHL PUSH1 0x0 MSTORE PUSH1 0x21 PUSH1 0x4 MSTORE PUSH1 0x24 PUSH1 0x0 REVERT JUMPDEST PUSH1 0x0 DUP2 MLOAD DUP1 DUP5 MSTORE PUSH3 0x3537 DUP2 PUSH1 0x20 DUP7 ADD PUSH1 0x20 DUP7 ADD PUSH3 0x3127 JUMP JUMPDEST PUSH1 0x1F ADD PUSH1 0x1F NOT AND SWAP3 SWAP1 SWAP3 ADD PUSH1 0x20 ADD SWAP3 SWAP2 POP POP JUMP JUMPDEST PUSH1 0x20 DUP2 MSTORE PUSH1 0x0 PUSH3 0x2B8F PUSH1 0x20 DUP4 ADD DUP5 PUSH3 0x351D JUMP JUMPDEST PUSH1 0x0 PUSH1 0x20 DUP3 DUP5 SUB SLT ISZERO PUSH3 0x3573 JUMPI PUSH1 0x0 DUP1 REVERT JUMPDEST DUP2 MLOAD PUSH1 0x5 DUP2 LT PUSH3 0x2B8F JUMPI PUSH1 0x0 DUP1 REVERT JUMPDEST PUSH1 0x1 PUSH1 0x1 PUSH1 0xA0 SHL SUB DUP4 AND DUP2 MSTORE PUSH1 0x40 PUSH1 0x20 DUP3 ADD DUP2 SWAP1 MSTORE PUSH1 0x0 SWAP1 PUSH3 0x3199 SWAP1 DUP4 ADD DUP5 PUSH3 0x351D JUMP JUMPDEST PUSH12 0xFFFFFFFFFFFFFFFFFFFFFFFF NOT DUP5 PUSH1 0x60 SHL AND DUP2 MSTORE DUP2 DUP4 PUSH1 0x14 DUP4 ADD CALLDATACOPY PUSH1 0x0 SWAP2 ADD PUSH1 0x14 ADD SWAP1 DUP2 MSTORE SWAP3 SWAP2 POP POP JUMP JUMPDEST DUP3 DUP2 MSTORE PUSH1 0x40 PUSH1 0x20 DUP1 DUP4 ADD DUP3 SWAP1 MSTORE DUP4 MLOAD DUP3 DUP5 ADD MSTORE DUP4 ADD MLOAD PUSH1 0x1 PUSH1 0x1 PUSH1 0xA0 SHL SUB AND PUSH1 0x60 DUP4 ADD MSTORE DUP3 ADD MLOAD PUSH1 0xC0 PUSH1 0x80 DUP4 ADD MSTORE PUSH1 0x0 SWAP1 PUSH3 0x3616 PUSH2 0x100 DUP5 ADD DUP3 PUSH3 0x351D JUMP JUMPDEST SWAP1 POP PUSH1 0x60 DUP5 ADD MLOAD PUSH1 0x3F NOT DUP1 DUP6 DUP5 SUB ADD PUSH1 0xA0 DUP7 ADD MSTORE PUSH3 0x3636 DUP4 DUP4 PUSH3 0x351D JUMP JUMPDEST SWAP3 POP PUSH1 0x80 DUP7 ADD MLOAD SWAP2 POP DUP1 DUP6 DUP5 SUB ADD PUSH1 0xC0 DUP7 ADD MSTORE POP PUSH3 0x3656 DUP3 DUP3 PUSH3 0x351D JUMP JUMPDEST SWAP2 POP POP PUSH1 0xA0 DUP5 ADD MLOAD PUSH1 0xE0 DUP5 ADD MSTORE DUP1 SWAP2 POP POP SWAP4 SWAP3 POP POP POP JUMP JUMPDEST DUP1 DUP3 ADD DUP1 DUP3 GT ISZERO PUSH3 0x3114 JUMPI PUSH3 0x3114 PUSH3 0x30E8 JUMP JUMPDEST DUP1 MLOAD PUSH1 0x6 DUP2 LT PUSH3 0x2B6C JUMPI PUSH1 0x0 DUP1 REVERT JUMPDEST PUSH1 0x0 DUP3 PUSH1 0x1F DUP4 ADD SLT PUSH3 0x36A6 JUMPI PUSH1 0x0 DUP1 REVERT JUMPDEST DUP2 MLOAD PUSH1 0x20 PUSH1 0x1 PUSH1 0x1 PUSH1 0x40 SHL SUB DUP3 GT ISZERO PUSH3 0x36C4 JUMPI PUSH3 0x36C4 PUSH3 0x2D5D JUMP JUMPDEST DUP2 PUSH1 0x5 SHL PUSH3 0x36D5 DUP3 DUP3 ADD PUSH3 0x2E34 JUMP JUMPDEST SWAP3 DUP4 MSTORE DUP5 DUP2 ADD DUP3 ADD SWAP3 DUP3 DUP2 ADD SWAP1 DUP8 DUP6 GT ISZERO PUSH3 0x36F0 JUMPI PUSH1 0x0 DUP1 REVERT JUMPDEST DUP4 DUP8 ADD SWAP3 POP JUMPDEST DUP5 DUP4 LT ISZERO PUSH3 0x3711 JUMPI DUP3 MLOAD DUP3 MSTORE SWAP2 DUP4 ADD SWAP2 SWAP1 DUP4 ADD SWAP1 PUSH3 0x36F6 JUMP JUMPDEST SWAP8 SWAP7 POP POP POP POP POP POP POP JUMP JUMPDEST PUSH1 0x0 PUSH1 0x20 DUP3 DUP5 SUB SLT ISZERO PUSH3 0x372F JUMPI PUSH1 0x0 DUP1 REVERT JUMPDEST DUP2 MLOAD PUSH1 0x1 PUSH1 0x1 PUSH1 0x40 SHL SUB DUP1 DUP3 GT ISZERO PUSH3 0x3747 JUMPI PUSH1 0x0 DUP1 REVERT JUMPDEST SWAP1 DUP4 ADD SWAP1 PUSH2 0x1A0 DUP3 DUP7 SUB SLT ISZERO PUSH3 0x375D JUMPI PUSH1 0x0 DUP1 REVERT JUMPDEST PUSH3 0x3767 PUSH3 0x2DE9 JUMP JUMPDEST DUP3 MLOAD DUP2 MSTORE PUSH3 0x3779 PUSH1 0x20 DUP5 ADD PUSH3 0x311A JUMP JUMPDEST PUSH1 0x20 DUP3 ADD MSTORE PUSH3 0x378C PUSH1 0x40 DUP5 ADD PUSH3 0x3684 JUMP JUMPDEST PUSH1 0x40 DUP3 ADD MSTORE PUSH1 0x60 DUP4 ADD MLOAD DUP3 DUP2 GT ISZERO PUSH3 0x37A4 JUMPI PUSH1 0x0 DUP1 REVERT JUMPDEST PUSH3 0x37B2 DUP8 DUP3 DUP7 ADD PUSH3 0x314D JUMP JUMPDEST PUSH1 0x60 DUP4 ADD MSTORE POP PUSH1 0x80 DUP4 ADD MLOAD DUP3 DUP2 GT ISZERO PUSH3 0x37CB JUMPI PUSH1 0x0 DUP1 REVERT JUMPDEST PUSH3 0x37D9 DUP8 DUP3 DUP7 ADD PUSH3 0x314D JUMP JUMPDEST PUSH1 0x80 DUP4 ADD MSTORE POP PUSH3 0x37ED PUSH1 0xA0 DUP5 ADD PUSH3 0x311A JUMP JUMPDEST PUSH1 0xA0 DUP3 ADD MSTORE PUSH1 0xC0 DUP4 DUP2 ADD MLOAD SWAP1 DUP3 ADD MSTORE PUSH1 0xE0 DUP1 DUP5 ADD MLOAD SWAP1 DUP3 ADD MSTORE PUSH2 0x100 DUP1 DUP5 ADD MLOAD SWAP1 DUP3 ADD MSTORE PUSH2 0x120 DUP1 DUP5 ADD MLOAD SWAP1 DUP3 ADD MSTORE PUSH2 0x140 DUP1 DUP5 ADD MLOAD SWAP1 DUP3 ADD MSTORE PUSH2 0x160 DUP1 DUP5 ADD MLOAD SWAP1 DUP3 ADD MSTORE PUSH2 0x180 DUP1 DUP5 ADD MLOAD DUP4 DUP2 GT ISZERO PUSH3 0x3847 JUMPI PUSH1 0x0 DUP1 REVERT JUMPDEST PUSH3 0x34F6 DUP9 DUP3 DUP8 ADD PUSH3 0x3694 JUMP JUMPDEST PUSH1 0x6 DUP2 LT PUSH3 0x3868 JUMPI PUSH3 0x3868 PUSH3 0x3507 JUMP JUMPDEST SWAP1 MSTORE JUMP JUMPDEST DUP3 DUP2 MSTORE PUSH1 0x40 DUP2 ADD PUSH3 0x2B8F PUSH1 0x20 DUP4 ADD DUP5 PUSH3 0x3855 JUMP JUMPDEST PUSH1 0x0 PUSH1 0x40 DUP3 DUP5 SUB SLT ISZERO PUSH3 0x3895 JUMPI PUSH1 0x0 DUP1 REVERT JUMPDEST PUSH3 0x389F PUSH3 0x2D73 JUMP JUMPDEST DUP3 MLOAD DUP2 MSTORE PUSH1 0x20 DUP4 ADD MLOAD PUSH1 0x20 DUP3 ADD MSTORE DUP1 SWAP2 POP POP SWAP3 SWAP2 POP POP JUMP JUMPDEST PUSH1 0x20 DUP1 DUP3 MSTORE PUSH1 0x17 SWAP1 DUP3 ADD MSTORE PUSH32 0x50726F706F73616C20646F6573206E6F74206578697374000000000000000000 PUSH1 0x40 DUP3 ADD MSTORE PUSH1 0x60 ADD SWAP1 JUMP JUMPDEST PUSH1 0x0 PUSH1 0x20 DUP3 DUP5 SUB SLT ISZERO PUSH3 0x3901 JUMPI PUSH1 0x0 DUP1 REVERT JUMPDEST DUP2 MLOAD PUSH1 0x1 PUSH1 0x1 PUSH1 0x40 SHL SUB DUP2 GT ISZERO PUSH3 0x3918 JUMPI PUSH1 0x0 DUP1 REVERT JUMPDEST PUSH3 0x3199 DUP5 DUP3 DUP6 ADD PUSH3 0x3694 JUMP JUMPDEST PUSH4 0x4E487B71 PUSH1 0xE0 SHL PUSH1 0x0 MSTORE PUSH1 0x32 PUSH1 0x4 MSTORE PUSH1 0x24 PUSH1 0x0 REVERT JUMPDEST PUSH1 0x0 PUSH1 0xE0 DUP3 DUP5 SUB SLT ISZERO PUSH3 0x394F JUMPI PUSH1 0x0 DUP1 REVERT JUMPDEST PUSH3 0x3959 PUSH3 0x2E0F JUMP JUMPDEST DUP3 MLOAD PUSH3 0x3966 DUP2 PUSH3 0x2BC3 JUMP JUMPDEST DUP2 MSTORE PUSH1 0x20 DUP4 ADD MLOAD PUSH3 0x3978 DUP2 PUSH3 0x2BC3 JUMP JUMPDEST PUSH1 0x20 DUP3 ADD MSTORE PUSH1 0x40 DUP4 ADD MLOAD PUSH1 0x2 DUP2 LT PUSH3 0x3990 JUMPI PUSH1 0x0 DUP1 REVERT JUMPDEST PUSH1 0x40 DUP3 ADD MSTORE PUSH1 0x60 DUP4 DUP2 ADD MLOAD SWAP1 DUP3 ADD MSTORE PUSH3 0x39AD PUSH1 0x80 DUP5 ADD PUSH3 0x311A JUMP JUMPDEST PUSH1 0x80 DUP3 ADD MSTORE PUSH1 0xA0 DUP4 ADD MLOAD PUSH1 0xA0 DUP3 ADD MSTORE PUSH1 0xC0 DUP4 ADD MLOAD PUSH1 0xC0 DUP3 ADD MSTORE DUP1 SWAP2 POP POP SWAP3 SWAP2 POP POP JUMP JUMPDEST PUSH1 0x0 PUSH1 0x1 DUP3 ADD PUSH3 0x39E5 JUMPI PUSH3 0x39E5 PUSH3 0x30E8 JUMP JUMPDEST POP PUSH1 0x1 ADD SWAP1 JUMP JUMPDEST PUSH1 0x40 DUP2 MSTORE PUSH1 0x0 PUSH3 0x3A01 PUSH1 0x40 DUP4 ADD DUP6 PUSH3 0x351D JUMP JUMPDEST DUP3 DUP2 SUB PUSH1 0x20 DUP5 ADD MSTORE PUSH3 0x3A15 DUP2 DUP6 PUSH3 0x351D JUMP JUMPDEST SWAP6 SWAP5 POP POP POP POP POP JUMP JUMPDEST DUP4 DUP2 MSTORE PUSH1 0x1 PUSH1 0x1 PUSH1 0xA0 SHL SUB DUP4 AND PUSH1 0x20 DUP3 ADD MSTORE PUSH1 0x60 DUP2 ADD PUSH1 0x3 DUP4 LT PUSH3 0x3A47 JUMPI PUSH3 0x3A47 PUSH3 0x3507 JUMP JUMPDEST DUP3 PUSH1 0x40 DUP4 ADD MSTORE SWAP5 SWAP4 POP POP POP POP JUMP JUMPDEST DUP8 DUP10 DUP3 CALLDATACOPY PUSH1 0x0 DUP9 DUP3 ADD PUSH1 0x0 DUP2 MSTORE DUP8 DUP10 DUP3 CALLDATACOPY PUSH1 0x60 SWAP7 SWAP1 SWAP7 SHL PUSH12 0xFFFFFFFFFFFFFFFFFFFFFFFF NOT AND SWAP6 SWAP1 SWAP7 ADD SWAP5 DUP6 MSTORE POP PUSH1 0x14 DUP5 ADD SWAP3 SWAP1 SWAP3 MSTORE PUSH1 0x34 DUP4 ADD MSTORE PUSH1 0x54 DUP3 ADD MSTORE PUSH1 0x74 ADD SWAP5 SWAP4 POP POP POP POP JUMP JUMPDEST PUSH1 0x0 DUP2 MLOAD DUP1 DUP5 MSTORE PUSH1 0x20 DUP1 DUP6 ADD SWAP5 POP DUP1 DUP5 ADD PUSH1 0x0 JUMPDEST DUP4 DUP2 LT ISZERO PUSH3 0x3AD2 JUMPI DUP2 MLOAD DUP8 MSTORE SWAP6 DUP3 ADD SWAP6 SWAP1 DUP3 ADD SWAP1 PUSH1 0x1 ADD PUSH3 0x3AB4 JUMP JUMPDEST POP SWAP5 SWAP6 SWAP5 POP POP POP POP POP JUMP JUMPDEST PUSH1 0x20 DUP2 MSTORE DUP2 MLOAD PUSH1 0x20 DUP3 ADD MSTORE PUSH1 0x0 PUSH1 0x20 DUP4 ADD MLOAD PUSH3 0x3B05 PUSH1 0x40 DUP5 ADD DUP3 PUSH1 0x1 PUSH1 0x1 PUSH1 0xA0 SHL SUB AND SWAP1 MSTORE JUMP JUMPDEST POP PUSH1 0x40 DUP4 ADD MLOAD PUSH3 0x3B1A PUSH1 0x60 DUP5 ADD DUP3 PUSH3 0x3855 JUMP JUMPDEST POP PUSH1 0x60 DUP4 ADD MLOAD PUSH2 0x1A0 DUP1 PUSH1 0x80 DUP6 ADD MSTORE PUSH3 0x3B39 PUSH2 0x1C0 DUP6 ADD DUP4 PUSH3 0x351D JUMP JUMPDEST SWAP2 POP PUSH1 0x80 DUP6 ADD MLOAD PUSH1 0x1F NOT DUP1 DUP7 DUP6 SUB ADD PUSH1 0xA0 DUP8 ADD MSTORE PUSH3 0x3B59 DUP5 DUP4 PUSH3 0x351D JUMP JUMPDEST SWAP4 POP PUSH1 0xA0 DUP8 ADD MLOAD SWAP2 POP PUSH3 0x3B78 PUSH1 0xC0 DUP8 ADD DUP4 PUSH1 0x1 PUSH1 0x1 PUSH1 0xA0 SHL SUB AND SWAP1 MSTORE JUMP JUMPDEST PUSH1 0xC0 DUP8 ADD MLOAD PUSH1 0xE0 DUP8 DUP2 ADD SWAP2 SWAP1 SWAP2 MSTORE DUP8 ADD MLOAD PUSH2 0x100 DUP1 DUP9 ADD SWAP2 SWAP1 SWAP2 MSTORE DUP8 ADD MLOAD PUSH2 0x120 DUP1 DUP9 ADD SWAP2 SWAP1 SWAP2 MSTORE DUP8 ADD MLOAD PUSH2 0x140 DUP1 DUP9 ADD SWAP2 SWAP1 SWAP2 MSTORE DUP8 ADD MLOAD PUSH2 0x160 DUP1 DUP9 ADD SWAP2 SWAP1 SWAP2 MSTORE DUP8 ADD MLOAD PUSH2 0x180 DUP1 DUP9 ADD SWAP2 SWAP1 SWAP2 MSTORE DUP8 ADD MLOAD DUP7 DUP6 SUB SWAP1 SWAP2 ADD DUP4 DUP8 ADD MSTORE SWAP1 POP PUSH3 0x3BE2 DUP4 DUP3 PUSH3 0x3AA0 JUMP JUMPDEST SWAP7 SWAP6 POP POP POP POP POP POP JUMP INVALID PUSH2 0x160 PUSH1 0x40 MSTORE CALLVALUE DUP1 ISZERO PUSH3 0x12 JUMPI PUSH1 0x0 DUP1 REVERT JUMPDEST POP PUSH1 0x40 MLOAD PUSH3 0x31D7 CODESIZE SUB DUP1 PUSH3 0x31D7 DUP4 CODECOPY DUP2 ADD PUSH1 0x40 DUP2 SWAP1 MSTORE PUSH3 0x35 SWAP2 PUSH3 0x2B5 JUMP JUMPDEST PUSH1 0x40 DUP1 MLOAD DUP1 DUP3 ADD SWAP1 SWAP2 MSTORE PUSH1 0x1 DUP2 MSTORE PUSH1 0x31 PUSH1 0xF8 SHL PUSH1 0x20 DUP3 ADD MSTORE DUP3 SWAP1 DUP2 DUP4 PUSH1 0x0 PUSH3 0x5F DUP4 DUP3 PUSH3 0x3AE JUMP JUMPDEST POP PUSH1 0x1 PUSH3 0x6E DUP3 DUP3 PUSH3 0x3AE JUMP JUMPDEST POP POP POP PUSH3 0x8C PUSH1 0x6 DUP4 PUSH3 0x149 PUSH1 0x20 SHL PUSH3 0xFF8 OR SWAP1 SWAP2 SWAP1 PUSH1 0x20 SHR JUMP JUMPDEST PUSH2 0x120 MSTORE PUSH3 0xA9 DUP2 PUSH1 0x7 PUSH3 0x149 PUSH1 0x20 SWAP1 DUP2 SHL PUSH3 0xFF8 OR SWAP1 SHR JUMP JUMPDEST PUSH2 0x140 MSTORE DUP2 MLOAD PUSH1 0x20 DUP1 DUP5 ADD SWAP2 SWAP1 SWAP2 KECCAK256 PUSH1 0xE0 MSTORE DUP2 MLOAD SWAP1 DUP3 ADD KECCAK256 PUSH2 0x100 MSTORE CHAINID PUSH1 0xA0 MSTORE PUSH3 0x137 PUSH1 0xE0 MLOAD PUSH2 0x100 MLOAD PUSH1 0x40 DUP1 MLOAD PUSH32 0x8B73C3C69BB8FE3D512ECC4CF759CC79239F7B179B0FFACAA9A75D522B39400F PUSH1 0x20 DUP3 ADD MSTORE SWAP1 DUP2 ADD SWAP3 SWAP1 SWAP3 MSTORE PUSH1 0x60 DUP3 ADD MSTORE CHAINID PUSH1 0x80 DUP3 ADD MSTORE ADDRESS PUSH1 0xA0 DUP3 ADD MSTORE PUSH1 0x0 SWAP1 PUSH1 0xC0 ADD PUSH1 0x40 MLOAD PUSH1 0x20 DUP2 DUP4 SUB SUB DUP2 MSTORE SWAP1 PUSH1 0x40 MSTORE DUP1 MLOAD SWAP1 PUSH1 0x20 ADD KECCAK256 SWAP1 POP SWAP1 JUMP JUMPDEST PUSH1 0x80 MSTORE POP POP ADDRESS PUSH1 0xC0 MSTORE POP PUSH3 0x4D4 SWAP1 POP JUMP JUMPDEST PUSH1 0x0 PUSH1 0x20 DUP4 MLOAD LT ISZERO PUSH3 0x169 JUMPI PUSH3 0x161 DUP4 PUSH3 0x199 JUMP JUMPDEST SWAP1 POP PUSH3 0x193 JUMP JUMPDEST DUP3 PUSH3 0x180 DUP4 PUSH3 0x1E5 PUSH1 0x20 SHL PUSH3 0x1029 OR PUSH1 0x20 SHR JUMP JUMPDEST SWAP1 PUSH3 0x18D SWAP1 DUP3 PUSH3 0x3AE JUMP JUMPDEST POP PUSH1 0xFF SWAP1 POP JUMPDEST SWAP3 SWAP2 POP POP JUMP JUMPDEST PUSH1 0x0 DUP1 DUP3 SWAP1 POP PUSH1 0x1F DUP2 MLOAD GT ISZERO PUSH3 0x1D0 JUMPI DUP3 PUSH1 0x40 MLOAD PUSH4 0x305A27A9 PUSH1 0xE0 SHL DUP2 MSTORE PUSH1 0x4 ADD PUSH3 0x1C7 SWAP2 SWAP1 PUSH3 0x47A JUMP JUMPDEST PUSH1 0x40 MLOAD DUP1 SWAP2 SUB SWAP1 REVERT JUMPDEST DUP1 MLOAD PUSH3 0x1DD DUP3 PUSH3 0x4AF JUMP JUMPDEST OR SWAP4 SWAP3 POP POP POP JUMP JUMPDEST SWAP1 JUMP JUMPDEST PUSH4 0x4E487B71 PUSH1 0xE0 SHL PUSH1 0x0 MSTORE PUSH1 0x41 PUSH1 0x4 MSTORE PUSH1 0x24 PUSH1 0x0 REVERT JUMPDEST PUSH1 0x0 JUMPDEST DUP4 DUP2 LT ISZERO PUSH3 0x21B JUMPI DUP2 DUP2 ADD MLOAD DUP4 DUP3 ADD MSTORE PUSH1 0x20 ADD PUSH3 0x201 JUMP JUMPDEST POP POP PUSH1 0x0 SWAP2 ADD MSTORE JUMP JUMPDEST PUSH1 0x0 DUP3 PUSH1 0x1F DUP4 ADD SLT PUSH3 0x236 JUMPI PUSH1 0x0 DUP1 REVERT JUMPDEST DUP2 MLOAD PUSH1 0x1 PUSH1 0x1 PUSH1 0x40 SHL SUB DUP1 DUP3 GT ISZERO PUSH3 0x253 JUMPI PUSH3 0x253 PUSH3 0x1E8 JUMP JUMPDEST PUSH1 0x40 MLOAD PUSH1 0x1F DUP4 ADD PUSH1 0x1F NOT SWAP1 DUP2 AND PUSH1 0x3F ADD AND DUP2 ADD SWAP1 DUP3 DUP3 GT DUP2 DUP4 LT OR ISZERO PUSH3 0x27E JUMPI PUSH3 0x27E PUSH3 0x1E8 JUMP JUMPDEST DUP2 PUSH1 0x40 MSTORE DUP4 DUP2 MSTORE DUP7 PUSH1 0x20 DUP6 DUP9 ADD ADD GT ISZERO PUSH3 0x298 JUMPI PUSH1 0x0 DUP1 REVERT JUMPDEST PUSH3 0x2AB DUP5 PUSH1 0x20 DUP4 ADD PUSH1 0x20 DUP10 ADD PUSH3 0x1FE JUMP JUMPDEST SWAP7 SWAP6 POP POP POP POP POP POP JUMP JUMPDEST PUSH1 0x0 DUP1 PUSH1 0x40 DUP4 DUP6 SUB SLT ISZERO PUSH3 0x2C9 JUMPI PUSH1 0x0 DUP1 REVERT JUMPDEST DUP3 MLOAD PUSH1 0x1 PUSH1 0x1 PUSH1 0x40 SHL SUB DUP1 DUP3 GT ISZERO PUSH3 0x2E1 JUMPI PUSH1 0x0 DUP1 REVERT JUMPDEST PUSH3 0x2EF DUP7 DUP4 DUP8 ADD PUSH3 0x224 JUMP JUMPDEST SWAP4 POP PUSH1 0x20 DUP6 ADD MLOAD SWAP2 POP DUP1 DUP3 GT ISZERO PUSH3 0x306 JUMPI PUSH1 0x0 DUP1 REVERT JUMPDEST POP PUSH3 0x315 DUP6 DUP3 DUP7 ADD PUSH3 0x224 JUMP JUMPDEST SWAP2 POP POP SWAP3 POP SWAP3 SWAP1 POP JUMP JUMPDEST PUSH1 0x1 DUP2 DUP2 SHR SWAP1 DUP3 AND DUP1 PUSH3 0x334 JUMPI PUSH1 0x7F DUP3 AND SWAP2 POP JUMPDEST PUSH1 0x20 DUP3 LT DUP2 SUB PUSH3 0x355 JUMPI PUSH4 0x4E487B71 PUSH1 0xE0 SHL PUSH1 0x0 MSTORE PUSH1 0x22 PUSH1 0x4 MSTORE PUSH1 0x24 PUSH1 0x0 REVERT JUMPDEST POP SWAP2 SWAP1 POP JUMP JUMPDEST PUSH1 0x1F DUP3 GT ISZERO PUSH3 0x3A9 JUMPI PUSH1 0x0 DUP2 DUP2 MSTORE PUSH1 0x20 DUP2 KECCAK256 PUSH1 0x1F DUP6 ADD PUSH1 0x5 SHR DUP2 ADD PUSH1 0x20 DUP7 LT ISZERO PUSH3 0x384 JUMPI POP DUP1 JUMPDEST PUSH1 0x1F DUP6 ADD PUSH1 0x5 SHR DUP3 ADD SWAP2 POP JUMPDEST DUP2 DUP2 LT ISZERO PUSH3 0x3A5 JUMPI DUP3 DUP2 SSTORE PUSH1 0x1 ADD PUSH3 0x390 JUMP JUMPDEST POP POP POP JUMPDEST POP POP POP JUMP JUMPDEST DUP2 MLOAD PUSH1 0x1 PUSH1 0x1 PUSH1 0x40 SHL SUB DUP2 GT ISZERO PUSH3 0x3CA JUMPI PUSH3 0x3CA PUSH3 0x1E8 JUMP JUMPDEST PUSH3 0x3E2 DUP2 PUSH3 0x3DB DUP5 SLOAD PUSH3 0x31F JUMP JUMPDEST DUP5 PUSH3 0x35B JUMP JUMPDEST PUSH1 0x20 DUP1 PUSH1 0x1F DUP4 GT PUSH1 0x1 DUP2 EQ PUSH3 0x41A JUMPI PUSH1 0x0 DUP5 ISZERO PUSH3 0x401 JUMPI POP DUP6 DUP4 ADD MLOAD JUMPDEST PUSH1 0x0 NOT PUSH1 0x3 DUP7 SWAP1 SHL SHR NOT AND PUSH1 0x1 DUP6 SWAP1 SHL OR DUP6 SSTORE PUSH3 0x3A5 JUMP JUMPDEST PUSH1 0x0 DUP6 DUP2 MSTORE PUSH1 0x20 DUP2 KECCAK256 PUSH1 0x1F NOT DUP7 AND SWAP2 JUMPDEST DUP3 DUP2 LT ISZERO PUSH3 0x44B JUMPI DUP9 DUP7 ADD MLOAD DUP3 SSTORE SWAP5 DUP5 ADD SWAP5 PUSH1 0x1 SWAP1 SWAP2 ADD SWAP1 DUP5 ADD PUSH3 0x42A JUMP JUMPDEST POP DUP6 DUP3 LT ISZERO PUSH3 0x46A JUMPI DUP8 DUP6 ADD MLOAD PUSH1 0x0 NOT PUSH1 0x3 DUP9 SWAP1 SHL PUSH1 0xF8 AND SHR NOT AND DUP2 SSTORE JUMPDEST POP POP POP POP POP PUSH1 0x1 SWAP1 DUP2 SHL ADD SWAP1 SSTORE POP JUMP JUMPDEST PUSH1 0x20 DUP2 MSTORE PUSH1 0x0 DUP3 MLOAD DUP1 PUSH1 0x20 DUP5 ADD MSTORE PUSH3 0x49B DUP2 PUSH1 0x40 DUP6 ADD PUSH1 0x20 DUP8 ADD PUSH3 0x1FE JUMP JUMPDEST PUSH1 0x1F ADD PUSH1 0x1F NOT AND SWAP2 SWAP1 SWAP2 ADD PUSH1 0x40 ADD SWAP3 SWAP2 POP POP JUMP JUMPDEST DUP1 MLOAD PUSH1 0x20 DUP1 DUP4 ADD MLOAD SWAP2 SWAP1 DUP2 LT ISZERO PUSH3 0x355 JUMPI PUSH1 0x0 NOT PUSH1 0x20 SWAP2 SWAP1 SWAP2 SUB PUSH1 0x3 SHL SHL AND SWAP2 SWAP1 POP JUMP JUMPDEST PUSH1 0x80 MLOAD PUSH1 0xA0 MLOAD PUSH1 0xC0 MLOAD PUSH1 0xE0 MLOAD PUSH2 0x100 MLOAD PUSH2 0x120 MLOAD PUSH2 0x140 MLOAD PUSH2 0x2CA8 PUSH3 0x52F PUSH1 0x0 CODECOPY PUSH1 0x0 PUSH2 0xCEE ADD MSTORE PUSH1 0x0 PUSH2 0xCC3 ADD MSTORE PUSH1 0x0 PUSH2 0x1344 ADD MSTORE PUSH1 0x0 PUSH2 0x131C ADD MSTORE PUSH1 0x0 PUSH2 0x1277 ADD MSTORE PUSH1 0x0 PUSH2 0x12A1 ADD MSTORE PUSH1 0x0 PUSH2 0x12CB ADD MSTORE PUSH2 0x2CA8 PUSH1 0x0 RETURN INVALID PUSH1 0x80 PUSH1 0x40 MSTORE CALLVALUE DUP1 ISZERO PUSH2 0x10 JUMPI PUSH1 0x0 DUP1 REVERT JUMPDEST POP PUSH1 0x4 CALLDATASIZE LT PUSH2 0x1E5 JUMPI PUSH1 0x0 CALLDATALOAD PUSH1 0xE0 SHR DUP1 PUSH4 0x6A627842 GT PUSH2 0x10F JUMPI DUP1 PUSH4 0x9F181B5E GT PUSH2 0xA2 JUMPI DUP1 PUSH4 0xC3CDA520 GT PUSH2 0x71 JUMPI DUP1 PUSH4 0xC3CDA520 EQ PUSH2 0x439 JUMPI DUP1 PUSH4 0xC87B56DD EQ PUSH2 0x44C JUMPI DUP1 PUSH4 0xD58778D6 EQ PUSH2 0x45F JUMPI DUP1 PUSH4 0xE985E9C5 EQ PUSH2 0x472 JUMPI PUSH1 0x0 DUP1 REVERT JUMPDEST DUP1 PUSH4 0x9F181B5E EQ PUSH2 0x3EA JUMPI DUP1 PUSH4 0xA22CB465 EQ PUSH2 0x3F3 JUMPI DUP1 PUSH4 0xB88D4FDE EQ PUSH2 0x406 JUMPI DUP1 PUSH4 0xBC14A1EA EQ PUSH2 0x419 JUMPI PUSH1 0x0 DUP1 REVERT JUMPDEST DUP1 PUSH4 0x8E539E8C GT PUSH2 0xDE JUMPI DUP1 PUSH4 0x8E539E8C EQ PUSH2 0x39D JUMPI DUP1 PUSH4 0x91DDADF4 EQ PUSH2 0x3B0 JUMPI DUP1 PUSH4 0x95D89B41 EQ PUSH2 0x3CF JUMPI DUP1 PUSH4 0x9AB24EB0 EQ PUSH2 0x3D7 JUMPI PUSH1 0x0 DUP1 REVERT JUMPDEST DUP1 PUSH4 0x6A627842 EQ PUSH2 0x349 JUMPI DUP1 PUSH4 0x70A08231 EQ PUSH2 0x35C JUMPI DUP1 PUSH4 0x7ECEBE00 EQ PUSH2 0x36F JUMPI DUP1 PUSH4 0x84B0196E EQ PUSH2 0x382 JUMPI PUSH1 0x0 DUP1 REVERT JUMPDEST DUP1 PUSH4 0x3A46B1A8 GT PUSH2 0x187 JUMPI DUP1 PUSH4 0x587CDE1E GT PUSH2 0x156 JUMPI DUP1 PUSH4 0x587CDE1E EQ PUSH2 0x2E4 JUMPI DUP1 PUSH4 0x5C19A95C EQ PUSH2 0x310 JUMPI DUP1 PUSH4 0x6352211E EQ PUSH2 0x323 JUMPI DUP1 PUSH4 0x6637B882 EQ PUSH2 0x336 JUMPI PUSH1 0x0 DUP1 REVERT JUMPDEST DUP1 PUSH4 0x3A46B1A8 EQ PUSH2 0x2A3 JUMPI DUP1 PUSH4 0x4162169F EQ PUSH2 0x2B6 JUMPI DUP1 PUSH4 0x42842E0E EQ PUSH2 0x2C9 JUMPI DUP1 PUSH4 0x4BF5D7E9 EQ PUSH2 0x2DC JUMPI PUSH1 0x0 DUP1 REVERT JUMPDEST DUP1 PUSH4 0x95EA7B3 GT PUSH2 0x1C3 JUMPI DUP1 PUSH4 0x95EA7B3 EQ PUSH2 0x252 JUMPI DUP1 PUSH4 0x20C5429B EQ PUSH2 0x267 JUMPI DUP1 PUSH4 0x23B872DD EQ PUSH2 0x27A JUMPI DUP1 PUSH4 0x3644E515 EQ PUSH2 0x28D JUMPI PUSH1 0x0 DUP1 REVERT JUMPDEST DUP1 PUSH4 0x1FFC9A7 EQ PUSH2 0x1EA JUMPI DUP1 PUSH4 0x6FDDE03 EQ PUSH2 0x212 JUMPI DUP1 PUSH4 0x81812FC EQ PUSH2 0x227 JUMPI JUMPDEST PUSH1 0x0 DUP1 REVERT JUMPDEST PUSH2 0x1FD PUSH2 0x1F8 CALLDATASIZE PUSH1 0x4 PUSH2 0x252A JUMP JUMPDEST PUSH2 0x4AE JUMP JUMPDEST PUSH1 0x40 MLOAD SWAP1 ISZERO ISZERO DUP2 MSTORE PUSH1 0x20 ADD JUMPDEST PUSH1 0x40 MLOAD DUP1 SWAP2 SUB SWAP1 RETURN JUMPDEST PUSH2 0x21A PUSH2 0x50F JUMP JUMPDEST PUSH1 0x40 MLOAD PUSH2 0x209 SWAP2 SWAP1 PUSH2 0x2597 JUMP JUMPDEST PUSH2 0x23A PUSH2 0x235 CALLDATASIZE PUSH1 0x4 PUSH2 0x25AA JUMP JUMPDEST PUSH2 0x5A1 JUMP JUMPDEST PUSH1 0x40 MLOAD PUSH1 0x1 PUSH1 0x1 PUSH1 0xA0 SHL SUB SWAP1 SWAP2 AND DUP2 MSTORE PUSH1 0x20 ADD PUSH2 0x209 JUMP JUMPDEST PUSH2 0x265 PUSH2 0x260 CALLDATASIZE PUSH1 0x4 PUSH2 0x25DF JUMP JUMPDEST PUSH2 0x5C8 JUMP JUMPDEST STOP JUMPDEST PUSH2 0x265 PUSH2 0x275 CALLDATASIZE PUSH1 0x4 PUSH2 0x25AA JUMP JUMPDEST PUSH2 0x6E2 JUMP JUMPDEST PUSH2 0x265 PUSH2 0x288 CALLDATASIZE PUSH1 0x4 PUSH2 0x2609 JUMP JUMPDEST PUSH2 0x88B JUMP JUMPDEST PUSH2 0x295 PUSH2 0x8B9 JUMP JUMPDEST PUSH1 0x40 MLOAD SWAP1 DUP2 MSTORE PUSH1 0x20 ADD PUSH2 0x209 JUMP JUMPDEST PUSH2 0x295 PUSH2 0x2B1 CALLDATASIZE PUSH1 0x4 PUSH2 0x25DF JUMP JUMPDEST PUSH2 0x8C8 JUMP JUMPDEST PUSH1 0x10 SLOAD PUSH2 0x23A SWAP1 PUSH1 0x1 PUSH1 0x1 PUSH1 0xA0 SHL SUB AND DUP2 JUMP JUMPDEST PUSH2 0x265 PUSH2 0x2D7 CALLDATASIZE PUSH1 0x4 PUSH2 0x2609 JUMP JUMPDEST PUSH2 0x959 JUMP JUMPDEST PUSH2 0x21A PUSH2 0x974 JUMP JUMPDEST PUSH2 0x23A PUSH2 0x2F2 CALLDATASIZE PUSH1 0x4 PUSH2 0x2645 JUMP JUMPDEST PUSH1 0x1 PUSH1 0x1 PUSH1 0xA0 SHL SUB SWAP1 DUP2 AND PUSH1 0x0 SWAP1 DUP2 MSTORE PUSH1 0x8 PUSH1 0x20 MSTORE PUSH1 0x40 SWAP1 KECCAK256 SLOAD AND SWAP1 JUMP JUMPDEST PUSH2 0x265 PUSH2 0x31E CALLDATASIZE PUSH1 0x4 PUSH2 0x2645 JUMP JUMPDEST PUSH2 0xA0C JUMP JUMPDEST PUSH2 0x23A PUSH2 0x331 CALLDATASIZE PUSH1 0x4 PUSH2 0x25AA JUMP JUMPDEST PUSH2 0xA1B JUMP JUMPDEST PUSH2 0x265 PUSH2 0x344 CALLDATASIZE PUSH1 0x4 PUSH2 0x2645 JUMP JUMPDEST PUSH2 0xA7B JUMP JUMPDEST PUSH2 0x265 PUSH2 0x357 CALLDATASIZE PUSH1 0x4 PUSH2 0x2645 JUMP JUMPDEST PUSH2 0xAE8 JUMP JUMPDEST PUSH2 0x295 PUSH2 0x36A CALLDATASIZE PUSH1 0x4 PUSH2 0x2645 JUMP JUMPDEST PUSH2 0xC11 JUMP JUMPDEST PUSH2 0x295 PUSH2 0x37D CALLDATASIZE PUSH1 0x4 PUSH2 0x2645 JUMP JUMPDEST PUSH2 0xC97 JUMP JUMPDEST PUSH2 0x38A PUSH2 0xCB5 JUMP JUMPDEST PUSH1 0x40 MLOAD PUSH2 0x209 SWAP8 SWAP7 SWAP6 SWAP5 SWAP4 SWAP3 SWAP2 SWAP1 PUSH2 0x2660 JUMP JUMPDEST PUSH2 0x295 PUSH2 0x3AB CALLDATASIZE PUSH1 0x4 PUSH2 0x25AA JUMP JUMPDEST PUSH2 0xD3E JUMP JUMPDEST PUSH2 0x3B8 PUSH2 0xDB8 JUMP JUMPDEST PUSH1 0x40 MLOAD PUSH6 0xFFFFFFFFFFFF SWAP1 SWAP2 AND DUP2 MSTORE PUSH1 0x20 ADD PUSH2 0x209 JUMP JUMPDEST PUSH2 0x21A PUSH2 0xDC3 JUMP JUMPDEST PUSH2 0x295 PUSH2 0x3E5 CALLDATASIZE PUSH1 0x4 PUSH2 0x2645 JUMP JUMPDEST PUSH2 0xDD2 JUMP JUMPDEST PUSH2 0x295 PUSH1 0xC SLOAD DUP2 JUMP JUMPDEST PUSH2 0x265 PUSH2 0x401 CALLDATASIZE PUSH1 0x4 PUSH2 0x26F6 JUMP JUMPDEST PUSH2 0xDF3 JUMP JUMPDEST PUSH2 0x265 PUSH2 0x414 CALLDATASIZE PUSH1 0x4 PUSH2 0x2748 JUMP JUMPDEST PUSH2 0xDFE JUMP JUMPDEST PUSH2 0x295 PUSH2 0x427 CALLDATASIZE PUSH1 0x4 PUSH2 0x2645 JUMP JUMPDEST PUSH1 0xF PUSH1 0x20 MSTORE PUSH1 0x0 SWAP1 DUP2 MSTORE PUSH1 0x40 SWAP1 KECCAK256 SLOAD DUP2 JUMP JUMPDEST PUSH2 0x265 PUSH2 0x447 CALLDATASIZE PUSH1 0x4 PUSH2 0x2824 JUMP JUMPDEST PUSH2 0xE36 JUMP JUMPDEST PUSH2 0x21A PUSH2 0x45A CALLDATASIZE PUSH1 0x4 PUSH2 0x25AA JUMP JUMPDEST PUSH2 0xF63 JUMP JUMPDEST PUSH2 0x295 PUSH2 0x46D CALLDATASIZE PUSH1 0x4 PUSH2 0x25AA JUMP JUMPDEST PUSH2 0xFD7 JUMP JUMPDEST PUSH2 0x1FD PUSH2 0x480 CALLDATASIZE PUSH1 0x4 PUSH2 0x2884 JUMP JUMPDEST PUSH1 0x1 PUSH1 0x1 PUSH1 0xA0 SHL SUB SWAP2 DUP3 AND PUSH1 0x0 SWAP1 DUP2 MSTORE PUSH1 0x5 PUSH1 0x20 SWAP1 DUP2 MSTORE PUSH1 0x40 DUP1 DUP4 KECCAK256 SWAP4 SWAP1 SWAP5 AND DUP3 MSTORE SWAP2 SWAP1 SWAP2 MSTORE KECCAK256 SLOAD PUSH1 0xFF AND SWAP1 JUMP JUMPDEST PUSH1 0x0 PUSH1 0x1 PUSH1 0x1 PUSH1 0xE0 SHL SUB NOT DUP3 AND PUSH4 0x80AC58CD PUSH1 0xE0 SHL EQ DUP1 PUSH2 0x4DF JUMPI POP PUSH1 0x1 PUSH1 0x1 PUSH1 0xE0 SHL SUB NOT DUP3 AND PUSH4 0x5B5E139F PUSH1 0xE0 SHL EQ JUMPDEST DUP1 PUSH2 0x4FA JUMPI POP PUSH1 0x1 PUSH1 0x1 PUSH1 0xE0 SHL SUB NOT DUP3 AND PUSH4 0x7965DB0B PUSH1 0xE0 SHL EQ JUMPDEST DUP1 PUSH2 0x509 JUMPI POP PUSH2 0x509 DUP3 PUSH2 0x102C JUMP JUMPDEST SWAP3 SWAP2 POP POP JUMP JUMPDEST PUSH1 0x60 PUSH1 0x0 DUP1 SLOAD PUSH2 0x51E SWAP1 PUSH2 0x28B7 JUMP JUMPDEST DUP1 PUSH1 0x1F ADD PUSH1 0x20 DUP1 SWAP2 DIV MUL PUSH1 0x20 ADD PUSH1 0x40 MLOAD SWAP1 DUP2 ADD PUSH1 0x40 MSTORE DUP1 SWAP3 SWAP2 SWAP1 DUP2 DUP2 MSTORE PUSH1 0x20 ADD DUP3 DUP1 SLOAD PUSH2 0x54A SWAP1 PUSH2 0x28B7 JUMP JUMPDEST DUP1 ISZERO PUSH2 0x597 JUMPI DUP1 PUSH1 0x1F LT PUSH2 0x56C JUMPI PUSH2 0x100 DUP1 DUP4 SLOAD DIV MUL DUP4 MSTORE SWAP2 PUSH1 0x20 ADD SWAP2 PUSH2 0x597 JUMP JUMPDEST DUP3 ADD SWAP2 SWAP1 PUSH1 0x0 MSTORE PUSH1 0x20 PUSH1 0x0 KECCAK256 SWAP1 JUMPDEST DUP2 SLOAD DUP2 MSTORE SWAP1 PUSH1 0x1 ADD SWAP1 PUSH1 0x20 ADD DUP1 DUP4 GT PUSH2 0x57A JUMPI DUP3 SWAP1 SUB PUSH1 0x1F AND DUP3 ADD SWAP2 JUMPDEST POP POP POP POP POP SWAP1 POP SWAP1 JUMP JUMPDEST PUSH1 0x0 PUSH2 0x5AC DUP3 PUSH2 0x107C JUMP JUMPDEST POP PUSH1 0x0 SWAP1 DUP2 MSTORE PUSH1 0x4 PUSH1 0x20 MSTORE PUSH1 0x40 SWAP1 KECCAK256 SLOAD PUSH1 0x1 PUSH1 0x1 PUSH1 0xA0 SHL SUB AND SWAP1 JUMP JUMPDEST PUSH1 0x0 PUSH2 0x5D3 DUP3 PUSH2 0xA1B JUMP JUMPDEST SWAP1 POP DUP1 PUSH1 0x1 PUSH1 0x1 PUSH1 0xA0 SHL SUB AND DUP4 PUSH1 0x1 PUSH1 0x1 PUSH1 0xA0 SHL SUB AND SUB PUSH2 0x645 JUMPI PUSH1 0x40 MLOAD PUSH3 0x461BCD PUSH1 0xE5 SHL DUP2 MSTORE PUSH1 0x20 PUSH1 0x4 DUP3 ADD MSTORE PUSH1 0x21 PUSH1 0x24 DUP3 ADD MSTORE PUSH32 0x4552433732313A20617070726F76616C20746F2063757272656E74206F776E65 PUSH1 0x44 DUP3 ADD MSTORE PUSH1 0x39 PUSH1 0xF9 SHL PUSH1 0x64 DUP3 ADD MSTORE PUSH1 0x84 ADD JUMPDEST PUSH1 0x40 MLOAD DUP1 SWAP2 SUB SWAP1 REVERT JUMPDEST CALLER PUSH1 0x1 PUSH1 0x1 PUSH1 0xA0 SHL SUB DUP3 AND EQ DUP1 PUSH2 0x661 JUMPI POP PUSH2 0x661 DUP2 CALLER PUSH2 0x480 JUMP JUMPDEST PUSH2 0x6D3 JUMPI PUSH1 0x40 MLOAD PUSH3 0x461BCD PUSH1 0xE5 SHL DUP2 MSTORE PUSH1 0x20 PUSH1 0x4 DUP3 ADD MSTORE PUSH1 0x3D PUSH1 0x24 DUP3 ADD MSTORE PUSH32 0x4552433732313A20617070726F76652063616C6C6572206973206E6F7420746F PUSH1 0x44 DUP3 ADD MSTORE PUSH32 0x6B656E206F776E6572206F7220617070726F76656420666F7220616C6C000000 PUSH1 0x64 DUP3 ADD MSTORE PUSH1 0x84 ADD PUSH2 0x63C JUMP JUMPDEST PUSH2 0x6DD DUP4 DUP4 PUSH2 0x10DE JUMP JUMPDEST POP POP POP JUMP JUMPDEST PUSH1 0x10 SLOAD PUSH1 0x1 PUSH1 0x1 PUSH1 0xA0 SHL SUB AND CALLER EQ PUSH2 0x730 JUMPI PUSH1 0x40 MLOAD PUSH3 0x461BCD PUSH1 0xE5 SHL DUP2 MSTORE PUSH1 0x20 PUSH1 0x4 DUP3 ADD MSTORE PUSH1 0x11 PUSH1 0x24 DUP3 ADD MSTORE PUSH17 0x13DB9B1E48111053C818D85B8818D85B1B PUSH1 0x7A SHL PUSH1 0x44 DUP3 ADD MSTORE PUSH1 0x64 ADD PUSH2 0x63C JUMP JUMPDEST PUSH1 0x0 DUP2 DUP2 MSTORE PUSH1 0x2 PUSH1 0x20 MSTORE PUSH1 0x40 SWAP1 KECCAK256 SLOAD PUSH1 0x1 PUSH1 0x1 PUSH1 0xA0 SHL SUB AND PUSH2 0x794 JUMPI PUSH1 0x40 MLOAD PUSH3 0x461BCD PUSH1 0xE5 SHL DUP2 MSTORE PUSH1 0x20 PUSH1 0x4 DUP3 ADD MSTORE PUSH1 0x1C PUSH1 0x24 DUP3 ADD MSTORE PUSH32 0x546F6B656E207769746820696420646F6573206E6F7420657869737400000000 PUSH1 0x44 DUP3 ADD MSTORE PUSH1 0x64 ADD PUSH2 0x63C JUMP JUMPDEST PUSH1 0xC DUP1 SLOAD SWAP1 PUSH1 0x0 PUSH2 0x7A4 DUP4 PUSH2 0x2901 JUMP JUMPDEST SWAP2 SWAP1 POP SSTORE POP PUSH2 0x7B2 DUP2 PUSH2 0x114C JUMP JUMPDEST PUSH1 0x0 DUP2 DUP2 MSTORE PUSH1 0xE PUSH1 0x20 MSTORE PUSH1 0x40 DUP2 KECCAK256 SLOAD PUSH1 0xD DUP1 SLOAD SWAP2 SWAP3 SWAP2 PUSH2 0x7D4 SWAP1 PUSH1 0x1 SWAP1 PUSH2 0x2918 JUMP JUMPDEST DUP2 SLOAD DUP2 LT PUSH2 0x7E4 JUMPI PUSH2 0x7E4 PUSH2 0x292B JUMP JUMPDEST SWAP1 PUSH1 0x0 MSTORE PUSH1 0x20 PUSH1 0x0 KECCAK256 ADD SLOAD SWAP1 POP DUP1 PUSH1 0xD DUP4 DUP2 SLOAD DUP2 LT PUSH2 0x805 JUMPI PUSH2 0x805 PUSH2 0x292B JUMP JUMPDEST PUSH1 0x0 SWAP2 DUP3 MSTORE PUSH1 0x20 DUP1 DUP4 KECCAK256 SWAP1 SWAP2 ADD SWAP3 SWAP1 SWAP3 SSTORE DUP3 DUP2 MSTORE PUSH1 0xE SWAP1 SWAP2 MSTORE PUSH1 0x40 SWAP1 KECCAK256 DUP3 SWAP1 SSTORE PUSH1 0xD DUP1 SLOAD DUP1 PUSH2 0x836 JUMPI PUSH2 0x836 PUSH2 0x2941 JUMP JUMPDEST PUSH1 0x1 SWAP1 SUB DUP2 DUP2 SWAP1 PUSH1 0x0 MSTORE PUSH1 0x20 PUSH1 0x0 KECCAK256 ADD PUSH1 0x0 SWAP1 SSTORE SWAP1 SSTORE PUSH1 0x0 PUSH2 0x86D DUP5 PUSH1 0x0 SWAP1 DUP2 MSTORE PUSH1 0x2 PUSH1 0x20 MSTORE PUSH1 0x40 SWAP1 KECCAK256 SLOAD PUSH1 0x1 PUSH1 0x1 PUSH1 0xA0 SHL SUB AND SWAP1 JUMP JUMPDEST PUSH1 0x1 PUSH1 0x1 PUSH1 0xA0 SHL SUB AND PUSH1 0x0 SWAP1 DUP2 MSTORE PUSH1 0xF PUSH1 0x20 MSTORE PUSH1 0x40 DUP2 KECCAK256 SSTORE POP POP POP POP JUMP JUMPDEST PUSH2 0x895 CALLER DUP3 PUSH2 0x11EB JUMP JUMPDEST PUSH2 0x8B1 JUMPI PUSH1 0x40 MLOAD PUSH3 0x461BCD PUSH1 0xE5 SHL DUP2 MSTORE PUSH1 0x4 ADD PUSH2 0x63C SWAP1 PUSH2 0x2957 JUMP JUMPDEST PUSH2 0x6DD PUSH1 0x0 DUP1 REVERT JUMPDEST PUSH1 0x0 PUSH2 0x8C3 PUSH2 0x126A JUMP JUMPDEST SWAP1 POP SWAP1 JUMP JUMPDEST PUSH1 0x0 PUSH2 0x8D2 PUSH2 0xDB8 JUMP JUMPDEST PUSH6 0xFFFFFFFFFFFF AND DUP3 LT PUSH2 0x91F JUMPI PUSH1 0x40 MLOAD PUSH3 0x461BCD PUSH1 0xE5 SHL DUP2 MSTORE PUSH1 0x20 PUSH1 0x4 DUP3 ADD MSTORE PUSH1 0x14 PUSH1 0x24 DUP3 ADD MSTORE PUSH20 0x566F7465733A20667574757265206C6F6F6B757 PUSH1 0x64 SHL PUSH1 0x44 DUP3 ADD MSTORE PUSH1 0x64 ADD PUSH2 0x63C JUMP JUMPDEST PUSH2 0x949 PUSH2 0x92B DUP4 PUSH2 0x1395 JUMP JUMPDEST PUSH1 0x1 PUSH1 0x1 PUSH1 0xA0 SHL SUB DUP6 AND PUSH1 0x0 SWAP1 DUP2 MSTORE PUSH1 0x9 PUSH1 0x20 MSTORE PUSH1 0x40 SWAP1 KECCAK256 SWAP1 PUSH2 0x13FE JUMP JUMPDEST PUSH1 0x1 PUSH1 0x1 PUSH1 0xE0 SHL SUB AND SWAP4 SWAP3 POP POP POP JUMP JUMPDEST PUSH2 0x6DD DUP4 DUP4 DUP4 PUSH1 0x40 MLOAD DUP1 PUSH1 0x20 ADD PUSH1 0x40 MSTORE DUP1 PUSH1 0x0 DUP2 MSTORE POP PUSH2 0xDFE JUMP JUMPDEST PUSH1 0x60 NUMBER PUSH2 0x97F PUSH2 0xDB8 JUMP JUMPDEST PUSH6 0xFFFFFFFFFFFF AND EQ PUSH2 0x9D4 JUMPI PUSH1 0x40 MLOAD PUSH3 0x461BCD PUSH1 0xE5 SHL DUP2 MSTORE PUSH1 0x20 PUSH1 0x4 DUP3 ADD MSTORE PUSH1 0x18 PUSH1 0x24 DUP3 ADD MSTORE PUSH32 0x566F7465733A2062726F6B656E20636C6F636B206D6F64650000000000000000 PUSH1 0x44 DUP3 ADD MSTORE PUSH1 0x64 ADD PUSH2 0x63C JUMP JUMPDEST POP PUSH1 0x40 DUP1 MLOAD DUP1 DUP3 ADD SWAP1 SWAP2 MSTORE PUSH1 0x1D DUP2 MSTORE PUSH32 0x6D6F64653D626C6F636B6E756D6265722666726F6D3D64656661756C74000000 PUSH1 0x20 DUP3 ADD MSTORE SWAP1 JUMP JUMPDEST CALLER PUSH2 0xA17 DUP2 DUP4 PUSH2 0x14B3 JUMP JUMPDEST POP POP JUMP JUMPDEST PUSH1 0x0 DUP2 DUP2 MSTORE PUSH1 0x2 PUSH1 0x20 MSTORE PUSH1 0x40 DUP2 KECCAK256 SLOAD PUSH1 0x1 PUSH1 0x1 PUSH1 0xA0 SHL SUB AND DUP1 PUSH2 0x509 JUMPI PUSH1 0x40 MLOAD PUSH3 0x461BCD PUSH1 0xE5 SHL DUP2 MSTORE PUSH1 0x20 PUSH1 0x4 DUP3 ADD MSTORE PUSH1 0x18 PUSH1 0x24 DUP3 ADD MSTORE PUSH24 0x115490CDCC8C4E881A5B9D985B1A59081D1BDAD95B881251 PUSH1 0x42 SHL PUSH1 0x44 DUP3 ADD MSTORE PUSH1 0x64 ADD PUSH2 0x63C JUMP JUMPDEST PUSH1 0x10 SLOAD PUSH1 0x1 PUSH1 0x1 PUSH1 0xA0 SHL SUB AND ISZERO PUSH2 0xAC6 JUMPI PUSH1 0x40 MLOAD PUSH3 0x461BCD PUSH1 0xE5 SHL DUP2 MSTORE PUSH1 0x20 PUSH1 0x4 DUP3 ADD MSTORE PUSH1 0xF PUSH1 0x24 DUP3 ADD MSTORE PUSH15 0x111053C8185B1C9958591E481CD95D PUSH1 0x8A SHL PUSH1 0x44 DUP3 ADD MSTORE PUSH1 0x64 ADD PUSH2 0x63C JUMP JUMPDEST PUSH1 0x10 DUP1 SLOAD PUSH1 0x1 PUSH1 0x1 PUSH1 0xA0 SHL SUB NOT AND PUSH1 0x1 PUSH1 0x1 PUSH1 0xA0 SHL SUB SWAP3 SWAP1 SWAP3 AND SWAP2 SWAP1 SWAP2 OR SWAP1 SSTORE JUMP JUMPDEST PUSH1 0x10 SLOAD PUSH1 0x1 PUSH1 0x1 PUSH1 0xA0 SHL SUB AND CALLER EQ PUSH2 0xB36 JUMPI PUSH1 0x40 MLOAD PUSH3 0x461BCD PUSH1 0xE5 SHL DUP2 MSTORE PUSH1 0x20 PUSH1 0x4 DUP3 ADD MSTORE PUSH1 0x11 PUSH1 0x24 DUP3 ADD MSTORE PUSH17 0x13DB9B1E48111053C818D85B8818D85B1B PUSH1 0x7A SHL PUSH1 0x44 DUP3 ADD MSTORE PUSH1 0x64 ADD PUSH2 0x63C JUMP JUMPDEST PUSH2 0xB3F DUP2 PUSH2 0xC11 JUMP JUMPDEST ISZERO PUSH2 0xB8C JUMPI PUSH1 0x40 MLOAD PUSH3 0x461BCD PUSH1 0xE5 SHL DUP2 MSTORE PUSH1 0x20 PUSH1 0x4 DUP3 ADD MSTORE PUSH1 0x1B PUSH1 0x24 DUP3 ADD MSTORE PUSH32 0x4164647265737320697320616C72656164792061206D656D6265720000000000 PUSH1 0x44 DUP3 ADD MSTORE PUSH1 0x64 ADD PUSH2 0x63C JUMP JUMPDEST PUSH1 0xC DUP1 SLOAD SWAP1 PUSH1 0x0 PUSH2 0xB9C DUP4 PUSH2 0x29A4 JUMP JUMPDEST SWAP2 SWAP1 POP SSTORE POP PUSH2 0xBAD DUP2 PUSH1 0xC SLOAD PUSH2 0x1525 JUMP JUMPDEST PUSH1 0xD DUP1 SLOAD PUSH1 0xC DUP1 SLOAD PUSH1 0x0 SWAP1 DUP2 MSTORE PUSH1 0xE PUSH1 0x20 SWAP1 DUP2 MSTORE PUSH1 0x40 DUP1 DUP4 KECCAK256 DUP6 SWAP1 SSTORE SWAP3 SLOAD PUSH1 0x1 DUP6 ADD SWAP1 SWAP6 SSTORE PUSH32 0xD7B6990105719101DABEB77144F2A3385C8033ACD3AF97E9423A695E81AD1EB5 SWAP1 SWAP4 ADD DUP5 SWAP1 SSTORE PUSH1 0x1 PUSH1 0x1 PUSH1 0xA0 SHL SUB SWAP1 SWAP5 AND DUP5 MSTORE PUSH1 0xF SWAP1 SWAP2 MSTORE SWAP1 SWAP2 KECCAK256 SSTORE JUMP JUMPDEST PUSH1 0x0 PUSH1 0x1 PUSH1 0x1 PUSH1 0xA0 SHL SUB DUP3 AND PUSH2 0xC7B JUMPI PUSH1 0x40 MLOAD PUSH3 0x461BCD PUSH1 0xE5 SHL DUP2 MSTORE PUSH1 0x20 PUSH1 0x4 DUP3 ADD MSTORE PUSH1 0x29 PUSH1 0x24 DUP3 ADD MSTORE PUSH32 0x4552433732313A2061646472657373207A65726F206973206E6F742061207661 PUSH1 0x44 DUP3 ADD MSTORE PUSH9 0x3634B21037BBB732B9 PUSH1 0xB9 SHL PUSH1 0x64 DUP3 ADD MSTORE PUSH1 0x84 ADD PUSH2 0x63C JUMP JUMPDEST POP PUSH1 0x1 PUSH1 0x1 PUSH1 0xA0 SHL SUB AND PUSH1 0x0 SWAP1 DUP2 MSTORE PUSH1 0x3 PUSH1 0x20 MSTORE PUSH1 0x40 SWAP1 KECCAK256 SLOAD SWAP1 JUMP JUMPDEST PUSH1 0x1 PUSH1 0x1 PUSH1 0xA0 SHL SUB DUP2 AND PUSH1 0x0 SWAP1 DUP2 MSTORE PUSH1 0xB PUSH1 0x20 MSTORE PUSH1 0x40 DUP2 KECCAK256 SLOAD PUSH2 0x509 JUMP JUMPDEST PUSH1 0x0 PUSH1 0x60 DUP1 DUP3 DUP1 DUP1 DUP4 PUSH2 0xCE9 PUSH32 0x0 PUSH1 0x6 PUSH2 0x16BA JUMP JUMPDEST PUSH2 0xD14 PUSH32 0x0 PUSH1 0x7 PUSH2 0x16BA JUMP JUMPDEST PUSH1 0x40 DUP1 MLOAD PUSH1 0x0 DUP1 DUP3 MSTORE PUSH1 0x20 DUP3 ADD SWAP1 SWAP3 MSTORE PUSH1 0xF PUSH1 0xF8 SHL SWAP12 SWAP4 SWAP11 POP SWAP2 SWAP9 POP CHAINID SWAP8 POP ADDRESS SWAP7 POP SWAP5 POP SWAP3 POP SWAP1 POP JUMP JUMPDEST PUSH1 0x0 PUSH2 0xD48 PUSH2 0xDB8 JUMP JUMPDEST PUSH6 0xFFFFFFFFFFFF AND DUP3 LT PUSH2 0xD95 JUMPI PUSH1 0x40 MLOAD PUSH3 0x461BCD PUSH1 0xE5 SHL DUP2 MSTORE PUSH1 0x20 PUSH1 0x4 DUP3 ADD MSTORE PUSH1 0x14 PUSH1 0x24 DUP3 ADD MSTORE PUSH20 0x566F7465733A20667574757265206C6F6F6B757 PUSH1 0x64 SHL PUSH1 0x44 DUP3 ADD MSTORE PUSH1 0x64 ADD PUSH2 0x63C JUMP JUMPDEST PUSH2 0xDA9 PUSH2 0xDA1 DUP4 PUSH2 0x1395 JUMP JUMPDEST PUSH1 0xA SWAP1 PUSH2 0x13FE JUMP JUMPDEST PUSH1 0x1 PUSH1 0x1 PUSH1 0xE0 SHL SUB AND SWAP3 SWAP2 POP POP JUMP JUMPDEST PUSH1 0x0 PUSH2 0x8C3 NUMBER PUSH2 0x175E JUMP JUMPDEST PUSH1 0x60 PUSH1 0x1 DUP1 SLOAD PUSH2 0x51E SWAP1 PUSH2 0x28B7 JUMP JUMPDEST PUSH1 0x1 PUSH1 0x1 PUSH1 0xA0 SHL SUB DUP2 AND PUSH1 0x0 SWAP1 DUP2 MSTORE PUSH1 0x9 PUSH1 0x20 MSTORE PUSH1 0x40 DUP2 KECCAK256 PUSH2 0xDA9 SWAP1 PUSH2 0x17C5 JUMP JUMPDEST PUSH2 0xA17 CALLER DUP4 DUP4 PUSH2 0x17FF JUMP JUMPDEST PUSH2 0xE08 CALLER DUP4 PUSH2 0x11EB JUMP JUMPDEST PUSH2 0xE24 JUMPI PUSH1 0x40 MLOAD PUSH3 0x461BCD PUSH1 0xE5 SHL DUP2 MSTORE PUSH1 0x4 ADD PUSH2 0x63C SWAP1 PUSH2 0x2957 JUMP JUMPDEST PUSH2 0xE30 DUP5 DUP5 DUP5 DUP5 PUSH2 0x18CD JUMP JUMPDEST POP POP POP POP JUMP JUMPDEST DUP4 TIMESTAMP GT ISZERO PUSH2 0xE86 JUMPI PUSH1 0x40 MLOAD PUSH3 0x461BCD PUSH1 0xE5 SHL DUP2 MSTORE PUSH1 0x20 PUSH1 0x4 DUP3 ADD MSTORE PUSH1 0x18 PUSH1 0x24 DUP3 ADD MSTORE PUSH32 0x566F7465733A207369676E617475726520657870697265640000000000000000 PUSH1 0x44 DUP3 ADD MSTORE PUSH1 0x64 ADD PUSH2 0x63C JUMP JUMPDEST PUSH1 0x40 DUP1 MLOAD PUSH32 0xE48329057BFD03D55E49B547132E39CFFD9C1820AD7B9D4C5307691425D15ADF PUSH1 0x20 DUP3 ADD MSTORE PUSH1 0x1 PUSH1 0x1 PUSH1 0xA0 SHL SUB DUP9 AND SWAP2 DUP2 ADD SWAP2 SWAP1 SWAP2 MSTORE PUSH1 0x60 DUP2 ADD DUP7 SWAP1 MSTORE PUSH1 0x80 DUP2 ADD DUP6 SWAP1 MSTORE PUSH1 0x0 SWAP1 PUSH2 0xF00 SWAP1 PUSH2 0xEF8 SWAP1 PUSH1 0xA0 ADD PUSH1 0x40 MLOAD PUSH1 0x20 DUP2 DUP4 SUB SUB DUP2 MSTORE SWAP1 PUSH1 0x40 MSTORE DUP1 MLOAD SWAP1 PUSH1 0x20 ADD KECCAK256 PUSH2 0x18FD JUMP JUMPDEST DUP6 DUP6 DUP6 PUSH2 0x192A JUMP JUMPDEST SWAP1 POP PUSH2 0xF0B DUP2 PUSH2 0x1952 JUMP JUMPDEST DUP7 EQ PUSH2 0xF50 JUMPI PUSH1 0x40 MLOAD PUSH3 0x461BCD PUSH1 0xE5 SHL DUP2 MSTORE PUSH1 0x20 PUSH1 0x4 DUP3 ADD MSTORE PUSH1 0x14 PUSH1 0x24 DUP3 ADD MSTORE PUSH20 0x566F7465733A20696E76616C6964206E6F6E6365 PUSH1 0x60 SHL PUSH1 0x44 DUP3 ADD MSTORE PUSH1 0x64 ADD PUSH2 0x63C JUMP JUMPDEST PUSH2 0xF5A DUP2 DUP9 PUSH2 0x14B3 JUMP JUMPDEST POP POP POP POP POP POP POP JUMP JUMPDEST PUSH1 0x60 PUSH2 0xF6E DUP3 PUSH2 0x107C JUMP JUMPDEST PUSH1 0x0 PUSH2 0xF85 PUSH1 0x40 DUP1 MLOAD PUSH1 0x20 DUP2 ADD SWAP1 SWAP2 MSTORE PUSH1 0x0 DUP2 MSTORE SWAP1 JUMP JUMPDEST SWAP1 POP PUSH1 0x0 DUP2 MLOAD GT PUSH2 0xFA5 JUMPI PUSH1 0x40 MLOAD DUP1 PUSH1 0x20 ADD PUSH1 0x40 MSTORE DUP1 PUSH1 0x0 DUP2 MSTORE POP PUSH2 0xFD0 JUMP JUMPDEST DUP1 PUSH2 0xFAF DUP5 PUSH2 0x197A JUMP JUMPDEST PUSH1 0x40 MLOAD PUSH1 0x20 ADD PUSH2 0xFC0 SWAP3 SWAP2 SWAP1 PUSH2 0x29BD JUMP JUMPDEST PUSH1 0x40 MLOAD PUSH1 0x20 DUP2 DUP4 SUB SUB DUP2 MSTORE SWAP1 PUSH1 0x40 MSTORE JUMPDEST SWAP4 SWAP3 POP POP POP JUMP JUMPDEST PUSH1 0xD DUP2 DUP2 SLOAD DUP2 LT PUSH2 0xFE7 JUMPI PUSH1 0x0 DUP1 REVERT JUMPDEST PUSH1 0x0 SWAP2 DUP3 MSTORE PUSH1 0x20 SWAP1 SWAP2 KECCAK256 ADD SLOAD SWAP1 POP DUP2 JUMP JUMPDEST PUSH1 0x0 PUSH1 0x20 DUP4 MLOAD LT ISZERO PUSH2 0x1014 JUMPI PUSH2 0x100D DUP4 PUSH2 0x1A0D JUMP JUMPDEST SWAP1 POP PUSH2 0x509 JUMP JUMPDEST DUP2 PUSH2 0x101F DUP5 DUP3 PUSH2 0x2A3A JUMP JUMPDEST POP PUSH1 0xFF SWAP1 POP PUSH2 0x509 JUMP JUMPDEST SWAP1 JUMP JUMPDEST PUSH1 0x0 PUSH1 0x1 PUSH1 0x1 PUSH1 0xE0 SHL SUB NOT DUP3 AND PUSH4 0x80AC58CD PUSH1 0xE0 SHL EQ DUP1 PUSH2 0x105D JUMPI POP PUSH1 0x1 PUSH1 0x1 PUSH1 0xE0 SHL SUB NOT DUP3 AND PUSH4 0x5B5E139F PUSH1 0xE0 SHL EQ JUMPDEST DUP1 PUSH2 0x509 JUMPI POP PUSH4 0x1FFC9A7 PUSH1 0xE0 SHL PUSH1 0x1 PUSH1 0x1 PUSH1 0xE0 SHL SUB NOT DUP4 AND EQ PUSH2 0x509 JUMP JUMPDEST PUSH1 0x0 DUP2 DUP2 MSTORE PUSH1 0x2 PUSH1 0x20 MSTORE PUSH1 0x40 SWAP1 KECCAK256 SLOAD PUSH1 0x1 PUSH1 0x1 PUSH1 0xA0 SHL SUB AND PUSH2 0x10DB JUMPI PUSH1 0x40 MLOAD PUSH3 0x461BCD PUSH1 0xE5 SHL DUP2 MSTORE PUSH1 0x20 PUSH1 0x4 DUP3 ADD MSTORE PUSH1 0x18 PUSH1 0x24 DUP3 ADD MSTORE PUSH24 0x115490CDCC8C4E881A5B9D985B1A59081D1BDAD95B881251 PUSH1 0x42 SHL PUSH1 0x44 DUP3 ADD MSTORE PUSH1 0x64 ADD PUSH2 0x63C JUMP JUMPDEST POP JUMP JUMPDEST PUSH1 0x0 DUP2 DUP2 MSTORE PUSH1 0x4 PUSH1 0x20 MSTORE PUSH1 0x40 SWAP1 KECCAK256 DUP1 SLOAD PUSH1 0x1 PUSH1 0x1 PUSH1 0xA0 SHL SUB NOT AND PUSH1 0x1 PUSH1 0x1 PUSH1 0xA0 SHL SUB DUP5 AND SWAP1 DUP2 OR SWAP1 SWAP2 SSTORE DUP2 SWAP1 PUSH2 0x1113 DUP3 PUSH2 0xA1B JUMP JUMPDEST PUSH1 0x1 PUSH1 0x1 PUSH1 0xA0 SHL SUB AND PUSH32 0x8C5BE1E5EBEC7D5BD14F71427D1E84F3DD0314C0F7B2291E5B200AC8C7C3B925 PUSH1 0x40 MLOAD PUSH1 0x40 MLOAD DUP1 SWAP2 SUB SWAP1 LOG4 POP POP JUMP JUMPDEST PUSH1 0x0 PUSH2 0x1157 DUP3 PUSH2 0xA1B JUMP JUMPDEST SWAP1 POP PUSH2 0x1162 DUP3 PUSH2 0xA1B JUMP JUMPDEST PUSH1 0x0 DUP4 DUP2 MSTORE PUSH1 0x4 PUSH1 0x20 SWAP1 DUP2 MSTORE PUSH1 0x40 DUP1 DUP4 KECCAK256 DUP1 SLOAD PUSH1 0x1 PUSH1 0x1 PUSH1 0xA0 SHL SUB NOT SWAP1 DUP2 AND SWAP1 SWAP2 SSTORE PUSH1 0x1 PUSH1 0x1 PUSH1 0xA0 SHL SUB DUP6 AND DUP1 DUP6 MSTORE PUSH1 0x3 DUP5 MSTORE DUP3 DUP6 KECCAK256 DUP1 SLOAD PUSH1 0x0 NOT ADD SWAP1 SSTORE DUP8 DUP6 MSTORE PUSH1 0x2 SWAP1 SWAP4 MSTORE DUP2 DUP5 KECCAK256 DUP1 SLOAD SWAP1 SWAP2 AND SWAP1 SSTORE MLOAD SWAP3 SWAP4 POP DUP5 SWAP3 PUSH32 0xDDF252AD1BE2C89B69C2B068FC378DAA952BA7F163C4A11628F55A4DF523B3EF SWAP1 DUP4 SWAP1 LOG4 PUSH2 0xA17 DUP2 PUSH1 0x0 DUP5 PUSH1 0x1 PUSH2 0x1A4B JUMP JUMPDEST PUSH1 0x0 DUP1 PUSH2 0x11F7 DUP4 PUSH2 0xA1B JUMP JUMPDEST SWAP1 POP DUP1 PUSH1 0x1 PUSH1 0x1 PUSH1 0xA0 SHL SUB AND DUP5 PUSH1 0x1 PUSH1 0x1 PUSH1 0xA0 SHL SUB AND EQ DUP1 PUSH2 0x123E JUMPI POP PUSH1 0x1 PUSH1 0x1 PUSH1 0xA0 SHL SUB DUP1 DUP3 AND PUSH1 0x0 SWAP1 DUP2 MSTORE PUSH1 0x5 PUSH1 0x20 SWAP1 DUP2 MSTORE PUSH1 0x40 DUP1 DUP4 KECCAK256 SWAP4 DUP9 AND DUP4 MSTORE SWAP3 SWAP1 MSTORE KECCAK256 SLOAD PUSH1 0xFF AND JUMPDEST DUP1 PUSH2 0x1262 JUMPI POP DUP4 PUSH1 0x1 PUSH1 0x1 PUSH1 0xA0 SHL SUB AND PUSH2 0x1257 DUP5 PUSH2 0x5A1 JUMP JUMPDEST PUSH1 0x1 PUSH1 0x1 PUSH1 0xA0 SHL SUB AND EQ JUMPDEST SWAP5 SWAP4 POP POP POP POP JUMP JUMPDEST PUSH1 0x0 ADDRESS PUSH1 0x1 PUSH1 0x1 PUSH1 0xA0 SHL SUB PUSH32 0x0 AND EQ DUP1 ISZERO PUSH2 0x12C3 JUMPI POP PUSH32 0x0 CHAINID EQ JUMPDEST ISZERO PUSH2 0x12ED JUMPI POP PUSH32 0x0 SWAP1 JUMP JUMPDEST PUSH2 0x8C3 PUSH1 0x40 DUP1 MLOAD PUSH32 0x8B73C3C69BB8FE3D512ECC4CF759CC79239F7B179B0FFACAA9A75D522B39400F PUSH1 0x20 DUP3 ADD MSTORE PUSH32 0x0 SWAP2 DUP2 ADD SWAP2 SWAP1 SWAP2 MSTORE PUSH32 0x0 PUSH1 0x60 DUP3 ADD MSTORE CHAINID PUSH1 0x80 DUP3 ADD MSTORE ADDRESS PUSH1 0xA0 DUP3 ADD MSTORE PUSH1 0x0 SWAP1 PUSH1 0xC0 ADD PUSH1 0x40 MLOAD PUSH1 0x20 DUP2 DUP4 SUB SUB DUP2 MSTORE SWAP1 PUSH1 0x40 MSTORE DUP1 MLOAD SWAP1 PUSH1 0x20 ADD KECCAK256 SWAP1 POP SWAP1 JUMP JUMPDEST PUSH1 0x0 PUSH4 0xFFFFFFFF DUP3 GT ISZERO PUSH2 0x13FA JUMPI PUSH1 0x40 MLOAD PUSH3 0x461BCD PUSH1 0xE5 SHL DUP2 MSTORE PUSH1 0x20 PUSH1 0x4 DUP3 ADD MSTORE PUSH1 0x26 PUSH1 0x24 DUP3 ADD MSTORE PUSH32 0x53616665436173743A2076616C756520646F65736E27742066697420696E2033 PUSH1 0x44 DUP3 ADD MSTORE PUSH6 0x322062697473 PUSH1 0xD0 SHL PUSH1 0x64 DUP3 ADD MSTORE PUSH1 0x84 ADD PUSH2 0x63C JUMP JUMPDEST POP SWAP1 JUMP JUMPDEST DUP2 SLOAD PUSH1 0x0 SWAP1 DUP2 DUP2 PUSH1 0x5 DUP2 GT ISZERO PUSH2 0x145B JUMPI PUSH1 0x0 PUSH2 0x1419 DUP5 PUSH2 0x1A5B JUMP JUMPDEST PUSH2 0x1423 SWAP1 DUP6 PUSH2 0x2918 JUMP JUMPDEST PUSH1 0x0 DUP9 DUP2 MSTORE PUSH1 0x20 SWAP1 KECCAK256 SWAP1 SWAP2 POP DUP2 ADD SLOAD PUSH4 0xFFFFFFFF SWAP1 DUP2 AND SWAP1 DUP8 AND LT ISZERO PUSH2 0x144B JUMPI DUP1 SWAP2 POP PUSH2 0x1459 JUMP JUMPDEST PUSH2 0x1456 DUP2 PUSH1 0x1 PUSH2 0x2AFA JUMP JUMPDEST SWAP3 POP JUMPDEST POP JUMPDEST PUSH1 0x0 PUSH2 0x1469 DUP8 DUP8 DUP6 DUP6 PUSH2 0x1B43 JUMP JUMPDEST SWAP1 POP DUP1 ISZERO PUSH2 0x14A5 JUMPI PUSH2 0x148E DUP8 PUSH2 0x1480 PUSH1 0x1 DUP5 PUSH2 0x2918 JUMP JUMPDEST PUSH1 0x0 SWAP2 DUP3 MSTORE PUSH1 0x20 SWAP1 SWAP2 KECCAK256 ADD SWAP1 JUMP JUMPDEST SLOAD PUSH5 0x100000000 SWAP1 DIV PUSH1 0x1 PUSH1 0x1 PUSH1 0xE0 SHL SUB AND PUSH2 0x14A8 JUMP JUMPDEST PUSH1 0x0 JUMPDEST SWAP8 SWAP7 POP POP POP POP POP POP POP JUMP JUMPDEST PUSH1 0x1 PUSH1 0x1 PUSH1 0xA0 SHL SUB DUP3 DUP2 AND PUSH1 0x0 DUP2 DUP2 MSTORE PUSH1 0x8 PUSH1 0x20 MSTORE PUSH1 0x40 DUP1 DUP3 KECCAK256 DUP1 SLOAD DUP7 DUP7 AND PUSH1 0x1 PUSH1 0x1 PUSH1 0xA0 SHL SUB NOT DUP3 AND DUP2 OR SWAP1 SWAP3 SSTORE SWAP2 MLOAD SWAP2 SWAP1 SWAP5 AND SWAP4 SWAP3 DUP5 SWAP3 SWAP1 SWAP2 PUSH32 0x3134E8A2E6D97E929A7E54011EA5485D7D196DD5F0BA4D4EF95803E8E3FC257F SWAP2 SWAP1 LOG4 PUSH2 0x6DD DUP2 DUP4 PUSH2 0x1520 DUP7 PUSH2 0x1BA1 JUMP JUMPDEST PUSH2 0x1BAC JUMP JUMPDEST PUSH1 0x1 PUSH1 0x1 PUSH1 0xA0 SHL SUB DUP3 AND PUSH2 0x157B JUMPI PUSH1 0x40 MLOAD PUSH3 0x461BCD PUSH1 0xE5 SHL DUP2 MSTORE PUSH1 0x20 PUSH1 0x4 DUP3 ADD DUP2 SWAP1 MSTORE PUSH1 0x24 DUP3 ADD MSTORE PUSH32 0x4552433732313A206D696E7420746F20746865207A65726F2061646472657373 PUSH1 0x44 DUP3 ADD MSTORE PUSH1 0x64 ADD PUSH2 0x63C JUMP JUMPDEST PUSH1 0x0 DUP2 DUP2 MSTORE PUSH1 0x2 PUSH1 0x20 MSTORE PUSH1 0x40 SWAP1 KECCAK256 SLOAD PUSH1 0x1 PUSH1 0x1 PUSH1 0xA0 SHL SUB AND ISZERO PUSH2 0x15E0 JUMPI PUSH1 0x40 MLOAD PUSH3 0x461BCD PUSH1 0xE5 SHL DUP2 MSTORE PUSH1 0x20 PUSH1 0x4 DUP3 ADD MSTORE PUSH1 0x1C PUSH1 0x24 DUP3 ADD MSTORE PUSH32 0x4552433732313A20746F6B656E20616C7265616479206D696E74656400000000 PUSH1 0x44 DUP3 ADD MSTORE PUSH1 0x64 ADD PUSH2 0x63C JUMP JUMPDEST PUSH1 0x0 DUP2 DUP2 MSTORE PUSH1 0x2 PUSH1 0x20 MSTORE PUSH1 0x40 SWAP1 KECCAK256 SLOAD PUSH1 0x1 PUSH1 0x1 PUSH1 0xA0 SHL SUB AND ISZERO PUSH2 0x1645 JUMPI PUSH1 0x40 MLOAD PUSH3 0x461BCD PUSH1 0xE5 SHL DUP2 MSTORE PUSH1 0x20 PUSH1 0x4 DUP3 ADD MSTORE PUSH1 0x1C PUSH1 0x24 DUP3 ADD MSTORE PUSH32 0x4552433732313A20746F6B656E20616C7265616479206D696E74656400000000 PUSH1 0x44 DUP3 ADD MSTORE PUSH1 0x64 ADD PUSH2 0x63C JUMP JUMPDEST PUSH1 0x1 PUSH1 0x1 PUSH1 0xA0 SHL SUB DUP3 AND PUSH1 0x0 DUP2 DUP2 MSTORE PUSH1 0x3 PUSH1 0x20 SWAP1 DUP2 MSTORE PUSH1 0x40 DUP1 DUP4 KECCAK256 DUP1 SLOAD PUSH1 0x1 ADD SWAP1 SSTORE DUP5 DUP4 MSTORE PUSH1 0x2 SWAP1 SWAP2 MSTORE DUP1 DUP3 KECCAK256 DUP1 SLOAD PUSH1 0x1 PUSH1 0x1 PUSH1 0xA0 SHL SUB NOT AND DUP5 OR SWAP1 SSTORE MLOAD DUP4 SWAP3 SWAP2 SWAP1 PUSH32 0xDDF252AD1BE2C89B69C2B068FC378DAA952BA7F163C4A11628F55A4DF523B3EF SWAP1 DUP3 SWAP1 LOG4 PUSH2 0xA17 PUSH1 0x0 DUP4 DUP4 PUSH1 0x1 PUSH2 0x1A4B JUMP JUMPDEST PUSH1 0x60 PUSH1 0xFF DUP4 EQ PUSH2 0x16CD JUMPI PUSH2 0x100D DUP4 PUSH2 0x1D18 JUMP JUMPDEST DUP2 DUP1 SLOAD PUSH2 0x16D9 SWAP1 PUSH2 0x28B7 JUMP JUMPDEST DUP1 PUSH1 0x1F ADD PUSH1 0x20 DUP1 SWAP2 DIV MUL PUSH1 0x20 ADD PUSH1 0x40 MLOAD SWAP1 DUP2 ADD PUSH1 0x40 MSTORE DUP1 SWAP3 SWAP2 SWAP1 DUP2 DUP2 MSTORE PUSH1 0x20 ADD DUP3 DUP1 SLOAD PUSH2 0x1705 SWAP1 PUSH2 0x28B7 JUMP JUMPDEST DUP1 ISZERO PUSH2 0x1752 JUMPI DUP1 PUSH1 0x1F LT PUSH2 0x1727 JUMPI PUSH2 0x100 DUP1 DUP4 SLOAD DIV MUL DUP4 MSTORE SWAP2 PUSH1 0x20 ADD SWAP2 PUSH2 0x1752 JUMP JUMPDEST DUP3 ADD SWAP2 SWAP1 PUSH1 0x0 MSTORE PUSH1 0x20 PUSH1 0x0 KECCAK256 SWAP1 JUMPDEST DUP2 SLOAD DUP2 MSTORE SWAP1 PUSH1 0x1 ADD SWAP1 PUSH1 0x20 ADD DUP1 DUP4 GT PUSH2 0x1735 JUMPI DUP3 SWAP1 SUB PUSH1 0x1F AND DUP3 ADD SWAP2 JUMPDEST POP POP POP POP POP SWAP1 POP PUSH2 0x509 JUMP JUMPDEST PUSH1 0x0 PUSH6 0xFFFFFFFFFFFF DUP3 GT ISZERO PUSH2 0x13FA JUMPI PUSH1 0x40 MLOAD PUSH3 0x461BCD PUSH1 0xE5 SHL DUP2 MSTORE PUSH1 0x20 PUSH1 0x4 DUP3 ADD MSTORE PUSH1 0x26 PUSH1 0x24 DUP3 ADD MSTORE PUSH32 0x53616665436173743A2076616C756520646F65736E27742066697420696E2034 PUSH1 0x44 DUP3 ADD MSTORE PUSH6 0x382062697473 PUSH1 0xD0 SHL PUSH1 0x64 DUP3 ADD MSTORE PUSH1 0x84 ADD PUSH2 0x63C JUMP JUMPDEST DUP1 SLOAD PUSH1 0x0 SWAP1 DUP1 ISZERO PUSH2 0x17F6 JUMPI PUSH2 0x17DF DUP4 PUSH2 0x1480 PUSH1 0x1 DUP5 PUSH2 0x2918 JUMP JUMPDEST SLOAD PUSH5 0x100000000 SWAP1 DIV PUSH1 0x1 PUSH1 0x1 PUSH1 0xE0 SHL SUB AND PUSH2 0xFD0 JUMP JUMPDEST PUSH1 0x0 SWAP4 SWAP3 POP POP POP JUMP JUMPDEST DUP2 PUSH1 0x1 PUSH1 0x1 PUSH1 0xA0 SHL SUB AND DUP4 PUSH1 0x1 PUSH1 0x1 PUSH1 0xA0 SHL SUB AND SUB PUSH2 0x1860 JUMPI PUSH1 0x40 MLOAD PUSH3 0x461BCD PUSH1 0xE5 SHL DUP2 MSTORE PUSH1 0x20 PUSH1 0x4 DUP3 ADD MSTORE PUSH1 0x19 PUSH1 0x24 DUP3 ADD MSTORE PUSH32 0x4552433732313A20617070726F766520746F2063616C6C657200000000000000 PUSH1 0x44 DUP3 ADD MSTORE PUSH1 0x64 ADD PUSH2 0x63C JUMP JUMPDEST PUSH1 0x1 PUSH1 0x1 PUSH1 0xA0 SHL SUB DUP4 DUP2 AND PUSH1 0x0 DUP2 DUP2 MSTORE PUSH1 0x5 PUSH1 0x20 SWAP1 DUP2 MSTORE PUSH1 0x40 DUP1 DUP4 KECCAK256 SWAP5 DUP8 AND DUP1 DUP5 MSTORE SWAP5 DUP3 MSTORE SWAP2 DUP3 SWAP1 KECCAK256 DUP1 SLOAD PUSH1 0xFF NOT AND DUP7 ISZERO ISZERO SWAP1 DUP2 OR SWAP1 SWAP2 SSTORE SWAP2 MLOAD SWAP2 DUP3 MSTORE PUSH32 0x17307EAB39AB6107E8899845AD3D59BD9653F200F220920489CA2B5937696C31 SWAP2 ADD PUSH1 0x40 MLOAD DUP1 SWAP2 SUB SWAP1 LOG3 POP POP POP JUMP JUMPDEST PUSH2 0x18D5 PUSH1 0x0 DUP1 REVERT JUMPDEST PUSH2 0x18E1 DUP5 DUP5 DUP5 DUP5 PUSH2 0x1D57 JUMP JUMPDEST PUSH2 0xE30 JUMPI PUSH1 0x40 MLOAD PUSH3 0x461BCD PUSH1 0xE5 SHL DUP2 MSTORE PUSH1 0x4 ADD PUSH2 0x63C SWAP1 PUSH2 0x2B0D JUMP JUMPDEST PUSH1 0x0 PUSH2 0x509 PUSH2 0x190A PUSH2 0x126A JUMP JUMPDEST DUP4 PUSH1 0x40 MLOAD PUSH2 0x1901 PUSH1 0xF0 SHL DUP2 MSTORE PUSH1 0x2 DUP2 ADD SWAP3 SWAP1 SWAP3 MSTORE PUSH1 0x22 DUP3 ADD MSTORE PUSH1 0x42 SWAP1 KECCAK256 SWAP1 JUMP JUMPDEST PUSH1 0x0 DUP1 PUSH1 0x0 PUSH2 0x193B DUP8 DUP8 DUP8 DUP8 PUSH2 0x1E55 JUMP JUMPDEST SWAP2 POP SWAP2 POP PUSH2 0x1948 DUP2 PUSH2 0x1F19 JUMP JUMPDEST POP SWAP6 SWAP5 POP POP POP POP POP JUMP JUMPDEST PUSH1 0x1 PUSH1 0x1 PUSH1 0xA0 SHL SUB DUP2 AND PUSH1 0x0 SWAP1 DUP2 MSTORE PUSH1 0xB PUSH1 0x20 MSTORE PUSH1 0x40 SWAP1 KECCAK256 DUP1 SLOAD PUSH1 0x1 DUP2 ADD DUP3 SSTORE SWAP1 JUMPDEST POP SWAP2 SWAP1 POP JUMP JUMPDEST PUSH1 0x60 PUSH1 0x0 PUSH2 0x1987 DUP4 PUSH2 0x2063 JUMP JUMPDEST PUSH1 0x1 ADD SWAP1 POP PUSH1 0x0 DUP2 PUSH8 0xFFFFFFFFFFFFFFFF DUP2 GT ISZERO PUSH2 0x19A7 JUMPI PUSH2 0x19A7 PUSH2 0x2732 JUMP JUMPDEST PUSH1 0x40 MLOAD SWAP1 DUP1 DUP3 MSTORE DUP1 PUSH1 0x1F ADD PUSH1 0x1F NOT AND PUSH1 0x20 ADD DUP3 ADD PUSH1 0x40 MSTORE DUP1 ISZERO PUSH2 0x19D1 JUMPI PUSH1 0x20 DUP3 ADD DUP2 DUP1 CALLDATASIZE DUP4 CALLDATACOPY ADD SWAP1 POP JUMPDEST POP SWAP1 POP DUP2 DUP2 ADD PUSH1 0x20 ADD JUMPDEST PUSH1 0x0 NOT ADD PUSH16 0x181899199A1A9B1B9C1CB0B131B232B3 PUSH1 0x81 SHL PUSH1 0xA DUP7 MOD BYTE DUP2 MSTORE8 PUSH1 0xA DUP6 DIV SWAP5 POP DUP5 PUSH2 0x19DB JUMPI POP SWAP4 SWAP3 POP POP POP JUMP JUMPDEST PUSH1 0x0 DUP1 DUP3 SWAP1 POP PUSH1 0x1F DUP2 MLOAD GT ISZERO PUSH2 0x1A38 JUMPI DUP3 PUSH1 0x40 MLOAD PUSH4 0x305A27A9 PUSH1 0xE0 SHL DUP2 MSTORE PUSH1 0x4 ADD PUSH2 0x63C SWAP2 SWAP1 PUSH2 0x2597 JUMP JUMPDEST DUP1 MLOAD PUSH2 0x1A43 DUP3 PUSH2 0x2B75 JUMP JUMPDEST OR SWAP4 SWAP3 POP POP POP JUMP JUMPDEST PUSH2 0x1A56 DUP5 DUP5 DUP4 PUSH2 0x213B JUMP JUMPDEST PUSH2 0xE30 JUMP JUMPDEST PUSH1 0x0 DUP2 PUSH1 0x0 SUB PUSH2 0x1A6D JUMPI POP PUSH1 0x0 SWAP2 SWAP1 POP JUMP JUMPDEST PUSH1 0x0 PUSH1 0x1 PUSH2 0x1A7A DUP5 PUSH2 0x21B1 JUMP JUMPDEST SWAP1 SHR PUSH1 0x1 SWAP1 SHL SWAP1 POP PUSH1 0x1 DUP2 DUP5 DUP2 PUSH2 0x1A93 JUMPI PUSH2 0x1A93 PUSH2 0x2B5F JUMP JUMPDEST DIV DUP3 ADD SWAP1 SHR SWAP1 POP PUSH1 0x1 DUP2 DUP5 DUP2 PUSH2 0x1AAB JUMPI PUSH2 0x1AAB PUSH2 0x2B5F JUMP JUMPDEST DIV DUP3 ADD SWAP1 SHR SWAP1 POP PUSH1 0x1 DUP2 DUP5 DUP2 PUSH2 0x1AC3 JUMPI PUSH2 0x1AC3 PUSH2 0x2B5F JUMP JUMPDEST DIV DUP3 ADD SWAP1 SHR SWAP1 POP PUSH1 0x1 DUP2 DUP5 DUP2 PUSH2 0x1ADB JUMPI PUSH2 0x1ADB PUSH2 0x2B5F JUMP JUMPDEST DIV DUP3 ADD SWAP1 SHR SWAP1 POP PUSH1 0x1 DUP2 DUP5 DUP2 PUSH2 0x1AF3 JUMPI PUSH2 0x1AF3 PUSH2 0x2B5F JUMP JUMPDEST DIV DUP3 ADD SWAP1 SHR SWAP1 POP PUSH1 0x1 DUP2 DUP5 DUP2 PUSH2 0x1B0B JUMPI PUSH2 0x1B0B PUSH2 0x2B5F JUMP JUMPDEST DIV DUP3 ADD SWAP1 SHR SWAP1 POP PUSH1 0x1 DUP2 DUP5 DUP2 PUSH2 0x1B23 JUMPI PUSH2 0x1B23 PUSH2 0x2B5F JUMP JUMPDEST DIV DUP3 ADD SWAP1 SHR SWAP1 POP PUSH2 0xFD0 DUP2 DUP3 DUP6 DUP2 PUSH2 0x1B3D JUMPI PUSH2 0x1B3D PUSH2 0x2B5F JUMP JUMPDEST DIV PUSH2 0x2245 JUMP JUMPDEST PUSH1 0x0 JUMPDEST DUP2 DUP4 LT ISZERO PUSH2 0x1B99 JUMPI PUSH1 0x0 PUSH2 0x1B5A DUP5 DUP5 PUSH2 0x225B JUMP JUMPDEST PUSH1 0x0 DUP8 DUP2 MSTORE PUSH1 0x20 SWAP1 KECCAK256 SWAP1 SWAP2 POP PUSH4 0xFFFFFFFF DUP7 AND SWAP1 DUP3 ADD SLOAD PUSH4 0xFFFFFFFF AND GT ISZERO PUSH2 0x1B85 JUMPI DUP1 SWAP3 POP PUSH2 0x1B93 JUMP JUMPDEST PUSH2 0x1B90 DUP2 PUSH1 0x1 PUSH2 0x2AFA JUMP JUMPDEST SWAP4 POP JUMPDEST POP PUSH2 0x1B46 JUMP JUMPDEST POP SWAP4 SWAP3 POP POP POP JUMP JUMPDEST PUSH1 0x0 PUSH2 0x509 DUP3 PUSH2 0xC11 JUMP JUMPDEST DUP2 PUSH1 0x1 PUSH1 0x1 PUSH1 0xA0 SHL SUB AND DUP4 PUSH1 0x1 PUSH1 0x1 PUSH1 0xA0 SHL SUB AND EQ ISZERO DUP1 ISZERO PUSH2 0x1BCE JUMPI POP PUSH1 0x0 DUP2 GT JUMPDEST ISZERO PUSH2 0x6DD JUMPI PUSH1 0x1 PUSH1 0x1 PUSH1 0xA0 SHL SUB DUP4 AND ISZERO PUSH2 0x1C76 JUMPI PUSH1 0x1 PUSH1 0x1 PUSH1 0xA0 SHL SUB DUP4 AND PUSH1 0x0 SWAP1 DUP2 MSTORE PUSH1 0x9 PUSH1 0x20 MSTORE PUSH1 0x40 DUP2 KECCAK256 DUP2 SWAP1 PUSH2 0x1C11 SWAP1 PUSH2 0x2276 PUSH2 0x1C0C DUP7 PUSH2 0x2282 JUMP JUMPDEST PUSH2 0x22EB JUMP JUMPDEST PUSH1 0x1 PUSH1 0x1 PUSH1 0xE0 SHL SUB AND SWAP2 POP PUSH1 0x1 PUSH1 0x1 PUSH1 0xE0 SHL SUB AND SWAP2 POP DUP5 PUSH1 0x1 PUSH1 0x1 PUSH1 0xA0 SHL SUB AND PUSH32 0xDEC2BACDD2F05B59DE34DA9B523DFF8BE42E5E38E818C82FDB0BAE774387A724 DUP4 DUP4 PUSH1 0x40 MLOAD PUSH2 0x1C6B SWAP3 SWAP2 SWAP1 SWAP2 DUP3 MSTORE PUSH1 0x20 DUP3 ADD MSTORE PUSH1 0x40 ADD SWAP1 JUMP JUMPDEST PUSH1 0x40 MLOAD DUP1 SWAP2 SUB SWAP1 LOG2 POP POP JUMPDEST PUSH1 0x1 PUSH1 0x1 PUSH1 0xA0 SHL SUB DUP3 AND ISZERO PUSH2 0x6DD JUMPI PUSH1 0x1 PUSH1 0x1 PUSH1 0xA0 SHL SUB DUP3 AND PUSH1 0x0 SWAP1 DUP2 MSTORE PUSH1 0x9 PUSH1 0x20 MSTORE PUSH1 0x40 DUP2 KECCAK256 DUP2 SWAP1 PUSH2 0x1CAF SWAP1 PUSH2 0x2334 PUSH2 0x1C0C DUP7 PUSH2 0x2282 JUMP JUMPDEST PUSH1 0x1 PUSH1 0x1 PUSH1 0xE0 SHL SUB AND SWAP2 POP PUSH1 0x1 PUSH1 0x1 PUSH1 0xE0 SHL SUB AND SWAP2 POP DUP4 PUSH1 0x1 PUSH1 0x1 PUSH1 0xA0 SHL SUB AND PUSH32 0xDEC2BACDD2F05B59DE34DA9B523DFF8BE42E5E38E818C82FDB0BAE774387A724 DUP4 DUP4 PUSH1 0x40 MLOAD PUSH2 0x1D09 SWAP3 SWAP2 SWAP1 SWAP2 DUP3 MSTORE PUSH1 0x20 DUP3 ADD MSTORE PUSH1 0x40 ADD SWAP1 JUMP JUMPDEST PUSH1 0x40 MLOAD DUP1 SWAP2 SUB SWAP1 LOG2 POP POP POP POP POP JUMP JUMPDEST PUSH1 0x60 PUSH1 0x0 PUSH2 0x1D25 DUP4 PUSH2 0x2340 JUMP JUMPDEST PUSH1 0x40 DUP1 MLOAD PUSH1 0x20 DUP1 DUP3 MSTORE DUP2 DUP4 ADD SWAP1 SWAP3 MSTORE SWAP2 SWAP3 POP PUSH1 0x0 SWAP2 SWAP1 PUSH1 0x20 DUP3 ADD DUP2 DUP1 CALLDATASIZE DUP4 CALLDATACOPY POP POP POP SWAP2 DUP3 MSTORE POP PUSH1 0x20 DUP2 ADD SWAP3 SWAP1 SWAP3 MSTORE POP SWAP1 JUMP JUMPDEST PUSH1 0x0 PUSH1 0x1 PUSH1 0x1 PUSH1 0xA0 SHL SUB DUP5 AND EXTCODESIZE ISZERO PUSH2 0x1E4D JUMPI PUSH1 0x40 MLOAD PUSH4 0xA85BD01 PUSH1 0xE1 SHL DUP2 MSTORE PUSH1 0x1 PUSH1 0x1 PUSH1 0xA0 SHL SUB DUP6 AND SWAP1 PUSH4 0x150B7A02 SWAP1 PUSH2 0x1D9B SWAP1 CALLER SWAP1 DUP10 SWAP1 DUP9 SWAP1 DUP9 SWAP1 PUSH1 0x4 ADD PUSH2 0x2B99 JUMP JUMPDEST PUSH1 0x20 PUSH1 0x40 MLOAD DUP1 DUP4 SUB DUP2 PUSH1 0x0 DUP8 GAS CALL SWAP3 POP POP POP DUP1 ISZERO PUSH2 0x1DD6 JUMPI POP PUSH1 0x40 DUP1 MLOAD PUSH1 0x1F RETURNDATASIZE SWAP1 DUP2 ADD PUSH1 0x1F NOT AND DUP3 ADD SWAP1 SWAP3 MSTORE PUSH2 0x1DD3 SWAP2 DUP2 ADD SWAP1 PUSH2 0x2BD6 JUMP JUMPDEST PUSH1 0x1 JUMPDEST PUSH2 0x1E33 JUMPI RETURNDATASIZE DUP1 DUP1 ISZERO PUSH2 0x1E04 JUMPI PUSH1 0x40 MLOAD SWAP2 POP PUSH1 0x1F NOT PUSH1 0x3F RETURNDATASIZE ADD AND DUP3 ADD PUSH1 0x40 MSTORE RETURNDATASIZE DUP3 MSTORE RETURNDATASIZE PUSH1 0x0 PUSH1 0x20 DUP5 ADD RETURNDATACOPY PUSH2 0x1E09 JUMP JUMPDEST PUSH1 0x60 SWAP2 POP JUMPDEST POP DUP1 MLOAD PUSH1 0x0 SUB PUSH2 0x1E2B JUMPI PUSH1 0x40 MLOAD PUSH3 0x461BCD PUSH1 0xE5 SHL DUP2 MSTORE PUSH1 0x4 ADD PUSH2 0x63C SWAP1 PUSH2 0x2B0D JUMP JUMPDEST DUP1 MLOAD DUP2 PUSH1 0x20 ADD REVERT JUMPDEST PUSH1 0x1 PUSH1 0x1 PUSH1 0xE0 SHL SUB NOT AND PUSH4 0xA85BD01 PUSH1 0xE1 SHL EQ SWAP1 POP PUSH2 0x1262 JUMP JUMPDEST POP PUSH1 0x1 PUSH2 0x1262 JUMP JUMPDEST PUSH1 0x0 DUP1 PUSH32 0x7FFFFFFFFFFFFFFFFFFFFFFFFFFFFFFF5D576E7357A4501DDFE92F46681B20A0 DUP4 GT ISZERO PUSH2 0x1E8C JUMPI POP PUSH1 0x0 SWAP1 POP PUSH1 0x3 PUSH2 0x1F10 JUMP JUMPDEST PUSH1 0x40 DUP1 MLOAD PUSH1 0x0 DUP1 DUP3 MSTORE PUSH1 0x20 DUP3 ADD DUP1 DUP5 MSTORE DUP10 SWAP1 MSTORE PUSH1 0xFF DUP9 AND SWAP3 DUP3 ADD SWAP3 SWAP1 SWAP3 MSTORE PUSH1 0x60 DUP2 ADD DUP7 SWAP1 MSTORE PUSH1 0x80 DUP2 ADD DUP6 SWAP1 MSTORE PUSH1 0x1 SWAP1 PUSH1 0xA0 ADD PUSH1 0x20 PUSH1 0x40 MLOAD PUSH1 0x20 DUP2 SUB SWAP1 DUP1 DUP5 SUB SWAP1 DUP6 GAS STATICCALL ISZERO DUP1 ISZERO PUSH2 0x1EE0 JUMPI RETURNDATASIZE PUSH1 0x0 DUP1 RETURNDATACOPY RETURNDATASIZE PUSH1 0x0 REVERT JUMPDEST POP POP PUSH1 0x40 MLOAD PUSH1 0x1F NOT ADD MLOAD SWAP2 POP POP PUSH1 0x1 PUSH1 0x1 PUSH1 0xA0 SHL SUB DUP2 AND PUSH2 0x1F09 JUMPI PUSH1 0x0 PUSH1 0x1 SWAP3 POP SWAP3 POP POP PUSH2 0x1F10 JUMP JUMPDEST SWAP2 POP PUSH1 0x0 SWAP1 POP JUMPDEST SWAP5 POP SWAP5 SWAP3 POP POP POP JUMP JUMPDEST PUSH1 0x0 DUP2 PUSH1 0x4 DUP2 GT ISZERO PUSH2 0x1F2D JUMPI PUSH2 0x1F2D PUSH2 0x2BF3 JUMP JUMPDEST SUB PUSH2 0x1F35 JUMPI POP JUMP JUMPDEST PUSH1 0x1 DUP2 PUSH1 0x4 DUP2 GT ISZERO PUSH2 0x1F49 JUMPI PUSH2 0x1F49 PUSH2 0x2BF3 JUMP JUMPDEST SUB PUSH2 0x1F96 JUMPI PUSH1 0x40 MLOAD PUSH3 0x461BCD PUSH1 0xE5 SHL DUP2 MSTORE PUSH1 0x20 PUSH1 0x4 DUP3 ADD MSTORE PUSH1 0x18 PUSH1 0x24 DUP3 ADD MSTORE PUSH32 0x45434453413A20696E76616C6964207369676E61747572650000000000000000 PUSH1 0x44 DUP3 ADD MSTORE PUSH1 0x64 ADD PUSH2 0x63C JUMP JUMPDEST PUSH1 0x2 DUP2 PUSH1 0x4 DUP2 GT ISZERO PUSH2 0x1FAA JUMPI PUSH2 0x1FAA PUSH2 0x2BF3 JUMP JUMPDEST SUB PUSH2 0x1FF7 JUMPI PUSH1 0x40 MLOAD PUSH3 0x461BCD PUSH1 0xE5 SHL DUP2 MSTORE PUSH1 0x20 PUSH1 0x4 DUP3 ADD MSTORE PUSH1 0x1F PUSH1 0x24 DUP3 ADD MSTORE PUSH32 0x45434453413A20696E76616C6964207369676E6174757265206C656E67746800 PUSH1 0x44 DUP3 ADD MSTORE PUSH1 0x64 ADD PUSH2 0x63C JUMP JUMPDEST PUSH1 0x3 DUP2 PUSH1 0x4 DUP2 GT ISZERO PUSH2 0x200B JUMPI PUSH2 0x200B PUSH2 0x2BF3 JUMP JUMPDEST SUB PUSH2 0x10DB JUMPI PUSH1 0x40 MLOAD PUSH3 0x461BCD PUSH1 0xE5 SHL DUP2 MSTORE PUSH1 0x20 PUSH1 0x4 DUP3 ADD MSTORE PUSH1 0x22 PUSH1 0x24 DUP3 ADD MSTORE PUSH32 0x45434453413A20696E76616C6964207369676E6174757265202773272076616C PUSH1 0x44 DUP3 ADD MSTORE PUSH2 0x7565 PUSH1 0xF0 SHL PUSH1 0x64 DUP3 ADD MSTORE PUSH1 0x84 ADD PUSH2 0x63C JUMP JUMPDEST PUSH1 0x0 DUP1 PUSH19 0x184F03E93FF9F4DAA797ED6E38ED64BF6A1F01 PUSH1 0x40 SHL DUP4 LT PUSH2 0x20A2 JUMPI PUSH19 0x184F03E93FF9F4DAA797ED6E38ED64BF6A1F01 PUSH1 0x40 SHL DUP4 DIV SWAP3 POP PUSH1 0x40 ADD JUMPDEST PUSH14 0x4EE2D6D415B85ACEF8100000000 DUP4 LT PUSH2 0x20CE JUMPI PUSH14 0x4EE2D6D415B85ACEF8100000000 DUP4 DIV SWAP3 POP PUSH1 0x20 ADD JUMPDEST PUSH7 0x2386F26FC10000 DUP4 LT PUSH2 0x20EC JUMPI PUSH7 0x2386F26FC10000 DUP4 DIV SWAP3 POP PUSH1 0x10 ADD JUMPDEST PUSH4 0x5F5E100 DUP4 LT PUSH2 0x2104 JUMPI PUSH4 0x5F5E100 DUP4 DIV SWAP3 POP PUSH1 0x8 ADD JUMPDEST PUSH2 0x2710 DUP4 LT PUSH2 0x2118 JUMPI PUSH2 0x2710 DUP4 DIV SWAP3 POP PUSH1 0x4 ADD JUMPDEST PUSH1 0x64 DUP4 LT PUSH2 0x212A JUMPI PUSH1 0x64 DUP4 DIV SWAP3 POP PUSH1 0x2 ADD JUMPDEST PUSH1 0xA DUP4 LT PUSH2 0x509 JUMPI PUSH1 0x1 ADD SWAP3 SWAP2 POP POP JUMP JUMPDEST PUSH1 0x1 PUSH1 0x1 PUSH1 0xA0 SHL SUB DUP4 AND PUSH2 0x215D JUMPI PUSH2 0x215A PUSH1 0xA PUSH2 0x2334 PUSH2 0x1C0C DUP5 PUSH2 0x2282 JUMP JUMPDEST POP POP JUMPDEST PUSH1 0x1 PUSH1 0x1 PUSH1 0xA0 SHL SUB DUP3 AND PUSH2 0x217F JUMPI PUSH2 0x217C PUSH1 0xA PUSH2 0x2276 PUSH2 0x1C0C DUP5 PUSH2 0x2282 JUMP JUMPDEST POP POP JUMPDEST PUSH1 0x1 PUSH1 0x1 PUSH1 0xA0 SHL SUB DUP4 DUP2 AND PUSH1 0x0 SWAP1 DUP2 MSTORE PUSH1 0x8 PUSH1 0x20 MSTORE PUSH1 0x40 DUP1 DUP3 KECCAK256 SLOAD DUP6 DUP5 AND DUP4 MSTORE SWAP2 KECCAK256 SLOAD PUSH2 0x6DD SWAP3 SWAP2 DUP3 AND SWAP2 AND DUP4 PUSH2 0x1BAC JUMP JUMPDEST PUSH1 0x0 DUP1 PUSH1 0x80 DUP4 SWAP1 SHR ISZERO PUSH2 0x21C6 JUMPI PUSH1 0x80 SWAP3 DUP4 SHR SWAP3 ADD JUMPDEST PUSH1 0x40 DUP4 SWAP1 SHR ISZERO PUSH2 0x21D8 JUMPI PUSH1 0x40 SWAP3 DUP4 SHR SWAP3 ADD JUMPDEST PUSH1 0x20 DUP4 SWAP1 SHR ISZERO PUSH2 0x21EA JUMPI PUSH1 0x20 SWAP3 DUP4 SHR SWAP3 ADD JUMPDEST PUSH1 0x10 DUP4 SWAP1 SHR ISZERO PUSH2 0x21FC JUMPI PUSH1 0x10 SWAP3 DUP4 SHR SWAP3 ADD JUMPDEST PUSH1 0x8 DUP4 SWAP1 SHR ISZERO PUSH2 0x220E JUMPI PUSH1 0x8 SWAP3 DUP4 SHR SWAP3 ADD JUMPDEST PUSH1 0x4 DUP4 SWAP1 SHR ISZERO PUSH2 0x2220 JUMPI PUSH1 0x4 SWAP3 DUP4 SHR SWAP3 ADD JUMPDEST PUSH1 0x2 DUP4 SWAP1 SHR ISZERO PUSH2 0x2232 JUMPI PUSH1 0x2 SWAP3 DUP4 SHR SWAP3 ADD JUMPDEST PUSH1 0x1 DUP4 SWAP1 SHR ISZERO PUSH2 0x509 JUMPI PUSH1 0x1 ADD SWAP3 SWAP2 POP POP JUMP JUMPDEST PUSH1 0x0 DUP2 DUP4 LT PUSH2 0x2254 JUMPI DUP2 PUSH2 0xFD0 JUMP JUMPDEST POP SWAP1 SWAP2 SWAP1 POP JUMP JUMPDEST PUSH1 0x0 PUSH2 0x226A PUSH1 0x2 DUP5 DUP5 XOR PUSH2 0x2C09 JUMP JUMPDEST PUSH2 0xFD0 SWAP1 DUP5 DUP5 AND PUSH2 0x2AFA JUMP JUMPDEST PUSH1 0x0 PUSH2 0xFD0 DUP3 DUP5 PUSH2 0x2C2B JUMP JUMPDEST PUSH1 0x0 PUSH1 0x1 PUSH1 0x1 PUSH1 0xE0 SHL SUB DUP3 GT ISZERO PUSH2 0x13FA JUMPI PUSH1 0x40 MLOAD PUSH3 0x461BCD PUSH1 0xE5 SHL DUP2 MSTORE PUSH1 0x20 PUSH1 0x4 DUP3 ADD MSTORE PUSH1 0x27 PUSH1 0x24 DUP3 ADD MSTORE PUSH32 0x53616665436173743A2076616C756520646F65736E27742066697420696E2032 PUSH1 0x44 DUP3 ADD MSTORE PUSH7 0x32342062697473 PUSH1 0xC8 SHL PUSH1 0x64 DUP3 ADD MSTORE PUSH1 0x84 ADD PUSH2 0x63C JUMP JUMPDEST PUSH1 0x0 DUP1 PUSH2 0x2327 PUSH2 0x2309 PUSH2 0x22FC PUSH2 0xDB8 JUMP JUMPDEST PUSH6 0xFFFFFFFFFFFF AND PUSH2 0x1395 JUMP JUMPDEST PUSH2 0x231F PUSH2 0x2315 DUP9 PUSH2 0x17C5 JUMP JUMPDEST DUP7 DUP9 PUSH4 0xFFFFFFFF AND JUMP JUMPDEST DUP8 SWAP2 SWAP1 PUSH2 0x2368 JUMP JUMPDEST SWAP2 POP SWAP2 POP JUMPDEST SWAP4 POP SWAP4 SWAP2 POP POP JUMP JUMPDEST PUSH1 0x0 PUSH2 0xFD0 DUP3 DUP5 PUSH2 0x2C52 JUMP JUMPDEST PUSH1 0x0 PUSH1 0xFF DUP3 AND PUSH1 0x1F DUP2 GT ISZERO PUSH2 0x509 JUMPI PUSH1 0x40 MLOAD PUSH4 0x2CD44AC3 PUSH1 0xE2 SHL DUP2 MSTORE PUSH1 0x4 ADD PUSH1 0x40 MLOAD DUP1 SWAP2 SUB SWAP1 REVERT JUMPDEST PUSH1 0x0 DUP1 PUSH2 0x2327 DUP6 DUP6 DUP6 DUP3 SLOAD PUSH1 0x0 SWAP1 DUP2 SWAP1 DUP1 ISZERO PUSH2 0x24BA JUMPI PUSH1 0x0 PUSH2 0x238F DUP8 PUSH2 0x1480 PUSH1 0x1 DUP6 PUSH2 0x2918 JUMP JUMPDEST PUSH1 0x40 DUP1 MLOAD DUP1 DUP3 ADD SWAP1 SWAP2 MSTORE SWAP1 SLOAD PUSH4 0xFFFFFFFF DUP1 DUP3 AND DUP1 DUP5 MSTORE PUSH5 0x100000000 SWAP1 SWAP3 DIV PUSH1 0x1 PUSH1 0x1 PUSH1 0xE0 SHL SUB AND PUSH1 0x20 DUP5 ADD MSTORE SWAP2 SWAP3 POP SWAP1 DUP8 AND LT ISZERO PUSH2 0x2411 JUMPI PUSH1 0x40 MLOAD PUSH3 0x461BCD PUSH1 0xE5 SHL DUP2 MSTORE PUSH1 0x20 PUSH1 0x4 DUP3 ADD MSTORE PUSH1 0x1B PUSH1 0x24 DUP3 ADD MSTORE PUSH32 0x436865636B706F696E743A2064656372656173696E67206B6579730000000000 PUSH1 0x44 DUP3 ADD MSTORE PUSH1 0x64 ADD PUSH2 0x63C JUMP JUMPDEST DUP1 MLOAD PUSH4 0xFFFFFFFF DUP1 DUP9 AND SWAP2 AND SUB PUSH2 0x245A JUMPI DUP5 PUSH2 0x2432 DUP9 PUSH2 0x1480 PUSH1 0x1 DUP7 PUSH2 0x2918 JUMP JUMPDEST DUP1 SLOAD PUSH1 0x1 PUSH1 0x1 PUSH1 0xE0 SHL SUB SWAP3 SWAP1 SWAP3 AND PUSH5 0x100000000 MUL PUSH4 0xFFFFFFFF SWAP1 SWAP3 AND SWAP2 SWAP1 SWAP2 OR SWAP1 SSTORE PUSH2 0x24AA JUMP JUMPDEST PUSH1 0x40 DUP1 MLOAD DUP1 DUP3 ADD SWAP1 SWAP2 MSTORE PUSH4 0xFFFFFFFF DUP1 DUP9 AND DUP3 MSTORE PUSH1 0x1 PUSH1 0x1 PUSH1 0xE0 SHL SUB DUP1 DUP9 AND PUSH1 0x20 DUP1 DUP6 ADD SWAP2 DUP3 MSTORE DUP12 SLOAD PUSH1 0x1 DUP2 ADD DUP14 SSTORE PUSH1 0x0 DUP14 DUP2 MSTORE SWAP2 SWAP1 SWAP2 KECCAK256 SWAP5 MLOAD SWAP2 MLOAD SWAP1 SWAP3 AND PUSH5 0x100000000 MUL SWAP3 AND SWAP2 SWAP1 SWAP2 OR SWAP2 ADD SSTORE JUMPDEST PUSH1 0x20 ADD MLOAD SWAP3 POP DUP4 SWAP2 POP PUSH2 0x232C SWAP1 POP JUMP JUMPDEST POP POP PUSH1 0x40 DUP1 MLOAD DUP1 DUP3 ADD SWAP1 SWAP2 MSTORE PUSH4 0xFFFFFFFF DUP1 DUP6 AND DUP3 MSTORE PUSH1 0x1 PUSH1 0x1 PUSH1 0xE0 SHL SUB DUP1 DUP6 AND PUSH1 0x20 DUP1 DUP6 ADD SWAP2 DUP3 MSTORE DUP9 SLOAD PUSH1 0x1 DUP2 ADD DUP11 SSTORE PUSH1 0x0 DUP11 DUP2 MSTORE SWAP2 DUP3 KECCAK256 SWAP6 MLOAD SWAP3 MLOAD SWAP1 SWAP4 AND PUSH5 0x100000000 MUL SWAP2 SWAP1 SWAP4 AND OR SWAP3 ADD SWAP2 SWAP1 SWAP2 SSTORE SWAP1 POP DUP2 PUSH2 0x232C JUMP JUMPDEST PUSH1 0x1 PUSH1 0x1 PUSH1 0xE0 SHL SUB NOT DUP2 AND DUP2 EQ PUSH2 0x10DB JUMPI PUSH1 0x0 DUP1 REVERT JUMPDEST PUSH1 0x0 PUSH1 0x20 DUP3 DUP5 SUB SLT ISZERO PUSH2 0x253C JUMPI PUSH1 0x0 DUP1 REVERT JUMPDEST DUP2 CALLDATALOAD PUSH2 0xFD0 DUP2 PUSH2 0x2514 JUMP JUMPDEST PUSH1 0x0 JUMPDEST DUP4 DUP2 LT ISZERO PUSH2 0x2562 JUMPI DUP2 DUP2 ADD MLOAD DUP4 DUP3 ADD MSTORE PUSH1 0x20 ADD PUSH2 0x254A JUMP JUMPDEST POP POP PUSH1 0x0 SWAP2 ADD MSTORE JUMP JUMPDEST PUSH1 0x0 DUP2 MLOAD DUP1 DUP5 MSTORE PUSH2 0x2583 DUP2 PUSH1 0x20 DUP7 ADD PUSH1 0x20 DUP7 ADD PUSH2 0x2547 JUMP JUMPDEST PUSH1 0x1F ADD PUSH1 0x1F NOT AND SWAP3 SWAP1 SWAP3 ADD PUSH1 0x20 ADD SWAP3 SWAP2 POP POP JUMP JUMPDEST PUSH1 0x20 DUP2 MSTORE PUSH1 0x0 PUSH2 0xFD0 PUSH1 0x20 DUP4 ADD DUP5 PUSH2 0x256B JUMP JUMPDEST PUSH1 0x0 PUSH1 0x20 DUP3 DUP5 SUB SLT ISZERO PUSH2 0x25BC JUMPI PUSH1 0x0 DUP1 REVERT JUMPDEST POP CALLDATALOAD SWAP2 SWAP1 POP JUMP JUMPDEST DUP1 CALLDATALOAD PUSH1 0x1 PUSH1 0x1 PUSH1 0xA0 SHL SUB DUP2 AND DUP2 EQ PUSH2 0x25DA JUMPI PUSH1 0x0 DUP1 REVERT JUMPDEST SWAP2 SWAP1 POP JUMP JUMPDEST PUSH1 0x0 DUP1 PUSH1 0x40 DUP4 DUP6 SUB SLT ISZERO PUSH2 0x25F2 JUMPI PUSH1 0x0 DUP1 REVERT JUMPDEST PUSH2 0x25FB DUP4 PUSH2 0x25C3 JUMP JUMPDEST SWAP5 PUSH1 0x20 SWAP4 SWAP1 SWAP4 ADD CALLDATALOAD SWAP4 POP POP POP JUMP JUMPDEST PUSH1 0x0 DUP1 PUSH1 0x0 PUSH1 0x60 DUP5 DUP7 SUB SLT ISZERO PUSH2 0x261E JUMPI PUSH1 0x0 DUP1 REVERT JUMPDEST PUSH2 0x2627 DUP5 PUSH2 0x25C3 JUMP JUMPDEST SWAP3 POP PUSH2 0x2635 PUSH1 0x20 DUP6 ADD PUSH2 0x25C3 JUMP JUMPDEST SWAP2 POP PUSH1 0x40 DUP5 ADD CALLDATALOAD SWAP1 POP SWAP3 POP SWAP3 POP SWAP3 JUMP JUMPDEST PUSH1 0x0 PUSH1 0x20 DUP3 DUP5 SUB SLT ISZERO PUSH2 0x2657 JUMPI PUSH1 0x0 DUP1 REVERT JUMPDEST PUSH2 0xFD0 DUP3 PUSH2 0x25C3 JUMP JUMPDEST PUSH1 0xFF PUSH1 0xF8 SHL DUP9 AND DUP2 MSTORE PUSH1 0x0 PUSH1 0x20 PUSH1 0xE0 DUP2 DUP5 ADD MSTORE PUSH2 0x2680 PUSH1 0xE0 DUP5 ADD DUP11 PUSH2 0x256B JUMP JUMPDEST DUP4 DUP2 SUB PUSH1 0x40 DUP6 ADD MSTORE PUSH2 0x2692 DUP2 DUP11 PUSH2 0x256B JUMP JUMPDEST PUSH1 0x60 DUP6 ADD DUP10 SWAP1 MSTORE PUSH1 0x1 PUSH1 0x1 PUSH1 0xA0 SHL SUB DUP9 AND PUSH1 0x80 DUP7 ADD MSTORE PUSH1 0xA0 DUP6 ADD DUP8 SWAP1 MSTORE DUP5 DUP2 SUB PUSH1 0xC0 DUP7 ADD MSTORE DUP6 MLOAD DUP1 DUP3 MSTORE DUP4 DUP8 ADD SWAP3 POP SWAP1 DUP4 ADD SWAP1 PUSH1 0x0 JUMPDEST DUP2 DUP2 LT ISZERO PUSH2 0x26E4 JUMPI DUP4 MLOAD DUP4 MSTORE SWAP3 DUP5 ADD SWAP3 SWAP2 DUP5 ADD SWAP2 PUSH1 0x1 ADD PUSH2 0x26C8 JUMP JUMPDEST POP SWAP1 SWAP13 SWAP12 POP POP POP POP POP POP POP POP POP POP POP POP JUMP JUMPDEST PUSH1 0x0 DUP1 PUSH1 0x40 DUP4 DUP6 SUB SLT ISZERO PUSH2 0x2709 JUMPI PUSH1 0x0 DUP1 REVERT JUMPDEST PUSH2 0x2712 DUP4 PUSH2 0x25C3 JUMP JUMPDEST SWAP2 POP PUSH1 0x20 DUP4 ADD CALLDATALOAD DUP1 ISZERO ISZERO DUP2 EQ PUSH2 0x2727 JUMPI PUSH1 0x0 DUP1 REVERT JUMPDEST DUP1 SWAP2 POP POP SWAP3 POP SWAP3 SWAP1 POP JUMP JUMPDEST PUSH4 0x4E487B71 PUSH1 0xE0 SHL PUSH1 0x0 MSTORE PUSH1 0x41 PUSH1 0x4 MSTORE PUSH1 0x24 PUSH1 0x0 REVERT JUMPDEST PUSH1 0x0 DUP1 PUSH1 0x0 DUP1 PUSH1 0x80 DUP6 DUP8 SUB SLT ISZERO PUSH2 0x275E JUMPI PUSH1 0x0 DUP1 REVERT JUMPDEST PUSH2 0x2767 DUP6 PUSH2 0x25C3 JUMP JUMPDEST SWAP4 POP PUSH2 0x2775 PUSH1 0x20 DUP7 ADD PUSH2 0x25C3 JUMP JUMPDEST SWAP3 POP PUSH1 0x40 DUP6 ADD CALLDATALOAD SWAP2 POP PUSH1 0x60 DUP6 ADD CALLDATALOAD PUSH8 0xFFFFFFFFFFFFFFFF DUP1 DUP3 GT ISZERO PUSH2 0x2799 JUMPI PUSH1 0x0 DUP1 REVERT JUMPDEST DUP2 DUP8 ADD SWAP2 POP DUP8 PUSH1 0x1F DUP4 ADD SLT PUSH2 0x27AD JUMPI PUSH1 0x0 DUP1 REVERT JUMPDEST DUP2 CALLDATALOAD DUP2 DUP2 GT ISZERO PUSH2 0x27BF JUMPI PUSH2 0x27BF PUSH2 0x2732 JUMP JUMPDEST PUSH1 0x40 MLOAD PUSH1 0x1F DUP3 ADD PUSH1 0x1F NOT SWAP1 DUP2 AND PUSH1 0x3F ADD AND DUP2 ADD SWAP1 DUP4 DUP3 GT DUP2 DUP4 LT OR ISZERO PUSH2 0x27E7 JUMPI PUSH2 0x27E7 PUSH2 0x2732 JUMP JUMPDEST DUP2 PUSH1 0x40 MSTORE DUP3 DUP2 MSTORE DUP11 PUSH1 0x20 DUP5 DUP8 ADD ADD GT ISZERO PUSH2 0x2800 JUMPI PUSH1 0x0 DUP1 REVERT JUMPDEST DUP3 PUSH1 0x20 DUP7 ADD PUSH1 0x20 DUP4 ADD CALLDATACOPY PUSH1 0x0 PUSH1 0x20 DUP5 DUP4 ADD ADD MSTORE DUP1 SWAP6 POP POP POP POP POP POP SWAP3 SWAP6 SWAP2 SWAP5 POP SWAP3 POP JUMP JUMPDEST PUSH1 0x0 DUP1 PUSH1 0x0 DUP1 PUSH1 0x0 DUP1 PUSH1 0xC0 DUP8 DUP10 SUB SLT ISZERO PUSH2 0x283D JUMPI PUSH1 0x0 DUP1 REVERT JUMPDEST PUSH2 0x2846 DUP8 PUSH2 0x25C3 JUMP JUMPDEST SWAP6 POP PUSH1 0x20 DUP8 ADD CALLDATALOAD SWAP5 POP PUSH1 0x40 DUP8 ADD CALLDATALOAD SWAP4 POP PUSH1 0x60 DUP8 ADD CALLDATALOAD PUSH1 0xFF DUP2 AND DUP2 EQ PUSH2 0x286A JUMPI PUSH1 0x0 DUP1 REVERT JUMPDEST SWAP6 SWAP9 SWAP5 SWAP8 POP SWAP3 SWAP6 PUSH1 0x80 DUP2 ADD CALLDATALOAD SWAP5 PUSH1 0xA0 SWAP1 SWAP2 ADD CALLDATALOAD SWAP4 POP SWAP2 POP POP JUMP JUMPDEST PUSH1 0x0 DUP1 PUSH1 0x40 DUP4 DUP6 SUB SLT ISZERO PUSH2 0x2897 JUMPI PUSH1 0x0 DUP1 REVERT JUMPDEST PUSH2 0x28A0 DUP4 PUSH2 0x25C3 JUMP JUMPDEST SWAP2 POP PUSH2 0x28AE PUSH1 0x20 DUP5 ADD PUSH2 0x25C3 JUMP JUMPDEST SWAP1 POP SWAP3 POP SWAP3 SWAP1 POP JUMP JUMPDEST PUSH1 0x1 DUP2 DUP2 SHR SWAP1 DUP3 AND DUP1 PUSH2 0x28CB JUMPI PUSH1 0x7F DUP3 AND SWAP2 POP JUMPDEST PUSH1 0x20 DUP3 LT DUP2 SUB PUSH2 0x1974 JUMPI PUSH4 0x4E487B71 PUSH1 0xE0 SHL PUSH1 0x0 MSTORE PUSH1 0x22 PUSH1 0x4 MSTORE PUSH1 0x24 PUSH1 0x0 REVERT JUMPDEST PUSH4 0x4E487B71 PUSH1 0xE0 SHL PUSH1 0x0 MSTORE PUSH1 0x11 PUSH1 0x4 MSTORE PUSH1 0x24 PUSH1 0x0 REVERT JUMPDEST PUSH1 0x0 DUP2 PUSH2 0x2910 JUMPI PUSH2 0x2910 PUSH2 0x28EB JUMP JUMPDEST POP PUSH1 0x0 NOT ADD SWAP1 JUMP JUMPDEST DUP2 DUP2 SUB DUP2 DUP2 GT ISZERO PUSH2 0x509 JUMPI PUSH2 0x509 PUSH2 0x28EB JUMP JUMPDEST PUSH4 0x4E487B71 PUSH1 0xE0 SHL PUSH1 0x0 MSTORE PUSH1 0x32 PUSH1 0x4 MSTORE PUSH1 0x24 PUSH1 0x0 REVERT JUMPDEST PUSH4 0x4E487B71 PUSH1 0xE0 SHL PUSH1 0x0 MSTORE PUSH1 0x31 PUSH1 0x4 MSTORE PUSH1 0x24 PUSH1 0x0 REVERT JUMPDEST PUSH1 0x20 DUP1 DUP3 MSTORE PUSH1 0x2D SWAP1 DUP3 ADD MSTORE PUSH32 0x4552433732313A2063616C6C6572206973206E6F7420746F6B656E206F776E65 PUSH1 0x40 DUP3 ADD MSTORE PUSH13 0x1C881BDC88185C1C1C9BDD9959 PUSH1 0x9A SHL PUSH1 0x60 DUP3 ADD MSTORE PUSH1 0x80 ADD SWAP1 JUMP JUMPDEST PUSH1 0x0 PUSH1 0x1 DUP3 ADD PUSH2 0x29B6 JUMPI PUSH2 0x29B6 PUSH2 0x28EB JUMP JUMPDEST POP PUSH1 0x1 ADD SWAP1 JUMP JUMPDEST PUSH1 0x0 DUP4 MLOAD PUSH2 0x29CF DUP2 DUP5 PUSH1 0x20 DUP9 ADD PUSH2 0x2547 JUMP JUMPDEST DUP4 MLOAD SWAP1 DUP4 ADD SWAP1 PUSH2 0x29E3 DUP2 DUP4 PUSH1 0x20 DUP9 ADD PUSH2 0x2547 JUMP JUMPDEST ADD SWAP5 SWAP4 POP POP POP POP JUMP JUMPDEST PUSH1 0x1F DUP3 GT ISZERO PUSH2 0x6DD JUMPI PUSH1 0x0 DUP2 DUP2 MSTORE PUSH1 0x20 DUP2 KECCAK256 PUSH1 0x1F DUP6 ADD PUSH1 0x5 SHR DUP2 ADD PUSH1 0x20 DUP7 LT ISZERO PUSH2 0x2A13 JUMPI POP DUP1 JUMPDEST PUSH1 0x1F DUP6 ADD PUSH1 0x5 SHR DUP3 ADD SWAP2 POP JUMPDEST DUP2 DUP2 LT ISZERO PUSH2 0x2A32 JUMPI DUP3 DUP2 SSTORE PUSH1 0x1 ADD PUSH2 0x2A1F JUMP JUMPDEST POP POP POP POP POP POP JUMP JUMPDEST DUP2 MLOAD PUSH8 0xFFFFFFFFFFFFFFFF DUP2 GT ISZERO PUSH2 0x2A54 JUMPI PUSH2 0x2A54 PUSH2 0x2732 JUMP JUMPDEST PUSH2 0x2A68 DUP2 PUSH2 0x2A62 DUP5 SLOAD PUSH2 0x28B7 JUMP JUMPDEST DUP5 PUSH2 0x29EC JUMP JUMPDEST PUSH1 0x20 DUP1 PUSH1 0x1F DUP4 GT PUSH1 0x1 DUP2 EQ PUSH2 0x2A9D JUMPI PUSH1 0x0 DUP5 ISZERO PUSH2 0x2A85 JUMPI POP DUP6 DUP4 ADD MLOAD JUMPDEST PUSH1 0x0 NOT PUSH1 0x3 DUP7 SWAP1 SHL SHR NOT AND PUSH1 0x1 DUP6 SWAP1 SHL OR DUP6 SSTORE PUSH2 0x2A32 JUMP JUMPDEST PUSH1 0x0 DUP6 DUP2 MSTORE PUSH1 0x20 DUP2 KECCAK256 PUSH1 0x1F NOT DUP7 AND SWAP2 JUMPDEST DUP3 DUP2 LT ISZERO PUSH2 0x2ACC JUMPI DUP9 DUP7 ADD MLOAD DUP3 SSTORE SWAP5 DUP5 ADD SWAP5 PUSH1 0x1 SWAP1 SWAP2 ADD SWAP1 DUP5 ADD PUSH2 0x2AAD JUMP JUMPDEST POP DUP6 DUP3 LT ISZERO PUSH2 0x2AEA JUMPI DUP8 DUP6 ADD MLOAD PUSH1 0x0 NOT PUSH1 0x3 DUP9 SWAP1 SHL PUSH1 0xF8 AND SHR NOT AND DUP2 SSTORE JUMPDEST POP POP POP POP POP PUSH1 0x1 SWAP1 DUP2 SHL ADD SWAP1 SSTORE POP JUMP JUMPDEST DUP1 DUP3 ADD DUP1 DUP3 GT ISZERO PUSH2 0x509 JUMPI PUSH2 0x509 PUSH2 0x28EB JUMP JUMPDEST PUSH1 0x20 DUP1 DUP3 MSTORE PUSH1 0x32 SWAP1 DUP3 ADD MSTORE PUSH32 0x4552433732313A207472616E7366657220746F206E6F6E204552433732315265 PUSH1 0x40 DUP3 ADD MSTORE PUSH18 0x31B2B4BB32B91034B6B83632B6B2B73A32B9 PUSH1 0x71 SHL PUSH1 0x60 DUP3 ADD MSTORE PUSH1 0x80 ADD SWAP1 JUMP JUMPDEST PUSH4 0x4E487B71 PUSH1 0xE0 SHL PUSH1 0x0 MSTORE PUSH1 0x12 PUSH1 0x4 MSTORE PUSH1 0x24 PUSH1 0x0 REVERT JUMPDEST DUP1 MLOAD PUSH1 0x20 DUP1 DUP4 ADD MLOAD SWAP2 SWAP1 DUP2 LT ISZERO PUSH2 0x1974 JUMPI PUSH1 0x0 NOT PUSH1 0x20 SWAP2 SWAP1 SWAP2 SUB PUSH1 0x3 SHL SHL AND SWAP2 SWAP1 POP JUMP JUMPDEST PUSH1 0x1 PUSH1 0x1 PUSH1 0xA0 SHL SUB DUP6 DUP2 AND DUP3 MSTORE DUP5 AND PUSH1 0x20 DUP3 ADD MSTORE PUSH1 0x40 DUP2 ADD DUP4 SWAP1 MSTORE PUSH1 0x80 PUSH1 0x60 DUP3 ADD DUP2 SWAP1 MSTORE PUSH1 0x0 SWAP1 PUSH2 0x2BCC SWAP1 DUP4 ADD DUP5 PUSH2 0x256B JUMP JUMPDEST SWAP7 SWAP6 POP POP POP POP POP POP JUMP JUMPDEST PUSH1 0x0 PUSH1 0x20 DUP3 DUP5 SUB SLT ISZERO PUSH2 0x2BE8 JUMPI PUSH1 0x0 DUP1 REVERT JUMPDEST DUP2 MLOAD PUSH2 0xFD0 DUP2 PUSH2 0x2514 JUMP JUMPDEST PUSH4 0x4E487B71 PUSH1 0xE0 SHL PUSH1 0x0 MSTORE PUSH1 0x21 PUSH1 0x4 MSTORE PUSH1 0x24 PUSH1 0x0 REVERT JUMPDEST PUSH1 0x0 DUP3 PUSH2 0x2C26 JUMPI PUSH4 0x4E487B71 PUSH1 0xE0 SHL PUSH1 0x0 MSTORE PUSH1 0x12 PUSH1 0x4 MSTORE PUSH1 0x24 PUSH1 0x0 REVERT JUMPDEST POP DIV SWAP1 JUMP JUMPDEST PUSH1 0x1 PUSH1 0x1 PUSH1 0xE0 SHL SUB DUP3 DUP2 AND DUP3 DUP3 AND SUB SWAP1 DUP1 DUP3 GT ISZERO PUSH2 0x2C4B JUMPI PUSH2 0x2C4B PUSH2 0x28EB JUMP JUMPDEST POP SWAP3 SWAP2 POP POP JUMP JUMPDEST PUSH1 0x1 PUSH1 0x1 PUSH1 0xE0 SHL SUB DUP2 DUP2 AND DUP4 DUP3 AND ADD SWAP1 DUP1 DUP3 GT ISZERO PUSH2 0x2C4B JUMPI PUSH2 0x2C4B PUSH2 0x28EB JUMP INVALID LOG2 PUSH5 0x6970667358 0x22 SLT KECCAK256 0xCF 0xC0 0xC1 GAS SELFDESTRUCT AND 0x27 SDIV CHAINID 0xC7 PUSH32 0x59BF41AE6EB73EBC3EB9A3E7FD96AE5918E405C65B64736F6C63430008120033 PUSH1 0x80 PUSH1 0x40 MSTORE CALLVALUE DUP1 ISZERO PUSH3 0x11 JUMPI PUSH1 0x0 DUP1 REVERT JUMPDEST POP PUSH1 0x40 MLOAD PUSH3 0x2473 CODESIZE SUB DUP1 PUSH3 0x2473 DUP4 CODECOPY DUP2 ADD PUSH1 0x40 DUP2 SWAP1 MSTORE PUSH3 0x34 SWAP2 PUSH3 0x127 JUMP JUMPDEST DUP2 DUP2 DUP2 DUP2 PUSH1 0x0 PUSH3 0x46 DUP4 DUP3 PUSH3 0x220 JUMP JUMPDEST POP PUSH1 0x1 PUSH3 0x55 DUP3 DUP3 PUSH3 0x220 JUMP JUMPDEST POP POP POP POP POP POP POP PUSH3 0x2EC JUMP JUMPDEST PUSH4 0x4E487B71 PUSH1 0xE0 SHL PUSH1 0x0 MSTORE PUSH1 0x41 PUSH1 0x4 MSTORE PUSH1 0x24 PUSH1 0x0 REVERT JUMPDEST PUSH1 0x0 DUP3 PUSH1 0x1F DUP4 ADD SLT PUSH3 0x8A JUMPI PUSH1 0x0 DUP1 REVERT JUMPDEST DUP2 MLOAD PUSH1 0x1 PUSH1 0x1 PUSH1 0x40 SHL SUB DUP1 DUP3 GT ISZERO PUSH3 0xA7 JUMPI PUSH3 0xA7 PUSH3 0x62 JUMP JUMPDEST PUSH1 0x40 MLOAD PUSH1 0x1F DUP4 ADD PUSH1 0x1F NOT SWAP1 DUP2 AND PUSH1 0x3F ADD AND DUP2 ADD SWAP1 DUP3 DUP3 GT DUP2 DUP4 LT OR ISZERO PUSH3 0xD2 JUMPI PUSH3 0xD2 PUSH3 0x62 JUMP JUMPDEST DUP2 PUSH1 0x40 MSTORE DUP4 DUP2 MSTORE PUSH1 0x20 SWAP3 POP DUP7 DUP4 DUP6 DUP9 ADD ADD GT ISZERO PUSH3 0xEF JUMPI PUSH1 0x0 DUP1 REVERT JUMPDEST PUSH1 0x0 SWAP2 POP JUMPDEST DUP4 DUP3 LT ISZERO PUSH3 0x113 JUMPI DUP6 DUP3 ADD DUP4 ADD MLOAD DUP2 DUP4 ADD DUP5 ADD MSTORE SWAP1 DUP3 ADD SWAP1 PUSH3 0xF4 JUMP JUMPDEST PUSH1 0x0 SWAP4 DUP2 ADD SWAP1 SWAP3 ADD SWAP3 SWAP1 SWAP3 MSTORE SWAP5 SWAP4 POP POP POP POP JUMP JUMPDEST PUSH1 0x0 DUP1 PUSH1 0x40 DUP4 DUP6 SUB SLT ISZERO PUSH3 0x13B JUMPI PUSH1 0x0 DUP1 REVERT JUMPDEST DUP3 MLOAD PUSH1 0x1 PUSH1 0x1 PUSH1 0x40 SHL SUB DUP1 DUP3 GT ISZERO PUSH3 0x153 JUMPI PUSH1 0x0 DUP1 REVERT JUMPDEST PUSH3 0x161 DUP7 DUP4 DUP8 ADD PUSH3 0x78 JUMP JUMPDEST SWAP4 POP PUSH1 0x20 DUP6 ADD MLOAD SWAP2 POP DUP1 DUP3 GT ISZERO PUSH3 0x178 JUMPI PUSH1 0x0 DUP1 REVERT JUMPDEST POP PUSH3 0x187 DUP6 DUP3 DUP7 ADD PUSH3 0x78 JUMP JUMPDEST SWAP2 POP POP SWAP3 POP SWAP3 SWAP1 POP JUMP JUMPDEST PUSH1 0x1 DUP2 DUP2 SHR SWAP1 DUP3 AND DUP1 PUSH3 0x1A6 JUMPI PUSH1 0x7F DUP3 AND SWAP2 POP JUMPDEST PUSH1 0x20 DUP3 LT DUP2 SUB PUSH3 0x1C7 JUMPI PUSH4 0x4E487B71 PUSH1 0xE0 SHL PUSH1 0x0 MSTORE PUSH1 0x22 PUSH1 0x4 MSTORE PUSH1 0x24 PUSH1 0x0 REVERT JUMPDEST POP SWAP2 SWAP1 POP JUMP JUMPDEST PUSH1 0x1F DUP3 GT ISZERO PUSH3 0x21B JUMPI PUSH1 0x0 DUP2 DUP2 MSTORE PUSH1 0x20 DUP2 KECCAK256 PUSH1 0x1F DUP6 ADD PUSH1 0x5 SHR DUP2 ADD PUSH1 0x20 DUP7 LT ISZERO PUSH3 0x1F6 JUMPI POP DUP1 JUMPDEST PUSH1 0x1F DUP6 ADD PUSH1 0x5 SHR DUP3 ADD SWAP2 POP JUMPDEST DUP2 DUP2 LT ISZERO PUSH3 0x217 JUMPI DUP3 DUP2 SSTORE PUSH1 0x1 ADD PUSH3 0x202 JUMP JUMPDEST POP POP POP JUMPDEST POP POP POP JUMP JUMPDEST DUP2 MLOAD PUSH1 0x1 PUSH1 0x1 PUSH1 0x40 SHL SUB DUP2 GT ISZERO PUSH3 0x23C JUMPI PUSH3 0x23C PUSH3 0x62 JUMP JUMPDEST PUSH3 0x254 DUP2 PUSH3 0x24D DUP5 SLOAD PUSH3 0x191 JUMP JUMPDEST DUP5 PUSH3 0x1CD JUMP JUMPDEST PUSH1 0x20 DUP1 PUSH1 0x1F DUP4 GT PUSH1 0x1 DUP2 EQ PUSH3 0x28C JUMPI PUSH1 0x0 DUP5 ISZERO PUSH3 0x273 JUMPI POP DUP6 DUP4 ADD MLOAD JUMPDEST PUSH1 0x0 NOT PUSH1 0x3 DUP7 SWAP1 SHL SHR NOT AND PUSH1 0x1 DUP6 SWAP1 SHL OR DUP6 SSTORE PUSH3 0x217 JUMP JUMPDEST PUSH1 0x0 DUP6 DUP2 MSTORE PUSH1 0x20 DUP2 KECCAK256 PUSH1 0x1F NOT DUP7 AND SWAP2 JUMPDEST DUP3 DUP2 LT ISZERO PUSH3 0x2BD JUMPI DUP9 DUP7 ADD MLOAD DUP3 SSTORE SWAP5 DUP5 ADD SWAP5 PUSH1 0x1 SWAP1 SWAP2 ADD SWAP1 DUP5 ADD PUSH3 0x29C JUMP JUMPDEST POP DUP6 DUP3 LT ISZERO PUSH3 0x2DC JUMPI DUP8 DUP6 ADD MLOAD PUSH1 0x0 NOT PUSH1 0x3 DUP9 SWAP1 SHL PUSH1 0xF8 AND SHR NOT AND DUP2 SSTORE JUMPDEST POP POP POP POP POP PUSH1 0x1 SWAP1 DUP2 SHL ADD SWAP1 SSTORE POP JUMP JUMPDEST PUSH2 0x2177 DUP1 PUSH3 0x2FC PUSH1 0x0 CODECOPY PUSH1 0x0 RETURN INVALID PUSH1 0x80 PUSH1 0x40 MSTORE CALLVALUE DUP1 ISZERO PUSH2 0x10 JUMPI PUSH1 0x0 DUP1 REVERT JUMPDEST POP PUSH1 0x4 CALLDATASIZE LT PUSH2 0x137 JUMPI PUSH1 0x0 CALLDATALOAD PUSH1 0xE0 SHR DUP1 PUSH4 0x6637B882 GT PUSH2 0xB8 JUMPI DUP1 PUSH4 0xA22CB465 GT PUSH2 0x7C JUMPI DUP1 PUSH4 0xA22CB465 EQ PUSH2 0x28B JUMPI DUP1 PUSH4 0xA32E6947 EQ PUSH2 0x29E JUMPI DUP1 PUSH4 0xB88D4FDE EQ PUSH2 0x2CC JUMPI DUP1 PUSH4 0xC87B56DD EQ PUSH2 0x2DF JUMPI DUP1 PUSH4 0xE985E9C5 EQ PUSH2 0x2F2 JUMPI DUP1 PUSH4 0xFCF3A4C2 EQ PUSH2 0x305 JUMPI PUSH1 0x0 DUP1 REVERT JUMPDEST DUP1 PUSH4 0x6637B882 EQ PUSH2 0x246 JUMPI DUP1 PUSH4 0x6A627842 EQ PUSH2 0x259 JUMPI DUP1 PUSH4 0x70A08231 EQ PUSH2 0x267 JUMPI DUP1 PUSH4 0x95D89B41 EQ PUSH2 0x27A JUMPI DUP1 PUSH4 0x9F181B5E EQ PUSH2 0x282 JUMPI PUSH1 0x0 DUP1 REVERT JUMPDEST DUP1 PUSH4 0x4162169F GT PUSH2 0xFF JUMPI DUP1 PUSH4 0x4162169F EQ PUSH2 0x1CC JUMPI DUP1 PUSH4 0x42842E0E EQ PUSH2 0x1DF JUMPI DUP1 PUSH4 0x48127268 EQ PUSH2 0x1F2 JUMPI DUP1 PUSH4 0x60316801 EQ PUSH2 0x213 JUMPI DUP1 PUSH4 0x6352211E EQ PUSH2 0x233 JUMPI PUSH1 0x0 DUP1 REVERT JUMPDEST DUP1 PUSH4 0x1FFC9A7 EQ PUSH2 0x13C JUMPI DUP1 PUSH4 0x6FDDE03 EQ PUSH2 0x164 JUMPI DUP1 PUSH4 0x81812FC EQ PUSH2 0x179 JUMPI DUP1 PUSH4 0x95EA7B3 EQ PUSH2 0x1A4 JUMPI DUP1 PUSH4 0x23B872DD EQ PUSH2 0x1B9 JUMPI JUMPDEST PUSH1 0x0 DUP1 REVERT JUMPDEST PUSH2 0x14F PUSH2 0x14A CALLDATASIZE PUSH1 0x4 PUSH2 0x1807 JUMP JUMPDEST PUSH2 0x318 JUMP JUMPDEST PUSH1 0x40 MLOAD SWAP1 ISZERO ISZERO DUP2 MSTORE PUSH1 0x20 ADD JUMPDEST PUSH1 0x40 MLOAD DUP1 SWAP2 SUB SWAP1 RETURN JUMPDEST PUSH2 0x16C PUSH2 0x35E JUMP JUMPDEST PUSH1 0x40 MLOAD PUSH2 0x15B SWAP2 SWAP1 PUSH2 0x1874 JUMP JUMPDEST PUSH2 0x18C PUSH2 0x187 CALLDATASIZE PUSH1 0x4 PUSH2 0x1887 JUMP JUMPDEST PUSH2 0x3F0 JUMP JUMPDEST PUSH1 0x40 MLOAD PUSH1 0x1 PUSH1 0x1 PUSH1 0xA0 SHL SUB SWAP1 SWAP2 AND DUP2 MSTORE PUSH1 0x20 ADD PUSH2 0x15B JUMP JUMPDEST PUSH2 0x1B7 PUSH2 0x1B2 CALLDATASIZE PUSH1 0x4 PUSH2 0x18BC JUMP JUMPDEST PUSH2 0x417 JUMP JUMPDEST STOP JUMPDEST PUSH2 0x1B7 PUSH2 0x1C7 CALLDATASIZE PUSH1 0x4 PUSH2 0x18E6 JUMP JUMPDEST PUSH2 0x531 JUMP JUMPDEST PUSH1 0x7 SLOAD PUSH2 0x18C SWAP1 PUSH1 0x1 PUSH1 0x1 PUSH1 0xA0 SHL SUB AND DUP2 JUMP JUMPDEST PUSH2 0x1B7 PUSH2 0x1ED CALLDATASIZE PUSH1 0x4 PUSH2 0x18E6 JUMP JUMPDEST PUSH2 0x55F JUMP JUMPDEST PUSH2 0x205 PUSH2 0x200 CALLDATASIZE PUSH1 0x4 PUSH2 0x1922 JUMP JUMPDEST PUSH2 0x57A JUMP JUMPDEST PUSH1 0x40 MLOAD SWAP1 DUP2 MSTORE PUSH1 0x20 ADD PUSH2 0x15B JUMP JUMPDEST PUSH2 0x226 PUSH2 0x221 CALLDATASIZE PUSH1 0x4 PUSH2 0x1887 JUMP JUMPDEST PUSH2 0x756 JUMP JUMPDEST PUSH1 0x40 MLOAD PUSH2 0x15B SWAP2 SWAP1 PUSH2 0x197C JUMP JUMPDEST PUSH2 0x18C PUSH2 0x241 CALLDATASIZE PUSH1 0x4 PUSH2 0x1887 JUMP JUMPDEST PUSH2 0x837 JUMP JUMPDEST PUSH2 0x1B7 PUSH2 0x254 CALLDATASIZE PUSH1 0x4 PUSH2 0x1A06 JUMP JUMPDEST PUSH2 0x897 JUMP JUMPDEST PUSH2 0x1B7 PUSH2 0x137 CALLDATASIZE PUSH1 0x4 PUSH2 0x1A06 JUMP JUMPDEST PUSH2 0x205 PUSH2 0x275 CALLDATASIZE PUSH1 0x4 PUSH2 0x1A06 JUMP JUMPDEST PUSH2 0x904 JUMP JUMPDEST PUSH2 0x16C PUSH2 0x98A JUMP JUMPDEST PUSH2 0x205 PUSH1 0x6 SLOAD DUP2 JUMP JUMPDEST PUSH2 0x1B7 PUSH2 0x299 CALLDATASIZE PUSH1 0x4 PUSH2 0x1A21 JUMP JUMPDEST PUSH2 0x999 JUMP JUMPDEST PUSH2 0x14F PUSH2 0x2AC CALLDATASIZE PUSH1 0x4 PUSH2 0x1A5D JUMP JUMPDEST PUSH1 0xA PUSH1 0x20 SWAP1 DUP2 MSTORE PUSH1 0x0 SWAP3 DUP4 MSTORE PUSH1 0x40 DUP1 DUP5 KECCAK256 SWAP1 SWAP2 MSTORE SWAP1 DUP3 MSTORE SWAP1 KECCAK256 SLOAD PUSH1 0xFF AND DUP2 JUMP JUMPDEST PUSH2 0x1B7 PUSH2 0x2DA CALLDATASIZE PUSH1 0x4 PUSH2 0x1AF8 JUMP JUMPDEST PUSH2 0x9A8 JUMP JUMPDEST PUSH2 0x16C PUSH2 0x2ED CALLDATASIZE PUSH1 0x4 PUSH2 0x1887 JUMP JUMPDEST PUSH2 0x9E0 JUMP JUMPDEST PUSH2 0x14F PUSH2 0x300 CALLDATASIZE PUSH1 0x4 PUSH2 0x1BA3 JUMP JUMPDEST PUSH2 0xB34 JUMP JUMPDEST PUSH2 0x1B7 PUSH2 0x313 CALLDATASIZE PUSH1 0x4 PUSH2 0x1887 JUMP JUMPDEST PUSH2 0xB62 JUMP JUMPDEST PUSH1 0x0 PUSH1 0x1 PUSH1 0x1 PUSH1 0xE0 SHL SUB NOT DUP3 AND PUSH4 0x80AC58CD PUSH1 0xE0 SHL EQ DUP1 PUSH2 0x349 JUMPI POP PUSH1 0x1 PUSH1 0x1 PUSH1 0xE0 SHL SUB NOT DUP3 AND PUSH4 0x5B5E139F PUSH1 0xE0 SHL EQ JUMPDEST DUP1 PUSH2 0x358 JUMPI POP PUSH2 0x358 DUP3 PUSH2 0xD24 JUMP JUMPDEST SWAP3 SWAP2 POP POP JUMP JUMPDEST PUSH1 0x60 PUSH1 0x0 DUP1 SLOAD PUSH2 0x36D SWAP1 PUSH2 0x1BCD JUMP JUMPDEST DUP1 PUSH1 0x1F ADD PUSH1 0x20 DUP1 SWAP2 DIV MUL PUSH1 0x20 ADD PUSH1 0x40 MLOAD SWAP1 DUP2 ADD PUSH1 0x40 MSTORE DUP1 SWAP3 SWAP2 SWAP1 DUP2 DUP2 MSTORE PUSH1 0x20 ADD DUP3 DUP1 SLOAD PUSH2 0x399 SWAP1 PUSH2 0x1BCD JUMP JUMPDEST DUP1 ISZERO PUSH2 0x3E6 JUMPI DUP1 PUSH1 0x1F LT PUSH2 0x3BB JUMPI PUSH2 0x100 DUP1 DUP4 SLOAD DIV MUL DUP4 MSTORE SWAP2 PUSH1 0x20 ADD SWAP2 PUSH2 0x3E6 JUMP JUMPDEST DUP3 ADD SWAP2 SWAP1 PUSH1 0x0 MSTORE PUSH1 0x20 PUSH1 0x0 KECCAK256 SWAP1 JUMPDEST DUP2 SLOAD DUP2 MSTORE SWAP1 PUSH1 0x1 ADD SWAP1 PUSH1 0x20 ADD DUP1 DUP4 GT PUSH2 0x3C9 JUMPI DUP3 SWAP1 SUB PUSH1 0x1F AND DUP3 ADD SWAP2 JUMPDEST POP POP POP POP POP SWAP1 POP SWAP1 JUMP JUMPDEST PUSH1 0x0 PUSH2 0x3FB DUP3 PUSH2 0xD74 JUMP JUMPDEST POP PUSH1 0x0 SWAP1 DUP2 MSTORE PUSH1 0x4 PUSH1 0x20 MSTORE PUSH1 0x40 SWAP1 KECCAK256 SLOAD PUSH1 0x1 PUSH1 0x1 PUSH1 0xA0 SHL SUB AND SWAP1 JUMP JUMPDEST PUSH1 0x0 PUSH2 0x422 DUP3 PUSH2 0x837 JUMP JUMPDEST SWAP1 POP DUP1 PUSH1 0x1 PUSH1 0x1 PUSH1 0xA0 SHL SUB AND DUP4 PUSH1 0x1 PUSH1 0x1 PUSH1 0xA0 SHL SUB AND SUB PUSH2 0x494 JUMPI PUSH1 0x40 MLOAD PUSH3 0x461BCD PUSH1 0xE5 SHL DUP2 MSTORE PUSH1 0x20 PUSH1 0x4 DUP3 ADD MSTORE PUSH1 0x21 PUSH1 0x24 DUP3 ADD MSTORE PUSH32 0x4552433732313A20617070726F76616C20746F2063757272656E74206F776E65 PUSH1 0x44 DUP3 ADD MSTORE PUSH1 0x39 PUSH1 0xF9 SHL PUSH1 0x64 DUP3 ADD MSTORE PUSH1 0x84 ADD JUMPDEST PUSH1 0x40 MLOAD DUP1 SWAP2 SUB SWAP1 REVERT JUMPDEST CALLER PUSH1 0x1 PUSH1 0x1 PUSH1 0xA0 SHL SUB DUP3 AND EQ DUP1 PUSH2 0x4B0 JUMPI POP PUSH2 0x4B0 DUP2 CALLER PUSH2 0xB34 JUMP JUMPDEST PUSH2 0x522 JUMPI PUSH1 0x40 MLOAD PUSH3 0x461BCD PUSH1 0xE5 SHL DUP2 MSTORE PUSH1 0x20 PUSH1 0x4 DUP3 ADD MSTORE PUSH1 0x3D PUSH1 0x24 DUP3 ADD MSTORE PUSH32 0x4552433732313A20617070726F76652063616C6C6572206973206E6F7420746F PUSH1 0x44 DUP3 ADD MSTORE PUSH32 0x6B656E206F776E6572206F7220617070726F76656420666F7220616C6C000000 PUSH1 0x64 DUP3 ADD MSTORE PUSH1 0x84 ADD PUSH2 0x48B JUMP JUMPDEST PUSH2 0x52C DUP4 DUP4 PUSH2 0xDC7 JUMP JUMPDEST POP POP POP JUMP JUMPDEST PUSH2 0x53B CALLER DUP3 PUSH2 0xE35 JUMP JUMPDEST PUSH2 0x557 JUMPI PUSH1 0x40 MLOAD PUSH3 0x461BCD PUSH1 0xE5 SHL DUP2 MSTORE PUSH1 0x4 ADD PUSH2 0x48B SWAP1 PUSH2 0x1C07 JUMP JUMPDEST PUSH2 0x52C PUSH1 0x0 DUP1 REVERT JUMPDEST PUSH2 0x52C DUP4 DUP4 DUP4 PUSH1 0x40 MLOAD DUP1 PUSH1 0x20 ADD PUSH1 0x40 MSTORE DUP1 PUSH1 0x0 DUP2 MSTORE POP PUSH2 0x9A8 JUMP JUMPDEST PUSH1 0x0 PUSH2 0x585 DUP6 PUSH2 0x904 JUMP JUMPDEST ISZERO PUSH2 0x5D2 JUMPI PUSH1 0x40 MLOAD PUSH3 0x461BCD PUSH1 0xE5 SHL DUP2 MSTORE PUSH1 0x20 PUSH1 0x4 DUP3 ADD MSTORE PUSH1 0x1B PUSH1 0x24 DUP3 ADD MSTORE PUSH32 0x4164647265737320697320616C72656164792061206D656D6265720000000000 PUSH1 0x44 DUP3 ADD MSTORE PUSH1 0x64 ADD PUSH2 0x48B JUMP JUMPDEST PUSH1 0x6 DUP1 SLOAD SWAP1 PUSH1 0x0 PUSH2 0x5E2 DUP4 PUSH2 0x1C6A JUMP JUMPDEST SWAP1 SWAP2 SSTORE POP TIMESTAMP SWAP1 POP PUSH1 0x0 PUSH2 0x5F7 DUP7 DUP7 DUP7 DUP6 PUSH2 0xE93 JUMP JUMPDEST PUSH1 0x40 DUP1 MLOAD PUSH1 0xE0 DUP2 ADD DUP3 MSTORE PUSH1 0x7 SLOAD PUSH1 0x1 PUSH1 0x1 PUSH1 0xA0 SHL SUB SWAP1 DUP2 AND DUP3 MSTORE DUP11 AND PUSH1 0x20 DUP3 ADD MSTORE SWAP2 SWAP3 POP PUSH1 0x0 SWAP2 SWAP1 DUP2 ADD DUP3 DUP2 MSTORE PUSH1 0x20 ADD DUP9 DUP2 MSTORE PUSH1 0x20 ADD DUP8 PUSH1 0x1 PUSH1 0x1 PUSH1 0xA0 SHL SUB AND DUP2 MSTORE PUSH1 0x20 ADD DUP7 DUP2 MSTORE PUSH1 0x20 ADD DUP5 DUP2 MSTORE POP SWAP1 POP PUSH2 0x654 DUP9 PUSH1 0x6 SLOAD PUSH2 0xF9C JUMP JUMPDEST PUSH2 0x660 PUSH1 0x6 SLOAD DUP4 PUSH2 0x1109 JUMP JUMPDEST PUSH1 0x6 SLOAD PUSH1 0x0 SWAP1 DUP2 MSTORE PUSH1 0x9 PUSH1 0x20 SWAP1 DUP2 MSTORE PUSH1 0x40 SWAP2 DUP3 SWAP1 KECCAK256 DUP4 MLOAD DUP2 SLOAD PUSH1 0x1 PUSH1 0x1 PUSH1 0xA0 SHL SUB SWAP2 DUP3 AND PUSH1 0x1 PUSH1 0x1 PUSH1 0xA0 SHL SUB NOT SWAP2 DUP3 AND OR DUP4 SSTORE SWAP3 DUP6 ADD MLOAD PUSH1 0x1 DUP1 DUP5 ADD DUP1 SLOAD SWAP3 SWAP1 SWAP4 AND SWAP5 DUP3 AND DUP6 OR DUP4 SSTORE SWAP5 DUP7 ADD MLOAD DUP7 SWAP6 SWAP4 SWAP5 SWAP1 SWAP4 PUSH1 0x1 PUSH1 0x1 PUSH1 0xA8 SHL SUB NOT SWAP1 SWAP3 AND OR SWAP1 PUSH1 0x1 PUSH1 0xA0 SHL SWAP1 DUP5 SWAP1 DUP2 GT ISZERO PUSH2 0x6D8 JUMPI PUSH2 0x6D8 PUSH2 0x1966 JUMP JUMPDEST MUL OR SWAP1 SSTORE POP PUSH1 0x60 DUP3 ADD MLOAD PUSH1 0x2 DUP3 ADD SSTORE PUSH1 0x80 DUP3 ADD MLOAD PUSH1 0x3 DUP3 ADD DUP1 SLOAD PUSH1 0x1 PUSH1 0x1 PUSH1 0xA0 SHL SUB NOT AND PUSH1 0x1 PUSH1 0x1 PUSH1 0xA0 SHL SUB SWAP3 DUP4 AND OR SWAP1 SSTORE PUSH1 0xA0 DUP4 ADD MLOAD PUSH1 0x4 DUP4 ADD SSTORE PUSH1 0xC0 SWAP1 SWAP3 ADD MLOAD PUSH1 0x5 SWAP1 SWAP2 ADD SSTORE PUSH1 0x0 DUP9 DUP2 MSTORE PUSH1 0xA PUSH1 0x20 SWAP1 DUP2 MSTORE PUSH1 0x40 DUP1 DUP4 KECCAK256 SWAP4 DUP13 AND DUP4 MSTORE SWAP3 SWAP1 MSTORE KECCAK256 DUP1 SLOAD PUSH1 0xFF NOT AND PUSH1 0x1 OR SWAP1 SSTORE POP POP PUSH1 0x6 SLOAD SWAP2 POP POP JUMPDEST SWAP5 SWAP4 POP POP POP POP JUMP JUMPDEST PUSH1 0x40 DUP1 MLOAD PUSH1 0xE0 DUP2 ADD DUP3 MSTORE PUSH1 0x0 DUP1 DUP3 MSTORE PUSH1 0x20 DUP3 ADD DUP2 SWAP1 MSTORE SWAP2 DUP2 ADD DUP3 SWAP1 MSTORE PUSH1 0x60 DUP2 ADD DUP3 SWAP1 MSTORE PUSH1 0x80 DUP2 ADD DUP3 SWAP1 MSTORE PUSH1 0xA0 DUP2 ADD DUP3 SWAP1 MSTORE PUSH1 0xC0 DUP2 ADD SWAP2 SWAP1 SWAP2 MSTORE PUSH1 0x0 DUP3 DUP2 MSTORE PUSH1 0x9 PUSH1 0x20 SWAP1 DUP2 MSTORE PUSH1 0x40 SWAP2 DUP3 SWAP1 KECCAK256 DUP3 MLOAD PUSH1 0xE0 DUP2 ADD DUP5 MSTORE DUP2 SLOAD PUSH1 0x1 PUSH1 0x1 PUSH1 0xA0 SHL SUB SWAP1 DUP2 AND DUP3 MSTORE PUSH1 0x1 DUP1 DUP5 ADD SLOAD SWAP2 DUP3 AND SWAP5 DUP4 ADD SWAP5 SWAP1 SWAP5 MSTORE SWAP1 SWAP4 SWAP2 SWAP3 SWAP2 DUP5 ADD SWAP2 PUSH1 0x1 PUSH1 0xA0 SHL SWAP1 SWAP2 DIV PUSH1 0xFF AND SWAP1 DUP2 GT ISZERO PUSH2 0x7EB JUMPI PUSH2 0x7EB PUSH2 0x1966 JUMP JUMPDEST PUSH1 0x1 DUP2 GT ISZERO PUSH2 0x7FC JUMPI PUSH2 0x7FC PUSH2 0x1966 JUMP JUMPDEST DUP2 MSTORE PUSH1 0x2 DUP3 ADD SLOAD PUSH1 0x20 DUP3 ADD MSTORE PUSH1 0x3 DUP3 ADD SLOAD PUSH1 0x1 PUSH1 0x1 PUSH1 0xA0 SHL SUB AND PUSH1 0x40 DUP3 ADD MSTORE PUSH1 0x4 DUP3 ADD SLOAD PUSH1 0x60 DUP3 ADD MSTORE PUSH1 0x5 SWAP1 SWAP2 ADD SLOAD PUSH1 0x80 SWAP1 SWAP2 ADD MSTORE SWAP3 SWAP2 POP POP JUMP JUMPDEST PUSH1 0x0 DUP2 DUP2 MSTORE PUSH1 0x2 PUSH1 0x20 MSTORE PUSH1 0x40 DUP2 KECCAK256 SLOAD PUSH1 0x1 PUSH1 0x1 PUSH1 0xA0 SHL SUB AND DUP1 PUSH2 0x358 JUMPI PUSH1 0x40 MLOAD PUSH3 0x461BCD PUSH1 0xE5 SHL DUP2 MSTORE PUSH1 0x20 PUSH1 0x4 DUP3 ADD MSTORE PUSH1 0x18 PUSH1 0x24 DUP3 ADD MSTORE PUSH24 0x115490CDCC8C4E881A5B9D985B1A59081D1BDAD95B881251 PUSH1 0x42 SHL PUSH1 0x44 DUP3 ADD MSTORE PUSH1 0x64 ADD PUSH2 0x48B JUMP JUMPDEST PUSH1 0x7 SLOAD PUSH1 0x1 PUSH1 0x1 PUSH1 0xA0 SHL SUB AND ISZERO PUSH2 0x8E2 JUMPI PUSH1 0x40 MLOAD PUSH3 0x461BCD PUSH1 0xE5 SHL DUP2 MSTORE PUSH1 0x20 PUSH1 0x4 DUP3 ADD MSTORE PUSH1 0xF PUSH1 0x24 DUP3 ADD MSTORE PUSH15 0x111053C8185B1C9958591E481CD95D PUSH1 0x8A SHL PUSH1 0x44 DUP3 ADD MSTORE PUSH1 0x64 ADD PUSH2 0x48B JUMP JUMPDEST PUSH1 0x7 DUP1 SLOAD PUSH1 0x1 PUSH1 0x1 PUSH1 0xA0 SHL SUB NOT AND PUSH1 0x1 PUSH1 0x1 PUSH1 0xA0 SHL SUB SWAP3 SWAP1 SWAP3 AND SWAP2 SWAP1 SWAP2 OR SWAP1 SSTORE JUMP JUMPDEST PUSH1 0x0 PUSH1 0x1 PUSH1 0x1 PUSH1 0xA0 SHL SUB DUP3 AND PUSH2 0x96E JUMPI PUSH1 0x40 MLOAD PUSH3 0x461BCD PUSH1 0xE5 SHL DUP2 MSTORE PUSH1 0x20 PUSH1 0x4 DUP3 ADD MSTORE PUSH1 0x29 PUSH1 0x24 DUP3 ADD MSTORE PUSH32 0x4552433732313A2061646472657373207A65726F206973206E6F742061207661 PUSH1 0x44 DUP3 ADD MSTORE PUSH9 0x3634B21037BBB732B9 PUSH1 0xB9 SHL PUSH1 0x64 DUP3 ADD MSTORE PUSH1 0x84 ADD PUSH2 0x48B JUMP JUMPDEST POP PUSH1 0x1 PUSH1 0x1 PUSH1 0xA0 SHL SUB AND PUSH1 0x0 SWAP1 DUP2 MSTORE PUSH1 0x3 PUSH1 0x20 MSTORE PUSH1 0x40 SWAP1 KECCAK256 SLOAD SWAP1 JUMP JUMPDEST PUSH1 0x60 PUSH1 0x1 DUP1 SLOAD PUSH2 0x36D SWAP1 PUSH2 0x1BCD JUMP JUMPDEST PUSH2 0x9A4 CALLER DUP4 DUP4 PUSH2 0x1176 JUMP JUMPDEST POP POP JUMP JUMPDEST PUSH2 0x9B2 CALLER DUP4 PUSH2 0xE35 JUMP JUMPDEST PUSH2 0x9CE JUMPI PUSH1 0x40 MLOAD PUSH3 0x461BCD PUSH1 0xE5 SHL DUP2 MSTORE PUSH1 0x4 ADD PUSH2 0x48B SWAP1 PUSH2 0x1C07 JUMP JUMPDEST PUSH2 0x9DA DUP5 DUP5 DUP5 DUP5 PUSH2 0x1244 JUMP JUMPDEST POP POP POP POP JUMP JUMPDEST PUSH1 0x60 PUSH2 0x9EB DUP3 PUSH2 0x1274 JUMP JUMPDEST PUSH2 0xA37 JUMPI PUSH1 0x40 MLOAD PUSH3 0x461BCD PUSH1 0xE5 SHL DUP2 MSTORE PUSH1 0x20 PUSH1 0x4 DUP3 ADD MSTORE PUSH1 0x1D PUSH1 0x24 DUP3 ADD MSTORE PUSH32 0x546F6B656E20686173206E6F74206265656E206D696E74656420796574000000 PUSH1 0x44 DUP3 ADD MSTORE PUSH1 0x64 ADD PUSH2 0x48B JUMP JUMPDEST PUSH1 0x0 DUP3 DUP2 MSTORE PUSH1 0x8 PUSH1 0x20 MSTORE PUSH1 0x40 DUP2 KECCAK256 DUP1 SLOAD PUSH2 0xA50 SWAP1 PUSH2 0x1BCD JUMP JUMPDEST DUP1 PUSH1 0x1F ADD PUSH1 0x20 DUP1 SWAP2 DIV MUL PUSH1 0x20 ADD PUSH1 0x40 MLOAD SWAP1 DUP2 ADD PUSH1 0x40 MSTORE DUP1 SWAP3 SWAP2 SWAP1 DUP2 DUP2 MSTORE PUSH1 0x20 ADD DUP3 DUP1 SLOAD PUSH2 0xA7C SWAP1 PUSH2 0x1BCD JUMP JUMPDEST DUP1 ISZERO PUSH2 0xAC9 JUMPI DUP1 PUSH1 0x1F LT PUSH2 0xA9E JUMPI PUSH2 0x100 DUP1 DUP4 SLOAD DIV MUL DUP4 MSTORE SWAP2 PUSH1 0x20 ADD SWAP2 PUSH2 0xAC9 JUMP JUMPDEST DUP3 ADD SWAP2 SWAP1 PUSH1 0x0 MSTORE PUSH1 0x20 PUSH1 0x0 KECCAK256 SWAP1 JUMPDEST DUP2 SLOAD DUP2 MSTORE SWAP1 PUSH1 0x1 ADD SWAP1 PUSH1 0x20 ADD DUP1 DUP4 GT PUSH2 0xAAC JUMPI DUP3 SWAP1 SUB PUSH1 0x1F AND DUP3 ADD SWAP2 JUMPDEST POP POP POP POP POP SWAP1 POP PUSH1 0x0 PUSH2 0xAE7 PUSH1 0x40 DUP1 MLOAD PUSH1 0x20 DUP2 ADD SWAP1 SWAP2 MSTORE PUSH1 0x0 DUP2 MSTORE SWAP1 JUMP JUMPDEST SWAP1 POP DUP1 MLOAD PUSH1 0x0 SUB PUSH2 0xAF9 JUMPI POP SWAP3 SWAP2 POP POP JUMP JUMPDEST DUP2 MLOAD ISZERO PUSH2 0xB2B JUMPI DUP1 DUP3 PUSH1 0x40 MLOAD PUSH1 0x20 ADD PUSH2 0xB13 SWAP3 SWAP2 SWAP1 PUSH2 0x1C9F JUMP JUMPDEST PUSH1 0x40 MLOAD PUSH1 0x20 DUP2 DUP4 SUB SUB DUP2 MSTORE SWAP1 PUSH1 0x40 MSTORE SWAP3 POP POP POP SWAP2 SWAP1 POP JUMP JUMPDEST PUSH2 0x74E DUP5 PUSH2 0x1291 JUMP JUMPDEST PUSH1 0x1 PUSH1 0x1 PUSH1 0xA0 SHL SUB SWAP2 DUP3 AND PUSH1 0x0 SWAP1 DUP2 MSTORE PUSH1 0x5 PUSH1 0x20 SWAP1 DUP2 MSTORE PUSH1 0x40 DUP1 DUP4 KECCAK256 SWAP4 SWAP1 SWAP5 AND DUP3 MSTORE SWAP2 SWAP1 SWAP2 MSTORE KECCAK256 SLOAD PUSH1 0xFF AND SWAP1 JUMP JUMPDEST PUSH1 0x7 SLOAD PUSH1 0x1 PUSH1 0x1 PUSH1 0xA0 SHL SUB AND CALLER EQ PUSH2 0xBB0 JUMPI PUSH1 0x40 MLOAD PUSH3 0x461BCD PUSH1 0xE5 SHL DUP2 MSTORE PUSH1 0x20 PUSH1 0x4 DUP3 ADD MSTORE PUSH1 0x11 PUSH1 0x24 DUP3 ADD MSTORE PUSH17 0x13DB9B1E48111053C818D85B8818D85B1B PUSH1 0x7A SHL PUSH1 0x44 DUP3 ADD MSTORE PUSH1 0x64 ADD PUSH2 0x48B JUMP JUMPDEST PUSH1 0x0 DUP2 DUP2 MSTORE PUSH1 0x9 PUSH1 0x20 SWAP1 DUP2 MSTORE PUSH1 0x40 DUP1 DUP4 KECCAK256 DUP2 MLOAD PUSH1 0xE0 DUP2 ADD DUP4 MSTORE DUP2 SLOAD PUSH1 0x1 PUSH1 0x1 PUSH1 0xA0 SHL SUB SWAP1 DUP2 AND DUP3 MSTORE PUSH1 0x1 DUP1 DUP5 ADD SLOAD SWAP2 DUP3 AND SWAP6 DUP4 ADD SWAP6 SWAP1 SWAP6 MSTORE SWAP1 SWAP4 SWAP2 SWAP3 DUP5 ADD SWAP2 PUSH1 0x1 PUSH1 0xA0 SHL SWAP1 SWAP2 DIV PUSH1 0xFF AND SWAP1 DUP2 GT ISZERO PUSH2 0xC0A JUMPI PUSH2 0xC0A PUSH2 0x1966 JUMP JUMPDEST PUSH1 0x1 DUP2 GT ISZERO PUSH2 0xC1B JUMPI PUSH2 0xC1B PUSH2 0x1966 JUMP JUMPDEST DUP2 MSTORE PUSH1 0x2 DUP3 ADD SLOAD PUSH1 0x20 DUP3 ADD MSTORE PUSH1 0x3 DUP3 ADD SLOAD PUSH1 0x1 PUSH1 0x1 PUSH1 0xA0 SHL SUB AND PUSH1 0x40 DUP1 DUP4 ADD SWAP2 SWAP1 SWAP2 MSTORE PUSH1 0x4 DUP4 ADD SLOAD PUSH1 0x60 DUP4 ADD MSTORE PUSH1 0x5 SWAP1 SWAP3 ADD SLOAD PUSH1 0x80 SWAP1 SWAP2 ADD MSTORE SWAP1 SWAP2 POP PUSH1 0x1 SWAP1 DUP3 ADD DUP2 SWAP1 MSTORE POP PUSH1 0x0 DUP3 DUP2 MSTORE PUSH1 0x9 PUSH1 0x20 SWAP1 DUP2 MSTORE PUSH1 0x40 SWAP2 DUP3 SWAP1 KECCAK256 DUP4 MLOAD DUP2 SLOAD PUSH1 0x1 PUSH1 0x1 PUSH1 0xA0 SHL SUB SWAP2 DUP3 AND PUSH1 0x1 PUSH1 0x1 PUSH1 0xA0 SHL SUB NOT SWAP2 DUP3 AND OR DUP4 SSTORE SWAP3 DUP6 ADD MLOAD PUSH1 0x1 DUP1 DUP5 ADD DUP1 SLOAD SWAP3 SWAP1 SWAP4 AND SWAP5 DUP3 AND DUP6 OR DUP4 SSTORE SWAP5 DUP7 ADD MLOAD DUP7 SWAP6 SWAP4 SWAP5 SWAP1 SWAP4 PUSH1 0x1 PUSH1 0x1 PUSH1 0xA8 SHL SUB NOT SWAP1 SWAP3 AND OR SWAP1 PUSH1 0x1 PUSH1 0xA0 SHL SWAP1 DUP5 SWAP1 DUP2 GT ISZERO PUSH2 0xCD5 JUMPI PUSH2 0xCD5 PUSH2 0x1966 JUMP JUMPDEST MUL OR SWAP1 SSTORE POP PUSH1 0x60 DUP3 ADD MLOAD PUSH1 0x2 DUP3 ADD SSTORE PUSH1 0x80 DUP3 ADD MLOAD PUSH1 0x3 DUP3 ADD DUP1 SLOAD PUSH1 0x1 PUSH1 0x1 PUSH1 0xA0 SHL SUB NOT AND PUSH1 0x1 PUSH1 0x1 PUSH1 0xA0 SHL SUB SWAP1 SWAP3 AND SWAP2 SWAP1 SWAP2 OR SWAP1 SSTORE PUSH1 0xA0 DUP3 ADD MLOAD PUSH1 0x4 DUP3 ADD SSTORE PUSH1 0xC0 SWAP1 SWAP2 ADD MLOAD PUSH1 0x5 SWAP1 SWAP2 ADD SSTORE POP POP JUMP JUMPDEST PUSH1 0x0 PUSH1 0x1 PUSH1 0x1 PUSH1 0xE0 SHL SUB NOT DUP3 AND PUSH4 0x80AC58CD PUSH1 0xE0 SHL EQ DUP1 PUSH2 0xD55 JUMPI POP PUSH1 0x1 PUSH1 0x1 PUSH1 0xE0 SHL SUB NOT DUP3 AND PUSH4 0x5B5E139F PUSH1 0xE0 SHL EQ JUMPDEST DUP1 PUSH2 0x358 JUMPI POP PUSH4 0x1FFC9A7 PUSH1 0xE0 SHL PUSH1 0x1 PUSH1 0x1 PUSH1 0xE0 SHL SUB NOT DUP4 AND EQ PUSH2 0x358 JUMP JUMPDEST PUSH2 0xD7D DUP2 PUSH2 0x1274 JUMP JUMPDEST PUSH2 0xDC4 JUMPI PUSH1 0x40 MLOAD PUSH3 0x461BCD PUSH1 0xE5 SHL DUP2 MSTORE PUSH1 0x20 PUSH1 0x4 DUP3 ADD MSTORE PUSH1 0x18 PUSH1 0x24 DUP3 ADD MSTORE PUSH24 0x115490CDCC8C4E881A5B9D985B1A59081D1BDAD95B881251 PUSH1 0x42 SHL PUSH1 0x44 DUP3 ADD MSTORE PUSH1 0x64 ADD PUSH2 0x48B JUMP JUMPDEST POP JUMP JUMPDEST PUSH1 0x0 DUP2 DUP2 MSTORE PUSH1 0x4 PUSH1 0x20 MSTORE PUSH1 0x40 SWAP1 KECCAK256 DUP1 SLOAD PUSH1 0x1 PUSH1 0x1 PUSH1 0xA0 SHL SUB NOT AND PUSH1 0x1 PUSH1 0x1 PUSH1 0xA0 SHL SUB DUP5 AND SWAP1 DUP2 OR SWAP1 SWAP2 SSTORE DUP2 SWAP1 PUSH2 0xDFC DUP3 PUSH2 0x837 JUMP JUMPDEST PUSH1 0x1 PUSH1 0x1 PUSH1 0xA0 SHL SUB AND PUSH32 0x8C5BE1E5EBEC7D5BD14F71427D1E84F3DD0314C0F7B2291E5B200AC8C7C3B925 PUSH1 0x40 MLOAD PUSH1 0x40 MLOAD DUP1 SWAP2 SUB SWAP1 LOG4 POP POP JUMP JUMPDEST PUSH1 0x0 DUP1 PUSH2 0xE41 DUP4 PUSH2 0x837 JUMP JUMPDEST SWAP1 POP DUP1 PUSH1 0x1 PUSH1 0x1 PUSH1 0xA0 SHL SUB AND DUP5 PUSH1 0x1 PUSH1 0x1 PUSH1 0xA0 SHL SUB AND EQ DUP1 PUSH2 0xE68 JUMPI POP PUSH2 0xE68 DUP2 DUP6 PUSH2 0xB34 JUMP JUMPDEST DUP1 PUSH2 0x74E JUMPI POP DUP4 PUSH1 0x1 PUSH1 0x1 PUSH1 0xA0 SHL SUB AND PUSH2 0xE81 DUP5 PUSH2 0x3F0 JUMP JUMPDEST PUSH1 0x1 PUSH1 0x1 PUSH1 0xA0 SHL SUB AND EQ SWAP5 SWAP4 POP POP POP POP JUMP JUMPDEST PUSH1 0x60 PUSH20 0x0 PUSH4 0x12496A1B PUSH2 0xEBA CALLER PUSH1 0x14 PUSH2 0x12F1 JUMP JUMPDEST PUSH1 0x7 SLOAD PUSH2 0xED1 SWAP1 PUSH1 0x1 PUSH1 0x1 PUSH1 0xA0 SHL SUB AND PUSH1 0x14 PUSH2 0x12F1 JUMP JUMPDEST PUSH2 0xEDA DUP10 PUSH2 0x1494 JUMP JUMPDEST PUSH2 0xEEC DUP10 PUSH1 0x1 PUSH1 0x1 PUSH1 0xA0 SHL SUB AND PUSH2 0x1494 JUMP JUMPDEST DUP9 DUP9 PUSH1 0x40 MLOAD PUSH1 0x20 ADD PUSH2 0xF03 SWAP7 SWAP6 SWAP5 SWAP4 SWAP3 SWAP2 SWAP1 PUSH2 0x1CCE JUMP JUMPDEST PUSH1 0x40 MLOAD PUSH1 0x20 DUP2 DUP4 SUB SUB DUP2 MSTORE SWAP1 PUSH1 0x40 MSTORE PUSH1 0x40 MLOAD DUP3 PUSH4 0xFFFFFFFF AND PUSH1 0xE0 SHL DUP2 MSTORE PUSH1 0x4 ADD PUSH2 0xF2E SWAP2 SWAP1 PUSH2 0x1874 JUMP JUMPDEST PUSH1 0x0 PUSH1 0x40 MLOAD DUP1 DUP4 SUB DUP2 DUP7 GAS DELEGATECALL ISZERO DUP1 ISZERO PUSH2 0xF4B JUMPI RETURNDATASIZE PUSH1 0x0 DUP1 RETURNDATACOPY RETURNDATASIZE PUSH1 0x0 REVERT JUMPDEST POP POP POP POP PUSH1 0x40 MLOAD RETURNDATASIZE PUSH1 0x0 DUP3 RETURNDATACOPY PUSH1 0x1F RETURNDATASIZE SWAP1 DUP2 ADD PUSH1 0x1F NOT AND DUP3 ADD PUSH1 0x40 MSTORE PUSH2 0xF73 SWAP2 SWAP1 DUP2 ADD SWAP1 PUSH2 0x1E74 JUMP JUMPDEST PUSH1 0x40 MLOAD PUSH1 0x20 ADD PUSH2 0xF83 SWAP2 SWAP1 PUSH2 0x1EEB JUMP JUMPDEST PUSH1 0x40 MLOAD PUSH1 0x20 DUP2 DUP4 SUB SUB DUP2 MSTORE SWAP1 PUSH1 0x40 MSTORE SWAP1 POP SWAP5 SWAP4 POP POP POP POP JUMP JUMPDEST PUSH1 0x1 PUSH1 0x1 PUSH1 0xA0 SHL SUB DUP3 AND PUSH2 0xFF2 JUMPI PUSH1 0x40 MLOAD PUSH3 0x461BCD PUSH1 0xE5 SHL DUP2 MSTORE PUSH1 0x20 PUSH1 0x4 DUP3 ADD DUP2 SWAP1 MSTORE PUSH1 0x24 DUP3 ADD MSTORE PUSH32 0x4552433732313A206D696E7420746F20746865207A65726F2061646472657373 PUSH1 0x44 DUP3 ADD MSTORE PUSH1 0x64 ADD PUSH2 0x48B JUMP JUMPDEST PUSH2 0xFFB DUP2 PUSH2 0x1274 JUMP JUMPDEST ISZERO PUSH2 0x1048 JUMPI PUSH1 0x40 MLOAD PUSH3 0x461BCD PUSH1 0xE5 SHL DUP2 MSTORE PUSH1 0x20 PUSH1 0x4 DUP3 ADD MSTORE PUSH1 0x1C PUSH1 0x24 DUP3 ADD MSTORE PUSH32 0x4552433732313A20746F6B656E20616C7265616479206D696E74656400000000 PUSH1 0x44 DUP3 ADD MSTORE PUSH1 0x64 ADD PUSH2 0x48B JUMP JUMPDEST PUSH2 0x1051 DUP2 PUSH2 0x1274 JUMP JUMPDEST ISZERO PUSH2 0x109E JUMPI PUSH1 0x40 MLOAD PUSH3 0x461BCD PUSH1 0xE5 SHL DUP2 MSTORE PUSH1 0x20 PUSH1 0x4 DUP3 ADD MSTORE PUSH1 0x1C PUSH1 0x24 DUP3 ADD MSTORE PUSH32 0x4552433732313A20746F6B656E20616C7265616479206D696E74656400000000 PUSH1 0x44 DUP3 ADD MSTORE PUSH1 0x64 ADD PUSH2 0x48B JUMP JUMPDEST PUSH1 0x1 PUSH1 0x1 PUSH1 0xA0 SHL SUB DUP3 AND PUSH1 0x0 DUP2 DUP2 MSTORE PUSH1 0x3 PUSH1 0x20 SWAP1 DUP2 MSTORE PUSH1 0x40 DUP1 DUP4 KECCAK256 DUP1 SLOAD PUSH1 0x1 ADD SWAP1 SSTORE DUP5 DUP4 MSTORE PUSH1 0x2 SWAP1 SWAP2 MSTORE DUP1 DUP3 KECCAK256 DUP1 SLOAD PUSH1 0x1 PUSH1 0x1 PUSH1 0xA0 SHL SUB NOT AND DUP5 OR SWAP1 SSTORE MLOAD DUP4 SWAP3 SWAP2 SWAP1 PUSH32 0xDDF252AD1BE2C89B69C2B068FC378DAA952BA7F163C4A11628F55A4DF523B3EF SWAP1 DUP3 SWAP1 LOG4 POP POP JUMP JUMPDEST PUSH2 0x1112 DUP3 PUSH2 0x1274 JUMP JUMPDEST PUSH2 0x115E JUMPI PUSH1 0x40 MLOAD PUSH3 0x461BCD PUSH1 0xE5 SHL DUP2 MSTORE PUSH1 0x20 PUSH1 0x4 DUP3 ADD MSTORE PUSH1 0x1C PUSH1 0x24 DUP3 ADD MSTORE PUSH32 0x55524920736574206F66206E6F6E6578697374656E7420746F6B656E00000000 PUSH1 0x44 DUP3 ADD MSTORE PUSH1 0x64 ADD PUSH2 0x48B JUMP JUMPDEST PUSH1 0x0 DUP3 DUP2 MSTORE PUSH1 0x8 PUSH1 0x20 MSTORE PUSH1 0x40 SWAP1 KECCAK256 PUSH2 0x52C DUP3 DUP3 PUSH2 0x1F7E JUMP JUMPDEST DUP2 PUSH1 0x1 PUSH1 0x1 PUSH1 0xA0 SHL SUB AND DUP4 PUSH1 0x1 PUSH1 0x1 PUSH1 0xA0 SHL SUB AND SUB PUSH2 0x11D7 JUMPI PUSH1 0x40 MLOAD PUSH3 0x461BCD PUSH1 0xE5 SHL DUP2 MSTORE PUSH1 0x20 PUSH1 0x4 DUP3 ADD MSTORE PUSH1 0x19 PUSH1 0x24 DUP3 ADD MSTORE PUSH32 0x4552433732313A20617070726F766520746F2063616C6C657200000000000000 PUSH1 0x44 DUP3 ADD MSTORE PUSH1 0x64 ADD PUSH2 0x48B JUMP JUMPDEST PUSH1 0x1 PUSH1 0x1 PUSH1 0xA0 SHL SUB DUP4 DUP2 AND PUSH1 0x0 DUP2 DUP2 MSTORE PUSH1 0x5 PUSH1 0x20 SWAP1 DUP2 MSTORE PUSH1 0x40 DUP1 DUP4 KECCAK256 SWAP5 DUP8 AND DUP1 DUP5 MSTORE SWAP5 DUP3 MSTORE SWAP2 DUP3 SWAP1 KECCAK256 DUP1 SLOAD PUSH1 0xFF NOT AND DUP7 ISZERO ISZERO SWAP1 DUP2 OR SWAP1 SWAP2 SSTORE SWAP2 MLOAD SWAP2 DUP3 MSTORE PUSH32 0x17307EAB39AB6107E8899845AD3D59BD9653F200F220920489CA2B5937696C31 SWAP2 ADD PUSH1 0x40 MLOAD DUP1 SWAP2 SUB SWAP1 LOG3 POP POP POP JUMP JUMPDEST PUSH2 0x124C PUSH1 0x0 DUP1 REVERT JUMPDEST PUSH2 0x1258 DUP5 DUP5 DUP5 DUP5 PUSH2 0x14AB JUMP JUMPDEST PUSH2 0x9DA JUMPI PUSH1 0x40 MLOAD PUSH3 0x461BCD PUSH1 0xE5 SHL DUP2 MSTORE PUSH1 0x4 ADD PUSH2 0x48B SWAP1 PUSH2 0x203E JUMP JUMPDEST PUSH1 0x0 SWAP1 DUP2 MSTORE PUSH1 0x2 PUSH1 0x20 MSTORE PUSH1 0x40 SWAP1 KECCAK256 SLOAD PUSH1 0x1 PUSH1 0x1 PUSH1 0xA0 SHL SUB AND ISZERO ISZERO SWAP1 JUMP JUMPDEST PUSH1 0x60 PUSH2 0x129C DUP3 PUSH2 0x1274 JUMP JUMPDEST PUSH2 0x12E8 JUMPI PUSH1 0x40 MLOAD PUSH3 0x461BCD PUSH1 0xE5 SHL DUP2 MSTORE PUSH1 0x20 PUSH1 0x4 DUP3 ADD MSTORE PUSH1 0x1D PUSH1 0x24 DUP3 ADD MSTORE PUSH32 0x546F6B656E20686173206E6F74206265656E206D696E74656420796574000000 PUSH1 0x44 DUP3 ADD MSTORE PUSH1 0x64 ADD PUSH2 0x48B JUMP JUMPDEST PUSH2 0x358 DUP3 PUSH2 0x15A9 JUMP JUMPDEST PUSH1 0x60 PUSH1 0x0 PUSH2 0x1300 DUP4 PUSH1 0x2 PUSH2 0x2090 JUMP JUMPDEST PUSH2 0x130B SWAP1 PUSH1 0x2 PUSH2 0x20A7 JUMP JUMPDEST PUSH8 0xFFFFFFFFFFFFFFFF DUP2 GT ISZERO PUSH2 0x1323 JUMPI PUSH2 0x1323 PUSH2 0x1A89 JUMP JUMPDEST PUSH1 0x40 MLOAD SWAP1 DUP1 DUP3 MSTORE DUP1 PUSH1 0x1F ADD PUSH1 0x1F NOT AND PUSH1 0x20 ADD DUP3 ADD PUSH1 0x40 MSTORE DUP1 ISZERO PUSH2 0x134D JUMPI PUSH1 0x20 DUP3 ADD DUP2 DUP1 CALLDATASIZE DUP4 CALLDATACOPY ADD SWAP1 POP JUMPDEST POP SWAP1 POP PUSH1 0x3 PUSH1 0xFC SHL DUP2 PUSH1 0x0 DUP2 MLOAD DUP2 LT PUSH2 0x1368 JUMPI PUSH2 0x1368 PUSH2 0x20BA JUMP JUMPDEST PUSH1 0x20 ADD ADD SWAP1 PUSH1 0x1 PUSH1 0x1 PUSH1 0xF8 SHL SUB NOT AND SWAP1 DUP2 PUSH1 0x0 BYTE SWAP1 MSTORE8 POP PUSH1 0xF PUSH1 0xFB SHL DUP2 PUSH1 0x1 DUP2 MLOAD DUP2 LT PUSH2 0x1397 JUMPI PUSH2 0x1397 PUSH2 0x20BA JUMP JUMPDEST PUSH1 0x20 ADD ADD SWAP1 PUSH1 0x1 PUSH1 0x1 PUSH1 0xF8 SHL SUB NOT AND SWAP1 DUP2 PUSH1 0x0 BYTE SWAP1 MSTORE8 POP PUSH1 0x0 PUSH2 0x13BB DUP5 PUSH1 0x2 PUSH2 0x2090 JUMP JUMPDEST PUSH2 0x13C6 SWAP1 PUSH1 0x1 PUSH2 0x20A7 JUMP JUMPDEST SWAP1 POP JUMPDEST PUSH1 0x1 DUP2 GT ISZERO PUSH2 0x143E JUMPI PUSH16 0x181899199A1A9B1B9C1CB0B131B232B3 PUSH1 0x81 SHL DUP6 PUSH1 0xF AND PUSH1 0x10 DUP2 LT PUSH2 0x13FA JUMPI PUSH2 0x13FA PUSH2 0x20BA JUMP JUMPDEST BYTE PUSH1 0xF8 SHL DUP3 DUP3 DUP2 MLOAD DUP2 LT PUSH2 0x1410 JUMPI PUSH2 0x1410 PUSH2 0x20BA JUMP JUMPDEST PUSH1 0x20 ADD ADD SWAP1 PUSH1 0x1 PUSH1 0x1 PUSH1 0xF8 SHL SUB NOT AND SWAP1 DUP2 PUSH1 0x0 BYTE SWAP1 MSTORE8 POP PUSH1 0x4 SWAP5 SWAP1 SWAP5 SHR SWAP4 PUSH2 0x1437 DUP2 PUSH2 0x20D0 JUMP JUMPDEST SWAP1 POP PUSH2 0x13C9 JUMP JUMPDEST POP DUP4 ISZERO PUSH2 0x148D JUMPI PUSH1 0x40 MLOAD PUSH3 0x461BCD PUSH1 0xE5 SHL DUP2 MSTORE PUSH1 0x20 PUSH1 0x4 DUP3 ADD DUP2 SWAP1 MSTORE PUSH1 0x24 DUP3 ADD MSTORE PUSH32 0x537472696E67733A20686578206C656E67746820696E73756666696369656E74 PUSH1 0x44 DUP3 ADD MSTORE PUSH1 0x64 ADD PUSH2 0x48B JUMP JUMPDEST SWAP4 SWAP3 POP POP POP JUMP JUMPDEST PUSH1 0x60 PUSH2 0x358 DUP3 PUSH2 0x14A3 DUP5 PUSH2 0x161C JUMP JUMPDEST PUSH1 0x1 ADD PUSH2 0x12F1 JUMP JUMPDEST PUSH1 0x0 PUSH1 0x1 PUSH1 0x1 PUSH1 0xA0 SHL SUB DUP5 AND EXTCODESIZE ISZERO PUSH2 0x15A1 JUMPI PUSH1 0x40 MLOAD PUSH4 0xA85BD01 PUSH1 0xE1 SHL DUP2 MSTORE PUSH1 0x1 PUSH1 0x1 PUSH1 0xA0 SHL SUB DUP6 AND SWAP1 PUSH4 0x150B7A02 SWAP1 PUSH2 0x14EF SWAP1 CALLER SWAP1 DUP10 SWAP1 DUP9 SWAP1 DUP9 SWAP1 PUSH1 0x4 ADD PUSH2 0x20E7 JUMP JUMPDEST PUSH1 0x20 PUSH1 0x40 MLOAD DUP1 DUP4 SUB DUP2 PUSH1 0x0 DUP8 GAS CALL SWAP3 POP POP POP DUP1 ISZERO PUSH2 0x152A JUMPI POP PUSH1 0x40 DUP1 MLOAD PUSH1 0x1F RETURNDATASIZE SWAP1 DUP2 ADD PUSH1 0x1F NOT AND DUP3 ADD SWAP1 SWAP3 MSTORE PUSH2 0x1527 SWAP2 DUP2 ADD SWAP1 PUSH2 0x2124 JUMP JUMPDEST PUSH1 0x1 JUMPDEST PUSH2 0x1587 JUMPI RETURNDATASIZE DUP1 DUP1 ISZERO PUSH2 0x1558 JUMPI PUSH1 0x40 MLOAD SWAP2 POP PUSH1 0x1F NOT PUSH1 0x3F RETURNDATASIZE ADD AND DUP3 ADD PUSH1 0x40 MSTORE RETURNDATASIZE DUP3 MSTORE RETURNDATASIZE PUSH1 0x0 PUSH1 0x20 DUP5 ADD RETURNDATACOPY PUSH2 0x155D JUMP JUMPDEST PUSH1 0x60 SWAP2 POP JUMPDEST POP DUP1 MLOAD PUSH1 0x0 SUB PUSH2 0x157F JUMPI PUSH1 0x40 MLOAD PUSH3 0x461BCD PUSH1 0xE5 SHL DUP2 MSTORE PUSH1 0x4 ADD PUSH2 0x48B SWAP1 PUSH2 0x203E JUMP JUMPDEST DUP1 MLOAD DUP2 PUSH1 0x20 ADD REVERT JUMPDEST PUSH1 0x1 PUSH1 0x1 PUSH1 0xE0 SHL SUB NOT AND PUSH4 0xA85BD01 PUSH1 0xE1 SHL EQ SWAP1 POP PUSH2 0x74E JUMP JUMPDEST POP PUSH1 0x1 PUSH2 0x74E JUMP JUMPDEST PUSH1 0x60 PUSH2 0x15B4 DUP3 PUSH2 0xD74 JUMP JUMPDEST PUSH1 0x0 PUSH2 0x15CB PUSH1 0x40 DUP1 MLOAD PUSH1 0x20 DUP2 ADD SWAP1 SWAP2 MSTORE PUSH1 0x0 DUP2 MSTORE SWAP1 JUMP JUMPDEST SWAP1 POP PUSH1 0x0 DUP2 MLOAD GT PUSH2 0x15EB JUMPI PUSH1 0x40 MLOAD DUP1 PUSH1 0x20 ADD PUSH1 0x40 MSTORE DUP1 PUSH1 0x0 DUP2 MSTORE POP PUSH2 0x148D JUMP JUMPDEST DUP1 PUSH2 0x15F5 DUP5 PUSH2 0x1686 JUMP JUMPDEST PUSH1 0x40 MLOAD PUSH1 0x20 ADD PUSH2 0x1606 SWAP3 SWAP2 SWAP1 PUSH2 0x1C9F JUMP JUMPDEST PUSH1 0x40 MLOAD PUSH1 0x20 DUP2 DUP4 SUB SUB DUP2 MSTORE SWAP1 PUSH1 0x40 MSTORE SWAP4 SWAP3 POP POP POP JUMP JUMPDEST PUSH1 0x0 DUP1 PUSH1 0x80 DUP4 SWAP1 SHR ISZERO PUSH2 0x1634 JUMPI PUSH1 0x80 SWAP3 SWAP1 SWAP3 SHR SWAP2 PUSH1 0x10 ADD JUMPDEST PUSH1 0x40 DUP4 SWAP1 SHR ISZERO PUSH2 0x1649 JUMPI PUSH1 0x40 SWAP3 SWAP1 SWAP3 SHR SWAP2 PUSH1 0x8 ADD JUMPDEST PUSH1 0x20 DUP4 SWAP1 SHR ISZERO PUSH2 0x165E JUMPI PUSH1 0x20 SWAP3 SWAP1 SWAP3 SHR SWAP2 PUSH1 0x4 ADD JUMPDEST PUSH1 0x10 DUP4 SWAP1 SHR ISZERO PUSH2 0x1673 JUMPI PUSH1 0x10 SWAP3 SWAP1 SWAP3 SHR SWAP2 PUSH1 0x2 ADD JUMPDEST PUSH1 0x8 DUP4 SWAP1 SHR ISZERO PUSH2 0x358 JUMPI PUSH1 0x1 ADD SWAP3 SWAP2 POP POP JUMP JUMPDEST PUSH1 0x60 PUSH1 0x0 PUSH2 0x1693 DUP4 PUSH2 0x1719 JUMP JUMPDEST PUSH1 0x1 ADD SWAP1 POP PUSH1 0x0 DUP2 PUSH8 0xFFFFFFFFFFFFFFFF DUP2 GT ISZERO PUSH2 0x16B3 JUMPI PUSH2 0x16B3 PUSH2 0x1A89 JUMP JUMPDEST PUSH1 0x40 MLOAD SWAP1 DUP1 DUP3 MSTORE DUP1 PUSH1 0x1F ADD PUSH1 0x1F NOT AND PUSH1 0x20 ADD DUP3 ADD PUSH1 0x40 MSTORE DUP1 ISZERO PUSH2 0x16DD JUMPI PUSH1 0x20 DUP3 ADD DUP2 DUP1 CALLDATASIZE DUP4 CALLDATACOPY ADD SWAP1 POP JUMPDEST POP SWAP1 POP DUP2 DUP2 ADD PUSH1 0x20 ADD JUMPDEST PUSH1 0x0 NOT ADD PUSH16 0x181899199A1A9B1B9C1CB0B131B232B3 PUSH1 0x81 SHL PUSH1 0xA DUP7 MOD BYTE DUP2 MSTORE8 PUSH1 0xA DUP6 DIV SWAP5 POP DUP5 PUSH2 0x16E7 JUMPI POP SWAP4 SWAP3 POP POP POP JUMP JUMPDEST PUSH1 0x0 DUP1 PUSH19 0x184F03E93FF9F4DAA797ED6E38ED64BF6A1F01 PUSH1 0x40 SHL DUP4 LT PUSH2 0x1758 JUMPI PUSH19 0x184F03E93FF9F4DAA797ED6E38ED64BF6A1F01 PUSH1 0x40 SHL DUP4 DIV SWAP3 POP PUSH1 0x40 ADD JUMPDEST PUSH14 0x4EE2D6D415B85ACEF8100000000 DUP4 LT PUSH2 0x1784 JUMPI PUSH14 0x4EE2D6D415B85ACEF8100000000 DUP4 DIV SWAP3 POP PUSH1 0x20 ADD JUMPDEST PUSH7 0x2386F26FC10000 DUP4 LT PUSH2 0x17A2 JUMPI PUSH7 0x2386F26FC10000 DUP4 DIV SWAP3 POP PUSH1 0x10 ADD JUMPDEST PUSH4 0x5F5E100 DUP4 LT PUSH2 0x17BA JUMPI PUSH4 0x5F5E100 DUP4 DIV SWAP3 POP PUSH1 0x8 ADD JUMPDEST PUSH2 0x2710 DUP4 LT PUSH2 0x17CE JUMPI PUSH2 0x2710 DUP4 DIV SWAP3 POP PUSH1 0x4 ADD JUMPDEST PUSH1 0x64 DUP4 LT PUSH2 0x17E0 JUMPI PUSH1 0x64 DUP4 DIV SWAP3 POP PUSH1 0x2 ADD JUMPDEST PUSH1 0xA DUP4 LT PUSH2 0x358 JUMPI PUSH1 0x1 ADD SWAP3 SWAP2 POP POP JUMP JUMPDEST PUSH1 0x1 PUSH1 0x1 PUSH1 0xE0 SHL SUB NOT DUP2 AND DUP2 EQ PUSH2 0xDC4 JUMPI PUSH1 0x0 DUP1 REVERT JUMPDEST PUSH1 0x0 PUSH1 0x20 DUP3 DUP5 SUB SLT ISZERO PUSH2 0x1819 JUMPI PUSH1 0x0 DUP1 REVERT JUMPDEST DUP2 CALLDATALOAD PUSH2 0x148D DUP2 PUSH2 0x17F1 JUMP JUMPDEST PUSH1 0x0 JUMPDEST DUP4 DUP2 LT ISZERO PUSH2 0x183F JUMPI DUP2 DUP2 ADD MLOAD DUP4 DUP3 ADD MSTORE PUSH1 0x20 ADD PUSH2 0x1827 JUMP JUMPDEST POP POP PUSH1 0x0 SWAP2 ADD MSTORE JUMP JUMPDEST PUSH1 0x0 DUP2 MLOAD DUP1 DUP5 MSTORE PUSH2 0x1860 DUP2 PUSH1 0x20 DUP7 ADD PUSH1 0x20 DUP7 ADD PUSH2 0x1824 JUMP JUMPDEST PUSH1 0x1F ADD PUSH1 0x1F NOT AND SWAP3 SWAP1 SWAP3 ADD PUSH1 0x20 ADD SWAP3 SWAP2 POP POP JUMP JUMPDEST PUSH1 0x20 DUP2 MSTORE PUSH1 0x0 PUSH2 0x148D PUSH1 0x20 DUP4 ADD DUP5 PUSH2 0x1848 JUMP JUMPDEST PUSH1 0x0 PUSH1 0x20 DUP3 DUP5 SUB SLT ISZERO PUSH2 0x1899 JUMPI PUSH1 0x0 DUP1 REVERT JUMPDEST POP CALLDATALOAD SWAP2 SWAP1 POP JUMP JUMPDEST DUP1 CALLDATALOAD PUSH1 0x1 PUSH1 0x1 PUSH1 0xA0 SHL SUB DUP2 AND DUP2 EQ PUSH2 0x18B7 JUMPI PUSH1 0x0 DUP1 REVERT JUMPDEST SWAP2 SWAP1 POP JUMP JUMPDEST PUSH1 0x0 DUP1 PUSH1 0x40 DUP4 DUP6 SUB SLT ISZERO PUSH2 0x18CF JUMPI PUSH1 0x0 DUP1 REVERT JUMPDEST PUSH2 0x18D8 DUP4 PUSH2 0x18A0 JUMP JUMPDEST SWAP5 PUSH1 0x20 SWAP4 SWAP1 SWAP4 ADD CALLDATALOAD SWAP4 POP POP POP JUMP JUMPDEST PUSH1 0x0 DUP1 PUSH1 0x0 PUSH1 0x60 DUP5 DUP7 SUB SLT ISZERO PUSH2 0x18FB JUMPI PUSH1 0x0 DUP1 REVERT JUMPDEST PUSH2 0x1904 DUP5 PUSH2 0x18A0 JUMP JUMPDEST SWAP3 POP PUSH2 0x1912 PUSH1 0x20 DUP6 ADD PUSH2 0x18A0 JUMP JUMPDEST SWAP2 POP PUSH1 0x40 DUP5 ADD CALLDATALOAD SWAP1 POP SWAP3 POP SWAP3 POP SWAP3 JUMP JUMPDEST PUSH1 0x0 DUP1 PUSH1 0x0 DUP1 PUSH1 0x80 DUP6 DUP8 SUB SLT ISZERO PUSH2 0x1938 JUMPI PUSH1 0x0 DUP1 REVERT JUMPDEST PUSH2 0x1941 DUP6 PUSH2 0x18A0 JUMP JUMPDEST SWAP4 POP PUSH1 0x20 DUP6 ADD CALLDATALOAD SWAP3 POP PUSH2 0x1956 PUSH1 0x40 DUP7 ADD PUSH2 0x18A0 JUMP JUMPDEST SWAP4 SWAP7 SWAP3 SWAP6 POP SWAP3 SWAP4 PUSH1 0x60 ADD CALLDATALOAD SWAP3 POP POP JUMP JUMPDEST PUSH4 0x4E487B71 PUSH1 0xE0 SHL PUSH1 0x0 MSTORE PUSH1 0x21 PUSH1 0x4 MSTORE PUSH1 0x24 PUSH1 0x0 REVERT JUMPDEST DUP2 MLOAD PUSH1 0x1 PUSH1 0x1 PUSH1 0xA0 SHL SUB SWAP1 DUP2 AND DUP3 MSTORE PUSH1 0x20 DUP1 DUP5 ADD MLOAD SWAP1 SWAP2 AND SWAP1 DUP3 ADD MSTORE PUSH1 0x40 DUP3 ADD MLOAD PUSH1 0xE0 DUP3 ADD SWAP1 PUSH1 0x2 DUP2 LT PUSH2 0x19C0 JUMPI PUSH4 0x4E487B71 PUSH1 0xE0 SHL PUSH1 0x0 MSTORE PUSH1 0x21 PUSH1 0x4 MSTORE PUSH1 0x24 PUSH1 0x0 REVERT JUMPDEST DUP1 PUSH1 0x40 DUP5 ADD MSTORE POP PUSH1 0x60 DUP4 ADD MLOAD PUSH1 0x60 DUP4 ADD MSTORE PUSH1 0x80 DUP4 ADD MLOAD PUSH2 0x19EB PUSH1 0x80 DUP5 ADD DUP3 PUSH1 0x1 PUSH1 0x1 PUSH1 0xA0 SHL SUB AND SWAP1 MSTORE JUMP JUMPDEST POP PUSH1 0xA0 DUP4 ADD MLOAD PUSH1 0xA0 DUP4 ADD MSTORE PUSH1 0xC0 DUP4 ADD MLOAD PUSH1 0xC0 DUP4 ADD MSTORE SWAP3 SWAP2 POP POP JUMP JUMPDEST PUSH1 0x0 PUSH1 0x20 DUP3 DUP5 SUB SLT ISZERO PUSH2 0x1A18 JUMPI PUSH1 0x0 DUP1 REVERT JUMPDEST PUSH2 0x148D DUP3 PUSH2 0x18A0 JUMP JUMPDEST PUSH1 0x0 DUP1 PUSH1 0x40 DUP4 DUP6 SUB SLT ISZERO PUSH2 0x1A34 JUMPI PUSH1 0x0 DUP1 REVERT JUMPDEST PUSH2 0x1A3D DUP4 PUSH2 0x18A0 JUMP JUMPDEST SWAP2 POP PUSH1 0x20 DUP4 ADD CALLDATALOAD DUP1 ISZERO ISZERO DUP2 EQ PUSH2 0x1A52 JUMPI PUSH1 0x0 DUP1 REVERT JUMPDEST DUP1 SWAP2 POP POP SWAP3 POP SWAP3 SWAP1 POP JUMP JUMPDEST PUSH1 0x0 DUP1 PUSH1 0x40 DUP4 DUP6 SUB SLT ISZERO PUSH2 0x1A70 JUMPI PUSH1 0x0 DUP1 REVERT JUMPDEST DUP3 CALLDATALOAD SWAP2 POP PUSH2 0x1A80 PUSH1 0x20 DUP5 ADD PUSH2 0x18A0 JUMP JUMPDEST SWAP1 POP SWAP3 POP SWAP3 SWAP1 POP JUMP JUMPDEST PUSH4 0x4E487B71 PUSH1 0xE0 SHL PUSH1 0x0 MSTORE PUSH1 0x41 PUSH1 0x4 MSTORE PUSH1 0x24 PUSH1 0x0 REVERT JUMPDEST PUSH1 0x40 MLOAD PUSH1 0x1F DUP3 ADD PUSH1 0x1F NOT AND DUP2 ADD PUSH8 0xFFFFFFFFFFFFFFFF DUP2 GT DUP3 DUP3 LT OR ISZERO PUSH2 0x1AC8 JUMPI PUSH2 0x1AC8 PUSH2 0x1A89 JUMP JUMPDEST PUSH1 0x40 MSTORE SWAP2 SWAP1 POP JUMP JUMPDEST PUSH1 0x0 PUSH8 0xFFFFFFFFFFFFFFFF DUP3 GT ISZERO PUSH2 0x1AEA JUMPI PUSH2 0x1AEA PUSH2 0x1A89 JUMP JUMPDEST POP PUSH1 0x1F ADD PUSH1 0x1F NOT AND PUSH1 0x20 ADD SWAP1 JUMP JUMPDEST PUSH1 0x0 DUP1 PUSH1 0x0 DUP1 PUSH1 0x80 DUP6 DUP8 SUB SLT ISZERO PUSH2 0x1B0E JUMPI PUSH1 0x0 DUP1 REVERT JUMPDEST PUSH2 0x1B17 DUP6 PUSH2 0x18A0 JUMP JUMPDEST SWAP4 POP PUSH2 0x1B25 PUSH1 0x20 DUP7 ADD PUSH2 0x18A0 JUMP JUMPDEST SWAP3 POP PUSH1 0x40 DUP6 ADD CALLDATALOAD SWAP2 POP PUSH1 0x60 DUP6 ADD CALLDATALOAD PUSH8 0xFFFFFFFFFFFFFFFF DUP2 GT ISZERO PUSH2 0x1B48 JUMPI PUSH1 0x0 DUP1 REVERT JUMPDEST DUP6 ADD PUSH1 0x1F DUP2 ADD DUP8 SGT PUSH2 0x1B59 JUMPI PUSH1 0x0 DUP1 REVERT JUMPDEST DUP1 CALLDATALOAD PUSH2 0x1B6C PUSH2 0x1B67 DUP3 PUSH2 0x1AD0 JUMP JUMPDEST PUSH2 0x1A9F JUMP JUMPDEST DUP2 DUP2 MSTORE DUP9 PUSH1 0x20 DUP4 DUP6 ADD ADD GT ISZERO PUSH2 0x1B81 JUMPI PUSH1 0x0 DUP1 REVERT JUMPDEST DUP2 PUSH1 0x20 DUP5 ADD PUSH1 0x20 DUP4 ADD CALLDATACOPY PUSH1 0x0 PUSH1 0x20 DUP4 DUP4 ADD ADD MSTORE DUP1 SWAP4 POP POP POP POP SWAP3 SWAP6 SWAP2 SWAP5 POP SWAP3 POP JUMP JUMPDEST PUSH1 0x0 DUP1 PUSH1 0x40 DUP4 DUP6 SUB SLT ISZERO PUSH2 0x1BB6 JUMPI PUSH1 0x0 DUP1 REVERT JUMPDEST PUSH2 0x1BBF DUP4 PUSH2 0x18A0 JUMP JUMPDEST SWAP2 POP PUSH2 0x1A80 PUSH1 0x20 DUP5 ADD PUSH2 0x18A0 JUMP JUMPDEST PUSH1 0x1 DUP2 DUP2 SHR SWAP1 DUP3 AND DUP1 PUSH2 0x1BE1 JUMPI PUSH1 0x7F DUP3 AND SWAP2 POP JUMPDEST PUSH1 0x20 DUP3 LT DUP2 SUB PUSH2 0x1C01 JUMPI PUSH4 0x4E487B71 PUSH1 0xE0 SHL PUSH1 0x0 MSTORE PUSH1 0x22 PUSH1 0x4 MSTORE PUSH1 0x24 PUSH1 0x0 REVERT JUMPDEST POP SWAP2 SWAP1 POP JUMP JUMPDEST PUSH1 0x20 DUP1 DUP3 MSTORE PUSH1 0x2D SWAP1 DUP3 ADD MSTORE PUSH32 0x4552433732313A2063616C6C6572206973206E6F7420746F6B656E206F776E65 PUSH1 0x40 DUP3 ADD MSTORE PUSH13 0x1C881BDC88185C1C1C9BDD9959 PUSH1 0x9A SHL PUSH1 0x60 DUP3 ADD MSTORE PUSH1 0x80 ADD SWAP1 JUMP JUMPDEST PUSH4 0x4E487B71 PUSH1 0xE0 SHL PUSH1 0x0 MSTORE PUSH1 0x11 PUSH1 0x4 MSTORE PUSH1 0x24 PUSH1 0x0 REVERT JUMPDEST PUSH1 0x0 PUSH1 0x1 DUP3 ADD PUSH2 0x1C7C JUMPI PUSH2 0x1C7C PUSH2 0x1C54 JUMP JUMPDEST POP PUSH1 0x1 ADD SWAP1 JUMP JUMPDEST PUSH1 0x0 DUP2 MLOAD PUSH2 0x1C95 DUP2 DUP6 PUSH1 0x20 DUP7 ADD PUSH2 0x1824 JUMP JUMPDEST SWAP3 SWAP1 SWAP3 ADD SWAP3 SWAP2 POP POP JUMP JUMPDEST PUSH1 0x0 DUP4 MLOAD PUSH2 0x1CB1 DUP2 DUP5 PUSH1 0x20 DUP9 ADD PUSH2 0x1824 JUMP JUMPDEST DUP4 MLOAD SWAP1 DUP4 ADD SWAP1 PUSH2 0x1CC5 DUP2 DUP4 PUSH1 0x20 DUP9 ADD PUSH2 0x1824 JUMP JUMPDEST ADD SWAP5 SWAP4 POP POP POP POP JUMP JUMPDEST PUSH32 0x7B6E616D653A2022446553636920496E766573746F7220546F6B656E222C2064 DUP2 MSTORE PUSH1 0x0 PUSH1 0x20 PUSH32 0x65736372697074696F6E3A20225468697320746F6B656E206174746573746174 DUP2 DUP5 ADD MSTORE PUSH32 0x657320696E766573746D656E7420696E20612072657365617263682044414F2E PUSH1 0x40 DUP5 ADD MSTORE PUSH16 0x1116101134B73B32B9BA37B9111D1011 PUSH1 0x81 SHL PUSH1 0x60 DUP5 ADD MSTORE DUP9 MLOAD PUSH2 0x1D6B DUP2 PUSH1 0x70 DUP7 ADD DUP5 DUP14 ADD PUSH2 0x1824 JUMP JUMPDEST PUSH9 0x1116102220A79D1011 PUSH1 0xB9 SHL PUSH1 0x70 SWAP2 DUP6 ADD SWAP2 DUP3 ADD MSTORE DUP9 MLOAD PUSH2 0x1D93 DUP2 PUSH1 0x79 DUP5 ADD DUP6 DUP14 ADD PUSH2 0x1824 JUMP JUMPDEST PUSH22 0x111610333AB73234B733AFB83937B837B9B0B61D1011 PUSH1 0x51 SHL PUSH1 0x79 SWAP3 SWAP1 SWAP2 ADD SWAP2 DUP3 ADD MSTORE DUP8 MLOAD PUSH2 0x1DC9 DUP2 PUSH1 0x8F DUP5 ADD DUP6 DUP13 ADD PUSH2 0x1824 JUMP JUMPDEST PUSH2 0x1E22 PUSH2 0x1E00 PUSH2 0x1DFA PUSH1 0x8F DUP5 DUP7 ADD ADD PUSH22 0x11161034B73B32B9BA36B2B73A2FBA37B5B2B71D1011 PUSH1 0x51 SHL DUP2 MSTORE PUSH1 0x16 ADD SWAP1 JUMP JUMPDEST DUP11 PUSH2 0x1C83 JUMP JUMPDEST PUSH22 0x11161034B73B32B9BA36B2B73A2FB0B6B7BAB73A1D1 PUSH1 0x55 SHL DUP2 MSTORE PUSH1 0x16 ADD SWAP1 JUMP JUMPDEST SWAP2 POP POP DUP6 DUP2 MSTORE PUSH2 0x1E4D DUP3 DUP3 ADD PUSH19 0x161034B73B32B9BA36B2B73A2FBA34B6B29D1 PUSH1 0x6D SHL DUP2 MSTORE PUSH1 0x13 ADD SWAP1 JUMP JUMPDEST SWAP1 POP DUP5 DUP2 MSTORE PUSH2 0x1E66 DUP3 DUP3 ADD PUSH2 0x227D PUSH1 0xF0 SHL DUP2 MSTORE PUSH1 0x2 ADD SWAP1 JUMP JUMPDEST SWAP11 SWAP10 POP POP POP POP POP POP POP POP POP POP JUMP JUMPDEST PUSH1 0x0 PUSH1 0x20 DUP3 DUP5 SUB SLT ISZERO PUSH2 0x1E86 JUMPI PUSH1 0x0 DUP1 REVERT JUMPDEST DUP2 MLOAD PUSH8 0xFFFFFFFFFFFFFFFF DUP2 GT ISZERO PUSH2 0x1E9D JUMPI PUSH1 0x0 DUP1 REVERT JUMPDEST DUP3 ADD PUSH1 0x1F DUP2 ADD DUP5 SGT PUSH2 0x1EAE JUMPI PUSH1 0x0 DUP1 REVERT JUMPDEST DUP1 MLOAD PUSH2 0x1EBC PUSH2 0x1B67 DUP3 PUSH2 0x1AD0 JUMP JUMPDEST DUP2 DUP2 MSTORE DUP6 PUSH1 0x20 DUP4 DUP6 ADD ADD GT ISZERO PUSH2 0x1ED1 JUMPI PUSH1 0x0 DUP1 REVERT JUMPDEST PUSH2 0x1EE2 DUP3 PUSH1 0x20 DUP4 ADD PUSH1 0x20 DUP7 ADD PUSH2 0x1824 JUMP JUMPDEST SWAP6 SWAP5 POP POP POP POP POP JUMP JUMPDEST PUSH32 0x646174613A6170706C69636174696F6E2F6A736F6E3B6261736536342C000000 DUP2 MSTORE PUSH1 0x0 DUP3 MLOAD PUSH2 0x1F23 DUP2 PUSH1 0x1D DUP6 ADD PUSH1 0x20 DUP8 ADD PUSH2 0x1824 JUMP JUMPDEST SWAP2 SWAP1 SWAP2 ADD PUSH1 0x1D ADD SWAP3 SWAP2 POP POP JUMP JUMPDEST PUSH1 0x1F DUP3 GT ISZERO PUSH2 0x52C JUMPI PUSH1 0x0 DUP2 DUP2 MSTORE PUSH1 0x20 DUP2 KECCAK256 PUSH1 0x1F DUP6 ADD PUSH1 0x5 SHR DUP2 ADD PUSH1 0x20 DUP7 LT ISZERO PUSH2 0x1F57 JUMPI POP DUP1 JUMPDEST PUSH1 0x1F DUP6 ADD PUSH1 0x5 SHR DUP3 ADD SWAP2 POP JUMPDEST DUP2 DUP2 LT ISZERO PUSH2 0x1F76 JUMPI DUP3 DUP2 SSTORE PUSH1 0x1 ADD PUSH2 0x1F63 JUMP JUMPDEST POP POP POP POP POP POP JUMP JUMPDEST DUP2 MLOAD PUSH8 0xFFFFFFFFFFFFFFFF DUP2 GT ISZERO PUSH2 0x1F98 JUMPI PUSH2 0x1F98 PUSH2 0x1A89 JUMP JUMPDEST PUSH2 0x1FAC DUP2 PUSH2 0x1FA6 DUP5 SLOAD PUSH2 0x1BCD JUMP JUMPDEST DUP5 PUSH2 0x1F30 JUMP JUMPDEST PUSH1 0x20 DUP1 PUSH1 0x1F DUP4 GT PUSH1 0x1 DUP2 EQ PUSH2 0x1FE1 JUMPI PUSH1 0x0 DUP5 ISZERO PUSH2 0x1FC9 JUMPI POP DUP6 DUP4 ADD MLOAD JUMPDEST PUSH1 0x0 NOT PUSH1 0x3 DUP7 SWAP1 SHL SHR NOT AND PUSH1 0x1 DUP6 SWAP1 SHL OR DUP6 SSTORE PUSH2 0x1F76 JUMP JUMPDEST PUSH1 0x0 DUP6 DUP2 MSTORE PUSH1 0x20 DUP2 KECCAK256 PUSH1 0x1F NOT DUP7 AND SWAP2 JUMPDEST DUP3 DUP2 LT ISZERO PUSH2 0x2010 JUMPI DUP9 DUP7 ADD MLOAD DUP3 SSTORE SWAP5 DUP5 ADD SWAP5 PUSH1 0x1 SWAP1 SWAP2 ADD SWAP1 DUP5 ADD PUSH2 0x1FF1 JUMP JUMPDEST POP DUP6 DUP3 LT ISZERO PUSH2 0x202E JUMPI DUP8 DUP6 ADD MLOAD PUSH1 0x0 NOT PUSH1 0x3 DUP9 SWAP1 SHL PUSH1 0xF8 AND SHR NOT AND DUP2 SSTORE JUMPDEST POP POP POP POP POP PUSH1 0x1 SWAP1 DUP2 SHL ADD SWAP1 SSTORE POP JUMP JUMPDEST PUSH1 0x20 DUP1 DUP3 MSTORE PUSH1 0x32 SWAP1 DUP3 ADD MSTORE PUSH32 0x4552433732313A207472616E7366657220746F206E6F6E204552433732315265 PUSH1 0x40 DUP3 ADD MSTORE PUSH18 0x31B2B4BB32B91034B6B83632B6B2B73A32B9 PUSH1 0x71 SHL PUSH1 0x60 DUP3 ADD MSTORE PUSH1 0x80 ADD SWAP1 JUMP JUMPDEST DUP1 DUP3 MUL DUP2 ISZERO DUP3 DUP3 DIV DUP5 EQ OR PUSH2 0x358 JUMPI PUSH2 0x358 PUSH2 0x1C54 JUMP JUMPDEST DUP1 DUP3 ADD DUP1 DUP3 GT ISZERO PUSH2 0x358 JUMPI PUSH2 0x358 PUSH2 0x1C54 JUMP JUMPDEST PUSH4 0x4E487B71 PUSH1 0xE0 SHL PUSH1 0x0 MSTORE PUSH1 0x32 PUSH1 0x4 MSTORE PUSH1 0x24 PUSH1 0x0 REVERT JUMPDEST PUSH1 0x0 DUP2 PUSH2 0x20DF JUMPI PUSH2 0x20DF PUSH2 0x1C54 JUMP JUMPDEST POP PUSH1 0x0 NOT ADD SWAP1 JUMP JUMPDEST PUSH1 0x1 PUSH1 0x1 PUSH1 0xA0 SHL SUB DUP6 DUP2 AND DUP3 MSTORE DUP5 AND PUSH1 0x20 DUP3 ADD MSTORE PUSH1 0x40 DUP2 ADD DUP4 SWAP1 MSTORE PUSH1 0x80 PUSH1 0x60 DUP3 ADD DUP2 SWAP1 MSTORE PUSH1 0x0 SWAP1 PUSH2 0x211A SWAP1 DUP4 ADD DUP5 PUSH2 0x1848 JUMP JUMPDEST SWAP7 SWAP6 POP POP POP POP POP POP JUMP JUMPDEST PUSH1 0x0 PUSH1 0x20 DUP3 DUP5 SUB SLT ISZERO PUSH2 0x2136 JUMPI PUSH1 0x0 DUP1 REVERT JUMPDEST DUP2 MLOAD PUSH2 0x148D DUP2 PUSH2 0x17F1 JUMP INVALID LOG2 PUSH5 0x6970667358 0x22 SLT KECCAK256 RETURN 0xBB COINBASE SWAP3 0x5E CREATE PUSH22 0x5FAF3E31FE158C0C4165D10D114231C616B8989A7CEE 0x22 SWAP3 0xB1 PUSH5 0x736F6C6343 STOP ADDMOD SLT STOP CALLER PUSH1 0x80 PUSH1 0x40 MSTORE CALLVALUE DUP1 ISZERO PUSH3 0x11 JUMPI PUSH1 0x0 DUP1 REVERT JUMPDEST POP PUSH1 0x40 MLOAD PUSH3 0x2048 CODESIZE SUB DUP1 PUSH3 0x2048 DUP4 CODECOPY DUP2 ADD PUSH1 0x40 DUP2 SWAP1 MSTORE PUSH3 0x34 SWAP2 PUSH3 0x127 JUMP JUMPDEST DUP2 DUP2 DUP2 DUP2 PUSH1 0x0 PUSH3 0x46 DUP4 DUP3 PUSH3 0x220 JUMP JUMPDEST POP PUSH1 0x1 PUSH3 0x55 DUP3 DUP3 PUSH3 0x220 JUMP JUMPDEST POP POP POP POP POP POP POP PUSH3 0x2EC JUMP JUMPDEST PUSH4 0x4E487B71 PUSH1 0xE0 SHL PUSH1 0x0 MSTORE PUSH1 0x41 PUSH1 0x4 MSTORE PUSH1 0x24 PUSH1 0x0 REVERT JUMPDEST PUSH1 0x0 DUP3 PUSH1 0x1F DUP4 ADD SLT PUSH3 0x8A JUMPI PUSH1 0x0 DUP1 REVERT JUMPDEST DUP2 MLOAD PUSH1 0x1 PUSH1 0x1 PUSH1 0x40 SHL SUB DUP1 DUP3 GT ISZERO PUSH3 0xA7 JUMPI PUSH3 0xA7 PUSH3 0x62 JUMP JUMPDEST PUSH1 0x40 MLOAD PUSH1 0x1F DUP4 ADD PUSH1 0x1F NOT SWAP1 DUP2 AND PUSH1 0x3F ADD AND DUP2 ADD SWAP1 DUP3 DUP3 GT DUP2 DUP4 LT OR ISZERO PUSH3 0xD2 JUMPI PUSH3 0xD2 PUSH3 0x62 JUMP JUMPDEST DUP2 PUSH1 0x40 MSTORE DUP4 DUP2 MSTORE PUSH1 0x20 SWAP3 POP DUP7 DUP4 DUP6 DUP9 ADD ADD GT ISZERO PUSH3 0xEF JUMPI PUSH1 0x0 DUP1 REVERT JUMPDEST PUSH1 0x0 SWAP2 POP JUMPDEST DUP4 DUP3 LT ISZERO PUSH3 0x113 JUMPI DUP6 DUP3 ADD DUP4 ADD MLOAD DUP2 DUP4 ADD DUP5 ADD MSTORE SWAP1 DUP3 ADD SWAP1 PUSH3 0xF4 JUMP JUMPDEST PUSH1 0x0 SWAP4 DUP2 ADD SWAP1 SWAP3 ADD SWAP3 SWAP1 SWAP3 MSTORE SWAP5 SWAP4 POP POP POP POP JUMP JUMPDEST PUSH1 0x0 DUP1 PUSH1 0x40 DUP4 DUP6 SUB SLT ISZERO PUSH3 0x13B JUMPI PUSH1 0x0 DUP1 REVERT JUMPDEST DUP3 MLOAD PUSH1 0x1 PUSH1 0x1 PUSH1 0x40 SHL SUB DUP1 DUP3 GT ISZERO PUSH3 0x153 JUMPI PUSH1 0x0 DUP1 REVERT JUMPDEST PUSH3 0x161 DUP7 DUP4 DUP8 ADD PUSH3 0x78 JUMP JUMPDEST SWAP4 POP PUSH1 0x20 DUP6 ADD MLOAD SWAP2 POP DUP1 DUP3 GT ISZERO PUSH3 0x178 JUMPI PUSH1 0x0 DUP1 REVERT JUMPDEST POP PUSH3 0x187 DUP6 DUP3 DUP7 ADD PUSH3 0x78 JUMP JUMPDEST SWAP2 POP POP SWAP3 POP SWAP3 SWAP1 POP JUMP JUMPDEST PUSH1 0x1 DUP2 DUP2 SHR SWAP1 DUP3 AND DUP1 PUSH3 0x1A6 JUMPI PUSH1 0x7F DUP3 AND SWAP2 POP JUMPDEST PUSH1 0x20 DUP3 LT DUP2 SUB PUSH3 0x1C7 JUMPI PUSH4 0x4E487B71 PUSH1 0xE0 SHL PUSH1 0x0 MSTORE PUSH1 0x22 PUSH1 0x4 MSTORE PUSH1 0x24 PUSH1 0x0 REVERT JUMPDEST POP SWAP2 SWAP1 POP JUMP JUMPDEST PUSH1 0x1F DUP3 GT ISZERO PUSH3 0x21B JUMPI PUSH1 0x0 DUP2 DUP2 MSTORE PUSH1 0x20 DUP2 KECCAK256 PUSH1 0x1F DUP6 ADD PUSH1 0x5 SHR DUP2 ADD PUSH1 0x20 DUP7 LT ISZERO PUSH3 0x1F6 JUMPI POP DUP1 JUMPDEST PUSH1 0x1F DUP6 ADD PUSH1 0x5 SHR DUP3 ADD SWAP2 POP JUMPDEST DUP2 DUP2 LT ISZERO PUSH3 0x217 JUMPI DUP3 DUP2 SSTORE PUSH1 0x1 ADD PUSH3 0x202 JUMP JUMPDEST POP POP POP JUMPDEST POP POP POP JUMP JUMPDEST DUP2 MLOAD PUSH1 0x1 PUSH1 0x1 PUSH1 0x40 SHL SUB DUP2 GT ISZERO PUSH3 0x23C JUMPI PUSH3 0x23C PUSH3 0x62 JUMP JUMPDEST PUSH3 0x254 DUP2 PUSH3 0x24D DUP5 SLOAD PUSH3 0x191 JUMP JUMPDEST DUP5 PUSH3 0x1CD JUMP JUMPDEST PUSH1 0x20 DUP1 PUSH1 0x1F DUP4 GT PUSH1 0x1 DUP2 EQ PUSH3 0x28C JUMPI PUSH1 0x0 DUP5 ISZERO PUSH3 0x273 JUMPI POP DUP6 DUP4 ADD MLOAD JUMPDEST PUSH1 0x0 NOT PUSH1 0x3 DUP7 SWAP1 SHL SHR NOT AND PUSH1 0x1 DUP6 SWAP1 SHL OR DUP6 SSTORE PUSH3 0x217 JUMP JUMPDEST PUSH1 0x0 DUP6 DUP2 MSTORE PUSH1 0x20 DUP2 KECCAK256 PUSH1 0x1F NOT DUP7 AND SWAP2 JUMPDEST DUP3 DUP2 LT ISZERO PUSH3 0x2BD JUMPI DUP9 DUP7 ADD MLOAD DUP3 SSTORE SWAP5 DUP5 ADD SWAP5 PUSH1 0x1 SWAP1 SWAP2 ADD SWAP1 DUP5 ADD PUSH3 0x29C JUMP JUMPDEST POP DUP6 DUP3 LT ISZERO PUSH3 0x2DC JUMPI DUP8 DUP6 ADD MLOAD PUSH1 0x0 NOT PUSH1 0x3 DUP9 SWAP1 SHL PUSH1 0xF8 AND SHR NOT AND DUP2 SSTORE JUMPDEST POP POP POP POP POP PUSH1 0x1 SWAP1 DUP2 SHL ADD SWAP1 SSTORE POP JUMP JUMPDEST PUSH2 0x1D4C DUP1 PUSH3 0x2FC PUSH1 0x0 CODECOPY PUSH1 0x0 RETURN INVALID PUSH1 0x80 PUSH1 0x40 MSTORE CALLVALUE DUP1 ISZERO PUSH2 0x10 JUMPI PUSH1 0x0 DUP1 REVERT JUMPDEST POP PUSH1 0x4 CALLDATASIZE LT PUSH2 0x121 JUMPI PUSH1 0x0 CALLDATALOAD PUSH1 0xE0 SHR DUP1 PUSH4 0x6637B882 GT PUSH2 0xAD JUMPI DUP1 PUSH4 0xA22CB465 GT PUSH2 0x71 JUMPI DUP1 PUSH4 0xA22CB465 EQ PUSH2 0x262 JUMPI DUP1 PUSH4 0xB88D4FDE EQ PUSH2 0x275 JUMPI DUP1 PUSH4 0xC87B56DD EQ PUSH2 0x288 JUMPI DUP1 PUSH4 0xD0DEF521 EQ PUSH2 0x29B JUMPI DUP1 PUSH4 0xE985E9C5 EQ PUSH2 0x2AE JUMPI PUSH1 0x0 DUP1 REVERT JUMPDEST DUP1 PUSH4 0x6637B882 EQ PUSH2 0x20F JUMPI DUP1 PUSH4 0x6A627842 EQ PUSH2 0x222 JUMPI DUP1 PUSH4 0x70A08231 EQ PUSH2 0x230 JUMPI DUP1 PUSH4 0x95D89B41 EQ PUSH2 0x251 JUMPI DUP1 PUSH4 0x9F181B5E EQ PUSH2 0x259 JUMPI PUSH1 0x0 DUP1 REVERT JUMPDEST DUP1 PUSH4 0x23B872DD GT PUSH2 0xF4 JUMPI DUP1 PUSH4 0x23B872DD EQ PUSH2 0x1A3 JUMPI DUP1 PUSH4 0x4162169F EQ PUSH2 0x1B6 JUMPI DUP1 PUSH4 0x42842E0E EQ PUSH2 0x1C9 JUMPI DUP1 PUSH4 0x60316801 EQ PUSH2 0x1DC JUMPI DUP1 PUSH4 0x6352211E EQ PUSH2 0x1FC JUMPI PUSH1 0x0 DUP1 REVERT JUMPDEST DUP1 PUSH4 0x1FFC9A7 EQ PUSH2 0x126 JUMPI DUP1 PUSH4 0x6FDDE03 EQ PUSH2 0x14E JUMPI DUP1 PUSH4 0x81812FC EQ PUSH2 0x163 JUMPI DUP1 PUSH4 0x95EA7B3 EQ PUSH2 0x18E JUMPI JUMPDEST PUSH1 0x0 DUP1 REVERT JUMPDEST PUSH2 0x139 PUSH2 0x134 CALLDATASIZE PUSH1 0x4 PUSH2 0x14EA JUMP JUMPDEST PUSH2 0x2C1 JUMP JUMPDEST PUSH1 0x40 MLOAD SWAP1 ISZERO ISZERO DUP2 MSTORE PUSH1 0x20 ADD JUMPDEST PUSH1 0x40 MLOAD DUP1 SWAP2 SUB SWAP1 RETURN JUMPDEST PUSH2 0x156 PUSH2 0x307 JUMP JUMPDEST PUSH1 0x40 MLOAD PUSH2 0x145 SWAP2 SWAP1 PUSH2 0x1557 JUMP JUMPDEST PUSH2 0x176 PUSH2 0x171 CALLDATASIZE PUSH1 0x4 PUSH2 0x156A JUMP JUMPDEST PUSH2 0x399 JUMP JUMPDEST PUSH1 0x40 MLOAD PUSH1 0x1 PUSH1 0x1 PUSH1 0xA0 SHL SUB SWAP1 SWAP2 AND DUP2 MSTORE PUSH1 0x20 ADD PUSH2 0x145 JUMP JUMPDEST PUSH2 0x1A1 PUSH2 0x19C CALLDATASIZE PUSH1 0x4 PUSH2 0x159F JUMP JUMPDEST PUSH2 0x3C0 JUMP JUMPDEST STOP JUMPDEST PUSH2 0x1A1 PUSH2 0x1B1 CALLDATASIZE PUSH1 0x4 PUSH2 0x15C9 JUMP JUMPDEST PUSH2 0x4DA JUMP JUMPDEST PUSH1 0x7 SLOAD PUSH2 0x176 SWAP1 PUSH1 0x1 PUSH1 0x1 PUSH1 0xA0 SHL SUB AND DUP2 JUMP JUMPDEST PUSH2 0x1A1 PUSH2 0x1D7 CALLDATASIZE PUSH1 0x4 PUSH2 0x15C9 JUMP JUMPDEST PUSH2 0x508 JUMP JUMPDEST PUSH2 0x1EF PUSH2 0x1EA CALLDATASIZE PUSH1 0x4 PUSH2 0x156A JUMP JUMPDEST PUSH2 0x523 JUMP JUMPDEST PUSH1 0x40 MLOAD PUSH2 0x145 SWAP2 SWAP1 PUSH2 0x1605 JUMP JUMPDEST PUSH2 0x176 PUSH2 0x20A CALLDATASIZE PUSH1 0x4 PUSH2 0x156A JUMP JUMPDEST PUSH2 0x610 JUMP JUMPDEST PUSH2 0x1A1 PUSH2 0x21D CALLDATASIZE PUSH1 0x4 PUSH2 0x1640 JUMP JUMPDEST PUSH2 0x670 JUMP JUMPDEST PUSH2 0x1A1 PUSH2 0x121 CALLDATASIZE PUSH1 0x4 PUSH2 0x1640 JUMP JUMPDEST PUSH2 0x243 PUSH2 0x23E CALLDATASIZE PUSH1 0x4 PUSH2 0x1640 JUMP JUMPDEST PUSH2 0x6DD JUMP JUMPDEST PUSH1 0x40 MLOAD SWAP1 DUP2 MSTORE PUSH1 0x20 ADD PUSH2 0x145 JUMP JUMPDEST PUSH2 0x156 PUSH2 0x763 JUMP JUMPDEST PUSH2 0x243 PUSH1 0x6 SLOAD DUP2 JUMP JUMPDEST PUSH2 0x1A1 PUSH2 0x270 CALLDATASIZE PUSH1 0x4 PUSH2 0x165B JUMP JUMPDEST PUSH2 0x772 JUMP JUMPDEST PUSH2 0x1A1 PUSH2 0x283 CALLDATASIZE PUSH1 0x4 PUSH2 0x1706 JUMP JUMPDEST PUSH2 0x781 JUMP JUMPDEST PUSH2 0x156 PUSH2 0x296 CALLDATASIZE PUSH1 0x4 PUSH2 0x156A JUMP JUMPDEST PUSH2 0x7B9 JUMP JUMPDEST PUSH2 0x243 PUSH2 0x2A9 CALLDATASIZE PUSH1 0x4 PUSH2 0x17B1 JUMP JUMPDEST PUSH2 0x915 JUMP JUMPDEST PUSH2 0x139 PUSH2 0x2BC CALLDATASIZE PUSH1 0x4 PUSH2 0x1834 JUMP JUMPDEST PUSH2 0xA72 JUMP JUMPDEST PUSH1 0x0 PUSH1 0x1 PUSH1 0x1 PUSH1 0xE0 SHL SUB NOT DUP3 AND PUSH4 0x80AC58CD PUSH1 0xE0 SHL EQ DUP1 PUSH2 0x2F2 JUMPI POP PUSH1 0x1 PUSH1 0x1 PUSH1 0xE0 SHL SUB NOT DUP3 AND PUSH4 0x5B5E139F PUSH1 0xE0 SHL EQ JUMPDEST DUP1 PUSH2 0x301 JUMPI POP PUSH2 0x301 DUP3 PUSH2 0xAA0 JUMP JUMPDEST SWAP3 SWAP2 POP POP JUMP JUMPDEST PUSH1 0x60 PUSH1 0x0 DUP1 SLOAD PUSH2 0x316 SWAP1 PUSH2 0x1867 JUMP JUMPDEST DUP1 PUSH1 0x1F ADD PUSH1 0x20 DUP1 SWAP2 DIV MUL PUSH1 0x20 ADD PUSH1 0x40 MLOAD SWAP1 DUP2 ADD PUSH1 0x40 MSTORE DUP1 SWAP3 SWAP2 SWAP1 DUP2 DUP2 MSTORE PUSH1 0x20 ADD DUP3 DUP1 SLOAD PUSH2 0x342 SWAP1 PUSH2 0x1867 JUMP JUMPDEST DUP1 ISZERO PUSH2 0x38F JUMPI DUP1 PUSH1 0x1F LT PUSH2 0x364 JUMPI PUSH2 0x100 DUP1 DUP4 SLOAD DIV MUL DUP4 MSTORE SWAP2 PUSH1 0x20 ADD SWAP2 PUSH2 0x38F JUMP JUMPDEST DUP3 ADD SWAP2 SWAP1 PUSH1 0x0 MSTORE PUSH1 0x20 PUSH1 0x0 KECCAK256 SWAP1 JUMPDEST DUP2 SLOAD DUP2 MSTORE SWAP1 PUSH1 0x1 ADD SWAP1 PUSH1 0x20 ADD DUP1 DUP4 GT PUSH2 0x372 JUMPI DUP3 SWAP1 SUB PUSH1 0x1F AND DUP3 ADD SWAP2 JUMPDEST POP POP POP POP POP SWAP1 POP SWAP1 JUMP JUMPDEST PUSH1 0x0 PUSH2 0x3A4 DUP3 PUSH2 0xAF0 JUMP JUMPDEST POP PUSH1 0x0 SWAP1 DUP2 MSTORE PUSH1 0x4 PUSH1 0x20 MSTORE PUSH1 0x40 SWAP1 KECCAK256 SLOAD PUSH1 0x1 PUSH1 0x1 PUSH1 0xA0 SHL SUB AND SWAP1 JUMP JUMPDEST PUSH1 0x0 PUSH2 0x3CB DUP3 PUSH2 0x610 JUMP JUMPDEST SWAP1 POP DUP1 PUSH1 0x1 PUSH1 0x1 PUSH1 0xA0 SHL SUB AND DUP4 PUSH1 0x1 PUSH1 0x1 PUSH1 0xA0 SHL SUB AND SUB PUSH2 0x43D JUMPI PUSH1 0x40 MLOAD PUSH3 0x461BCD PUSH1 0xE5 SHL DUP2 MSTORE PUSH1 0x20 PUSH1 0x4 DUP3 ADD MSTORE PUSH1 0x21 PUSH1 0x24 DUP3 ADD MSTORE PUSH32 0x4552433732313A20617070726F76616C20746F2063757272656E74206F776E65 PUSH1 0x44 DUP3 ADD MSTORE PUSH1 0x39 PUSH1 0xF9 SHL PUSH1 0x64 DUP3 ADD MSTORE PUSH1 0x84 ADD JUMPDEST PUSH1 0x40 MLOAD DUP1 SWAP2 SUB SWAP1 REVERT JUMPDEST CALLER PUSH1 0x1 PUSH1 0x1 PUSH1 0xA0 SHL SUB DUP3 AND EQ DUP1 PUSH2 0x459 JUMPI POP PUSH2 0x459 DUP2 CALLER PUSH2 0xA72 JUMP JUMPDEST PUSH2 0x4CB JUMPI PUSH1 0x40 MLOAD PUSH3 0x461BCD PUSH1 0xE5 SHL DUP2 MSTORE PUSH1 0x20 PUSH1 0x4 DUP3 ADD MSTORE PUSH1 0x3D PUSH1 0x24 DUP3 ADD MSTORE PUSH32 0x4552433732313A20617070726F76652063616C6C6572206973206E6F7420746F PUSH1 0x44 DUP3 ADD MSTORE PUSH32 0x6B656E206F776E6572206F7220617070726F76656420666F7220616C6C000000 PUSH1 0x64 DUP3 ADD MSTORE PUSH1 0x84 ADD PUSH2 0x434 JUMP JUMPDEST PUSH2 0x4D5 DUP4 DUP4 PUSH2 0xB43 JUMP JUMPDEST POP POP POP JUMP JUMPDEST PUSH2 0x4E4 CALLER DUP3 PUSH2 0xBB1 JUMP JUMPDEST PUSH2 0x500 JUMPI PUSH1 0x40 MLOAD PUSH3 0x461BCD PUSH1 0xE5 SHL DUP2 MSTORE PUSH1 0x4 ADD PUSH2 0x434 SWAP1 PUSH2 0x18A1 JUMP JUMPDEST PUSH2 0x4D5 PUSH1 0x0 DUP1 REVERT JUMPDEST PUSH2 0x4D5 DUP4 DUP4 DUP4 PUSH1 0x40 MLOAD DUP1 PUSH1 0x20 ADD PUSH1 0x40 MSTORE DUP1 PUSH1 0x0 DUP2 MSTORE POP PUSH2 0x781 JUMP JUMPDEST PUSH1 0x40 DUP1 MLOAD PUSH1 0x60 DUP1 DUP3 ADD DUP4 MSTORE PUSH1 0x0 DUP1 DUP4 MSTORE PUSH1 0x20 DUP1 DUP5 ADD DUP3 SWAP1 MSTORE DUP4 DUP6 ADD DUP4 SWAP1 MSTORE DUP6 DUP3 MSTORE PUSH1 0x9 DUP2 MSTORE SWAP1 DUP5 SWAP1 KECCAK256 DUP5 MLOAD SWAP3 DUP4 ADD DUP6 MSTORE DUP1 SLOAD PUSH1 0x1 PUSH1 0x1 PUSH1 0xA0 SHL SUB SWAP1 DUP2 AND DUP5 MSTORE PUSH1 0x1 DUP3 ADD SLOAD AND SWAP2 DUP4 ADD SWAP2 SWAP1 SWAP2 MSTORE PUSH1 0x2 DUP2 ADD DUP1 SLOAD SWAP4 SWAP5 SWAP3 SWAP4 SWAP2 SWAP3 DUP5 ADD SWAP2 PUSH2 0x587 SWAP1 PUSH2 0x1867 JUMP JUMPDEST DUP1 PUSH1 0x1F ADD PUSH1 0x20 DUP1 SWAP2 DIV MUL PUSH1 0x20 ADD PUSH1 0x40 MLOAD SWAP1 DUP2 ADD PUSH1 0x40 MSTORE DUP1 SWAP3 SWAP2 SWAP1 DUP2 DUP2 MSTORE PUSH1 0x20 ADD DUP3 DUP1 SLOAD PUSH2 0x5B3 SWAP1 PUSH2 0x1867 JUMP JUMPDEST DUP1 ISZERO PUSH2 0x600 JUMPI DUP1 PUSH1 0x1F LT PUSH2 0x5D5 JUMPI PUSH2 0x100 DUP1 DUP4 SLOAD DIV MUL DUP4 MSTORE SWAP2 PUSH1 0x20 ADD SWAP2 PUSH2 0x600 JUMP JUMPDEST DUP3 ADD SWAP2 SWAP1 PUSH1 0x0 MSTORE PUSH1 0x20 PUSH1 0x0 KECCAK256 SWAP1 JUMPDEST DUP2 SLOAD DUP2 MSTORE SWAP1 PUSH1 0x1 ADD SWAP1 PUSH1 0x20 ADD DUP1 DUP4 GT PUSH2 0x5E3 JUMPI DUP3 SWAP1 SUB PUSH1 0x1F AND DUP3 ADD SWAP2 JUMPDEST POP POP POP POP POP DUP2 MSTORE POP POP SWAP1 POP SWAP2 SWAP1 POP JUMP JUMPDEST PUSH1 0x0 DUP2 DUP2 MSTORE PUSH1 0x2 PUSH1 0x20 MSTORE PUSH1 0x40 DUP2 KECCAK256 SLOAD PUSH1 0x1 PUSH1 0x1 PUSH1 0xA0 SHL SUB AND DUP1 PUSH2 0x301 JUMPI PUSH1 0x40 MLOAD PUSH3 0x461BCD PUSH1 0xE5 SHL DUP2 MSTORE PUSH1 0x20 PUSH1 0x4 DUP3 ADD MSTORE PUSH1 0x18 PUSH1 0x24 DUP3 ADD MSTORE PUSH24 0x115490CDCC8C4E881A5B9D985B1A59081D1BDAD95B881251 PUSH1 0x42 SHL PUSH1 0x44 DUP3 ADD MSTORE PUSH1 0x64 ADD PUSH2 0x434 JUMP JUMPDEST PUSH1 0x7 SLOAD PUSH1 0x1 PUSH1 0x1 PUSH1 0xA0 SHL SUB AND ISZERO PUSH2 0x6BB JUMPI PUSH1 0x40 MLOAD PUSH3 0x461BCD PUSH1 0xE5 SHL DUP2 MSTORE PUSH1 0x20 PUSH1 0x4 DUP3 ADD MSTORE PUSH1 0xF PUSH1 0x24 DUP3 ADD MSTORE PUSH15 0x111053C8185B1C9958591E481CD95D PUSH1 0x8A SHL PUSH1 0x44 DUP3 ADD MSTORE PUSH1 0x64 ADD PUSH2 0x434 JUMP JUMPDEST PUSH1 0x7 DUP1 SLOAD PUSH1 0x1 PUSH1 0x1 PUSH1 0xA0 SHL SUB NOT AND PUSH1 0x1 PUSH1 0x1 PUSH1 0xA0 SHL SUB SWAP3 SWAP1 SWAP3 AND SWAP2 SWAP1 SWAP2 OR SWAP1 SSTORE JUMP JUMPDEST PUSH1 0x0 PUSH1 0x1 PUSH1 0x1 PUSH1 0xA0 SHL SUB DUP3 AND PUSH2 0x747 JUMPI PUSH1 0x40 MLOAD PUSH3 0x461BCD PUSH1 0xE5 SHL DUP2 MSTORE PUSH1 0x20 PUSH1 0x4 DUP3 ADD MSTORE PUSH1 0x29 PUSH1 0x24 DUP3 ADD MSTORE PUSH32 0x4552433732313A2061646472657373207A65726F206973206E6F742061207661 PUSH1 0x44 DUP3 ADD MSTORE PUSH9 0x3634B21037BBB732B9 PUSH1 0xB9 SHL PUSH1 0x64 DUP3 ADD MSTORE PUSH1 0x84 ADD PUSH2 0x434 JUMP JUMPDEST POP PUSH1 0x1 PUSH1 0x1 PUSH1 0xA0 SHL SUB AND PUSH1 0x0 SWAP1 DUP2 MSTORE PUSH1 0x3 PUSH1 0x20 MSTORE PUSH1 0x40 SWAP1 KECCAK256 SLOAD SWAP1 JUMP JUMPDEST PUSH1 0x60 PUSH1 0x1 DUP1 SLOAD PUSH2 0x316 SWAP1 PUSH2 0x1867 JUMP JUMPDEST PUSH2 0x77D CALLER DUP4 DUP4 PUSH2 0xC0F JUMP JUMPDEST POP POP JUMP JUMPDEST PUSH2 0x78B CALLER DUP4 PUSH2 0xBB1 JUMP JUMPDEST PUSH2 0x7A7 JUMPI PUSH1 0x40 MLOAD PUSH3 0x461BCD PUSH1 0xE5 SHL DUP2 MSTORE PUSH1 0x4 ADD PUSH2 0x434 SWAP1 PUSH2 0x18A1 JUMP JUMPDEST PUSH2 0x7B3 DUP5 DUP5 DUP5 DUP5 PUSH2 0xCDD JUMP JUMPDEST POP POP POP POP JUMP JUMPDEST PUSH1 0x60 PUSH2 0x7C4 DUP3 PUSH2 0xD0D JUMP JUMPDEST PUSH2 0x810 JUMPI PUSH1 0x40 MLOAD PUSH3 0x461BCD PUSH1 0xE5 SHL DUP2 MSTORE PUSH1 0x20 PUSH1 0x4 DUP3 ADD MSTORE PUSH1 0x1D PUSH1 0x24 DUP3 ADD MSTORE PUSH32 0x546F6B656E20686173206E6F74206265656E206D696E74656420796574000000 PUSH1 0x44 DUP3 ADD MSTORE PUSH1 0x64 ADD PUSH2 0x434 JUMP JUMPDEST PUSH1 0x0 DUP3 DUP2 MSTORE PUSH1 0x8 PUSH1 0x20 MSTORE PUSH1 0x40 DUP2 KECCAK256 DUP1 SLOAD PUSH2 0x829 SWAP1 PUSH2 0x1867 JUMP JUMPDEST DUP1 PUSH1 0x1F ADD PUSH1 0x20 DUP1 SWAP2 DIV MUL PUSH1 0x20 ADD PUSH1 0x40 MLOAD SWAP1 DUP2 ADD PUSH1 0x40 MSTORE DUP1 SWAP3 SWAP2 SWAP1 DUP2 DUP2 MSTORE PUSH1 0x20 ADD DUP3 DUP1 SLOAD PUSH2 0x855 SWAP1 PUSH2 0x1867 JUMP JUMPDEST DUP1 ISZERO PUSH2 0x8A2 JUMPI DUP1 PUSH1 0x1F LT PUSH2 0x877 JUMPI PUSH2 0x100 DUP1 DUP4 SLOAD DIV MUL DUP4 MSTORE SWAP2 PUSH1 0x20 ADD SWAP2 PUSH2 0x8A2 JUMP JUMPDEST DUP3 ADD SWAP2 SWAP1 PUSH1 0x0 MSTORE PUSH1 0x20 PUSH1 0x0 KECCAK256 SWAP1 JUMPDEST DUP2 SLOAD DUP2 MSTORE SWAP1 PUSH1 0x1 ADD SWAP1 PUSH1 0x20 ADD DUP1 DUP4 GT PUSH2 0x885 JUMPI DUP3 SWAP1 SUB PUSH1 0x1F AND DUP3 ADD SWAP2 JUMPDEST POP POP POP POP POP SWAP1 POP PUSH1 0x0 PUSH2 0x8C0 PUSH1 0x40 DUP1 MLOAD PUSH1 0x20 DUP2 ADD SWAP1 SWAP2 MSTORE PUSH1 0x0 DUP2 MSTORE SWAP1 JUMP JUMPDEST SWAP1 POP DUP1 MLOAD PUSH1 0x0 SUB PUSH2 0x8D2 JUMPI POP SWAP3 SWAP2 POP POP JUMP JUMPDEST DUP2 MLOAD ISZERO PUSH2 0x904 JUMPI DUP1 DUP3 PUSH1 0x40 MLOAD PUSH1 0x20 ADD PUSH2 0x8EC SWAP3 SWAP2 SWAP1 PUSH2 0x18EE JUMP JUMPDEST PUSH1 0x40 MLOAD PUSH1 0x20 DUP2 DUP4 SUB SUB DUP2 MSTORE SWAP1 PUSH1 0x40 MSTORE SWAP3 POP POP POP SWAP2 SWAP1 POP JUMP JUMPDEST PUSH2 0x90D DUP5 PUSH2 0xD2A JUMP JUMPDEST SWAP5 SWAP4 POP POP POP POP JUMP JUMPDEST PUSH1 0x7 SLOAD PUSH1 0x0 SWAP1 PUSH1 0x1 PUSH1 0x1 PUSH1 0xA0 SHL SUB AND CALLER EQ PUSH2 0x966 JUMPI PUSH1 0x40 MLOAD PUSH3 0x461BCD PUSH1 0xE5 SHL DUP2 MSTORE PUSH1 0x20 PUSH1 0x4 DUP3 ADD MSTORE PUSH1 0x11 PUSH1 0x24 DUP3 ADD MSTORE PUSH17 0x13DB9B1E48111053C818D85B8818D85B1B PUSH1 0x7A SHL PUSH1 0x44 DUP3 ADD MSTORE PUSH1 0x64 ADD PUSH2 0x434 JUMP JUMPDEST PUSH1 0x6 DUP1 SLOAD SWAP1 PUSH1 0x0 PUSH2 0x976 DUP4 PUSH2 0x1933 JUMP JUMPDEST SWAP2 SWAP1 POP SSTORE POP PUSH1 0x0 PUSH2 0x988 DUP6 DUP6 DUP6 PUSH2 0xD8A JUMP JUMPDEST PUSH1 0x40 DUP1 MLOAD PUSH1 0x60 DUP2 ADD DUP3 MSTORE PUSH1 0x7 SLOAD PUSH1 0x1 PUSH1 0x1 PUSH1 0xA0 SHL SUB SWAP1 DUP2 AND DUP3 MSTORE DUP9 AND PUSH1 0x20 DUP1 DUP4 ADD SWAP2 SWAP1 SWAP2 MSTORE DUP3 MLOAD PUSH1 0x1F DUP9 ADD DUP3 SWAP1 DIV DUP3 MUL DUP2 ADD DUP3 ADD DUP5 MSTORE DUP8 DUP2 MSTORE SWAP4 SWAP5 POP PUSH1 0x0 SWAP4 SWAP2 SWAP3 DUP4 ADD SWAP2 SWAP1 DUP9 SWAP1 DUP9 SWAP1 DUP2 SWAP1 DUP5 ADD DUP4 DUP3 DUP1 DUP3 DUP5 CALLDATACOPY PUSH1 0x0 SWAP3 ADD SWAP2 SWAP1 SWAP2 MSTORE POP POP POP SWAP2 MSTORE POP PUSH1 0x6 SLOAD SWAP1 SWAP2 POP PUSH2 0x9FA SWAP1 DUP8 SWAP1 PUSH2 0xE7E JUMP JUMPDEST PUSH2 0xA06 PUSH1 0x6 SLOAD DUP4 PUSH2 0xFEB JUMP JUMPDEST PUSH1 0x6 SLOAD PUSH1 0x0 SWAP1 DUP2 MSTORE PUSH1 0x9 PUSH1 0x20 SWAP1 DUP2 MSTORE PUSH1 0x40 SWAP2 DUP3 SWAP1 KECCAK256 DUP4 MLOAD DUP2 SLOAD PUSH1 0x1 PUSH1 0x1 PUSH1 0xA0 SHL SUB NOT SWAP1 DUP2 AND PUSH1 0x1 PUSH1 0x1 PUSH1 0xA0 SHL SUB SWAP3 DUP4 AND OR DUP4 SSTORE SWAP3 DUP6 ADD MLOAD PUSH1 0x1 DUP4 ADD DUP1 SLOAD SWAP1 SWAP5 AND SWAP2 AND OR SWAP1 SWAP2 SSTORE SWAP1 DUP3 ADD MLOAD DUP3 SWAP2 SWAP1 PUSH1 0x2 DUP3 ADD SWAP1 PUSH2 0xA62 SWAP1 DUP3 PUSH2 0x199A JUMP JUMPDEST POP POP PUSH1 0x6 SLOAD SWAP8 SWAP7 POP POP POP POP POP POP POP JUMP JUMPDEST PUSH1 0x1 PUSH1 0x1 PUSH1 0xA0 SHL SUB SWAP2 DUP3 AND PUSH1 0x0 SWAP1 DUP2 MSTORE PUSH1 0x5 PUSH1 0x20 SWAP1 DUP2 MSTORE PUSH1 0x40 DUP1 DUP4 KECCAK256 SWAP4 SWAP1 SWAP5 AND DUP3 MSTORE SWAP2 SWAP1 SWAP2 MSTORE KECCAK256 SLOAD PUSH1 0xFF AND SWAP1 JUMP JUMPDEST PUSH1 0x0 PUSH1 0x1 PUSH1 0x1 PUSH1 0xE0 SHL SUB NOT DUP3 AND PUSH4 0x80AC58CD PUSH1 0xE0 SHL EQ DUP1 PUSH2 0xAD1 JUMPI POP PUSH1 0x1 PUSH1 0x1 PUSH1 0xE0 SHL SUB NOT DUP3 AND PUSH4 0x5B5E139F PUSH1 0xE0 SHL EQ JUMPDEST DUP1 PUSH2 0x301 JUMPI POP PUSH4 0x1FFC9A7 PUSH1 0xE0 SHL PUSH1 0x1 PUSH1 0x1 PUSH1 0xE0 SHL SUB NOT DUP4 AND EQ PUSH2 0x301 JUMP JUMPDEST PUSH2 0xAF9 DUP2 PUSH2 0xD0D JUMP JUMPDEST PUSH2 0xB40 JUMPI PUSH1 0x40 MLOAD PUSH3 0x461BCD PUSH1 0xE5 SHL DUP2 MSTORE PUSH1 0x20 PUSH1 0x4 DUP3 ADD MSTORE PUSH1 0x18 PUSH1 0x24 DUP3 ADD MSTORE PUSH24 0x115490CDCC8C4E881A5B9D985B1A59081D1BDAD95B881251 PUSH1 0x42 SHL PUSH1 0x44 DUP3 ADD MSTORE PUSH1 0x64 ADD PUSH2 0x434 JUMP JUMPDEST POP JUMP JUMPDEST PUSH1 0x0 DUP2 DUP2 MSTORE PUSH1 0x4 PUSH1 0x20 MSTORE PUSH1 0x40 SWAP1 KECCAK256 DUP1 SLOAD PUSH1 0x1 PUSH1 0x1 PUSH1 0xA0 SHL SUB NOT AND PUSH1 0x1 PUSH1 0x1 PUSH1 0xA0 SHL SUB DUP5 AND SWAP1 DUP2 OR SWAP1 SWAP2 SSTORE DUP2 SWAP1 PUSH2 0xB78 DUP3 PUSH2 0x610 JUMP JUMPDEST PUSH1 0x1 PUSH1 0x1 PUSH1 0xA0 SHL SUB AND PUSH32 0x8C5BE1E5EBEC7D5BD14F71427D1E84F3DD0314C0F7B2291E5B200AC8C7C3B925 PUSH1 0x40 MLOAD PUSH1 0x40 MLOAD DUP1 SWAP2 SUB SWAP1 LOG4 POP POP JUMP JUMPDEST PUSH1 0x0 DUP1 PUSH2 0xBBD DUP4 PUSH2 0x610 JUMP JUMPDEST SWAP1 POP DUP1 PUSH1 0x1 PUSH1 0x1 PUSH1 0xA0 SHL SUB AND DUP5 PUSH1 0x1 PUSH1 0x1 PUSH1 0xA0 SHL SUB AND EQ DUP1 PUSH2 0xBE4 JUMPI POP PUSH2 0xBE4 DUP2 DUP6 PUSH2 0xA72 JUMP JUMPDEST DUP1 PUSH2 0x90D JUMPI POP DUP4 PUSH1 0x1 PUSH1 0x1 PUSH1 0xA0 SHL SUB AND PUSH2 0xBFD DUP5 PUSH2 0x399 JUMP JUMPDEST PUSH1 0x1 PUSH1 0x1 PUSH1 0xA0 SHL SUB AND EQ SWAP5 SWAP4 POP POP POP POP JUMP JUMPDEST DUP2 PUSH1 0x1 PUSH1 0x1 PUSH1 0xA0 SHL SUB AND DUP4 PUSH1 0x1 PUSH1 0x1 PUSH1 0xA0 SHL SUB AND SUB PUSH2 0xC70 JUMPI PUSH1 0x40 MLOAD PUSH3 0x461BCD PUSH1 0xE5 SHL DUP2 MSTORE PUSH1 0x20 PUSH1 0x4 DUP3 ADD MSTORE PUSH1 0x19 PUSH1 0x24 DUP3 ADD MSTORE PUSH32 0x4552433732313A20617070726F766520746F2063616C6C657200000000000000 PUSH1 0x44 DUP3 ADD MSTORE PUSH1 0x64 ADD PUSH2 0x434 JUMP JUMPDEST PUSH1 0x1 PUSH1 0x1 PUSH1 0xA0 SHL SUB DUP4 DUP2 AND PUSH1 0x0 DUP2 DUP2 MSTORE PUSH1 0x5 PUSH1 0x20 SWAP1 DUP2 MSTORE PUSH1 0x40 DUP1 DUP4 KECCAK256 SWAP5 DUP8 AND DUP1 DUP5 MSTORE SWAP5 DUP3 MSTORE SWAP2 DUP3 SWAP1 KECCAK256 DUP1 SLOAD PUSH1 0xFF NOT AND DUP7 ISZERO ISZERO SWAP1 DUP2 OR SWAP1 SWAP2 SSTORE SWAP2 MLOAD SWAP2 DUP3 MSTORE PUSH32 0x17307EAB39AB6107E8899845AD3D59BD9653F200F220920489CA2B5937696C31 SWAP2 ADD PUSH1 0x40 MLOAD DUP1 SWAP2 SUB SWAP1 LOG3 POP POP POP JUMP JUMPDEST PUSH2 0xCE5 PUSH1 0x0 DUP1 REVERT JUMPDEST PUSH2 0xCF1 DUP5 DUP5 DUP5 DUP5 PUSH2 0x1058 JUMP JUMPDEST PUSH2 0x7B3 JUMPI PUSH1 0x40 MLOAD PUSH3 0x461BCD PUSH1 0xE5 SHL DUP2 MSTORE PUSH1 0x4 ADD PUSH2 0x434 SWAP1 PUSH2 0x1A5A JUMP JUMPDEST PUSH1 0x0 SWAP1 DUP2 MSTORE PUSH1 0x2 PUSH1 0x20 MSTORE PUSH1 0x40 SWAP1 KECCAK256 SLOAD PUSH1 0x1 PUSH1 0x1 PUSH1 0xA0 SHL SUB AND ISZERO ISZERO SWAP1 JUMP JUMPDEST PUSH1 0x60 PUSH2 0xD35 DUP3 PUSH2 0xD0D JUMP JUMPDEST PUSH2 0xD81 JUMPI PUSH1 0x40 MLOAD PUSH3 0x461BCD PUSH1 0xE5 SHL DUP2 MSTORE PUSH1 0x20 PUSH1 0x4 DUP3 ADD MSTORE PUSH1 0x1D PUSH1 0x24 DUP3 ADD MSTORE PUSH32 0x546F6B656E20686173206E6F74206265656E206D696E74656420796574000000 PUSH1 0x44 DUP3 ADD MSTORE PUSH1 0x64 ADD PUSH2 0x434 JUMP JUMPDEST PUSH2 0x301 DUP3 PUSH2 0x1159 JUMP JUMPDEST PUSH1 0x60 PUSH20 0x0 PUSH4 0x12496A1B PUSH2 0xDBA DUP7 PUSH1 0x1 PUSH1 0x1 PUSH1 0xA0 SHL SUB AND PUSH1 0x14 PUSH2 0x11CD JUMP JUMPDEST PUSH1 0x7 SLOAD PUSH2 0xDD1 SWAP1 PUSH1 0x1 PUSH1 0x1 PUSH1 0xA0 SHL SUB AND PUSH1 0x14 PUSH2 0x11CD JUMP JUMPDEST DUP7 DUP7 PUSH1 0x40 MLOAD PUSH1 0x20 ADD PUSH2 0xDE6 SWAP5 SWAP4 SWAP3 SWAP2 SWAP1 PUSH2 0x1AAC JUMP JUMPDEST PUSH1 0x40 MLOAD PUSH1 0x20 DUP2 DUP4 SUB SUB DUP2 MSTORE SWAP1 PUSH1 0x40 MSTORE PUSH1 0x40 MLOAD DUP3 PUSH4 0xFFFFFFFF AND PUSH1 0xE0 SHL DUP2 MSTORE PUSH1 0x4 ADD PUSH2 0xE11 SWAP2 SWAP1 PUSH2 0x1557 JUMP JUMPDEST PUSH1 0x0 PUSH1 0x40 MLOAD DUP1 DUP4 SUB DUP2 DUP7 GAS DELEGATECALL ISZERO DUP1 ISZERO PUSH2 0xE2E JUMPI RETURNDATASIZE PUSH1 0x0 DUP1 RETURNDATACOPY RETURNDATASIZE PUSH1 0x0 REVERT JUMPDEST POP POP POP POP PUSH1 0x40 MLOAD RETURNDATASIZE PUSH1 0x0 DUP3 RETURNDATACOPY PUSH1 0x1F RETURNDATASIZE SWAP1 DUP2 ADD PUSH1 0x1F NOT AND DUP3 ADD PUSH1 0x40 MSTORE PUSH2 0xE56 SWAP2 SWAP1 DUP2 ADD SWAP1 PUSH2 0x1BA9 JUMP JUMPDEST PUSH1 0x40 MLOAD PUSH1 0x20 ADD PUSH2 0xE66 SWAP2 SWAP1 PUSH2 0x1C20 JUMP JUMPDEST PUSH1 0x40 MLOAD PUSH1 0x20 DUP2 DUP4 SUB SUB DUP2 MSTORE SWAP1 PUSH1 0x40 MSTORE SWAP1 POP SWAP4 SWAP3 POP POP POP JUMP JUMPDEST PUSH1 0x1 PUSH1 0x1 PUSH1 0xA0 SHL SUB DUP3 AND PUSH2 0xED4 JUMPI PUSH1 0x40 MLOAD PUSH3 0x461BCD PUSH1 0xE5 SHL DUP2 MSTORE PUSH1 0x20 PUSH1 0x4 DUP3 ADD DUP2 SWAP1 MSTORE PUSH1 0x24 DUP3 ADD MSTORE PUSH32 0x4552433732313A206D696E7420746F20746865207A65726F2061646472657373 PUSH1 0x44 DUP3 ADD MSTORE PUSH1 0x64 ADD PUSH2 0x434 JUMP JUMPDEST PUSH2 0xEDD DUP2 PUSH2 0xD0D JUMP JUMPDEST ISZERO PUSH2 0xF2A JUMPI PUSH1 0x40 MLOAD PUSH3 0x461BCD PUSH1 0xE5 SHL DUP2 MSTORE PUSH1 0x20 PUSH1 0x4 DUP3 ADD MSTORE PUSH1 0x1C PUSH1 0x24 DUP3 ADD MSTORE PUSH32 0x4552433732313A20746F6B656E20616C7265616479206D696E74656400000000 PUSH1 0x44 DUP3 ADD MSTORE PUSH1 0x64 ADD PUSH2 0x434 JUMP JUMPDEST PUSH2 0xF33 DUP2 PUSH2 0xD0D JUMP JUMPDEST ISZERO PUSH2 0xF80 JUMPI PUSH1 0x40 MLOAD PUSH3 0x461BCD PUSH1 0xE5 SHL DUP2 MSTORE PUSH1 0x20 PUSH1 0x4 DUP3 ADD MSTORE PUSH1 0x1C PUSH1 0x24 DUP3 ADD MSTORE PUSH32 0x4552433732313A20746F6B656E20616C7265616479206D696E74656400000000 PUSH1 0x44 DUP3 ADD MSTORE PUSH1 0x64 ADD PUSH2 0x434 JUMP JUMPDEST PUSH1 0x1 PUSH1 0x1 PUSH1 0xA0 SHL SUB DUP3 AND PUSH1 0x0 DUP2 DUP2 MSTORE PUSH1 0x3 PUSH1 0x20 SWAP1 DUP2 MSTORE PUSH1 0x40 DUP1 DUP4 KECCAK256 DUP1 SLOAD PUSH1 0x1 ADD SWAP1 SSTORE DUP5 DUP4 MSTORE PUSH1 0x2 SWAP1 SWAP2 MSTORE DUP1 DUP3 KECCAK256 DUP1 SLOAD PUSH1 0x1 PUSH1 0x1 PUSH1 0xA0 SHL SUB NOT AND DUP5 OR SWAP1 SSTORE MLOAD DUP4 SWAP3 SWAP2 SWAP1 PUSH32 0xDDF252AD1BE2C89B69C2B068FC378DAA952BA7F163C4A11628F55A4DF523B3EF SWAP1 DUP3 SWAP1 LOG4 POP POP JUMP JUMPDEST PUSH2 0xFF4 DUP3 PUSH2 0xD0D JUMP JUMPDEST PUSH2 0x1040 JUMPI PUSH1 0x40 MLOAD PUSH3 0x461BCD PUSH1 0xE5 SHL DUP2 MSTORE PUSH1 0x20 PUSH1 0x4 DUP3 ADD MSTORE PUSH1 0x1C PUSH1 0x24 DUP3 ADD MSTORE PUSH32 0x55524920736574206F66206E6F6E6578697374656E7420746F6B656E00000000 PUSH1 0x44 DUP3 ADD MSTORE PUSH1 0x64 ADD PUSH2 0x434 JUMP JUMPDEST PUSH1 0x0 DUP3 DUP2 MSTORE PUSH1 0x8 PUSH1 0x20 MSTORE PUSH1 0x40 SWAP1 KECCAK256 PUSH2 0x4D5 DUP3 DUP3 PUSH2 0x199A JUMP JUMPDEST PUSH1 0x0 PUSH1 0x1 PUSH1 0x1 PUSH1 0xA0 SHL SUB DUP5 AND EXTCODESIZE ISZERO PUSH2 0x114E JUMPI PUSH1 0x40 MLOAD PUSH4 0xA85BD01 PUSH1 0xE1 SHL DUP2 MSTORE PUSH1 0x1 PUSH1 0x1 PUSH1 0xA0 SHL SUB DUP6 AND SWAP1 PUSH4 0x150B7A02 SWAP1 PUSH2 0x109C SWAP1 CALLER SWAP1 DUP10 SWAP1 DUP9 SWAP1 DUP9 SWAP1 PUSH1 0x4 ADD PUSH2 0x1C65 JUMP JUMPDEST PUSH1 0x20 PUSH1 0x40 MLOAD DUP1 DUP4 SUB DUP2 PUSH1 0x0 DUP8 GAS CALL SWAP3 POP POP POP DUP1 ISZERO PUSH2 0x10D7 JUMPI POP PUSH1 0x40 DUP1 MLOAD PUSH1 0x1F RETURNDATASIZE SWAP1 DUP2 ADD PUSH1 0x1F NOT AND DUP3 ADD SWAP1 SWAP3 MSTORE PUSH2 0x10D4 SWAP2 DUP2 ADD SWAP1 PUSH2 0x1CA2 JUMP JUMPDEST PUSH1 0x1 JUMPDEST PUSH2 0x1134 JUMPI RETURNDATASIZE DUP1 DUP1 ISZERO PUSH2 0x1105 JUMPI PUSH1 0x40 MLOAD SWAP2 POP PUSH1 0x1F NOT PUSH1 0x3F RETURNDATASIZE ADD AND DUP3 ADD PUSH1 0x40 MSTORE RETURNDATASIZE DUP3 MSTORE RETURNDATASIZE PUSH1 0x0 PUSH1 0x20 DUP5 ADD RETURNDATACOPY PUSH2 0x110A JUMP JUMPDEST PUSH1 0x60 SWAP2 POP JUMPDEST POP DUP1 MLOAD PUSH1 0x0 SUB PUSH2 0x112C JUMPI PUSH1 0x40 MLOAD PUSH3 0x461BCD PUSH1 0xE5 SHL DUP2 MSTORE PUSH1 0x4 ADD PUSH2 0x434 SWAP1 PUSH2 0x1A5A JUMP JUMPDEST DUP1 MLOAD DUP2 PUSH1 0x20 ADD REVERT JUMPDEST PUSH1 0x1 PUSH1 0x1 PUSH1 0xE0 SHL SUB NOT AND PUSH4 0xA85BD01 PUSH1 0xE1 SHL EQ SWAP1 POP PUSH2 0x90D JUMP JUMPDEST POP PUSH1 0x1 SWAP5 SWAP4 POP POP POP POP JUMP JUMPDEST PUSH1 0x60 PUSH2 0x1164 DUP3 PUSH2 0xAF0 JUMP JUMPDEST PUSH1 0x0 PUSH2 0x117B PUSH1 0x40 DUP1 MLOAD PUSH1 0x20 DUP2 ADD SWAP1 SWAP2 MSTORE PUSH1 0x0 DUP2 MSTORE SWAP1 JUMP JUMPDEST SWAP1 POP PUSH1 0x0 DUP2 MLOAD GT PUSH2 0x119B JUMPI PUSH1 0x40 MLOAD DUP1 PUSH1 0x20 ADD PUSH1 0x40 MSTORE DUP1 PUSH1 0x0 DUP2 MSTORE POP PUSH2 0x11C6 JUMP JUMPDEST DUP1 PUSH2 0x11A5 DUP5 PUSH2 0x1369 JUMP JUMPDEST PUSH1 0x40 MLOAD PUSH1 0x20 ADD PUSH2 0x11B6 SWAP3 SWAP2 SWAP1 PUSH2 0x18EE JUMP JUMPDEST PUSH1 0x40 MLOAD PUSH1 0x20 DUP2 DUP4 SUB SUB DUP2 MSTORE SWAP1 PUSH1 0x40 MSTORE JUMPDEST SWAP4 SWAP3 POP POP POP JUMP JUMPDEST PUSH1 0x60 PUSH1 0x0 PUSH2 0x11DC DUP4 PUSH1 0x2 PUSH2 0x1CBF JUMP JUMPDEST PUSH2 0x11E7 SWAP1 PUSH1 0x2 PUSH2 0x1CD6 JUMP JUMPDEST PUSH8 0xFFFFFFFFFFFFFFFF DUP2 GT ISZERO PUSH2 0x11FF JUMPI PUSH2 0x11FF PUSH2 0x1697 JUMP JUMPDEST PUSH1 0x40 MLOAD SWAP1 DUP1 DUP3 MSTORE DUP1 PUSH1 0x1F ADD PUSH1 0x1F NOT AND PUSH1 0x20 ADD DUP3 ADD PUSH1 0x40 MSTORE DUP1 ISZERO PUSH2 0x1229 JUMPI PUSH1 0x20 DUP3 ADD DUP2 DUP1 CALLDATASIZE DUP4 CALLDATACOPY ADD SWAP1 POP JUMPDEST POP SWAP1 POP PUSH1 0x3 PUSH1 0xFC SHL DUP2 PUSH1 0x0 DUP2 MLOAD DUP2 LT PUSH2 0x1244 JUMPI PUSH2 0x1244 PUSH2 0x1CE9 JUMP JUMPDEST PUSH1 0x20 ADD ADD SWAP1 PUSH1 0x1 PUSH1 0x1 PUSH1 0xF8 SHL SUB NOT AND SWAP1 DUP2 PUSH1 0x0 BYTE SWAP1 MSTORE8 POP PUSH1 0xF PUSH1 0xFB SHL DUP2 PUSH1 0x1 DUP2 MLOAD DUP2 LT PUSH2 0x1273 JUMPI PUSH2 0x1273 PUSH2 0x1CE9 JUMP JUMPDEST PUSH1 0x20 ADD ADD SWAP1 PUSH1 0x1 PUSH1 0x1 PUSH1 0xF8 SHL SUB NOT AND SWAP1 DUP2 PUSH1 0x0 BYTE SWAP1 MSTORE8 POP PUSH1 0x0 PUSH2 0x1297 DUP5 PUSH1 0x2 PUSH2 0x1CBF JUMP JUMPDEST PUSH2 0x12A2 SWAP1 PUSH1 0x1 PUSH2 0x1CD6 JUMP JUMPDEST SWAP1 POP JUMPDEST PUSH1 0x1 DUP2 GT ISZERO PUSH2 0x131A JUMPI PUSH16 0x181899199A1A9B1B9C1CB0B131B232B3 PUSH1 0x81 SHL DUP6 PUSH1 0xF AND PUSH1 0x10 DUP2 LT PUSH2 0x12D6 JUMPI PUSH2 0x12D6 PUSH2 0x1CE9 JUMP JUMPDEST BYTE PUSH1 0xF8 SHL DUP3 DUP3 DUP2 MLOAD DUP2 LT PUSH2 0x12EC JUMPI PUSH2 0x12EC PUSH2 0x1CE9 JUMP JUMPDEST PUSH1 0x20 ADD ADD SWAP1 PUSH1 0x1 PUSH1 0x1 PUSH1 0xF8 SHL SUB NOT AND SWAP1 DUP2 PUSH1 0x0 BYTE SWAP1 MSTORE8 POP PUSH1 0x4 SWAP5 SWAP1 SWAP5 SHR SWAP4 PUSH2 0x1313 DUP2 PUSH2 0x1CFF JUMP JUMPDEST SWAP1 POP PUSH2 0x12A5 JUMP JUMPDEST POP DUP4 ISZERO PUSH2 0x11C6 JUMPI PUSH1 0x40 MLOAD PUSH3 0x461BCD PUSH1 0xE5 SHL DUP2 MSTORE PUSH1 0x20 PUSH1 0x4 DUP3 ADD DUP2 SWAP1 MSTORE PUSH1 0x24 DUP3 ADD MSTORE PUSH32 0x537472696E67733A20686578206C656E67746820696E73756666696369656E74 PUSH1 0x44 DUP3 ADD MSTORE PUSH1 0x64 ADD PUSH2 0x434 JUMP JUMPDEST PUSH1 0x60 PUSH1 0x0 PUSH2 0x1376 DUP4 PUSH2 0x13FC JUMP JUMPDEST PUSH1 0x1 ADD SWAP1 POP PUSH1 0x0 DUP2 PUSH8 0xFFFFFFFFFFFFFFFF DUP2 GT ISZERO PUSH2 0x1396 JUMPI PUSH2 0x1396 PUSH2 0x1697 JUMP JUMPDEST PUSH1 0x40 MLOAD SWAP1 DUP1 DUP3 MSTORE DUP1 PUSH1 0x1F ADD PUSH1 0x1F NOT AND PUSH1 0x20 ADD DUP3 ADD PUSH1 0x40 MSTORE DUP1 ISZERO PUSH2 0x13C0 JUMPI PUSH1 0x20 DUP3 ADD DUP2 DUP1 CALLDATASIZE DUP4 CALLDATACOPY ADD SWAP1 POP JUMPDEST POP SWAP1 POP DUP2 DUP2 ADD PUSH1 0x20 ADD JUMPDEST PUSH1 0x0 NOT ADD PUSH16 0x181899199A1A9B1B9C1CB0B131B232B3 PUSH1 0x81 SHL PUSH1 0xA DUP7 MOD BYTE DUP2 MSTORE8 PUSH1 0xA DUP6 DIV SWAP5 POP DUP5 PUSH2 0x13CA JUMPI POP SWAP4 SWAP3 POP POP POP JUMP JUMPDEST PUSH1 0x0 DUP1 PUSH19 0x184F03E93FF9F4DAA797ED6E38ED64BF6A1F01 PUSH1 0x40 SHL DUP4 LT PUSH2 0x143B JUMPI PUSH19 0x184F03E93FF9F4DAA797ED6E38ED64BF6A1F01 PUSH1 0x40 SHL DUP4 DIV SWAP3 POP PUSH1 0x40 ADD JUMPDEST PUSH14 0x4EE2D6D415B85ACEF8100000000 DUP4 LT PUSH2 0x1467 JUMPI PUSH14 0x4EE2D6D415B85ACEF8100000000 DUP4 DIV SWAP3 POP PUSH1 0x20 ADD JUMPDEST PUSH7 0x2386F26FC10000 DUP4 LT PUSH2 0x1485 JUMPI PUSH7 0x2386F26FC10000 DUP4 DIV SWAP3 POP PUSH1 0x10 ADD JUMPDEST PUSH4 0x5F5E100 DUP4 LT PUSH2 0x149D JUMPI PUSH4 0x5F5E100 DUP4 DIV SWAP3 POP PUSH1 0x8 ADD JUMPDEST PUSH2 0x2710 DUP4 LT PUSH2 0x14B1 JUMPI PUSH2 0x2710 DUP4 DIV SWAP3 POP PUSH1 0x4 ADD JUMPDEST PUSH1 0x64 DUP4 LT PUSH2 0x14C3 JUMPI PUSH1 0x64 DUP4 DIV SWAP3 POP PUSH1 0x2 ADD JUMPDEST PUSH1 0xA DUP4 LT PUSH2 0x301 JUMPI PUSH1 0x1 ADD SWAP3 SWAP2 POP POP JUMP JUMPDEST PUSH1 0x1 PUSH1 0x1 PUSH1 0xE0 SHL SUB NOT DUP2 AND DUP2 EQ PUSH2 0xB40 JUMPI PUSH1 0x0 DUP1 REVERT JUMPDEST PUSH1 0x0 PUSH1 0x20 DUP3 DUP5 SUB SLT ISZERO PUSH2 0x14FC JUMPI PUSH1 0x0 DUP1 REVERT JUMPDEST DUP2 CALLDATALOAD PUSH2 0x11C6 DUP2 PUSH2 0x14D4 JUMP JUMPDEST PUSH1 0x0 JUMPDEST DUP4 DUP2 LT ISZERO PUSH2 0x1522 JUMPI DUP2 DUP2 ADD MLOAD DUP4 DUP3 ADD MSTORE PUSH1 0x20 ADD PUSH2 0x150A JUMP JUMPDEST POP POP PUSH1 0x0 SWAP2 ADD MSTORE JUMP JUMPDEST PUSH1 0x0 DUP2 MLOAD DUP1 DUP5 MSTORE PUSH2 0x1543 DUP2 PUSH1 0x20 DUP7 ADD PUSH1 0x20 DUP7 ADD PUSH2 0x1507 JUMP JUMPDEST PUSH1 0x1F ADD PUSH1 0x1F NOT AND SWAP3 SWAP1 SWAP3 ADD PUSH1 0x20 ADD SWAP3 SWAP2 POP POP JUMP JUMPDEST PUSH1 0x20 DUP2 MSTORE PUSH1 0x0 PUSH2 0x11C6 PUSH1 0x20 DUP4 ADD DUP5 PUSH2 0x152B JUMP JUMPDEST PUSH1 0x0 PUSH1 0x20 DUP3 DUP5 SUB SLT ISZERO PUSH2 0x157C JUMPI PUSH1 0x0 DUP1 REVERT JUMPDEST POP CALLDATALOAD SWAP2 SWAP1 POP JUMP JUMPDEST DUP1 CALLDATALOAD PUSH1 0x1 PUSH1 0x1 PUSH1 0xA0 SHL SUB DUP2 AND DUP2 EQ PUSH2 0x159A JUMPI PUSH1 0x0 DUP1 REVERT JUMPDEST SWAP2 SWAP1 POP JUMP JUMPDEST PUSH1 0x0 DUP1 PUSH1 0x40 DUP4 DUP6 SUB SLT ISZERO PUSH2 0x15B2 JUMPI PUSH1 0x0 DUP1 REVERT JUMPDEST PUSH2 0x15BB DUP4 PUSH2 0x1583 JUMP JUMPDEST SWAP5 PUSH1 0x20 SWAP4 SWAP1 SWAP4 ADD CALLDATALOAD SWAP4 POP POP POP JUMP JUMPDEST PUSH1 0x0 DUP1 PUSH1 0x0 PUSH1 0x60 DUP5 DUP7 SUB SLT ISZERO PUSH2 0x15DE JUMPI PUSH1 0x0 DUP1 REVERT JUMPDEST PUSH2 0x15E7 DUP5 PUSH2 0x1583 JUMP JUMPDEST SWAP3 POP PUSH2 0x15F5 PUSH1 0x20 DUP6 ADD PUSH2 0x1583 JUMP JUMPDEST SWAP2 POP PUSH1 0x40 DUP5 ADD CALLDATALOAD SWAP1 POP SWAP3 POP SWAP3 POP SWAP3 JUMP JUMPDEST PUSH1 0x20 DUP2 MSTORE PUSH1 0x0 PUSH1 0x1 DUP1 PUSH1 0xA0 SHL SUB DUP1 DUP5 MLOAD AND PUSH1 0x20 DUP5 ADD MSTORE DUP1 PUSH1 0x20 DUP6 ADD MLOAD AND PUSH1 0x40 DUP5 ADD MSTORE POP PUSH1 0x40 DUP4 ADD MLOAD PUSH1 0x60 DUP1 DUP5 ADD MSTORE PUSH2 0x90D PUSH1 0x80 DUP5 ADD DUP3 PUSH2 0x152B JUMP JUMPDEST PUSH1 0x0 PUSH1 0x20 DUP3 DUP5 SUB SLT ISZERO PUSH2 0x1652 JUMPI PUSH1 0x0 DUP1 REVERT JUMPDEST PUSH2 0x11C6 DUP3 PUSH2 0x1583 JUMP JUMPDEST PUSH1 0x0 DUP1 PUSH1 0x40 DUP4 DUP6 SUB SLT ISZERO PUSH2 0x166E JUMPI PUSH1 0x0 DUP1 REVERT JUMPDEST PUSH2 0x1677 DUP4 PUSH2 0x1583 JUMP JUMPDEST SWAP2 POP PUSH1 0x20 DUP4 ADD CALLDATALOAD DUP1 ISZERO ISZERO DUP2 EQ PUSH2 0x168C JUMPI PUSH1 0x0 DUP1 REVERT JUMPDEST DUP1 SWAP2 POP POP SWAP3 POP SWAP3 SWAP1 POP JUMP JUMPDEST PUSH4 0x4E487B71 PUSH1 0xE0 SHL PUSH1 0x0 MSTORE PUSH1 0x41 PUSH1 0x4 MSTORE PUSH1 0x24 PUSH1 0x0 REVERT JUMPDEST PUSH1 0x40 MLOAD PUSH1 0x1F DUP3 ADD PUSH1 0x1F NOT AND DUP2 ADD PUSH8 0xFFFFFFFFFFFFFFFF DUP2 GT DUP3 DUP3 LT OR ISZERO PUSH2 0x16D6 JUMPI PUSH2 0x16D6 PUSH2 0x1697 JUMP JUMPDEST PUSH1 0x40 MSTORE SWAP2 SWAP1 POP JUMP JUMPDEST PUSH1 0x0 PUSH8 0xFFFFFFFFFFFFFFFF DUP3 GT ISZERO PUSH2 0x16F8 JUMPI PUSH2 0x16F8 PUSH2 0x1697 JUMP JUMPDEST POP PUSH1 0x1F ADD PUSH1 0x1F NOT AND PUSH1 0x20 ADD SWAP1 JUMP JUMPDEST PUSH1 0x0 DUP1 PUSH1 0x0 DUP1 PUSH1 0x80 DUP6 DUP8 SUB SLT ISZERO PUSH2 0x171C JUMPI PUSH1 0x0 DUP1 REVERT JUMPDEST PUSH2 0x1725 DUP6 PUSH2 0x1583 JUMP JUMPDEST SWAP4 POP PUSH2 0x1733 PUSH1 0x20 DUP7 ADD PUSH2 0x1583 JUMP JUMPDEST SWAP3 POP PUSH1 0x40 DUP6 ADD CALLDATALOAD SWAP2 POP PUSH1 0x60 DUP6 ADD CALLDATALOAD PUSH8 0xFFFFFFFFFFFFFFFF DUP2 GT ISZERO PUSH2 0x1756 JUMPI PUSH1 0x0 DUP1 REVERT JUMPDEST DUP6 ADD PUSH1 0x1F DUP2 ADD DUP8 SGT PUSH2 0x1767 JUMPI PUSH1 0x0 DUP1 REVERT JUMPDEST DUP1 CALLDATALOAD PUSH2 0x177A PUSH2 0x1775 DUP3 PUSH2 0x16DE JUMP JUMPDEST PUSH2 0x16AD JUMP JUMPDEST DUP2 DUP2 MSTORE DUP9 PUSH1 0x20 DUP4 DUP6 ADD ADD GT ISZERO PUSH2 0x178F JUMPI PUSH1 0x0 DUP1 REVERT JUMPDEST DUP2 PUSH1 0x20 DUP5 ADD PUSH1 0x20 DUP4 ADD CALLDATACOPY PUSH1 0x0 PUSH1 0x20 DUP4 DUP4 ADD ADD MSTORE DUP1 SWAP4 POP POP POP POP SWAP3 SWAP6 SWAP2 SWAP5 POP SWAP3 POP JUMP JUMPDEST PUSH1 0x0 DUP1 PUSH1 0x0 PUSH1 0x40 DUP5 DUP7 SUB SLT ISZERO PUSH2 0x17C6 JUMPI PUSH1 0x0 DUP1 REVERT JUMPDEST PUSH2 0x17CF DUP5 PUSH2 0x1583 JUMP JUMPDEST SWAP3 POP PUSH1 0x20 DUP5 ADD CALLDATALOAD PUSH8 0xFFFFFFFFFFFFFFFF DUP1 DUP3 GT ISZERO PUSH2 0x17EC JUMPI PUSH1 0x0 DUP1 REVERT JUMPDEST DUP2 DUP7 ADD SWAP2 POP DUP7 PUSH1 0x1F DUP4 ADD SLT PUSH2 0x1800 JUMPI PUSH1 0x0 DUP1 REVERT JUMPDEST DUP2 CALLDATALOAD DUP2 DUP2 GT ISZERO PUSH2 0x180F JUMPI PUSH1 0x0 DUP1 REVERT JUMPDEST DUP8 PUSH1 0x20 DUP3 DUP6 ADD ADD GT ISZERO PUSH2 0x1821 JUMPI PUSH1 0x0 DUP1 REVERT JUMPDEST PUSH1 0x20 DUP4 ADD SWAP5 POP DUP1 SWAP4 POP POP POP POP SWAP3 POP SWAP3 POP SWAP3 JUMP JUMPDEST PUSH1 0x0 DUP1 PUSH1 0x40 DUP4 DUP6 SUB SLT ISZERO PUSH2 0x1847 JUMPI PUSH1 0x0 DUP1 REVERT JUMPDEST PUSH2 0x1850 DUP4 PUSH2 0x1583 JUMP JUMPDEST SWAP2 POP PUSH2 0x185E PUSH1 0x20 DUP5 ADD PUSH2 0x1583 JUMP JUMPDEST SWAP1 POP SWAP3 POP SWAP3 SWAP1 POP JUMP JUMPDEST PUSH1 0x1 DUP2 DUP2 SHR SWAP1 DUP3 AND DUP1 PUSH2 0x187B JUMPI PUSH1 0x7F DUP3 AND SWAP2 POP JUMPDEST PUSH1 0x20 DUP3 LT DUP2 SUB PUSH2 0x189B JUMPI PUSH4 0x4E487B71 PUSH1 0xE0 SHL PUSH1 0x0 MSTORE PUSH1 0x22 PUSH1 0x4 MSTORE PUSH1 0x24 PUSH1 0x0 REVERT JUMPDEST POP SWAP2 SWAP1 POP JUMP JUMPDEST PUSH1 0x20 DUP1 DUP3 MSTORE PUSH1 0x2D SWAP1 DUP3 ADD MSTORE PUSH32 0x4552433732313A2063616C6C6572206973206E6F7420746F6B656E206F776E65 PUSH1 0x40 DUP3 ADD MSTORE PUSH13 0x1C881BDC88185C1C1C9BDD9959 PUSH1 0x9A SHL PUSH1 0x60 DUP3 ADD MSTORE PUSH1 0x80 ADD SWAP1 JUMP JUMPDEST PUSH1 0x0 DUP4 MLOAD PUSH2 0x1900 DUP2 DUP5 PUSH1 0x20 DUP9 ADD PUSH2 0x1507 JUMP JUMPDEST DUP4 MLOAD SWAP1 DUP4 ADD SWAP1 PUSH2 0x1914 DUP2 DUP4 PUSH1 0x20 DUP9 ADD PUSH2 0x1507 JUMP JUMPDEST ADD SWAP5 SWAP4 POP POP POP POP JUMP JUMPDEST PUSH4 0x4E487B71 PUSH1 0xE0 SHL PUSH1 0x0 MSTORE PUSH1 0x11 PUSH1 0x4 MSTORE PUSH1 0x24 PUSH1 0x0 REVERT JUMPDEST PUSH1 0x0 PUSH1 0x1 DUP3 ADD PUSH2 0x1945 JUMPI PUSH2 0x1945 PUSH2 0x191D JUMP JUMPDEST POP PUSH1 0x1 ADD SWAP1 JUMP JUMPDEST PUSH1 0x1F DUP3 GT ISZERO PUSH2 0x4D5 JUMPI PUSH1 0x0 DUP2 DUP2 MSTORE PUSH1 0x20 DUP2 KECCAK256 PUSH1 0x1F DUP6 ADD PUSH1 0x5 SHR DUP2 ADD PUSH1 0x20 DUP7 LT ISZERO PUSH2 0x1973 JUMPI POP DUP1 JUMPDEST PUSH1 0x1F DUP6 ADD PUSH1 0x5 SHR DUP3 ADD SWAP2 POP JUMPDEST DUP2 DUP2 LT ISZERO PUSH2 0x1992 JUMPI DUP3 DUP2 SSTORE PUSH1 0x1 ADD PUSH2 0x197F JUMP JUMPDEST POP POP POP POP POP POP JUMP JUMPDEST DUP2 MLOAD PUSH8 0xFFFFFFFFFFFFFFFF DUP2 GT ISZERO PUSH2 0x19B4 JUMPI PUSH2 0x19B4 PUSH2 0x1697 JUMP JUMPDEST PUSH2 0x19C8 DUP2 PUSH2 0x19C2 DUP5 SLOAD PUSH2 0x1867 JUMP JUMPDEST DUP5 PUSH2 0x194C JUMP JUMPDEST PUSH1 0x20 DUP1 PUSH1 0x1F DUP4 GT PUSH1 0x1 DUP2 EQ PUSH2 0x19FD JUMPI PUSH1 0x0 DUP5 ISZERO PUSH2 0x19E5 JUMPI POP DUP6 DUP4 ADD MLOAD JUMPDEST PUSH1 0x0 NOT PUSH1 0x3 DUP7 SWAP1 SHL SHR NOT AND PUSH1 0x1 DUP6 SWAP1 SHL OR DUP6 SSTORE PUSH2 0x1992 JUMP JUMPDEST PUSH1 0x0 DUP6 DUP2 MSTORE PUSH1 0x20 DUP2 KECCAK256 PUSH1 0x1F NOT DUP7 AND SWAP2 JUMPDEST DUP3 DUP2 LT ISZERO PUSH2 0x1A2C JUMPI DUP9 DUP7 ADD MLOAD DUP3 SSTORE SWAP5 DUP5 ADD SWAP5 PUSH1 0x1 SWAP1 SWAP2 ADD SWAP1 DUP5 ADD PUSH2 0x1A0D JUMP JUMPDEST POP DUP6 DUP3 LT ISZERO PUSH2 0x1A4A JUMPI DUP8 DUP6 ADD MLOAD PUSH1 0x0 NOT PUSH1 0x3 DUP9 SWAP1 SHL PUSH1 0xF8 AND SHR NOT AND DUP2 SSTORE JUMPDEST POP POP POP POP POP PUSH1 0x1 SWAP1 DUP2 SHL ADD SWAP1 SSTORE POP JUMP JUMPDEST PUSH1 0x20 DUP1 DUP3 MSTORE PUSH1 0x32 SWAP1 DUP3 ADD MSTORE PUSH32 0x4552433732313A207472616E7366657220746F206E6F6E204552433732315265 PUSH1 0x40 DUP3 ADD MSTORE PUSH18 0x31B2B4BB32B91034B6B83632B6B2B73A32B9 PUSH1 0x71 SHL PUSH1 0x60 DUP3 ADD MSTORE PUSH1 0x80 ADD SWAP1 JUMP JUMPDEST PUSH32 0x7B6E616D653A202244655363692041636365737320546F6B656E222C20646573 DUP2 MSTORE PUSH32 0x6372697074696F6E3A20225468697320746F6B656E206772616E747320616363 PUSH1 0x20 DUP3 ADD MSTORE PUSH32 0x65737320746F20736369656E74696669632072657365617263682E222C20226F PUSH1 0x40 DUP3 ADD MSTORE PUSH8 0x3BB732B9111D1011 PUSH1 0xC1 SHL PUSH1 0x60 DUP3 ADD MSTORE PUSH1 0x0 DUP6 MLOAD PUSH2 0x1B41 DUP2 PUSH1 0x68 DUP6 ADD PUSH1 0x20 DUP11 ADD PUSH2 0x1507 JUMP JUMPDEST PUSH9 0x1116102220A79D1011 PUSH1 0xB9 SHL PUSH1 0x68 SWAP2 DUP5 ADD SWAP2 DUP3 ADD MSTORE DUP6 MLOAD PUSH2 0x1B6A DUP2 PUSH1 0x71 DUP5 ADD PUSH1 0x20 DUP11 ADD PUSH2 0x1507 JUMP JUMPDEST PUSH14 0x1116103230BA30AFB1B4B21D1011 PUSH1 0x91 SHL PUSH1 0x71 SWAP3 SWAP1 SWAP2 ADD SWAP2 DUP3 ADD MSTORE DUP4 DUP6 PUSH1 0x7F DUP4 ADD CALLDATACOPY PUSH2 0x227D PUSH1 0xF0 SHL SWAP4 ADD PUSH1 0x7F DUP2 ADD SWAP4 SWAP1 SWAP4 MSTORE POP POP PUSH1 0x81 ADD SWAP4 SWAP3 POP POP POP JUMP JUMPDEST PUSH1 0x0 PUSH1 0x20 DUP3 DUP5 SUB SLT ISZERO PUSH2 0x1BBB JUMPI PUSH1 0x0 DUP1 REVERT JUMPDEST DUP2 MLOAD PUSH8 0xFFFFFFFFFFFFFFFF DUP2 GT ISZERO PUSH2 0x1BD2 JUMPI PUSH1 0x0 DUP1 REVERT JUMPDEST DUP3 ADD PUSH1 0x1F DUP2 ADD DUP5 SGT PUSH2 0x1BE3 JUMPI PUSH1 0x0 DUP1 REVERT JUMPDEST DUP1 MLOAD PUSH2 0x1BF1 PUSH2 0x1775 DUP3 PUSH2 0x16DE JUMP JUMPDEST DUP2 DUP2 MSTORE DUP6 PUSH1 0x20 DUP4 DUP6 ADD ADD GT ISZERO PUSH2 0x1C06 JUMPI PUSH1 0x0 DUP1 REVERT JUMPDEST PUSH2 0x1C17 DUP3 PUSH1 0x20 DUP4 ADD PUSH1 0x20 DUP7 ADD PUSH2 0x1507 JUMP JUMPDEST SWAP6 SWAP5 POP POP POP POP POP JUMP JUMPDEST PUSH32 0x646174613A6170706C69636174696F6E2F6A736F6E3B6261736536342C000000 DUP2 MSTORE PUSH1 0x0 DUP3 MLOAD PUSH2 0x1C58 DUP2 PUSH1 0x1D DUP6 ADD PUSH1 0x20 DUP8 ADD PUSH2 0x1507 JUMP JUMPDEST SWAP2 SWAP1 SWAP2 ADD PUSH1 0x1D ADD SWAP3 SWAP2 POP POP JUMP JUMPDEST PUSH1 0x1 PUSH1 0x1 PUSH1 0xA0 SHL SUB DUP6 DUP2 AND DUP3 MSTORE DUP5 AND PUSH1 0x20 DUP3 ADD MSTORE PUSH1 0x40 DUP2 ADD DUP4 SWAP1 MSTORE PUSH1 0x80 PUSH1 0x60 DUP3 ADD DUP2 SWAP1 MSTORE PUSH1 0x0 SWAP1 PUSH2 0x1C98 SWAP1 DUP4 ADD DUP5 PUSH2 0x152B JUMP JUMPDEST SWAP7 SWAP6 POP POP POP POP POP POP JUMP JUMPDEST PUSH1 0x0 PUSH1 0x20 DUP3 DUP5 SUB SLT ISZERO PUSH2 0x1CB4 JUMPI PUSH1 0x0 DUP1 REVERT JUMPDEST DUP2 MLOAD PUSH2 0x11C6 DUP2 PUSH2 0x14D4 JUMP JUMPDEST DUP1 DUP3 MUL DUP2 ISZERO DUP3 DUP3 DIV DUP5 EQ OR PUSH2 0x301 JUMPI PUSH2 0x301 PUSH2 0x191D JUMP JUMPDEST DUP1 DUP3 ADD DUP1 DUP3 GT ISZERO PUSH2 0x301 JUMPI PUSH2 0x301 PUSH2 0x191D JUMP JUMPDEST PUSH4 0x4E487B71 PUSH1 0xE0 SHL PUSH1 0x0 MSTORE PUSH1 0x32 PUSH1 0x4 MSTORE PUSH1 0x24 PUSH1 0x0 REVERT JUMPDEST PUSH1 0x0 DUP2 PUSH2 0x1D0E JUMPI PUSH2 0x1D0E PUSH2 0x191D JUMP JUMPDEST POP PUSH1 0x0 NOT ADD SWAP1 JUMP INVALID LOG2 PUSH5 0x6970667358 0x22 SLT KECCAK256 BASEFEE EXTCODECOPY PUSH28 0xCF3E5CB381E83AE97C47F47716C4C78DB2F8E287A28063C4EA6439A0 0x4F PUSH5 0x736F6C6343 STOP ADDMOD SLT STOP CALLER LOG2 PUSH5 0x6970667358 0x22 SLT KECCAK256 SWAP15 0xD2 PUSH18 0xCE2046EB20C9CA61CD305F592E7040A6B66C PUSH3 0x41EC49 CALLVALUE MLOAD DIV PUSH27 0x2645B564736F6C6343000812003300000000000000000000000000 "
		},
		"gasEstimates": {
			"creation": {
				"codeDepositCost": "9149600",
				"executionCost": "12624",
				"totalCost": "9162224"
			},
			"external": {
				"accessToken()": "2403",
				"buyResearchDeal(bytes32)": "infinite",
				"createFundingProposal(string,string,address,uint256,uint256,uint256)": "infinite",
				"createResearchDeal(string,string,uint256,string)": "infinite",
				"daoStorage()": "2404",
				"endVotingOnResearch(bytes32)": "infinite",
				"fundResearchProposal(bytes32,uint256)": "infinite",
				"fundingDuration()": "4507",
				"fundingResultVoteTimeframe()": "2318",
				"governance()": "2459",
				"initialize(string,string,(uint256,uint256),address,uint256)": "infinite",
				"investorToken()": "2470",
				"lockAmount(uint256)": "infinite",
				"membershipToken()": "2360",
				"researchResultVotingDuration()": "2428",
				"resetExpiredResearchProposal(bytes32)": "infinite",
				"setFundingDuration((uint256,uint256))": "46727",
				"setFundingResultVoteTimeframe(uint256)": "24542",
				"setGovernance(address)": "26770",
				"setResearchResultVotingDuration(uint256)": "24563",
				"startResearch(bytes32)": "infinite",
				"startVotingOnResearchResult(bytes32)": "infinite",
				"unlockAmount(uint256)": "infinite",
				"voteOnResearchResult(bytes32,uint8)": "infinite",
				"withdraw(uint256,address)": "infinite"
			}
		},
		"methodIdentifiers": {
			"accessToken()": "e243c5fb",
			"buyResearchDeal(bytes32)": "10c88e74",
			"createFundingProposal(string,string,address,uint256,uint256,uint256)": "ce3ec0fb",
			"createResearchDeal(string,string,uint256,string)": "1c4d7223",
			"daoStorage()": "b266ee32",
			"endVotingOnResearch(bytes32)": "22564d24",
			"fundResearchProposal(bytes32,uint256)": "264e1b0a",
			"fundingDuration()": "1bc3a01c",
			"fundingResultVoteTimeframe()": "22e6101b",
			"governance()": "5aa6e675",
			"initialize(string,string,(uint256,uint256),address,uint256)": "8a1ce621",
			"investorToken()": "61808ae0",
			"lockAmount(uint256)": "daa58555",
			"membershipToken()": "62ad351b",
			"researchResultVotingDuration()": "a4b261cd",
			"resetExpiredResearchProposal(bytes32)": "4d8dd443",
			"setFundingDuration((uint256,uint256))": "13c6af39",
			"setFundingResultVoteTimeframe(uint256)": "7c7fda3b",
			"setGovernance(address)": "ab033ea9",
			"setResearchResultVotingDuration(uint256)": "ef2d6f6f",
			"startResearch(bytes32)": "6da9fc85",
			"startVotingOnResearchResult(bytes32)": "f63aa288",
			"unlockAmount(uint256)": "4cd2c09a",
			"voteOnResearchResult(bytes32,uint8)": "a1766162",
			"withdraw(uint256,address)": "00f714ce"
		}
	},
	"abi": [
		{
			"anonymous": false,
			"inputs": [
				{
					"indexed": false,
					"internalType": "uint8",
					"name": "version",
					"type": "uint8"
				}
			],
			"name": "Initialized",
			"type": "event"
		},
		{
			"inputs": [],
			"name": "accessToken",
			"outputs": [
				{
					"internalType": "contract AccessToken",
					"name": "",
					"type": "address"
				}
			],
			"stateMutability": "view",
			"type": "function"
		},
		{
			"inputs": [
				{
					"internalType": "bytes32",
					"name": "_id",
					"type": "bytes32"
				}
			],
			"name": "buyResearchDeal",
			"outputs": [],
			"stateMutability": "payable",
			"type": "function"
		},
		{
			"inputs": [
				{
					"internalType": "string",
					"name": "_title",
					"type": "string"
				},
				{
					"internalType": "string",
					"name": "_descriptionUrl",
					"type": "string"
				},
				{
					"internalType": "address",
					"name": "_fundingToken",
					"type": "address"
				},
				{
					"internalType": "uint256",
					"name": "_fundingAmount",
					"type": "uint256"
				},
				{
					"internalType": "uint256",
					"name": "_fundingDuration",
					"type": "uint256"
				},
				{
					"internalType": "uint256",
					"name": "_researchDuration",
					"type": "uint256"
				}
			],
			"name": "createFundingProposal",
			"outputs": [],
			"stateMutability": "nonpayable",
			"type": "function"
		},
		{
			"inputs": [
				{
					"internalType": "string",
					"name": "_title",
					"type": "string"
				},
				{
					"internalType": "string",
					"name": "_description",
					"type": "string"
				},
				{
					"internalType": "uint256",
					"name": "_price",
					"type": "uint256"
				},
				{
					"internalType": "string",
					"name": "_dataCid",
					"type": "string"
				}
			],
			"name": "createResearchDeal",
			"outputs": [],
			"stateMutability": "nonpayable",
			"type": "function"
		},
		{
			"inputs": [],
			"name": "daoStorage",
			"outputs": [
				{
					"internalType": "contract IStorage",
					"name": "",
					"type": "address"
				}
			],
			"stateMutability": "view",
			"type": "function"
		},
		{
			"inputs": [
				{
					"internalType": "bytes32",
					"name": "_proposalId",
					"type": "bytes32"
				}
			],
			"name": "endVotingOnResearch",
			"outputs": [],
			"stateMutability": "nonpayable",
			"type": "function"
		},
		{
			"inputs": [
				{
					"internalType": "bytes32",
					"name": "_proposalId",
					"type": "bytes32"
				},
				{
					"internalType": "uint256",
					"name": "_investedAmount",
					"type": "uint256"
				}
			],
			"name": "fundResearchProposal",
			"outputs": [],
			"stateMutability": "nonpayable",
			"type": "function"
		},
		{
			"inputs": [],
			"name": "fundingDuration",
			"outputs": [
				{
					"internalType": "uint256",
					"name": "minFundingDuration",
					"type": "uint256"
				},
				{
					"internalType": "uint256",
					"name": "maxFundingDuration",
					"type": "uint256"
				}
			],
			"stateMutability": "view",
			"type": "function"
		},
		{
			"inputs": [],
			"name": "fundingResultVoteTimeframe",
			"outputs": [
				{
					"internalType": "uint256",
					"name": "",
					"type": "uint256"
				}
			],
			"stateMutability": "view",
			"type": "function"
		},
		{
			"inputs": [],
			"name": "governance",
			"outputs": [
				{
					"internalType": "address",
					"name": "",
					"type": "address"
				}
			],
			"stateMutability": "view",
			"type": "function"
		},
		{
			"inputs": [
				{
					"internalType": "string",
					"name": "_name",
					"type": "string"
				},
				{
					"internalType": "string",
					"name": "_symbol",
					"type": "string"
				},
				{
					"components": [
						{
							"internalType": "uint256",
							"name": "minFundingDuration",
							"type": "uint256"
						},
						{
							"internalType": "uint256",
							"name": "maxFundingDuration",
							"type": "uint256"
						}
					],
					"internalType": "struct Structs.FundingDuration",
					"name": "_fundingDuration",
					"type": "tuple"
				},
				{
					"internalType": "contract IStorage",
					"name": "_storage",
					"type": "address"
				},
				{
					"internalType": "uint256",
					"name": "_researchResultVotingDuration",
					"type": "uint256"
				}
			],
			"name": "initialize",
			"outputs": [],
			"stateMutability": "nonpayable",
			"type": "function"
		},
		{
			"inputs": [],
			"name": "investorToken",
			"outputs": [
				{
					"internalType": "contract InvestorToken",
					"name": "",
					"type": "address"
				}
			],
			"stateMutability": "view",
			"type": "function"
		},
		{
			"inputs": [
				{
					"internalType": "uint256",
					"name": "amount",
					"type": "uint256"
				}
			],
			"name": "lockAmount",
			"outputs": [],
			"stateMutability": "nonpayable",
			"type": "function"
		},
		{
			"inputs": [],
			"name": "membershipToken",
			"outputs": [
				{
					"internalType": "contract MemberToken",
					"name": "",
					"type": "address"
				}
			],
			"stateMutability": "view",
			"type": "function"
		},
		{
			"inputs": [],
			"name": "researchResultVotingDuration",
			"outputs": [
				{
					"internalType": "uint256",
					"name": "",
					"type": "uint256"
				}
			],
			"stateMutability": "view",
			"type": "function"
		},
		{
			"inputs": [
				{
					"internalType": "bytes32",
					"name": "_proposalId",
					"type": "bytes32"
				}
			],
			"name": "resetExpiredResearchProposal",
			"outputs": [],
			"stateMutability": "nonpayable",
			"type": "function"
		},
		{
			"inputs": [
				{
					"components": [
						{
							"internalType": "uint256",
							"name": "minFundingDuration",
							"type": "uint256"
						},
						{
							"internalType": "uint256",
							"name": "maxFundingDuration",
							"type": "uint256"
						}
					],
					"internalType": "struct Structs.FundingDuration",
					"name": "_fundingDuration",
					"type": "tuple"
				}
			],
			"name": "setFundingDuration",
			"outputs": [],
			"stateMutability": "nonpayable",
			"type": "function"
		},
		{
			"inputs": [
				{
					"internalType": "uint256",
					"name": "_fundingResultVoteTimeframe",
					"type": "uint256"
				}
			],
			"name": "setFundingResultVoteTimeframe",
			"outputs": [],
			"stateMutability": "nonpayable",
			"type": "function"
		},
		{
			"inputs": [
				{
					"internalType": "address",
					"name": "_governance",
					"type": "address"
				}
			],
			"name": "setGovernance",
			"outputs": [],
			"stateMutability": "nonpayable",
			"type": "function"
		},
		{
			"inputs": [
				{
					"internalType": "uint256",
					"name": "_researchResultVotingDuration",
					"type": "uint256"
				}
			],
			"name": "setResearchResultVotingDuration",
			"outputs": [],
			"stateMutability": "nonpayable",
			"type": "function"
		},
		{
			"inputs": [
				{
					"internalType": "bytes32",
					"name": "_proposalId",
					"type": "bytes32"
				}
			],
			"name": "startResearch",
			"outputs": [],
			"stateMutability": "nonpayable",
			"type": "function"
		},
		{
			"inputs": [
				{
					"internalType": "bytes32",
					"name": "_proposalId",
					"type": "bytes32"
				}
			],
			"name": "startVotingOnResearchResult",
			"outputs": [],
			"stateMutability": "nonpayable",
			"type": "function"
		},
		{
			"inputs": [
				{
					"internalType": "uint256",
					"name": "amount",
					"type": "uint256"
				}
			],
			"name": "unlockAmount",
			"outputs": [],
			"stateMutability": "nonpayable",
			"type": "function"
		},
		{
			"inputs": [
				{
					"internalType": "bytes32",
					"name": "_proposalId",
					"type": "bytes32"
				},
				{
					"internalType": "enum ResearchVote",
					"name": "vote",
					"type": "uint8"
				}
			],
			"name": "voteOnResearchResult",
			"outputs": [],
			"stateMutability": "nonpayable",
			"type": "function"
		},
		{
			"inputs": [
				{
					"internalType": "uint256",
					"name": "amount",
					"type": "uint256"
				},
				{
					"internalType": "address",
					"name": "to",
					"type": "address"
				}
			],
			"name": "withdraw",
			"outputs": [],
			"stateMutability": "nonpayable",
			"type": "function"
		},
		{
			"stateMutability": "payable",
			"type": "receive"
		}
	]
}