{
	"data": {
		"bytecode": {
			"linkReferences": {
				"src/utils/Utils.sol": {
					"Utils": [
						{
							"length": 20,
							"start": 486
						},
						{
							"length": 20,
							"start": 616
						},
						{
							"length": 20,
							"start": 911
						},
						{
							"length": 20,
							"start": 4263
						},
						{
							"length": 20,
							"start": 5117
						},
						{
							"length": 20,
							"start": 5303
						}
					]
				}
			},
			"object": "608060405234801561001057600080fd5b506161dc80620000216000396000f3fe6080604052600436106100705760003560e01c8063662637351161004e5780636626373514610118578063868e10c41461014157806386b714e214610180578063b163cc38146101ab57610070565b80630cf20cc91461007557806348474f56146100b2578063485cc955146100ef575b600080fd5b34801561008157600080fd5b5061009c60048036038101906100979190613c65565b6101b5565b6040516100a99190613cb4565b60405180910390f35b3480156100be57600080fd5b506100d960048036038101906100d49190613cf4565b6103ef565b6040516100e69190613d69565b60405180910390f35b3480156100fb57600080fd5b5061011660048036038101906101119190613dc2565b610aa8565b005b34801561012457600080fd5b5061013f600480360381019061013a9190613f48565b610c62565b005b34801561014d57600080fd5b5061016860048036038101906101639190613fd1565b610f06565b604051610177939291906140ed565b60405180910390f35b34801561018c57600080fd5b5061019561105b565b6040516101a2919061418a565b60405180910390f35b6101b3611081565b005b600080604051806040016040528073__$b775366deb48fb607c6478532aa64b7c40$__638ce70c68876040518263ffffffff1660e01b81526004016101fa91906141b4565b600060405180830381865af4158015610217573d6000803e3d6000fd5b505050506040513d6000823e3d601f19601f8201168201806040525081019061024091906142a1565b815260200173__$b775366deb48fb607c6478532aa64b7c40$__636f038971866040518263ffffffff1660e01b815260040161027c91906142f9565b600060405180830381865af4158015610299573d6000803e3d6000fd5b505050506040513d6000823e3d601f19601f820116820180604052508101906102c291906143b8565b815250905060006102d282611109565b90506000600160009054906101000a900473ffffffffffffffffffffffffffffffffffffffff1673ffffffffffffffffffffffffffffffffffffffff168560405161031c90614432565b60006040518083038185875af1925050503d8060008114610359576040519150601f19603f3d011682016040523d82523d6000602084013e61035e565b606091505b505090508061036c57600080fd5b73__$b775366deb48fb607c6478532aa64b7c40$__6386113702836040518263ffffffff1660e01b81526004016103a391906144dd565b602060405180830381865af41580156103c0573d6000803e3d6000fd5b505050506040513d601f19601f820116820180604052508101906103e49190614514565b935050505092915050565b600060011515600060029054906101000a900473ffffffffffffffffffffffffffffffffffffffff1673ffffffffffffffffffffffffffffffffffffffff166324d7806c336040518263ffffffff1660e01b81526004016104509190614550565b602060405180830381865afa15801561046d573d6000803e3d6000fd5b505050506040513d601f19601f82011682018060405250810190610491919061456b565b15151461049d57600080fd5b600260048111156104b1576104b0614598565b5b600060029054906101000a900473ffffffffffffffffffffffffffffffffffffffff1673ffffffffffffffffffffffffffffffffffffffff1663a6d1b7b88580600001906104ff91906145d6565b6040518363ffffffff1660e01b815260040161051c929190614666565b602060405180830381865afa158015610539573d6000803e3d6000fd5b505050506040513d601f19601f8201168201806040525081019061055d91906146af565b600481111561056f5761056e614598565b5b148061064a57506003600481111561058a57610589614598565b5b600060029054906101000a900473ffffffffffffffffffffffffffffffffffffffff1673ffffffffffffffffffffffffffffffffffffffff1663a6d1b7b88580600001906105d891906145d6565b6040518363ffffffff1660e01b81526004016105f5929190614666565b602060405180830381865afa158015610612573d6000803e3d6000fd5b505050506040513d601f19601f8201168201806040525081019061063691906146af565b600481111561064857610647614598565b5b145b1561065457600080fd5b60008060029054906101000a900473ffffffffffffffffffffffffffffffffffffffff1673ffffffffffffffffffffffffffffffffffffffff1663e059bb726040518163ffffffff1660e01b8152600401602060405180830381865afa1580156106c2573d6000803e3d6000fd5b505050506040513d601f19601f820116820180604052508101906106e69190614514565b9050600060029054906101000a900473ffffffffffffffffffffffffffffffffffffffff1673ffffffffffffffffffffffffffffffffffffffff166309346948856040518263ffffffff1660e01b81526004016107439190614b3f565b600060405180830381600087803b15801561075d57600080fd5b505af1158015610771573d6000803e3d6000fd5b50505050600083858061012001906107899190614b61565b60405160200161079b93929190614c3c565b60405160208183030381529060405280519060200120905060008060029054906101000a900473ffffffffffffffffffffffffffffffffffffffff1673ffffffffffffffffffffffffffffffffffffffff1663cc6f85d7836040518263ffffffff1660e01b815260040161080f9190613d69565b600060405180830381865afa15801561082c573d6000803e3d6000fd5b505050506040513d6000823e3d601f19601f820116820180604052508101906108559190614e3c565b90508181600001511461086757600080fd5b600060029054906101000a900473ffffffffffffffffffffffffffffffffffffffff1673ffffffffffffffffffffffffffffffffffffffff16630347e8c28385336040518463ffffffff1660e01b81526004016108c693929190614e85565b600060405180830381600087803b1580156108e057600080fd5b505af11580156108f4573d6000803e3d6000fd5b50505050600060029054906101000a900473ffffffffffffffffffffffffffffffffffffffff1673ffffffffffffffffffffffffffffffffffffffff16630230e92787806000019061094691906145d6565b856040518463ffffffff1660e01b815260040161096593929190614ebc565b600060405180830381600087803b15801561097f57600080fd5b505af1158015610993573d6000803e3d6000fd5b50505050600060029054906101000a900473ffffffffffffffffffffffffffffffffffffffff1673ffffffffffffffffffffffffffffffffffffffff1663d15bcbe38780600001906109e591906145d6565b60016040518463ffffffff1660e01b8152600401610a0593929190614f36565b600060405180830381600087803b158015610a1f57600080fd5b505af1158015610a33573d6000803e3d6000fd5b50505050856040016020810190610a4a9190614f68565b1515827ffd6419d07e4c269e58d0c63969756c2124155b4a8d6dd08b8cd46e3a9acbf625886020016020810190610a819190614f95565b8960c00135604051610a94929190614fc2565b60405180910390a381935050505092915050565b60008060019054906101000a900460ff16159050808015610ad95750600160008054906101000a900460ff1660ff16105b80610b065750610ae830611149565b158015610b055750600160008054906101000a900460ff1660ff16145b5b610b45576040517f08c379a0000000000000000000000000000000000000000000000000000000008152600401610b3c9061506e565b60405180910390fd5b60016000806101000a81548160ff021916908360ff1602179055508015610b82576001600060016101000a81548160ff0219169083151502179055505b82600060026101000a81548173ffffffffffffffffffffffffffffffffffffffff021916908373ffffffffffffffffffffffffffffffffffffffff16021790555081600160006101000a81548173ffffffffffffffffffffffffffffffffffffffff021916908373ffffffffffffffffffffffffffffffffffffffff1602179055508015610c5d5760008060016101000a81548160ff0219169083151502179055507f7f26b83ff96e1f2b6a682f133852f6798a09c465da95921460cefb38474024986001604051610c5491906150d6565b60405180910390a15b505050565b60008060029054906101000a900473ffffffffffffffffffffffffffffffffffffffff1673ffffffffffffffffffffffffffffffffffffffff16630a0e0c91836040518263ffffffff1660e01b8152600401610cbe91906150f1565b602060405180830381865afa158015610cdb573d6000803e3d6000fd5b505050506040513d601f19601f82011682018060405250810190610cff9190615128565b67ffffffffffffffff1611610d1357600080fd5b6000610db9600060029054906101000a900473ffffffffffffffffffffffffffffffffffffffff1673ffffffffffffffffffffffffffffffffffffffff16630a0e0c91846040518263ffffffff1660e01b8152600401610d7391906150f1565b602060405180830381865afa158015610d90573d6000803e3d6000fd5b505050506040513d601f19601f82011682018060405250810190610db49190615128565b61116c565b90506000816020015160070b1315610e6057600060029054906101000a900473ffffffffffffffffffffffffffffffffffffffff1673ffffffffffffffffffffffffffffffffffffffff1663d15bcbe38360046040518363ffffffff1660e01b8152600401610e29929190615155565b600060405180830381600087803b158015610e4357600080fd5b505af1158015610e57573d6000803e3d6000fd5b50505050610f02565b6000816000015160070b1315610f0157600060029054906101000a900473ffffffffffffffffffffffffffffffffffffffff1673ffffffffffffffffffffffffffffffffffffffff1663d15bcbe38360036040518363ffffffff1660e01b8152600401610ece929190615155565b600060405180830381600087803b158015610ee857600080fd5b505af1158015610efc573d6000803e3d6000fd5b505050505b5b5050565b6000806060806000639d8b067867ffffffffffffffff168867ffffffffffffffff1603610f6d57610f36866111b7565b6000610f426001611523565b9050610f5860018261154a90919063ffffffff16565b610f6181611566565b92506051915050611046565b63f98c996667ffffffffffffffff168867ffffffffffffffff1603610f9a57610f95866115bf565b611045565b63de180de367ffffffffffffffff168867ffffffffffffffff160361103f5773ff0000000000000000000000000000000000000773ffffffffffffffffffffffffffffffffffffffff163373ffffffffffffffffffffffffffffffffffffffff161461100557600080fd5b7f10aa319ed8cad9bceb033c0c2788c4ae17469ac844e4c6e2c2e20e74ca8a7be8604051611032906151d1565b60405180910390a1611044565b600080fd5b5b5b60008183945094509450505093509350939050565b600060029054906101000a900473ffffffffffffffffffffffffffffffffffffffff1681565b61110773__$b775366deb48fb607c6478532aa64b7c40$__638ce70c68306040518263ffffffff1660e01b81526004016110bb91906141b4565b600060405180830381865af41580156110d8573d6000803e3d6000fd5b505050506040513d6000823e3d601f19601f8201168201806040525081019061110191906142a1565b3461196f565b565b611111613a11565b600061111c836119d6565b9050600061113560056387ed0a64605185600080611a97565b905061114081611bbd565b92505050919050565b6000808273ffffffffffffffffffffffffffffffffffffffff163b119050919050565b611174613a2d565b60006111898367ffffffffffffffff16611c79565b905060006111a36005639904f2ff60518560006001611a97565b90506111ae81611cc4565b92505050919050565b73ff0000000000000000000000000000000000000573ffffffffffffffffffffffffffffffffffffffff163373ffffffffffffffffffffffffffffffffffffffff161461120357600080fd5b600061120e82611d4e565b9050600061121f8260200151611dca565b90506000816000015160000151905060008060029054906101000a900473ffffffffffffffffffffffffffffffffffffffff1673ffffffffffffffffffffffffffffffffffffffff1663f44a8903836040518263ffffffff1660e01b815260040161128a91906150f1565b6040805180830381865afa1580156112a6573d6000803e3d6000fd5b505050506040513d601f19601f820116820180604052508101906112ca9190615241565b9050806020015115806112de575080602001515b156112e857600080fd5b60008060029054906101000a900473ffffffffffffffffffffffffffffffffffffffff1673ffffffffffffffffffffffffffffffffffffffff1663342c89b483600001516040518263ffffffff1660e01b81526004016113489190613d69565b600060405180830381865afa158015611365573d6000803e3d6000fd5b505050506040513d6000823e3d601f19601f8201168201806040525081019061138e91906154a9565b90508060400151151584604001511515146113d5576040517f7f7cebf700000000000000000000000000000000000000000000000000000000815260040160405180910390fd5b8060c0015173__$b775366deb48fb607c6478532aa64b7c40$__63861137028661010001516040518263ffffffff1660e01b815260040161141691906144dd565b602060405180830381865af4158015611433573d6000803e3d6000fd5b505050506040513d601f19601f820116820180604052508101906114579190614514565b1061148e576040517fdaabd97200000000000000000000000000000000000000000000000000000000815260040160405180910390fd5b80610100015173__$b775366deb48fb607c6478532aa64b7c40$__63861137028661014001516040518263ffffffff1660e01b81526004016114d091906144dd565b602060405180830381865af41580156114ed573d6000803e3d6000fd5b505050506040513d601f19601f820116820180604052508101906115119190614514565b1061151b57600080fd5b505050505050565b61152b613a4d565b611539816000015183611fd5565b506000816020018181525050919050565b611562828261155a57601461155d565b60155b61204e565b5050565b606060008260200151146115af576040517f08c379a00000000000000000000000000000000000000000000000000000000081526004016115a69061553e565b60405180910390fd5b8160000151600001519050919050565b73ff0000000000000000000000000000000000000573ffffffffffffffffffffffffffffffffffffffff163373ffffffffffffffffffffffffffffffffffffffff161461160b57600080fd5b600061161682612074565b905060006116278260000151611dca565b905060008060029054906101000a900473ffffffffffffffffffffffffffffffffffffffff1673ffffffffffffffffffffffffffffffffffffffff1663f44a89038360000151600001516040518263ffffffff1660e01b815260040161168d91906150f1565b6040805180830381865afa1580156116a9573d6000803e3d6000fd5b505050506040513d601f19601f820116820180604052508101906116cd9190615241565b9050806020015115806116e1575080602001515b156116eb57600080fd5b600060029054906101000a900473ffffffffffffffffffffffffffffffffffffffff1673ffffffffffffffffffffffffffffffffffffffff1663fb2a0b3283600001516000015160405180604001604052808660800151600001518152602001600115158152506040518363ffffffff1660e01b815260040161176f9291906155d4565b600060405180830381600087803b15801561178957600080fd5b505af115801561179d573d6000803e3d6000fd5b50505050600060029054906101000a900473ffffffffffffffffffffffffffffffffffffffff1673ffffffffffffffffffffffffffffffffffffffff16639aa09dfe83600001516000015185602001516040518363ffffffff1660e01b815260040161180a92919061560b565b600060405180830381600087803b15801561182457600080fd5b505af1158015611838573d6000803e3d6000fd5b50505050600060029054906101000a900473ffffffffffffffffffffffffffffffffffffffff1673ffffffffffffffffffffffffffffffffffffffff1663d15bcbe383600001516000015160026040518363ffffffff1660e01b81526004016118a2929190615155565b600060405180830381600087803b1580156118bc57600080fd5b505af11580156118d0573d6000803e3d6000fd5b50505050600060029054906101000a900473ffffffffffffffffffffffffffffffffffffffff1673ffffffffffffffffffffffffffffffffffffffff166385271d9b8360000151600001516040518263ffffffff1660e01b815260040161193791906150f1565b600060405180830381600087803b15801561195157600080fd5b505af1158015611965573d6000803e3d6000fd5b5050505050505050565b600061197a83612105565b905060006119936005633105f1a6605185876000611a97565b905060008151146119d0576040517f0e74990700000000000000000000000000000000000000000000000000000000815260040160405180910390fd5b50505050565b60606000806119e8846020015161214e565b90506119f460026122bb565b826119ff919061566a565b9150611a1284600001516000015161230f565b82611a1d919061566a565b9150611a288161230f565b82611a33919061566a565b91506000611a408361232e565b9050611a5660028261235590919063ffffffff16565b611a718560000151600001518261236590919063ffffffff16565b611a84828261236590919063ffffffff16565b611a8d8161238e565b9350505050919050565b6060611ab773fe00000000000000000000000000000000000005846123e7565b60008073fe0000000000000000000000000000000000000573ffffffffffffffffffffffffffffffffffffffff16888686611af3576000611af6565b60015b8a8a8e604051602001611b0e969594939291906156cf565b604051602081830303815290604052604051611b2a9190615768565b600060405180830381855af49150503d8060008114611b65576040519150601f19603f3d011682016040523d82523d6000602084013e611b6a565b606091505b509150915081611ba6576040517f8a7db5bf00000000000000000000000000000000000000000000000000000000815260040160405180910390fd5b611baf8161247d565b925050509695505050505050565b611bc5613a11565b606060008084511115611c0a57611be5818561260490919063ffffffff16565b8092508193505050600082511115611c0957611c00826127e0565b92505050611c74565b5b6040518060400160405280600067ffffffffffffffff811115611c3057611c2f613e1d565b5b6040519080825280601f01601f191660200182016040528015611c625781602001600182028036833780820191505090505b50815260200160001515815250925050505b919050565b60606000611c908367ffffffffffffffff166122bb565b90506000611c9d8261232e565b9050611cb2848261298790919063ffffffff16565b611cbb8161238e565b92505050919050565b611ccc613a2d565b600080611ce2828561299790919063ffffffff16565b809350819250505060028114611cfb57611cfa61577f565b5b611d0e8285612a1890919063ffffffff16565b846000018194508260070b60070b8152505050611d348285612a1890919063ffffffff16565b846020018194508260070b60070b81525050505050919050565b611d56613a6d565b600080611d6c828561299790919063ffffffff16565b809350819250505060028114611d8557611d8461577f565b5b611d98828561260490919063ffffffff16565b846000018194508290525050611db7828561260490919063ffffffff16565b8460200181945082905250505050919050565b611dd2613a87565b6000806060611dea838661299790919063ffffffff16565b8094508193505050600b8214611e0357611e0261577f565b5b611e168386612a4690919063ffffffff16565b856000018195508290525050611e358386612cc090919063ffffffff16565b856020018195508267ffffffffffffffff1667ffffffffffffffff168152505050611e698386612d4190919063ffffffff16565b8560400181955082151515158152505050611e8d838661260490919063ffffffff16565b8094508192505050611e9e81612deb565b8460600181905250611eb9838661260490919063ffffffff16565b8094508192505050611eca81612deb565b8460800181905250611ee58386612e4e90919063ffffffff16565b8560a0018195508290525050611f048386612a1890919063ffffffff16565b8560c0018195508260070b60070b8152505050611f2a8386612a1890919063ffffffff16565b8560e0018195508260070b60070b81525050506060611f52848761260490919063ffffffff16565b8095508192505050611f63816127e0565b8561010001819052506060611f81858861260490919063ffffffff16565b8096508192505050611f92816127e0565b8661012001819052506060611fb0868961260490919063ffffffff16565b8097508192505050611fc1816127e0565b876101400181905250505050505050919050565b611fdd613b1d565b6000602083611fec91906157dd565b1461201857602082611ffe91906157dd565b602061200a919061580e565b82612015919061566a565b91505b81836020018181525050604051808452600081528281016020018181101561203f57600080fd5b80604052505082905092915050565b61206f816005600760ff16901b17836000015161300690919063ffffffff16565b505050565b61207c613b37565b600080612092828561299790919063ffffffff16565b8093508192505050600281146120ab576120aa61577f565b5b6120be828561260490919063ffffffff16565b8460000181945082905250506120dd8285612cc090919063ffffffff16565b846020018194508267ffffffffffffffff1667ffffffffffffffff1681525050505050919050565b60606000612116836000015161230f565b905060006121238261232e565b905061213c84600001518261236590919063ffffffff16565b6121458161238e565b92505050919050565b606060006001836000015151612164919061566a565b67ffffffffffffffff81111561217d5761217c613e1d565b5b6040519080825280601f01601f1916602001820160405280156121af5781602001600182028036833780820191505090505b5090506001151583602001511515146121cc57600060f81b6121d2565b600160f81b5b816000815181106121e6576121e5615842565b5b60200101907effffffffffffffffffffffffffffffffffffffffffffffffffffffffffffff1916908160001a90535060006001905060005b8460000151518110156122b0578460000151818151811061224257612241615842565b5b602001015160f81c60f81b8383815181106122605761225f615842565b5b60200101907effffffffffffffffffffffffffffffffffffffffffffffffffffffffffffff1916908160001a905350818061229a90615871565b92505080806122a890615871565b91505061221e565b508192505050919050565b6000601782116122ce576001905061230a565b60ff82116122df576002905061230a565b61ffff82116122f1576003905061230a565b63ffffffff8211612305576005905061230a565b600990505b919050565b6000815161231d83516122bb565b612327919061566a565b9050919050565b612336613b5b565b612344816000015183611fd5565b506000816020018181525050919050565b61236182600483613070565b5050565b6123728260028351613080565b61238981836000015161322990919063ffffffff16565b505050565b606060008260200151146123d7576040517f08c379a00000000000000000000000000000000000000000000000000000000081526004016123ce9061553e565b60405180910390fd5b8160000151600001519050919050565b6000479050818110156124335780826040517f8f0f420600000000000000000000000000000000000000000000000000000000815260040161242a9291906158b9565b60405180910390fd5b600061243e84613245565b905080612477576040517f64d954b000000000000000000000000000000000000000000000000000000000815260040160405180910390fd5b50505050565b60606000806000848060200190518101906124989190615918565b925092509250600067ffffffffffffffff168267ffffffffffffffff16036124fa5760008151146124f5576040517f0e74990700000000000000000000000000000000000000000000000000000000815260040160405180910390fd5b6125b4565b605167ffffffffffffffff168267ffffffffffffffff1614806125315750607167ffffffffffffffff168267ffffffffffffffff16145b15612576576000815103612571576040517f0e74990700000000000000000000000000000000000000000000000000000000815260040160405180910390fd5b6125b3565b816040517ff1f6bced0000000000000000000000000000000000000000000000000000000081526004016125aa9190615987565b60405180910390fd5b5b600083146125f957826040517fd4bb66710000000000000000000000000000000000000000000000000000000081526004016125f091906159b1565b60405180910390fd5b809350505050919050565b60606000806000612615868661325b565b8167ffffffffffffffff169150809750819350829450505050600660ff168260ff1614806126495750600260ff168260ff16145b612688576040517f08c379a000000000000000000000000000000000000000000000000000000000815260040161267f90615a3e565b60405180910390fd5b600660ff168260ff16036126d1576126a0868661325b565b8167ffffffffffffffff169150809750819350829450505050600260ff168260ff16146126d0576126cf61577f565b5b5b600081866126df919061566a565b905060008267ffffffffffffffff8111156126fd576126fc613e1d565b5b6040519080825280601f01601f19166020018201604052801561272f5781602001600182028036833780820191505090505b5090506000808890505b838110156127c25789818151811061275457612753615842565b5b602001015160f81c60f81b83838151811061277257612771615842565b5b60200101907effffffffffffffffffffffffffffffffffffffffffffffffffffffffffffff1916908160001a90535081806127ac90615871565b92505080806127ba90615871565b915050612739565b508184896127d0919061566a565b9650965050505050509250929050565b6127e8613a11565b600082510361282657604051806040016040528060405180604001604052806001815260200160008152508152602001600015158152509050612982565b600060018351612836919061580e565b67ffffffffffffffff81111561284f5761284e613e1d565b5b6040519080825280601f01601f1916602001820160405280156128815781602001600182028036833780820191505090505b5090506000600160f81b8460008151811061289f5761289e615842565b5b602001015160f81c60f81b7effffffffffffffffffffffffffffffffffffffffffffffffffffffffffffff1916036128d657600190505b6000600190505b8451811015612965578481815181106128f9576128f8615842565b5b602001015160f81c60f81b83600183612912919061580e565b8151811061292357612922615842565b5b60200101907effffffffffffffffffffffffffffffffffffffffffffffffffffffffffffff1916908160001a905350808061295d90615871565b9150506128dd565b506040518060400160405280838152602001821515815250925050505b919050565b61299382600083613080565b5050565b6000806000806129a7868661325b565b8167ffffffffffffffff169150809750819350829450505050600460ff168260ff1614612a09576040517f08c379a0000000000000000000000000000000000000000000000000000000008152600401612a0090615aaa565b60405180910390fd5b80859350935050509250929050565b6000806000612a30848661344d90919063ffffffff16565b8095508192505050808492509250509250929050565b612a4e613b7b565b6000806000612a66858761325b90919063ffffffff16565b8167ffffffffffffffff169150809750819350829450505050600660ff168260ff1614612ac8576040517f08c379a0000000000000000000000000000000000000000000000000000000008152600401612abf90615b3c565b60405180910390fd5b602a60ff168114612b0e576040517f08c379a0000000000000000000000000000000000000000000000000000000008152600401612b0590615ba8565b60405180910390fd5b6060612b23868861260490919063ffffffff16565b8097508192505050600060f81b81600081518110612b4457612b43615842565b5b602001015160f81c60f81b7effffffffffffffffffffffffffffffffffffffffffffffffffffffffffffff191614612bb1576040517f08c379a0000000000000000000000000000000000000000000000000000000008152600401612ba890615c3a565b60405180910390fd5b612bb9613b7b565b60018251612bc7919061580e565b67ffffffffffffffff811115612be057612bdf613e1d565b5b6040519080825280601f01601f191660200182016040528015612c125781602001600182028036833780820191505090505b5081600001819052506000600190505b8251811015612cae57828181518110612c3e57612c3d615842565b5b602001015160f81c60f81b8260000151600183612c5b919061580e565b81518110612c6c57612c6b615842565b5b60200101907effffffffffffffffffffffffffffffffffffffffffffffffffffffffffffff1916908160001a9053508080612ca690615871565b915050612c22565b50808795509550505050509250929050565b600080600080612cd0868661325b565b8167ffffffffffffffff169150809750819350829450505050600060ff168260ff1614612d32576040517f08c379a0000000000000000000000000000000000000000000000000000000008152600401612d2990615ccc565b60405180910390fd5b80859350935050509250929050565b600080600080612d51868661325b565b8167ffffffffffffffff169150809750819350829450505050600760ff168260ff1614612db3576040517f08c379a0000000000000000000000000000000000000000000000000000000008152600401612daa90615d38565b60405180910390fd5b601560ff16811480612dc85750601460ff1681145b612dd557612dd461577f565b5b601460ff16811415859350935050509250929050565b612df3613b8e565b60006040518060200160405280848152509050612e0f816134df565b612e45576040517fe6c4247b00000000000000000000000000000000000000000000000000000000815260040160405180910390fd5b80915050919050565b612e56613ba1565b6000806000612e65868661325b565b8167ffffffffffffffff169150809750819350829450505050600260ff168260ff161480612e995750600360ff168260ff16145b612ed8576040517f08c379a0000000000000000000000000000000000000000000000000000000008152600401612ecf90615dca565b60405180910390fd5b60008186612ee6919061566a565b905060008267ffffffffffffffff811115612f0457612f03613e1d565b5b6040519080825280601f01601f191660200182016040528015612f365781602001600182028036833780820191505090505b5090506000808890505b83811015612fc957898181518110612f5b57612f5a615842565b5b602001015160f81c60f81b838381518110612f7957612f78615842565b5b60200101907effffffffffffffffffffffffffffffffffffffffffffffffffffffffffffff1916908160001a9053508180612fb390615871565b9250508080612fc190615871565b915050612f40565b506040518060400160405280838152602001600360ff168760ff161415158152508489612ff6919061566a565b9650965050505050509250929050565b61300e613b1d565b600083600001515190506000600182613027919061566a565b90508460200151821061304b5761304a856002836130459190615dea565b6136c4565b5b84516020838201018581538151831115613063578282525b5050849250505092915050565b61307b838383613080565b505050565b60178167ffffffffffffffff16116130bb576130b58160058460ff16901b60ff1617846000015161300690919063ffffffff16565b50613224565b60ff8167ffffffffffffffff1611613119576130ee601860058460ff16901b17846000015161300690919063ffffffff16565b506131138167ffffffffffffffff16600185600001516136e89092919063ffffffff16565b50613223565b61ffff8167ffffffffffffffff16116131785761314d601960058460ff16901b17846000015161300690919063ffffffff16565b506131728167ffffffffffffffff16600285600001516136e89092919063ffffffff16565b50613222565b63ffffffff8167ffffffffffffffff16116131d9576131ae601a60058460ff16901b17846000015161300690919063ffffffff16565b506131d38167ffffffffffffffff16600485600001516136e89092919063ffffffff16565b50613221565b6131fa601b60058460ff16901b17846000015161300690919063ffffffff16565b5061321f8167ffffffffffffffff16600885600001516136e89092919063ffffffff16565b505b5b5b5b505050565b613231613b1d565b61323d83838451613775565b905092915050565b600080823f90506000801b811415915050919050565b60008060008061326b8686613858565b905060018561327a919061566a565b94506000600560e0831660ff16901c90506000601f83169050601c8160ff16106132d9576040517f08c379a00000000000000000000000000000000000000000000000000000000081526004016132d090615e9e565b60405180910390fd5b60188160ff1610156132fc578181888160ff169150955095509550505050613446565b60188160ff16036133835760006133138989613858565b9050600188613322919061566a565b975060188160ff16101561336b576040517f08c379a000000000000000000000000000000000000000000000000000000000815260040161336290615f0a565b60405180910390fd5b8281898160ff16915096509650965050505050613446565b60198160ff16036133c457600061339a89896138d3565b90506002886133a9919061566a565b97508281898161ffff16915096509650965050505050613446565b601a8160ff16036134075760006133db898961393d565b90506004886133ea919061566a565b97508281898163ffffffff16915096509650965050505050613446565b601b8160ff161461341b5761341a61577f565b5b600061342789896139a7565b9050600888613436919061566a565b9750828189965096509650505050505b9250925092565b60008060008061345d868661325b565b8167ffffffffffffffff169150809750819350829450505050600160ff168260ff1614806134915750600060ff168260ff16145b6134d0576040517f08c379a00000000000000000000000000000000000000000000000000000000081526004016134c790615f9c565b60405180910390fd5b80859350935050509250929050565b60008060f81b82600001516000815181106134fd576134fc615842565b5b602001015160f81c60f81b7effffffffffffffffffffffffffffffffffffffffffffffffffffffffffffff19160361354057600a826000015151111590506136bf565b600160f81b826000015160008151811061355d5761355c615842565b5b602001015160f81c60f81b7effffffffffffffffffffffffffffffffffffffffffffffffffffffffffffff191614806135dd5750600260f81b82600001516000815181106135ae576135ad615842565b5b602001015160f81c60f81b7effffffffffffffffffffffffffffffffffffffffffffffffffffffffffffff1916145b156135f25760158260000151511490506136bf565b600360f81b826000015160008151811061360f5761360e615842565b5b602001015160f81c60f81b7effffffffffffffffffffffffffffffffffffffffffffffffffffffffffffff1916036136515760318260000151511490506136bf565b600460f81b826000015160008151811061366e5761366d615842565b5b602001015160f81c60f81b7effffffffffffffffffffffffffffffffffffffffffffffffffffffffffffff1916036136b1576040826000015151111590506136bf565b610100826000015151111590505b919050565b6000826000015190506136d78383611fd5565b506136e28382613229565b50505050565b6136f0613b1d565b6000846000015151905060008184613708919061566a565b9050856020015181111561372d5761372c866002836137279190615dea565b6136c4565b5b600060018561010061373f91906160ef565b613749919061580e565b905086518281018783198251161781528151841115613766578382525b50508693505050509392505050565b61377d613b1d565b825182111561378b57600080fd5b60008460000151519050600083826137a3919061566a565b905085602001518111156137c8576137c7866002836137c29190615dea565b6136c4565b5b600080875180518560208301019350808511156137e3578482525b60208901925050505b6020861061382a5780518252602082613805919061566a565b9150602081613814919061566a565b9050602086613823919061580e565b95506137ec565b60006001876020036101000a0390508019825116818451168181178552505050879450505050509392505050565b6000600182613867919061566a565b835110156138aa576040517f08c379a00000000000000000000000000000000000000000000000000000000081526004016138a190616186565b60405180910390fd5b8282815181106138bd576138bc615842565b5b602001015160f81c60f81b60f81c905092915050565b60006002826138e2919061566a565b83511015613925576040517f08c379a000000000000000000000000000000000000000000000000000000000815260040161391c90616186565b60405180910390fd5b60008260200184015190508060f01c91505092915050565b600060048261394c919061566a565b8351101561398f576040517f08c379a000000000000000000000000000000000000000000000000000000000815260040161398690616186565b60405180910390fd5b60008260200184015190508060e01c91505092915050565b60006008826139b6919061566a565b835110156139f9576040517f08c379a00000000000000000000000000000000000000000000000000000000081526004016139f090616186565b60405180910390fd5b60008260200184015190508060c01c91505092915050565b6040518060400160405280606081526020016000151581525090565b6040518060400160405280600060070b8152602001600060070b81525090565b6040518060400160405280613a60613b1d565b8152602001600081525090565b604051806040016040528060608152602001606081525090565b604051806101600160405280613a9b613b7b565b8152602001600067ffffffffffffffff168152602001600015158152602001613ac2613b8e565b8152602001613acf613b8e565b8152602001613adc613ba1565b8152602001600060070b8152602001600060070b8152602001613afd613a11565b8152602001613b0a613a11565b8152602001613b17613a11565b81525090565b604051806040016040528060608152602001600081525090565b604051806040016040528060608152602001600067ffffffffffffffff1681525090565b6040518060400160405280613b6e613b1d565b8152602001600081525090565b6040518060200160405280606081525090565b6040518060200160405280606081525090565b6040518060400160405280606081526020016000151581525090565b6000604051905090565b600080fd5b600080fd5b600073ffffffffffffffffffffffffffffffffffffffff82169050919050565b6000613bfc82613bd1565b9050919050565b613c0c81613bf1565b8114613c1757600080fd5b50565b600081359050613c2981613c03565b92915050565b6000819050919050565b613c4281613c2f565b8114613c4d57600080fd5b50565b600081359050613c5f81613c39565b92915050565b60008060408385031215613c7c57613c7b613bc7565b5b6000613c8a85828601613c1a565b9250506020613c9b85828601613c50565b9150509250929050565b613cae81613c2f565b82525050565b6000602082019050613cc96000830184613ca5565b92915050565b600080fd5b60006101808284031215613ceb57613cea613ccf565b5b81905092915050565b60008060408385031215613d0b57613d0a613bc7565b5b600083013567ffffffffffffffff811115613d2957613d28613bcc565b5b613d3585828601613cd4565b9250506020613d4685828601613c1a565b9150509250929050565b6000819050919050565b613d6381613d50565b82525050565b6000602082019050613d7e6000830184613d5a565b92915050565b6000613d8f82613bf1565b9050919050565b613d9f81613d84565b8114613daa57600080fd5b50565b600081359050613dbc81613d96565b92915050565b60008060408385031215613dd957613dd8613bc7565b5b6000613de785828601613dad565b9250506020613df885828601613c1a565b9150509250929050565b600080fd5b600080fd5b6000601f19601f8301169050919050565b7f4e487b7100000000000000000000000000000000000000000000000000000000600052604160045260246000fd5b613e5582613e0c565b810181811067ffffffffffffffff82111715613e7457613e73613e1d565b5b80604052505050565b6000613e87613bbd565b9050613e938282613e4c565b919050565b600067ffffffffffffffff821115613eb357613eb2613e1d565b5b613ebc82613e0c565b9050602081019050919050565b82818337600083830152505050565b6000613eeb613ee684613e98565b613e7d565b905082815260208101848484011115613f0757613f06613e07565b5b613f12848285613ec9565b509392505050565b600082601f830112613f2f57613f2e613e02565b5b8135613f3f848260208601613ed8565b91505092915050565b600060208284031215613f5e57613f5d613bc7565b5b600082013567ffffffffffffffff811115613f7c57613f7b613bcc565b5b613f8884828501613f1a565b91505092915050565b600067ffffffffffffffff82169050919050565b613fae81613f91565b8114613fb957600080fd5b50565b600081359050613fcb81613fa5565b92915050565b600080600060608486031215613fea57613fe9613bc7565b5b6000613ff886828701613fbc565b935050602061400986828701613fbc565b925050604084013567ffffffffffffffff81111561402a57614029613bcc565b5b61403686828701613f1a565b9150509250925092565b600063ffffffff82169050919050565b61405981614040565b82525050565b61406881613f91565b82525050565b600081519050919050565b600082825260208201905092915050565b60005b838110156140a857808201518184015260208101905061408d565b60008484015250505050565b60006140bf8261406e565b6140c98185614079565b93506140d981856020860161408a565b6140e281613e0c565b840191505092915050565b60006060820190506141026000830186614050565b61410f602083018561405f565b818103604083015261412181846140b4565b9050949350505050565b6000819050919050565b600061415061414b61414684613bd1565b61412b565b613bd1565b9050919050565b600061416282614135565b9050919050565b600061417482614157565b9050919050565b61418481614169565b82525050565b600060208201905061419f600083018461417b565b92915050565b6141ae81613bf1565b82525050565b60006020820190506141c960008301846141a5565b92915050565b600080fd5b600080fd5b60006141ec6141e784613e98565b613e7d565b90508281526020810184848401111561420857614207613e07565b5b61421384828561408a565b509392505050565b600082601f8301126142305761422f613e02565b5b81516142408482602086016141d9565b91505092915050565b60006020828403121561425f5761425e6141cf565b5b6142696020613e7d565b9050600082015167ffffffffffffffff811115614289576142886141d4565b5b6142958482850161421b565b60008301525092915050565b6000602082840312156142b7576142b6613bc7565b5b600082015167ffffffffffffffff8111156142d5576142d4613bcc565b5b6142e184828501614249565b91505092915050565b6142f381613c2f565b82525050565b600060208201905061430e60008301846142ea565b92915050565b60008115159050919050565b61432981614314565b811461433457600080fd5b50565b60008151905061434681614320565b92915050565b600060408284031215614362576143616141cf565b5b61436c6040613e7d565b9050600082015167ffffffffffffffff81111561438c5761438b6141d4565b5b6143988482850161421b565b60008301525060206143ac84828501614337565b60208301525092915050565b6000602082840312156143ce576143cd613bc7565b5b600082015167ffffffffffffffff8111156143ec576143eb613bcc565b5b6143f88482850161434c565b91505092915050565b600081905092915050565b50565b600061441c600083614401565b91506144278261440c565b600082019050919050565b600061443d8261440f565b9150819050919050565b600082825260208201905092915050565b60006144638261406e565b61446d8185614447565b935061447d81856020860161408a565b61448681613e0c565b840191505092915050565b61449a81614314565b82525050565b600060408301600083015184820360008601526144bd8282614458565b91505060208301516144d26020860182614491565b508091505092915050565b600060208201905081810360008301526144f781846144a0565b905092915050565b60008151905061450e81613c39565b92915050565b60006020828403121561452a57614529613bc7565b5b6000614538848285016144ff565b91505092915050565b61454a81613bf1565b82525050565b60006020820190506145656000830184614541565b92915050565b60006020828403121561458157614580613bc7565b5b600061458f84828501614337565b91505092915050565b7f4e487b7100000000000000000000000000000000000000000000000000000000600052602160045260246000fd5b600080fd5b600080fd5b600080fd5b600080833560016020038436030381126145f3576145f26145c7565b5b80840192508235915067ffffffffffffffff821115614615576146146145cc565b5b602083019250600182023603831315614631576146306145d1565b5b509250929050565b60006146458385614079565b9350614652838584613ec9565b61465b83613e0c565b840190509392505050565b60006020820190508181036000830152614681818486614639565b90509392505050565b6005811061469757600080fd5b50565b6000815190506146a98161468a565b92915050565b6000602082840312156146c5576146c4613bc7565b5b60006146d38482850161469a565b91505092915050565b600080fd5b600080fd5b600080fd5b60008083356001602003843603038112614708576147076146e6565b5b83810192508235915060208301925067ffffffffffffffff8211156147305761472f6146dc565b5b600182023603831315614746576147456146e1565b5b509250929050565b600082825260208201905092915050565b600061476b838561474e565b9350614778838584613ec9565b61478183613e0c565b840190509392505050565b600061479b6020840184613fbc565b905092915050565b6147ac81613f91565b82525050565b6000813590506147c181614320565b92915050565b60006147d660208401846147b2565b905092915050565b6147e781614314565b82525050565b6000808335600160200384360303811261480a576148096146e6565b5b83810192508235915060208301925067ffffffffffffffff821115614832576148316146dc565b5b600182023603831315614848576148476146e1565b5b509250929050565b600082825260208201905092915050565b600061486d8385614850565b935061487a838584613ec9565b61488383613e0c565b840190509392505050565b60008160070b9050919050565b6148a48161488e565b81146148af57600080fd5b50565b6000813590506148c18161489b565b92915050565b60006148d660208401846148b2565b905092915050565b6148e78161488e565b82525050565b60006148fc6020840184613c50565b905092915050565b61490d81613c2f565b82525050565b60008235600160800383360303811261492f5761492e6146e6565b5b82810191505092915050565b60006080830161494e60008401846147ed565b8583036000870152614961838284614861565b92505050614972602084018461478c565b61497f60208601826147a3565b5061498d60408401846147c7565b61499a60408601826147de565b506149a860608401846147c7565b6149b560608601826147de565b508091505092915050565b600061018083016149d460008401846146eb565b85830360008701526149e783828461475f565b925050506149f8602084018461478c565b614a0560208601826147a3565b50614a1360408401846147c7565b614a2060408601826147de565b50614a2e60608401846147ed565b8583036060870152614a41838284614861565b92505050614a5260808401846148c7565b614a5f60808601826148de565b50614a6d60a08401846148c7565b614a7a60a08601826148de565b50614a8860c08401846148ed565b614a9560c0860182614904565b50614aa360e08401846148ed565b614ab060e0860182614904565b50614abf6101008401846148ed565b614acd610100860182614904565b50614adc6101208401846147ed565b858303610120870152614af0838284614861565b92505050614b0261014084018461478c565b614b106101408601826147a3565b50614b1f610160840184614913565b848203610160860152614b32828261493b565b9150508091505092915050565b60006020820190508181036000830152614b5981846149c0565b905092915050565b60008083356001602003843603038112614b7e57614b7d6145c7565b5b80840192508235915067ffffffffffffffff821115614ba057614b9f6145cc565b5b602083019250600182023603831315614bbc57614bbb6145d1565b5b509250929050565b60008160601b9050919050565b6000614bdc82614bc4565b9050919050565b6000614bee82614bd1565b9050919050565b614c06614c0182613bf1565b614be3565b82525050565b600081905092915050565b6000614c238385614c0c565b9350614c30838584613ec9565b82840190509392505050565b6000614c488286614bf5565b601482019150614c59828486614c17565b9150819050949350505050565b614c6f81613d50565b8114614c7a57600080fd5b50565b600081519050614c8c81614c66565b92915050565b600081519050614ca181613c03565b92915050565b600067ffffffffffffffff821115614cc257614cc1613e1d565b5b614ccb82613e0c565b9050602081019050919050565b6000614ceb614ce684614ca7565b613e7d565b905082815260208101848484011115614d0757614d06613e07565b5b614d1284828561408a565b509392505050565b600082601f830112614d2f57614d2e613e02565b5b8151614d3f848260208601614cd8565b91505092915050565b600060c08284031215614d5e57614d5d6141cf565b5b614d6860c0613e7d565b90506000614d7884828501614c7d565b6000830152506020614d8c84828501614c92565b602083015250604082015167ffffffffffffffff811115614db057614daf6141d4565b5b614dbc84828501614d1a565b604083015250606082015167ffffffffffffffff811115614de057614ddf6141d4565b5b614dec84828501614d1a565b606083015250608082015167ffffffffffffffff811115614e1057614e0f6141d4565b5b614e1c84828501614d1a565b60808301525060a0614e30848285016144ff565b60a08301525092915050565b600060208284031215614e5257614e51613bc7565b5b600082015167ffffffffffffffff811115614e7057614e6f613bcc565b5b614e7c84828501614d48565b91505092915050565b6000606082019050614e9a6000830186613d5a565b614ea76020830185613ca5565b614eb46040830184614541565b949350505050565b60006040820190508181036000830152614ed7818587614639565b9050614ee66020830184613d5a565b949350505050565b60058110614eff57614efe614598565b5b50565b6000819050614f1082614eee565b919050565b6000614f2082614f02565b9050919050565b614f3081614f15565b82525050565b60006040820190508181036000830152614f51818587614639565b9050614f606020830184614f27565b949350505050565b600060208284031215614f7e57614f7d613bc7565b5b6000614f8c848285016147b2565b91505092915050565b600060208284031215614fab57614faa613bc7565b5b6000614fb984828501613fbc565b91505092915050565b6000604082019050614fd7600083018561405f565b614fe46020830184613ca5565b9392505050565b600082825260208201905092915050565b7f496e697469616c697a61626c653a20636f6e747261637420697320616c72656160008201527f647920696e697469616c697a6564000000000000000000000000000000000000602082015250565b6000615058602e83614feb565b915061506382614ffc565b604082019050919050565b600060208201905081810360008301526150878161504b565b9050919050565b6000819050919050565b600060ff82169050919050565b60006150c06150bb6150b68461508e565b61412b565b615098565b9050919050565b6150d0816150a5565b82525050565b60006020820190506150eb60008301846150c7565b92915050565b6000602082019050818103600083015261510b81846140b4565b905092915050565b60008151905061512281613fa5565b92915050565b60006020828403121561513e5761513d613bc7565b5b600061514c84828501615113565b91505092915050565b6000604082019050818103600083015261516f81856140b4565b905061517e6020830184614f27565b9392505050565b7f4461746143617020526563656976656421000000000000000000000000000000600082015250565b60006151bb601183614feb565b91506151c682615185565b602082019050919050565b600060208201905081810360008301526151ea816151ae565b9050919050565b600060408284031215615207576152066141cf565b5b6152116040613e7d565b9050600061522184828501614c7d565b600083015250602061523584828501614337565b60208301525092915050565b60006040828403121561525757615256613bc7565b5b6000615265848285016151f1565b91505092915050565b60008151905061527d8161489b565b92915050565b600060808284031215615299576152986141cf565b5b6152a36080613e7d565b9050600082015167ffffffffffffffff8111156152c3576152c26141d4565b5b6152cf84828501614d1a565b60008301525060206152e384828501615113565b60208301525060406152f784828501614337565b604083015250606061530b84828501614337565b60608301525092915050565b6000610180828403121561532e5761532d6141cf565b5b615339610180613e7d565b9050600082015167ffffffffffffffff811115615359576153586141d4565b5b6153658482850161421b565b600083015250602061537984828501615113565b602083015250604061538d84828501614337565b604083015250606082015167ffffffffffffffff8111156153b1576153b06141d4565b5b6153bd84828501614d1a565b60608301525060806153d18482850161526e565b60808301525060a06153e58482850161526e565b60a08301525060c06153f9848285016144ff565b60c08301525060e061540d848285016144ff565b60e083015250610100615422848285016144ff565b6101008301525061012082015167ffffffffffffffff811115615448576154476141d4565b5b61545484828501614d1a565b6101208301525061014061546a84828501615113565b6101408301525061016082015167ffffffffffffffff8111156154905761548f6141d4565b5b61549c84828501615283565b6101608301525092915050565b6000602082840312156154bf576154be613bc7565b5b600082015167ffffffffffffffff8111156154dd576154dc613bcc565b5b6154e984828501615317565b91505092915050565b7f496e76616c69642043424f520000000000000000000000000000000000000000600082015250565b6000615528600c83614feb565b9150615533826154f2565b602082019050919050565b600060208201905081810360008301526155578161551b565b9050919050565b60006155698261406e565b615573818561474e565b935061558381856020860161408a565b61558c81613e0c565b840191505092915050565b600060408301600083015184820360008601526155b4828261555e565b91505060208301516155c960208601826147de565b508091505092915050565b600060408201905081810360008301526155ee81856140b4565b905081810360208301526156028184615597565b90509392505050565b6000604082019050818103600083015261562581856140b4565b9050615634602083018461405f565b9392505050565b7f4e487b7100000000000000000000000000000000000000000000000000000000600052601160045260246000fd5b600061567582613c2f565b915061568083613c2f565b92508282019050808211156156985761569761563b565b5b92915050565b60006156b96156b46156af84613f91565b61412b565b613f91565b9050919050565b6156c98161569e565b82525050565b600060c0820190506156e4600083018961405f565b6156f16020830188613ca5565b6156fe604083018761405f565b61570b606083018661405f565b818103608083015261571d81856140b4565b905061572c60a08301846156c0565b979650505050505050565b60006157428261406e565b61574c8185614401565b935061575c81856020860161408a565b80840191505092915050565b60006157748284615737565b915081905092915050565b7f4e487b7100000000000000000000000000000000000000000000000000000000600052600160045260246000fd5b7f4e487b7100000000000000000000000000000000000000000000000000000000600052601260045260246000fd5b60006157e882613c2f565b91506157f383613c2f565b925082615803576158026157ae565b5b828206905092915050565b600061581982613c2f565b915061582483613c2f565b925082820390508181111561583c5761583b61563b565b5b92915050565b7f4e487b7100000000000000000000000000000000000000000000000000000000600052603260045260246000fd5b600061587c82613c2f565b91507fffffffffffffffffffffffffffffffffffffffffffffffffffffffffffffffff82036158ae576158ad61563b565b5b600182019050919050565b60006040820190506158ce6000830185613ca5565b6158db6020830184613ca5565b9392505050565b6000819050919050565b6158f5816158e2565b811461590057600080fd5b50565b600081519050615912816158ec565b92915050565b60008060006060848603121561593157615930613bc7565b5b600061593f86828701615903565b935050602061595086828701615113565b925050604084015167ffffffffffffffff81111561597157615970613bcc565b5b61597d8682870161421b565b9150509250925092565b600060208201905061599c600083018461405f565b92915050565b6159ab816158e2565b82525050565b60006020820190506159c660008301846159a2565b92915050565b7f696e76616c6964206d616a20286578706563746564204d616a546167206f722060008201527f4d616a42797465537472696e6729000000000000000000000000000000000000602082015250565b6000615a28602e83614feb565b9150615a33826159cc565b604082019050919050565b60006020820190508181036000830152615a5781615a1b565b9050919050565b7f696e76616c6964206d616a20286578706563746564204d616a41727261792900600082015250565b6000615a94601f83614feb565b9150615a9f82615a5e565b602082019050919050565b60006020820190508181036000830152615ac381615a87565b9050919050565b7f6578706563746564206d616a6f72207479706520746167207768656e2070617260008201527f73696e6720636964000000000000000000000000000000000000000000000000602082015250565b6000615b26602883614feb565b9150615b3182615aca565b604082019050919050565b60006020820190508181036000830152615b5581615b19565b9050919050565b7f657870656374656420746167203432207768656e2070617273696e6720636964600082015250565b6000615b92602083614feb565b9150615b9d82615b5c565b602082019050919050565b60006020820190508181036000830152615bc181615b85565b9050919050565b7f6578706563746564206669727374206279746520746f2062652030207768656e60008201527f2070617273696e67206369640000000000000000000000000000000000000000602082015250565b6000615c24602c83614feb565b9150615c2f82615bc8565b604082019050919050565b60006020820190508181036000830152615c5381615c17565b9050919050565b7f696e76616c6964206d616a20286578706563746564204d616a556e7369676e6560008201527f64496e7429000000000000000000000000000000000000000000000000000000602082015250565b6000615cb6602583614feb565b9150615cc182615c5a565b604082019050919050565b60006020820190508181036000830152615ce581615ca9565b9050919050565b7f696e76616c6964206d616a20286578706563746564204d616a4f746865722900600082015250565b6000615d22601f83614feb565b9150615d2d82615cec565b602082019050919050565b60006020820190508181036000830152615d5181615d15565b9050919050565b7f696e76616c6964206d616a20286578706563746564204d616a4279746553747260008201527f696e67206f72204d616a54657874537472696e67290000000000000000000000602082015250565b6000615db4603583614feb565b9150615dbf82615d58565b604082019050919050565b60006020820190508181036000830152615de381615da7565b9050919050565b6000615df582613c2f565b9150615e0083613c2f565b9250828202615e0e81613c2f565b91508282048414831517615e2557615e2461563b565b5b5092915050565b7f63616e6e6f742068616e646c652068656164657273207769746820657874726160008201527f203e203237000000000000000000000000000000000000000000000000000000602082015250565b6000615e88602583614feb565b9150615e9382615e2c565b604082019050919050565b60006020820190508181036000830152615eb781615e7b565b9050919050565b7f696e76616c69642063626f720000000000000000000000000000000000000000600082015250565b6000615ef4600c83614feb565b9150615eff82615ebe565b602082019050919050565b60006020820190508181036000830152615f2381615ee7565b9050919050565b7f696e76616c6964206d616a20286578706563746564204d616a5369676e65644960008201527f6e74206f72204d616a556e7369676e6564496e74290000000000000000000000602082015250565b6000615f86603583614feb565b9150615f9182615f2a565b604082019050919050565b60006020820190508181036000830152615fb581615f79565b9050919050565b60008160011c9050919050565b6000808291508390505b600185111561601357808604811115615fef57615fee61563b565b5b6001851615615ffe5780820291505b808102905061600c85615fbc565b9450615fd3565b94509492505050565b60008261602c57600190506160e8565b8161603a57600090506160e8565b8160018114616050576002811461605a57616089565b60019150506160e8565b60ff84111561606c5761606b61563b565b5b8360020a9150848211156160835761608261563b565b5b506160e8565b5060208310610133831016604e8410600b84101617156160be5782820a9050838111156160b9576160b861563b565b5b6160e8565b6160cb8484846001615fc9565b925090508184048111156160e2576160e161563b565b5b81810290505b9392505050565b60006160fa82613c2f565b915061610583613c2f565b92506161327fffffffffffffffffffffffffffffffffffffffffffffffffffffffffffffffff848461601c565b905092915050565b7f736c6963696e67206f7574206f662072616e6765000000000000000000000000600082015250565b6000616170601483614feb565b915061617b8261613a565b602082019050919050565b6000602082019050818103600083015261619f81616163565b905091905056fea2646970667358221220d0f21a01c28ae6c1ef349dfc574167fdd30741ae183263dc209d1d4eac11400c64736f6c63430008110033",
			"opcodes": "PUSH1 0x80 PUSH1 0x40 MSTORE CALLVALUE DUP1 ISZERO PUSH2 0x10 JUMPI PUSH1 0x0 DUP1 REVERT JUMPDEST POP PUSH2 0x61DC DUP1 PUSH3 0x21 PUSH1 0x0 CODECOPY PUSH1 0x0 RETURN INVALID PUSH1 0x80 PUSH1 0x40 MSTORE PUSH1 0x4 CALLDATASIZE LT PUSH2 0x70 JUMPI PUSH1 0x0 CALLDATALOAD PUSH1 0xE0 SHR DUP1 PUSH4 0x66263735 GT PUSH2 0x4E JUMPI DUP1 PUSH4 0x66263735 EQ PUSH2 0x118 JUMPI DUP1 PUSH4 0x868E10C4 EQ PUSH2 0x141 JUMPI DUP1 PUSH4 0x86B714E2 EQ PUSH2 0x180 JUMPI DUP1 PUSH4 0xB163CC38 EQ PUSH2 0x1AB JUMPI PUSH2 0x70 JUMP JUMPDEST DUP1 PUSH4 0xCF20CC9 EQ PUSH2 0x75 JUMPI DUP1 PUSH4 0x48474F56 EQ PUSH2 0xB2 JUMPI DUP1 PUSH4 0x485CC955 EQ PUSH2 0xEF JUMPI JUMPDEST PUSH1 0x0 DUP1 REVERT JUMPDEST CALLVALUE DUP1 ISZERO PUSH2 0x81 JUMPI PUSH1 0x0 DUP1 REVERT JUMPDEST POP PUSH2 0x9C PUSH1 0x4 DUP1 CALLDATASIZE SUB DUP2 ADD SWAP1 PUSH2 0x97 SWAP2 SWAP1 PUSH2 0x3C65 JUMP JUMPDEST PUSH2 0x1B5 JUMP JUMPDEST PUSH1 0x40 MLOAD PUSH2 0xA9 SWAP2 SWAP1 PUSH2 0x3CB4 JUMP JUMPDEST PUSH1 0x40 MLOAD DUP1 SWAP2 SUB SWAP1 RETURN JUMPDEST CALLVALUE DUP1 ISZERO PUSH2 0xBE JUMPI PUSH1 0x0 DUP1 REVERT JUMPDEST POP PUSH2 0xD9 PUSH1 0x4 DUP1 CALLDATASIZE SUB DUP2 ADD SWAP1 PUSH2 0xD4 SWAP2 SWAP1 PUSH2 0x3CF4 JUMP JUMPDEST PUSH2 0x3EF JUMP JUMPDEST PUSH1 0x40 MLOAD PUSH2 0xE6 SWAP2 SWAP1 PUSH2 0x3D69 JUMP JUMPDEST PUSH1 0x40 MLOAD DUP1 SWAP2 SUB SWAP1 RETURN JUMPDEST CALLVALUE DUP1 ISZERO PUSH2 0xFB JUMPI PUSH1 0x0 DUP1 REVERT JUMPDEST POP PUSH2 0x116 PUSH1 0x4 DUP1 CALLDATASIZE SUB DUP2 ADD SWAP1 PUSH2 0x111 SWAP2 SWAP1 PUSH2 0x3DC2 JUMP JUMPDEST PUSH2 0xAA8 JUMP JUMPDEST STOP JUMPDEST CALLVALUE DUP1 ISZERO PUSH2 0x124 JUMPI PUSH1 0x0 DUP1 REVERT JUMPDEST POP PUSH2 0x13F PUSH1 0x4 DUP1 CALLDATASIZE SUB DUP2 ADD SWAP1 PUSH2 0x13A SWAP2 SWAP1 PUSH2 0x3F48 JUMP JUMPDEST PUSH2 0xC62 JUMP JUMPDEST STOP JUMPDEST CALLVALUE DUP1 ISZERO PUSH2 0x14D JUMPI PUSH1 0x0 DUP1 REVERT JUMPDEST POP PUSH2 0x168 PUSH1 0x4 DUP1 CALLDATASIZE SUB DUP2 ADD SWAP1 PUSH2 0x163 SWAP2 SWAP1 PUSH2 0x3FD1 JUMP JUMPDEST PUSH2 0xF06 JUMP JUMPDEST PUSH1 0x40 MLOAD PUSH2 0x177 SWAP4 SWAP3 SWAP2 SWAP1 PUSH2 0x40ED JUMP JUMPDEST PUSH1 0x40 MLOAD DUP1 SWAP2 SUB SWAP1 RETURN JUMPDEST CALLVALUE DUP1 ISZERO PUSH2 0x18C JUMPI PUSH1 0x0 DUP1 REVERT JUMPDEST POP PUSH2 0x195 PUSH2 0x105B JUMP JUMPDEST PUSH1 0x40 MLOAD PUSH2 0x1A2 SWAP2 SWAP1 PUSH2 0x418A JUMP JUMPDEST PUSH1 0x40 MLOAD DUP1 SWAP2 SUB SWAP1 RETURN JUMPDEST PUSH2 0x1B3 PUSH2 0x1081 JUMP JUMPDEST STOP JUMPDEST PUSH1 0x0 DUP1 PUSH1 0x40 MLOAD DUP1 PUSH1 0x40 ADD PUSH1 0x40 MSTORE DUP1 PUSH20 0x0 PUSH4 0x8CE70C68 DUP8 PUSH1 0x40 MLOAD DUP3 PUSH4 0xFFFFFFFF AND PUSH1 0xE0 SHL DUP2 MSTORE PUSH1 0x4 ADD PUSH2 0x1FA SWAP2 SWAP1 PUSH2 0x41B4 JUMP JUMPDEST PUSH1 0x0 PUSH1 0x40 MLOAD DUP1 DUP4 SUB DUP2 DUP7 GAS DELEGATECALL ISZERO DUP1 ISZERO PUSH2 0x217 JUMPI RETURNDATASIZE PUSH1 0x0 DUP1 RETURNDATACOPY RETURNDATASIZE PUSH1 0x0 REVERT JUMPDEST POP POP POP POP PUSH1 0x40 MLOAD RETURNDATASIZE PUSH1 0x0 DUP3 RETURNDATACOPY RETURNDATASIZE PUSH1 0x1F NOT PUSH1 0x1F DUP3 ADD AND DUP3 ADD DUP1 PUSH1 0x40 MSTORE POP DUP2 ADD SWAP1 PUSH2 0x240 SWAP2 SWAP1 PUSH2 0x42A1 JUMP JUMPDEST DUP2 MSTORE PUSH1 0x20 ADD PUSH20 0x0 PUSH4 0x6F038971 DUP7 PUSH1 0x40 MLOAD DUP3 PUSH4 0xFFFFFFFF AND PUSH1 0xE0 SHL DUP2 MSTORE PUSH1 0x4 ADD PUSH2 0x27C SWAP2 SWAP1 PUSH2 0x42F9 JUMP JUMPDEST PUSH1 0x0 PUSH1 0x40 MLOAD DUP1 DUP4 SUB DUP2 DUP7 GAS DELEGATECALL ISZERO DUP1 ISZERO PUSH2 0x299 JUMPI RETURNDATASIZE PUSH1 0x0 DUP1 RETURNDATACOPY RETURNDATASIZE PUSH1 0x0 REVERT JUMPDEST POP POP POP POP PUSH1 0x40 MLOAD RETURNDATASIZE PUSH1 0x0 DUP3 RETURNDATACOPY RETURNDATASIZE PUSH1 0x1F NOT PUSH1 0x1F DUP3 ADD AND DUP3 ADD DUP1 PUSH1 0x40 MSTORE POP DUP2 ADD SWAP1 PUSH2 0x2C2 SWAP2 SWAP1 PUSH2 0x43B8 JUMP JUMPDEST DUP2 MSTORE POP SWAP1 POP PUSH1 0x0 PUSH2 0x2D2 DUP3 PUSH2 0x1109 JUMP JUMPDEST SWAP1 POP PUSH1 0x0 PUSH1 0x1 PUSH1 0x0 SWAP1 SLOAD SWAP1 PUSH2 0x100 EXP SWAP1 DIV PUSH20 0xFFFFFFFFFFFFFFFFFFFFFFFFFFFFFFFFFFFFFFFF AND PUSH20 0xFFFFFFFFFFFFFFFFFFFFFFFFFFFFFFFFFFFFFFFF AND DUP6 PUSH1 0x40 MLOAD PUSH2 0x31C SWAP1 PUSH2 0x4432 JUMP JUMPDEST PUSH1 0x0 PUSH1 0x40 MLOAD DUP1 DUP4 SUB DUP2 DUP6 DUP8 GAS CALL SWAP3 POP POP POP RETURNDATASIZE DUP1 PUSH1 0x0 DUP2 EQ PUSH2 0x359 JUMPI PUSH1 0x40 MLOAD SWAP2 POP PUSH1 0x1F NOT PUSH1 0x3F RETURNDATASIZE ADD AND DUP3 ADD PUSH1 0x40 MSTORE RETURNDATASIZE DUP3 MSTORE RETURNDATASIZE PUSH1 0x0 PUSH1 0x20 DUP5 ADD RETURNDATACOPY PUSH2 0x35E JUMP JUMPDEST PUSH1 0x60 SWAP2 POP JUMPDEST POP POP SWAP1 POP DUP1 PUSH2 0x36C JUMPI PUSH1 0x0 DUP1 REVERT JUMPDEST PUSH20 0x0 PUSH4 0x86113702 DUP4 PUSH1 0x40 MLOAD DUP3 PUSH4 0xFFFFFFFF AND PUSH1 0xE0 SHL DUP2 MSTORE PUSH1 0x4 ADD PUSH2 0x3A3 SWAP2 SWAP1 PUSH2 0x44DD JUMP JUMPDEST PUSH1 0x20 PUSH1 0x40 MLOAD DUP1 DUP4 SUB DUP2 DUP7 GAS DELEGATECALL ISZERO DUP1 ISZERO PUSH2 0x3C0 JUMPI RETURNDATASIZE PUSH1 0x0 DUP1 RETURNDATACOPY RETURNDATASIZE PUSH1 0x0 REVERT JUMPDEST POP POP POP POP PUSH1 0x40 MLOAD RETURNDATASIZE PUSH1 0x1F NOT PUSH1 0x1F DUP3 ADD AND DUP3 ADD DUP1 PUSH1 0x40 MSTORE POP DUP2 ADD SWAP1 PUSH2 0x3E4 SWAP2 SWAP1 PUSH2 0x4514 JUMP JUMPDEST SWAP4 POP POP POP POP SWAP3 SWAP2 POP POP JUMP JUMPDEST PUSH1 0x0 PUSH1 0x1 ISZERO ISZERO PUSH1 0x0 PUSH1 0x2 SWAP1 SLOAD SWAP1 PUSH2 0x100 EXP SWAP1 DIV PUSH20 0xFFFFFFFFFFFFFFFFFFFFFFFFFFFFFFFFFFFFFFFF AND PUSH20 0xFFFFFFFFFFFFFFFFFFFFFFFFFFFFFFFFFFFFFFFF AND PUSH4 0x24D7806C CALLER PUSH1 0x40 MLOAD DUP3 PUSH4 0xFFFFFFFF AND PUSH1 0xE0 SHL DUP2 MSTORE PUSH1 0x4 ADD PUSH2 0x450 SWAP2 SWAP1 PUSH2 0x4550 JUMP JUMPDEST PUSH1 0x20 PUSH1 0x40 MLOAD DUP1 DUP4 SUB DUP2 DUP7 GAS STATICCALL ISZERO DUP1 ISZERO PUSH2 0x46D JUMPI RETURNDATASIZE PUSH1 0x0 DUP1 RETURNDATACOPY RETURNDATASIZE PUSH1 0x0 REVERT JUMPDEST POP POP POP POP PUSH1 0x40 MLOAD RETURNDATASIZE PUSH1 0x1F NOT PUSH1 0x1F DUP3 ADD AND DUP3 ADD DUP1 PUSH1 0x40 MSTORE POP DUP2 ADD SWAP1 PUSH2 0x491 SWAP2 SWAP1 PUSH2 0x456B JUMP JUMPDEST ISZERO ISZERO EQ PUSH2 0x49D JUMPI PUSH1 0x0 DUP1 REVERT JUMPDEST PUSH1 0x2 PUSH1 0x4 DUP2 GT ISZERO PUSH2 0x4B1 JUMPI PUSH2 0x4B0 PUSH2 0x4598 JUMP JUMPDEST JUMPDEST PUSH1 0x0 PUSH1 0x2 SWAP1 SLOAD SWAP1 PUSH2 0x100 EXP SWAP1 DIV PUSH20 0xFFFFFFFFFFFFFFFFFFFFFFFFFFFFFFFFFFFFFFFF AND PUSH20 0xFFFFFFFFFFFFFFFFFFFFFFFFFFFFFFFFFFFFFFFF AND PUSH4 0xA6D1B7B8 DUP6 DUP1 PUSH1 0x0 ADD SWAP1 PUSH2 0x4FF SWAP2 SWAP1 PUSH2 0x45D6 JUMP JUMPDEST PUSH1 0x40 MLOAD DUP4 PUSH4 0xFFFFFFFF AND PUSH1 0xE0 SHL DUP2 MSTORE PUSH1 0x4 ADD PUSH2 0x51C SWAP3 SWAP2 SWAP1 PUSH2 0x4666 JUMP JUMPDEST PUSH1 0x20 PUSH1 0x40 MLOAD DUP1 DUP4 SUB DUP2 DUP7 GAS STATICCALL ISZERO DUP1 ISZERO PUSH2 0x539 JUMPI RETURNDATASIZE PUSH1 0x0 DUP1 RETURNDATACOPY RETURNDATASIZE PUSH1 0x0 REVERT JUMPDEST POP POP POP POP PUSH1 0x40 MLOAD RETURNDATASIZE PUSH1 0x1F NOT PUSH1 0x1F DUP3 ADD AND DUP3 ADD DUP1 PUSH1 0x40 MSTORE POP DUP2 ADD SWAP1 PUSH2 0x55D SWAP2 SWAP1 PUSH2 0x46AF JUMP JUMPDEST PUSH1 0x4 DUP2 GT ISZERO PUSH2 0x56F JUMPI PUSH2 0x56E PUSH2 0x4598 JUMP JUMPDEST JUMPDEST EQ DUP1 PUSH2 0x64A JUMPI POP PUSH1 0x3 PUSH1 0x4 DUP2 GT ISZERO PUSH2 0x58A JUMPI PUSH2 0x589 PUSH2 0x4598 JUMP JUMPDEST JUMPDEST PUSH1 0x0 PUSH1 0x2 SWAP1 SLOAD SWAP1 PUSH2 0x100 EXP SWAP1 DIV PUSH20 0xFFFFFFFFFFFFFFFFFFFFFFFFFFFFFFFFFFFFFFFF AND PUSH20 0xFFFFFFFFFFFFFFFFFFFFFFFFFFFFFFFFFFFFFFFF AND PUSH4 0xA6D1B7B8 DUP6 DUP1 PUSH1 0x0 ADD SWAP1 PUSH2 0x5D8 SWAP2 SWAP1 PUSH2 0x45D6 JUMP JUMPDEST PUSH1 0x40 MLOAD DUP4 PUSH4 0xFFFFFFFF AND PUSH1 0xE0 SHL DUP2 MSTORE PUSH1 0x4 ADD PUSH2 0x5F5 SWAP3 SWAP2 SWAP1 PUSH2 0x4666 JUMP JUMPDEST PUSH1 0x20 PUSH1 0x40 MLOAD DUP1 DUP4 SUB DUP2 DUP7 GAS STATICCALL ISZERO DUP1 ISZERO PUSH2 0x612 JUMPI RETURNDATASIZE PUSH1 0x0 DUP1 RETURNDATACOPY RETURNDATASIZE PUSH1 0x0 REVERT JUMPDEST POP POP POP POP PUSH1 0x40 MLOAD RETURNDATASIZE PUSH1 0x1F NOT PUSH1 0x1F DUP3 ADD AND DUP3 ADD DUP1 PUSH1 0x40 MSTORE POP DUP2 ADD SWAP1 PUSH2 0x636 SWAP2 SWAP1 PUSH2 0x46AF JUMP JUMPDEST PUSH1 0x4 DUP2 GT ISZERO PUSH2 0x648 JUMPI PUSH2 0x647 PUSH2 0x4598 JUMP JUMPDEST JUMPDEST EQ JUMPDEST ISZERO PUSH2 0x654 JUMPI PUSH1 0x0 DUP1 REVERT JUMPDEST PUSH1 0x0 DUP1 PUSH1 0x2 SWAP1 SLOAD SWAP1 PUSH2 0x100 EXP SWAP1 DIV PUSH20 0xFFFFFFFFFFFFFFFFFFFFFFFFFFFFFFFFFFFFFFFF AND PUSH20 0xFFFFFFFFFFFFFFFFFFFFFFFFFFFFFFFFFFFFFFFF AND PUSH4 0xE059BB72 PUSH1 0x40 MLOAD DUP2 PUSH4 0xFFFFFFFF AND PUSH1 0xE0 SHL DUP2 MSTORE PUSH1 0x4 ADD PUSH1 0x20 PUSH1 0x40 MLOAD DUP1 DUP4 SUB DUP2 DUP7 GAS STATICCALL ISZERO DUP1 ISZERO PUSH2 0x6C2 JUMPI RETURNDATASIZE PUSH1 0x0 DUP1 RETURNDATACOPY RETURNDATASIZE PUSH1 0x0 REVERT JUMPDEST POP POP POP POP PUSH1 0x40 MLOAD RETURNDATASIZE PUSH1 0x1F NOT PUSH1 0x1F DUP3 ADD AND DUP3 ADD DUP1 PUSH1 0x40 MSTORE POP DUP2 ADD SWAP1 PUSH2 0x6E6 SWAP2 SWAP1 PUSH2 0x4514 JUMP JUMPDEST SWAP1 POP PUSH1 0x0 PUSH1 0x2 SWAP1 SLOAD SWAP1 PUSH2 0x100 EXP SWAP1 DIV PUSH20 0xFFFFFFFFFFFFFFFFFFFFFFFFFFFFFFFFFFFFFFFF AND PUSH20 0xFFFFFFFFFFFFFFFFFFFFFFFFFFFFFFFFFFFFFFFF AND PUSH4 0x9346948 DUP6 PUSH1 0x40 MLOAD DUP3 PUSH4 0xFFFFFFFF AND PUSH1 0xE0 SHL DUP2 MSTORE PUSH1 0x4 ADD PUSH2 0x743 SWAP2 SWAP1 PUSH2 0x4B3F JUMP JUMPDEST PUSH1 0x0 PUSH1 0x40 MLOAD DUP1 DUP4 SUB DUP2 PUSH1 0x0 DUP8 DUP1 EXTCODESIZE ISZERO DUP1 ISZERO PUSH2 0x75D JUMPI PUSH1 0x0 DUP1 REVERT JUMPDEST POP GAS CALL ISZERO DUP1 ISZERO PUSH2 0x771 JUMPI RETURNDATASIZE PUSH1 0x0 DUP1 RETURNDATACOPY RETURNDATASIZE PUSH1 0x0 REVERT JUMPDEST POP POP POP POP PUSH1 0x0 DUP4 DUP6 DUP1 PUSH2 0x120 ADD SWAP1 PUSH2 0x789 SWAP2 SWAP1 PUSH2 0x4B61 JUMP JUMPDEST PUSH1 0x40 MLOAD PUSH1 0x20 ADD PUSH2 0x79B SWAP4 SWAP3 SWAP2 SWAP1 PUSH2 0x4C3C JUMP JUMPDEST PUSH1 0x40 MLOAD PUSH1 0x20 DUP2 DUP4 SUB SUB DUP2 MSTORE SWAP1 PUSH1 0x40 MSTORE DUP1 MLOAD SWAP1 PUSH1 0x20 ADD KECCAK256 SWAP1 POP PUSH1 0x0 DUP1 PUSH1 0x2 SWAP1 SLOAD SWAP1 PUSH2 0x100 EXP SWAP1 DIV PUSH20 0xFFFFFFFFFFFFFFFFFFFFFFFFFFFFFFFFFFFFFFFF AND PUSH20 0xFFFFFFFFFFFFFFFFFFFFFFFFFFFFFFFFFFFFFFFF AND PUSH4 0xCC6F85D7 DUP4 PUSH1 0x40 MLOAD DUP3 PUSH4 0xFFFFFFFF AND PUSH1 0xE0 SHL DUP2 MSTORE PUSH1 0x4 ADD PUSH2 0x80F SWAP2 SWAP1 PUSH2 0x3D69 JUMP JUMPDEST PUSH1 0x0 PUSH1 0x40 MLOAD DUP1 DUP4 SUB DUP2 DUP7 GAS STATICCALL ISZERO DUP1 ISZERO PUSH2 0x82C JUMPI RETURNDATASIZE PUSH1 0x0 DUP1 RETURNDATACOPY RETURNDATASIZE PUSH1 0x0 REVERT JUMPDEST POP POP POP POP PUSH1 0x40 MLOAD RETURNDATASIZE PUSH1 0x0 DUP3 RETURNDATACOPY RETURNDATASIZE PUSH1 0x1F NOT PUSH1 0x1F DUP3 ADD AND DUP3 ADD DUP1 PUSH1 0x40 MSTORE POP DUP2 ADD SWAP1 PUSH2 0x855 SWAP2 SWAP1 PUSH2 0x4E3C JUMP JUMPDEST SWAP1 POP DUP2 DUP2 PUSH1 0x0 ADD MLOAD EQ PUSH2 0x867 JUMPI PUSH1 0x0 DUP1 REVERT JUMPDEST PUSH1 0x0 PUSH1 0x2 SWAP1 SLOAD SWAP1 PUSH2 0x100 EXP SWAP1 DIV PUSH20 0xFFFFFFFFFFFFFFFFFFFFFFFFFFFFFFFFFFFFFFFF AND PUSH20 0xFFFFFFFFFFFFFFFFFFFFFFFFFFFFFFFFFFFFFFFF AND PUSH4 0x347E8C2 DUP4 DUP6 CALLER PUSH1 0x40 MLOAD DUP5 PUSH4 0xFFFFFFFF AND PUSH1 0xE0 SHL DUP2 MSTORE PUSH1 0x4 ADD PUSH2 0x8C6 SWAP4 SWAP3 SWAP2 SWAP1 PUSH2 0x4E85 JUMP JUMPDEST PUSH1 0x0 PUSH1 0x40 MLOAD DUP1 DUP4 SUB DUP2 PUSH1 0x0 DUP8 DUP1 EXTCODESIZE ISZERO DUP1 ISZERO PUSH2 0x8E0 JUMPI PUSH1 0x0 DUP1 REVERT JUMPDEST POP GAS CALL ISZERO DUP1 ISZERO PUSH2 0x8F4 JUMPI RETURNDATASIZE PUSH1 0x0 DUP1 RETURNDATACOPY RETURNDATASIZE PUSH1 0x0 REVERT JUMPDEST POP POP POP POP PUSH1 0x0 PUSH1 0x2 SWAP1 SLOAD SWAP1 PUSH2 0x100 EXP SWAP1 DIV PUSH20 0xFFFFFFFFFFFFFFFFFFFFFFFFFFFFFFFFFFFFFFFF AND PUSH20 0xFFFFFFFFFFFFFFFFFFFFFFFFFFFFFFFFFFFFFFFF AND PUSH4 0x230E927 DUP8 DUP1 PUSH1 0x0 ADD SWAP1 PUSH2 0x946 SWAP2 SWAP1 PUSH2 0x45D6 JUMP JUMPDEST DUP6 PUSH1 0x40 MLOAD DUP5 PUSH4 0xFFFFFFFF AND PUSH1 0xE0 SHL DUP2 MSTORE PUSH1 0x4 ADD PUSH2 0x965 SWAP4 SWAP3 SWAP2 SWAP1 PUSH2 0x4EBC JUMP JUMPDEST PUSH1 0x0 PUSH1 0x40 MLOAD DUP1 DUP4 SUB DUP2 PUSH1 0x0 DUP8 DUP1 EXTCODESIZE ISZERO DUP1 ISZERO PUSH2 0x97F JUMPI PUSH1 0x0 DUP1 REVERT JUMPDEST POP GAS CALL ISZERO DUP1 ISZERO PUSH2 0x993 JUMPI RETURNDATASIZE PUSH1 0x0 DUP1 RETURNDATACOPY RETURNDATASIZE PUSH1 0x0 REVERT JUMPDEST POP POP POP POP PUSH1 0x0 PUSH1 0x2 SWAP1 SLOAD SWAP1 PUSH2 0x100 EXP SWAP1 DIV PUSH20 0xFFFFFFFFFFFFFFFFFFFFFFFFFFFFFFFFFFFFFFFF AND PUSH20 0xFFFFFFFFFFFFFFFFFFFFFFFFFFFFFFFFFFFFFFFF AND PUSH4 0xD15BCBE3 DUP8 DUP1 PUSH1 0x0 ADD SWAP1 PUSH2 0x9E5 SWAP2 SWAP1 PUSH2 0x45D6 JUMP JUMPDEST PUSH1 0x1 PUSH1 0x40 MLOAD DUP5 PUSH4 0xFFFFFFFF AND PUSH1 0xE0 SHL DUP2 MSTORE PUSH1 0x4 ADD PUSH2 0xA05 SWAP4 SWAP3 SWAP2 SWAP1 PUSH2 0x4F36 JUMP JUMPDEST PUSH1 0x0 PUSH1 0x40 MLOAD DUP1 DUP4 SUB DUP2 PUSH1 0x0 DUP8 DUP1 EXTCODESIZE ISZERO DUP1 ISZERO PUSH2 0xA1F JUMPI PUSH1 0x0 DUP1 REVERT JUMPDEST POP GAS CALL ISZERO DUP1 ISZERO PUSH2 0xA33 JUMPI RETURNDATASIZE PUSH1 0x0 DUP1 RETURNDATACOPY RETURNDATASIZE PUSH1 0x0 REVERT JUMPDEST POP POP POP POP DUP6 PUSH1 0x40 ADD PUSH1 0x20 DUP2 ADD SWAP1 PUSH2 0xA4A SWAP2 SWAP1 PUSH2 0x4F68 JUMP JUMPDEST ISZERO ISZERO DUP3 PUSH32 0xFD6419D07E4C269E58D0C63969756C2124155B4A8D6DD08B8CD46E3A9ACBF625 DUP9 PUSH1 0x20 ADD PUSH1 0x20 DUP2 ADD SWAP1 PUSH2 0xA81 SWAP2 SWAP1 PUSH2 0x4F95 JUMP JUMPDEST DUP10 PUSH1 0xC0 ADD CALLDATALOAD PUSH1 0x40 MLOAD PUSH2 0xA94 SWAP3 SWAP2 SWAP1 PUSH2 0x4FC2 JUMP JUMPDEST PUSH1 0x40 MLOAD DUP1 SWAP2 SUB SWAP1 LOG3 DUP2 SWAP4 POP POP POP POP SWAP3 SWAP2 POP POP JUMP JUMPDEST PUSH1 0x0 DUP1 PUSH1 0x1 SWAP1 SLOAD SWAP1 PUSH2 0x100 EXP SWAP1 DIV PUSH1 0xFF AND ISZERO SWAP1 POP DUP1 DUP1 ISZERO PUSH2 0xAD9 JUMPI POP PUSH1 0x1 PUSH1 0x0 DUP1 SLOAD SWAP1 PUSH2 0x100 EXP SWAP1 DIV PUSH1 0xFF AND PUSH1 0xFF AND LT JUMPDEST DUP1 PUSH2 0xB06 JUMPI POP PUSH2 0xAE8 ADDRESS PUSH2 0x1149 JUMP JUMPDEST ISZERO DUP1 ISZERO PUSH2 0xB05 JUMPI POP PUSH1 0x1 PUSH1 0x0 DUP1 SLOAD SWAP1 PUSH2 0x100 EXP SWAP1 DIV PUSH1 0xFF AND PUSH1 0xFF AND EQ JUMPDEST JUMPDEST PUSH2 0xB45 JUMPI PUSH1 0x40 MLOAD PUSH32 0x8C379A000000000000000000000000000000000000000000000000000000000 DUP2 MSTORE PUSH1 0x4 ADD PUSH2 0xB3C SWAP1 PUSH2 0x506E JUMP JUMPDEST PUSH1 0x40 MLOAD DUP1 SWAP2 SUB SWAP1 REVERT JUMPDEST PUSH1 0x1 PUSH1 0x0 DUP1 PUSH2 0x100 EXP DUP2 SLOAD DUP2 PUSH1 0xFF MUL NOT AND SWAP1 DUP4 PUSH1 0xFF AND MUL OR SWAP1 SSTORE POP DUP1 ISZERO PUSH2 0xB82 JUMPI PUSH1 0x1 PUSH1 0x0 PUSH1 0x1 PUSH2 0x100 EXP DUP2 SLOAD DUP2 PUSH1 0xFF MUL NOT AND SWAP1 DUP4 ISZERO ISZERO MUL OR SWAP1 SSTORE POP JUMPDEST DUP3 PUSH1 0x0 PUSH1 0x2 PUSH2 0x100 EXP DUP2 SLOAD DUP2 PUSH20 0xFFFFFFFFFFFFFFFFFFFFFFFFFFFFFFFFFFFFFFFF MUL NOT AND SWAP1 DUP4 PUSH20 0xFFFFFFFFFFFFFFFFFFFFFFFFFFFFFFFFFFFFFFFF AND MUL OR SWAP1 SSTORE POP DUP2 PUSH1 0x1 PUSH1 0x0 PUSH2 0x100 EXP DUP2 SLOAD DUP2 PUSH20 0xFFFFFFFFFFFFFFFFFFFFFFFFFFFFFFFFFFFFFFFF MUL NOT AND SWAP1 DUP4 PUSH20 0xFFFFFFFFFFFFFFFFFFFFFFFFFFFFFFFFFFFFFFFF AND MUL OR SWAP1 SSTORE POP DUP1 ISZERO PUSH2 0xC5D JUMPI PUSH1 0x0 DUP1 PUSH1 0x1 PUSH2 0x100 EXP DUP2 SLOAD DUP2 PUSH1 0xFF MUL NOT AND SWAP1 DUP4 ISZERO ISZERO MUL OR SWAP1 SSTORE POP PUSH32 0x7F26B83FF96E1F2B6A682F133852F6798A09C465DA95921460CEFB3847402498 PUSH1 0x1 PUSH1 0x40 MLOAD PUSH2 0xC54 SWAP2 SWAP1 PUSH2 0x50D6 JUMP JUMPDEST PUSH1 0x40 MLOAD DUP1 SWAP2 SUB SWAP1 LOG1 JUMPDEST POP POP POP JUMP JUMPDEST PUSH1 0x0 DUP1 PUSH1 0x2 SWAP1 SLOAD SWAP1 PUSH2 0x100 EXP SWAP1 DIV PUSH20 0xFFFFFFFFFFFFFFFFFFFFFFFFFFFFFFFFFFFFFFFF AND PUSH20 0xFFFFFFFFFFFFFFFFFFFFFFFFFFFFFFFFFFFFFFFF AND PUSH4 0xA0E0C91 DUP4 PUSH1 0x40 MLOAD DUP3 PUSH4 0xFFFFFFFF AND PUSH1 0xE0 SHL DUP2 MSTORE PUSH1 0x4 ADD PUSH2 0xCBE SWAP2 SWAP1 PUSH2 0x50F1 JUMP JUMPDEST PUSH1 0x20 PUSH1 0x40 MLOAD DUP1 DUP4 SUB DUP2 DUP7 GAS STATICCALL ISZERO DUP1 ISZERO PUSH2 0xCDB JUMPI RETURNDATASIZE PUSH1 0x0 DUP1 RETURNDATACOPY RETURNDATASIZE PUSH1 0x0 REVERT JUMPDEST POP POP POP POP PUSH1 0x40 MLOAD RETURNDATASIZE PUSH1 0x1F NOT PUSH1 0x1F DUP3 ADD AND DUP3 ADD DUP1 PUSH1 0x40 MSTORE POP DUP2 ADD SWAP1 PUSH2 0xCFF SWAP2 SWAP1 PUSH2 0x5128 JUMP JUMPDEST PUSH8 0xFFFFFFFFFFFFFFFF AND GT PUSH2 0xD13 JUMPI PUSH1 0x0 DUP1 REVERT JUMPDEST PUSH1 0x0 PUSH2 0xDB9 PUSH1 0x0 PUSH1 0x2 SWAP1 SLOAD SWAP1 PUSH2 0x100 EXP SWAP1 DIV PUSH20 0xFFFFFFFFFFFFFFFFFFFFFFFFFFFFFFFFFFFFFFFF AND PUSH20 0xFFFFFFFFFFFFFFFFFFFFFFFFFFFFFFFFFFFFFFFF AND PUSH4 0xA0E0C91 DUP5 PUSH1 0x40 MLOAD DUP3 PUSH4 0xFFFFFFFF AND PUSH1 0xE0 SHL DUP2 MSTORE PUSH1 0x4 ADD PUSH2 0xD73 SWAP2 SWAP1 PUSH2 0x50F1 JUMP JUMPDEST PUSH1 0x20 PUSH1 0x40 MLOAD DUP1 DUP4 SUB DUP2 DUP7 GAS STATICCALL ISZERO DUP1 ISZERO PUSH2 0xD90 JUMPI RETURNDATASIZE PUSH1 0x0 DUP1 RETURNDATACOPY RETURNDATASIZE PUSH1 0x0 REVERT JUMPDEST POP POP POP POP PUSH1 0x40 MLOAD RETURNDATASIZE PUSH1 0x1F NOT PUSH1 0x1F DUP3 ADD AND DUP3 ADD DUP1 PUSH1 0x40 MSTORE POP DUP2 ADD SWAP1 PUSH2 0xDB4 SWAP2 SWAP1 PUSH2 0x5128 JUMP JUMPDEST PUSH2 0x116C JUMP JUMPDEST SWAP1 POP PUSH1 0x0 DUP2 PUSH1 0x20 ADD MLOAD PUSH1 0x7 SIGNEXTEND SGT ISZERO PUSH2 0xE60 JUMPI PUSH1 0x0 PUSH1 0x2 SWAP1 SLOAD SWAP1 PUSH2 0x100 EXP SWAP1 DIV PUSH20 0xFFFFFFFFFFFFFFFFFFFFFFFFFFFFFFFFFFFFFFFF AND PUSH20 0xFFFFFFFFFFFFFFFFFFFFFFFFFFFFFFFFFFFFFFFF AND PUSH4 0xD15BCBE3 DUP4 PUSH1 0x4 PUSH1 0x40 MLOAD DUP4 PUSH4 0xFFFFFFFF AND PUSH1 0xE0 SHL DUP2 MSTORE PUSH1 0x4 ADD PUSH2 0xE29 SWAP3 SWAP2 SWAP1 PUSH2 0x5155 JUMP JUMPDEST PUSH1 0x0 PUSH1 0x40 MLOAD DUP1 DUP4 SUB DUP2 PUSH1 0x0 DUP8 DUP1 EXTCODESIZE ISZERO DUP1 ISZERO PUSH2 0xE43 JUMPI PUSH1 0x0 DUP1 REVERT JUMPDEST POP GAS CALL ISZERO DUP1 ISZERO PUSH2 0xE57 JUMPI RETURNDATASIZE PUSH1 0x0 DUP1 RETURNDATACOPY RETURNDATASIZE PUSH1 0x0 REVERT JUMPDEST POP POP POP POP PUSH2 0xF02 JUMP JUMPDEST PUSH1 0x0 DUP2 PUSH1 0x0 ADD MLOAD PUSH1 0x7 SIGNEXTEND SGT ISZERO PUSH2 0xF01 JUMPI PUSH1 0x0 PUSH1 0x2 SWAP1 SLOAD SWAP1 PUSH2 0x100 EXP SWAP1 DIV PUSH20 0xFFFFFFFFFFFFFFFFFFFFFFFFFFFFFFFFFFFFFFFF AND PUSH20 0xFFFFFFFFFFFFFFFFFFFFFFFFFFFFFFFFFFFFFFFF AND PUSH4 0xD15BCBE3 DUP4 PUSH1 0x3 PUSH1 0x40 MLOAD DUP4 PUSH4 0xFFFFFFFF AND PUSH1 0xE0 SHL DUP2 MSTORE PUSH1 0x4 ADD PUSH2 0xECE SWAP3 SWAP2 SWAP1 PUSH2 0x5155 JUMP JUMPDEST PUSH1 0x0 PUSH1 0x40 MLOAD DUP1 DUP4 SUB DUP2 PUSH1 0x0 DUP8 DUP1 EXTCODESIZE ISZERO DUP1 ISZERO PUSH2 0xEE8 JUMPI PUSH1 0x0 DUP1 REVERT JUMPDEST POP GAS CALL ISZERO DUP1 ISZERO PUSH2 0xEFC JUMPI RETURNDATASIZE PUSH1 0x0 DUP1 RETURNDATACOPY RETURNDATASIZE PUSH1 0x0 REVERT JUMPDEST POP POP POP POP JUMPDEST JUMPDEST POP POP JUMP JUMPDEST PUSH1 0x0 DUP1 PUSH1 0x60 DUP1 PUSH1 0x0 PUSH4 0x9D8B0678 PUSH8 0xFFFFFFFFFFFFFFFF AND DUP9 PUSH8 0xFFFFFFFFFFFFFFFF AND SUB PUSH2 0xF6D JUMPI PUSH2 0xF36 DUP7 PUSH2 0x11B7 JUMP JUMPDEST PUSH1 0x0 PUSH2 0xF42 PUSH1 0x1 PUSH2 0x1523 JUMP JUMPDEST SWAP1 POP PUSH2 0xF58 PUSH1 0x1 DUP3 PUSH2 0x154A SWAP1 SWAP2 SWAP1 PUSH4 0xFFFFFFFF AND JUMP JUMPDEST PUSH2 0xF61 DUP2 PUSH2 0x1566 JUMP JUMPDEST SWAP3 POP PUSH1 0x51 SWAP2 POP POP PUSH2 0x1046 JUMP JUMPDEST PUSH4 0xF98C9966 PUSH8 0xFFFFFFFFFFFFFFFF AND DUP9 PUSH8 0xFFFFFFFFFFFFFFFF AND SUB PUSH2 0xF9A JUMPI PUSH2 0xF95 DUP7 PUSH2 0x15BF JUMP JUMPDEST PUSH2 0x1045 JUMP JUMPDEST PUSH4 0xDE180DE3 PUSH8 0xFFFFFFFFFFFFFFFF AND DUP9 PUSH8 0xFFFFFFFFFFFFFFFF AND SUB PUSH2 0x103F JUMPI PUSH20 0xFF00000000000000000000000000000000000007 PUSH20 0xFFFFFFFFFFFFFFFFFFFFFFFFFFFFFFFFFFFFFFFF AND CALLER PUSH20 0xFFFFFFFFFFFFFFFFFFFFFFFFFFFFFFFFFFFFFFFF AND EQ PUSH2 0x1005 JUMPI PUSH1 0x0 DUP1 REVERT JUMPDEST PUSH32 0x10AA319ED8CAD9BCEB033C0C2788C4AE17469AC844E4C6E2C2E20E74CA8A7BE8 PUSH1 0x40 MLOAD PUSH2 0x1032 SWAP1 PUSH2 0x51D1 JUMP JUMPDEST PUSH1 0x40 MLOAD DUP1 SWAP2 SUB SWAP1 LOG1 PUSH2 0x1044 JUMP JUMPDEST PUSH1 0x0 DUP1 REVERT JUMPDEST JUMPDEST JUMPDEST PUSH1 0x0 DUP2 DUP4 SWAP5 POP SWAP5 POP SWAP5 POP POP POP SWAP4 POP SWAP4 POP SWAP4 SWAP1 POP JUMP JUMPDEST PUSH1 0x0 PUSH1 0x2 SWAP1 SLOAD SWAP1 PUSH2 0x100 EXP SWAP1 DIV PUSH20 0xFFFFFFFFFFFFFFFFFFFFFFFFFFFFFFFFFFFFFFFF AND DUP2 JUMP JUMPDEST PUSH2 0x1107 PUSH20 0x0 PUSH4 0x8CE70C68 ADDRESS PUSH1 0x40 MLOAD DUP3 PUSH4 0xFFFFFFFF AND PUSH1 0xE0 SHL DUP2 MSTORE PUSH1 0x4 ADD PUSH2 0x10BB SWAP2 SWAP1 PUSH2 0x41B4 JUMP JUMPDEST PUSH1 0x0 PUSH1 0x40 MLOAD DUP1 DUP4 SUB DUP2 DUP7 GAS DELEGATECALL ISZERO DUP1 ISZERO PUSH2 0x10D8 JUMPI RETURNDATASIZE PUSH1 0x0 DUP1 RETURNDATACOPY RETURNDATASIZE PUSH1 0x0 REVERT JUMPDEST POP POP POP POP PUSH1 0x40 MLOAD RETURNDATASIZE PUSH1 0x0 DUP3 RETURNDATACOPY RETURNDATASIZE PUSH1 0x1F NOT PUSH1 0x1F DUP3 ADD AND DUP3 ADD DUP1 PUSH1 0x40 MSTORE POP DUP2 ADD SWAP1 PUSH2 0x1101 SWAP2 SWAP1 PUSH2 0x42A1 JUMP JUMPDEST CALLVALUE PUSH2 0x196F JUMP JUMPDEST JUMP JUMPDEST PUSH2 0x1111 PUSH2 0x3A11 JUMP JUMPDEST PUSH1 0x0 PUSH2 0x111C DUP4 PUSH2 0x19D6 JUMP JUMPDEST SWAP1 POP PUSH1 0x0 PUSH2 0x1135 PUSH1 0x5 PUSH4 0x87ED0A64 PUSH1 0x51 DUP6 PUSH1 0x0 DUP1 PUSH2 0x1A97 JUMP JUMPDEST SWAP1 POP PUSH2 0x1140 DUP2 PUSH2 0x1BBD JUMP JUMPDEST SWAP3 POP POP POP SWAP2 SWAP1 POP JUMP JUMPDEST PUSH1 0x0 DUP1 DUP3 PUSH20 0xFFFFFFFFFFFFFFFFFFFFFFFFFFFFFFFFFFFFFFFF AND EXTCODESIZE GT SWAP1 POP SWAP2 SWAP1 POP JUMP JUMPDEST PUSH2 0x1174 PUSH2 0x3A2D JUMP JUMPDEST PUSH1 0x0 PUSH2 0x1189 DUP4 PUSH8 0xFFFFFFFFFFFFFFFF AND PUSH2 0x1C79 JUMP JUMPDEST SWAP1 POP PUSH1 0x0 PUSH2 0x11A3 PUSH1 0x5 PUSH4 0x9904F2FF PUSH1 0x51 DUP6 PUSH1 0x0 PUSH1 0x1 PUSH2 0x1A97 JUMP JUMPDEST SWAP1 POP PUSH2 0x11AE DUP2 PUSH2 0x1CC4 JUMP JUMPDEST SWAP3 POP POP POP SWAP2 SWAP1 POP JUMP JUMPDEST PUSH20 0xFF00000000000000000000000000000000000005 PUSH20 0xFFFFFFFFFFFFFFFFFFFFFFFFFFFFFFFFFFFFFFFF AND CALLER PUSH20 0xFFFFFFFFFFFFFFFFFFFFFFFFFFFFFFFFFFFFFFFF AND EQ PUSH2 0x1203 JUMPI PUSH1 0x0 DUP1 REVERT JUMPDEST PUSH1 0x0 PUSH2 0x120E DUP3 PUSH2 0x1D4E JUMP JUMPDEST SWAP1 POP PUSH1 0x0 PUSH2 0x121F DUP3 PUSH1 0x20 ADD MLOAD PUSH2 0x1DCA JUMP JUMPDEST SWAP1 POP PUSH1 0x0 DUP2 PUSH1 0x0 ADD MLOAD PUSH1 0x0 ADD MLOAD SWAP1 POP PUSH1 0x0 DUP1 PUSH1 0x2 SWAP1 SLOAD SWAP1 PUSH2 0x100 EXP SWAP1 DIV PUSH20 0xFFFFFFFFFFFFFFFFFFFFFFFFFFFFFFFFFFFFFFFF AND PUSH20 0xFFFFFFFFFFFFFFFFFFFFFFFFFFFFFFFFFFFFFFFF AND PUSH4 0xF44A8903 DUP4 PUSH1 0x40 MLOAD DUP3 PUSH4 0xFFFFFFFF AND PUSH1 0xE0 SHL DUP2 MSTORE PUSH1 0x4 ADD PUSH2 0x128A SWAP2 SWAP1 PUSH2 0x50F1 JUMP JUMPDEST PUSH1 0x40 DUP1 MLOAD DUP1 DUP4 SUB DUP2 DUP7 GAS STATICCALL ISZERO DUP1 ISZERO PUSH2 0x12A6 JUMPI RETURNDATASIZE PUSH1 0x0 DUP1 RETURNDATACOPY RETURNDATASIZE PUSH1 0x0 REVERT JUMPDEST POP POP POP POP PUSH1 0x40 MLOAD RETURNDATASIZE PUSH1 0x1F NOT PUSH1 0x1F DUP3 ADD AND DUP3 ADD DUP1 PUSH1 0x40 MSTORE POP DUP2 ADD SWAP1 PUSH2 0x12CA SWAP2 SWAP1 PUSH2 0x5241 JUMP JUMPDEST SWAP1 POP DUP1 PUSH1 0x20 ADD MLOAD ISZERO DUP1 PUSH2 0x12DE JUMPI POP DUP1 PUSH1 0x20 ADD MLOAD JUMPDEST ISZERO PUSH2 0x12E8 JUMPI PUSH1 0x0 DUP1 REVERT JUMPDEST PUSH1 0x0 DUP1 PUSH1 0x2 SWAP1 SLOAD SWAP1 PUSH2 0x100 EXP SWAP1 DIV PUSH20 0xFFFFFFFFFFFFFFFFFFFFFFFFFFFFFFFFFFFFFFFF AND PUSH20 0xFFFFFFFFFFFFFFFFFFFFFFFFFFFFFFFFFFFFFFFF AND PUSH4 0x342C89B4 DUP4 PUSH1 0x0 ADD MLOAD PUSH1 0x40 MLOAD DUP3 PUSH4 0xFFFFFFFF AND PUSH1 0xE0 SHL DUP2 MSTORE PUSH1 0x4 ADD PUSH2 0x1348 SWAP2 SWAP1 PUSH2 0x3D69 JUMP JUMPDEST PUSH1 0x0 PUSH1 0x40 MLOAD DUP1 DUP4 SUB DUP2 DUP7 GAS STATICCALL ISZERO DUP1 ISZERO PUSH2 0x1365 JUMPI RETURNDATASIZE PUSH1 0x0 DUP1 RETURNDATACOPY RETURNDATASIZE PUSH1 0x0 REVERT JUMPDEST POP POP POP POP PUSH1 0x40 MLOAD RETURNDATASIZE PUSH1 0x0 DUP3 RETURNDATACOPY RETURNDATASIZE PUSH1 0x1F NOT PUSH1 0x1F DUP3 ADD AND DUP3 ADD DUP1 PUSH1 0x40 MSTORE POP DUP2 ADD SWAP1 PUSH2 0x138E SWAP2 SWAP1 PUSH2 0x54A9 JUMP JUMPDEST SWAP1 POP DUP1 PUSH1 0x40 ADD MLOAD ISZERO ISZERO DUP5 PUSH1 0x40 ADD MLOAD ISZERO ISZERO EQ PUSH2 0x13D5 JUMPI PUSH1 0x40 MLOAD PUSH32 0x7F7CEBF700000000000000000000000000000000000000000000000000000000 DUP2 MSTORE PUSH1 0x4 ADD PUSH1 0x40 MLOAD DUP1 SWAP2 SUB SWAP1 REVERT JUMPDEST DUP1 PUSH1 0xC0 ADD MLOAD PUSH20 0x0 PUSH4 0x86113702 DUP7 PUSH2 0x100 ADD MLOAD PUSH1 0x40 MLOAD DUP3 PUSH4 0xFFFFFFFF AND PUSH1 0xE0 SHL DUP2 MSTORE PUSH1 0x4 ADD PUSH2 0x1416 SWAP2 SWAP1 PUSH2 0x44DD JUMP JUMPDEST PUSH1 0x20 PUSH1 0x40 MLOAD DUP1 DUP4 SUB DUP2 DUP7 GAS DELEGATECALL ISZERO DUP1 ISZERO PUSH2 0x1433 JUMPI RETURNDATASIZE PUSH1 0x0 DUP1 RETURNDATACOPY RETURNDATASIZE PUSH1 0x0 REVERT JUMPDEST POP POP POP POP PUSH1 0x40 MLOAD RETURNDATASIZE PUSH1 0x1F NOT PUSH1 0x1F DUP3 ADD AND DUP3 ADD DUP1 PUSH1 0x40 MSTORE POP DUP2 ADD SWAP1 PUSH2 0x1457 SWAP2 SWAP1 PUSH2 0x4514 JUMP JUMPDEST LT PUSH2 0x148E JUMPI PUSH1 0x40 MLOAD PUSH32 0xDAABD97200000000000000000000000000000000000000000000000000000000 DUP2 MSTORE PUSH1 0x4 ADD PUSH1 0x40 MLOAD DUP1 SWAP2 SUB SWAP1 REVERT JUMPDEST DUP1 PUSH2 0x100 ADD MLOAD PUSH20 0x0 PUSH4 0x86113702 DUP7 PUSH2 0x140 ADD MLOAD PUSH1 0x40 MLOAD DUP3 PUSH4 0xFFFFFFFF AND PUSH1 0xE0 SHL DUP2 MSTORE PUSH1 0x4 ADD PUSH2 0x14D0 SWAP2 SWAP1 PUSH2 0x44DD JUMP JUMPDEST PUSH1 0x20 PUSH1 0x40 MLOAD DUP1 DUP4 SUB DUP2 DUP7 GAS DELEGATECALL ISZERO DUP1 ISZERO PUSH2 0x14ED JUMPI RETURNDATASIZE PUSH1 0x0 DUP1 RETURNDATACOPY RETURNDATASIZE PUSH1 0x0 REVERT JUMPDEST POP POP POP POP PUSH1 0x40 MLOAD RETURNDATASIZE PUSH1 0x1F NOT PUSH1 0x1F DUP3 ADD AND DUP3 ADD DUP1 PUSH1 0x40 MSTORE POP DUP2 ADD SWAP1 PUSH2 0x1511 SWAP2 SWAP1 PUSH2 0x4514 JUMP JUMPDEST LT PUSH2 0x151B JUMPI PUSH1 0x0 DUP1 REVERT JUMPDEST POP POP POP POP POP POP JUMP JUMPDEST PUSH2 0x152B PUSH2 0x3A4D JUMP JUMPDEST PUSH2 0x1539 DUP2 PUSH1 0x0 ADD MLOAD DUP4 PUSH2 0x1FD5 JUMP JUMPDEST POP PUSH1 0x0 DUP2 PUSH1 0x20 ADD DUP2 DUP2 MSTORE POP POP SWAP2 SWAP1 POP JUMP JUMPDEST PUSH2 0x1562 DUP3 DUP3 PUSH2 0x155A JUMPI PUSH1 0x14 PUSH2 0x155D JUMP JUMPDEST PUSH1 0x15 JUMPDEST PUSH2 0x204E JUMP JUMPDEST POP POP JUMP JUMPDEST PUSH1 0x60 PUSH1 0x0 DUP3 PUSH1 0x20 ADD MLOAD EQ PUSH2 0x15AF JUMPI PUSH1 0x40 MLOAD PUSH32 0x8C379A000000000000000000000000000000000000000000000000000000000 DUP2 MSTORE PUSH1 0x4 ADD PUSH2 0x15A6 SWAP1 PUSH2 0x553E JUMP JUMPDEST PUSH1 0x40 MLOAD DUP1 SWAP2 SUB SWAP1 REVERT JUMPDEST DUP2 PUSH1 0x0 ADD MLOAD PUSH1 0x0 ADD MLOAD SWAP1 POP SWAP2 SWAP1 POP JUMP JUMPDEST PUSH20 0xFF00000000000000000000000000000000000005 PUSH20 0xFFFFFFFFFFFFFFFFFFFFFFFFFFFFFFFFFFFFFFFF AND CALLER PUSH20 0xFFFFFFFFFFFFFFFFFFFFFFFFFFFFFFFFFFFFFFFF AND EQ PUSH2 0x160B JUMPI PUSH1 0x0 DUP1 REVERT JUMPDEST PUSH1 0x0 PUSH2 0x1616 DUP3 PUSH2 0x2074 JUMP JUMPDEST SWAP1 POP PUSH1 0x0 PUSH2 0x1627 DUP3 PUSH1 0x0 ADD MLOAD PUSH2 0x1DCA JUMP JUMPDEST SWAP1 POP PUSH1 0x0 DUP1 PUSH1 0x2 SWAP1 SLOAD SWAP1 PUSH2 0x100 EXP SWAP1 DIV PUSH20 0xFFFFFFFFFFFFFFFFFFFFFFFFFFFFFFFFFFFFFFFF AND PUSH20 0xFFFFFFFFFFFFFFFFFFFFFFFFFFFFFFFFFFFFFFFF AND PUSH4 0xF44A8903 DUP4 PUSH1 0x0 ADD MLOAD PUSH1 0x0 ADD MLOAD PUSH1 0x40 MLOAD DUP3 PUSH4 0xFFFFFFFF AND PUSH1 0xE0 SHL DUP2 MSTORE PUSH1 0x4 ADD PUSH2 0x168D SWAP2 SWAP1 PUSH2 0x50F1 JUMP JUMPDEST PUSH1 0x40 DUP1 MLOAD DUP1 DUP4 SUB DUP2 DUP7 GAS STATICCALL ISZERO DUP1 ISZERO PUSH2 0x16A9 JUMPI RETURNDATASIZE PUSH1 0x0 DUP1 RETURNDATACOPY RETURNDATASIZE PUSH1 0x0 REVERT JUMPDEST POP POP POP POP PUSH1 0x40 MLOAD RETURNDATASIZE PUSH1 0x1F NOT PUSH1 0x1F DUP3 ADD AND DUP3 ADD DUP1 PUSH1 0x40 MSTORE POP DUP2 ADD SWAP1 PUSH2 0x16CD SWAP2 SWAP1 PUSH2 0x5241 JUMP JUMPDEST SWAP1 POP DUP1 PUSH1 0x20 ADD MLOAD ISZERO DUP1 PUSH2 0x16E1 JUMPI POP DUP1 PUSH1 0x20 ADD MLOAD JUMPDEST ISZERO PUSH2 0x16EB JUMPI PUSH1 0x0 DUP1 REVERT JUMPDEST PUSH1 0x0 PUSH1 0x2 SWAP1 SLOAD SWAP1 PUSH2 0x100 EXP SWAP1 DIV PUSH20 0xFFFFFFFFFFFFFFFFFFFFFFFFFFFFFFFFFFFFFFFF AND PUSH20 0xFFFFFFFFFFFFFFFFFFFFFFFFFFFFFFFFFFFFFFFF AND PUSH4 0xFB2A0B32 DUP4 PUSH1 0x0 ADD MLOAD PUSH1 0x0 ADD MLOAD PUSH1 0x40 MLOAD DUP1 PUSH1 0x40 ADD PUSH1 0x40 MSTORE DUP1 DUP7 PUSH1 0x80 ADD MLOAD PUSH1 0x0 ADD MLOAD DUP2 MSTORE PUSH1 0x20 ADD PUSH1 0x1 ISZERO ISZERO DUP2 MSTORE POP PUSH1 0x40 MLOAD DUP4 PUSH4 0xFFFFFFFF AND PUSH1 0xE0 SHL DUP2 MSTORE PUSH1 0x4 ADD PUSH2 0x176F SWAP3 SWAP2 SWAP1 PUSH2 0x55D4 JUMP JUMPDEST PUSH1 0x0 PUSH1 0x40 MLOAD DUP1 DUP4 SUB DUP2 PUSH1 0x0 DUP8 DUP1 EXTCODESIZE ISZERO DUP1 ISZERO PUSH2 0x1789 JUMPI PUSH1 0x0 DUP1 REVERT JUMPDEST POP GAS CALL ISZERO DUP1 ISZERO PUSH2 0x179D JUMPI RETURNDATASIZE PUSH1 0x0 DUP1 RETURNDATACOPY RETURNDATASIZE PUSH1 0x0 REVERT JUMPDEST POP POP POP POP PUSH1 0x0 PUSH1 0x2 SWAP1 SLOAD SWAP1 PUSH2 0x100 EXP SWAP1 DIV PUSH20 0xFFFFFFFFFFFFFFFFFFFFFFFFFFFFFFFFFFFFFFFF AND PUSH20 0xFFFFFFFFFFFFFFFFFFFFFFFFFFFFFFFFFFFFFFFF AND PUSH4 0x9AA09DFE DUP4 PUSH1 0x0 ADD MLOAD PUSH1 0x0 ADD MLOAD DUP6 PUSH1 0x20 ADD MLOAD PUSH1 0x40 MLOAD DUP4 PUSH4 0xFFFFFFFF AND PUSH1 0xE0 SHL DUP2 MSTORE PUSH1 0x4 ADD PUSH2 0x180A SWAP3 SWAP2 SWAP1 PUSH2 0x560B JUMP JUMPDEST PUSH1 0x0 PUSH1 0x40 MLOAD DUP1 DUP4 SUB DUP2 PUSH1 0x0 DUP8 DUP1 EXTCODESIZE ISZERO DUP1 ISZERO PUSH2 0x1824 JUMPI PUSH1 0x0 DUP1 REVERT JUMPDEST POP GAS CALL ISZERO DUP1 ISZERO PUSH2 0x1838 JUMPI RETURNDATASIZE PUSH1 0x0 DUP1 RETURNDATACOPY RETURNDATASIZE PUSH1 0x0 REVERT JUMPDEST POP POP POP POP PUSH1 0x0 PUSH1 0x2 SWAP1 SLOAD SWAP1 PUSH2 0x100 EXP SWAP1 DIV PUSH20 0xFFFFFFFFFFFFFFFFFFFFFFFFFFFFFFFFFFFFFFFF AND PUSH20 0xFFFFFFFFFFFFFFFFFFFFFFFFFFFFFFFFFFFFFFFF AND PUSH4 0xD15BCBE3 DUP4 PUSH1 0x0 ADD MLOAD PUSH1 0x0 ADD MLOAD PUSH1 0x2 PUSH1 0x40 MLOAD DUP4 PUSH4 0xFFFFFFFF AND PUSH1 0xE0 SHL DUP2 MSTORE PUSH1 0x4 ADD PUSH2 0x18A2 SWAP3 SWAP2 SWAP1 PUSH2 0x5155 JUMP JUMPDEST PUSH1 0x0 PUSH1 0x40 MLOAD DUP1 DUP4 SUB DUP2 PUSH1 0x0 DUP8 DUP1 EXTCODESIZE ISZERO DUP1 ISZERO PUSH2 0x18BC JUMPI PUSH1 0x0 DUP1 REVERT JUMPDEST POP GAS CALL ISZERO DUP1 ISZERO PUSH2 0x18D0 JUMPI RETURNDATASIZE PUSH1 0x0 DUP1 RETURNDATACOPY RETURNDATASIZE PUSH1 0x0 REVERT JUMPDEST POP POP POP POP PUSH1 0x0 PUSH1 0x2 SWAP1 SLOAD SWAP1 PUSH2 0x100 EXP SWAP1 DIV PUSH20 0xFFFFFFFFFFFFFFFFFFFFFFFFFFFFFFFFFFFFFFFF AND PUSH20 0xFFFFFFFFFFFFFFFFFFFFFFFFFFFFFFFFFFFFFFFF AND PUSH4 0x85271D9B DUP4 PUSH1 0x0 ADD MLOAD PUSH1 0x0 ADD MLOAD PUSH1 0x40 MLOAD DUP3 PUSH4 0xFFFFFFFF AND PUSH1 0xE0 SHL DUP2 MSTORE PUSH1 0x4 ADD PUSH2 0x1937 SWAP2 SWAP1 PUSH2 0x50F1 JUMP JUMPDEST PUSH1 0x0 PUSH1 0x40 MLOAD DUP1 DUP4 SUB DUP2 PUSH1 0x0 DUP8 DUP1 EXTCODESIZE ISZERO DUP1 ISZERO PUSH2 0x1951 JUMPI PUSH1 0x0 DUP1 REVERT JUMPDEST POP GAS CALL ISZERO DUP1 ISZERO PUSH2 0x1965 JUMPI RETURNDATASIZE PUSH1 0x0 DUP1 RETURNDATACOPY RETURNDATASIZE PUSH1 0x0 REVERT JUMPDEST POP POP POP POP POP POP POP POP JUMP JUMPDEST PUSH1 0x0 PUSH2 0x197A DUP4 PUSH2 0x2105 JUMP JUMPDEST SWAP1 POP PUSH1 0x0 PUSH2 0x1993 PUSH1 0x5 PUSH4 0x3105F1A6 PUSH1 0x51 DUP6 DUP8 PUSH1 0x0 PUSH2 0x1A97 JUMP JUMPDEST SWAP1 POP PUSH1 0x0 DUP2 MLOAD EQ PUSH2 0x19D0 JUMPI PUSH1 0x40 MLOAD PUSH32 0xE74990700000000000000000000000000000000000000000000000000000000 DUP2 MSTORE PUSH1 0x4 ADD PUSH1 0x40 MLOAD DUP1 SWAP2 SUB SWAP1 REVERT JUMPDEST POP POP POP POP JUMP JUMPDEST PUSH1 0x60 PUSH1 0x0 DUP1 PUSH2 0x19E8 DUP5 PUSH1 0x20 ADD MLOAD PUSH2 0x214E JUMP JUMPDEST SWAP1 POP PUSH2 0x19F4 PUSH1 0x2 PUSH2 0x22BB JUMP JUMPDEST DUP3 PUSH2 0x19FF SWAP2 SWAP1 PUSH2 0x566A JUMP JUMPDEST SWAP2 POP PUSH2 0x1A12 DUP5 PUSH1 0x0 ADD MLOAD PUSH1 0x0 ADD MLOAD PUSH2 0x230F JUMP JUMPDEST DUP3 PUSH2 0x1A1D SWAP2 SWAP1 PUSH2 0x566A JUMP JUMPDEST SWAP2 POP PUSH2 0x1A28 DUP2 PUSH2 0x230F JUMP JUMPDEST DUP3 PUSH2 0x1A33 SWAP2 SWAP1 PUSH2 0x566A JUMP JUMPDEST SWAP2 POP PUSH1 0x0 PUSH2 0x1A40 DUP4 PUSH2 0x232E JUMP JUMPDEST SWAP1 POP PUSH2 0x1A56 PUSH1 0x2 DUP3 PUSH2 0x2355 SWAP1 SWAP2 SWAP1 PUSH4 0xFFFFFFFF AND JUMP JUMPDEST PUSH2 0x1A71 DUP6 PUSH1 0x0 ADD MLOAD PUSH1 0x0 ADD MLOAD DUP3 PUSH2 0x2365 SWAP1 SWAP2 SWAP1 PUSH4 0xFFFFFFFF AND JUMP JUMPDEST PUSH2 0x1A84 DUP3 DUP3 PUSH2 0x2365 SWAP1 SWAP2 SWAP1 PUSH4 0xFFFFFFFF AND JUMP JUMPDEST PUSH2 0x1A8D DUP2 PUSH2 0x238E JUMP JUMPDEST SWAP4 POP POP POP POP SWAP2 SWAP1 POP JUMP JUMPDEST PUSH1 0x60 PUSH2 0x1AB7 PUSH20 0xFE00000000000000000000000000000000000005 DUP5 PUSH2 0x23E7 JUMP JUMPDEST PUSH1 0x0 DUP1 PUSH20 0xFE00000000000000000000000000000000000005 PUSH20 0xFFFFFFFFFFFFFFFFFFFFFFFFFFFFFFFFFFFFFFFF AND DUP9 DUP7 DUP7 PUSH2 0x1AF3 JUMPI PUSH1 0x0 PUSH2 0x1AF6 JUMP JUMPDEST PUSH1 0x1 JUMPDEST DUP11 DUP11 DUP15 PUSH1 0x40 MLOAD PUSH1 0x20 ADD PUSH2 0x1B0E SWAP7 SWAP6 SWAP5 SWAP4 SWAP3 SWAP2 SWAP1 PUSH2 0x56CF JUMP JUMPDEST PUSH1 0x40 MLOAD PUSH1 0x20 DUP2 DUP4 SUB SUB DUP2 MSTORE SWAP1 PUSH1 0x40 MSTORE PUSH1 0x40 MLOAD PUSH2 0x1B2A SWAP2 SWAP1 PUSH2 0x5768 JUMP JUMPDEST PUSH1 0x0 PUSH1 0x40 MLOAD DUP1 DUP4 SUB DUP2 DUP6 GAS DELEGATECALL SWAP2 POP POP RETURNDATASIZE DUP1 PUSH1 0x0 DUP2 EQ PUSH2 0x1B65 JUMPI PUSH1 0x40 MLOAD SWAP2 POP PUSH1 0x1F NOT PUSH1 0x3F RETURNDATASIZE ADD AND DUP3 ADD PUSH1 0x40 MSTORE RETURNDATASIZE DUP3 MSTORE RETURNDATASIZE PUSH1 0x0 PUSH1 0x20 DUP5 ADD RETURNDATACOPY PUSH2 0x1B6A JUMP JUMPDEST PUSH1 0x60 SWAP2 POP JUMPDEST POP SWAP2 POP SWAP2 POP DUP2 PUSH2 0x1BA6 JUMPI PUSH1 0x40 MLOAD PUSH32 0x8A7DB5BF00000000000000000000000000000000000000000000000000000000 DUP2 MSTORE PUSH1 0x4 ADD PUSH1 0x40 MLOAD DUP1 SWAP2 SUB SWAP1 REVERT JUMPDEST PUSH2 0x1BAF DUP2 PUSH2 0x247D JUMP JUMPDEST SWAP3 POP POP POP SWAP7 SWAP6 POP POP POP POP POP POP JUMP JUMPDEST PUSH2 0x1BC5 PUSH2 0x3A11 JUMP JUMPDEST PUSH1 0x60 PUSH1 0x0 DUP1 DUP5 MLOAD GT ISZERO PUSH2 0x1C0A JUMPI PUSH2 0x1BE5 DUP2 DUP6 PUSH2 0x2604 SWAP1 SWAP2 SWAP1 PUSH4 0xFFFFFFFF AND JUMP JUMPDEST DUP1 SWAP3 POP DUP2 SWAP4 POP POP POP PUSH1 0x0 DUP3 MLOAD GT ISZERO PUSH2 0x1C09 JUMPI PUSH2 0x1C00 DUP3 PUSH2 0x27E0 JUMP JUMPDEST SWAP3 POP POP POP PUSH2 0x1C74 JUMP JUMPDEST JUMPDEST PUSH1 0x40 MLOAD DUP1 PUSH1 0x40 ADD PUSH1 0x40 MSTORE DUP1 PUSH1 0x0 PUSH8 0xFFFFFFFFFFFFFFFF DUP2 GT ISZERO PUSH2 0x1C30 JUMPI PUSH2 0x1C2F PUSH2 0x3E1D JUMP JUMPDEST JUMPDEST PUSH1 0x40 MLOAD SWAP1 DUP1 DUP3 MSTORE DUP1 PUSH1 0x1F ADD PUSH1 0x1F NOT AND PUSH1 0x20 ADD DUP3 ADD PUSH1 0x40 MSTORE DUP1 ISZERO PUSH2 0x1C62 JUMPI DUP2 PUSH1 0x20 ADD PUSH1 0x1 DUP3 MUL DUP1 CALLDATASIZE DUP4 CALLDATACOPY DUP1 DUP3 ADD SWAP2 POP POP SWAP1 POP JUMPDEST POP DUP2 MSTORE PUSH1 0x20 ADD PUSH1 0x0 ISZERO ISZERO DUP2 MSTORE POP SWAP3 POP POP POP JUMPDEST SWAP2 SWAP1 POP JUMP JUMPDEST PUSH1 0x60 PUSH1 0x0 PUSH2 0x1C90 DUP4 PUSH8 0xFFFFFFFFFFFFFFFF AND PUSH2 0x22BB JUMP JUMPDEST SWAP1 POP PUSH1 0x0 PUSH2 0x1C9D DUP3 PUSH2 0x232E JUMP JUMPDEST SWAP1 POP PUSH2 0x1CB2 DUP5 DUP3 PUSH2 0x2987 SWAP1 SWAP2 SWAP1 PUSH4 0xFFFFFFFF AND JUMP JUMPDEST PUSH2 0x1CBB DUP2 PUSH2 0x238E JUMP JUMPDEST SWAP3 POP POP POP SWAP2 SWAP1 POP JUMP JUMPDEST PUSH2 0x1CCC PUSH2 0x3A2D JUMP JUMPDEST PUSH1 0x0 DUP1 PUSH2 0x1CE2 DUP3 DUP6 PUSH2 0x2997 SWAP1 SWAP2 SWAP1 PUSH4 0xFFFFFFFF AND JUMP JUMPDEST DUP1 SWAP4 POP DUP2 SWAP3 POP POP POP PUSH1 0x2 DUP2 EQ PUSH2 0x1CFB JUMPI PUSH2 0x1CFA PUSH2 0x577F JUMP JUMPDEST JUMPDEST PUSH2 0x1D0E DUP3 DUP6 PUSH2 0x2A18 SWAP1 SWAP2 SWAP1 PUSH4 0xFFFFFFFF AND JUMP JUMPDEST DUP5 PUSH1 0x0 ADD DUP2 SWAP5 POP DUP3 PUSH1 0x7 SIGNEXTEND PUSH1 0x7 SIGNEXTEND DUP2 MSTORE POP POP POP PUSH2 0x1D34 DUP3 DUP6 PUSH2 0x2A18 SWAP1 SWAP2 SWAP1 PUSH4 0xFFFFFFFF AND JUMP JUMPDEST DUP5 PUSH1 0x20 ADD DUP2 SWAP5 POP DUP3 PUSH1 0x7 SIGNEXTEND PUSH1 0x7 SIGNEXTEND DUP2 MSTORE POP POP POP POP POP SWAP2 SWAP1 POP JUMP JUMPDEST PUSH2 0x1D56 PUSH2 0x3A6D JUMP JUMPDEST PUSH1 0x0 DUP1 PUSH2 0x1D6C DUP3 DUP6 PUSH2 0x2997 SWAP1 SWAP2 SWAP1 PUSH4 0xFFFFFFFF AND JUMP JUMPDEST DUP1 SWAP4 POP DUP2 SWAP3 POP POP POP PUSH1 0x2 DUP2 EQ PUSH2 0x1D85 JUMPI PUSH2 0x1D84 PUSH2 0x577F JUMP JUMPDEST JUMPDEST PUSH2 0x1D98 DUP3 DUP6 PUSH2 0x2604 SWAP1 SWAP2 SWAP1 PUSH4 0xFFFFFFFF AND JUMP JUMPDEST DUP5 PUSH1 0x0 ADD DUP2 SWAP5 POP DUP3 SWAP1 MSTORE POP POP PUSH2 0x1DB7 DUP3 DUP6 PUSH2 0x2604 SWAP1 SWAP2 SWAP1 PUSH4 0xFFFFFFFF AND JUMP JUMPDEST DUP5 PUSH1 0x20 ADD DUP2 SWAP5 POP DUP3 SWAP1 MSTORE POP POP POP POP SWAP2 SWAP1 POP JUMP JUMPDEST PUSH2 0x1DD2 PUSH2 0x3A87 JUMP JUMPDEST PUSH1 0x0 DUP1 PUSH1 0x60 PUSH2 0x1DEA DUP4 DUP7 PUSH2 0x2997 SWAP1 SWAP2 SWAP1 PUSH4 0xFFFFFFFF AND JUMP JUMPDEST DUP1 SWAP5 POP DUP2 SWAP4 POP POP POP PUSH1 0xB DUP3 EQ PUSH2 0x1E03 JUMPI PUSH2 0x1E02 PUSH2 0x577F JUMP JUMPDEST JUMPDEST PUSH2 0x1E16 DUP4 DUP7 PUSH2 0x2A46 SWAP1 SWAP2 SWAP1 PUSH4 0xFFFFFFFF AND JUMP JUMPDEST DUP6 PUSH1 0x0 ADD DUP2 SWAP6 POP DUP3 SWAP1 MSTORE POP POP PUSH2 0x1E35 DUP4 DUP7 PUSH2 0x2CC0 SWAP1 SWAP2 SWAP1 PUSH4 0xFFFFFFFF AND JUMP JUMPDEST DUP6 PUSH1 0x20 ADD DUP2 SWAP6 POP DUP3 PUSH8 0xFFFFFFFFFFFFFFFF AND PUSH8 0xFFFFFFFFFFFFFFFF AND DUP2 MSTORE POP POP POP PUSH2 0x1E69 DUP4 DUP7 PUSH2 0x2D41 SWAP1 SWAP2 SWAP1 PUSH4 0xFFFFFFFF AND JUMP JUMPDEST DUP6 PUSH1 0x40 ADD DUP2 SWAP6 POP DUP3 ISZERO ISZERO ISZERO ISZERO DUP2 MSTORE POP POP POP PUSH2 0x1E8D DUP4 DUP7 PUSH2 0x2604 SWAP1 SWAP2 SWAP1 PUSH4 0xFFFFFFFF AND JUMP JUMPDEST DUP1 SWAP5 POP DUP2 SWAP3 POP POP POP PUSH2 0x1E9E DUP2 PUSH2 0x2DEB JUMP JUMPDEST DUP5 PUSH1 0x60 ADD DUP2 SWAP1 MSTORE POP PUSH2 0x1EB9 DUP4 DUP7 PUSH2 0x2604 SWAP1 SWAP2 SWAP1 PUSH4 0xFFFFFFFF AND JUMP JUMPDEST DUP1 SWAP5 POP DUP2 SWAP3 POP POP POP PUSH2 0x1ECA DUP2 PUSH2 0x2DEB JUMP JUMPDEST DUP5 PUSH1 0x80 ADD DUP2 SWAP1 MSTORE POP PUSH2 0x1EE5 DUP4 DUP7 PUSH2 0x2E4E SWAP1 SWAP2 SWAP1 PUSH4 0xFFFFFFFF AND JUMP JUMPDEST DUP6 PUSH1 0xA0 ADD DUP2 SWAP6 POP DUP3 SWAP1 MSTORE POP POP PUSH2 0x1F04 DUP4 DUP7 PUSH2 0x2A18 SWAP1 SWAP2 SWAP1 PUSH4 0xFFFFFFFF AND JUMP JUMPDEST DUP6 PUSH1 0xC0 ADD DUP2 SWAP6 POP DUP3 PUSH1 0x7 SIGNEXTEND PUSH1 0x7 SIGNEXTEND DUP2 MSTORE POP POP POP PUSH2 0x1F2A DUP4 DUP7 PUSH2 0x2A18 SWAP1 SWAP2 SWAP1 PUSH4 0xFFFFFFFF AND JUMP JUMPDEST DUP6 PUSH1 0xE0 ADD DUP2 SWAP6 POP DUP3 PUSH1 0x7 SIGNEXTEND PUSH1 0x7 SIGNEXTEND DUP2 MSTORE POP POP POP PUSH1 0x60 PUSH2 0x1F52 DUP5 DUP8 PUSH2 0x2604 SWAP1 SWAP2 SWAP1 PUSH4 0xFFFFFFFF AND JUMP JUMPDEST DUP1 SWAP6 POP DUP2 SWAP3 POP POP POP PUSH2 0x1F63 DUP2 PUSH2 0x27E0 JUMP JUMPDEST DUP6 PUSH2 0x100 ADD DUP2 SWAP1 MSTORE POP PUSH1 0x60 PUSH2 0x1F81 DUP6 DUP9 PUSH2 0x2604 SWAP1 SWAP2 SWAP1 PUSH4 0xFFFFFFFF AND JUMP JUMPDEST DUP1 SWAP7 POP DUP2 SWAP3 POP POP POP PUSH2 0x1F92 DUP2 PUSH2 0x27E0 JUMP JUMPDEST DUP7 PUSH2 0x120 ADD DUP2 SWAP1 MSTORE POP PUSH1 0x60 PUSH2 0x1FB0 DUP7 DUP10 PUSH2 0x2604 SWAP1 SWAP2 SWAP1 PUSH4 0xFFFFFFFF AND JUMP JUMPDEST DUP1 SWAP8 POP DUP2 SWAP3 POP POP POP PUSH2 0x1FC1 DUP2 PUSH2 0x27E0 JUMP JUMPDEST DUP8 PUSH2 0x140 ADD DUP2 SWAP1 MSTORE POP POP POP POP POP POP POP SWAP2 SWAP1 POP JUMP JUMPDEST PUSH2 0x1FDD PUSH2 0x3B1D JUMP JUMPDEST PUSH1 0x0 PUSH1 0x20 DUP4 PUSH2 0x1FEC SWAP2 SWAP1 PUSH2 0x57DD JUMP JUMPDEST EQ PUSH2 0x2018 JUMPI PUSH1 0x20 DUP3 PUSH2 0x1FFE SWAP2 SWAP1 PUSH2 0x57DD JUMP JUMPDEST PUSH1 0x20 PUSH2 0x200A SWAP2 SWAP1 PUSH2 0x580E JUMP JUMPDEST DUP3 PUSH2 0x2015 SWAP2 SWAP1 PUSH2 0x566A JUMP JUMPDEST SWAP2 POP JUMPDEST DUP2 DUP4 PUSH1 0x20 ADD DUP2 DUP2 MSTORE POP POP PUSH1 0x40 MLOAD DUP1 DUP5 MSTORE PUSH1 0x0 DUP2 MSTORE DUP3 DUP2 ADD PUSH1 0x20 ADD DUP2 DUP2 LT ISZERO PUSH2 0x203F JUMPI PUSH1 0x0 DUP1 REVERT JUMPDEST DUP1 PUSH1 0x40 MSTORE POP POP DUP3 SWAP1 POP SWAP3 SWAP2 POP POP JUMP JUMPDEST PUSH2 0x206F DUP2 PUSH1 0x5 PUSH1 0x7 PUSH1 0xFF AND SWAP1 SHL OR DUP4 PUSH1 0x0 ADD MLOAD PUSH2 0x3006 SWAP1 SWAP2 SWAP1 PUSH4 0xFFFFFFFF AND JUMP JUMPDEST POP POP POP JUMP JUMPDEST PUSH2 0x207C PUSH2 0x3B37 JUMP JUMPDEST PUSH1 0x0 DUP1 PUSH2 0x2092 DUP3 DUP6 PUSH2 0x2997 SWAP1 SWAP2 SWAP1 PUSH4 0xFFFFFFFF AND JUMP JUMPDEST DUP1 SWAP4 POP DUP2 SWAP3 POP POP POP PUSH1 0x2 DUP2 EQ PUSH2 0x20AB JUMPI PUSH2 0x20AA PUSH2 0x577F JUMP JUMPDEST JUMPDEST PUSH2 0x20BE DUP3 DUP6 PUSH2 0x2604 SWAP1 SWAP2 SWAP1 PUSH4 0xFFFFFFFF AND JUMP JUMPDEST DUP5 PUSH1 0x0 ADD DUP2 SWAP5 POP DUP3 SWAP1 MSTORE POP POP PUSH2 0x20DD DUP3 DUP6 PUSH2 0x2CC0 SWAP1 SWAP2 SWAP1 PUSH4 0xFFFFFFFF AND JUMP JUMPDEST DUP5 PUSH1 0x20 ADD DUP2 SWAP5 POP DUP3 PUSH8 0xFFFFFFFFFFFFFFFF AND PUSH8 0xFFFFFFFFFFFFFFFF AND DUP2 MSTORE POP POP POP POP POP SWAP2 SWAP1 POP JUMP JUMPDEST PUSH1 0x60 PUSH1 0x0 PUSH2 0x2116 DUP4 PUSH1 0x0 ADD MLOAD PUSH2 0x230F JUMP JUMPDEST SWAP1 POP PUSH1 0x0 PUSH2 0x2123 DUP3 PUSH2 0x232E JUMP JUMPDEST SWAP1 POP PUSH2 0x213C DUP5 PUSH1 0x0 ADD MLOAD DUP3 PUSH2 0x2365 SWAP1 SWAP2 SWAP1 PUSH4 0xFFFFFFFF AND JUMP JUMPDEST PUSH2 0x2145 DUP2 PUSH2 0x238E JUMP JUMPDEST SWAP3 POP POP POP SWAP2 SWAP1 POP JUMP JUMPDEST PUSH1 0x60 PUSH1 0x0 PUSH1 0x1 DUP4 PUSH1 0x0 ADD MLOAD MLOAD PUSH2 0x2164 SWAP2 SWAP1 PUSH2 0x566A JUMP JUMPDEST PUSH8 0xFFFFFFFFFFFFFFFF DUP2 GT ISZERO PUSH2 0x217D JUMPI PUSH2 0x217C PUSH2 0x3E1D JUMP JUMPDEST JUMPDEST PUSH1 0x40 MLOAD SWAP1 DUP1 DUP3 MSTORE DUP1 PUSH1 0x1F ADD PUSH1 0x1F NOT AND PUSH1 0x20 ADD DUP3 ADD PUSH1 0x40 MSTORE DUP1 ISZERO PUSH2 0x21AF JUMPI DUP2 PUSH1 0x20 ADD PUSH1 0x1 DUP3 MUL DUP1 CALLDATASIZE DUP4 CALLDATACOPY DUP1 DUP3 ADD SWAP2 POP POP SWAP1 POP JUMPDEST POP SWAP1 POP PUSH1 0x1 ISZERO ISZERO DUP4 PUSH1 0x20 ADD MLOAD ISZERO ISZERO EQ PUSH2 0x21CC JUMPI PUSH1 0x0 PUSH1 0xF8 SHL PUSH2 0x21D2 JUMP JUMPDEST PUSH1 0x1 PUSH1 0xF8 SHL JUMPDEST DUP2 PUSH1 0x0 DUP2 MLOAD DUP2 LT PUSH2 0x21E6 JUMPI PUSH2 0x21E5 PUSH2 0x5842 JUMP JUMPDEST JUMPDEST PUSH1 0x20 ADD ADD SWAP1 PUSH31 0xFFFFFFFFFFFFFFFFFFFFFFFFFFFFFFFFFFFFFFFFFFFFFFFFFFFFFFFFFFFFFF NOT AND SWAP1 DUP2 PUSH1 0x0 BYTE SWAP1 MSTORE8 POP PUSH1 0x0 PUSH1 0x1 SWAP1 POP PUSH1 0x0 JUMPDEST DUP5 PUSH1 0x0 ADD MLOAD MLOAD DUP2 LT ISZERO PUSH2 0x22B0 JUMPI DUP5 PUSH1 0x0 ADD MLOAD DUP2 DUP2 MLOAD DUP2 LT PUSH2 0x2242 JUMPI PUSH2 0x2241 PUSH2 0x5842 JUMP JUMPDEST JUMPDEST PUSH1 0x20 ADD ADD MLOAD PUSH1 0xF8 SHR PUSH1 0xF8 SHL DUP4 DUP4 DUP2 MLOAD DUP2 LT PUSH2 0x2260 JUMPI PUSH2 0x225F PUSH2 0x5842 JUMP JUMPDEST JUMPDEST PUSH1 0x20 ADD ADD SWAP1 PUSH31 0xFFFFFFFFFFFFFFFFFFFFFFFFFFFFFFFFFFFFFFFFFFFFFFFFFFFFFFFFFFFFFF NOT AND SWAP1 DUP2 PUSH1 0x0 BYTE SWAP1 MSTORE8 POP DUP2 DUP1 PUSH2 0x229A SWAP1 PUSH2 0x5871 JUMP JUMPDEST SWAP3 POP POP DUP1 DUP1 PUSH2 0x22A8 SWAP1 PUSH2 0x5871 JUMP JUMPDEST SWAP2 POP POP PUSH2 0x221E JUMP JUMPDEST POP DUP2 SWAP3 POP POP POP SWAP2 SWAP1 POP JUMP JUMPDEST PUSH1 0x0 PUSH1 0x17 DUP3 GT PUSH2 0x22CE JUMPI PUSH1 0x1 SWAP1 POP PUSH2 0x230A JUMP JUMPDEST PUSH1 0xFF DUP3 GT PUSH2 0x22DF JUMPI PUSH1 0x2 SWAP1 POP PUSH2 0x230A JUMP JUMPDEST PUSH2 0xFFFF DUP3 GT PUSH2 0x22F1 JUMPI PUSH1 0x3 SWAP1 POP PUSH2 0x230A JUMP JUMPDEST PUSH4 0xFFFFFFFF DUP3 GT PUSH2 0x2305 JUMPI PUSH1 0x5 SWAP1 POP PUSH2 0x230A JUMP JUMPDEST PUSH1 0x9 SWAP1 POP JUMPDEST SWAP2 SWAP1 POP JUMP JUMPDEST PUSH1 0x0 DUP2 MLOAD PUSH2 0x231D DUP4 MLOAD PUSH2 0x22BB JUMP JUMPDEST PUSH2 0x2327 SWAP2 SWAP1 PUSH2 0x566A JUMP JUMPDEST SWAP1 POP SWAP2 SWAP1 POP JUMP JUMPDEST PUSH2 0x2336 PUSH2 0x3B5B JUMP JUMPDEST PUSH2 0x2344 DUP2 PUSH1 0x0 ADD MLOAD DUP4 PUSH2 0x1FD5 JUMP JUMPDEST POP PUSH1 0x0 DUP2 PUSH1 0x20 ADD DUP2 DUP2 MSTORE POP POP SWAP2 SWAP1 POP JUMP JUMPDEST PUSH2 0x2361 DUP3 PUSH1 0x4 DUP4 PUSH2 0x3070 JUMP JUMPDEST POP POP JUMP JUMPDEST PUSH2 0x2372 DUP3 PUSH1 0x2 DUP4 MLOAD PUSH2 0x3080 JUMP JUMPDEST PUSH2 0x2389 DUP2 DUP4 PUSH1 0x0 ADD MLOAD PUSH2 0x3229 SWAP1 SWAP2 SWAP1 PUSH4 0xFFFFFFFF AND JUMP JUMPDEST POP POP POP JUMP JUMPDEST PUSH1 0x60 PUSH1 0x0 DUP3 PUSH1 0x20 ADD MLOAD EQ PUSH2 0x23D7 JUMPI PUSH1 0x40 MLOAD PUSH32 0x8C379A000000000000000000000000000000000000000000000000000000000 DUP2 MSTORE PUSH1 0x4 ADD PUSH2 0x23CE SWAP1 PUSH2 0x553E JUMP JUMPDEST PUSH1 0x40 MLOAD DUP1 SWAP2 SUB SWAP1 REVERT JUMPDEST DUP2 PUSH1 0x0 ADD MLOAD PUSH1 0x0 ADD MLOAD SWAP1 POP SWAP2 SWAP1 POP JUMP JUMPDEST PUSH1 0x0 SELFBALANCE SWAP1 POP DUP2 DUP2 LT ISZERO PUSH2 0x2433 JUMPI DUP1 DUP3 PUSH1 0x40 MLOAD PUSH32 0x8F0F420600000000000000000000000000000000000000000000000000000000 DUP2 MSTORE PUSH1 0x4 ADD PUSH2 0x242A SWAP3 SWAP2 SWAP1 PUSH2 0x58B9 JUMP JUMPDEST PUSH1 0x40 MLOAD DUP1 SWAP2 SUB SWAP1 REVERT JUMPDEST PUSH1 0x0 PUSH2 0x243E DUP5 PUSH2 0x3245 JUMP JUMPDEST SWAP1 POP DUP1 PUSH2 0x2477 JUMPI PUSH1 0x40 MLOAD PUSH32 0x64D954B000000000000000000000000000000000000000000000000000000000 DUP2 MSTORE PUSH1 0x4 ADD PUSH1 0x40 MLOAD DUP1 SWAP2 SUB SWAP1 REVERT JUMPDEST POP POP POP POP JUMP JUMPDEST PUSH1 0x60 PUSH1 0x0 DUP1 PUSH1 0x0 DUP5 DUP1 PUSH1 0x20 ADD SWAP1 MLOAD DUP2 ADD SWAP1 PUSH2 0x2498 SWAP2 SWAP1 PUSH2 0x5918 JUMP JUMPDEST SWAP3 POP SWAP3 POP SWAP3 POP PUSH1 0x0 PUSH8 0xFFFFFFFFFFFFFFFF AND DUP3 PUSH8 0xFFFFFFFFFFFFFFFF AND SUB PUSH2 0x24FA JUMPI PUSH1 0x0 DUP2 MLOAD EQ PUSH2 0x24F5 JUMPI PUSH1 0x40 MLOAD PUSH32 0xE74990700000000000000000000000000000000000000000000000000000000 DUP2 MSTORE PUSH1 0x4 ADD PUSH1 0x40 MLOAD DUP1 SWAP2 SUB SWAP1 REVERT JUMPDEST PUSH2 0x25B4 JUMP JUMPDEST PUSH1 0x51 PUSH8 0xFFFFFFFFFFFFFFFF AND DUP3 PUSH8 0xFFFFFFFFFFFFFFFF AND EQ DUP1 PUSH2 0x2531 JUMPI POP PUSH1 0x71 PUSH8 0xFFFFFFFFFFFFFFFF AND DUP3 PUSH8 0xFFFFFFFFFFFFFFFF AND EQ JUMPDEST ISZERO PUSH2 0x2576 JUMPI PUSH1 0x0 DUP2 MLOAD SUB PUSH2 0x2571 JUMPI PUSH1 0x40 MLOAD PUSH32 0xE74990700000000000000000000000000000000000000000000000000000000 DUP2 MSTORE PUSH1 0x4 ADD PUSH1 0x40 MLOAD DUP1 SWAP2 SUB SWAP1 REVERT JUMPDEST PUSH2 0x25B3 JUMP JUMPDEST DUP2 PUSH1 0x40 MLOAD PUSH32 0xF1F6BCED00000000000000000000000000000000000000000000000000000000 DUP2 MSTORE PUSH1 0x4 ADD PUSH2 0x25AA SWAP2 SWAP1 PUSH2 0x5987 JUMP JUMPDEST PUSH1 0x40 MLOAD DUP1 SWAP2 SUB SWAP1 REVERT JUMPDEST JUMPDEST PUSH1 0x0 DUP4 EQ PUSH2 0x25F9 JUMPI DUP3 PUSH1 0x40 MLOAD PUSH32 0xD4BB667100000000000000000000000000000000000000000000000000000000 DUP2 MSTORE PUSH1 0x4 ADD PUSH2 0x25F0 SWAP2 SWAP1 PUSH2 0x59B1 JUMP JUMPDEST PUSH1 0x40 MLOAD DUP1 SWAP2 SUB SWAP1 REVERT JUMPDEST DUP1 SWAP4 POP POP POP POP SWAP2 SWAP1 POP JUMP JUMPDEST PUSH1 0x60 PUSH1 0x0 DUP1 PUSH1 0x0 PUSH2 0x2615 DUP7 DUP7 PUSH2 0x325B JUMP JUMPDEST DUP2 PUSH8 0xFFFFFFFFFFFFFFFF AND SWAP2 POP DUP1 SWAP8 POP DUP2 SWAP4 POP DUP3 SWAP5 POP POP POP POP PUSH1 0x6 PUSH1 0xFF AND DUP3 PUSH1 0xFF AND EQ DUP1 PUSH2 0x2649 JUMPI POP PUSH1 0x2 PUSH1 0xFF AND DUP3 PUSH1 0xFF AND EQ JUMPDEST PUSH2 0x2688 JUMPI PUSH1 0x40 MLOAD PUSH32 0x8C379A000000000000000000000000000000000000000000000000000000000 DUP2 MSTORE PUSH1 0x4 ADD PUSH2 0x267F SWAP1 PUSH2 0x5A3E JUMP JUMPDEST PUSH1 0x40 MLOAD DUP1 SWAP2 SUB SWAP1 REVERT JUMPDEST PUSH1 0x6 PUSH1 0xFF AND DUP3 PUSH1 0xFF AND SUB PUSH2 0x26D1 JUMPI PUSH2 0x26A0 DUP7 DUP7 PUSH2 0x325B JUMP JUMPDEST DUP2 PUSH8 0xFFFFFFFFFFFFFFFF AND SWAP2 POP DUP1 SWAP8 POP DUP2 SWAP4 POP DUP3 SWAP5 POP POP POP POP PUSH1 0x2 PUSH1 0xFF AND DUP3 PUSH1 0xFF AND EQ PUSH2 0x26D0 JUMPI PUSH2 0x26CF PUSH2 0x577F JUMP JUMPDEST JUMPDEST JUMPDEST PUSH1 0x0 DUP2 DUP7 PUSH2 0x26DF SWAP2 SWAP1 PUSH2 0x566A JUMP JUMPDEST SWAP1 POP PUSH1 0x0 DUP3 PUSH8 0xFFFFFFFFFFFFFFFF DUP2 GT ISZERO PUSH2 0x26FD JUMPI PUSH2 0x26FC PUSH2 0x3E1D JUMP JUMPDEST JUMPDEST PUSH1 0x40 MLOAD SWAP1 DUP1 DUP3 MSTORE DUP1 PUSH1 0x1F ADD PUSH1 0x1F NOT AND PUSH1 0x20 ADD DUP3 ADD PUSH1 0x40 MSTORE DUP1 ISZERO PUSH2 0x272F JUMPI DUP2 PUSH1 0x20 ADD PUSH1 0x1 DUP3 MUL DUP1 CALLDATASIZE DUP4 CALLDATACOPY DUP1 DUP3 ADD SWAP2 POP POP SWAP1 POP JUMPDEST POP SWAP1 POP PUSH1 0x0 DUP1 DUP9 SWAP1 POP JUMPDEST DUP4 DUP2 LT ISZERO PUSH2 0x27C2 JUMPI DUP10 DUP2 DUP2 MLOAD DUP2 LT PUSH2 0x2754 JUMPI PUSH2 0x2753 PUSH2 0x5842 JUMP JUMPDEST JUMPDEST PUSH1 0x20 ADD ADD MLOAD PUSH1 0xF8 SHR PUSH1 0xF8 SHL DUP4 DUP4 DUP2 MLOAD DUP2 LT PUSH2 0x2772 JUMPI PUSH2 0x2771 PUSH2 0x5842 JUMP JUMPDEST JUMPDEST PUSH1 0x20 ADD ADD SWAP1 PUSH31 0xFFFFFFFFFFFFFFFFFFFFFFFFFFFFFFFFFFFFFFFFFFFFFFFFFFFFFFFFFFFFFF NOT AND SWAP1 DUP2 PUSH1 0x0 BYTE SWAP1 MSTORE8 POP DUP2 DUP1 PUSH2 0x27AC SWAP1 PUSH2 0x5871 JUMP JUMPDEST SWAP3 POP POP DUP1 DUP1 PUSH2 0x27BA SWAP1 PUSH2 0x5871 JUMP JUMPDEST SWAP2 POP POP PUSH2 0x2739 JUMP JUMPDEST POP DUP2 DUP5 DUP10 PUSH2 0x27D0 SWAP2 SWAP1 PUSH2 0x566A JUMP JUMPDEST SWAP7 POP SWAP7 POP POP POP POP POP POP SWAP3 POP SWAP3 SWAP1 POP JUMP JUMPDEST PUSH2 0x27E8 PUSH2 0x3A11 JUMP JUMPDEST PUSH1 0x0 DUP3 MLOAD SUB PUSH2 0x2826 JUMPI PUSH1 0x40 MLOAD DUP1 PUSH1 0x40 ADD PUSH1 0x40 MSTORE DUP1 PUSH1 0x40 MLOAD DUP1 PUSH1 0x40 ADD PUSH1 0x40 MSTORE DUP1 PUSH1 0x1 DUP2 MSTORE PUSH1 0x20 ADD PUSH1 0x0 DUP2 MSTORE POP DUP2 MSTORE PUSH1 0x20 ADD PUSH1 0x0 ISZERO ISZERO DUP2 MSTORE POP SWAP1 POP PUSH2 0x2982 JUMP JUMPDEST PUSH1 0x0 PUSH1 0x1 DUP4 MLOAD PUSH2 0x2836 SWAP2 SWAP1 PUSH2 0x580E JUMP JUMPDEST PUSH8 0xFFFFFFFFFFFFFFFF DUP2 GT ISZERO PUSH2 0x284F JUMPI PUSH2 0x284E PUSH2 0x3E1D JUMP JUMPDEST JUMPDEST PUSH1 0x40 MLOAD SWAP1 DUP1 DUP3 MSTORE DUP1 PUSH1 0x1F ADD PUSH1 0x1F NOT AND PUSH1 0x20 ADD DUP3 ADD PUSH1 0x40 MSTORE DUP1 ISZERO PUSH2 0x2881 JUMPI DUP2 PUSH1 0x20 ADD PUSH1 0x1 DUP3 MUL DUP1 CALLDATASIZE DUP4 CALLDATACOPY DUP1 DUP3 ADD SWAP2 POP POP SWAP1 POP JUMPDEST POP SWAP1 POP PUSH1 0x0 PUSH1 0x1 PUSH1 0xF8 SHL DUP5 PUSH1 0x0 DUP2 MLOAD DUP2 LT PUSH2 0x289F JUMPI PUSH2 0x289E PUSH2 0x5842 JUMP JUMPDEST JUMPDEST PUSH1 0x20 ADD ADD MLOAD PUSH1 0xF8 SHR PUSH1 0xF8 SHL PUSH31 0xFFFFFFFFFFFFFFFFFFFFFFFFFFFFFFFFFFFFFFFFFFFFFFFFFFFFFFFFFFFFFF NOT AND SUB PUSH2 0x28D6 JUMPI PUSH1 0x1 SWAP1 POP JUMPDEST PUSH1 0x0 PUSH1 0x1 SWAP1 POP JUMPDEST DUP5 MLOAD DUP2 LT ISZERO PUSH2 0x2965 JUMPI DUP5 DUP2 DUP2 MLOAD DUP2 LT PUSH2 0x28F9 JUMPI PUSH2 0x28F8 PUSH2 0x5842 JUMP JUMPDEST JUMPDEST PUSH1 0x20 ADD ADD MLOAD PUSH1 0xF8 SHR PUSH1 0xF8 SHL DUP4 PUSH1 0x1 DUP4 PUSH2 0x2912 SWAP2 SWAP1 PUSH2 0x580E JUMP JUMPDEST DUP2 MLOAD DUP2 LT PUSH2 0x2923 JUMPI PUSH2 0x2922 PUSH2 0x5842 JUMP JUMPDEST JUMPDEST PUSH1 0x20 ADD ADD SWAP1 PUSH31 0xFFFFFFFFFFFFFFFFFFFFFFFFFFFFFFFFFFFFFFFFFFFFFFFFFFFFFFFFFFFFFF NOT AND SWAP1 DUP2 PUSH1 0x0 BYTE SWAP1 MSTORE8 POP DUP1 DUP1 PUSH2 0x295D SWAP1 PUSH2 0x5871 JUMP JUMPDEST SWAP2 POP POP PUSH2 0x28DD JUMP JUMPDEST POP PUSH1 0x40 MLOAD DUP1 PUSH1 0x40 ADD PUSH1 0x40 MSTORE DUP1 DUP4 DUP2 MSTORE PUSH1 0x20 ADD DUP3 ISZERO ISZERO DUP2 MSTORE POP SWAP3 POP POP POP JUMPDEST SWAP2 SWAP1 POP JUMP JUMPDEST PUSH2 0x2993 DUP3 PUSH1 0x0 DUP4 PUSH2 0x3080 JUMP JUMPDEST POP POP JUMP JUMPDEST PUSH1 0x0 DUP1 PUSH1 0x0 DUP1 PUSH2 0x29A7 DUP7 DUP7 PUSH2 0x325B JUMP JUMPDEST DUP2 PUSH8 0xFFFFFFFFFFFFFFFF AND SWAP2 POP DUP1 SWAP8 POP DUP2 SWAP4 POP DUP3 SWAP5 POP POP POP POP PUSH1 0x4 PUSH1 0xFF AND DUP3 PUSH1 0xFF AND EQ PUSH2 0x2A09 JUMPI PUSH1 0x40 MLOAD PUSH32 0x8C379A000000000000000000000000000000000000000000000000000000000 DUP2 MSTORE PUSH1 0x4 ADD PUSH2 0x2A00 SWAP1 PUSH2 0x5AAA JUMP JUMPDEST PUSH1 0x40 MLOAD DUP1 SWAP2 SUB SWAP1 REVERT JUMPDEST DUP1 DUP6 SWAP4 POP SWAP4 POP POP POP SWAP3 POP SWAP3 SWAP1 POP JUMP JUMPDEST PUSH1 0x0 DUP1 PUSH1 0x0 PUSH2 0x2A30 DUP5 DUP7 PUSH2 0x344D SWAP1 SWAP2 SWAP1 PUSH4 0xFFFFFFFF AND JUMP JUMPDEST DUP1 SWAP6 POP DUP2 SWAP3 POP POP POP DUP1 DUP5 SWAP3 POP SWAP3 POP POP SWAP3 POP SWAP3 SWAP1 POP JUMP JUMPDEST PUSH2 0x2A4E PUSH2 0x3B7B JUMP JUMPDEST PUSH1 0x0 DUP1 PUSH1 0x0 PUSH2 0x2A66 DUP6 DUP8 PUSH2 0x325B SWAP1 SWAP2 SWAP1 PUSH4 0xFFFFFFFF AND JUMP JUMPDEST DUP2 PUSH8 0xFFFFFFFFFFFFFFFF AND SWAP2 POP DUP1 SWAP8 POP DUP2 SWAP4 POP DUP3 SWAP5 POP POP POP POP PUSH1 0x6 PUSH1 0xFF AND DUP3 PUSH1 0xFF AND EQ PUSH2 0x2AC8 JUMPI PUSH1 0x40 MLOAD PUSH32 0x8C379A000000000000000000000000000000000000000000000000000000000 DUP2 MSTORE PUSH1 0x4 ADD PUSH2 0x2ABF SWAP1 PUSH2 0x5B3C JUMP JUMPDEST PUSH1 0x40 MLOAD DUP1 SWAP2 SUB SWAP1 REVERT JUMPDEST PUSH1 0x2A PUSH1 0xFF AND DUP2 EQ PUSH2 0x2B0E JUMPI PUSH1 0x40 MLOAD PUSH32 0x8C379A000000000000000000000000000000000000000000000000000000000 DUP2 MSTORE PUSH1 0x4 ADD PUSH2 0x2B05 SWAP1 PUSH2 0x5BA8 JUMP JUMPDEST PUSH1 0x40 MLOAD DUP1 SWAP2 SUB SWAP1 REVERT JUMPDEST PUSH1 0x60 PUSH2 0x2B23 DUP7 DUP9 PUSH2 0x2604 SWAP1 SWAP2 SWAP1 PUSH4 0xFFFFFFFF AND JUMP JUMPDEST DUP1 SWAP8 POP DUP2 SWAP3 POP POP POP PUSH1 0x0 PUSH1 0xF8 SHL DUP2 PUSH1 0x0 DUP2 MLOAD DUP2 LT PUSH2 0x2B44 JUMPI PUSH2 0x2B43 PUSH2 0x5842 JUMP JUMPDEST JUMPDEST PUSH1 0x20 ADD ADD MLOAD PUSH1 0xF8 SHR PUSH1 0xF8 SHL PUSH31 0xFFFFFFFFFFFFFFFFFFFFFFFFFFFFFFFFFFFFFFFFFFFFFFFFFFFFFFFFFFFFFF NOT AND EQ PUSH2 0x2BB1 JUMPI PUSH1 0x40 MLOAD PUSH32 0x8C379A000000000000000000000000000000000000000000000000000000000 DUP2 MSTORE PUSH1 0x4 ADD PUSH2 0x2BA8 SWAP1 PUSH2 0x5C3A JUMP JUMPDEST PUSH1 0x40 MLOAD DUP1 SWAP2 SUB SWAP1 REVERT JUMPDEST PUSH2 0x2BB9 PUSH2 0x3B7B JUMP JUMPDEST PUSH1 0x1 DUP3 MLOAD PUSH2 0x2BC7 SWAP2 SWAP1 PUSH2 0x580E JUMP JUMPDEST PUSH8 0xFFFFFFFFFFFFFFFF DUP2 GT ISZERO PUSH2 0x2BE0 JUMPI PUSH2 0x2BDF PUSH2 0x3E1D JUMP JUMPDEST JUMPDEST PUSH1 0x40 MLOAD SWAP1 DUP1 DUP3 MSTORE DUP1 PUSH1 0x1F ADD PUSH1 0x1F NOT AND PUSH1 0x20 ADD DUP3 ADD PUSH1 0x40 MSTORE DUP1 ISZERO PUSH2 0x2C12 JUMPI DUP2 PUSH1 0x20 ADD PUSH1 0x1 DUP3 MUL DUP1 CALLDATASIZE DUP4 CALLDATACOPY DUP1 DUP3 ADD SWAP2 POP POP SWAP1 POP JUMPDEST POP DUP2 PUSH1 0x0 ADD DUP2 SWAP1 MSTORE POP PUSH1 0x0 PUSH1 0x1 SWAP1 POP JUMPDEST DUP3 MLOAD DUP2 LT ISZERO PUSH2 0x2CAE JUMPI DUP3 DUP2 DUP2 MLOAD DUP2 LT PUSH2 0x2C3E JUMPI PUSH2 0x2C3D PUSH2 0x5842 JUMP JUMPDEST JUMPDEST PUSH1 0x20 ADD ADD MLOAD PUSH1 0xF8 SHR PUSH1 0xF8 SHL DUP3 PUSH1 0x0 ADD MLOAD PUSH1 0x1 DUP4 PUSH2 0x2C5B SWAP2 SWAP1 PUSH2 0x580E JUMP JUMPDEST DUP2 MLOAD DUP2 LT PUSH2 0x2C6C JUMPI PUSH2 0x2C6B PUSH2 0x5842 JUMP JUMPDEST JUMPDEST PUSH1 0x20 ADD ADD SWAP1 PUSH31 0xFFFFFFFFFFFFFFFFFFFFFFFFFFFFFFFFFFFFFFFFFFFFFFFFFFFFFFFFFFFFFF NOT AND SWAP1 DUP2 PUSH1 0x0 BYTE SWAP1 MSTORE8 POP DUP1 DUP1 PUSH2 0x2CA6 SWAP1 PUSH2 0x5871 JUMP JUMPDEST SWAP2 POP POP PUSH2 0x2C22 JUMP JUMPDEST POP DUP1 DUP8 SWAP6 POP SWAP6 POP POP POP POP POP SWAP3 POP SWAP3 SWAP1 POP JUMP JUMPDEST PUSH1 0x0 DUP1 PUSH1 0x0 DUP1 PUSH2 0x2CD0 DUP7 DUP7 PUSH2 0x325B JUMP JUMPDEST DUP2 PUSH8 0xFFFFFFFFFFFFFFFF AND SWAP2 POP DUP1 SWAP8 POP DUP2 SWAP4 POP DUP3 SWAP5 POP POP POP POP PUSH1 0x0 PUSH1 0xFF AND DUP3 PUSH1 0xFF AND EQ PUSH2 0x2D32 JUMPI PUSH1 0x40 MLOAD PUSH32 0x8C379A000000000000000000000000000000000000000000000000000000000 DUP2 MSTORE PUSH1 0x4 ADD PUSH2 0x2D29 SWAP1 PUSH2 0x5CCC JUMP JUMPDEST PUSH1 0x40 MLOAD DUP1 SWAP2 SUB SWAP1 REVERT JUMPDEST DUP1 DUP6 SWAP4 POP SWAP4 POP POP POP SWAP3 POP SWAP3 SWAP1 POP JUMP JUMPDEST PUSH1 0x0 DUP1 PUSH1 0x0 DUP1 PUSH2 0x2D51 DUP7 DUP7 PUSH2 0x325B JUMP JUMPDEST DUP2 PUSH8 0xFFFFFFFFFFFFFFFF AND SWAP2 POP DUP1 SWAP8 POP DUP2 SWAP4 POP DUP3 SWAP5 POP POP POP POP PUSH1 0x7 PUSH1 0xFF AND DUP3 PUSH1 0xFF AND EQ PUSH2 0x2DB3 JUMPI PUSH1 0x40 MLOAD PUSH32 0x8C379A000000000000000000000000000000000000000000000000000000000 DUP2 MSTORE PUSH1 0x4 ADD PUSH2 0x2DAA SWAP1 PUSH2 0x5D38 JUMP JUMPDEST PUSH1 0x40 MLOAD DUP1 SWAP2 SUB SWAP1 REVERT JUMPDEST PUSH1 0x15 PUSH1 0xFF AND DUP2 EQ DUP1 PUSH2 0x2DC8 JUMPI POP PUSH1 0x14 PUSH1 0xFF AND DUP2 EQ JUMPDEST PUSH2 0x2DD5 JUMPI PUSH2 0x2DD4 PUSH2 0x577F JUMP JUMPDEST JUMPDEST PUSH1 0x14 PUSH1 0xFF AND DUP2 EQ ISZERO DUP6 SWAP4 POP SWAP4 POP POP POP SWAP3 POP SWAP3 SWAP1 POP JUMP JUMPDEST PUSH2 0x2DF3 PUSH2 0x3B8E JUMP JUMPDEST PUSH1 0x0 PUSH1 0x40 MLOAD DUP1 PUSH1 0x20 ADD PUSH1 0x40 MSTORE DUP1 DUP5 DUP2 MSTORE POP SWAP1 POP PUSH2 0x2E0F DUP2 PUSH2 0x34DF JUMP JUMPDEST PUSH2 0x2E45 JUMPI PUSH1 0x40 MLOAD PUSH32 0xE6C4247B00000000000000000000000000000000000000000000000000000000 DUP2 MSTORE PUSH1 0x4 ADD PUSH1 0x40 MLOAD DUP1 SWAP2 SUB SWAP1 REVERT JUMPDEST DUP1 SWAP2 POP POP SWAP2 SWAP1 POP JUMP JUMPDEST PUSH2 0x2E56 PUSH2 0x3BA1 JUMP JUMPDEST PUSH1 0x0 DUP1 PUSH1 0x0 PUSH2 0x2E65 DUP7 DUP7 PUSH2 0x325B JUMP JUMPDEST DUP2 PUSH8 0xFFFFFFFFFFFFFFFF AND SWAP2 POP DUP1 SWAP8 POP DUP2 SWAP4 POP DUP3 SWAP5 POP POP POP POP PUSH1 0x2 PUSH1 0xFF AND DUP3 PUSH1 0xFF AND EQ DUP1 PUSH2 0x2E99 JUMPI POP PUSH1 0x3 PUSH1 0xFF AND DUP3 PUSH1 0xFF AND EQ JUMPDEST PUSH2 0x2ED8 JUMPI PUSH1 0x40 MLOAD PUSH32 0x8C379A000000000000000000000000000000000000000000000000000000000 DUP2 MSTORE PUSH1 0x4 ADD PUSH2 0x2ECF SWAP1 PUSH2 0x5DCA JUMP JUMPDEST PUSH1 0x40 MLOAD DUP1 SWAP2 SUB SWAP1 REVERT JUMPDEST PUSH1 0x0 DUP2 DUP7 PUSH2 0x2EE6 SWAP2 SWAP1 PUSH2 0x566A JUMP JUMPDEST SWAP1 POP PUSH1 0x0 DUP3 PUSH8 0xFFFFFFFFFFFFFFFF DUP2 GT ISZERO PUSH2 0x2F04 JUMPI PUSH2 0x2F03 PUSH2 0x3E1D JUMP JUMPDEST JUMPDEST PUSH1 0x40 MLOAD SWAP1 DUP1 DUP3 MSTORE DUP1 PUSH1 0x1F ADD PUSH1 0x1F NOT AND PUSH1 0x20 ADD DUP3 ADD PUSH1 0x40 MSTORE DUP1 ISZERO PUSH2 0x2F36 JUMPI DUP2 PUSH1 0x20 ADD PUSH1 0x1 DUP3 MUL DUP1 CALLDATASIZE DUP4 CALLDATACOPY DUP1 DUP3 ADD SWAP2 POP POP SWAP1 POP JUMPDEST POP SWAP1 POP PUSH1 0x0 DUP1 DUP9 SWAP1 POP JUMPDEST DUP4 DUP2 LT ISZERO PUSH2 0x2FC9 JUMPI DUP10 DUP2 DUP2 MLOAD DUP2 LT PUSH2 0x2F5B JUMPI PUSH2 0x2F5A PUSH2 0x5842 JUMP JUMPDEST JUMPDEST PUSH1 0x20 ADD ADD MLOAD PUSH1 0xF8 SHR PUSH1 0xF8 SHL DUP4 DUP4 DUP2 MLOAD DUP2 LT PUSH2 0x2F79 JUMPI PUSH2 0x2F78 PUSH2 0x5842 JUMP JUMPDEST JUMPDEST PUSH1 0x20 ADD ADD SWAP1 PUSH31 0xFFFFFFFFFFFFFFFFFFFFFFFFFFFFFFFFFFFFFFFFFFFFFFFFFFFFFFFFFFFFFF NOT AND SWAP1 DUP2 PUSH1 0x0 BYTE SWAP1 MSTORE8 POP DUP2 DUP1 PUSH2 0x2FB3 SWAP1 PUSH2 0x5871 JUMP JUMPDEST SWAP3 POP POP DUP1 DUP1 PUSH2 0x2FC1 SWAP1 PUSH2 0x5871 JUMP JUMPDEST SWAP2 POP POP PUSH2 0x2F40 JUMP JUMPDEST POP PUSH1 0x40 MLOAD DUP1 PUSH1 0x40 ADD PUSH1 0x40 MSTORE DUP1 DUP4 DUP2 MSTORE PUSH1 0x20 ADD PUSH1 0x3 PUSH1 0xFF AND DUP8 PUSH1 0xFF AND EQ ISZERO ISZERO DUP2 MSTORE POP DUP5 DUP10 PUSH2 0x2FF6 SWAP2 SWAP1 PUSH2 0x566A JUMP JUMPDEST SWAP7 POP SWAP7 POP POP POP POP POP POP SWAP3 POP SWAP3 SWAP1 POP JUMP JUMPDEST PUSH2 0x300E PUSH2 0x3B1D JUMP JUMPDEST PUSH1 0x0 DUP4 PUSH1 0x0 ADD MLOAD MLOAD SWAP1 POP PUSH1 0x0 PUSH1 0x1 DUP3 PUSH2 0x3027 SWAP2 SWAP1 PUSH2 0x566A JUMP JUMPDEST SWAP1 POP DUP5 PUSH1 0x20 ADD MLOAD DUP3 LT PUSH2 0x304B JUMPI PUSH2 0x304A DUP6 PUSH1 0x2 DUP4 PUSH2 0x3045 SWAP2 SWAP1 PUSH2 0x5DEA JUMP JUMPDEST PUSH2 0x36C4 JUMP JUMPDEST JUMPDEST DUP5 MLOAD PUSH1 0x20 DUP4 DUP3 ADD ADD DUP6 DUP2 MSTORE8 DUP2 MLOAD DUP4 GT ISZERO PUSH2 0x3063 JUMPI DUP3 DUP3 MSTORE JUMPDEST POP POP DUP5 SWAP3 POP POP POP SWAP3 SWAP2 POP POP JUMP JUMPDEST PUSH2 0x307B DUP4 DUP4 DUP4 PUSH2 0x3080 JUMP JUMPDEST POP POP POP JUMP JUMPDEST PUSH1 0x17 DUP2 PUSH8 0xFFFFFFFFFFFFFFFF AND GT PUSH2 0x30BB JUMPI PUSH2 0x30B5 DUP2 PUSH1 0x5 DUP5 PUSH1 0xFF AND SWAP1 SHL PUSH1 0xFF AND OR DUP5 PUSH1 0x0 ADD MLOAD PUSH2 0x3006 SWAP1 SWAP2 SWAP1 PUSH4 0xFFFFFFFF AND JUMP JUMPDEST POP PUSH2 0x3224 JUMP JUMPDEST PUSH1 0xFF DUP2 PUSH8 0xFFFFFFFFFFFFFFFF AND GT PUSH2 0x3119 JUMPI PUSH2 0x30EE PUSH1 0x18 PUSH1 0x5 DUP5 PUSH1 0xFF AND SWAP1 SHL OR DUP5 PUSH1 0x0 ADD MLOAD PUSH2 0x3006 SWAP1 SWAP2 SWAP1 PUSH4 0xFFFFFFFF AND JUMP JUMPDEST POP PUSH2 0x3113 DUP2 PUSH8 0xFFFFFFFFFFFFFFFF AND PUSH1 0x1 DUP6 PUSH1 0x0 ADD MLOAD PUSH2 0x36E8 SWAP1 SWAP3 SWAP2 SWAP1 PUSH4 0xFFFFFFFF AND JUMP JUMPDEST POP PUSH2 0x3223 JUMP JUMPDEST PUSH2 0xFFFF DUP2 PUSH8 0xFFFFFFFFFFFFFFFF AND GT PUSH2 0x3178 JUMPI PUSH2 0x314D PUSH1 0x19 PUSH1 0x5 DUP5 PUSH1 0xFF AND SWAP1 SHL OR DUP5 PUSH1 0x0 ADD MLOAD PUSH2 0x3006 SWAP1 SWAP2 SWAP1 PUSH4 0xFFFFFFFF AND JUMP JUMPDEST POP PUSH2 0x3172 DUP2 PUSH8 0xFFFFFFFFFFFFFFFF AND PUSH1 0x2 DUP6 PUSH1 0x0 ADD MLOAD PUSH2 0x36E8 SWAP1 SWAP3 SWAP2 SWAP1 PUSH4 0xFFFFFFFF AND JUMP JUMPDEST POP PUSH2 0x3222 JUMP JUMPDEST PUSH4 0xFFFFFFFF DUP2 PUSH8 0xFFFFFFFFFFFFFFFF AND GT PUSH2 0x31D9 JUMPI PUSH2 0x31AE PUSH1 0x1A PUSH1 0x5 DUP5 PUSH1 0xFF AND SWAP1 SHL OR DUP5 PUSH1 0x0 ADD MLOAD PUSH2 0x3006 SWAP1 SWAP2 SWAP1 PUSH4 0xFFFFFFFF AND JUMP JUMPDEST POP PUSH2 0x31D3 DUP2 PUSH8 0xFFFFFFFFFFFFFFFF AND PUSH1 0x4 DUP6 PUSH1 0x0 ADD MLOAD PUSH2 0x36E8 SWAP1 SWAP3 SWAP2 SWAP1 PUSH4 0xFFFFFFFF AND JUMP JUMPDEST POP PUSH2 0x3221 JUMP JUMPDEST PUSH2 0x31FA PUSH1 0x1B PUSH1 0x5 DUP5 PUSH1 0xFF AND SWAP1 SHL OR DUP5 PUSH1 0x0 ADD MLOAD PUSH2 0x3006 SWAP1 SWAP2 SWAP1 PUSH4 0xFFFFFFFF AND JUMP JUMPDEST POP PUSH2 0x321F DUP2 PUSH8 0xFFFFFFFFFFFFFFFF AND PUSH1 0x8 DUP6 PUSH1 0x0 ADD MLOAD PUSH2 0x36E8 SWAP1 SWAP3 SWAP2 SWAP1 PUSH4 0xFFFFFFFF AND JUMP JUMPDEST POP JUMPDEST JUMPDEST JUMPDEST JUMPDEST POP POP POP JUMP JUMPDEST PUSH2 0x3231 PUSH2 0x3B1D JUMP JUMPDEST PUSH2 0x323D DUP4 DUP4 DUP5 MLOAD PUSH2 0x3775 JUMP JUMPDEST SWAP1 POP SWAP3 SWAP2 POP POP JUMP JUMPDEST PUSH1 0x0 DUP1 DUP3 EXTCODEHASH SWAP1 POP PUSH1 0x0 DUP1 SHL DUP2 EQ ISZERO SWAP2 POP POP SWAP2 SWAP1 POP JUMP JUMPDEST PUSH1 0x0 DUP1 PUSH1 0x0 DUP1 PUSH2 0x326B DUP7 DUP7 PUSH2 0x3858 JUMP JUMPDEST SWAP1 POP PUSH1 0x1 DUP6 PUSH2 0x327A SWAP2 SWAP1 PUSH2 0x566A JUMP JUMPDEST SWAP5 POP PUSH1 0x0 PUSH1 0x5 PUSH1 0xE0 DUP4 AND PUSH1 0xFF AND SWAP1 SHR SWAP1 POP PUSH1 0x0 PUSH1 0x1F DUP4 AND SWAP1 POP PUSH1 0x1C DUP2 PUSH1 0xFF AND LT PUSH2 0x32D9 JUMPI PUSH1 0x40 MLOAD PUSH32 0x8C379A000000000000000000000000000000000000000000000000000000000 DUP2 MSTORE PUSH1 0x4 ADD PUSH2 0x32D0 SWAP1 PUSH2 0x5E9E JUMP JUMPDEST PUSH1 0x40 MLOAD DUP1 SWAP2 SUB SWAP1 REVERT JUMPDEST PUSH1 0x18 DUP2 PUSH1 0xFF AND LT ISZERO PUSH2 0x32FC JUMPI DUP2 DUP2 DUP9 DUP2 PUSH1 0xFF AND SWAP2 POP SWAP6 POP SWAP6 POP SWAP6 POP POP POP POP PUSH2 0x3446 JUMP JUMPDEST PUSH1 0x18 DUP2 PUSH1 0xFF AND SUB PUSH2 0x3383 JUMPI PUSH1 0x0 PUSH2 0x3313 DUP10 DUP10 PUSH2 0x3858 JUMP JUMPDEST SWAP1 POP PUSH1 0x1 DUP9 PUSH2 0x3322 SWAP2 SWAP1 PUSH2 0x566A JUMP JUMPDEST SWAP8 POP PUSH1 0x18 DUP2 PUSH1 0xFF AND LT ISZERO PUSH2 0x336B JUMPI PUSH1 0x40 MLOAD PUSH32 0x8C379A000000000000000000000000000000000000000000000000000000000 DUP2 MSTORE PUSH1 0x4 ADD PUSH2 0x3362 SWAP1 PUSH2 0x5F0A JUMP JUMPDEST PUSH1 0x40 MLOAD DUP1 SWAP2 SUB SWAP1 REVERT JUMPDEST DUP3 DUP2 DUP10 DUP2 PUSH1 0xFF AND SWAP2 POP SWAP7 POP SWAP7 POP SWAP7 POP POP POP POP POP PUSH2 0x3446 JUMP JUMPDEST PUSH1 0x19 DUP2 PUSH1 0xFF AND SUB PUSH2 0x33C4 JUMPI PUSH1 0x0 PUSH2 0x339A DUP10 DUP10 PUSH2 0x38D3 JUMP JUMPDEST SWAP1 POP PUSH1 0x2 DUP9 PUSH2 0x33A9 SWAP2 SWAP1 PUSH2 0x566A JUMP JUMPDEST SWAP8 POP DUP3 DUP2 DUP10 DUP2 PUSH2 0xFFFF AND SWAP2 POP SWAP7 POP SWAP7 POP SWAP7 POP POP POP POP POP PUSH2 0x3446 JUMP JUMPDEST PUSH1 0x1A DUP2 PUSH1 0xFF AND SUB PUSH2 0x3407 JUMPI PUSH1 0x0 PUSH2 0x33DB DUP10 DUP10 PUSH2 0x393D JUMP JUMPDEST SWAP1 POP PUSH1 0x4 DUP9 PUSH2 0x33EA SWAP2 SWAP1 PUSH2 0x566A JUMP JUMPDEST SWAP8 POP DUP3 DUP2 DUP10 DUP2 PUSH4 0xFFFFFFFF AND SWAP2 POP SWAP7 POP SWAP7 POP SWAP7 POP POP POP POP POP PUSH2 0x3446 JUMP JUMPDEST PUSH1 0x1B DUP2 PUSH1 0xFF AND EQ PUSH2 0x341B JUMPI PUSH2 0x341A PUSH2 0x577F JUMP JUMPDEST JUMPDEST PUSH1 0x0 PUSH2 0x3427 DUP10 DUP10 PUSH2 0x39A7 JUMP JUMPDEST SWAP1 POP PUSH1 0x8 DUP9 PUSH2 0x3436 SWAP2 SWAP1 PUSH2 0x566A JUMP JUMPDEST SWAP8 POP DUP3 DUP2 DUP10 SWAP7 POP SWAP7 POP SWAP7 POP POP POP POP POP JUMPDEST SWAP3 POP SWAP3 POP SWAP3 JUMP JUMPDEST PUSH1 0x0 DUP1 PUSH1 0x0 DUP1 PUSH2 0x345D DUP7 DUP7 PUSH2 0x325B JUMP JUMPDEST DUP2 PUSH8 0xFFFFFFFFFFFFFFFF AND SWAP2 POP DUP1 SWAP8 POP DUP2 SWAP4 POP DUP3 SWAP5 POP POP POP POP PUSH1 0x1 PUSH1 0xFF AND DUP3 PUSH1 0xFF AND EQ DUP1 PUSH2 0x3491 JUMPI POP PUSH1 0x0 PUSH1 0xFF AND DUP3 PUSH1 0xFF AND EQ JUMPDEST PUSH2 0x34D0 JUMPI PUSH1 0x40 MLOAD PUSH32 0x8C379A000000000000000000000000000000000000000000000000000000000 DUP2 MSTORE PUSH1 0x4 ADD PUSH2 0x34C7 SWAP1 PUSH2 0x5F9C JUMP JUMPDEST PUSH1 0x40 MLOAD DUP1 SWAP2 SUB SWAP1 REVERT JUMPDEST DUP1 DUP6 SWAP4 POP SWAP4 POP POP POP SWAP3 POP SWAP3 SWAP1 POP JUMP JUMPDEST PUSH1 0x0 DUP1 PUSH1 0xF8 SHL DUP3 PUSH1 0x0 ADD MLOAD PUSH1 0x0 DUP2 MLOAD DUP2 LT PUSH2 0x34FD JUMPI PUSH2 0x34FC PUSH2 0x5842 JUMP JUMPDEST JUMPDEST PUSH1 0x20 ADD ADD MLOAD PUSH1 0xF8 SHR PUSH1 0xF8 SHL PUSH31 0xFFFFFFFFFFFFFFFFFFFFFFFFFFFFFFFFFFFFFFFFFFFFFFFFFFFFFFFFFFFFFF NOT AND SUB PUSH2 0x3540 JUMPI PUSH1 0xA DUP3 PUSH1 0x0 ADD MLOAD MLOAD GT ISZERO SWAP1 POP PUSH2 0x36BF JUMP JUMPDEST PUSH1 0x1 PUSH1 0xF8 SHL DUP3 PUSH1 0x0 ADD MLOAD PUSH1 0x0 DUP2 MLOAD DUP2 LT PUSH2 0x355D JUMPI PUSH2 0x355C PUSH2 0x5842 JUMP JUMPDEST JUMPDEST PUSH1 0x20 ADD ADD MLOAD PUSH1 0xF8 SHR PUSH1 0xF8 SHL PUSH31 0xFFFFFFFFFFFFFFFFFFFFFFFFFFFFFFFFFFFFFFFFFFFFFFFFFFFFFFFFFFFFFF NOT AND EQ DUP1 PUSH2 0x35DD JUMPI POP PUSH1 0x2 PUSH1 0xF8 SHL DUP3 PUSH1 0x0 ADD MLOAD PUSH1 0x0 DUP2 MLOAD DUP2 LT PUSH2 0x35AE JUMPI PUSH2 0x35AD PUSH2 0x5842 JUMP JUMPDEST JUMPDEST PUSH1 0x20 ADD ADD MLOAD PUSH1 0xF8 SHR PUSH1 0xF8 SHL PUSH31 0xFFFFFFFFFFFFFFFFFFFFFFFFFFFFFFFFFFFFFFFFFFFFFFFFFFFFFFFFFFFFFF NOT AND EQ JUMPDEST ISZERO PUSH2 0x35F2 JUMPI PUSH1 0x15 DUP3 PUSH1 0x0 ADD MLOAD MLOAD EQ SWAP1 POP PUSH2 0x36BF JUMP JUMPDEST PUSH1 0x3 PUSH1 0xF8 SHL DUP3 PUSH1 0x0 ADD MLOAD PUSH1 0x0 DUP2 MLOAD DUP2 LT PUSH2 0x360F JUMPI PUSH2 0x360E PUSH2 0x5842 JUMP JUMPDEST JUMPDEST PUSH1 0x20 ADD ADD MLOAD PUSH1 0xF8 SHR PUSH1 0xF8 SHL PUSH31 0xFFFFFFFFFFFFFFFFFFFFFFFFFFFFFFFFFFFFFFFFFFFFFFFFFFFFFFFFFFFFFF NOT AND SUB PUSH2 0x3651 JUMPI PUSH1 0x31 DUP3 PUSH1 0x0 ADD MLOAD MLOAD EQ SWAP1 POP PUSH2 0x36BF JUMP JUMPDEST PUSH1 0x4 PUSH1 0xF8 SHL DUP3 PUSH1 0x0 ADD MLOAD PUSH1 0x0 DUP2 MLOAD DUP2 LT PUSH2 0x366E JUMPI PUSH2 0x366D PUSH2 0x5842 JUMP JUMPDEST JUMPDEST PUSH1 0x20 ADD ADD MLOAD PUSH1 0xF8 SHR PUSH1 0xF8 SHL PUSH31 0xFFFFFFFFFFFFFFFFFFFFFFFFFFFFFFFFFFFFFFFFFFFFFFFFFFFFFFFFFFFFFF NOT AND SUB PUSH2 0x36B1 JUMPI PUSH1 0x40 DUP3 PUSH1 0x0 ADD MLOAD MLOAD GT ISZERO SWAP1 POP PUSH2 0x36BF JUMP JUMPDEST PUSH2 0x100 DUP3 PUSH1 0x0 ADD MLOAD MLOAD GT ISZERO SWAP1 POP JUMPDEST SWAP2 SWAP1 POP JUMP JUMPDEST PUSH1 0x0 DUP3 PUSH1 0x0 ADD MLOAD SWAP1 POP PUSH2 0x36D7 DUP4 DUP4 PUSH2 0x1FD5 JUMP JUMPDEST POP PUSH2 0x36E2 DUP4 DUP3 PUSH2 0x3229 JUMP JUMPDEST POP POP POP POP JUMP JUMPDEST PUSH2 0x36F0 PUSH2 0x3B1D JUMP JUMPDEST PUSH1 0x0 DUP5 PUSH1 0x0 ADD MLOAD MLOAD SWAP1 POP PUSH1 0x0 DUP2 DUP5 PUSH2 0x3708 SWAP2 SWAP1 PUSH2 0x566A JUMP JUMPDEST SWAP1 POP DUP6 PUSH1 0x20 ADD MLOAD DUP2 GT ISZERO PUSH2 0x372D JUMPI PUSH2 0x372C DUP7 PUSH1 0x2 DUP4 PUSH2 0x3727 SWAP2 SWAP1 PUSH2 0x5DEA JUMP JUMPDEST PUSH2 0x36C4 JUMP JUMPDEST JUMPDEST PUSH1 0x0 PUSH1 0x1 DUP6 PUSH2 0x100 PUSH2 0x373F SWAP2 SWAP1 PUSH2 0x60EF JUMP JUMPDEST PUSH2 0x3749 SWAP2 SWAP1 PUSH2 0x580E JUMP JUMPDEST SWAP1 POP DUP7 MLOAD DUP3 DUP2 ADD DUP8 DUP4 NOT DUP3 MLOAD AND OR DUP2 MSTORE DUP2 MLOAD DUP5 GT ISZERO PUSH2 0x3766 JUMPI DUP4 DUP3 MSTORE JUMPDEST POP POP DUP7 SWAP4 POP POP POP POP SWAP4 SWAP3 POP POP POP JUMP JUMPDEST PUSH2 0x377D PUSH2 0x3B1D JUMP JUMPDEST DUP3 MLOAD DUP3 GT ISZERO PUSH2 0x378B JUMPI PUSH1 0x0 DUP1 REVERT JUMPDEST PUSH1 0x0 DUP5 PUSH1 0x0 ADD MLOAD MLOAD SWAP1 POP PUSH1 0x0 DUP4 DUP3 PUSH2 0x37A3 SWAP2 SWAP1 PUSH2 0x566A JUMP JUMPDEST SWAP1 POP DUP6 PUSH1 0x20 ADD MLOAD DUP2 GT ISZERO PUSH2 0x37C8 JUMPI PUSH2 0x37C7 DUP7 PUSH1 0x2 DUP4 PUSH2 0x37C2 SWAP2 SWAP1 PUSH2 0x5DEA JUMP JUMPDEST PUSH2 0x36C4 JUMP JUMPDEST JUMPDEST PUSH1 0x0 DUP1 DUP8 MLOAD DUP1 MLOAD DUP6 PUSH1 0x20 DUP4 ADD ADD SWAP4 POP DUP1 DUP6 GT ISZERO PUSH2 0x37E3 JUMPI DUP5 DUP3 MSTORE JUMPDEST PUSH1 0x20 DUP10 ADD SWAP3 POP POP POP JUMPDEST PUSH1 0x20 DUP7 LT PUSH2 0x382A JUMPI DUP1 MLOAD DUP3 MSTORE PUSH1 0x20 DUP3 PUSH2 0x3805 SWAP2 SWAP1 PUSH2 0x566A JUMP JUMPDEST SWAP2 POP PUSH1 0x20 DUP2 PUSH2 0x3814 SWAP2 SWAP1 PUSH2 0x566A JUMP JUMPDEST SWAP1 POP PUSH1 0x20 DUP7 PUSH2 0x3823 SWAP2 SWAP1 PUSH2 0x580E JUMP JUMPDEST SWAP6 POP PUSH2 0x37EC JUMP JUMPDEST PUSH1 0x0 PUSH1 0x1 DUP8 PUSH1 0x20 SUB PUSH2 0x100 EXP SUB SWAP1 POP DUP1 NOT DUP3 MLOAD AND DUP2 DUP5 MLOAD AND DUP2 DUP2 OR DUP6 MSTORE POP POP POP DUP8 SWAP5 POP POP POP POP POP SWAP4 SWAP3 POP POP POP JUMP JUMPDEST PUSH1 0x0 PUSH1 0x1 DUP3 PUSH2 0x3867 SWAP2 SWAP1 PUSH2 0x566A JUMP JUMPDEST DUP4 MLOAD LT ISZERO PUSH2 0x38AA JUMPI PUSH1 0x40 MLOAD PUSH32 0x8C379A000000000000000000000000000000000000000000000000000000000 DUP2 MSTORE PUSH1 0x4 ADD PUSH2 0x38A1 SWAP1 PUSH2 0x6186 JUMP JUMPDEST PUSH1 0x40 MLOAD DUP1 SWAP2 SUB SWAP1 REVERT JUMPDEST DUP3 DUP3 DUP2 MLOAD DUP2 LT PUSH2 0x38BD JUMPI PUSH2 0x38BC PUSH2 0x5842 JUMP JUMPDEST JUMPDEST PUSH1 0x20 ADD ADD MLOAD PUSH1 0xF8 SHR PUSH1 0xF8 SHL PUSH1 0xF8 SHR SWAP1 POP SWAP3 SWAP2 POP POP JUMP JUMPDEST PUSH1 0x0 PUSH1 0x2 DUP3 PUSH2 0x38E2 SWAP2 SWAP1 PUSH2 0x566A JUMP JUMPDEST DUP4 MLOAD LT ISZERO PUSH2 0x3925 JUMPI PUSH1 0x40 MLOAD PUSH32 0x8C379A000000000000000000000000000000000000000000000000000000000 DUP2 MSTORE PUSH1 0x4 ADD PUSH2 0x391C SWAP1 PUSH2 0x6186 JUMP JUMPDEST PUSH1 0x40 MLOAD DUP1 SWAP2 SUB SWAP1 REVERT JUMPDEST PUSH1 0x0 DUP3 PUSH1 0x20 ADD DUP5 ADD MLOAD SWAP1 POP DUP1 PUSH1 0xF0 SHR SWAP2 POP POP SWAP3 SWAP2 POP POP JUMP JUMPDEST PUSH1 0x0 PUSH1 0x4 DUP3 PUSH2 0x394C SWAP2 SWAP1 PUSH2 0x566A JUMP JUMPDEST DUP4 MLOAD LT ISZERO PUSH2 0x398F JUMPI PUSH1 0x40 MLOAD PUSH32 0x8C379A000000000000000000000000000000000000000000000000000000000 DUP2 MSTORE PUSH1 0x4 ADD PUSH2 0x3986 SWAP1 PUSH2 0x6186 JUMP JUMPDEST PUSH1 0x40 MLOAD DUP1 SWAP2 SUB SWAP1 REVERT JUMPDEST PUSH1 0x0 DUP3 PUSH1 0x20 ADD DUP5 ADD MLOAD SWAP1 POP DUP1 PUSH1 0xE0 SHR SWAP2 POP POP SWAP3 SWAP2 POP POP JUMP JUMPDEST PUSH1 0x0 PUSH1 0x8 DUP3 PUSH2 0x39B6 SWAP2 SWAP1 PUSH2 0x566A JUMP JUMPDEST DUP4 MLOAD LT ISZERO PUSH2 0x39F9 JUMPI PUSH1 0x40 MLOAD PUSH32 0x8C379A000000000000000000000000000000000000000000000000000000000 DUP2 MSTORE PUSH1 0x4 ADD PUSH2 0x39F0 SWAP1 PUSH2 0x6186 JUMP JUMPDEST PUSH1 0x40 MLOAD DUP1 SWAP2 SUB SWAP1 REVERT JUMPDEST PUSH1 0x0 DUP3 PUSH1 0x20 ADD DUP5 ADD MLOAD SWAP1 POP DUP1 PUSH1 0xC0 SHR SWAP2 POP POP SWAP3 SWAP2 POP POP JUMP JUMPDEST PUSH1 0x40 MLOAD DUP1 PUSH1 0x40 ADD PUSH1 0x40 MSTORE DUP1 PUSH1 0x60 DUP2 MSTORE PUSH1 0x20 ADD PUSH1 0x0 ISZERO ISZERO DUP2 MSTORE POP SWAP1 JUMP JUMPDEST PUSH1 0x40 MLOAD DUP1 PUSH1 0x40 ADD PUSH1 0x40 MSTORE DUP1 PUSH1 0x0 PUSH1 0x7 SIGNEXTEND DUP2 MSTORE PUSH1 0x20 ADD PUSH1 0x0 PUSH1 0x7 SIGNEXTEND DUP2 MSTORE POP SWAP1 JUMP JUMPDEST PUSH1 0x40 MLOAD DUP1 PUSH1 0x40 ADD PUSH1 0x40 MSTORE DUP1 PUSH2 0x3A60 PUSH2 0x3B1D JUMP JUMPDEST DUP2 MSTORE PUSH1 0x20 ADD PUSH1 0x0 DUP2 MSTORE POP SWAP1 JUMP JUMPDEST PUSH1 0x40 MLOAD DUP1 PUSH1 0x40 ADD PUSH1 0x40 MSTORE DUP1 PUSH1 0x60 DUP2 MSTORE PUSH1 0x20 ADD PUSH1 0x60 DUP2 MSTORE POP SWAP1 JUMP JUMPDEST PUSH1 0x40 MLOAD DUP1 PUSH2 0x160 ADD PUSH1 0x40 MSTORE DUP1 PUSH2 0x3A9B PUSH2 0x3B7B JUMP JUMPDEST DUP2 MSTORE PUSH1 0x20 ADD PUSH1 0x0 PUSH8 0xFFFFFFFFFFFFFFFF AND DUP2 MSTORE PUSH1 0x20 ADD PUSH1 0x0 ISZERO ISZERO DUP2 MSTORE PUSH1 0x20 ADD PUSH2 0x3AC2 PUSH2 0x3B8E JUMP JUMPDEST DUP2 MSTORE PUSH1 0x20 ADD PUSH2 0x3ACF PUSH2 0x3B8E JUMP JUMPDEST DUP2 MSTORE PUSH1 0x20 ADD PUSH2 0x3ADC PUSH2 0x3BA1 JUMP JUMPDEST DUP2 MSTORE PUSH1 0x20 ADD PUSH1 0x0 PUSH1 0x7 SIGNEXTEND DUP2 MSTORE PUSH1 0x20 ADD PUSH1 0x0 PUSH1 0x7 SIGNEXTEND DUP2 MSTORE PUSH1 0x20 ADD PUSH2 0x3AFD PUSH2 0x3A11 JUMP JUMPDEST DUP2 MSTORE PUSH1 0x20 ADD PUSH2 0x3B0A PUSH2 0x3A11 JUMP JUMPDEST DUP2 MSTORE PUSH1 0x20 ADD PUSH2 0x3B17 PUSH2 0x3A11 JUMP JUMPDEST DUP2 MSTORE POP SWAP1 JUMP JUMPDEST PUSH1 0x40 MLOAD DUP1 PUSH1 0x40 ADD PUSH1 0x40 MSTORE DUP1 PUSH1 0x60 DUP2 MSTORE PUSH1 0x20 ADD PUSH1 0x0 DUP2 MSTORE POP SWAP1 JUMP JUMPDEST PUSH1 0x40 MLOAD DUP1 PUSH1 0x40 ADD PUSH1 0x40 MSTORE DUP1 PUSH1 0x60 DUP2 MSTORE PUSH1 0x20 ADD PUSH1 0x0 PUSH8 0xFFFFFFFFFFFFFFFF AND DUP2 MSTORE POP SWAP1 JUMP JUMPDEST PUSH1 0x40 MLOAD DUP1 PUSH1 0x40 ADD PUSH1 0x40 MSTORE DUP1 PUSH2 0x3B6E PUSH2 0x3B1D JUMP JUMPDEST DUP2 MSTORE PUSH1 0x20 ADD PUSH1 0x0 DUP2 MSTORE POP SWAP1 JUMP JUMPDEST PUSH1 0x40 MLOAD DUP1 PUSH1 0x20 ADD PUSH1 0x40 MSTORE DUP1 PUSH1 0x60 DUP2 MSTORE POP SWAP1 JUMP JUMPDEST PUSH1 0x40 MLOAD DUP1 PUSH1 0x20 ADD PUSH1 0x40 MSTORE DUP1 PUSH1 0x60 DUP2 MSTORE POP SWAP1 JUMP JUMPDEST PUSH1 0x40 MLOAD DUP1 PUSH1 0x40 ADD PUSH1 0x40 MSTORE DUP1 PUSH1 0x60 DUP2 MSTORE PUSH1 0x20 ADD PUSH1 0x0 ISZERO ISZERO DUP2 MSTORE POP SWAP1 JUMP JUMPDEST PUSH1 0x0 PUSH1 0x40 MLOAD SWAP1 POP SWAP1 JUMP JUMPDEST PUSH1 0x0 DUP1 REVERT JUMPDEST PUSH1 0x0 DUP1 REVERT JUMPDEST PUSH1 0x0 PUSH20 0xFFFFFFFFFFFFFFFFFFFFFFFFFFFFFFFFFFFFFFFF DUP3 AND SWAP1 POP SWAP2 SWAP1 POP JUMP JUMPDEST PUSH1 0x0 PUSH2 0x3BFC DUP3 PUSH2 0x3BD1 JUMP JUMPDEST SWAP1 POP SWAP2 SWAP1 POP JUMP JUMPDEST PUSH2 0x3C0C DUP2 PUSH2 0x3BF1 JUMP JUMPDEST DUP2 EQ PUSH2 0x3C17 JUMPI PUSH1 0x0 DUP1 REVERT JUMPDEST POP JUMP JUMPDEST PUSH1 0x0 DUP2 CALLDATALOAD SWAP1 POP PUSH2 0x3C29 DUP2 PUSH2 0x3C03 JUMP JUMPDEST SWAP3 SWAP2 POP POP JUMP JUMPDEST PUSH1 0x0 DUP2 SWAP1 POP SWAP2 SWAP1 POP JUMP JUMPDEST PUSH2 0x3C42 DUP2 PUSH2 0x3C2F JUMP JUMPDEST DUP2 EQ PUSH2 0x3C4D JUMPI PUSH1 0x0 DUP1 REVERT JUMPDEST POP JUMP JUMPDEST PUSH1 0x0 DUP2 CALLDATALOAD SWAP1 POP PUSH2 0x3C5F DUP2 PUSH2 0x3C39 JUMP JUMPDEST SWAP3 SWAP2 POP POP JUMP JUMPDEST PUSH1 0x0 DUP1 PUSH1 0x40 DUP4 DUP6 SUB SLT ISZERO PUSH2 0x3C7C JUMPI PUSH2 0x3C7B PUSH2 0x3BC7 JUMP JUMPDEST JUMPDEST PUSH1 0x0 PUSH2 0x3C8A DUP6 DUP3 DUP7 ADD PUSH2 0x3C1A JUMP JUMPDEST SWAP3 POP POP PUSH1 0x20 PUSH2 0x3C9B DUP6 DUP3 DUP7 ADD PUSH2 0x3C50 JUMP JUMPDEST SWAP2 POP POP SWAP3 POP SWAP3 SWAP1 POP JUMP JUMPDEST PUSH2 0x3CAE DUP2 PUSH2 0x3C2F JUMP JUMPDEST DUP3 MSTORE POP POP JUMP JUMPDEST PUSH1 0x0 PUSH1 0x20 DUP3 ADD SWAP1 POP PUSH2 0x3CC9 PUSH1 0x0 DUP4 ADD DUP5 PUSH2 0x3CA5 JUMP JUMPDEST SWAP3 SWAP2 POP POP JUMP JUMPDEST PUSH1 0x0 DUP1 REVERT JUMPDEST PUSH1 0x0 PUSH2 0x180 DUP3 DUP5 SUB SLT ISZERO PUSH2 0x3CEB JUMPI PUSH2 0x3CEA PUSH2 0x3CCF JUMP JUMPDEST JUMPDEST DUP2 SWAP1 POP SWAP3 SWAP2 POP POP JUMP JUMPDEST PUSH1 0x0 DUP1 PUSH1 0x40 DUP4 DUP6 SUB SLT ISZERO PUSH2 0x3D0B JUMPI PUSH2 0x3D0A PUSH2 0x3BC7 JUMP JUMPDEST JUMPDEST PUSH1 0x0 DUP4 ADD CALLDATALOAD PUSH8 0xFFFFFFFFFFFFFFFF DUP2 GT ISZERO PUSH2 0x3D29 JUMPI PUSH2 0x3D28 PUSH2 0x3BCC JUMP JUMPDEST JUMPDEST PUSH2 0x3D35 DUP6 DUP3 DUP7 ADD PUSH2 0x3CD4 JUMP JUMPDEST SWAP3 POP POP PUSH1 0x20 PUSH2 0x3D46 DUP6 DUP3 DUP7 ADD PUSH2 0x3C1A JUMP JUMPDEST SWAP2 POP POP SWAP3 POP SWAP3 SWAP1 POP JUMP JUMPDEST PUSH1 0x0 DUP2 SWAP1 POP SWAP2 SWAP1 POP JUMP JUMPDEST PUSH2 0x3D63 DUP2 PUSH2 0x3D50 JUMP JUMPDEST DUP3 MSTORE POP POP JUMP JUMPDEST PUSH1 0x0 PUSH1 0x20 DUP3 ADD SWAP1 POP PUSH2 0x3D7E PUSH1 0x0 DUP4 ADD DUP5 PUSH2 0x3D5A JUMP JUMPDEST SWAP3 SWAP2 POP POP JUMP JUMPDEST PUSH1 0x0 PUSH2 0x3D8F DUP3 PUSH2 0x3BF1 JUMP JUMPDEST SWAP1 POP SWAP2 SWAP1 POP JUMP JUMPDEST PUSH2 0x3D9F DUP2 PUSH2 0x3D84 JUMP JUMPDEST DUP2 EQ PUSH2 0x3DAA JUMPI PUSH1 0x0 DUP1 REVERT JUMPDEST POP JUMP JUMPDEST PUSH1 0x0 DUP2 CALLDATALOAD SWAP1 POP PUSH2 0x3DBC DUP2 PUSH2 0x3D96 JUMP JUMPDEST SWAP3 SWAP2 POP POP JUMP JUMPDEST PUSH1 0x0 DUP1 PUSH1 0x40 DUP4 DUP6 SUB SLT ISZERO PUSH2 0x3DD9 JUMPI PUSH2 0x3DD8 PUSH2 0x3BC7 JUMP JUMPDEST JUMPDEST PUSH1 0x0 PUSH2 0x3DE7 DUP6 DUP3 DUP7 ADD PUSH2 0x3DAD JUMP JUMPDEST SWAP3 POP POP PUSH1 0x20 PUSH2 0x3DF8 DUP6 DUP3 DUP7 ADD PUSH2 0x3C1A JUMP JUMPDEST SWAP2 POP POP SWAP3 POP SWAP3 SWAP1 POP JUMP JUMPDEST PUSH1 0x0 DUP1 REVERT JUMPDEST PUSH1 0x0 DUP1 REVERT JUMPDEST PUSH1 0x0 PUSH1 0x1F NOT PUSH1 0x1F DUP4 ADD AND SWAP1 POP SWAP2 SWAP1 POP JUMP JUMPDEST PUSH32 0x4E487B7100000000000000000000000000000000000000000000000000000000 PUSH1 0x0 MSTORE PUSH1 0x41 PUSH1 0x4 MSTORE PUSH1 0x24 PUSH1 0x0 REVERT JUMPDEST PUSH2 0x3E55 DUP3 PUSH2 0x3E0C JUMP JUMPDEST DUP2 ADD DUP2 DUP2 LT PUSH8 0xFFFFFFFFFFFFFFFF DUP3 GT OR ISZERO PUSH2 0x3E74 JUMPI PUSH2 0x3E73 PUSH2 0x3E1D JUMP JUMPDEST JUMPDEST DUP1 PUSH1 0x40 MSTORE POP POP POP JUMP JUMPDEST PUSH1 0x0 PUSH2 0x3E87 PUSH2 0x3BBD JUMP JUMPDEST SWAP1 POP PUSH2 0x3E93 DUP3 DUP3 PUSH2 0x3E4C JUMP JUMPDEST SWAP2 SWAP1 POP JUMP JUMPDEST PUSH1 0x0 PUSH8 0xFFFFFFFFFFFFFFFF DUP3 GT ISZERO PUSH2 0x3EB3 JUMPI PUSH2 0x3EB2 PUSH2 0x3E1D JUMP JUMPDEST JUMPDEST PUSH2 0x3EBC DUP3 PUSH2 0x3E0C JUMP JUMPDEST SWAP1 POP PUSH1 0x20 DUP2 ADD SWAP1 POP SWAP2 SWAP1 POP JUMP JUMPDEST DUP3 DUP2 DUP4 CALLDATACOPY PUSH1 0x0 DUP4 DUP4 ADD MSTORE POP POP POP JUMP JUMPDEST PUSH1 0x0 PUSH2 0x3EEB PUSH2 0x3EE6 DUP5 PUSH2 0x3E98 JUMP JUMPDEST PUSH2 0x3E7D JUMP JUMPDEST SWAP1 POP DUP3 DUP2 MSTORE PUSH1 0x20 DUP2 ADD DUP5 DUP5 DUP5 ADD GT ISZERO PUSH2 0x3F07 JUMPI PUSH2 0x3F06 PUSH2 0x3E07 JUMP JUMPDEST JUMPDEST PUSH2 0x3F12 DUP5 DUP3 DUP6 PUSH2 0x3EC9 JUMP JUMPDEST POP SWAP4 SWAP3 POP POP POP JUMP JUMPDEST PUSH1 0x0 DUP3 PUSH1 0x1F DUP4 ADD SLT PUSH2 0x3F2F JUMPI PUSH2 0x3F2E PUSH2 0x3E02 JUMP JUMPDEST JUMPDEST DUP2 CALLDATALOAD PUSH2 0x3F3F DUP5 DUP3 PUSH1 0x20 DUP7 ADD PUSH2 0x3ED8 JUMP JUMPDEST SWAP2 POP POP SWAP3 SWAP2 POP POP JUMP JUMPDEST PUSH1 0x0 PUSH1 0x20 DUP3 DUP5 SUB SLT ISZERO PUSH2 0x3F5E JUMPI PUSH2 0x3F5D PUSH2 0x3BC7 JUMP JUMPDEST JUMPDEST PUSH1 0x0 DUP3 ADD CALLDATALOAD PUSH8 0xFFFFFFFFFFFFFFFF DUP2 GT ISZERO PUSH2 0x3F7C JUMPI PUSH2 0x3F7B PUSH2 0x3BCC JUMP JUMPDEST JUMPDEST PUSH2 0x3F88 DUP5 DUP3 DUP6 ADD PUSH2 0x3F1A JUMP JUMPDEST SWAP2 POP POP SWAP3 SWAP2 POP POP JUMP JUMPDEST PUSH1 0x0 PUSH8 0xFFFFFFFFFFFFFFFF DUP3 AND SWAP1 POP SWAP2 SWAP1 POP JUMP JUMPDEST PUSH2 0x3FAE DUP2 PUSH2 0x3F91 JUMP JUMPDEST DUP2 EQ PUSH2 0x3FB9 JUMPI PUSH1 0x0 DUP1 REVERT JUMPDEST POP JUMP JUMPDEST PUSH1 0x0 DUP2 CALLDATALOAD SWAP1 POP PUSH2 0x3FCB DUP2 PUSH2 0x3FA5 JUMP JUMPDEST SWAP3 SWAP2 POP POP JUMP JUMPDEST PUSH1 0x0 DUP1 PUSH1 0x0 PUSH1 0x60 DUP5 DUP7 SUB SLT ISZERO PUSH2 0x3FEA JUMPI PUSH2 0x3FE9 PUSH2 0x3BC7 JUMP JUMPDEST JUMPDEST PUSH1 0x0 PUSH2 0x3FF8 DUP7 DUP3 DUP8 ADD PUSH2 0x3FBC JUMP JUMPDEST SWAP4 POP POP PUSH1 0x20 PUSH2 0x4009 DUP7 DUP3 DUP8 ADD PUSH2 0x3FBC JUMP JUMPDEST SWAP3 POP POP PUSH1 0x40 DUP5 ADD CALLDATALOAD PUSH8 0xFFFFFFFFFFFFFFFF DUP2 GT ISZERO PUSH2 0x402A JUMPI PUSH2 0x4029 PUSH2 0x3BCC JUMP JUMPDEST JUMPDEST PUSH2 0x4036 DUP7 DUP3 DUP8 ADD PUSH2 0x3F1A JUMP JUMPDEST SWAP2 POP POP SWAP3 POP SWAP3 POP SWAP3 JUMP JUMPDEST PUSH1 0x0 PUSH4 0xFFFFFFFF DUP3 AND SWAP1 POP SWAP2 SWAP1 POP JUMP JUMPDEST PUSH2 0x4059 DUP2 PUSH2 0x4040 JUMP JUMPDEST DUP3 MSTORE POP POP JUMP JUMPDEST PUSH2 0x4068 DUP2 PUSH2 0x3F91 JUMP JUMPDEST DUP3 MSTORE POP POP JUMP JUMPDEST PUSH1 0x0 DUP2 MLOAD SWAP1 POP SWAP2 SWAP1 POP JUMP JUMPDEST PUSH1 0x0 DUP3 DUP3 MSTORE PUSH1 0x20 DUP3 ADD SWAP1 POP SWAP3 SWAP2 POP POP JUMP JUMPDEST PUSH1 0x0 JUMPDEST DUP4 DUP2 LT ISZERO PUSH2 0x40A8 JUMPI DUP1 DUP3 ADD MLOAD DUP2 DUP5 ADD MSTORE PUSH1 0x20 DUP2 ADD SWAP1 POP PUSH2 0x408D JUMP JUMPDEST PUSH1 0x0 DUP5 DUP5 ADD MSTORE POP POP POP POP JUMP JUMPDEST PUSH1 0x0 PUSH2 0x40BF DUP3 PUSH2 0x406E JUMP JUMPDEST PUSH2 0x40C9 DUP2 DUP6 PUSH2 0x4079 JUMP JUMPDEST SWAP4 POP PUSH2 0x40D9 DUP2 DUP6 PUSH1 0x20 DUP7 ADD PUSH2 0x408A JUMP JUMPDEST PUSH2 0x40E2 DUP2 PUSH2 0x3E0C JUMP JUMPDEST DUP5 ADD SWAP2 POP POP SWAP3 SWAP2 POP POP JUMP JUMPDEST PUSH1 0x0 PUSH1 0x60 DUP3 ADD SWAP1 POP PUSH2 0x4102 PUSH1 0x0 DUP4 ADD DUP7 PUSH2 0x4050 JUMP JUMPDEST PUSH2 0x410F PUSH1 0x20 DUP4 ADD DUP6 PUSH2 0x405F JUMP JUMPDEST DUP2 DUP2 SUB PUSH1 0x40 DUP4 ADD MSTORE PUSH2 0x4121 DUP2 DUP5 PUSH2 0x40B4 JUMP JUMPDEST SWAP1 POP SWAP5 SWAP4 POP POP POP POP JUMP JUMPDEST PUSH1 0x0 DUP2 SWAP1 POP SWAP2 SWAP1 POP JUMP JUMPDEST PUSH1 0x0 PUSH2 0x4150 PUSH2 0x414B PUSH2 0x4146 DUP5 PUSH2 0x3BD1 JUMP JUMPDEST PUSH2 0x412B JUMP JUMPDEST PUSH2 0x3BD1 JUMP JUMPDEST SWAP1 POP SWAP2 SWAP1 POP JUMP JUMPDEST PUSH1 0x0 PUSH2 0x4162 DUP3 PUSH2 0x4135 JUMP JUMPDEST SWAP1 POP SWAP2 SWAP1 POP JUMP JUMPDEST PUSH1 0x0 PUSH2 0x4174 DUP3 PUSH2 0x4157 JUMP JUMPDEST SWAP1 POP SWAP2 SWAP1 POP JUMP JUMPDEST PUSH2 0x4184 DUP2 PUSH2 0x4169 JUMP JUMPDEST DUP3 MSTORE POP POP JUMP JUMPDEST PUSH1 0x0 PUSH1 0x20 DUP3 ADD SWAP1 POP PUSH2 0x419F PUSH1 0x0 DUP4 ADD DUP5 PUSH2 0x417B JUMP JUMPDEST SWAP3 SWAP2 POP POP JUMP JUMPDEST PUSH2 0x41AE DUP2 PUSH2 0x3BF1 JUMP JUMPDEST DUP3 MSTORE POP POP JUMP JUMPDEST PUSH1 0x0 PUSH1 0x20 DUP3 ADD SWAP1 POP PUSH2 0x41C9 PUSH1 0x0 DUP4 ADD DUP5 PUSH2 0x41A5 JUMP JUMPDEST SWAP3 SWAP2 POP POP JUMP JUMPDEST PUSH1 0x0 DUP1 REVERT JUMPDEST PUSH1 0x0 DUP1 REVERT JUMPDEST PUSH1 0x0 PUSH2 0x41EC PUSH2 0x41E7 DUP5 PUSH2 0x3E98 JUMP JUMPDEST PUSH2 0x3E7D JUMP JUMPDEST SWAP1 POP DUP3 DUP2 MSTORE PUSH1 0x20 DUP2 ADD DUP5 DUP5 DUP5 ADD GT ISZERO PUSH2 0x4208 JUMPI PUSH2 0x4207 PUSH2 0x3E07 JUMP JUMPDEST JUMPDEST PUSH2 0x4213 DUP5 DUP3 DUP6 PUSH2 0x408A JUMP JUMPDEST POP SWAP4 SWAP3 POP POP POP JUMP JUMPDEST PUSH1 0x0 DUP3 PUSH1 0x1F DUP4 ADD SLT PUSH2 0x4230 JUMPI PUSH2 0x422F PUSH2 0x3E02 JUMP JUMPDEST JUMPDEST DUP2 MLOAD PUSH2 0x4240 DUP5 DUP3 PUSH1 0x20 DUP7 ADD PUSH2 0x41D9 JUMP JUMPDEST SWAP2 POP POP SWAP3 SWAP2 POP POP JUMP JUMPDEST PUSH1 0x0 PUSH1 0x20 DUP3 DUP5 SUB SLT ISZERO PUSH2 0x425F JUMPI PUSH2 0x425E PUSH2 0x41CF JUMP JUMPDEST JUMPDEST PUSH2 0x4269 PUSH1 0x20 PUSH2 0x3E7D JUMP JUMPDEST SWAP1 POP PUSH1 0x0 DUP3 ADD MLOAD PUSH8 0xFFFFFFFFFFFFFFFF DUP2 GT ISZERO PUSH2 0x4289 JUMPI PUSH2 0x4288 PUSH2 0x41D4 JUMP JUMPDEST JUMPDEST PUSH2 0x4295 DUP5 DUP3 DUP6 ADD PUSH2 0x421B JUMP JUMPDEST PUSH1 0x0 DUP4 ADD MSTORE POP SWAP3 SWAP2 POP POP JUMP JUMPDEST PUSH1 0x0 PUSH1 0x20 DUP3 DUP5 SUB SLT ISZERO PUSH2 0x42B7 JUMPI PUSH2 0x42B6 PUSH2 0x3BC7 JUMP JUMPDEST JUMPDEST PUSH1 0x0 DUP3 ADD MLOAD PUSH8 0xFFFFFFFFFFFFFFFF DUP2 GT ISZERO PUSH2 0x42D5 JUMPI PUSH2 0x42D4 PUSH2 0x3BCC JUMP JUMPDEST JUMPDEST PUSH2 0x42E1 DUP5 DUP3 DUP6 ADD PUSH2 0x4249 JUMP JUMPDEST SWAP2 POP POP SWAP3 SWAP2 POP POP JUMP JUMPDEST PUSH2 0x42F3 DUP2 PUSH2 0x3C2F JUMP JUMPDEST DUP3 MSTORE POP POP JUMP JUMPDEST PUSH1 0x0 PUSH1 0x20 DUP3 ADD SWAP1 POP PUSH2 0x430E PUSH1 0x0 DUP4 ADD DUP5 PUSH2 0x42EA JUMP JUMPDEST SWAP3 SWAP2 POP POP JUMP JUMPDEST PUSH1 0x0 DUP2 ISZERO ISZERO SWAP1 POP SWAP2 SWAP1 POP JUMP JUMPDEST PUSH2 0x4329 DUP2 PUSH2 0x4314 JUMP JUMPDEST DUP2 EQ PUSH2 0x4334 JUMPI PUSH1 0x0 DUP1 REVERT JUMPDEST POP JUMP JUMPDEST PUSH1 0x0 DUP2 MLOAD SWAP1 POP PUSH2 0x4346 DUP2 PUSH2 0x4320 JUMP JUMPDEST SWAP3 SWAP2 POP POP JUMP JUMPDEST PUSH1 0x0 PUSH1 0x40 DUP3 DUP5 SUB SLT ISZERO PUSH2 0x4362 JUMPI PUSH2 0x4361 PUSH2 0x41CF JUMP JUMPDEST JUMPDEST PUSH2 0x436C PUSH1 0x40 PUSH2 0x3E7D JUMP JUMPDEST SWAP1 POP PUSH1 0x0 DUP3 ADD MLOAD PUSH8 0xFFFFFFFFFFFFFFFF DUP2 GT ISZERO PUSH2 0x438C JUMPI PUSH2 0x438B PUSH2 0x41D4 JUMP JUMPDEST JUMPDEST PUSH2 0x4398 DUP5 DUP3 DUP6 ADD PUSH2 0x421B JUMP JUMPDEST PUSH1 0x0 DUP4 ADD MSTORE POP PUSH1 0x20 PUSH2 0x43AC DUP5 DUP3 DUP6 ADD PUSH2 0x4337 JUMP JUMPDEST PUSH1 0x20 DUP4 ADD MSTORE POP SWAP3 SWAP2 POP POP JUMP JUMPDEST PUSH1 0x0 PUSH1 0x20 DUP3 DUP5 SUB SLT ISZERO PUSH2 0x43CE JUMPI PUSH2 0x43CD PUSH2 0x3BC7 JUMP JUMPDEST JUMPDEST PUSH1 0x0 DUP3 ADD MLOAD PUSH8 0xFFFFFFFFFFFFFFFF DUP2 GT ISZERO PUSH2 0x43EC JUMPI PUSH2 0x43EB PUSH2 0x3BCC JUMP JUMPDEST JUMPDEST PUSH2 0x43F8 DUP5 DUP3 DUP6 ADD PUSH2 0x434C JUMP JUMPDEST SWAP2 POP POP SWAP3 SWAP2 POP POP JUMP JUMPDEST PUSH1 0x0 DUP2 SWAP1 POP SWAP3 SWAP2 POP POP JUMP JUMPDEST POP JUMP JUMPDEST PUSH1 0x0 PUSH2 0x441C PUSH1 0x0 DUP4 PUSH2 0x4401 JUMP JUMPDEST SWAP2 POP PUSH2 0x4427 DUP3 PUSH2 0x440C JUMP JUMPDEST PUSH1 0x0 DUP3 ADD SWAP1 POP SWAP2 SWAP1 POP JUMP JUMPDEST PUSH1 0x0 PUSH2 0x443D DUP3 PUSH2 0x440F JUMP JUMPDEST SWAP2 POP DUP2 SWAP1 POP SWAP2 SWAP1 POP JUMP JUMPDEST PUSH1 0x0 DUP3 DUP3 MSTORE PUSH1 0x20 DUP3 ADD SWAP1 POP SWAP3 SWAP2 POP POP JUMP JUMPDEST PUSH1 0x0 PUSH2 0x4463 DUP3 PUSH2 0x406E JUMP JUMPDEST PUSH2 0x446D DUP2 DUP6 PUSH2 0x4447 JUMP JUMPDEST SWAP4 POP PUSH2 0x447D DUP2 DUP6 PUSH1 0x20 DUP7 ADD PUSH2 0x408A JUMP JUMPDEST PUSH2 0x4486 DUP2 PUSH2 0x3E0C JUMP JUMPDEST DUP5 ADD SWAP2 POP POP SWAP3 SWAP2 POP POP JUMP JUMPDEST PUSH2 0x449A DUP2 PUSH2 0x4314 JUMP JUMPDEST DUP3 MSTORE POP POP JUMP JUMPDEST PUSH1 0x0 PUSH1 0x40 DUP4 ADD PUSH1 0x0 DUP4 ADD MLOAD DUP5 DUP3 SUB PUSH1 0x0 DUP7 ADD MSTORE PUSH2 0x44BD DUP3 DUP3 PUSH2 0x4458 JUMP JUMPDEST SWAP2 POP POP PUSH1 0x20 DUP4 ADD MLOAD PUSH2 0x44D2 PUSH1 0x20 DUP7 ADD DUP3 PUSH2 0x4491 JUMP JUMPDEST POP DUP1 SWAP2 POP POP SWAP3 SWAP2 POP POP JUMP JUMPDEST PUSH1 0x0 PUSH1 0x20 DUP3 ADD SWAP1 POP DUP2 DUP2 SUB PUSH1 0x0 DUP4 ADD MSTORE PUSH2 0x44F7 DUP2 DUP5 PUSH2 0x44A0 JUMP JUMPDEST SWAP1 POP SWAP3 SWAP2 POP POP JUMP JUMPDEST PUSH1 0x0 DUP2 MLOAD SWAP1 POP PUSH2 0x450E DUP2 PUSH2 0x3C39 JUMP JUMPDEST SWAP3 SWAP2 POP POP JUMP JUMPDEST PUSH1 0x0 PUSH1 0x20 DUP3 DUP5 SUB SLT ISZERO PUSH2 0x452A JUMPI PUSH2 0x4529 PUSH2 0x3BC7 JUMP JUMPDEST JUMPDEST PUSH1 0x0 PUSH2 0x4538 DUP5 DUP3 DUP6 ADD PUSH2 0x44FF JUMP JUMPDEST SWAP2 POP POP SWAP3 SWAP2 POP POP JUMP JUMPDEST PUSH2 0x454A DUP2 PUSH2 0x3BF1 JUMP JUMPDEST DUP3 MSTORE POP POP JUMP JUMPDEST PUSH1 0x0 PUSH1 0x20 DUP3 ADD SWAP1 POP PUSH2 0x4565 PUSH1 0x0 DUP4 ADD DUP5 PUSH2 0x4541 JUMP JUMPDEST SWAP3 SWAP2 POP POP JUMP JUMPDEST PUSH1 0x0 PUSH1 0x20 DUP3 DUP5 SUB SLT ISZERO PUSH2 0x4581 JUMPI PUSH2 0x4580 PUSH2 0x3BC7 JUMP JUMPDEST JUMPDEST PUSH1 0x0 PUSH2 0x458F DUP5 DUP3 DUP6 ADD PUSH2 0x4337 JUMP JUMPDEST SWAP2 POP POP SWAP3 SWAP2 POP POP JUMP JUMPDEST PUSH32 0x4E487B7100000000000000000000000000000000000000000000000000000000 PUSH1 0x0 MSTORE PUSH1 0x21 PUSH1 0x4 MSTORE PUSH1 0x24 PUSH1 0x0 REVERT JUMPDEST PUSH1 0x0 DUP1 REVERT JUMPDEST PUSH1 0x0 DUP1 REVERT JUMPDEST PUSH1 0x0 DUP1 REVERT JUMPDEST PUSH1 0x0 DUP1 DUP4 CALLDATALOAD PUSH1 0x1 PUSH1 0x20 SUB DUP5 CALLDATASIZE SUB SUB DUP2 SLT PUSH2 0x45F3 JUMPI PUSH2 0x45F2 PUSH2 0x45C7 JUMP JUMPDEST JUMPDEST DUP1 DUP5 ADD SWAP3 POP DUP3 CALLDATALOAD SWAP2 POP PUSH8 0xFFFFFFFFFFFFFFFF DUP3 GT ISZERO PUSH2 0x4615 JUMPI PUSH2 0x4614 PUSH2 0x45CC JUMP JUMPDEST JUMPDEST PUSH1 0x20 DUP4 ADD SWAP3 POP PUSH1 0x1 DUP3 MUL CALLDATASIZE SUB DUP4 SGT ISZERO PUSH2 0x4631 JUMPI PUSH2 0x4630 PUSH2 0x45D1 JUMP JUMPDEST JUMPDEST POP SWAP3 POP SWAP3 SWAP1 POP JUMP JUMPDEST PUSH1 0x0 PUSH2 0x4645 DUP4 DUP6 PUSH2 0x4079 JUMP JUMPDEST SWAP4 POP PUSH2 0x4652 DUP4 DUP6 DUP5 PUSH2 0x3EC9 JUMP JUMPDEST PUSH2 0x465B DUP4 PUSH2 0x3E0C JUMP JUMPDEST DUP5 ADD SWAP1 POP SWAP4 SWAP3 POP POP POP JUMP JUMPDEST PUSH1 0x0 PUSH1 0x20 DUP3 ADD SWAP1 POP DUP2 DUP2 SUB PUSH1 0x0 DUP4 ADD MSTORE PUSH2 0x4681 DUP2 DUP5 DUP7 PUSH2 0x4639 JUMP JUMPDEST SWAP1 POP SWAP4 SWAP3 POP POP POP JUMP JUMPDEST PUSH1 0x5 DUP2 LT PUSH2 0x4697 JUMPI PUSH1 0x0 DUP1 REVERT JUMPDEST POP JUMP JUMPDEST PUSH1 0x0 DUP2 MLOAD SWAP1 POP PUSH2 0x46A9 DUP2 PUSH2 0x468A JUMP JUMPDEST SWAP3 SWAP2 POP POP JUMP JUMPDEST PUSH1 0x0 PUSH1 0x20 DUP3 DUP5 SUB SLT ISZERO PUSH2 0x46C5 JUMPI PUSH2 0x46C4 PUSH2 0x3BC7 JUMP JUMPDEST JUMPDEST PUSH1 0x0 PUSH2 0x46D3 DUP5 DUP3 DUP6 ADD PUSH2 0x469A JUMP JUMPDEST SWAP2 POP POP SWAP3 SWAP2 POP POP JUMP JUMPDEST PUSH1 0x0 DUP1 REVERT JUMPDEST PUSH1 0x0 DUP1 REVERT JUMPDEST PUSH1 0x0 DUP1 REVERT JUMPDEST PUSH1 0x0 DUP1 DUP4 CALLDATALOAD PUSH1 0x1 PUSH1 0x20 SUB DUP5 CALLDATASIZE SUB SUB DUP2 SLT PUSH2 0x4708 JUMPI PUSH2 0x4707 PUSH2 0x46E6 JUMP JUMPDEST JUMPDEST DUP4 DUP2 ADD SWAP3 POP DUP3 CALLDATALOAD SWAP2 POP PUSH1 0x20 DUP4 ADD SWAP3 POP PUSH8 0xFFFFFFFFFFFFFFFF DUP3 GT ISZERO PUSH2 0x4730 JUMPI PUSH2 0x472F PUSH2 0x46DC JUMP JUMPDEST JUMPDEST PUSH1 0x1 DUP3 MUL CALLDATASIZE SUB DUP4 SGT ISZERO PUSH2 0x4746 JUMPI PUSH2 0x4745 PUSH2 0x46E1 JUMP JUMPDEST JUMPDEST POP SWAP3 POP SWAP3 SWAP1 POP JUMP JUMPDEST PUSH1 0x0 DUP3 DUP3 MSTORE PUSH1 0x20 DUP3 ADD SWAP1 POP SWAP3 SWAP2 POP POP JUMP JUMPDEST PUSH1 0x0 PUSH2 0x476B DUP4 DUP6 PUSH2 0x474E JUMP JUMPDEST SWAP4 POP PUSH2 0x4778 DUP4 DUP6 DUP5 PUSH2 0x3EC9 JUMP JUMPDEST PUSH2 0x4781 DUP4 PUSH2 0x3E0C JUMP JUMPDEST DUP5 ADD SWAP1 POP SWAP4 SWAP3 POP POP POP JUMP JUMPDEST PUSH1 0x0 PUSH2 0x479B PUSH1 0x20 DUP5 ADD DUP5 PUSH2 0x3FBC JUMP JUMPDEST SWAP1 POP SWAP3 SWAP2 POP POP JUMP JUMPDEST PUSH2 0x47AC DUP2 PUSH2 0x3F91 JUMP JUMPDEST DUP3 MSTORE POP POP JUMP JUMPDEST PUSH1 0x0 DUP2 CALLDATALOAD SWAP1 POP PUSH2 0x47C1 DUP2 PUSH2 0x4320 JUMP JUMPDEST SWAP3 SWAP2 POP POP JUMP JUMPDEST PUSH1 0x0 PUSH2 0x47D6 PUSH1 0x20 DUP5 ADD DUP5 PUSH2 0x47B2 JUMP JUMPDEST SWAP1 POP SWAP3 SWAP2 POP POP JUMP JUMPDEST PUSH2 0x47E7 DUP2 PUSH2 0x4314 JUMP JUMPDEST DUP3 MSTORE POP POP JUMP JUMPDEST PUSH1 0x0 DUP1 DUP4 CALLDATALOAD PUSH1 0x1 PUSH1 0x20 SUB DUP5 CALLDATASIZE SUB SUB DUP2 SLT PUSH2 0x480A JUMPI PUSH2 0x4809 PUSH2 0x46E6 JUMP JUMPDEST JUMPDEST DUP4 DUP2 ADD SWAP3 POP DUP3 CALLDATALOAD SWAP2 POP PUSH1 0x20 DUP4 ADD SWAP3 POP PUSH8 0xFFFFFFFFFFFFFFFF DUP3 GT ISZERO PUSH2 0x4832 JUMPI PUSH2 0x4831 PUSH2 0x46DC JUMP JUMPDEST JUMPDEST PUSH1 0x1 DUP3 MUL CALLDATASIZE SUB DUP4 SGT ISZERO PUSH2 0x4848 JUMPI PUSH2 0x4847 PUSH2 0x46E1 JUMP JUMPDEST JUMPDEST POP SWAP3 POP SWAP3 SWAP1 POP JUMP JUMPDEST PUSH1 0x0 DUP3 DUP3 MSTORE PUSH1 0x20 DUP3 ADD SWAP1 POP SWAP3 SWAP2 POP POP JUMP JUMPDEST PUSH1 0x0 PUSH2 0x486D DUP4 DUP6 PUSH2 0x4850 JUMP JUMPDEST SWAP4 POP PUSH2 0x487A DUP4 DUP6 DUP5 PUSH2 0x3EC9 JUMP JUMPDEST PUSH2 0x4883 DUP4 PUSH2 0x3E0C JUMP JUMPDEST DUP5 ADD SWAP1 POP SWAP4 SWAP3 POP POP POP JUMP JUMPDEST PUSH1 0x0 DUP2 PUSH1 0x7 SIGNEXTEND SWAP1 POP SWAP2 SWAP1 POP JUMP JUMPDEST PUSH2 0x48A4 DUP2 PUSH2 0x488E JUMP JUMPDEST DUP2 EQ PUSH2 0x48AF JUMPI PUSH1 0x0 DUP1 REVERT JUMPDEST POP JUMP JUMPDEST PUSH1 0x0 DUP2 CALLDATALOAD SWAP1 POP PUSH2 0x48C1 DUP2 PUSH2 0x489B JUMP JUMPDEST SWAP3 SWAP2 POP POP JUMP JUMPDEST PUSH1 0x0 PUSH2 0x48D6 PUSH1 0x20 DUP5 ADD DUP5 PUSH2 0x48B2 JUMP JUMPDEST SWAP1 POP SWAP3 SWAP2 POP POP JUMP JUMPDEST PUSH2 0x48E7 DUP2 PUSH2 0x488E JUMP JUMPDEST DUP3 MSTORE POP POP JUMP JUMPDEST PUSH1 0x0 PUSH2 0x48FC PUSH1 0x20 DUP5 ADD DUP5 PUSH2 0x3C50 JUMP JUMPDEST SWAP1 POP SWAP3 SWAP2 POP POP JUMP JUMPDEST PUSH2 0x490D DUP2 PUSH2 0x3C2F JUMP JUMPDEST DUP3 MSTORE POP POP JUMP JUMPDEST PUSH1 0x0 DUP3 CALLDATALOAD PUSH1 0x1 PUSH1 0x80 SUB DUP4 CALLDATASIZE SUB SUB DUP2 SLT PUSH2 0x492F JUMPI PUSH2 0x492E PUSH2 0x46E6 JUMP JUMPDEST JUMPDEST DUP3 DUP2 ADD SWAP2 POP POP SWAP3 SWAP2 POP POP JUMP JUMPDEST PUSH1 0x0 PUSH1 0x80 DUP4 ADD PUSH2 0x494E PUSH1 0x0 DUP5 ADD DUP5 PUSH2 0x47ED JUMP JUMPDEST DUP6 DUP4 SUB PUSH1 0x0 DUP8 ADD MSTORE PUSH2 0x4961 DUP4 DUP3 DUP5 PUSH2 0x4861 JUMP JUMPDEST SWAP3 POP POP POP PUSH2 0x4972 PUSH1 0x20 DUP5 ADD DUP5 PUSH2 0x478C JUMP JUMPDEST PUSH2 0x497F PUSH1 0x20 DUP7 ADD DUP3 PUSH2 0x47A3 JUMP JUMPDEST POP PUSH2 0x498D PUSH1 0x40 DUP5 ADD DUP5 PUSH2 0x47C7 JUMP JUMPDEST PUSH2 0x499A PUSH1 0x40 DUP7 ADD DUP3 PUSH2 0x47DE JUMP JUMPDEST POP PUSH2 0x49A8 PUSH1 0x60 DUP5 ADD DUP5 PUSH2 0x47C7 JUMP JUMPDEST PUSH2 0x49B5 PUSH1 0x60 DUP7 ADD DUP3 PUSH2 0x47DE JUMP JUMPDEST POP DUP1 SWAP2 POP POP SWAP3 SWAP2 POP POP JUMP JUMPDEST PUSH1 0x0 PUSH2 0x180 DUP4 ADD PUSH2 0x49D4 PUSH1 0x0 DUP5 ADD DUP5 PUSH2 0x46EB JUMP JUMPDEST DUP6 DUP4 SUB PUSH1 0x0 DUP8 ADD MSTORE PUSH2 0x49E7 DUP4 DUP3 DUP5 PUSH2 0x475F JUMP JUMPDEST SWAP3 POP POP POP PUSH2 0x49F8 PUSH1 0x20 DUP5 ADD DUP5 PUSH2 0x478C JUMP JUMPDEST PUSH2 0x4A05 PUSH1 0x20 DUP7 ADD DUP3 PUSH2 0x47A3 JUMP JUMPDEST POP PUSH2 0x4A13 PUSH1 0x40 DUP5 ADD DUP5 PUSH2 0x47C7 JUMP JUMPDEST PUSH2 0x4A20 PUSH1 0x40 DUP7 ADD DUP3 PUSH2 0x47DE JUMP JUMPDEST POP PUSH2 0x4A2E PUSH1 0x60 DUP5 ADD DUP5 PUSH2 0x47ED JUMP JUMPDEST DUP6 DUP4 SUB PUSH1 0x60 DUP8 ADD MSTORE PUSH2 0x4A41 DUP4 DUP3 DUP5 PUSH2 0x4861 JUMP JUMPDEST SWAP3 POP POP POP PUSH2 0x4A52 PUSH1 0x80 DUP5 ADD DUP5 PUSH2 0x48C7 JUMP JUMPDEST PUSH2 0x4A5F PUSH1 0x80 DUP7 ADD DUP3 PUSH2 0x48DE JUMP JUMPDEST POP PUSH2 0x4A6D PUSH1 0xA0 DUP5 ADD DUP5 PUSH2 0x48C7 JUMP JUMPDEST PUSH2 0x4A7A PUSH1 0xA0 DUP7 ADD DUP3 PUSH2 0x48DE JUMP JUMPDEST POP PUSH2 0x4A88 PUSH1 0xC0 DUP5 ADD DUP5 PUSH2 0x48ED JUMP JUMPDEST PUSH2 0x4A95 PUSH1 0xC0 DUP7 ADD DUP3 PUSH2 0x4904 JUMP JUMPDEST POP PUSH2 0x4AA3 PUSH1 0xE0 DUP5 ADD DUP5 PUSH2 0x48ED JUMP JUMPDEST PUSH2 0x4AB0 PUSH1 0xE0 DUP7 ADD DUP3 PUSH2 0x4904 JUMP JUMPDEST POP PUSH2 0x4ABF PUSH2 0x100 DUP5 ADD DUP5 PUSH2 0x48ED JUMP JUMPDEST PUSH2 0x4ACD PUSH2 0x100 DUP7 ADD DUP3 PUSH2 0x4904 JUMP JUMPDEST POP PUSH2 0x4ADC PUSH2 0x120 DUP5 ADD DUP5 PUSH2 0x47ED JUMP JUMPDEST DUP6 DUP4 SUB PUSH2 0x120 DUP8 ADD MSTORE PUSH2 0x4AF0 DUP4 DUP3 DUP5 PUSH2 0x4861 JUMP JUMPDEST SWAP3 POP POP POP PUSH2 0x4B02 PUSH2 0x140 DUP5 ADD DUP5 PUSH2 0x478C JUMP JUMPDEST PUSH2 0x4B10 PUSH2 0x140 DUP7 ADD DUP3 PUSH2 0x47A3 JUMP JUMPDEST POP PUSH2 0x4B1F PUSH2 0x160 DUP5 ADD DUP5 PUSH2 0x4913 JUMP JUMPDEST DUP5 DUP3 SUB PUSH2 0x160 DUP7 ADD MSTORE PUSH2 0x4B32 DUP3 DUP3 PUSH2 0x493B JUMP JUMPDEST SWAP2 POP POP DUP1 SWAP2 POP POP SWAP3 SWAP2 POP POP JUMP JUMPDEST PUSH1 0x0 PUSH1 0x20 DUP3 ADD SWAP1 POP DUP2 DUP2 SUB PUSH1 0x0 DUP4 ADD MSTORE PUSH2 0x4B59 DUP2 DUP5 PUSH2 0x49C0 JUMP JUMPDEST SWAP1 POP SWAP3 SWAP2 POP POP JUMP JUMPDEST PUSH1 0x0 DUP1 DUP4 CALLDATALOAD PUSH1 0x1 PUSH1 0x20 SUB DUP5 CALLDATASIZE SUB SUB DUP2 SLT PUSH2 0x4B7E JUMPI PUSH2 0x4B7D PUSH2 0x45C7 JUMP JUMPDEST JUMPDEST DUP1 DUP5 ADD SWAP3 POP DUP3 CALLDATALOAD SWAP2 POP PUSH8 0xFFFFFFFFFFFFFFFF DUP3 GT ISZERO PUSH2 0x4BA0 JUMPI PUSH2 0x4B9F PUSH2 0x45CC JUMP JUMPDEST JUMPDEST PUSH1 0x20 DUP4 ADD SWAP3 POP PUSH1 0x1 DUP3 MUL CALLDATASIZE SUB DUP4 SGT ISZERO PUSH2 0x4BBC JUMPI PUSH2 0x4BBB PUSH2 0x45D1 JUMP JUMPDEST JUMPDEST POP SWAP3 POP SWAP3 SWAP1 POP JUMP JUMPDEST PUSH1 0x0 DUP2 PUSH1 0x60 SHL SWAP1 POP SWAP2 SWAP1 POP JUMP JUMPDEST PUSH1 0x0 PUSH2 0x4BDC DUP3 PUSH2 0x4BC4 JUMP JUMPDEST SWAP1 POP SWAP2 SWAP1 POP JUMP JUMPDEST PUSH1 0x0 PUSH2 0x4BEE DUP3 PUSH2 0x4BD1 JUMP JUMPDEST SWAP1 POP SWAP2 SWAP1 POP JUMP JUMPDEST PUSH2 0x4C06 PUSH2 0x4C01 DUP3 PUSH2 0x3BF1 JUMP JUMPDEST PUSH2 0x4BE3 JUMP JUMPDEST DUP3 MSTORE POP POP JUMP JUMPDEST PUSH1 0x0 DUP2 SWAP1 POP SWAP3 SWAP2 POP POP JUMP JUMPDEST PUSH1 0x0 PUSH2 0x4C23 DUP4 DUP6 PUSH2 0x4C0C JUMP JUMPDEST SWAP4 POP PUSH2 0x4C30 DUP4 DUP6 DUP5 PUSH2 0x3EC9 JUMP JUMPDEST DUP3 DUP5 ADD SWAP1 POP SWAP4 SWAP3 POP POP POP JUMP JUMPDEST PUSH1 0x0 PUSH2 0x4C48 DUP3 DUP7 PUSH2 0x4BF5 JUMP JUMPDEST PUSH1 0x14 DUP3 ADD SWAP2 POP PUSH2 0x4C59 DUP3 DUP5 DUP7 PUSH2 0x4C17 JUMP JUMPDEST SWAP2 POP DUP2 SWAP1 POP SWAP5 SWAP4 POP POP POP POP JUMP JUMPDEST PUSH2 0x4C6F DUP2 PUSH2 0x3D50 JUMP JUMPDEST DUP2 EQ PUSH2 0x4C7A JUMPI PUSH1 0x0 DUP1 REVERT JUMPDEST POP JUMP JUMPDEST PUSH1 0x0 DUP2 MLOAD SWAP1 POP PUSH2 0x4C8C DUP2 PUSH2 0x4C66 JUMP JUMPDEST SWAP3 SWAP2 POP POP JUMP JUMPDEST PUSH1 0x0 DUP2 MLOAD SWAP1 POP PUSH2 0x4CA1 DUP2 PUSH2 0x3C03 JUMP JUMPDEST SWAP3 SWAP2 POP POP JUMP JUMPDEST PUSH1 0x0 PUSH8 0xFFFFFFFFFFFFFFFF DUP3 GT ISZERO PUSH2 0x4CC2 JUMPI PUSH2 0x4CC1 PUSH2 0x3E1D JUMP JUMPDEST JUMPDEST PUSH2 0x4CCB DUP3 PUSH2 0x3E0C JUMP JUMPDEST SWAP1 POP PUSH1 0x20 DUP2 ADD SWAP1 POP SWAP2 SWAP1 POP JUMP JUMPDEST PUSH1 0x0 PUSH2 0x4CEB PUSH2 0x4CE6 DUP5 PUSH2 0x4CA7 JUMP JUMPDEST PUSH2 0x3E7D JUMP JUMPDEST SWAP1 POP DUP3 DUP2 MSTORE PUSH1 0x20 DUP2 ADD DUP5 DUP5 DUP5 ADD GT ISZERO PUSH2 0x4D07 JUMPI PUSH2 0x4D06 PUSH2 0x3E07 JUMP JUMPDEST JUMPDEST PUSH2 0x4D12 DUP5 DUP3 DUP6 PUSH2 0x408A JUMP JUMPDEST POP SWAP4 SWAP3 POP POP POP JUMP JUMPDEST PUSH1 0x0 DUP3 PUSH1 0x1F DUP4 ADD SLT PUSH2 0x4D2F JUMPI PUSH2 0x4D2E PUSH2 0x3E02 JUMP JUMPDEST JUMPDEST DUP2 MLOAD PUSH2 0x4D3F DUP5 DUP3 PUSH1 0x20 DUP7 ADD PUSH2 0x4CD8 JUMP JUMPDEST SWAP2 POP POP SWAP3 SWAP2 POP POP JUMP JUMPDEST PUSH1 0x0 PUSH1 0xC0 DUP3 DUP5 SUB SLT ISZERO PUSH2 0x4D5E JUMPI PUSH2 0x4D5D PUSH2 0x41CF JUMP JUMPDEST JUMPDEST PUSH2 0x4D68 PUSH1 0xC0 PUSH2 0x3E7D JUMP JUMPDEST SWAP1 POP PUSH1 0x0 PUSH2 0x4D78 DUP5 DUP3 DUP6 ADD PUSH2 0x4C7D JUMP JUMPDEST PUSH1 0x0 DUP4 ADD MSTORE POP PUSH1 0x20 PUSH2 0x4D8C DUP5 DUP3 DUP6 ADD PUSH2 0x4C92 JUMP JUMPDEST PUSH1 0x20 DUP4 ADD MSTORE POP PUSH1 0x40 DUP3 ADD MLOAD PUSH8 0xFFFFFFFFFFFFFFFF DUP2 GT ISZERO PUSH2 0x4DB0 JUMPI PUSH2 0x4DAF PUSH2 0x41D4 JUMP JUMPDEST JUMPDEST PUSH2 0x4DBC DUP5 DUP3 DUP6 ADD PUSH2 0x4D1A JUMP JUMPDEST PUSH1 0x40 DUP4 ADD MSTORE POP PUSH1 0x60 DUP3 ADD MLOAD PUSH8 0xFFFFFFFFFFFFFFFF DUP2 GT ISZERO PUSH2 0x4DE0 JUMPI PUSH2 0x4DDF PUSH2 0x41D4 JUMP JUMPDEST JUMPDEST PUSH2 0x4DEC DUP5 DUP3 DUP6 ADD PUSH2 0x4D1A JUMP JUMPDEST PUSH1 0x60 DUP4 ADD MSTORE POP PUSH1 0x80 DUP3 ADD MLOAD PUSH8 0xFFFFFFFFFFFFFFFF DUP2 GT ISZERO PUSH2 0x4E10 JUMPI PUSH2 0x4E0F PUSH2 0x41D4 JUMP JUMPDEST JUMPDEST PUSH2 0x4E1C DUP5 DUP3 DUP6 ADD PUSH2 0x4D1A JUMP JUMPDEST PUSH1 0x80 DUP4 ADD MSTORE POP PUSH1 0xA0 PUSH2 0x4E30 DUP5 DUP3 DUP6 ADD PUSH2 0x44FF JUMP JUMPDEST PUSH1 0xA0 DUP4 ADD MSTORE POP SWAP3 SWAP2 POP POP JUMP JUMPDEST PUSH1 0x0 PUSH1 0x20 DUP3 DUP5 SUB SLT ISZERO PUSH2 0x4E52 JUMPI PUSH2 0x4E51 PUSH2 0x3BC7 JUMP JUMPDEST JUMPDEST PUSH1 0x0 DUP3 ADD MLOAD PUSH8 0xFFFFFFFFFFFFFFFF DUP2 GT ISZERO PUSH2 0x4E70 JUMPI PUSH2 0x4E6F PUSH2 0x3BCC JUMP JUMPDEST JUMPDEST PUSH2 0x4E7C DUP5 DUP3 DUP6 ADD PUSH2 0x4D48 JUMP JUMPDEST SWAP2 POP POP SWAP3 SWAP2 POP POP JUMP JUMPDEST PUSH1 0x0 PUSH1 0x60 DUP3 ADD SWAP1 POP PUSH2 0x4E9A PUSH1 0x0 DUP4 ADD DUP7 PUSH2 0x3D5A JUMP JUMPDEST PUSH2 0x4EA7 PUSH1 0x20 DUP4 ADD DUP6 PUSH2 0x3CA5 JUMP JUMPDEST PUSH2 0x4EB4 PUSH1 0x40 DUP4 ADD DUP5 PUSH2 0x4541 JUMP JUMPDEST SWAP5 SWAP4 POP POP POP POP JUMP JUMPDEST PUSH1 0x0 PUSH1 0x40 DUP3 ADD SWAP1 POP DUP2 DUP2 SUB PUSH1 0x0 DUP4 ADD MSTORE PUSH2 0x4ED7 DUP2 DUP6 DUP8 PUSH2 0x4639 JUMP JUMPDEST SWAP1 POP PUSH2 0x4EE6 PUSH1 0x20 DUP4 ADD DUP5 PUSH2 0x3D5A JUMP JUMPDEST SWAP5 SWAP4 POP POP POP POP JUMP JUMPDEST PUSH1 0x5 DUP2 LT PUSH2 0x4EFF JUMPI PUSH2 0x4EFE PUSH2 0x4598 JUMP JUMPDEST JUMPDEST POP JUMP JUMPDEST PUSH1 0x0 DUP2 SWAP1 POP PUSH2 0x4F10 DUP3 PUSH2 0x4EEE JUMP JUMPDEST SWAP2 SWAP1 POP JUMP JUMPDEST PUSH1 0x0 PUSH2 0x4F20 DUP3 PUSH2 0x4F02 JUMP JUMPDEST SWAP1 POP SWAP2 SWAP1 POP JUMP JUMPDEST PUSH2 0x4F30 DUP2 PUSH2 0x4F15 JUMP JUMPDEST DUP3 MSTORE POP POP JUMP JUMPDEST PUSH1 0x0 PUSH1 0x40 DUP3 ADD SWAP1 POP DUP2 DUP2 SUB PUSH1 0x0 DUP4 ADD MSTORE PUSH2 0x4F51 DUP2 DUP6 DUP8 PUSH2 0x4639 JUMP JUMPDEST SWAP1 POP PUSH2 0x4F60 PUSH1 0x20 DUP4 ADD DUP5 PUSH2 0x4F27 JUMP JUMPDEST SWAP5 SWAP4 POP POP POP POP JUMP JUMPDEST PUSH1 0x0 PUSH1 0x20 DUP3 DUP5 SUB SLT ISZERO PUSH2 0x4F7E JUMPI PUSH2 0x4F7D PUSH2 0x3BC7 JUMP JUMPDEST JUMPDEST PUSH1 0x0 PUSH2 0x4F8C DUP5 DUP3 DUP6 ADD PUSH2 0x47B2 JUMP JUMPDEST SWAP2 POP POP SWAP3 SWAP2 POP POP JUMP JUMPDEST PUSH1 0x0 PUSH1 0x20 DUP3 DUP5 SUB SLT ISZERO PUSH2 0x4FAB JUMPI PUSH2 0x4FAA PUSH2 0x3BC7 JUMP JUMPDEST JUMPDEST PUSH1 0x0 PUSH2 0x4FB9 DUP5 DUP3 DUP6 ADD PUSH2 0x3FBC JUMP JUMPDEST SWAP2 POP POP SWAP3 SWAP2 POP POP JUMP JUMPDEST PUSH1 0x0 PUSH1 0x40 DUP3 ADD SWAP1 POP PUSH2 0x4FD7 PUSH1 0x0 DUP4 ADD DUP6 PUSH2 0x405F JUMP JUMPDEST PUSH2 0x4FE4 PUSH1 0x20 DUP4 ADD DUP5 PUSH2 0x3CA5 JUMP JUMPDEST SWAP4 SWAP3 POP POP POP JUMP JUMPDEST PUSH1 0x0 DUP3 DUP3 MSTORE PUSH1 0x20 DUP3 ADD SWAP1 POP SWAP3 SWAP2 POP POP JUMP JUMPDEST PUSH32 0x496E697469616C697A61626C653A20636F6E747261637420697320616C726561 PUSH1 0x0 DUP3 ADD MSTORE PUSH32 0x647920696E697469616C697A6564000000000000000000000000000000000000 PUSH1 0x20 DUP3 ADD MSTORE POP JUMP JUMPDEST PUSH1 0x0 PUSH2 0x5058 PUSH1 0x2E DUP4 PUSH2 0x4FEB JUMP JUMPDEST SWAP2 POP PUSH2 0x5063 DUP3 PUSH2 0x4FFC JUMP JUMPDEST PUSH1 0x40 DUP3 ADD SWAP1 POP SWAP2 SWAP1 POP JUMP JUMPDEST PUSH1 0x0 PUSH1 0x20 DUP3 ADD SWAP1 POP DUP2 DUP2 SUB PUSH1 0x0 DUP4 ADD MSTORE PUSH2 0x5087 DUP2 PUSH2 0x504B JUMP JUMPDEST SWAP1 POP SWAP2 SWAP1 POP JUMP JUMPDEST PUSH1 0x0 DUP2 SWAP1 POP SWAP2 SWAP1 POP JUMP JUMPDEST PUSH1 0x0 PUSH1 0xFF DUP3 AND SWAP1 POP SWAP2 SWAP1 POP JUMP JUMPDEST PUSH1 0x0 PUSH2 0x50C0 PUSH2 0x50BB PUSH2 0x50B6 DUP5 PUSH2 0x508E JUMP JUMPDEST PUSH2 0x412B JUMP JUMPDEST PUSH2 0x5098 JUMP JUMPDEST SWAP1 POP SWAP2 SWAP1 POP JUMP JUMPDEST PUSH2 0x50D0 DUP2 PUSH2 0x50A5 JUMP JUMPDEST DUP3 MSTORE POP POP JUMP JUMPDEST PUSH1 0x0 PUSH1 0x20 DUP3 ADD SWAP1 POP PUSH2 0x50EB PUSH1 0x0 DUP4 ADD DUP5 PUSH2 0x50C7 JUMP JUMPDEST SWAP3 SWAP2 POP POP JUMP JUMPDEST PUSH1 0x0 PUSH1 0x20 DUP3 ADD SWAP1 POP DUP2 DUP2 SUB PUSH1 0x0 DUP4 ADD MSTORE PUSH2 0x510B DUP2 DUP5 PUSH2 0x40B4 JUMP JUMPDEST SWAP1 POP SWAP3 SWAP2 POP POP JUMP JUMPDEST PUSH1 0x0 DUP2 MLOAD SWAP1 POP PUSH2 0x5122 DUP2 PUSH2 0x3FA5 JUMP JUMPDEST SWAP3 SWAP2 POP POP JUMP JUMPDEST PUSH1 0x0 PUSH1 0x20 DUP3 DUP5 SUB SLT ISZERO PUSH2 0x513E JUMPI PUSH2 0x513D PUSH2 0x3BC7 JUMP JUMPDEST JUMPDEST PUSH1 0x0 PUSH2 0x514C DUP5 DUP3 DUP6 ADD PUSH2 0x5113 JUMP JUMPDEST SWAP2 POP POP SWAP3 SWAP2 POP POP JUMP JUMPDEST PUSH1 0x0 PUSH1 0x40 DUP3 ADD SWAP1 POP DUP2 DUP2 SUB PUSH1 0x0 DUP4 ADD MSTORE PUSH2 0x516F DUP2 DUP6 PUSH2 0x40B4 JUMP JUMPDEST SWAP1 POP PUSH2 0x517E PUSH1 0x20 DUP4 ADD DUP5 PUSH2 0x4F27 JUMP JUMPDEST SWAP4 SWAP3 POP POP POP JUMP JUMPDEST PUSH32 0x4461746143617020526563656976656421000000000000000000000000000000 PUSH1 0x0 DUP3 ADD MSTORE POP JUMP JUMPDEST PUSH1 0x0 PUSH2 0x51BB PUSH1 0x11 DUP4 PUSH2 0x4FEB JUMP JUMPDEST SWAP2 POP PUSH2 0x51C6 DUP3 PUSH2 0x5185 JUMP JUMPDEST PUSH1 0x20 DUP3 ADD SWAP1 POP SWAP2 SWAP1 POP JUMP JUMPDEST PUSH1 0x0 PUSH1 0x20 DUP3 ADD SWAP1 POP DUP2 DUP2 SUB PUSH1 0x0 DUP4 ADD MSTORE PUSH2 0x51EA DUP2 PUSH2 0x51AE JUMP JUMPDEST SWAP1 POP SWAP2 SWAP1 POP JUMP JUMPDEST PUSH1 0x0 PUSH1 0x40 DUP3 DUP5 SUB SLT ISZERO PUSH2 0x5207 JUMPI PUSH2 0x5206 PUSH2 0x41CF JUMP JUMPDEST JUMPDEST PUSH2 0x5211 PUSH1 0x40 PUSH2 0x3E7D JUMP JUMPDEST SWAP1 POP PUSH1 0x0 PUSH2 0x5221 DUP5 DUP3 DUP6 ADD PUSH2 0x4C7D JUMP JUMPDEST PUSH1 0x0 DUP4 ADD MSTORE POP PUSH1 0x20 PUSH2 0x5235 DUP5 DUP3 DUP6 ADD PUSH2 0x4337 JUMP JUMPDEST PUSH1 0x20 DUP4 ADD MSTORE POP SWAP3 SWAP2 POP POP JUMP JUMPDEST PUSH1 0x0 PUSH1 0x40 DUP3 DUP5 SUB SLT ISZERO PUSH2 0x5257 JUMPI PUSH2 0x5256 PUSH2 0x3BC7 JUMP JUMPDEST JUMPDEST PUSH1 0x0 PUSH2 0x5265 DUP5 DUP3 DUP6 ADD PUSH2 0x51F1 JUMP JUMPDEST SWAP2 POP POP SWAP3 SWAP2 POP POP JUMP JUMPDEST PUSH1 0x0 DUP2 MLOAD SWAP1 POP PUSH2 0x527D DUP2 PUSH2 0x489B JUMP JUMPDEST SWAP3 SWAP2 POP POP JUMP JUMPDEST PUSH1 0x0 PUSH1 0x80 DUP3 DUP5 SUB SLT ISZERO PUSH2 0x5299 JUMPI PUSH2 0x5298 PUSH2 0x41CF JUMP JUMPDEST JUMPDEST PUSH2 0x52A3 PUSH1 0x80 PUSH2 0x3E7D JUMP JUMPDEST SWAP1 POP PUSH1 0x0 DUP3 ADD MLOAD PUSH8 0xFFFFFFFFFFFFFFFF DUP2 GT ISZERO PUSH2 0x52C3 JUMPI PUSH2 0x52C2 PUSH2 0x41D4 JUMP JUMPDEST JUMPDEST PUSH2 0x52CF DUP5 DUP3 DUP6 ADD PUSH2 0x4D1A JUMP JUMPDEST PUSH1 0x0 DUP4 ADD MSTORE POP PUSH1 0x20 PUSH2 0x52E3 DUP5 DUP3 DUP6 ADD PUSH2 0x5113 JUMP JUMPDEST PUSH1 0x20 DUP4 ADD MSTORE POP PUSH1 0x40 PUSH2 0x52F7 DUP5 DUP3 DUP6 ADD PUSH2 0x4337 JUMP JUMPDEST PUSH1 0x40 DUP4 ADD MSTORE POP PUSH1 0x60 PUSH2 0x530B DUP5 DUP3 DUP6 ADD PUSH2 0x4337 JUMP JUMPDEST PUSH1 0x60 DUP4 ADD MSTORE POP SWAP3 SWAP2 POP POP JUMP JUMPDEST PUSH1 0x0 PUSH2 0x180 DUP3 DUP5 SUB SLT ISZERO PUSH2 0x532E JUMPI PUSH2 0x532D PUSH2 0x41CF JUMP JUMPDEST JUMPDEST PUSH2 0x5339 PUSH2 0x180 PUSH2 0x3E7D JUMP JUMPDEST SWAP1 POP PUSH1 0x0 DUP3 ADD MLOAD PUSH8 0xFFFFFFFFFFFFFFFF DUP2 GT ISZERO PUSH2 0x5359 JUMPI PUSH2 0x5358 PUSH2 0x41D4 JUMP JUMPDEST JUMPDEST PUSH2 0x5365 DUP5 DUP3 DUP6 ADD PUSH2 0x421B JUMP JUMPDEST PUSH1 0x0 DUP4 ADD MSTORE POP PUSH1 0x20 PUSH2 0x5379 DUP5 DUP3 DUP6 ADD PUSH2 0x5113 JUMP JUMPDEST PUSH1 0x20 DUP4 ADD MSTORE POP PUSH1 0x40 PUSH2 0x538D DUP5 DUP3 DUP6 ADD PUSH2 0x4337 JUMP JUMPDEST PUSH1 0x40 DUP4 ADD MSTORE POP PUSH1 0x60 DUP3 ADD MLOAD PUSH8 0xFFFFFFFFFFFFFFFF DUP2 GT ISZERO PUSH2 0x53B1 JUMPI PUSH2 0x53B0 PUSH2 0x41D4 JUMP JUMPDEST JUMPDEST PUSH2 0x53BD DUP5 DUP3 DUP6 ADD PUSH2 0x4D1A JUMP JUMPDEST PUSH1 0x60 DUP4 ADD MSTORE POP PUSH1 0x80 PUSH2 0x53D1 DUP5 DUP3 DUP6 ADD PUSH2 0x526E JUMP JUMPDEST PUSH1 0x80 DUP4 ADD MSTORE POP PUSH1 0xA0 PUSH2 0x53E5 DUP5 DUP3 DUP6 ADD PUSH2 0x526E JUMP JUMPDEST PUSH1 0xA0 DUP4 ADD MSTORE POP PUSH1 0xC0 PUSH2 0x53F9 DUP5 DUP3 DUP6 ADD PUSH2 0x44FF JUMP JUMPDEST PUSH1 0xC0 DUP4 ADD MSTORE POP PUSH1 0xE0 PUSH2 0x540D DUP5 DUP3 DUP6 ADD PUSH2 0x44FF JUMP JUMPDEST PUSH1 0xE0 DUP4 ADD MSTORE POP PUSH2 0x100 PUSH2 0x5422 DUP5 DUP3 DUP6 ADD PUSH2 0x44FF JUMP JUMPDEST PUSH2 0x100 DUP4 ADD MSTORE POP PUSH2 0x120 DUP3 ADD MLOAD PUSH8 0xFFFFFFFFFFFFFFFF DUP2 GT ISZERO PUSH2 0x5448 JUMPI PUSH2 0x5447 PUSH2 0x41D4 JUMP JUMPDEST JUMPDEST PUSH2 0x5454 DUP5 DUP3 DUP6 ADD PUSH2 0x4D1A JUMP JUMPDEST PUSH2 0x120 DUP4 ADD MSTORE POP PUSH2 0x140 PUSH2 0x546A DUP5 DUP3 DUP6 ADD PUSH2 0x5113 JUMP JUMPDEST PUSH2 0x140 DUP4 ADD MSTORE POP PUSH2 0x160 DUP3 ADD MLOAD PUSH8 0xFFFFFFFFFFFFFFFF DUP2 GT ISZERO PUSH2 0x5490 JUMPI PUSH2 0x548F PUSH2 0x41D4 JUMP JUMPDEST JUMPDEST PUSH2 0x549C DUP5 DUP3 DUP6 ADD PUSH2 0x5283 JUMP JUMPDEST PUSH2 0x160 DUP4 ADD MSTORE POP SWAP3 SWAP2 POP POP JUMP JUMPDEST PUSH1 0x0 PUSH1 0x20 DUP3 DUP5 SUB SLT ISZERO PUSH2 0x54BF JUMPI PUSH2 0x54BE PUSH2 0x3BC7 JUMP JUMPDEST JUMPDEST PUSH1 0x0 DUP3 ADD MLOAD PUSH8 0xFFFFFFFFFFFFFFFF DUP2 GT ISZERO PUSH2 0x54DD JUMPI PUSH2 0x54DC PUSH2 0x3BCC JUMP JUMPDEST JUMPDEST PUSH2 0x54E9 DUP5 DUP3 DUP6 ADD PUSH2 0x5317 JUMP JUMPDEST SWAP2 POP POP SWAP3 SWAP2 POP POP JUMP JUMPDEST PUSH32 0x496E76616C69642043424F520000000000000000000000000000000000000000 PUSH1 0x0 DUP3 ADD MSTORE POP JUMP JUMPDEST PUSH1 0x0 PUSH2 0x5528 PUSH1 0xC DUP4 PUSH2 0x4FEB JUMP JUMPDEST SWAP2 POP PUSH2 0x5533 DUP3 PUSH2 0x54F2 JUMP JUMPDEST PUSH1 0x20 DUP3 ADD SWAP1 POP SWAP2 SWAP1 POP JUMP JUMPDEST PUSH1 0x0 PUSH1 0x20 DUP3 ADD SWAP1 POP DUP2 DUP2 SUB PUSH1 0x0 DUP4 ADD MSTORE PUSH2 0x5557 DUP2 PUSH2 0x551B JUMP JUMPDEST SWAP1 POP SWAP2 SWAP1 POP JUMP JUMPDEST PUSH1 0x0 PUSH2 0x5569 DUP3 PUSH2 0x406E JUMP JUMPDEST PUSH2 0x5573 DUP2 DUP6 PUSH2 0x474E JUMP JUMPDEST SWAP4 POP PUSH2 0x5583 DUP2 DUP6 PUSH1 0x20 DUP7 ADD PUSH2 0x408A JUMP JUMPDEST PUSH2 0x558C DUP2 PUSH2 0x3E0C JUMP JUMPDEST DUP5 ADD SWAP2 POP POP SWAP3 SWAP2 POP POP JUMP JUMPDEST PUSH1 0x0 PUSH1 0x40 DUP4 ADD PUSH1 0x0 DUP4 ADD MLOAD DUP5 DUP3 SUB PUSH1 0x0 DUP7 ADD MSTORE PUSH2 0x55B4 DUP3 DUP3 PUSH2 0x555E JUMP JUMPDEST SWAP2 POP POP PUSH1 0x20 DUP4 ADD MLOAD PUSH2 0x55C9 PUSH1 0x20 DUP7 ADD DUP3 PUSH2 0x47DE JUMP JUMPDEST POP DUP1 SWAP2 POP POP SWAP3 SWAP2 POP POP JUMP JUMPDEST PUSH1 0x0 PUSH1 0x40 DUP3 ADD SWAP1 POP DUP2 DUP2 SUB PUSH1 0x0 DUP4 ADD MSTORE PUSH2 0x55EE DUP2 DUP6 PUSH2 0x40B4 JUMP JUMPDEST SWAP1 POP DUP2 DUP2 SUB PUSH1 0x20 DUP4 ADD MSTORE PUSH2 0x5602 DUP2 DUP5 PUSH2 0x5597 JUMP JUMPDEST SWAP1 POP SWAP4 SWAP3 POP POP POP JUMP JUMPDEST PUSH1 0x0 PUSH1 0x40 DUP3 ADD SWAP1 POP DUP2 DUP2 SUB PUSH1 0x0 DUP4 ADD MSTORE PUSH2 0x5625 DUP2 DUP6 PUSH2 0x40B4 JUMP JUMPDEST SWAP1 POP PUSH2 0x5634 PUSH1 0x20 DUP4 ADD DUP5 PUSH2 0x405F JUMP JUMPDEST SWAP4 SWAP3 POP POP POP JUMP JUMPDEST PUSH32 0x4E487B7100000000000000000000000000000000000000000000000000000000 PUSH1 0x0 MSTORE PUSH1 0x11 PUSH1 0x4 MSTORE PUSH1 0x24 PUSH1 0x0 REVERT JUMPDEST PUSH1 0x0 PUSH2 0x5675 DUP3 PUSH2 0x3C2F JUMP JUMPDEST SWAP2 POP PUSH2 0x5680 DUP4 PUSH2 0x3C2F JUMP JUMPDEST SWAP3 POP DUP3 DUP3 ADD SWAP1 POP DUP1 DUP3 GT ISZERO PUSH2 0x5698 JUMPI PUSH2 0x5697 PUSH2 0x563B JUMP JUMPDEST JUMPDEST SWAP3 SWAP2 POP POP JUMP JUMPDEST PUSH1 0x0 PUSH2 0x56B9 PUSH2 0x56B4 PUSH2 0x56AF DUP5 PUSH2 0x3F91 JUMP JUMPDEST PUSH2 0x412B JUMP JUMPDEST PUSH2 0x3F91 JUMP JUMPDEST SWAP1 POP SWAP2 SWAP1 POP JUMP JUMPDEST PUSH2 0x56C9 DUP2 PUSH2 0x569E JUMP JUMPDEST DUP3 MSTORE POP POP JUMP JUMPDEST PUSH1 0x0 PUSH1 0xC0 DUP3 ADD SWAP1 POP PUSH2 0x56E4 PUSH1 0x0 DUP4 ADD DUP10 PUSH2 0x405F JUMP JUMPDEST PUSH2 0x56F1 PUSH1 0x20 DUP4 ADD DUP9 PUSH2 0x3CA5 JUMP JUMPDEST PUSH2 0x56FE PUSH1 0x40 DUP4 ADD DUP8 PUSH2 0x405F JUMP JUMPDEST PUSH2 0x570B PUSH1 0x60 DUP4 ADD DUP7 PUSH2 0x405F JUMP JUMPDEST DUP2 DUP2 SUB PUSH1 0x80 DUP4 ADD MSTORE PUSH2 0x571D DUP2 DUP6 PUSH2 0x40B4 JUMP JUMPDEST SWAP1 POP PUSH2 0x572C PUSH1 0xA0 DUP4 ADD DUP5 PUSH2 0x56C0 JUMP JUMPDEST SWAP8 SWAP7 POP POP POP POP POP POP POP JUMP JUMPDEST PUSH1 0x0 PUSH2 0x5742 DUP3 PUSH2 0x406E JUMP JUMPDEST PUSH2 0x574C DUP2 DUP6 PUSH2 0x4401 JUMP JUMPDEST SWAP4 POP PUSH2 0x575C DUP2 DUP6 PUSH1 0x20 DUP7 ADD PUSH2 0x408A JUMP JUMPDEST DUP1 DUP5 ADD SWAP2 POP POP SWAP3 SWAP2 POP POP JUMP JUMPDEST PUSH1 0x0 PUSH2 0x5774 DUP3 DUP5 PUSH2 0x5737 JUMP JUMPDEST SWAP2 POP DUP2 SWAP1 POP SWAP3 SWAP2 POP POP JUMP JUMPDEST PUSH32 0x4E487B7100000000000000000000000000000000000000000000000000000000 PUSH1 0x0 MSTORE PUSH1 0x1 PUSH1 0x4 MSTORE PUSH1 0x24 PUSH1 0x0 REVERT JUMPDEST PUSH32 0x4E487B7100000000000000000000000000000000000000000000000000000000 PUSH1 0x0 MSTORE PUSH1 0x12 PUSH1 0x4 MSTORE PUSH1 0x24 PUSH1 0x0 REVERT JUMPDEST PUSH1 0x0 PUSH2 0x57E8 DUP3 PUSH2 0x3C2F JUMP JUMPDEST SWAP2 POP PUSH2 0x57F3 DUP4 PUSH2 0x3C2F JUMP JUMPDEST SWAP3 POP DUP3 PUSH2 0x5803 JUMPI PUSH2 0x5802 PUSH2 0x57AE JUMP JUMPDEST JUMPDEST DUP3 DUP3 MOD SWAP1 POP SWAP3 SWAP2 POP POP JUMP JUMPDEST PUSH1 0x0 PUSH2 0x5819 DUP3 PUSH2 0x3C2F JUMP JUMPDEST SWAP2 POP PUSH2 0x5824 DUP4 PUSH2 0x3C2F JUMP JUMPDEST SWAP3 POP DUP3 DUP3 SUB SWAP1 POP DUP2 DUP2 GT ISZERO PUSH2 0x583C JUMPI PUSH2 0x583B PUSH2 0x563B JUMP JUMPDEST JUMPDEST SWAP3 SWAP2 POP POP JUMP JUMPDEST PUSH32 0x4E487B7100000000000000000000000000000000000000000000000000000000 PUSH1 0x0 MSTORE PUSH1 0x32 PUSH1 0x4 MSTORE PUSH1 0x24 PUSH1 0x0 REVERT JUMPDEST PUSH1 0x0 PUSH2 0x587C DUP3 PUSH2 0x3C2F JUMP JUMPDEST SWAP2 POP PUSH32 0xFFFFFFFFFFFFFFFFFFFFFFFFFFFFFFFFFFFFFFFFFFFFFFFFFFFFFFFFFFFFFFFF DUP3 SUB PUSH2 0x58AE JUMPI PUSH2 0x58AD PUSH2 0x563B JUMP JUMPDEST JUMPDEST PUSH1 0x1 DUP3 ADD SWAP1 POP SWAP2 SWAP1 POP JUMP JUMPDEST PUSH1 0x0 PUSH1 0x40 DUP3 ADD SWAP1 POP PUSH2 0x58CE PUSH1 0x0 DUP4 ADD DUP6 PUSH2 0x3CA5 JUMP JUMPDEST PUSH2 0x58DB PUSH1 0x20 DUP4 ADD DUP5 PUSH2 0x3CA5 JUMP JUMPDEST SWAP4 SWAP3 POP POP POP JUMP JUMPDEST PUSH1 0x0 DUP2 SWAP1 POP SWAP2 SWAP1 POP JUMP JUMPDEST PUSH2 0x58F5 DUP2 PUSH2 0x58E2 JUMP JUMPDEST DUP2 EQ PUSH2 0x5900 JUMPI PUSH1 0x0 DUP1 REVERT JUMPDEST POP JUMP JUMPDEST PUSH1 0x0 DUP2 MLOAD SWAP1 POP PUSH2 0x5912 DUP2 PUSH2 0x58EC JUMP JUMPDEST SWAP3 SWAP2 POP POP JUMP JUMPDEST PUSH1 0x0 DUP1 PUSH1 0x0 PUSH1 0x60 DUP5 DUP7 SUB SLT ISZERO PUSH2 0x5931 JUMPI PUSH2 0x5930 PUSH2 0x3BC7 JUMP JUMPDEST JUMPDEST PUSH1 0x0 PUSH2 0x593F DUP7 DUP3 DUP8 ADD PUSH2 0x5903 JUMP JUMPDEST SWAP4 POP POP PUSH1 0x20 PUSH2 0x5950 DUP7 DUP3 DUP8 ADD PUSH2 0x5113 JUMP JUMPDEST SWAP3 POP POP PUSH1 0x40 DUP5 ADD MLOAD PUSH8 0xFFFFFFFFFFFFFFFF DUP2 GT ISZERO PUSH2 0x5971 JUMPI PUSH2 0x5970 PUSH2 0x3BCC JUMP JUMPDEST JUMPDEST PUSH2 0x597D DUP7 DUP3 DUP8 ADD PUSH2 0x421B JUMP JUMPDEST SWAP2 POP POP SWAP3 POP SWAP3 POP SWAP3 JUMP JUMPDEST PUSH1 0x0 PUSH1 0x20 DUP3 ADD SWAP1 POP PUSH2 0x599C PUSH1 0x0 DUP4 ADD DUP5 PUSH2 0x405F JUMP JUMPDEST SWAP3 SWAP2 POP POP JUMP JUMPDEST PUSH2 0x59AB DUP2 PUSH2 0x58E2 JUMP JUMPDEST DUP3 MSTORE POP POP JUMP JUMPDEST PUSH1 0x0 PUSH1 0x20 DUP3 ADD SWAP1 POP PUSH2 0x59C6 PUSH1 0x0 DUP4 ADD DUP5 PUSH2 0x59A2 JUMP JUMPDEST SWAP3 SWAP2 POP POP JUMP JUMPDEST PUSH32 0x696E76616C6964206D616A20286578706563746564204D616A546167206F7220 PUSH1 0x0 DUP3 ADD MSTORE PUSH32 0x4D616A42797465537472696E6729000000000000000000000000000000000000 PUSH1 0x20 DUP3 ADD MSTORE POP JUMP JUMPDEST PUSH1 0x0 PUSH2 0x5A28 PUSH1 0x2E DUP4 PUSH2 0x4FEB JUMP JUMPDEST SWAP2 POP PUSH2 0x5A33 DUP3 PUSH2 0x59CC JUMP JUMPDEST PUSH1 0x40 DUP3 ADD SWAP1 POP SWAP2 SWAP1 POP JUMP JUMPDEST PUSH1 0x0 PUSH1 0x20 DUP3 ADD SWAP1 POP DUP2 DUP2 SUB PUSH1 0x0 DUP4 ADD MSTORE PUSH2 0x5A57 DUP2 PUSH2 0x5A1B JUMP JUMPDEST SWAP1 POP SWAP2 SWAP1 POP JUMP JUMPDEST PUSH32 0x696E76616C6964206D616A20286578706563746564204D616A41727261792900 PUSH1 0x0 DUP3 ADD MSTORE POP JUMP JUMPDEST PUSH1 0x0 PUSH2 0x5A94 PUSH1 0x1F DUP4 PUSH2 0x4FEB JUMP JUMPDEST SWAP2 POP PUSH2 0x5A9F DUP3 PUSH2 0x5A5E JUMP JUMPDEST PUSH1 0x20 DUP3 ADD SWAP1 POP SWAP2 SWAP1 POP JUMP JUMPDEST PUSH1 0x0 PUSH1 0x20 DUP3 ADD SWAP1 POP DUP2 DUP2 SUB PUSH1 0x0 DUP4 ADD MSTORE PUSH2 0x5AC3 DUP2 PUSH2 0x5A87 JUMP JUMPDEST SWAP1 POP SWAP2 SWAP1 POP JUMP JUMPDEST PUSH32 0x6578706563746564206D616A6F72207479706520746167207768656E20706172 PUSH1 0x0 DUP3 ADD MSTORE PUSH32 0x73696E6720636964000000000000000000000000000000000000000000000000 PUSH1 0x20 DUP3 ADD MSTORE POP JUMP JUMPDEST PUSH1 0x0 PUSH2 0x5B26 PUSH1 0x28 DUP4 PUSH2 0x4FEB JUMP JUMPDEST SWAP2 POP PUSH2 0x5B31 DUP3 PUSH2 0x5ACA JUMP JUMPDEST PUSH1 0x40 DUP3 ADD SWAP1 POP SWAP2 SWAP1 POP JUMP JUMPDEST PUSH1 0x0 PUSH1 0x20 DUP3 ADD SWAP1 POP DUP2 DUP2 SUB PUSH1 0x0 DUP4 ADD MSTORE PUSH2 0x5B55 DUP2 PUSH2 0x5B19 JUMP JUMPDEST SWAP1 POP SWAP2 SWAP1 POP JUMP JUMPDEST PUSH32 0x657870656374656420746167203432207768656E2070617273696E6720636964 PUSH1 0x0 DUP3 ADD MSTORE POP JUMP JUMPDEST PUSH1 0x0 PUSH2 0x5B92 PUSH1 0x20 DUP4 PUSH2 0x4FEB JUMP JUMPDEST SWAP2 POP PUSH2 0x5B9D DUP3 PUSH2 0x5B5C JUMP JUMPDEST PUSH1 0x20 DUP3 ADD SWAP1 POP SWAP2 SWAP1 POP JUMP JUMPDEST PUSH1 0x0 PUSH1 0x20 DUP3 ADD SWAP1 POP DUP2 DUP2 SUB PUSH1 0x0 DUP4 ADD MSTORE PUSH2 0x5BC1 DUP2 PUSH2 0x5B85 JUMP JUMPDEST SWAP1 POP SWAP2 SWAP1 POP JUMP JUMPDEST PUSH32 0x6578706563746564206669727374206279746520746F2062652030207768656E PUSH1 0x0 DUP3 ADD MSTORE PUSH32 0x2070617273696E67206369640000000000000000000000000000000000000000 PUSH1 0x20 DUP3 ADD MSTORE POP JUMP JUMPDEST PUSH1 0x0 PUSH2 0x5C24 PUSH1 0x2C DUP4 PUSH2 0x4FEB JUMP JUMPDEST SWAP2 POP PUSH2 0x5C2F DUP3 PUSH2 0x5BC8 JUMP JUMPDEST PUSH1 0x40 DUP3 ADD SWAP1 POP SWAP2 SWAP1 POP JUMP JUMPDEST PUSH1 0x0 PUSH1 0x20 DUP3 ADD SWAP1 POP DUP2 DUP2 SUB PUSH1 0x0 DUP4 ADD MSTORE PUSH2 0x5C53 DUP2 PUSH2 0x5C17 JUMP JUMPDEST SWAP1 POP SWAP2 SWAP1 POP JUMP JUMPDEST PUSH32 0x696E76616C6964206D616A20286578706563746564204D616A556E7369676E65 PUSH1 0x0 DUP3 ADD MSTORE PUSH32 0x64496E7429000000000000000000000000000000000000000000000000000000 PUSH1 0x20 DUP3 ADD MSTORE POP JUMP JUMPDEST PUSH1 0x0 PUSH2 0x5CB6 PUSH1 0x25 DUP4 PUSH2 0x4FEB JUMP JUMPDEST SWAP2 POP PUSH2 0x5CC1 DUP3 PUSH2 0x5C5A JUMP JUMPDEST PUSH1 0x40 DUP3 ADD SWAP1 POP SWAP2 SWAP1 POP JUMP JUMPDEST PUSH1 0x0 PUSH1 0x20 DUP3 ADD SWAP1 POP DUP2 DUP2 SUB PUSH1 0x0 DUP4 ADD MSTORE PUSH2 0x5CE5 DUP2 PUSH2 0x5CA9 JUMP JUMPDEST SWAP1 POP SWAP2 SWAP1 POP JUMP JUMPDEST PUSH32 0x696E76616C6964206D616A20286578706563746564204D616A4F746865722900 PUSH1 0x0 DUP3 ADD MSTORE POP JUMP JUMPDEST PUSH1 0x0 PUSH2 0x5D22 PUSH1 0x1F DUP4 PUSH2 0x4FEB JUMP JUMPDEST SWAP2 POP PUSH2 0x5D2D DUP3 PUSH2 0x5CEC JUMP JUMPDEST PUSH1 0x20 DUP3 ADD SWAP1 POP SWAP2 SWAP1 POP JUMP JUMPDEST PUSH1 0x0 PUSH1 0x20 DUP3 ADD SWAP1 POP DUP2 DUP2 SUB PUSH1 0x0 DUP4 ADD MSTORE PUSH2 0x5D51 DUP2 PUSH2 0x5D15 JUMP JUMPDEST SWAP1 POP SWAP2 SWAP1 POP JUMP JUMPDEST PUSH32 0x696E76616C6964206D616A20286578706563746564204D616A42797465537472 PUSH1 0x0 DUP3 ADD MSTORE PUSH32 0x696E67206F72204D616A54657874537472696E67290000000000000000000000 PUSH1 0x20 DUP3 ADD MSTORE POP JUMP JUMPDEST PUSH1 0x0 PUSH2 0x5DB4 PUSH1 0x35 DUP4 PUSH2 0x4FEB JUMP JUMPDEST SWAP2 POP PUSH2 0x5DBF DUP3 PUSH2 0x5D58 JUMP JUMPDEST PUSH1 0x40 DUP3 ADD SWAP1 POP SWAP2 SWAP1 POP JUMP JUMPDEST PUSH1 0x0 PUSH1 0x20 DUP3 ADD SWAP1 POP DUP2 DUP2 SUB PUSH1 0x0 DUP4 ADD MSTORE PUSH2 0x5DE3 DUP2 PUSH2 0x5DA7 JUMP JUMPDEST SWAP1 POP SWAP2 SWAP1 POP JUMP JUMPDEST PUSH1 0x0 PUSH2 0x5DF5 DUP3 PUSH2 0x3C2F JUMP JUMPDEST SWAP2 POP PUSH2 0x5E00 DUP4 PUSH2 0x3C2F JUMP JUMPDEST SWAP3 POP DUP3 DUP3 MUL PUSH2 0x5E0E DUP2 PUSH2 0x3C2F JUMP JUMPDEST SWAP2 POP DUP3 DUP3 DIV DUP5 EQ DUP4 ISZERO OR PUSH2 0x5E25 JUMPI PUSH2 0x5E24 PUSH2 0x563B JUMP JUMPDEST JUMPDEST POP SWAP3 SWAP2 POP POP JUMP JUMPDEST PUSH32 0x63616E6E6F742068616E646C6520686561646572732077697468206578747261 PUSH1 0x0 DUP3 ADD MSTORE PUSH32 0x203E203237000000000000000000000000000000000000000000000000000000 PUSH1 0x20 DUP3 ADD MSTORE POP JUMP JUMPDEST PUSH1 0x0 PUSH2 0x5E88 PUSH1 0x25 DUP4 PUSH2 0x4FEB JUMP JUMPDEST SWAP2 POP PUSH2 0x5E93 DUP3 PUSH2 0x5E2C JUMP JUMPDEST PUSH1 0x40 DUP3 ADD SWAP1 POP SWAP2 SWAP1 POP JUMP JUMPDEST PUSH1 0x0 PUSH1 0x20 DUP3 ADD SWAP1 POP DUP2 DUP2 SUB PUSH1 0x0 DUP4 ADD MSTORE PUSH2 0x5EB7 DUP2 PUSH2 0x5E7B JUMP JUMPDEST SWAP1 POP SWAP2 SWAP1 POP JUMP JUMPDEST PUSH32 0x696E76616C69642063626F720000000000000000000000000000000000000000 PUSH1 0x0 DUP3 ADD MSTORE POP JUMP JUMPDEST PUSH1 0x0 PUSH2 0x5EF4 PUSH1 0xC DUP4 PUSH2 0x4FEB JUMP JUMPDEST SWAP2 POP PUSH2 0x5EFF DUP3 PUSH2 0x5EBE JUMP JUMPDEST PUSH1 0x20 DUP3 ADD SWAP1 POP SWAP2 SWAP1 POP JUMP JUMPDEST PUSH1 0x0 PUSH1 0x20 DUP3 ADD SWAP1 POP DUP2 DUP2 SUB PUSH1 0x0 DUP4 ADD MSTORE PUSH2 0x5F23 DUP2 PUSH2 0x5EE7 JUMP JUMPDEST SWAP1 POP SWAP2 SWAP1 POP JUMP JUMPDEST PUSH32 0x696E76616C6964206D616A20286578706563746564204D616A5369676E656449 PUSH1 0x0 DUP3 ADD MSTORE PUSH32 0x6E74206F72204D616A556E7369676E6564496E74290000000000000000000000 PUSH1 0x20 DUP3 ADD MSTORE POP JUMP JUMPDEST PUSH1 0x0 PUSH2 0x5F86 PUSH1 0x35 DUP4 PUSH2 0x4FEB JUMP JUMPDEST SWAP2 POP PUSH2 0x5F91 DUP3 PUSH2 0x5F2A JUMP JUMPDEST PUSH1 0x40 DUP3 ADD SWAP1 POP SWAP2 SWAP1 POP JUMP JUMPDEST PUSH1 0x0 PUSH1 0x20 DUP3 ADD SWAP1 POP DUP2 DUP2 SUB PUSH1 0x0 DUP4 ADD MSTORE PUSH2 0x5FB5 DUP2 PUSH2 0x5F79 JUMP JUMPDEST SWAP1 POP SWAP2 SWAP1 POP JUMP JUMPDEST PUSH1 0x0 DUP2 PUSH1 0x1 SHR SWAP1 POP SWAP2 SWAP1 POP JUMP JUMPDEST PUSH1 0x0 DUP1 DUP3 SWAP2 POP DUP4 SWAP1 POP JUMPDEST PUSH1 0x1 DUP6 GT ISZERO PUSH2 0x6013 JUMPI DUP1 DUP7 DIV DUP2 GT ISZERO PUSH2 0x5FEF JUMPI PUSH2 0x5FEE PUSH2 0x563B JUMP JUMPDEST JUMPDEST PUSH1 0x1 DUP6 AND ISZERO PUSH2 0x5FFE JUMPI DUP1 DUP3 MUL SWAP2 POP JUMPDEST DUP1 DUP2 MUL SWAP1 POP PUSH2 0x600C DUP6 PUSH2 0x5FBC JUMP JUMPDEST SWAP5 POP PUSH2 0x5FD3 JUMP JUMPDEST SWAP5 POP SWAP5 SWAP3 POP POP POP JUMP JUMPDEST PUSH1 0x0 DUP3 PUSH2 0x602C JUMPI PUSH1 0x1 SWAP1 POP PUSH2 0x60E8 JUMP JUMPDEST DUP2 PUSH2 0x603A JUMPI PUSH1 0x0 SWAP1 POP PUSH2 0x60E8 JUMP JUMPDEST DUP2 PUSH1 0x1 DUP2 EQ PUSH2 0x6050 JUMPI PUSH1 0x2 DUP2 EQ PUSH2 0x605A JUMPI PUSH2 0x6089 JUMP JUMPDEST PUSH1 0x1 SWAP2 POP POP PUSH2 0x60E8 JUMP JUMPDEST PUSH1 0xFF DUP5 GT ISZERO PUSH2 0x606C JUMPI PUSH2 0x606B PUSH2 0x563B JUMP JUMPDEST JUMPDEST DUP4 PUSH1 0x2 EXP SWAP2 POP DUP5 DUP3 GT ISZERO PUSH2 0x6083 JUMPI PUSH2 0x6082 PUSH2 0x563B JUMP JUMPDEST JUMPDEST POP PUSH2 0x60E8 JUMP JUMPDEST POP PUSH1 0x20 DUP4 LT PUSH2 0x133 DUP4 LT AND PUSH1 0x4E DUP5 LT PUSH1 0xB DUP5 LT AND OR ISZERO PUSH2 0x60BE JUMPI DUP3 DUP3 EXP SWAP1 POP DUP4 DUP2 GT ISZERO PUSH2 0x60B9 JUMPI PUSH2 0x60B8 PUSH2 0x563B JUMP JUMPDEST JUMPDEST PUSH2 0x60E8 JUMP JUMPDEST PUSH2 0x60CB DUP5 DUP5 DUP5 PUSH1 0x1 PUSH2 0x5FC9 JUMP JUMPDEST SWAP3 POP SWAP1 POP DUP2 DUP5 DIV DUP2 GT ISZERO PUSH2 0x60E2 JUMPI PUSH2 0x60E1 PUSH2 0x563B JUMP JUMPDEST JUMPDEST DUP2 DUP2 MUL SWAP1 POP JUMPDEST SWAP4 SWAP3 POP POP POP JUMP JUMPDEST PUSH1 0x0 PUSH2 0x60FA DUP3 PUSH2 0x3C2F JUMP JUMPDEST SWAP2 POP PUSH2 0x6105 DUP4 PUSH2 0x3C2F JUMP JUMPDEST SWAP3 POP PUSH2 0x6132 PUSH32 0xFFFFFFFFFFFFFFFFFFFFFFFFFFFFFFFFFFFFFFFFFFFFFFFFFFFFFFFFFFFFFFFF DUP5 DUP5 PUSH2 0x601C JUMP JUMPDEST SWAP1 POP SWAP3 SWAP2 POP POP JUMP JUMPDEST PUSH32 0x736C6963696E67206F7574206F662072616E6765000000000000000000000000 PUSH1 0x0 DUP3 ADD MSTORE POP JUMP JUMPDEST PUSH1 0x0 PUSH2 0x6170 PUSH1 0x14 DUP4 PUSH2 0x4FEB JUMP JUMPDEST SWAP2 POP PUSH2 0x617B DUP3 PUSH2 0x613A JUMP JUMPDEST PUSH1 0x20 DUP3 ADD SWAP1 POP SWAP2 SWAP1 POP JUMP JUMPDEST PUSH1 0x0 PUSH1 0x20 DUP3 ADD SWAP1 POP DUP2 DUP2 SUB PUSH1 0x0 DUP4 ADD MSTORE PUSH2 0x619F DUP2 PUSH2 0x6163 JUMP JUMPDEST SWAP1 POP SWAP2 SWAP1 POP JUMP INVALID LOG2 PUSH5 0x6970667358 0x22 SLT KECCAK256 0xD0 CALLCODE BYTE ADD 0xC2 DUP11 0xE6 0xC1 0xEF CALLVALUE SWAP14 0xFC JUMPI COINBASE PUSH8 0xFDD30741AE183263 0xDC KECCAK256 SWAP14 SAR 0x4E 0xAC GT BLOCKHASH 0xC PUSH5 0x736F6C6343 STOP ADDMOD GT STOP CALLER "
		},
		"gasEstimates": {
			"creation": {
				"codeDepositCost": "5010400",
				"executionCost": "5946",
				"totalCost": "5016346"
			},
			"external": {
				"addBalance()": "infinite",
				"handle_filecoin_method(uint64,uint64,bytes)": "infinite",
				"initialize(address,address)": "infinite",
				"makeDealProposal((bytes,uint64,bool,string,int64,int64,uint256,uint256,uint256,string,uint64,(string,uint64,bool,bool)),address)": "infinite",
				"s()": "infinite",
				"updateActivationStatus(bytes)": "infinite",
				"withdrawBalance(address,uint256)": "infinite"
			},
			"internal": {
				"authenticateMessage(bytes memory)": "infinite",
				"dealNotify(bytes memory)": "infinite"
			}
		},
		"methodIdentifiers": {
			"addBalance()": "b163cc38",
			"handle_filecoin_method(uint64,uint64,bytes)": "868e10c4",
			"initialize(address,address)": "485cc955",
			"makeDealProposal((bytes,uint64,bool,string,int64,int64,uint256,uint256,uint256,string,uint64,(string,uint64,bool,bool)),address)": "48474f56",
			"s()": "86b714e2",
			"updateActivationStatus(bytes)": "66263735",
			"withdrawBalance(address,uint256)": "0cf20cc9"
		}
	},
	"abi": [
		{
			"inputs": [
				{
					"internalType": "int256",
					"name": "errorCode",
					"type": "int256"
				}
			],
			"name": "ActorError",
			"type": "error"
		},
		{
			"inputs": [],
			"name": "ActorNotFound",
			"type": "error"
		},
		{
			"inputs": [],
			"name": "FailToCallActor",
			"type": "error"
		},
		{
			"inputs": [],
			"name": "InvalidAddress",
			"type": "error"
		},
		{
			"inputs": [
				{
					"internalType": "uint64",
					"name": "",
					"type": "uint64"
				}
			],
			"name": "InvalidCodec",
			"type": "error"
		},
		{
			"inputs": [],
			"name": "InvalidResponseLength",
			"type": "error"
		},
		{
			"inputs": [],
			"name": "InvalidVerifiedDealParam",
			"type": "error"
		},
		{
			"inputs": [
				{
					"internalType": "uint256",
					"name": "balance",
					"type": "uint256"
				},
				{
					"internalType": "uint256",
					"name": "value",
					"type": "uint256"
				}
			],
			"name": "NotEnoughBalance",
			"type": "error"
		},
		{
			"inputs": [],
			"name": "StoragePriceTooBig",
			"type": "error"
		},
		{
			"anonymous": false,
			"inputs": [
				{
					"indexed": true,
					"internalType": "bytes32",
					"name": "id",
					"type": "bytes32"
				},
				{
					"indexed": false,
					"internalType": "uint64",
					"name": "size",
					"type": "uint64"
				},
				{
					"indexed": true,
					"internalType": "bool",
					"name": "verified",
					"type": "bool"
				},
				{
					"indexed": false,
					"internalType": "uint256",
					"name": "price",
					"type": "uint256"
				}
			],
			"name": "DealProposalCreate",
			"type": "event"
		},
		{
			"anonymous": false,
			"inputs": [
				{
					"indexed": false,
					"internalType": "uint8",
					"name": "version",
					"type": "uint8"
				}
			],
			"name": "Initialized",
			"type": "event"
		},
		{
			"anonymous": false,
			"inputs": [
				{
					"indexed": false,
					"internalType": "string",
					"name": "received",
					"type": "string"
				}
			],
			"name": "ReceivedDataCap",
			"type": "event"
		},
		{
			"inputs": [],
			"name": "addBalance",
			"outputs": [],
			"stateMutability": "payable",
			"type": "function"
		},
		{
			"inputs": [
				{
					"internalType": "uint64",
					"name": "method",
					"type": "uint64"
				},
				{
					"internalType": "uint64",
					"name": "",
					"type": "uint64"
				},
				{
					"internalType": "bytes",
					"name": "params",
					"type": "bytes"
				}
			],
			"name": "handle_filecoin_method",
			"outputs": [
				{
					"internalType": "uint32",
					"name": "",
					"type": "uint32"
				},
				{
					"internalType": "uint64",
					"name": "",
					"type": "uint64"
				},
				{
					"internalType": "bytes",
					"name": "",
					"type": "bytes"
				}
			],
			"stateMutability": "nonpayable",
			"type": "function"
		},
		{
			"inputs": [
				{
					"internalType": "contract Storage",
					"name": "_s",
					"type": "address"
				},
				{
					"internalType": "address",
					"name": "_dao",
					"type": "address"
				}
			],
			"name": "initialize",
			"outputs": [],
			"stateMutability": "nonpayable",
			"type": "function"
		},
		{
			"inputs": [
				{
					"components": [
						{
							"internalType": "bytes",
							"name": "piece_cid",
							"type": "bytes"
						},
						{
							"internalType": "uint64",
							"name": "piece_size",
							"type": "uint64"
						},
						{
							"internalType": "bool",
							"name": "verified_deal",
							"type": "bool"
						},
						{
							"internalType": "string",
							"name": "label",
							"type": "string"
						},
						{
							"internalType": "int64",
							"name": "start_epoch",
							"type": "int64"
						},
						{
							"internalType": "int64",
							"name": "end_epoch",
							"type": "int64"
						},
						{
							"internalType": "uint256",
							"name": "storage_price_per_epoch",
							"type": "uint256"
						},
						{
							"internalType": "uint256",
							"name": "provider_collateral",
							"type": "uint256"
						},
						{
							"internalType": "uint256",
							"name": "client_collateral",
							"type": "uint256"
						},
						{
							"internalType": "string",
							"name": "dataCid",
							"type": "string"
						},
						{
							"internalType": "uint64",
							"name": "extra_params_version",
							"type": "uint64"
						},
						{
							"components": [
								{
									"internalType": "string",
									"name": "location_ref",
									"type": "string"
								},
								{
									"internalType": "uint64",
									"name": "car_size",
									"type": "uint64"
								},
								{
									"internalType": "bool",
									"name": "skip_ipni_announce",
									"type": "bool"
								},
								{
									"internalType": "bool",
									"name": "remove_unsealed_copy",
									"type": "bool"
								}
							],
							"internalType": "struct Structs.ExtraParamsV1",
							"name": "extra_params",
							"type": "tuple"
						}
					],
					"internalType": "struct Structs.DealRequest",
					"name": "deal",
					"type": "tuple"
				},
				{
					"internalType": "address",
					"name": "uploader",
					"type": "address"
				}
			],
			"name": "makeDealProposal",
			"outputs": [
				{
					"internalType": "bytes32",
					"name": "",
					"type": "bytes32"
				}
			],
			"stateMutability": "nonpayable",
			"type": "function"
		},
		{
			"inputs": [],
			"name": "s",
			"outputs": [
				{
					"internalType": "contract Storage",
					"name": "",
					"type": "address"
				}
			],
			"stateMutability": "view",
			"type": "function"
		},
		{
			"inputs": [
				{
					"internalType": "bytes",
					"name": "pieceCid",
					"type": "bytes"
				}
			],
			"name": "updateActivationStatus",
			"outputs": [],
			"stateMutability": "nonpayable",
			"type": "function"
		},
		{
			"inputs": [
				{
					"internalType": "address",
					"name": "client",
					"type": "address"
				},
				{
					"internalType": "uint256",
					"name": "value",
					"type": "uint256"
				}
			],
			"name": "withdrawBalance",
			"outputs": [
				{
					"internalType": "uint256",
					"name": "",
					"type": "uint256"
				}
			],
			"stateMutability": "nonpayable",
			"type": "function"
		}
	]
}