{
	"data": {
		"bytecode": {
			"linkReferences": {},
			"object": "60806040523480156200001157600080fd5b5060405162000fb438038062000fb483398101604081905262000034916200010f565b6200003f33620000a2565b600980546001600160a01b03199081166001600160a01b0397881617909155600a8054821695871695909517909455600680548516938616939093179092556007805484169185169190911790556008805490921692169190911790556200017f565b600080546001600160a01b038381166001600160a01b0319831681178455604051919092169283917f8be0079c531659141344cd1fd0a4f28419497f9722a3daafe3b4186f6b6457e09190a35050565b80516001600160a01b03811681146200010a57600080fd5b919050565b600080600080600060a086880312156200012857600080fd5b6200013386620000f2565b94506200014360208701620000f2565b93506200015360408701620000f2565b92506200016360608701620000f2565b91506200017360808701620000f2565b90509295509295909350565b610e25806200018f6000396000f3fe608060405234801561001057600080fd5b50600436106101125760003560e01c80630f48912d1461011757806317bcc0b11461014757806333f2c6791461015a57806337384fd31461016c5780634f69f5e5146101815780635216aeec1461028657806354cf17b61461028f578063550d1028146102a25780636a6ce6b2146102b5578063715018a61461034d578063727e0f591461035557806386edf651146103755780638da5cb5b146103885780639bdfb57914610390578063a18ba05d146103a3578063a21f37a4146103ab578063af576f83146103be578063ccbbd260146103d1578063d1a7cbe0146103e4578063ebeefbb71461040d578063f2fde38b1461044c578063f622bfa81461045f575b600080fd5b600a5461012a906001600160a01b031681565b6040516001600160a01b0390911681526020015b60405180910390f35b60065461012a906001600160a01b031681565b6004545b60405190815260200161013e565b61017f61017a366004610bc2565b610472565b005b61022d61018f366004610bc2565b6040805160c081018252600080825260208201819052918101829052606081018290526080810182905260a0810191909152506001600160a01b03908116600090815260026020818152604092839020835160c081018552815486168152600182015492810192909252918201548416928101929092526003810154831660608301526004810154831660808301526005015490911660a082015290565b60405161013e919081516001600160a01b0390811682526020808401519083015260408084015182169083015260608084015182169083015260808084015182169083015260a092830151169181019190915260c00190565b61015e60045481565b60055461012a906001600160a01b031681565b61017f6102b0366004610c2c565b6104c4565b61030b6102c3366004610bc2565b60026020819052600091825260409091208054600182015492820154600383015460048401546005909401546001600160a01b03938416959492841693918216928216911686565b604080516001600160a01b03978816815260208101969096529386169385019390935290841660608401528316608083015290911660a082015260c00161013e565b61017f610896565b61015e610363366004610bc2565b60036020526000908152604090205481565b60075461012a906001600160a01b031681565b61012a6108aa565b61017f61039e366004610bc2565b6108b9565b60015461015e565b60085461012a906001600160a01b031681565b60095461012a906001600160a01b031681565b61012a6103df366004610cba565b61090b565b61015e6103f2366004610bc2565b6001600160a01b031660009081526003602052604090205490565b61043c61041b366004610bc2565b6001600160a01b039081166000818152600260205260409020549091161490565b604051901515815260200161013e565b61017f61045a366004610bc2565b610935565b61017f61046d366004610cd3565b6109b3565b61047a610a62565b600980546001600160a01b0319166001600160a01b0383169081179091556040517f24977dba83ca106670c8ff3f95c447ddb2bddca6e2797a6395258dbfe0bd961b90600090a250565b6006546000906104dc906001600160a01b0316610ac1565b6007549091506000906104f7906001600160a01b0316610ac1565b600854909150600090610512906001600160a01b0316610ac1565b600a5490915060009061052d906001600160a01b0316610ac1565b600954909150600090610548906001600160a01b0316610ac1565b9050846001600160a01b031663077f224a8e8e8e8e876040518663ffffffff1660e01b815260040161057e959493929190610d26565b600060405180830381600087803b15801561059857600080fd5b505af11580156105ac573d6000803e3d6000fd5b50505050836001600160a01b031663077f224a8e8e8e8e876040518663ffffffff1660e01b81526004016105e4959493929190610d26565b600060405180830381600087803b1580156105fe57600080fd5b505af1158015610612573d6000803e3d6000fd5b50505050826001600160a01b031663077f224a8e8e8e8e876040518663ffffffff1660e01b815260040161064a959493929190610d26565b600060405180830381600087803b15801561066457600080fd5b505af1158015610678573d6000803e3d6000fd5b50505050806001600160a01b0316639ef129d88e8e8789888c8933306040518a63ffffffff1660e01b81526004016106b899989796959493929190610d68565b600060405180830381600087803b1580156106d257600080fd5b505af11580156106e6573d6000803e3d6000fd5b5050604051632f2ff15d60e01b8152600060048201523360248201526001600160a01b0384169250632f2ff15d9150604401600060405180830381600087803b15801561073257600080fd5b505af1158015610746573d6000803e3d6000fd5b50506040805160c0810182526001600160a01b03808616808352426020808501918252338587019081528d8516606087019081528c8616608088019081528e871660a0890190815260018054808201825560008281527fb10e2d527612073b26eecdfd717e6a320cf44b4afac2b0732d9fcbe2b7fa0cf690910180546001600160a01b0319908116909a1790558a518a1681526002968790529a909a20895181548916908a161781559551998601999099559151928401805486169387169390931790925590516003830180548516918616919091179055516004820180548416918516919091179055935160059094018054909116939091169290921790915591506108509050565b60405133906001600160a01b038416907f89a29d63f7243914f2658d11fcf5934d9e2e2f2d518f19a1af2576fcdcfe80bc90600090a35050505050505050505050505050565b61089e610a62565b6108a86000610b5b565b565b6000546001600160a01b031690565b6108c1610a62565b600a80546001600160a01b0319166001600160a01b0383169081179091556040517f48304e9ca789250ce5c021085c58efcbb893c5a727c080737041dbdffc10f7db90600090a250565b6001818154811061091b57600080fd5b6000918252602090912001546001600160a01b0316905081565b61093d610a62565b6001600160a01b0381166109a75760405162461bcd60e51b815260206004820152602660248201527f4f776e61626c653a206e6577206f776e657220697320746865207a65726f206160448201526564647265737360d01b60648201526084015b60405180910390fd5b6109b081610b5b565b50565b336000818152600260205260409020546001600160a01b031614610a185760405162461bcd60e51b815260206004820152601c60248201527b13db9b1e481c9959da5cdd195c995908111053c818d85b8818d85b1b60221b604482015260640161099e565b6001600160a01b03821660009081526003602052604081208054839290610a40908490610dc8565b925050819055508060046000828254610a599190610dc8565b90915550505050565b33610a6b6108aa565b6001600160a01b0316146108a85760405162461bcd60e51b815260206004820181905260248201527f4f776e61626c653a2063616c6c6572206973206e6f7420746865206f776e6572604482015260640161099e565b6000763d602d80600a3d3981f3363d3d373d3d3d363d730000008260601b60e81c176000526e5af43d82803e903d91602b57fd5bf38260781b17602052603760096000f090506001600160a01b038116610b565760405162461bcd60e51b8152602060048201526016602482015275115490cc4c4d8dce8818dc99585d194819985a5b195960521b604482015260640161099e565b919050565b600080546001600160a01b038381166001600160a01b0319831681178455604051919092169283917f8be0079c531659141344cd1fd0a4f28419497f9722a3daafe3b4186f6b6457e09190a35050565b80356001600160a01b0381168114610b5657600080fd5b600060208284031215610bd457600080fd5b610bdd82610bab565b9392505050565b60008083601f840112610bf657600080fd5b5081356001600160401b03811115610c0d57600080fd5b602083019150836020828501011115610c2557600080fd5b9250929050565b60008060008060008060008060c0898b031215610c4857600080fd5b88356001600160401b0380821115610c5f57600080fd5b610c6b8c838d01610be4565b909a50985060208b0135915080821115610c8457600080fd5b50610c918b828c01610be4565b999c989b5099604081013598606082013598506080820135975060a09091013595509350505050565b600060208284031215610ccc57600080fd5b5035919050565b60008060408385031215610ce657600080fd5b610cef83610bab565b946020939093013593505050565b81835281816020850137506000828201602090810191909152601f909101601f19169091010190565b606081526000610d3a606083018789610cfd565b8281036020840152610d4d818688610cfd565b91505060018060a01b03831660408301529695505050505050565b6000610100808352610d7d8184018c8e610cfd565b6001600160a01b039a8b166020850152988a16604084015250509487166060860152608085019390935290851660a0840152841660c083015290921660e09092019190915292915050565b80820180821115610de957634e487b7160e01b600052601160045260246000fd5b9291505056fea26469706673582212202659d9e8cd06170230bd9bdb56effcfeadc8ee0722693827ee1753ffd2b2369864736f6c63430008120033",
			"opcodes": "PUSH1 0x80 PUSH1 0x40 MSTORE CALLVALUE DUP1 ISZERO PUSH3 0x11 JUMPI PUSH1 0x0 DUP1 REVERT JUMPDEST POP PUSH1 0x40 MLOAD PUSH3 0xFB4 CODESIZE SUB DUP1 PUSH3 0xFB4 DUP4 CODECOPY DUP2 ADD PUSH1 0x40 DUP2 SWAP1 MSTORE PUSH3 0x34 SWAP2 PUSH3 0x10F JUMP JUMPDEST PUSH3 0x3F CALLER PUSH3 0xA2 JUMP JUMPDEST PUSH1 0x9 DUP1 SLOAD PUSH1 0x1 PUSH1 0x1 PUSH1 0xA0 SHL SUB NOT SWAP1 DUP2 AND PUSH1 0x1 PUSH1 0x1 PUSH1 0xA0 SHL SUB SWAP8 DUP9 AND OR SWAP1 SWAP2 SSTORE PUSH1 0xA DUP1 SLOAD DUP3 AND SWAP6 DUP8 AND SWAP6 SWAP1 SWAP6 OR SWAP1 SWAP5 SSTORE PUSH1 0x6 DUP1 SLOAD DUP6 AND SWAP4 DUP7 AND SWAP4 SWAP1 SWAP4 OR SWAP1 SWAP3 SSTORE PUSH1 0x7 DUP1 SLOAD DUP5 AND SWAP2 DUP6 AND SWAP2 SWAP1 SWAP2 OR SWAP1 SSTORE PUSH1 0x8 DUP1 SLOAD SWAP1 SWAP3 AND SWAP3 AND SWAP2 SWAP1 SWAP2 OR SWAP1 SSTORE PUSH3 0x17F JUMP JUMPDEST PUSH1 0x0 DUP1 SLOAD PUSH1 0x1 PUSH1 0x1 PUSH1 0xA0 SHL SUB DUP4 DUP2 AND PUSH1 0x1 PUSH1 0x1 PUSH1 0xA0 SHL SUB NOT DUP4 AND DUP2 OR DUP5 SSTORE PUSH1 0x40 MLOAD SWAP2 SWAP1 SWAP3 AND SWAP3 DUP4 SWAP2 PUSH32 0x8BE0079C531659141344CD1FD0A4F28419497F9722A3DAAFE3B4186F6B6457E0 SWAP2 SWAP1 LOG3 POP POP JUMP JUMPDEST DUP1 MLOAD PUSH1 0x1 PUSH1 0x1 PUSH1 0xA0 SHL SUB DUP2 AND DUP2 EQ PUSH3 0x10A JUMPI PUSH1 0x0 DUP1 REVERT JUMPDEST SWAP2 SWAP1 POP JUMP JUMPDEST PUSH1 0x0 DUP1 PUSH1 0x0 DUP1 PUSH1 0x0 PUSH1 0xA0 DUP7 DUP9 SUB SLT ISZERO PUSH3 0x128 JUMPI PUSH1 0x0 DUP1 REVERT JUMPDEST PUSH3 0x133 DUP7 PUSH3 0xF2 JUMP JUMPDEST SWAP5 POP PUSH3 0x143 PUSH1 0x20 DUP8 ADD PUSH3 0xF2 JUMP JUMPDEST SWAP4 POP PUSH3 0x153 PUSH1 0x40 DUP8 ADD PUSH3 0xF2 JUMP JUMPDEST SWAP3 POP PUSH3 0x163 PUSH1 0x60 DUP8 ADD PUSH3 0xF2 JUMP JUMPDEST SWAP2 POP PUSH3 0x173 PUSH1 0x80 DUP8 ADD PUSH3 0xF2 JUMP JUMPDEST SWAP1 POP SWAP3 SWAP6 POP SWAP3 SWAP6 SWAP1 SWAP4 POP JUMP JUMPDEST PUSH2 0xE25 DUP1 PUSH3 0x18F PUSH1 0x0 CODECOPY PUSH1 0x0 RETURN INVALID PUSH1 0x80 PUSH1 0x40 MSTORE CALLVALUE DUP1 ISZERO PUSH2 0x10 JUMPI PUSH1 0x0 DUP1 REVERT JUMPDEST POP PUSH1 0x4 CALLDATASIZE LT PUSH2 0x112 JUMPI PUSH1 0x0 CALLDATALOAD PUSH1 0xE0 SHR DUP1 PUSH4 0xF48912D EQ PUSH2 0x117 JUMPI DUP1 PUSH4 0x17BCC0B1 EQ PUSH2 0x147 JUMPI DUP1 PUSH4 0x33F2C679 EQ PUSH2 0x15A JUMPI DUP1 PUSH4 0x37384FD3 EQ PUSH2 0x16C JUMPI DUP1 PUSH4 0x4F69F5E5 EQ PUSH2 0x181 JUMPI DUP1 PUSH4 0x5216AEEC EQ PUSH2 0x286 JUMPI DUP1 PUSH4 0x54CF17B6 EQ PUSH2 0x28F JUMPI DUP1 PUSH4 0x550D1028 EQ PUSH2 0x2A2 JUMPI DUP1 PUSH4 0x6A6CE6B2 EQ PUSH2 0x2B5 JUMPI DUP1 PUSH4 0x715018A6 EQ PUSH2 0x34D JUMPI DUP1 PUSH4 0x727E0F59 EQ PUSH2 0x355 JUMPI DUP1 PUSH4 0x86EDF651 EQ PUSH2 0x375 JUMPI DUP1 PUSH4 0x8DA5CB5B EQ PUSH2 0x388 JUMPI DUP1 PUSH4 0x9BDFB579 EQ PUSH2 0x390 JUMPI DUP1 PUSH4 0xA18BA05D EQ PUSH2 0x3A3 JUMPI DUP1 PUSH4 0xA21F37A4 EQ PUSH2 0x3AB JUMPI DUP1 PUSH4 0xAF576F83 EQ PUSH2 0x3BE JUMPI DUP1 PUSH4 0xCCBBD260 EQ PUSH2 0x3D1 JUMPI DUP1 PUSH4 0xD1A7CBE0 EQ PUSH2 0x3E4 JUMPI DUP1 PUSH4 0xEBEEFBB7 EQ PUSH2 0x40D JUMPI DUP1 PUSH4 0xF2FDE38B EQ PUSH2 0x44C JUMPI DUP1 PUSH4 0xF622BFA8 EQ PUSH2 0x45F JUMPI JUMPDEST PUSH1 0x0 DUP1 REVERT JUMPDEST PUSH1 0xA SLOAD PUSH2 0x12A SWAP1 PUSH1 0x1 PUSH1 0x1 PUSH1 0xA0 SHL SUB AND DUP2 JUMP JUMPDEST PUSH1 0x40 MLOAD PUSH1 0x1 PUSH1 0x1 PUSH1 0xA0 SHL SUB SWAP1 SWAP2 AND DUP2 MSTORE PUSH1 0x20 ADD JUMPDEST PUSH1 0x40 MLOAD DUP1 SWAP2 SUB SWAP1 RETURN JUMPDEST PUSH1 0x6 SLOAD PUSH2 0x12A SWAP1 PUSH1 0x1 PUSH1 0x1 PUSH1 0xA0 SHL SUB AND DUP2 JUMP JUMPDEST PUSH1 0x4 SLOAD JUMPDEST PUSH1 0x40 MLOAD SWAP1 DUP2 MSTORE PUSH1 0x20 ADD PUSH2 0x13E JUMP JUMPDEST PUSH2 0x17F PUSH2 0x17A CALLDATASIZE PUSH1 0x4 PUSH2 0xBC2 JUMP JUMPDEST PUSH2 0x472 JUMP JUMPDEST STOP JUMPDEST PUSH2 0x22D PUSH2 0x18F CALLDATASIZE PUSH1 0x4 PUSH2 0xBC2 JUMP JUMPDEST PUSH1 0x40 DUP1 MLOAD PUSH1 0xC0 DUP2 ADD DUP3 MSTORE PUSH1 0x0 DUP1 DUP3 MSTORE PUSH1 0x20 DUP3 ADD DUP2 SWAP1 MSTORE SWAP2 DUP2 ADD DUP3 SWAP1 MSTORE PUSH1 0x60 DUP2 ADD DUP3 SWAP1 MSTORE PUSH1 0x80 DUP2 ADD DUP3 SWAP1 MSTORE PUSH1 0xA0 DUP2 ADD SWAP2 SWAP1 SWAP2 MSTORE POP PUSH1 0x1 PUSH1 0x1 PUSH1 0xA0 SHL SUB SWAP1 DUP2 AND PUSH1 0x0 SWAP1 DUP2 MSTORE PUSH1 0x2 PUSH1 0x20 DUP2 DUP2 MSTORE PUSH1 0x40 SWAP3 DUP4 SWAP1 KECCAK256 DUP4 MLOAD PUSH1 0xC0 DUP2 ADD DUP6 MSTORE DUP2 SLOAD DUP7 AND DUP2 MSTORE PUSH1 0x1 DUP3 ADD SLOAD SWAP3 DUP2 ADD SWAP3 SWAP1 SWAP3 MSTORE SWAP2 DUP3 ADD SLOAD DUP5 AND SWAP3 DUP2 ADD SWAP3 SWAP1 SWAP3 MSTORE PUSH1 0x3 DUP2 ADD SLOAD DUP4 AND PUSH1 0x60 DUP4 ADD MSTORE PUSH1 0x4 DUP2 ADD SLOAD DUP4 AND PUSH1 0x80 DUP4 ADD MSTORE PUSH1 0x5 ADD SLOAD SWAP1 SWAP2 AND PUSH1 0xA0 DUP3 ADD MSTORE SWAP1 JUMP JUMPDEST PUSH1 0x40 MLOAD PUSH2 0x13E SWAP2 SWAP1 DUP2 MLOAD PUSH1 0x1 PUSH1 0x1 PUSH1 0xA0 SHL SUB SWAP1 DUP2 AND DUP3 MSTORE PUSH1 0x20 DUP1 DUP5 ADD MLOAD SWAP1 DUP4 ADD MSTORE PUSH1 0x40 DUP1 DUP5 ADD MLOAD DUP3 AND SWAP1 DUP4 ADD MSTORE PUSH1 0x60 DUP1 DUP5 ADD MLOAD DUP3 AND SWAP1 DUP4 ADD MSTORE PUSH1 0x80 DUP1 DUP5 ADD MLOAD DUP3 AND SWAP1 DUP4 ADD MSTORE PUSH1 0xA0 SWAP3 DUP4 ADD MLOAD AND SWAP2 DUP2 ADD SWAP2 SWAP1 SWAP2 MSTORE PUSH1 0xC0 ADD SWAP1 JUMP JUMPDEST PUSH2 0x15E PUSH1 0x4 SLOAD DUP2 JUMP JUMPDEST PUSH1 0x5 SLOAD PUSH2 0x12A SWAP1 PUSH1 0x1 PUSH1 0x1 PUSH1 0xA0 SHL SUB AND DUP2 JUMP JUMPDEST PUSH2 0x17F PUSH2 0x2B0 CALLDATASIZE PUSH1 0x4 PUSH2 0xC2C JUMP JUMPDEST PUSH2 0x4C4 JUMP JUMPDEST PUSH2 0x30B PUSH2 0x2C3 CALLDATASIZE PUSH1 0x4 PUSH2 0xBC2 JUMP JUMPDEST PUSH1 0x2 PUSH1 0x20 DUP2 SWAP1 MSTORE PUSH1 0x0 SWAP2 DUP3 MSTORE PUSH1 0x40 SWAP1 SWAP2 KECCAK256 DUP1 SLOAD PUSH1 0x1 DUP3 ADD SLOAD SWAP3 DUP3 ADD SLOAD PUSH1 0x3 DUP4 ADD SLOAD PUSH1 0x4 DUP5 ADD SLOAD PUSH1 0x5 SWAP1 SWAP5 ADD SLOAD PUSH1 0x1 PUSH1 0x1 PUSH1 0xA0 SHL SUB SWAP4 DUP5 AND SWAP6 SWAP5 SWAP3 DUP5 AND SWAP4 SWAP2 DUP3 AND SWAP3 DUP3 AND SWAP2 AND DUP7 JUMP JUMPDEST PUSH1 0x40 DUP1 MLOAD PUSH1 0x1 PUSH1 0x1 PUSH1 0xA0 SHL SUB SWAP8 DUP9 AND DUP2 MSTORE PUSH1 0x20 DUP2 ADD SWAP7 SWAP1 SWAP7 MSTORE SWAP4 DUP7 AND SWAP4 DUP6 ADD SWAP4 SWAP1 SWAP4 MSTORE SWAP1 DUP5 AND PUSH1 0x60 DUP5 ADD MSTORE DUP4 AND PUSH1 0x80 DUP4 ADD MSTORE SWAP1 SWAP2 AND PUSH1 0xA0 DUP3 ADD MSTORE PUSH1 0xC0 ADD PUSH2 0x13E JUMP JUMPDEST PUSH2 0x17F PUSH2 0x896 JUMP JUMPDEST PUSH2 0x15E PUSH2 0x363 CALLDATASIZE PUSH1 0x4 PUSH2 0xBC2 JUMP JUMPDEST PUSH1 0x3 PUSH1 0x20 MSTORE PUSH1 0x0 SWAP1 DUP2 MSTORE PUSH1 0x40 SWAP1 KECCAK256 SLOAD DUP2 JUMP JUMPDEST PUSH1 0x7 SLOAD PUSH2 0x12A SWAP1 PUSH1 0x1 PUSH1 0x1 PUSH1 0xA0 SHL SUB AND DUP2 JUMP JUMPDEST PUSH2 0x12A PUSH2 0x8AA JUMP JUMPDEST PUSH2 0x17F PUSH2 0x39E CALLDATASIZE PUSH1 0x4 PUSH2 0xBC2 JUMP JUMPDEST PUSH2 0x8B9 JUMP JUMPDEST PUSH1 0x1 SLOAD PUSH2 0x15E JUMP JUMPDEST PUSH1 0x8 SLOAD PUSH2 0x12A SWAP1 PUSH1 0x1 PUSH1 0x1 PUSH1 0xA0 SHL SUB AND DUP2 JUMP JUMPDEST PUSH1 0x9 SLOAD PUSH2 0x12A SWAP1 PUSH1 0x1 PUSH1 0x1 PUSH1 0xA0 SHL SUB AND DUP2 JUMP JUMPDEST PUSH2 0x12A PUSH2 0x3DF CALLDATASIZE PUSH1 0x4 PUSH2 0xCBA JUMP JUMPDEST PUSH2 0x90B JUMP JUMPDEST PUSH2 0x15E PUSH2 0x3F2 CALLDATASIZE PUSH1 0x4 PUSH2 0xBC2 JUMP JUMPDEST PUSH1 0x1 PUSH1 0x1 PUSH1 0xA0 SHL SUB AND PUSH1 0x0 SWAP1 DUP2 MSTORE PUSH1 0x3 PUSH1 0x20 MSTORE PUSH1 0x40 SWAP1 KECCAK256 SLOAD SWAP1 JUMP JUMPDEST PUSH2 0x43C PUSH2 0x41B CALLDATASIZE PUSH1 0x4 PUSH2 0xBC2 JUMP JUMPDEST PUSH1 0x1 PUSH1 0x1 PUSH1 0xA0 SHL SUB SWAP1 DUP2 AND PUSH1 0x0 DUP2 DUP2 MSTORE PUSH1 0x2 PUSH1 0x20 MSTORE PUSH1 0x40 SWAP1 KECCAK256 SLOAD SWAP1 SWAP2 AND EQ SWAP1 JUMP JUMPDEST PUSH1 0x40 MLOAD SWAP1 ISZERO ISZERO DUP2 MSTORE PUSH1 0x20 ADD PUSH2 0x13E JUMP JUMPDEST PUSH2 0x17F PUSH2 0x45A CALLDATASIZE PUSH1 0x4 PUSH2 0xBC2 JUMP JUMPDEST PUSH2 0x935 JUMP JUMPDEST PUSH2 0x17F PUSH2 0x46D CALLDATASIZE PUSH1 0x4 PUSH2 0xCD3 JUMP JUMPDEST PUSH2 0x9B3 JUMP JUMPDEST PUSH2 0x47A PUSH2 0xA62 JUMP JUMPDEST PUSH1 0x9 DUP1 SLOAD PUSH1 0x1 PUSH1 0x1 PUSH1 0xA0 SHL SUB NOT AND PUSH1 0x1 PUSH1 0x1 PUSH1 0xA0 SHL SUB DUP4 AND SWAP1 DUP2 OR SWAP1 SWAP2 SSTORE PUSH1 0x40 MLOAD PUSH32 0x24977DBA83CA106670C8FF3F95C447DDB2BDDCA6E2797A6395258DBFE0BD961B SWAP1 PUSH1 0x0 SWAP1 LOG2 POP JUMP JUMPDEST PUSH1 0x6 SLOAD PUSH1 0x0 SWAP1 PUSH2 0x4DC SWAP1 PUSH1 0x1 PUSH1 0x1 PUSH1 0xA0 SHL SUB AND PUSH2 0xAC1 JUMP JUMPDEST PUSH1 0x7 SLOAD SWAP1 SWAP2 POP PUSH1 0x0 SWAP1 PUSH2 0x4F7 SWAP1 PUSH1 0x1 PUSH1 0x1 PUSH1 0xA0 SHL SUB AND PUSH2 0xAC1 JUMP JUMPDEST PUSH1 0x8 SLOAD SWAP1 SWAP2 POP PUSH1 0x0 SWAP1 PUSH2 0x512 SWAP1 PUSH1 0x1 PUSH1 0x1 PUSH1 0xA0 SHL SUB AND PUSH2 0xAC1 JUMP JUMPDEST PUSH1 0xA SLOAD SWAP1 SWAP2 POP PUSH1 0x0 SWAP1 PUSH2 0x52D SWAP1 PUSH1 0x1 PUSH1 0x1 PUSH1 0xA0 SHL SUB AND PUSH2 0xAC1 JUMP JUMPDEST PUSH1 0x9 SLOAD SWAP1 SWAP2 POP PUSH1 0x0 SWAP1 PUSH2 0x548 SWAP1 PUSH1 0x1 PUSH1 0x1 PUSH1 0xA0 SHL SUB AND PUSH2 0xAC1 JUMP JUMPDEST SWAP1 POP DUP5 PUSH1 0x1 PUSH1 0x1 PUSH1 0xA0 SHL SUB AND PUSH4 0x77F224A DUP15 DUP15 DUP15 DUP15 DUP8 PUSH1 0x40 MLOAD DUP7 PUSH4 0xFFFFFFFF AND PUSH1 0xE0 SHL DUP2 MSTORE PUSH1 0x4 ADD PUSH2 0x57E SWAP6 SWAP5 SWAP4 SWAP3 SWAP2 SWAP1 PUSH2 0xD26 JUMP JUMPDEST PUSH1 0x0 PUSH1 0x40 MLOAD DUP1 DUP4 SUB DUP2 PUSH1 0x0 DUP8 DUP1 EXTCODESIZE ISZERO DUP1 ISZERO PUSH2 0x598 JUMPI PUSH1 0x0 DUP1 REVERT JUMPDEST POP GAS CALL ISZERO DUP1 ISZERO PUSH2 0x5AC JUMPI RETURNDATASIZE PUSH1 0x0 DUP1 RETURNDATACOPY RETURNDATASIZE PUSH1 0x0 REVERT JUMPDEST POP POP POP POP DUP4 PUSH1 0x1 PUSH1 0x1 PUSH1 0xA0 SHL SUB AND PUSH4 0x77F224A DUP15 DUP15 DUP15 DUP15 DUP8 PUSH1 0x40 MLOAD DUP7 PUSH4 0xFFFFFFFF AND PUSH1 0xE0 SHL DUP2 MSTORE PUSH1 0x4 ADD PUSH2 0x5E4 SWAP6 SWAP5 SWAP4 SWAP3 SWAP2 SWAP1 PUSH2 0xD26 JUMP JUMPDEST PUSH1 0x0 PUSH1 0x40 MLOAD DUP1 DUP4 SUB DUP2 PUSH1 0x0 DUP8 DUP1 EXTCODESIZE ISZERO DUP1 ISZERO PUSH2 0x5FE JUMPI PUSH1 0x0 DUP1 REVERT JUMPDEST POP GAS CALL ISZERO DUP1 ISZERO PUSH2 0x612 JUMPI RETURNDATASIZE PUSH1 0x0 DUP1 RETURNDATACOPY RETURNDATASIZE PUSH1 0x0 REVERT JUMPDEST POP POP POP POP DUP3 PUSH1 0x1 PUSH1 0x1 PUSH1 0xA0 SHL SUB AND PUSH4 0x77F224A DUP15 DUP15 DUP15 DUP15 DUP8 PUSH1 0x40 MLOAD DUP7 PUSH4 0xFFFFFFFF AND PUSH1 0xE0 SHL DUP2 MSTORE PUSH1 0x4 ADD PUSH2 0x64A SWAP6 SWAP5 SWAP4 SWAP3 SWAP2 SWAP1 PUSH2 0xD26 JUMP JUMPDEST PUSH1 0x0 PUSH1 0x40 MLOAD DUP1 DUP4 SUB DUP2 PUSH1 0x0 DUP8 DUP1 EXTCODESIZE ISZERO DUP1 ISZERO PUSH2 0x664 JUMPI PUSH1 0x0 DUP1 REVERT JUMPDEST POP GAS CALL ISZERO DUP1 ISZERO PUSH2 0x678 JUMPI RETURNDATASIZE PUSH1 0x0 DUP1 RETURNDATACOPY RETURNDATASIZE PUSH1 0x0 REVERT JUMPDEST POP POP POP POP DUP1 PUSH1 0x1 PUSH1 0x1 PUSH1 0xA0 SHL SUB AND PUSH4 0x9EF129D8 DUP15 DUP15 DUP8 DUP10 DUP9 DUP13 DUP10 CALLER ADDRESS PUSH1 0x40 MLOAD DUP11 PUSH4 0xFFFFFFFF AND PUSH1 0xE0 SHL DUP2 MSTORE PUSH1 0x4 ADD PUSH2 0x6B8 SWAP10 SWAP9 SWAP8 SWAP7 SWAP6 SWAP5 SWAP4 SWAP3 SWAP2 SWAP1 PUSH2 0xD68 JUMP JUMPDEST PUSH1 0x0 PUSH1 0x40 MLOAD DUP1 DUP4 SUB DUP2 PUSH1 0x0 DUP8 DUP1 EXTCODESIZE ISZERO DUP1 ISZERO PUSH2 0x6D2 JUMPI PUSH1 0x0 DUP1 REVERT JUMPDEST POP GAS CALL ISZERO DUP1 ISZERO PUSH2 0x6E6 JUMPI RETURNDATASIZE PUSH1 0x0 DUP1 RETURNDATACOPY RETURNDATASIZE PUSH1 0x0 REVERT JUMPDEST POP POP PUSH1 0x40 MLOAD PUSH4 0x2F2FF15D PUSH1 0xE0 SHL DUP2 MSTORE PUSH1 0x0 PUSH1 0x4 DUP3 ADD MSTORE CALLER PUSH1 0x24 DUP3 ADD MSTORE PUSH1 0x1 PUSH1 0x1 PUSH1 0xA0 SHL SUB DUP5 AND SWAP3 POP PUSH4 0x2F2FF15D SWAP2 POP PUSH1 0x44 ADD PUSH1 0x0 PUSH1 0x40 MLOAD DUP1 DUP4 SUB DUP2 PUSH1 0x0 DUP8 DUP1 EXTCODESIZE ISZERO DUP1 ISZERO PUSH2 0x732 JUMPI PUSH1 0x0 DUP1 REVERT JUMPDEST POP GAS CALL ISZERO DUP1 ISZERO PUSH2 0x746 JUMPI RETURNDATASIZE PUSH1 0x0 DUP1 RETURNDATACOPY RETURNDATASIZE PUSH1 0x0 REVERT JUMPDEST POP POP PUSH1 0x40 DUP1 MLOAD PUSH1 0xC0 DUP2 ADD DUP3 MSTORE PUSH1 0x1 PUSH1 0x1 PUSH1 0xA0 SHL SUB DUP1 DUP7 AND DUP1 DUP4 MSTORE TIMESTAMP PUSH1 0x20 DUP1 DUP6 ADD SWAP2 DUP3 MSTORE CALLER DUP6 DUP8 ADD SWAP1 DUP2 MSTORE DUP14 DUP6 AND PUSH1 0x60 DUP8 ADD SWAP1 DUP2 MSTORE DUP13 DUP7 AND PUSH1 0x80 DUP9 ADD SWAP1 DUP2 MSTORE DUP15 DUP8 AND PUSH1 0xA0 DUP10 ADD SWAP1 DUP2 MSTORE PUSH1 0x1 DUP1 SLOAD DUP1 DUP3 ADD DUP3 SSTORE PUSH1 0x0 DUP3 DUP2 MSTORE PUSH32 0xB10E2D527612073B26EECDFD717E6A320CF44B4AFAC2B0732D9FCBE2B7FA0CF6 SWAP1 SWAP2 ADD DUP1 SLOAD PUSH1 0x1 PUSH1 0x1 PUSH1 0xA0 SHL SUB NOT SWAP1 DUP2 AND SWAP1 SWAP11 OR SWAP1 SSTORE DUP11 MLOAD DUP11 AND DUP2 MSTORE PUSH1 0x2 SWAP7 DUP8 SWAP1 MSTORE SWAP11 SWAP1 SWAP11 KECCAK256 DUP10 MLOAD DUP2 SLOAD DUP10 AND SWAP1 DUP11 AND OR DUP2 SSTORE SWAP6 MLOAD SWAP10 DUP7 ADD SWAP10 SWAP1 SWAP10 SSTORE SWAP2 MLOAD SWAP3 DUP5 ADD DUP1 SLOAD DUP7 AND SWAP4 DUP8 AND SWAP4 SWAP1 SWAP4 OR SWAP1 SWAP3 SSTORE SWAP1 MLOAD PUSH1 0x3 DUP4 ADD DUP1 SLOAD DUP6 AND SWAP2 DUP7 AND SWAP2 SWAP1 SWAP2 OR SWAP1 SSTORE MLOAD PUSH1 0x4 DUP3 ADD DUP1 SLOAD DUP5 AND SWAP2 DUP6 AND SWAP2 SWAP1 SWAP2 OR SWAP1 SSTORE SWAP4 MLOAD PUSH1 0x5 SWAP1 SWAP5 ADD DUP1 SLOAD SWAP1 SWAP2 AND SWAP4 SWAP1 SWAP2 AND SWAP3 SWAP1 SWAP3 OR SWAP1 SWAP2 SSTORE SWAP2 POP PUSH2 0x850 SWAP1 POP JUMP JUMPDEST PUSH1 0x40 MLOAD CALLER SWAP1 PUSH1 0x1 PUSH1 0x1 PUSH1 0xA0 SHL SUB DUP5 AND SWAP1 PUSH32 0x89A29D63F7243914F2658D11FCF5934D9E2E2F2D518F19A1AF2576FCDCFE80BC SWAP1 PUSH1 0x0 SWAP1 LOG3 POP POP POP POP POP POP POP POP POP POP POP POP POP POP JUMP JUMPDEST PUSH2 0x89E PUSH2 0xA62 JUMP JUMPDEST PUSH2 0x8A8 PUSH1 0x0 PUSH2 0xB5B JUMP JUMPDEST JUMP JUMPDEST PUSH1 0x0 SLOAD PUSH1 0x1 PUSH1 0x1 PUSH1 0xA0 SHL SUB AND SWAP1 JUMP JUMPDEST PUSH2 0x8C1 PUSH2 0xA62 JUMP JUMPDEST PUSH1 0xA DUP1 SLOAD PUSH1 0x1 PUSH1 0x1 PUSH1 0xA0 SHL SUB NOT AND PUSH1 0x1 PUSH1 0x1 PUSH1 0xA0 SHL SUB DUP4 AND SWAP1 DUP2 OR SWAP1 SWAP2 SSTORE PUSH1 0x40 MLOAD PUSH32 0x48304E9CA789250CE5C021085C58EFCBB893C5A727C080737041DBDFFC10F7DB SWAP1 PUSH1 0x0 SWAP1 LOG2 POP JUMP JUMPDEST PUSH1 0x1 DUP2 DUP2 SLOAD DUP2 LT PUSH2 0x91B JUMPI PUSH1 0x0 DUP1 REVERT JUMPDEST PUSH1 0x0 SWAP2 DUP3 MSTORE PUSH1 0x20 SWAP1 SWAP2 KECCAK256 ADD SLOAD PUSH1 0x1 PUSH1 0x1 PUSH1 0xA0 SHL SUB AND SWAP1 POP DUP2 JUMP JUMPDEST PUSH2 0x93D PUSH2 0xA62 JUMP JUMPDEST PUSH1 0x1 PUSH1 0x1 PUSH1 0xA0 SHL SUB DUP2 AND PUSH2 0x9A7 JUMPI PUSH1 0x40 MLOAD PUSH3 0x461BCD PUSH1 0xE5 SHL DUP2 MSTORE PUSH1 0x20 PUSH1 0x4 DUP3 ADD MSTORE PUSH1 0x26 PUSH1 0x24 DUP3 ADD MSTORE PUSH32 0x4F776E61626C653A206E6577206F776E657220697320746865207A65726F2061 PUSH1 0x44 DUP3 ADD MSTORE PUSH6 0x646472657373 PUSH1 0xD0 SHL PUSH1 0x64 DUP3 ADD MSTORE PUSH1 0x84 ADD JUMPDEST PUSH1 0x40 MLOAD DUP1 SWAP2 SUB SWAP1 REVERT JUMPDEST PUSH2 0x9B0 DUP2 PUSH2 0xB5B JUMP JUMPDEST POP JUMP JUMPDEST CALLER PUSH1 0x0 DUP2 DUP2 MSTORE PUSH1 0x2 PUSH1 0x20 MSTORE PUSH1 0x40 SWAP1 KECCAK256 SLOAD PUSH1 0x1 PUSH1 0x1 PUSH1 0xA0 SHL SUB AND EQ PUSH2 0xA18 JUMPI PUSH1 0x40 MLOAD PUSH3 0x461BCD PUSH1 0xE5 SHL DUP2 MSTORE PUSH1 0x20 PUSH1 0x4 DUP3 ADD MSTORE PUSH1 0x1C PUSH1 0x24 DUP3 ADD MSTORE PUSH28 0x13DB9B1E481C9959DA5CDD195C995908111053C818D85B8818D85B1B PUSH1 0x22 SHL PUSH1 0x44 DUP3 ADD MSTORE PUSH1 0x64 ADD PUSH2 0x99E JUMP JUMPDEST PUSH1 0x1 PUSH1 0x1 PUSH1 0xA0 SHL SUB DUP3 AND PUSH1 0x0 SWAP1 DUP2 MSTORE PUSH1 0x3 PUSH1 0x20 MSTORE PUSH1 0x40 DUP2 KECCAK256 DUP1 SLOAD DUP4 SWAP3 SWAP1 PUSH2 0xA40 SWAP1 DUP5 SWAP1 PUSH2 0xDC8 JUMP JUMPDEST SWAP3 POP POP DUP2 SWAP1 SSTORE POP DUP1 PUSH1 0x4 PUSH1 0x0 DUP3 DUP3 SLOAD PUSH2 0xA59 SWAP2 SWAP1 PUSH2 0xDC8 JUMP JUMPDEST SWAP1 SWAP2 SSTORE POP POP POP POP JUMP JUMPDEST CALLER PUSH2 0xA6B PUSH2 0x8AA JUMP JUMPDEST PUSH1 0x1 PUSH1 0x1 PUSH1 0xA0 SHL SUB AND EQ PUSH2 0x8A8 JUMPI PUSH1 0x40 MLOAD PUSH3 0x461BCD PUSH1 0xE5 SHL DUP2 MSTORE PUSH1 0x20 PUSH1 0x4 DUP3 ADD DUP2 SWAP1 MSTORE PUSH1 0x24 DUP3 ADD MSTORE PUSH32 0x4F776E61626C653A2063616C6C6572206973206E6F7420746865206F776E6572 PUSH1 0x44 DUP3 ADD MSTORE PUSH1 0x64 ADD PUSH2 0x99E JUMP JUMPDEST PUSH1 0x0 PUSH23 0x3D602D80600A3D3981F3363D3D373D3D3D363D73000000 DUP3 PUSH1 0x60 SHL PUSH1 0xE8 SHR OR PUSH1 0x0 MSTORE PUSH15 0x5AF43D82803E903D91602B57FD5BF3 DUP3 PUSH1 0x78 SHL OR PUSH1 0x20 MSTORE PUSH1 0x37 PUSH1 0x9 PUSH1 0x0 CREATE SWAP1 POP PUSH1 0x1 PUSH1 0x1 PUSH1 0xA0 SHL SUB DUP2 AND PUSH2 0xB56 JUMPI PUSH1 0x40 MLOAD PUSH3 0x461BCD PUSH1 0xE5 SHL DUP2 MSTORE PUSH1 0x20 PUSH1 0x4 DUP3 ADD MSTORE PUSH1 0x16 PUSH1 0x24 DUP3 ADD MSTORE PUSH22 0x115490CC4C4D8DCE8818DC99585D194819985A5B1959 PUSH1 0x52 SHL PUSH1 0x44 DUP3 ADD MSTORE PUSH1 0x64 ADD PUSH2 0x99E JUMP JUMPDEST SWAP2 SWAP1 POP JUMP JUMPDEST PUSH1 0x0 DUP1 SLOAD PUSH1 0x1 PUSH1 0x1 PUSH1 0xA0 SHL SUB DUP4 DUP2 AND PUSH1 0x1 PUSH1 0x1 PUSH1 0xA0 SHL SUB NOT DUP4 AND DUP2 OR DUP5 SSTORE PUSH1 0x40 MLOAD SWAP2 SWAP1 SWAP3 AND SWAP3 DUP4 SWAP2 PUSH32 0x8BE0079C531659141344CD1FD0A4F28419497F9722A3DAAFE3B4186F6B6457E0 SWAP2 SWAP1 LOG3 POP POP JUMP JUMPDEST DUP1 CALLDATALOAD PUSH1 0x1 PUSH1 0x1 PUSH1 0xA0 SHL SUB DUP2 AND DUP2 EQ PUSH2 0xB56 JUMPI PUSH1 0x0 DUP1 REVERT JUMPDEST PUSH1 0x0 PUSH1 0x20 DUP3 DUP5 SUB SLT ISZERO PUSH2 0xBD4 JUMPI PUSH1 0x0 DUP1 REVERT JUMPDEST PUSH2 0xBDD DUP3 PUSH2 0xBAB JUMP JUMPDEST SWAP4 SWAP3 POP POP POP JUMP JUMPDEST PUSH1 0x0 DUP1 DUP4 PUSH1 0x1F DUP5 ADD SLT PUSH2 0xBF6 JUMPI PUSH1 0x0 DUP1 REVERT JUMPDEST POP DUP2 CALLDATALOAD PUSH1 0x1 PUSH1 0x1 PUSH1 0x40 SHL SUB DUP2 GT ISZERO PUSH2 0xC0D JUMPI PUSH1 0x0 DUP1 REVERT JUMPDEST PUSH1 0x20 DUP4 ADD SWAP2 POP DUP4 PUSH1 0x20 DUP3 DUP6 ADD ADD GT ISZERO PUSH2 0xC25 JUMPI PUSH1 0x0 DUP1 REVERT JUMPDEST SWAP3 POP SWAP3 SWAP1 POP JUMP JUMPDEST PUSH1 0x0 DUP1 PUSH1 0x0 DUP1 PUSH1 0x0 DUP1 PUSH1 0x0 DUP1 PUSH1 0xC0 DUP10 DUP12 SUB SLT ISZERO PUSH2 0xC48 JUMPI PUSH1 0x0 DUP1 REVERT JUMPDEST DUP9 CALLDATALOAD PUSH1 0x1 PUSH1 0x1 PUSH1 0x40 SHL SUB DUP1 DUP3 GT ISZERO PUSH2 0xC5F JUMPI PUSH1 0x0 DUP1 REVERT JUMPDEST PUSH2 0xC6B DUP13 DUP4 DUP14 ADD PUSH2 0xBE4 JUMP JUMPDEST SWAP1 SWAP11 POP SWAP9 POP PUSH1 0x20 DUP12 ADD CALLDATALOAD SWAP2 POP DUP1 DUP3 GT ISZERO PUSH2 0xC84 JUMPI PUSH1 0x0 DUP1 REVERT JUMPDEST POP PUSH2 0xC91 DUP12 DUP3 DUP13 ADD PUSH2 0xBE4 JUMP JUMPDEST SWAP10 SWAP13 SWAP9 SWAP12 POP SWAP10 PUSH1 0x40 DUP2 ADD CALLDATALOAD SWAP9 PUSH1 0x60 DUP3 ADD CALLDATALOAD SWAP9 POP PUSH1 0x80 DUP3 ADD CALLDATALOAD SWAP8 POP PUSH1 0xA0 SWAP1 SWAP2 ADD CALLDATALOAD SWAP6 POP SWAP4 POP POP POP POP JUMP JUMPDEST PUSH1 0x0 PUSH1 0x20 DUP3 DUP5 SUB SLT ISZERO PUSH2 0xCCC JUMPI PUSH1 0x0 DUP1 REVERT JUMPDEST POP CALLDATALOAD SWAP2 SWAP1 POP JUMP JUMPDEST PUSH1 0x0 DUP1 PUSH1 0x40 DUP4 DUP6 SUB SLT ISZERO PUSH2 0xCE6 JUMPI PUSH1 0x0 DUP1 REVERT JUMPDEST PUSH2 0xCEF DUP4 PUSH2 0xBAB JUMP JUMPDEST SWAP5 PUSH1 0x20 SWAP4 SWAP1 SWAP4 ADD CALLDATALOAD SWAP4 POP POP POP JUMP JUMPDEST DUP2 DUP4 MSTORE DUP2 DUP2 PUSH1 0x20 DUP6 ADD CALLDATACOPY POP PUSH1 0x0 DUP3 DUP3 ADD PUSH1 0x20 SWAP1 DUP2 ADD SWAP2 SWAP1 SWAP2 MSTORE PUSH1 0x1F SWAP1 SWAP2 ADD PUSH1 0x1F NOT AND SWAP1 SWAP2 ADD ADD SWAP1 JUMP JUMPDEST PUSH1 0x60 DUP2 MSTORE PUSH1 0x0 PUSH2 0xD3A PUSH1 0x60 DUP4 ADD DUP8 DUP10 PUSH2 0xCFD JUMP JUMPDEST DUP3 DUP2 SUB PUSH1 0x20 DUP5 ADD MSTORE PUSH2 0xD4D DUP2 DUP7 DUP9 PUSH2 0xCFD JUMP JUMPDEST SWAP2 POP POP PUSH1 0x1 DUP1 PUSH1 0xA0 SHL SUB DUP4 AND PUSH1 0x40 DUP4 ADD MSTORE SWAP7 SWAP6 POP POP POP POP POP POP JUMP JUMPDEST PUSH1 0x0 PUSH2 0x100 DUP1 DUP4 MSTORE PUSH2 0xD7D DUP2 DUP5 ADD DUP13 DUP15 PUSH2 0xCFD JUMP JUMPDEST PUSH1 0x1 PUSH1 0x1 PUSH1 0xA0 SHL SUB SWAP11 DUP12 AND PUSH1 0x20 DUP6 ADD MSTORE SWAP9 DUP11 AND PUSH1 0x40 DUP5 ADD MSTORE POP POP SWAP5 DUP8 AND PUSH1 0x60 DUP7 ADD MSTORE PUSH1 0x80 DUP6 ADD SWAP4 SWAP1 SWAP4 MSTORE SWAP1 DUP6 AND PUSH1 0xA0 DUP5 ADD MSTORE DUP5 AND PUSH1 0xC0 DUP4 ADD MSTORE SWAP1 SWAP3 AND PUSH1 0xE0 SWAP1 SWAP3 ADD SWAP2 SWAP1 SWAP2 MSTORE SWAP3 SWAP2 POP POP JUMP JUMPDEST DUP1 DUP3 ADD DUP1 DUP3 GT ISZERO PUSH2 0xDE9 JUMPI PUSH4 0x4E487B71 PUSH1 0xE0 SHL PUSH1 0x0 MSTORE PUSH1 0x11 PUSH1 0x4 MSTORE PUSH1 0x24 PUSH1 0x0 REVERT JUMPDEST SWAP3 SWAP2 POP POP JUMP INVALID LOG2 PUSH5 0x6970667358 0x22 SLT KECCAK256 0x26 MSIZE 0xD9 0xE8 0xCD MOD OR MUL ADDRESS 0xBD SWAP12 0xDB JUMP 0xEF 0xFC INVALID 0xAD 0xC8 0xEE SMOD 0x22 PUSH10 0x3827EE1753FFD2B23698 PUSH5 0x736F6C6343 STOP ADDMOD SLT STOP CALLER "
		},
		"gasEstimates": {
			"creation": {
				"codeDepositCost": "724200",
				"executionCost": "infinite",
				"totalCost": "infinite"
			},
			"external": {
				"baseDaoAddress()": "2436",
				"createDao(string,string,uint256,uint256,uint256,uint256)": "infinite",
				"daoInfos(address)": "13449",
				"daos(uint256)": "4955",
				"getDaoInfo(address)": "13687",
				"getTotalAmountInvested()": "2303",
				"getTotalAmountInvestedByInvestor(address)": "2911",
				"getTotalNumberOfDaos()": "2578",
				"increaseInvestment(address,uint256)": "infinite",
				"investmentsByUser(address)": "2717",
				"isValidDao(address)": "2957",
				"masterAccessToken()": "2326",
				"masterBaseDao()": "2656",
				"masterDaoLogic()": "2304",
				"masterInvestorToken()": "2634",
				"masterMemberToken()": "2546",
				"owner()": "2577",
				"renounceOwnership()": "infinite",
				"setMasterBaseDao(address)": "27963",
				"setMasterDaoLogic(address)": "28183",
				"totalInvested()": "2383",
				"transferOwnership(address)": "28796"
			}
		},
		"methodIdentifiers": {
			"baseDaoAddress()": "54cf17b6",
			"createDao(string,string,uint256,uint256,uint256,uint256)": "550d1028",
			"daoInfos(address)": "6a6ce6b2",
			"daos(uint256)": "ccbbd260",
			"getDaoInfo(address)": "4f69f5e5",
			"getTotalAmountInvested()": "33f2c679",
			"getTotalAmountInvestedByInvestor(address)": "d1a7cbe0",
			"getTotalNumberOfDaos()": "a18ba05d",
			"increaseInvestment(address,uint256)": "f622bfa8",
			"investmentsByUser(address)": "727e0f59",
			"isValidDao(address)": "ebeefbb7",
			"masterAccessToken()": "17bcc0b1",
			"masterBaseDao()": "af576f83",
			"masterDaoLogic()": "0f48912d",
			"masterInvestorToken()": "a21f37a4",
			"masterMemberToken()": "86edf651",
			"owner()": "8da5cb5b",
			"renounceOwnership()": "715018a6",
			"setMasterBaseDao(address)": "37384fd3",
			"setMasterDaoLogic(address)": "9bdfb579",
			"totalInvested()": "5216aeec",
			"transferOwnership(address)": "f2fde38b"
		}
	},
	"abi": [
		{
			"inputs": [
				{
					"internalType": "address",
					"name": "_masterBaseDao",
					"type": "address"
				},
				{
					"internalType": "address",
					"name": "_masterDaoLogic",
					"type": "address"
				},
				{
					"internalType": "address",
					"name": "_accessToken",
					"type": "address"
				},
				{
					"internalType": "address",
					"name": "_memberToken",
					"type": "address"
				},
				{
					"internalType": "address",
					"name": "_investorToken",
					"type": "address"
				}
			],
			"stateMutability": "nonpayable",
			"type": "constructor"
		},
		{
			"anonymous": false,
			"inputs": [
				{
					"indexed": true,
					"internalType": "address",
					"name": "dao",
					"type": "address"
				},
				{
					"indexed": true,
					"internalType": "address",
					"name": "creator",
					"type": "address"
				}
			],
			"name": "CreateDao",
			"type": "event"
		},
		{
			"anonymous": false,
			"inputs": [
				{
					"indexed": true,
					"internalType": "address",
					"name": "previousOwner",
					"type": "address"
				},
				{
					"indexed": true,
					"internalType": "address",
					"name": "newOwner",
					"type": "address"
				}
			],
			"name": "OwnershipTransferred",
			"type": "event"
		},
		{
			"anonymous": false,
			"inputs": [
				{
					"indexed": true,
					"internalType": "address",
					"name": "masterBaseDao",
					"type": "address"
				}
			],
			"name": "SetMasterBaseDao",
			"type": "event"
		},
		{
			"anonymous": false,
			"inputs": [
				{
					"indexed": true,
					"internalType": "address",
					"name": "masterDaoLogic",
					"type": "address"
				}
			],
			"name": "SetMasterDaoLogic",
			"type": "event"
		},
		{
			"inputs": [],
			"name": "baseDaoAddress",
			"outputs": [
				{
					"internalType": "address",
					"name": "",
					"type": "address"
				}
			],
			"stateMutability": "view",
			"type": "function"
		},
		{
			"inputs": [
				{
					"internalType": "string",
					"name": "_name",
					"type": "string"
				},
				{
					"internalType": "string",
					"name": "_symbol",
					"type": "string"
				},
				{
					"internalType": "uint256",
					"name": "_minFundingDuration",
					"type": "uint256"
				},
				{
					"internalType": "uint256",
					"name": "_maxFundingDuration",
					"type": "uint256"
				},
				{
					"internalType": "uint256",
					"name": "_researchResultVotingDuration",
					"type": "uint256"
				},
				{
					"internalType": "uint256",
					"name": "_quoromNumeratorValue",
					"type": "uint256"
				}
			],
			"name": "createDao",
			"outputs": [],
			"stateMutability": "nonpayable",
			"type": "function"
		},
		{
			"inputs": [
				{
					"internalType": "address",
					"name": "",
					"type": "address"
				}
			],
			"name": "daoInfos",
			"outputs": [
				{
					"internalType": "address",
					"name": "dao",
					"type": "address"
				},
				{
					"internalType": "uint256",
					"name": "createdAt",
					"type": "uint256"
				},
				{
					"internalType": "address",
					"name": "creator",
					"type": "address"
				},
				{
					"internalType": "address",
					"name": "accessToken",
					"type": "address"
				},
				{
					"internalType": "address",
					"name": "investorToken",
					"type": "address"
				},
				{
					"internalType": "address",
					"name": "memberToken",
					"type": "address"
				}
			],
			"stateMutability": "view",
			"type": "function"
		},
		{
			"inputs": [
				{
					"internalType": "uint256",
					"name": "",
					"type": "uint256"
				}
			],
			"name": "daos",
			"outputs": [
				{
					"internalType": "address",
					"name": "",
					"type": "address"
				}
			],
			"stateMutability": "view",
			"type": "function"
		},
		{
			"inputs": [
				{
					"internalType": "address",
					"name": "_dao",
					"type": "address"
				}
			],
			"name": "getDaoInfo",
			"outputs": [
				{
					"components": [
						{
							"internalType": "address",
							"name": "dao",
							"type": "address"
						},
						{
							"internalType": "uint256",
							"name": "createdAt",
							"type": "uint256"
						},
						{
							"internalType": "address",
							"name": "creator",
							"type": "address"
						},
						{
							"internalType": "address",
							"name": "accessToken",
							"type": "address"
						},
						{
							"internalType": "address",
							"name": "investorToken",
							"type": "address"
						},
						{
							"internalType": "address",
							"name": "memberToken",
							"type": "address"
						}
					],
					"internalType": "struct DaoInfo",
					"name": "",
					"type": "tuple"
				}
			],
			"stateMutability": "view",
			"type": "function"
		},
		{
			"inputs": [],
			"name": "getTotalAmountInvested",
			"outputs": [
				{
					"internalType": "uint256",
					"name": "",
					"type": "uint256"
				}
			],
			"stateMutability": "view",
			"type": "function"
		},
		{
			"inputs": [
				{
					"internalType": "address",
					"name": "_investor",
					"type": "address"
				}
			],
			"name": "getTotalAmountInvestedByInvestor",
			"outputs": [
				{
					"internalType": "uint256",
					"name": "",
					"type": "uint256"
				}
			],
			"stateMutability": "view",
			"type": "function"
		},
		{
			"inputs": [],
			"name": "getTotalNumberOfDaos",
			"outputs": [
				{
					"internalType": "uint256",
					"name": "",
					"type": "uint256"
				}
			],
			"stateMutability": "view",
			"type": "function"
		},
		{
			"inputs": [
				{
					"internalType": "address",
					"name": "user",
					"type": "address"
				},
				{
					"internalType": "uint256",
					"name": "amount",
					"type": "uint256"
				}
			],
			"name": "increaseInvestment",
			"outputs": [],
			"stateMutability": "nonpayable",
			"type": "function"
		},
		{
			"inputs": [
				{
					"internalType": "address",
					"name": "",
					"type": "address"
				}
			],
			"name": "investmentsByUser",
			"outputs": [
				{
					"internalType": "uint256",
					"name": "",
					"type": "uint256"
				}
			],
			"stateMutability": "view",
			"type": "function"
		},
		{
			"inputs": [
				{
					"internalType": "address",
					"name": "_dao",
					"type": "address"
				}
			],
			"name": "isValidDao",
			"outputs": [
				{
					"internalType": "bool",
					"name": "",
					"type": "bool"
				}
			],
			"stateMutability": "view",
			"type": "function"
		},
		{
			"inputs": [],
			"name": "masterAccessToken",
			"outputs": [
				{
					"internalType": "address",
					"name": "",
					"type": "address"
				}
			],
			"stateMutability": "view",
			"type": "function"
		},
		{
			"inputs": [],
			"name": "masterBaseDao",
			"outputs": [
				{
					"internalType": "address",
					"name": "",
					"type": "address"
				}
			],
			"stateMutability": "view",
			"type": "function"
		},
		{
			"inputs": [],
			"name": "masterDaoLogic",
			"outputs": [
				{
					"internalType": "address",
					"name": "",
					"type": "address"
				}
			],
			"stateMutability": "view",
			"type": "function"
		},
		{
			"inputs": [],
			"name": "masterInvestorToken",
			"outputs": [
				{
					"internalType": "address",
					"name": "",
					"type": "address"
				}
			],
			"stateMutability": "view",
			"type": "function"
		},
		{
			"inputs": [],
			"name": "masterMemberToken",
			"outputs": [
				{
					"internalType": "address",
					"name": "",
					"type": "address"
				}
			],
			"stateMutability": "view",
			"type": "function"
		},
		{
			"inputs": [],
			"name": "owner",
			"outputs": [
				{
					"internalType": "address",
					"name": "",
					"type": "address"
				}
			],
			"stateMutability": "view",
			"type": "function"
		},
		{
			"inputs": [],
			"name": "renounceOwnership",
			"outputs": [],
			"stateMutability": "nonpayable",
			"type": "function"
		},
		{
			"inputs": [
				{
					"internalType": "address",
					"name": "_masterBaseDao",
					"type": "address"
				}
			],
			"name": "setMasterBaseDao",
			"outputs": [],
			"stateMutability": "nonpayable",
			"type": "function"
		},
		{
			"inputs": [
				{
					"internalType": "address",
					"name": "_masterDaoLogic",
					"type": "address"
				}
			],
			"name": "setMasterDaoLogic",
			"outputs": [],
			"stateMutability": "nonpayable",
			"type": "function"
		},
		{
			"inputs": [],
			"name": "totalInvested",
			"outputs": [
				{
					"internalType": "uint256",
					"name": "",
					"type": "uint256"
				}
			],
			"stateMutability": "view",
			"type": "function"
		},
		{
			"inputs": [
				{
					"internalType": "address",
					"name": "newOwner",
					"type": "address"
				}
			],
			"name": "transferOwnership",
			"outputs": [],
			"stateMutability": "nonpayable",
			"type": "function"
		}
	]
}