{
	"data": {
		"bytecode": {
			"linkReferences": {},
			"object": "60806040523480156200001157600080fd5b50604051620061e7380380620061e783398101604081905262000034916200007f565b601180546001600160a01b039384166001600160a01b03199182161790915560128054929093169116179055620000be565b6001600160a01b03811681146200007c57600080fd5b50565b600080604083850312156200009357600080fd5b8251620000a08162000066565b6020840151909250620000b38162000066565b809150509250929050565b61611980620000ce6000396000f3fe608060405234801561001057600080fd5b50600436106103995760003560e01c806378133bb2116101e9578063d117658f1161010f578063ed5db190116100ad578063f63aa2881161007c578063f63aa28814610979578063f82704f01461098c578063fb2a0b32146109ad578063fe47a8a7146109c057600080fd5b8063ed5db19014610910578063f10a779814610923578063f44a890314610936578063f4b2e4d81461096657600080fd5b8063d77907df116100e9578063d77907df146108c5578063e059bb72146104d8578063e4be98f2146108d8578063e7e1a573146108fd57600080fd5b8063d117658f1461087c578063d15bcbe31461089f578063d547741f146108b257600080fd5b8063a165809c11610187578063baebdd0a11610156578063baebdd0a14610814578063be4f199f14610834578063c6620db314610849578063cc6f85d71461085c57600080fd5b8063a165809c14610786578063a217fddf146107a6578063a6d1b7b8146107ae578063bad79de9146107e957600080fd5b806391d14854116101c357806391d148541461072d57806396925ae6146107405780639aa09dfe146107535780639dd5cf221461076657600080fd5b806378133bb2146106e757806385271d9b1461070757806388a9bb2d1461071a57600080fd5b806336568abe116102ce5780635ab1275b1161026c57806368c4ac261161023b57806368c4ac261461067c5780636ab28bc81461069f5780636da9fc85146106a857806375151b63146106bb57600080fd5b80635ab1275b146106185780635fa7b584146106435780636024dffb14610656578063669722191461066957600080fd5b80634e8a3ca4116102a85780634e8a3ca4146105b4578063584e4336146105e957806358e7f0b8146105fc578063598e8f0b1461060557600080fd5b806336568abe1461056e5780634634aed514610581578063476c6cbc146105a157600080fd5b806324d7806c1161033b5780632a4f1621116103155780632a4f1621146104e05780632de1cb0e146104f35780632f2ff15d1461053b578063342c89b41461054e57600080fd5b806324d7806c146104bd57806328d92146146104d0578063297ab486146104d857600080fd5b8063093469481161037757806309346948146103ee5780630a0e0c91146104015780631adf7eb11461044d578063248a9ca31461048c57600080fd5b806301ffc9a71461039e5780630230e927146103c65780630347e8c2146103db575b600080fd5b6103b16103ac366004614929565b6109e3565b60405190151581526020015b60405180910390f35b6103d96103d436600461499b565b610a1a565b005b6103d96103e93660046149fb565b610ab7565b6103d96103fc366004614a34565b610c2d565b61043561040f366004614adc565b80516020818301810180516005825292820191909301209152546001600160401b031681565b6040516001600160401b0390911681526020016103bd565b61047761045b366004614b5b565b6001602081905260009182526040909120805491015460ff1682565b604080519283529015156020830152016103bd565b6104af61049a366004614b5b565b60009081526020819052604090206001015490565b6040519081526020016103bd565b6103b16104cb366004614b74565b610c73565b6007546104af565b6002546104af565b6103d96104ee366004614b74565b610c7f565b610520610501366004614b5b565b6000908152600e60205260409020805460018201546002909201549092565b604080519384526020840192909252908201526060016103bd565b6103d9610549366004614b91565b610cf8565b61056161055c366004614b5b565b610d1d565b6040516103bd9190614c5d565b6103d961057c366004614b91565b6110e6565b61059461058f366004614b5b565b611164565b6040516103bd9190614d79565b6103d96105af366004614d8c565b6111f4565b6104776105c2366004614adc565b80516020818301810180516003825292820191909301209152805460019091015460ff1682565b6103d96105f7366004614b5b565b61124f565b6104af60135481565b6103d9610613366004614db8565b611293565b61062b610626366004614b5b565b611402565b6040516103bd9c9b9a99989796959493929190614e1d565b6103d9610651366004614b74565b611589565b6103d9610664366004614b5b565b6115ff565b6103d9610677366004614ea8565b611a52565b6103b161068a366004614b74565b600d6020526000908152604090205460ff1681565b6104af60145481565b6103d96106b6366004614b5b565b611beb565b6103b16106c9366004614b74565b6001600160a01b03166000908152600d602052604090205460ff1690565b6106fa6106f5366004614eca565b611fc8565b6040516103bd9190614f0b565b6103d9610715366004614eca565b6120b2565b6103d9610728366004614f3f565b6124da565b6103b161073b366004614b91565b612800565b61056161074e366004614b5b565b612829565b6103d9610761366004614f8f565b612b74565b610779610774366004614b5b565b612bfb565b6040516103bd9190615015565b610799610794366004614b5b565b612e7f565b6040516103bd9190615028565b6104af600081565b6107dc6107bc366004614adc565b805160208183018101805160068252928201919093012091525460ff1681565b6040516103bd9190615123565b6107fc6107f7366004614b5b565b61314d565b6040516103bd9c9b9a9998979695949392919061513d565b6104af610822366004614b74565b600b6020526000908152604090205481565b61083c61345d565b6040516103bd91906151f9565b6104af610857366004614b5b565b613536565b61086f61086a366004614b5b565b613557565b6040516103bd919061525b565b6104af61088a366004614b5b565b6000908152600e602052604090206003015490565b6103d96108ad3660046152e6565b61379d565b6103d96108c0366004614b91565b613822565b6103d96108d3366004615342565b613847565b6108eb6108e6366004614b5b565b613c3d565b6040516103bd96959493929190615367565b6103d961090b3660046153cb565b613e14565b6103d961091e366004614ea8565b613e6d565b6103d961093136600461540d565b61427a565b610949610944366004614eca565b614304565b6040805182518152602092830151151592810192909252016103bd565b610594610974366004614b5b565b61435d565b6103d9610987366004614b5b565b61439b565b61099f61099a366004614adc565b6143f1565b6040516103bd92919061543b565b6103d96109bb36600461545f565b6144a3565b6015546016546109ce919082565b604080519283526020830191909152016103bd565b60006001600160e01b03198216637965db0b60e01b1480610a1457506301ffc9a760e01b6001600160e01b03198316145b92915050565b600f546001600160a01b0316331480610a3d57506010546001600160a01b031633145b610a625760405162461bcd60e51b8152600401610a59906154c3565b60405180910390fd5b604080518082018252828152600160208201529051600390610a8790869086906154e9565b90815260405160209181900382019020825181559101516001909101805460ff1916911515919091179055505050565b600f546001600160a01b0316331480610ada57506010546001600160a01b031633145b610af65760405162461bcd60e51b8152600401610a59906154c3565b604080518082018252838152600160208083018281526000888152838352858120945185559051938301805460ff191694151594909417909355600980548084019091557f6e1540171b6c0c960b71a7020d9f60077f6af931a8bbf590da0223dacf75c7af01879055835160c0810185528781526001600160a01b038681168284019081528651808501885286815283880190815287518086018952878152606085015287518086018952878152608085015260a084018790528a8752600a9094529590942081518155945192850180546001600160a01b031916939094169290921790925590519091906002820190610bf09082615596565b5060608201516003820190610c059082615596565b5060808201516004820190610c1a9082615596565b5060a08201518160050155905050505050565b600280546001810182556000919091528190600b027f405787fa12a823e0f2b7631cc41b3ba8828b3321ca811111fa75cd3aa3bb5ace01610c6e8282615902565b505050565b6000610a148183612800565b6011546001600160a01b03163314610cd45760405162461bcd60e51b815260206004820152601860248201527713db9b1e4819dbdd995c9b985b98d94818d85b8818d85b1b60421b6044820152606401610a59565b6001600160a01b03166000908152600d60205260409020805460ff19166001179055565b600082815260208190526040902060010154610d138161450e565b610c6e838361451b565b610d2561480a565b6000828152600160208181526040928390208351808501909452805484529091015460ff161515908201819052610d9e5760405162461bcd60e51b815260206004820152601860248201527f70726f706f73616c4964206e6f7420617661696c61626c6500000000000000006044820152606401610a59565b6002816000015181548110610db557610db5615a38565b90600052602060002090600b020160405180610180016040529081600082018054610ddf906154f9565b80601f0160208091040260200160405190810160405280929190818152602001828054610e0b906154f9565b8015610e585780601f10610e2d57610100808354040283529160200191610e58565b820191906000526020600020905b815481529060010190602001808311610e3b57829003601f168201915b505050918352505060018201546001600160401b0381166020830152600160401b900460ff1615156040820152600282018054606090920191610e9a906154f9565b80601f0160208091040260200160405190810160405280929190818152602001828054610ec6906154f9565b8015610f135780601f10610ee857610100808354040283529160200191610f13565b820191906000526020600020905b815481529060010190602001808311610ef657829003601f168201915b50505091835250506003820154600781810b6020840152600160401b909104810b60408301526004830154606083015260058301546080830152600683015460a08301528201805460c090920191610f6a906154f9565b80601f0160208091040260200160405190810160405280929190818152602001828054610f96906154f9565b8015610fe35780601f10610fb857610100808354040283529160200191610fe3565b820191906000526020600020905b815481529060010190602001808311610fc657829003601f168201915b505050918352505060088201546001600160401b03166020820152604080516080810182526009840180549290930192909182908290611022906154f9565b80601f016020809104026020016040519081016040528092919081815260200182805461104e906154f9565b801561109b5780601f106110705761010080835404028352916020019161109b565b820191906000526020600020905b81548152906001019060200180831161107e57829003601f168201915b5050509183525050600191909101546001600160401b038116602083015260ff600160401b8204811615156040840152600160481b9091041615156060909101529052509392505050565b6001600160a01b03811633146111565760405162461bcd60e51b815260206004820152602f60248201527f416363657373436f6e74726f6c3a2063616e206f6e6c792072656e6f756e636560448201526e103937b632b9903337b91039b2b63360891b6064820152608401610a59565b611160828261459f565b5050565b6060600061117183610d1d565b60125461016082015160405163d96a5d1160e01b81529293506001600160a01b039091169163d96a5d11916111a891600401615a4e565b600060405180830381865afa1580156111c5573d6000803e3d6000fd5b505050506040513d6000823e601f3d908101601f191682016040526111ed9190810190615a61565b9392505050565b600f546001600160a01b031633148061121757506010546001600160a01b031633145b6112335760405162461bcd60e51b8152600401610a59906154c3565b6001600160a01b039091166000908152600b6020526040902055565b600f546001600160a01b031633148061127257506010546001600160a01b031633145b61128e5760405162461bcd60e51b8152600401610a59906154c3565b601455565b600f546001600160a01b03163314806112b657506010546001600160a01b031633145b6112d25760405162461bcd60e51b8152600401610a59906154c3565b6000838152600e602090815260408083206001600160a01b0386168452600481019092529091205460ff161561133e5760405162461bcd60e51b8152602060048201526011602482015270159bdd1948185b1c9958591e4818d85cdd607a1b6044820152606401610a59565b6001600160a01b03831660009081526004820160205260408120805460ff1916600117905582600281111561137557611375614df3565b0361139a57600181600101600082825461138f9190615aed565b909155506113fc9050565b60018260028111156113ae576113ae614df3565b036113c857600181600001600082825461138f9190615aed565b60028260028111156113dc576113dc614df3565b036113fc5760018160020160008282546113f69190615aed565b90915550505b50505050565b600c6020526000908152604090208054600182015460028301805492936001600160a01b03831693600160a01b90930460ff1692909190611442906154f9565b80601f016020809104026020016040519081016040528092919081815260200182805461146e906154f9565b80156114bb5780601f10611490576101008083540402835291602001916114bb565b820191906000526020600020905b81548152906001019060200180831161149e57829003601f168201915b5050505050908060030180546114d0906154f9565b80601f01602080910402602001604051908101604052809291908181526020018280546114fc906154f9565b80156115495780601f1061151e57610100808354040283529160200191611549565b820191906000526020600020905b81548152906001019060200180831161152c57829003601f168201915b50505050600483015460058401546006850154600786015460088701546009880154600a9098015496976001600160a01b0390951696939550919390928c565b6011546001600160a01b031633146115de5760405162461bcd60e51b815260206004820152601860248201527713db9b1e4819dbdd995c9b985b98d94818d85b8818d85b1b60421b6044820152606401610a59565b6001600160a01b03166000908152600d60205260409020805460ff19169055565b600f546001600160a01b031633148061162257506010546001600160a01b031633145b61163e5760405162461bcd60e51b8152600401610a59906154c3565b6000818152600e60209081526040808320600c835281842082516101a0810184528154815260018201546001600160a01b0381169582019590955260059592949293909290830190600160a01b900460ff16868111156116a0576116a0614df3565b60058111156116b1576116b1614df3565b81526020016002820180546116c5906154f9565b80601f01602080910402602001604051908101604052809291908181526020018280546116f1906154f9565b801561173e5780601f106117135761010080835404028352916020019161173e565b820191906000526020600020905b81548152906001019060200180831161172157829003601f168201915b50505050508152602001600382018054611757906154f9565b80601f0160208091040260200160405190810160405280929190818152602001828054611783906154f9565b80156117d05780601f106117a5576101008083540402835291602001916117d0565b820191906000526020600020905b8154815290600101906020018083116117b357829003601f168201915b505050505081526020016004820160009054906101000a90046001600160a01b03166001600160a01b03166001600160a01b031681526020016005820154815260200160068201548152602001600782015481526020016008820154815260200160098201548152602001600a8201548152602001600b820180548060200260200160405190810160405280929190818152602001828054801561189357602002820191906000526020600020905b81548152602001906001019080831161187f575b505050505081525050905081600001548260010154101580156118be57508160020154826001015410155b156118e15760138054600494509060006118d783615b00565b9190505550611908565b81600101548260020154101580156118fe57508154600283015410155b1561190857600192505b6040810183600581111561191e5761191e614df3565b9081600581111561193157611931614df3565b9052506000848152600c602090815260409182902083518155908301516001820180546001600160a01b039092166001600160a01b031983168117825593850151859490926001600160a81b03191617600160a01b83600581111561199857611998614df3565b0217905550606082015160028201906119b19082615596565b50608082015160038201906119c69082615596565b5060a08201516004820180546001600160a01b0319166001600160a01b0390921691909117905560c0820151600582015560e08201516006820155610100820151600782015561012082015160088201556101408201516009820155610160820151600a8201556101808201518051611a4991600b840191602090910190614889565b50505050505050565b600f546001600160a01b0316331480611a7557506010546001600160a01b031633145b611a915760405162461bcd60e51b8152600401610a59906154c3565b6000828152600c602052604081208054909103611ac05760405162461bcd60e51b8152600401610a5990615b19565b600b810180546001818101835560009283526020808420909201859055858352600c909152604090912082548155818301805492820180546001600160a01b031981166001600160a01b0390951694851782559154859460ff600160a01b9283900416936001600160a81b0319161790836005811115611b4257611b42614df3565b0217905550600281810190611b5990840182615b49565b50600381810190611b6c90840182615b49565b5060048281015490820180546001600160a01b0319166001600160a01b039092169190911790556005808301549082015560068083015490820155600780830154908201556008808301549082015560098083015490820155600a8083015490820155600b8083018054611be392840191906148d4565b505050505050565b600f546001600160a01b0316331480611c0e57506010546001600160a01b031633145b611c2a5760405162461bcd60e51b8152600401610a59906154c3565b6000818152600c6020908152604080832081516101a0810183528154815260018201546001600160a01b03811694820194909452929091830190600160a01b900460ff166005811115611c7f57611c7f614df3565b6005811115611c9057611c90614df3565b8152602001600282018054611ca4906154f9565b80601f0160208091040260200160405190810160405280929190818152602001828054611cd0906154f9565b8015611d1d5780601f10611cf257610100808354040283529160200191611d1d565b820191906000526020600020905b815481529060010190602001808311611d0057829003601f168201915b50505050508152602001600382018054611d36906154f9565b80601f0160208091040260200160405190810160405280929190818152602001828054611d62906154f9565b8015611daf5780601f10611d8457610100808354040283529160200191611daf565b820191906000526020600020905b815481529060010190602001808311611d9257829003601f168201915b505050505081526020016004820160009054906101000a90046001600160a01b03166001600160a01b03166001600160a01b031681526020016005820154815260200160068201548152602001600782015481526020016008820154815260200160098201548152602001600a8201548152602001600b8201805480602002602001604051908101604052809291908181526020018280548015611e7257602002820191906000526020600020905b815481526020019060010190808311611e5e575b505050919092525050815191925050600003611ea05760405162461bcd60e51b8152600401610a5990615b19565b60016040828101828152426101408501526000858152600c6020908152929020845181559184015192820180546001600160a01b031981166001600160a01b0390951694851782559151859490926001600160a81b03191617600160a01b836005811115611f1057611f10614df3565b021790555060608201516002820190611f299082615596565b5060808201516003820190611f3e9082615596565b5060a08201516004820180546001600160a01b0319166001600160a01b0390921691909117905560c0820151600582015560e08201516006820155610100820151600782015561012082015160088201556101408201516009820155610160820151600a8201556101808201518051611fc191600b840191602090910190614889565b5050505050565b60408051808201909152606081526000602082015260048383604051611fef9291906154e9565b9081526020016040518091039020604051806040016040529081600082018054612018906154f9565b80601f0160208091040260200160405190810160405280929190818152602001828054612044906154f9565b80156120915780601f1061206657610100808354040283529160200191612091565b820191906000526020600020905b81548152906001019060200180831161207457829003601f168201915b50505091835250506001919091015460ff1615156020909101529392505050565b600f546001600160a01b03163314806120d557506010546001600160a01b031633145b6120f15760405162461bcd60e51b8152600401610a59906154c3565b6000600383836040516121059291906154e9565b90815260408051602092819003830181208183018352805480835260019182015460ff908116151586850152600091825282865284822085518087019096528054808752930154161515948401949094526002805492955092939291811061216f5761216f615a38565b90600052602060002090600b020160405180610180016040529081600082018054612199906154f9565b80601f01602080910402602001604051908101604052809291908181526020018280546121c5906154f9565b80156122125780601f106121e757610100808354040283529160200191612212565b820191906000526020600020905b8154815290600101906020018083116121f557829003601f168201915b505050918352505060018201546001600160401b0381166020830152600160401b900460ff1615156040820152600282018054606090920191612254906154f9565b80601f0160208091040260200160405190810160405280929190818152602001828054612280906154f9565b80156122cd5780601f106122a2576101008083540402835291602001916122cd565b820191906000526020600020905b8154815290600101906020018083116122b057829003601f168201915b50505091835250506003820154600781810b6020840152600160401b909104810b60408301526004830154606083015260058301546080830152600683015460a08301528201805460c090920191612324906154f9565b80601f0160208091040260200160405190810160405280929190818152602001828054612350906154f9565b801561239d5780601f106123725761010080835404028352916020019161239d565b820191906000526020600020905b81548152906001019060200180831161238057829003601f168201915b505050918352505060088201546001600160401b031660208201526040805160808101825260098401805492909301929091829082906123dc906154f9565b80601f0160208091040260200160405190810160405280929190818152602001828054612408906154f9565b80156124555780601f1061242a57610100808354040283529160200191612455565b820191906000526020600020905b81548152906001019060200180831161243857829003601f168201915b50505091835250506001918201546001600160401b038116602083015260ff600160401b8204811615156040840152600160481b90910416151560609091015291526101208301516007805492830181556000529293507fa66cc928b5edb82af9bd49922954155ab7b0942694bea4ce44661d9a8736c6880191611be3915082615596565b600f546001600160a01b03163314806124fd57506010546001600160a01b031633145b6125195760405162461bcd60e51b8152600401610a59906154c3565b80356000908152600c6020908152604080832081516101a0810183528154815260018201546001600160a01b03811694820194909452929091830190600160a01b900460ff16600581111561257057612570614df3565b600581111561258157612581614df3565b8152602001600282018054612595906154f9565b80601f01602080910402602001604051908101604052809291908181526020018280546125c1906154f9565b801561260e5780601f106125e35761010080835404028352916020019161260e565b820191906000526020600020905b8154815290600101906020018083116125f157829003601f168201915b50505050508152602001600382018054612627906154f9565b80601f0160208091040260200160405190810160405280929190818152602001828054612653906154f9565b80156126a05780601f10612675576101008083540402835291602001916126a0565b820191906000526020600020905b81548152906001019060200180831161268357829003601f168201915b505050505081526020016004820160009054906101000a90046001600160a01b03166001600160a01b03166001600160a01b031681526020016005820154815260200160068201548152602001600782015481526020016008820154815260200160098201548152602001600a8201548152602001600b820180548060200260200160405190810160405280929190818152602001828054801561276357602002820191906000526020600020905b81548152602001906001019080831161274f575b505050919092525050815191925050156127bf5760405162461bcd60e51b815260206004820152601760248201527f50726f706f73616c20616c7265616479206578697374730000000000000000006044820152606401610a59565b81356000908152600c6020526040902082906127db8282615d56565b9050508160c00135601560000160008282546127f79190615aed565b90915550505050565b6000918252602082815260408084206001600160a01b0393909316845291905290205460ff1690565b61283161480a565b6002828154811061284457612844615a38565b90600052602060002090600b02016040518061018001604052908160008201805461286e906154f9565b80601f016020809104026020016040519081016040528092919081815260200182805461289a906154f9565b80156128e75780601f106128bc576101008083540402835291602001916128e7565b820191906000526020600020905b8154815290600101906020018083116128ca57829003601f168201915b505050918352505060018201546001600160401b0381166020830152600160401b900460ff1615156040820152600282018054606090920191612929906154f9565b80601f0160208091040260200160405190810160405280929190818152602001828054612955906154f9565b80156129a25780601f10612977576101008083540402835291602001916129a2565b820191906000526020600020905b81548152906001019060200180831161298557829003601f168201915b50505091835250506003820154600781810b6020840152600160401b909104810b60408301526004830154606083015260058301546080830152600683015460a08301528201805460c0909201916129f9906154f9565b80601f0160208091040260200160405190810160405280929190818152602001828054612a25906154f9565b8015612a725780601f10612a4757610100808354040283529160200191612a72565b820191906000526020600020905b815481529060010190602001808311612a5557829003601f168201915b505050918352505060088201546001600160401b03166020820152604080516080810182526009840180549290930192909182908290612ab1906154f9565b80601f0160208091040260200160405190810160405280929190818152602001828054612add906154f9565b8015612b2a5780601f10612aff57610100808354040283529160200191612b2a565b820191906000526020600020905b815481529060010190602001808311612b0d57829003601f168201915b5050509183525050600191909101546001600160401b038116602083015260ff600160401b8204811615156040840152600160481b90910416151560609091015290525092915050565b600f546001600160a01b0316331480612b9757506010546001600160a01b031633145b612bb35760405162461bcd60e51b8152600401610a59906154c3565b8060058484604051612bc69291906154e9565b90815260405190819003602001902080546001600160401b039290921667ffffffffffffffff19909216919091179055505050565b6000818152600c6020908152604080832081516101a0810183528154815260018201546001600160a01b03811694820194909452606094939092830190600160a01b900460ff166005811115612c5357612c53614df3565b6005811115612c6457612c64614df3565b8152602001600282018054612c78906154f9565b80601f0160208091040260200160405190810160405280929190818152602001828054612ca4906154f9565b8015612cf15780601f10612cc657610100808354040283529160200191612cf1565b820191906000526020600020905b815481529060010190602001808311612cd457829003601f168201915b50505050508152602001600382018054612d0a906154f9565b80601f0160208091040260200160405190810160405280929190818152602001828054612d36906154f9565b8015612d835780601f10612d5857610100808354040283529160200191612d83565b820191906000526020600020905b815481529060010190602001808311612d6657829003601f168201915b505050505081526020016004820160009054906101000a90046001600160a01b03166001600160a01b03166001600160a01b031681526020016005820154815260200160068201548152602001600782015481526020016008820154815260200160098201548152602001600a8201548152602001600b8201805480602002602001604051908101604052809291908181526020018280548015612e4657602002820191906000526020600020905b815481526020019060010190808311612e32575b505050919092525050815191925050600003612e745760405162461bcd60e51b8152600401610a5990615b19565b610180015192915050565b612ef3604080516101a08101825260008082526020820181905290918201908152602001606081526020016060815260200160006001600160a01b03168152602001600081526020016000815260200160008152602001600081526020016000815260200160008152602001606081525090565b6000828152600c602090815260409182902082516101a0810184528154815260018201546001600160a01b0381169382019390935292909190830190600160a01b900460ff166005811115612f4a57612f4a614df3565b6005811115612f5b57612f5b614df3565b8152602001600282018054612f6f906154f9565b80601f0160208091040260200160405190810160405280929190818152602001828054612f9b906154f9565b8015612fe85780601f10612fbd57610100808354040283529160200191612fe8565b820191906000526020600020905b815481529060010190602001808311612fcb57829003601f168201915b50505050508152602001600382018054613001906154f9565b80601f016020809104026020016040519081016040528092919081815260200182805461302d906154f9565b801561307a5780601f1061304f5761010080835404028352916020019161307a565b820191906000526020600020905b81548152906001019060200180831161305d57829003601f168201915b505050505081526020016004820160009054906101000a90046001600160a01b03166001600160a01b03166001600160a01b031681526020016005820154815260200160068201548152602001600782015481526020016008820154815260200160098201548152602001600a8201548152602001600b820180548060200260200160405190810160405280929190818152602001828054801561313d57602002820191906000526020600020905b815481526020019060010190808311613129575b5050505050815250509050919050565b6002818154811061315d57600080fd5b90600052602060002090600b0201600091509050806000018054613180906154f9565b80601f01602080910402602001604051908101604052809291908181526020018280546131ac906154f9565b80156131f95780601f106131ce576101008083540402835291602001916131f9565b820191906000526020600020905b8154815290600101906020018083116131dc57829003601f168201915b50505050600183015460028401805493946001600160401b03831694600160401b90930460ff1693509161322c906154f9565b80601f0160208091040260200160405190810160405280929190818152602001828054613258906154f9565b80156132a55780601f1061327a576101008083540402835291602001916132a5565b820191906000526020600020905b81548152906001019060200180831161328857829003601f168201915b505050600384015460048501546005860154600687015460078089018054989986830b99600160401b90970490920b975093955091939092906132e7906154f9565b80601f0160208091040260200160405190810160405280929190818152602001828054613313906154f9565b80156133605780601f1061333557610100808354040283529160200191613360565b820191906000526020600020905b81548152906001019060200180831161334357829003601f168201915b5050505050908060080160009054906101000a90046001600160401b0316908060090160405180608001604052908160008201805461339e906154f9565b80601f01602080910402602001604051908101604052809291908181526020018280546133ca906154f9565b80156134175780601f106133ec57610100808354040283529160200191613417565b820191906000526020600020905b8154815290600101906020018083116133fa57829003601f168201915b5050509183525050600191909101546001600160401b038116602083015260ff600160401b8204811615156040840152600160481b90910416151560609091015290508c565b60606007805480602002602001604051908101604052809291908181526020016000905b8282101561352d5783829060005260206000200180546134a0906154f9565b80601f01602080910402602001604051908101604052809291908181526020018280546134cc906154f9565b80156135195780601f106134ee57610100808354040283529160200191613519565b820191906000526020600020905b8154815290600101906020018083116134fc57829003601f168201915b505050505081526020019060010190613481565b50505050905090565b6009818154811061354657600080fd5b600091825260209091200154905081565b61359c6040518060c001604052806000801916815260200160006001600160a01b03168152602001606081526020016060815260200160608152602001600081525090565b6000828152600a6020908152604091829020825160c0810184528154815260018201546001600160a01b03169281019290925260028101805492939192918401916135e6906154f9565b80601f0160208091040260200160405190810160405280929190818152602001828054613612906154f9565b801561365f5780601f106136345761010080835404028352916020019161365f565b820191906000526020600020905b81548152906001019060200180831161364257829003601f168201915b50505050508152602001600382018054613678906154f9565b80601f01602080910402602001604051908101604052809291908181526020018280546136a4906154f9565b80156136f15780601f106136c6576101008083540402835291602001916136f1565b820191906000526020600020905b8154815290600101906020018083116136d457829003601f168201915b5050505050815260200160048201805461370a906154f9565b80601f0160208091040260200160405190810160405280929190818152602001828054613736906154f9565b80156137835780601f1061375857610100808354040283529160200191613783565b820191906000526020600020905b81548152906001019060200180831161376657829003601f168201915b505050505081526020016005820154815250509050919050565b600f546001600160a01b03163314806137c057506010546001600160a01b031633145b6137dc5760405162461bcd60e51b8152600401610a59906154c3565b80600684846040516137ef9291906154e9565b908152604051908190036020019020805460ff1916600183600481111561381857613818614df3565b0217905550505050565b60008281526020819052604090206001015461383d8161450e565b610c6e838361459f565b600f546001600160a01b031633148061386a57506010546001600160a01b031633145b6138865760405162461bcd60e51b8152600401610a59906154c3565b6000828152600c6020908152604080832081516101a0810183528154815260018201546001600160a01b03811694820194909452929091830190600160a01b900460ff1660058111156138db576138db614df3565b60058111156138ec576138ec614df3565b8152602001600282018054613900906154f9565b80601f016020809104026020016040519081016040528092919081815260200182805461392c906154f9565b80156139795780601f1061394e57610100808354040283529160200191613979565b820191906000526020600020905b81548152906001019060200180831161395c57829003601f168201915b50505050508152602001600382018054613992906154f9565b80601f01602080910402602001604051908101604052809291908181526020018280546139be906154f9565b8015613a0b5780601f106139e057610100808354040283529160200191613a0b565b820191906000526020600020905b8154815290600101906020018083116139ee57829003601f168201915b505050505081526020016004820160009054906101000a90046001600160a01b03166001600160a01b03166001600160a01b031681526020016005820154815260200160068201548152602001600782015481526020016008820154815260200160098201548152602001600a8201548152602001600b8201805480602002602001604051908101604052809291908181526020018280548015613ace57602002820191906000526020600020905b815481526020019060010190808311613aba575b505050919092525050815191925050600003613afc5760405162461bcd60e51b8152600401610a5990615b19565b60408101826005811115613b1257613b12614df3565b90816005811115613b2557613b25614df3565b9052506000838152600c602090815260409182902083518155908301516001820180546001600160a01b039092166001600160a01b031983168117825593850151859490926001600160a81b03191617600160a01b836005811115613b8c57613b8c614df3565b021790555060608201516002820190613ba59082615596565b5060808201516003820190613bba9082615596565b5060a08201516004820180546001600160a01b0319166001600160a01b0390921691909117905560c0820151600582015560e08201516006820155610100820151600782015561012082015160088201556101408201516009820155610160820151600a8201556101808201518051611be391600b840191602090910190614889565b600a6020526000908152604090208054600182015460028301805492936001600160a01b0390921692613c6f906154f9565b80601f0160208091040260200160405190810160405280929190818152602001828054613c9b906154f9565b8015613ce85780601f10613cbd57610100808354040283529160200191613ce8565b820191906000526020600020905b815481529060010190602001808311613ccb57829003601f168201915b505050505090806003018054613cfd906154f9565b80601f0160208091040260200160405190810160405280929190818152602001828054613d29906154f9565b8015613d765780601f10613d4b57610100808354040283529160200191613d76565b820191906000526020600020905b815481529060010190602001808311613d5957829003601f168201915b505050505090806004018054613d8b906154f9565b80601f0160208091040260200160405190810160405280929190818152602001828054613db7906154f9565b8015613e045780601f10613dd957610100808354040283529160200191613e04565b820191906000526020600020905b815481529060010190602001808311613de757829003601f168201915b5050505050908060050154905086565b600f546001600160a01b0316331480613e3757506010546001600160a01b031633145b613e535760405162461bcd60e51b8152600401610a59906154c3565b6000828152600a6020526040902081906113fc8282615e37565b600f546001600160a01b0316331480613e9057506010546001600160a01b031633145b613eac5760405162461bcd60e51b8152600401610a59906154c3565b6000828152600c6020908152604080832081516101a0810183528154815260018201546001600160a01b03811694820194909452929091830190600160a01b900460ff166005811115613f0157613f01614df3565b6005811115613f1257613f12614df3565b8152602001600282018054613f26906154f9565b80601f0160208091040260200160405190810160405280929190818152602001828054613f52906154f9565b8015613f9f5780601f10613f7457610100808354040283529160200191613f9f565b820191906000526020600020905b815481529060010190602001808311613f8257829003601f168201915b50505050508152602001600382018054613fb8906154f9565b80601f0160208091040260200160405190810160405280929190818152602001828054613fe4906154f9565b80156140315780601f1061400657610100808354040283529160200191614031565b820191906000526020600020905b81548152906001019060200180831161401457829003601f168201915b505050505081526020016004820160009054906101000a90046001600160a01b03166001600160a01b03166001600160a01b031681526020016005820154815260200160068201548152602001600782015481526020016008820154815260200160098201548152602001600a8201548152602001600b82018054806020026020016040519081016040528092919081815260200182805480156140f457602002820191906000526020600020905b8154815260200190600101908083116140e0575b5050509190925250508151919250506000036141225760405162461bcd60e51b8152600401610a5990615b19565b61016081018290526000838152600c602090815260409182902083518155908301516001820180546001600160a01b039092166001600160a01b031983168117825593850151859490926001600160a81b03191617600160a01b83600581111561418e5761418e614df3565b0217905550606082015160028201906141a79082615596565b50608082015160038201906141bc9082615596565b5060a08201516004820180546001600160a01b0319166001600160a01b0390921691909117905560c0820151600582015560e08201516006820155610100820151600782015561012082015160088201556101408201516009820155610160820151600a820155610180820151805161423f91600b840191602090910190614889565b505060158054849250600090614256908490615f61565b909155505060168054839190600090614270908490615aed565b9091555050505050565b600f546001600160a01b031615801561429c57506010546001600160a01b0316155b6142d65760405162461bcd60e51b815260206004820152600b60248201526a105b1c9958591e481cd95d60aa1b6044820152606401610a59565b600f80546001600160a01b039384166001600160a01b03199182161790915560108054929093169116179055565b60408051808201909152600080825260208201526003838360405161432a9291906154e9565b9081526040805191829003602090810183208383019092528154835260019091015460ff16151590820152905092915050565b6060600061436a83610d1d565b6012546040516308485a8360e01b81529192506001600160a01b0316906308485a83906111a8908490600401614c5d565b600f546001600160a01b03163314806143be57506010546001600160a01b031633145b6143da5760405162461bcd60e51b8152600401610a59906154c3565b6000908152600e6020526040902042600390910155565b8051602081830181018051600482529282019190930120915280548190614417906154f9565b80601f0160208091040260200160405190810160405280929190818152602001828054614443906154f9565b80156144905780601f1061446557610100808354040283529160200191614490565b820191906000526020600020905b81548152906001019060200180831161447357829003601f168201915b5050506001909301549192505060ff1682565b600f546001600160a01b03163314806144c657506010546001600160a01b031633145b6144e25760405162461bcd60e51b8152600401610a59906154c3565b80600484846040516144f59291906154e9565b908152604051908190036020019020611fc18282615f74565b6145188133614604565b50565b6145258282612800565b611160576000828152602081815260408083206001600160a01b03851684529091529020805460ff1916600117905561455b3390565b6001600160a01b0316816001600160a01b0316837f2f8788117e7eff1d82e926ec794901d17c78024a50270940304540a733656f0d60405160405180910390a45050565b6145a98282612800565b15611160576000828152602081815260408083206001600160a01b0385168085529252808320805460ff1916905551339285917ff6391f5c32d9c69d2a47ea670b442974b53935d1edc7fd64eb21e047a839171b9190a45050565b61460e8282612800565b6111605761461b8161465d565b61462683602061466f565b604051602001614637929190616057565b60408051601f198184030181529082905262461bcd60e51b8252610a5991600401614d79565b6060610a146001600160a01b03831660145b6060600061467e836002615cc5565b614689906002615aed565b6001600160401b038111156146a0576146a0614a6f565b6040519080825280601f01601f1916602001820160405280156146ca576020820181803683370190505b509050600360fc1b816000815181106146e5576146e5615a38565b60200101906001600160f81b031916908160001a905350600f60fb1b8160018151811061471457614714615a38565b60200101906001600160f81b031916908160001a9053506000614738846002615cc5565b614743906001615aed565b90505b60018111156147bb576f181899199a1a9b1b9c1cb0b131b232b360811b85600f166010811061477757614777615a38565b1a60f81b82828151811061478d5761478d615a38565b60200101906001600160f81b031916908160001a90535060049490941c936147b4816160cc565b9050614746565b5083156111ed5760405162461bcd60e51b815260206004820181905260248201527f537472696e67733a20686578206c656e67746820696e73756666696369656e746044820152606401610a59565b6040805161018081018252606080825260006020808401829052838501829052828401839052608080850183905260a0850183905260c0850183905260e0850183905261010085018390526101208501849052610140850183905285519081018652838152908101829052938401819052908301529061016082015290565b8280548282559060005260206000209081019282156148c4579160200282015b828111156148c45782518255916020019190600101906148a9565b506148d0929150614914565b5090565b8280548282559060005260206000209081019282156148c45760005260206000209182015b828111156148c45782548255916001019190600101906148f9565b5b808211156148d05760008155600101614915565b60006020828403121561493b57600080fd5b81356001600160e01b0319811681146111ed57600080fd5b60008083601f84011261496557600080fd5b5081356001600160401b0381111561497c57600080fd5b60208301915083602082850101111561499457600080fd5b9250929050565b6000806000604084860312156149b057600080fd5b83356001600160401b038111156149c657600080fd5b6149d286828701614953565b909790965060209590950135949350505050565b6001600160a01b038116811461451857600080fd5b600080600060608486031215614a1057600080fd5b83359250602084013591506040840135614a29816149e6565b809150509250925092565b600060208284031215614a4657600080fd5b81356001600160401b03811115614a5c57600080fd5b820161018081850312156111ed57600080fd5b634e487b7160e01b600052604160045260246000fd5b604051601f8201601f191681016001600160401b0381118282101715614aad57614aad614a6f565b604052919050565b60006001600160401b03821115614ace57614ace614a6f565b50601f01601f191660200190565b600060208284031215614aee57600080fd5b81356001600160401b03811115614b0457600080fd5b8201601f81018413614b1557600080fd5b8035614b28614b2382614ab5565b614a85565b818152856020838501011115614b3d57600080fd5b81602084016020830137600091810160200191909152949350505050565b600060208284031215614b6d57600080fd5b5035919050565b600060208284031215614b8657600080fd5b81356111ed816149e6565b60008060408385031215614ba457600080fd5b823591506020830135614bb6816149e6565b809150509250929050565b60005b83811015614bdc578181015183820152602001614bc4565b50506000910152565b60008151808452614bfd816020860160208601614bc1565b601f01601f19169290920160200192915050565b6000815160808452614c266080850182614be5565b90506001600160401b0360208401511660208501526040830151151560408501526060830151151560608501528091505092915050565b6020815260008251610180806020850152614c7c6101a0850183614be5565b91506020850151614c9860408601826001600160401b03169052565b5060408501518015156060860152506060850151601f1980868503016080870152614cc38483614be5565b935060808701519150614cdb60a087018360070b9052565b60a08701519150614cf160c087018360070b9052565b60c087015160e087015260e08701519150610100828188015280880151925050610120828188015280880151925050610140818786030181880152614d368584614be5565b945080880151925050610160614d56818801846001600160401b03169052565b870151868503909101838701529050614d6f8382614c11565b9695505050505050565b6020815260006111ed6020830184614be5565b60008060408385031215614d9f57600080fd5b8235614daa816149e6565b946020939093013593505050565b600080600060608486031215614dcd57600080fd5b833592506020840135614ddf816149e6565b9150604084013560038110614a2957600080fd5b634e487b7160e01b600052602160045260246000fd5b60068110614e1957614e19614df3565b9052565b8c81526001600160a01b038c8116602083015260009061018090614e44604085018f614e09565b816060850152614e568285018e614be5565b91508382036080850152614e6a828d614be5565b9a1660a0840152505060c081019690965260e08601949094526101008501929092526101208401526101408301526101609091015295945050505050565b60008060408385031215614ebb57600080fd5b50508035926020909101359150565b60008060208385031215614edd57600080fd5b82356001600160401b03811115614ef357600080fd5b614eff85828601614953565b90969095509350505050565b602081526000825160406020840152614f276060840182614be5565b90506020840151151560408401528091505092915050565b600060208284031215614f5157600080fd5b81356001600160401b03811115614f6757600080fd5b82016101a081850312156111ed57600080fd5b6001600160401b038116811461451857600080fd5b600080600060408486031215614fa457600080fd5b83356001600160401b03811115614fba57600080fd5b614fc686828701614953565b9094509250506020840135614a2981614f7a565b600081518084526020808501945080840160005b8381101561500a57815187529582019590820190600101614fee565b509495945050505050565b6020815260006111ed6020830184614fda565b60208152815160208201526000602083015161504f60408401826001600160a01b03169052565b5060408301516150626060840182614e09565b5060608301516101a080608085015261507f6101c0850183614be5565b91506080850151601f19808685030160a087015261509d8483614be5565b935060a087015191506150bb60c08701836001600160a01b03169052565b60c087015160e0878101919091528701516101008088019190915287015161012080880191909152870151610140808801919091528701516101608088019190915287015161018080880191909152870151868503909101838701529050614d6f8382614fda565b602081016005831061513757615137614df3565b91905290565b6101808152600061515261018083018f614be5565b6001600160401b038e1660208401528c15156040840152828103606084015261517b818d614be5565b905061518c608084018c60070b9052565b61519b60a084018b60070b9052565b8860c08401528760e0840152866101008401528281036101208401526151c18187614be5565b6001600160401b03861661014085015290508281036101608401526151e68185614c11565b9f9e505050505050505050505050505050565b6000602080830181845280855180835260408601915060408160051b870101925083870160005b8281101561524e57603f1988860301845261523c858351614be5565b94509285019290850190600101615220565b5092979650505050505050565b602081528151602082015260018060a01b0360208301511660408201526000604083015160c0606084015261529360e0840182614be5565b90506060840151601f19808584030160808601526152b18383614be5565b925060808601519150808584030160a0860152506152cf8282614be5565b91505060a084015160c08401528091505092915050565b6000806000604084860312156152fb57600080fd5b83356001600160401b0381111561531157600080fd5b61531d86828701614953565b909450925050602084013560058110614a2957600080fd5b6006811061451857600080fd5b6000806040838503121561535557600080fd5b823591506020830135614bb681615335565b8681526001600160a01b038616602082015260c06040820181905260009061539190830187614be5565b82810360608401526153a38187614be5565b905082810360808401526153b78186614be5565b9150508260a0830152979650505050505050565b600080604083850312156153de57600080fd5b8235915060208301356001600160401b038111156153fb57600080fd5b830160c08186031215614bb657600080fd5b6000806040838503121561542057600080fd5b823561542b816149e6565b91506020830135614bb6816149e6565b60408152600061544e6040830185614be5565b905082151560208301529392505050565b60008060006040848603121561547457600080fd5b83356001600160401b038082111561548b57600080fd5b61549787838801614953565b909550935060208601359150808211156154b057600080fd5b50840160408187031215614a2957600080fd5b6020808252600c908201526b155b985d5d1a1bdc9a5e995960a21b604082015260600190565b8183823760009101908152919050565b600181811c9082168061550d57607f821691505b60208210810361552d57634e487b7160e01b600052602260045260246000fd5b50919050565b5b818110156111605760008155600101615534565b601f821115610c6e57806000526020600020601f840160051c8101602085101561556f5750805b611fc1601f850160051c830182615533565b600019600383901b1c191660019190911b1790565b81516001600160401b038111156155af576155af614a6f565b6155c3816155bd84546154f9565b84615548565b602080601f8311600181146155f257600084156155e05750858301515b6155ea8582615581565b865550611be3565b600085815260208120601f198616915b8281101561562157888601518255948401946001909101908401615602565b508582101561563f5787850151600019600388901b60f8161c191681555b5050505050600190811b01905550565b6000808335601e1984360301811261566657600080fd5b8301803591506001600160401b0382111561568057600080fd5b60200191503681900382131561499457600080fd5b6001600160401b038311156156ac576156ac614a6f565b6156c0836156ba83546154f9565b83615548565b6000601f8411600181146156ee57600085156156dc5750838201355b6156e68682615581565b845550611fc1565b600083815260209020601f19861690835b8281101561571f57868501358255602094850194600190920191016156ff565b508682101561573c5760001960f88860031b161c19848701351681555b505060018560011b0183555050505050565b60008135610a1481614f7a565b600081358015158114610a1457600080fd5b600081358060070b8114610a1457600080fd5b60008235607e1983360301811261579657600080fd5b9190910192915050565b6157aa828361564f565b6001600160401b038111156157c1576157c1614a6f565b6157d5816157cf85546154f9565b85615548565b6000601f82116001811461580357600083156157f15750838201355b6157fb8482615581565b86555061585d565b600085815260209020601f19841690835b828110156158345786850135825560209485019460019092019101615814565b50848210156158515760001960f88660031b161c19848701351681555b505060018360011b0185555b50505050600181016158926158746020850161574e565b825467ffffffffffffffff19166001600160401b0391909116178255565b6158c96158a16040850161575b565b82805468ff0000000000000000191691151560401b68ff000000000000000016919091179055565b610c6e6158d86060850161575b565b82805469ff000000000000000000191691151560481b69ff00000000000000000016919091179055565b61590c828361564f565b615917818385615695565b50506001810161592c6158746020850161574e565b61593b6158a16040850161575b565b50615949606083018361564f565b615957818360028601615695565b50506003810161596c6158746080850161576d565b6159af61597b60a0850161576d565b825460409190911b6fffffffffffffffff0000000000000000166fffffffffffffffff000000000000000019909116178255565b5060c0820135600482015560e0820135600582015561010082013560068201556159dd61012083018361564f565b6159eb818360078601615695565b5050615a1e6159fd610140840161574e565b600883016001600160401b0382166001600160401b03198254161781555050565b611160615a2f610160840184615780565b600983016157a0565b634e487b7160e01b600052603260045260246000fd5b6020815260006111ed6020830184614c11565b600060208284031215615a7357600080fd5b81516001600160401b03811115615a8957600080fd5b8201601f81018413615a9a57600080fd5b8051615aa8614b2382614ab5565b818152856020838501011115615abd57600080fd5b615ace826020830160208601614bc1565b95945050505050565b634e487b7160e01b600052601160045260246000fd5b80820180821115610a1457610a14615ad7565b600060018201615b1257615b12615ad7565b5060010190565b602080825260169082015275141c9bdc1bdcd85b08191bd95cdb89dd08195e1a5cdd60521b604082015260600190565b818103615b54575050565b615b5e82546154f9565b6001600160401b03811115615b7557615b75614a6f565b615b83816155bd84546154f9565b6000601f821160018114615bb15760008315615b9f5750848201545b615ba98482615581565b855550611fc1565b600085815260209020601f19841690600086815260209020845b83811015615beb5782860154825560019586019590910190602001615bcb565b508583101561563f5793015460001960f8600387901b161c19169092555050600190811b01905550565b60008135610a14816149e6565b80546001600160a01b0319166001600160a01b0392909216919091179055565b60008135610a1481615335565b60068210615c5f57615c5f614df3565b805460ff60a01b191660a09290921b60ff60a01b16919091179055565b6000808335601e19843603018112615c9357600080fd5b8301803591506001600160401b03821115615cad57600080fd5b6020019150600581901b360382131561499457600080fd5b8082028115828204841417610a1457610a14615ad7565b6001600160401b03831115615cf357615cf3614a6f565b600160401b831115615d0757615d07614a6f565b805483825580841015615d2d57816000526020600020615d2b828201868301615533565b505b50818160005260208060002060005b86811015611a495783358282015592820192600101615d3c565b8135815560018101615d73615d6d60208501615c15565b82615c22565b615d88615d8260408501615c42565b82615c4f565b50615d96606083018361564f565b615da4818360028601615695565b5050615db3608083018361564f565b615dc1818360038601615695565b5050615ddb615dd260a08401615c15565b60048301615c22565b60c0820135600582015560e08201356006820155610100820135600782015561012082013560088201556101408201356009820155610160820135600a820155615e29610180830183615c7c565b6113fc8183600b8601615cdc565b813581556001602080840135615e4c816149e6565b615e5881848601615c22565b5060028301615e6a604086018661564f565b6001600160401b03811115615e8157615e81614a6f565b615e8f816157cf85546154f9565b6000601f821160018114615ebd5760008315615eab5750838201355b615eb58482615581565b865550615f12565b600085815260209020601f19841690835b82811015615eeb5786850135825593880193908901908801615ece565b5084821015615f085760001960f88660031b161c19848701351681555b50508683881b0185555b50505050505050615f26606083018361564f565b615f34818360038601615695565b5050615f43608083018361564f565b615f51818360048601615695565b505060a082013560058201555050565b81810381811115610a1457610a14615ad7565b615f7e828361564f565b6001600160401b03811115615f9557615f95614a6f565b615fa3816157cf85546154f9565b6000601f821160018114615fd15760008315615fbf5750838201355b615fc98482615581565b86555061602b565b600085815260209020601f19841690835b828110156160025786850135825560209485019460019092019101615fe2565b508482101561601f5760001960f88660031b161c19848701351681555b505060018360011b0185555b5050505061116061603e6020840161575b565b6001830160ff1981541660ff8315151681178255505050565b7f416363657373436f6e74726f6c3a206163636f756e742000000000000000000081526000835161608f816017850160208801614bc1565b7001034b99036b4b9b9b4b733903937b6329607d1b60179184019182015283516160c0816028840160208801614bc1565b01602801949350505050565b6000816160db576160db615ad7565b50600019019056fea26469706673582212203a0ff63c189f0fccce545a93b175b6aaa4b0aea313aa620e549c3f0fc2a2d38e64736f6c63430008120033",
			"opcodes": "PUSH1 0x80 PUSH1 0x40 MSTORE CALLVALUE DUP1 ISZERO PUSH3 0x11 JUMPI PUSH1 0x0 DUP1 REVERT JUMPDEST POP PUSH1 0x40 MLOAD PUSH3 0x61E7 CODESIZE SUB DUP1 PUSH3 0x61E7 DUP4 CODECOPY DUP2 ADD PUSH1 0x40 DUP2 SWAP1 MSTORE PUSH3 0x34 SWAP2 PUSH3 0x7F JUMP JUMPDEST PUSH1 0x11 DUP1 SLOAD PUSH1 0x1 PUSH1 0x1 PUSH1 0xA0 SHL SUB SWAP4 DUP5 AND PUSH1 0x1 PUSH1 0x1 PUSH1 0xA0 SHL SUB NOT SWAP2 DUP3 AND OR SWAP1 SWAP2 SSTORE PUSH1 0x12 DUP1 SLOAD SWAP3 SWAP1 SWAP4 AND SWAP2 AND OR SWAP1 SSTORE PUSH3 0xBE JUMP JUMPDEST PUSH1 0x1 PUSH1 0x1 PUSH1 0xA0 SHL SUB DUP2 AND DUP2 EQ PUSH3 0x7C JUMPI PUSH1 0x0 DUP1 REVERT JUMPDEST POP JUMP JUMPDEST PUSH1 0x0 DUP1 PUSH1 0x40 DUP4 DUP6 SUB SLT ISZERO PUSH3 0x93 JUMPI PUSH1 0x0 DUP1 REVERT JUMPDEST DUP3 MLOAD PUSH3 0xA0 DUP2 PUSH3 0x66 JUMP JUMPDEST PUSH1 0x20 DUP5 ADD MLOAD SWAP1 SWAP3 POP PUSH3 0xB3 DUP2 PUSH3 0x66 JUMP JUMPDEST DUP1 SWAP2 POP POP SWAP3 POP SWAP3 SWAP1 POP JUMP JUMPDEST PUSH2 0x6119 DUP1 PUSH3 0xCE PUSH1 0x0 CODECOPY PUSH1 0x0 RETURN INVALID PUSH1 0x80 PUSH1 0x40 MSTORE CALLVALUE DUP1 ISZERO PUSH2 0x10 JUMPI PUSH1 0x0 DUP1 REVERT JUMPDEST POP PUSH1 0x4 CALLDATASIZE LT PUSH2 0x399 JUMPI PUSH1 0x0 CALLDATALOAD PUSH1 0xE0 SHR DUP1 PUSH4 0x78133BB2 GT PUSH2 0x1E9 JUMPI DUP1 PUSH4 0xD117658F GT PUSH2 0x10F JUMPI DUP1 PUSH4 0xED5DB190 GT PUSH2 0xAD JUMPI DUP1 PUSH4 0xF63AA288 GT PUSH2 0x7C JUMPI DUP1 PUSH4 0xF63AA288 EQ PUSH2 0x979 JUMPI DUP1 PUSH4 0xF82704F0 EQ PUSH2 0x98C JUMPI DUP1 PUSH4 0xFB2A0B32 EQ PUSH2 0x9AD JUMPI DUP1 PUSH4 0xFE47A8A7 EQ PUSH2 0x9C0 JUMPI PUSH1 0x0 DUP1 REVERT JUMPDEST DUP1 PUSH4 0xED5DB190 EQ PUSH2 0x910 JUMPI DUP1 PUSH4 0xF10A7798 EQ PUSH2 0x923 JUMPI DUP1 PUSH4 0xF44A8903 EQ PUSH2 0x936 JUMPI DUP1 PUSH4 0xF4B2E4D8 EQ PUSH2 0x966 JUMPI PUSH1 0x0 DUP1 REVERT JUMPDEST DUP1 PUSH4 0xD77907DF GT PUSH2 0xE9 JUMPI DUP1 PUSH4 0xD77907DF EQ PUSH2 0x8C5 JUMPI DUP1 PUSH4 0xE059BB72 EQ PUSH2 0x4D8 JUMPI DUP1 PUSH4 0xE4BE98F2 EQ PUSH2 0x8D8 JUMPI DUP1 PUSH4 0xE7E1A573 EQ PUSH2 0x8FD JUMPI PUSH1 0x0 DUP1 REVERT JUMPDEST DUP1 PUSH4 0xD117658F EQ PUSH2 0x87C JUMPI DUP1 PUSH4 0xD15BCBE3 EQ PUSH2 0x89F JUMPI DUP1 PUSH4 0xD547741F EQ PUSH2 0x8B2 JUMPI PUSH1 0x0 DUP1 REVERT JUMPDEST DUP1 PUSH4 0xA165809C GT PUSH2 0x187 JUMPI DUP1 PUSH4 0xBAEBDD0A GT PUSH2 0x156 JUMPI DUP1 PUSH4 0xBAEBDD0A EQ PUSH2 0x814 JUMPI DUP1 PUSH4 0xBE4F199F EQ PUSH2 0x834 JUMPI DUP1 PUSH4 0xC6620DB3 EQ PUSH2 0x849 JUMPI DUP1 PUSH4 0xCC6F85D7 EQ PUSH2 0x85C JUMPI PUSH1 0x0 DUP1 REVERT JUMPDEST DUP1 PUSH4 0xA165809C EQ PUSH2 0x786 JUMPI DUP1 PUSH4 0xA217FDDF EQ PUSH2 0x7A6 JUMPI DUP1 PUSH4 0xA6D1B7B8 EQ PUSH2 0x7AE JUMPI DUP1 PUSH4 0xBAD79DE9 EQ PUSH2 0x7E9 JUMPI PUSH1 0x0 DUP1 REVERT JUMPDEST DUP1 PUSH4 0x91D14854 GT PUSH2 0x1C3 JUMPI DUP1 PUSH4 0x91D14854 EQ PUSH2 0x72D JUMPI DUP1 PUSH4 0x96925AE6 EQ PUSH2 0x740 JUMPI DUP1 PUSH4 0x9AA09DFE EQ PUSH2 0x753 JUMPI DUP1 PUSH4 0x9DD5CF22 EQ PUSH2 0x766 JUMPI PUSH1 0x0 DUP1 REVERT JUMPDEST DUP1 PUSH4 0x78133BB2 EQ PUSH2 0x6E7 JUMPI DUP1 PUSH4 0x85271D9B EQ PUSH2 0x707 JUMPI DUP1 PUSH4 0x88A9BB2D EQ PUSH2 0x71A JUMPI PUSH1 0x0 DUP1 REVERT JUMPDEST DUP1 PUSH4 0x36568ABE GT PUSH2 0x2CE JUMPI DUP1 PUSH4 0x5AB1275B GT PUSH2 0x26C JUMPI DUP1 PUSH4 0x68C4AC26 GT PUSH2 0x23B JUMPI DUP1 PUSH4 0x68C4AC26 EQ PUSH2 0x67C JUMPI DUP1 PUSH4 0x6AB28BC8 EQ PUSH2 0x69F JUMPI DUP1 PUSH4 0x6DA9FC85 EQ PUSH2 0x6A8 JUMPI DUP1 PUSH4 0x75151B63 EQ PUSH2 0x6BB JUMPI PUSH1 0x0 DUP1 REVERT JUMPDEST DUP1 PUSH4 0x5AB1275B EQ PUSH2 0x618 JUMPI DUP1 PUSH4 0x5FA7B584 EQ PUSH2 0x643 JUMPI DUP1 PUSH4 0x6024DFFB EQ PUSH2 0x656 JUMPI DUP1 PUSH4 0x66972219 EQ PUSH2 0x669 JUMPI PUSH1 0x0 DUP1 REVERT JUMPDEST DUP1 PUSH4 0x4E8A3CA4 GT PUSH2 0x2A8 JUMPI DUP1 PUSH4 0x4E8A3CA4 EQ PUSH2 0x5B4 JUMPI DUP1 PUSH4 0x584E4336 EQ PUSH2 0x5E9 JUMPI DUP1 PUSH4 0x58E7F0B8 EQ PUSH2 0x5FC JUMPI DUP1 PUSH4 0x598E8F0B EQ PUSH2 0x605 JUMPI PUSH1 0x0 DUP1 REVERT JUMPDEST DUP1 PUSH4 0x36568ABE EQ PUSH2 0x56E JUMPI DUP1 PUSH4 0x4634AED5 EQ PUSH2 0x581 JUMPI DUP1 PUSH4 0x476C6CBC EQ PUSH2 0x5A1 JUMPI PUSH1 0x0 DUP1 REVERT JUMPDEST DUP1 PUSH4 0x24D7806C GT PUSH2 0x33B JUMPI DUP1 PUSH4 0x2A4F1621 GT PUSH2 0x315 JUMPI DUP1 PUSH4 0x2A4F1621 EQ PUSH2 0x4E0 JUMPI DUP1 PUSH4 0x2DE1CB0E EQ PUSH2 0x4F3 JUMPI DUP1 PUSH4 0x2F2FF15D EQ PUSH2 0x53B JUMPI DUP1 PUSH4 0x342C89B4 EQ PUSH2 0x54E JUMPI PUSH1 0x0 DUP1 REVERT JUMPDEST DUP1 PUSH4 0x24D7806C EQ PUSH2 0x4BD JUMPI DUP1 PUSH4 0x28D92146 EQ PUSH2 0x4D0 JUMPI DUP1 PUSH4 0x297AB486 EQ PUSH2 0x4D8 JUMPI PUSH1 0x0 DUP1 REVERT JUMPDEST DUP1 PUSH4 0x9346948 GT PUSH2 0x377 JUMPI DUP1 PUSH4 0x9346948 EQ PUSH2 0x3EE JUMPI DUP1 PUSH4 0xA0E0C91 EQ PUSH2 0x401 JUMPI DUP1 PUSH4 0x1ADF7EB1 EQ PUSH2 0x44D JUMPI DUP1 PUSH4 0x248A9CA3 EQ PUSH2 0x48C JUMPI PUSH1 0x0 DUP1 REVERT JUMPDEST DUP1 PUSH4 0x1FFC9A7 EQ PUSH2 0x39E JUMPI DUP1 PUSH4 0x230E927 EQ PUSH2 0x3C6 JUMPI DUP1 PUSH4 0x347E8C2 EQ PUSH2 0x3DB JUMPI JUMPDEST PUSH1 0x0 DUP1 REVERT JUMPDEST PUSH2 0x3B1 PUSH2 0x3AC CALLDATASIZE PUSH1 0x4 PUSH2 0x4929 JUMP JUMPDEST PUSH2 0x9E3 JUMP JUMPDEST PUSH1 0x40 MLOAD SWAP1 ISZERO ISZERO DUP2 MSTORE PUSH1 0x20 ADD JUMPDEST PUSH1 0x40 MLOAD DUP1 SWAP2 SUB SWAP1 RETURN JUMPDEST PUSH2 0x3D9 PUSH2 0x3D4 CALLDATASIZE PUSH1 0x4 PUSH2 0x499B JUMP JUMPDEST PUSH2 0xA1A JUMP JUMPDEST STOP JUMPDEST PUSH2 0x3D9 PUSH2 0x3E9 CALLDATASIZE PUSH1 0x4 PUSH2 0x49FB JUMP JUMPDEST PUSH2 0xAB7 JUMP JUMPDEST PUSH2 0x3D9 PUSH2 0x3FC CALLDATASIZE PUSH1 0x4 PUSH2 0x4A34 JUMP JUMPDEST PUSH2 0xC2D JUMP JUMPDEST PUSH2 0x435 PUSH2 0x40F CALLDATASIZE PUSH1 0x4 PUSH2 0x4ADC JUMP JUMPDEST DUP1 MLOAD PUSH1 0x20 DUP2 DUP4 ADD DUP2 ADD DUP1 MLOAD PUSH1 0x5 DUP3 MSTORE SWAP3 DUP3 ADD SWAP2 SWAP1 SWAP4 ADD KECCAK256 SWAP2 MSTORE SLOAD PUSH1 0x1 PUSH1 0x1 PUSH1 0x40 SHL SUB AND DUP2 JUMP JUMPDEST PUSH1 0x40 MLOAD PUSH1 0x1 PUSH1 0x1 PUSH1 0x40 SHL SUB SWAP1 SWAP2 AND DUP2 MSTORE PUSH1 0x20 ADD PUSH2 0x3BD JUMP JUMPDEST PUSH2 0x477 PUSH2 0x45B CALLDATASIZE PUSH1 0x4 PUSH2 0x4B5B JUMP JUMPDEST PUSH1 0x1 PUSH1 0x20 DUP2 SWAP1 MSTORE PUSH1 0x0 SWAP2 DUP3 MSTORE PUSH1 0x40 SWAP1 SWAP2 KECCAK256 DUP1 SLOAD SWAP2 ADD SLOAD PUSH1 0xFF AND DUP3 JUMP JUMPDEST PUSH1 0x40 DUP1 MLOAD SWAP3 DUP4 MSTORE SWAP1 ISZERO ISZERO PUSH1 0x20 DUP4 ADD MSTORE ADD PUSH2 0x3BD JUMP JUMPDEST PUSH2 0x4AF PUSH2 0x49A CALLDATASIZE PUSH1 0x4 PUSH2 0x4B5B JUMP JUMPDEST PUSH1 0x0 SWAP1 DUP2 MSTORE PUSH1 0x20 DUP2 SWAP1 MSTORE PUSH1 0x40 SWAP1 KECCAK256 PUSH1 0x1 ADD SLOAD SWAP1 JUMP JUMPDEST PUSH1 0x40 MLOAD SWAP1 DUP2 MSTORE PUSH1 0x20 ADD PUSH2 0x3BD JUMP JUMPDEST PUSH2 0x3B1 PUSH2 0x4CB CALLDATASIZE PUSH1 0x4 PUSH2 0x4B74 JUMP JUMPDEST PUSH2 0xC73 JUMP JUMPDEST PUSH1 0x7 SLOAD PUSH2 0x4AF JUMP JUMPDEST PUSH1 0x2 SLOAD PUSH2 0x4AF JUMP JUMPDEST PUSH2 0x3D9 PUSH2 0x4EE CALLDATASIZE PUSH1 0x4 PUSH2 0x4B74 JUMP JUMPDEST PUSH2 0xC7F JUMP JUMPDEST PUSH2 0x520 PUSH2 0x501 CALLDATASIZE PUSH1 0x4 PUSH2 0x4B5B JUMP JUMPDEST PUSH1 0x0 SWAP1 DUP2 MSTORE PUSH1 0xE PUSH1 0x20 MSTORE PUSH1 0x40 SWAP1 KECCAK256 DUP1 SLOAD PUSH1 0x1 DUP3 ADD SLOAD PUSH1 0x2 SWAP1 SWAP3 ADD SLOAD SWAP1 SWAP3 JUMP JUMPDEST PUSH1 0x40 DUP1 MLOAD SWAP4 DUP5 MSTORE PUSH1 0x20 DUP5 ADD SWAP3 SWAP1 SWAP3 MSTORE SWAP1 DUP3 ADD MSTORE PUSH1 0x60 ADD PUSH2 0x3BD JUMP JUMPDEST PUSH2 0x3D9 PUSH2 0x549 CALLDATASIZE PUSH1 0x4 PUSH2 0x4B91 JUMP JUMPDEST PUSH2 0xCF8 JUMP JUMPDEST PUSH2 0x561 PUSH2 0x55C CALLDATASIZE PUSH1 0x4 PUSH2 0x4B5B JUMP JUMPDEST PUSH2 0xD1D JUMP JUMPDEST PUSH1 0x40 MLOAD PUSH2 0x3BD SWAP2 SWAP1 PUSH2 0x4C5D JUMP JUMPDEST PUSH2 0x3D9 PUSH2 0x57C CALLDATASIZE PUSH1 0x4 PUSH2 0x4B91 JUMP JUMPDEST PUSH2 0x10E6 JUMP JUMPDEST PUSH2 0x594 PUSH2 0x58F CALLDATASIZE PUSH1 0x4 PUSH2 0x4B5B JUMP JUMPDEST PUSH2 0x1164 JUMP JUMPDEST PUSH1 0x40 MLOAD PUSH2 0x3BD SWAP2 SWAP1 PUSH2 0x4D79 JUMP JUMPDEST PUSH2 0x3D9 PUSH2 0x5AF CALLDATASIZE PUSH1 0x4 PUSH2 0x4D8C JUMP JUMPDEST PUSH2 0x11F4 JUMP JUMPDEST PUSH2 0x477 PUSH2 0x5C2 CALLDATASIZE PUSH1 0x4 PUSH2 0x4ADC JUMP JUMPDEST DUP1 MLOAD PUSH1 0x20 DUP2 DUP4 ADD DUP2 ADD DUP1 MLOAD PUSH1 0x3 DUP3 MSTORE SWAP3 DUP3 ADD SWAP2 SWAP1 SWAP4 ADD KECCAK256 SWAP2 MSTORE DUP1 SLOAD PUSH1 0x1 SWAP1 SWAP2 ADD SLOAD PUSH1 0xFF AND DUP3 JUMP JUMPDEST PUSH2 0x3D9 PUSH2 0x5F7 CALLDATASIZE PUSH1 0x4 PUSH2 0x4B5B JUMP JUMPDEST PUSH2 0x124F JUMP JUMPDEST PUSH2 0x4AF PUSH1 0x13 SLOAD DUP2 JUMP JUMPDEST PUSH2 0x3D9 PUSH2 0x613 CALLDATASIZE PUSH1 0x4 PUSH2 0x4DB8 JUMP JUMPDEST PUSH2 0x1293 JUMP JUMPDEST PUSH2 0x62B PUSH2 0x626 CALLDATASIZE PUSH1 0x4 PUSH2 0x4B5B JUMP JUMPDEST PUSH2 0x1402 JUMP JUMPDEST PUSH1 0x40 MLOAD PUSH2 0x3BD SWAP13 SWAP12 SWAP11 SWAP10 SWAP9 SWAP8 SWAP7 SWAP6 SWAP5 SWAP4 SWAP3 SWAP2 SWAP1 PUSH2 0x4E1D JUMP JUMPDEST PUSH2 0x3D9 PUSH2 0x651 CALLDATASIZE PUSH1 0x4 PUSH2 0x4B74 JUMP JUMPDEST PUSH2 0x1589 JUMP JUMPDEST PUSH2 0x3D9 PUSH2 0x664 CALLDATASIZE PUSH1 0x4 PUSH2 0x4B5B JUMP JUMPDEST PUSH2 0x15FF JUMP JUMPDEST PUSH2 0x3D9 PUSH2 0x677 CALLDATASIZE PUSH1 0x4 PUSH2 0x4EA8 JUMP JUMPDEST PUSH2 0x1A52 JUMP JUMPDEST PUSH2 0x3B1 PUSH2 0x68A CALLDATASIZE PUSH1 0x4 PUSH2 0x4B74 JUMP JUMPDEST PUSH1 0xD PUSH1 0x20 MSTORE PUSH1 0x0 SWAP1 DUP2 MSTORE PUSH1 0x40 SWAP1 KECCAK256 SLOAD PUSH1 0xFF AND DUP2 JUMP JUMPDEST PUSH2 0x4AF PUSH1 0x14 SLOAD DUP2 JUMP JUMPDEST PUSH2 0x3D9 PUSH2 0x6B6 CALLDATASIZE PUSH1 0x4 PUSH2 0x4B5B JUMP JUMPDEST PUSH2 0x1BEB JUMP JUMPDEST PUSH2 0x3B1 PUSH2 0x6C9 CALLDATASIZE PUSH1 0x4 PUSH2 0x4B74 JUMP JUMPDEST PUSH1 0x1 PUSH1 0x1 PUSH1 0xA0 SHL SUB AND PUSH1 0x0 SWAP1 DUP2 MSTORE PUSH1 0xD PUSH1 0x20 MSTORE PUSH1 0x40 SWAP1 KECCAK256 SLOAD PUSH1 0xFF AND SWAP1 JUMP JUMPDEST PUSH2 0x6FA PUSH2 0x6F5 CALLDATASIZE PUSH1 0x4 PUSH2 0x4ECA JUMP JUMPDEST PUSH2 0x1FC8 JUMP JUMPDEST PUSH1 0x40 MLOAD PUSH2 0x3BD SWAP2 SWAP1 PUSH2 0x4F0B JUMP JUMPDEST PUSH2 0x3D9 PUSH2 0x715 CALLDATASIZE PUSH1 0x4 PUSH2 0x4ECA JUMP JUMPDEST PUSH2 0x20B2 JUMP JUMPDEST PUSH2 0x3D9 PUSH2 0x728 CALLDATASIZE PUSH1 0x4 PUSH2 0x4F3F JUMP JUMPDEST PUSH2 0x24DA JUMP JUMPDEST PUSH2 0x3B1 PUSH2 0x73B CALLDATASIZE PUSH1 0x4 PUSH2 0x4B91 JUMP JUMPDEST PUSH2 0x2800 JUMP JUMPDEST PUSH2 0x561 PUSH2 0x74E CALLDATASIZE PUSH1 0x4 PUSH2 0x4B5B JUMP JUMPDEST PUSH2 0x2829 JUMP JUMPDEST PUSH2 0x3D9 PUSH2 0x761 CALLDATASIZE PUSH1 0x4 PUSH2 0x4F8F JUMP JUMPDEST PUSH2 0x2B74 JUMP JUMPDEST PUSH2 0x779 PUSH2 0x774 CALLDATASIZE PUSH1 0x4 PUSH2 0x4B5B JUMP JUMPDEST PUSH2 0x2BFB JUMP JUMPDEST PUSH1 0x40 MLOAD PUSH2 0x3BD SWAP2 SWAP1 PUSH2 0x5015 JUMP JUMPDEST PUSH2 0x799 PUSH2 0x794 CALLDATASIZE PUSH1 0x4 PUSH2 0x4B5B JUMP JUMPDEST PUSH2 0x2E7F JUMP JUMPDEST PUSH1 0x40 MLOAD PUSH2 0x3BD SWAP2 SWAP1 PUSH2 0x5028 JUMP JUMPDEST PUSH2 0x4AF PUSH1 0x0 DUP2 JUMP JUMPDEST PUSH2 0x7DC PUSH2 0x7BC CALLDATASIZE PUSH1 0x4 PUSH2 0x4ADC JUMP JUMPDEST DUP1 MLOAD PUSH1 0x20 DUP2 DUP4 ADD DUP2 ADD DUP1 MLOAD PUSH1 0x6 DUP3 MSTORE SWAP3 DUP3 ADD SWAP2 SWAP1 SWAP4 ADD KECCAK256 SWAP2 MSTORE SLOAD PUSH1 0xFF AND DUP2 JUMP JUMPDEST PUSH1 0x40 MLOAD PUSH2 0x3BD SWAP2 SWAP1 PUSH2 0x5123 JUMP JUMPDEST PUSH2 0x7FC PUSH2 0x7F7 CALLDATASIZE PUSH1 0x4 PUSH2 0x4B5B JUMP JUMPDEST PUSH2 0x314D JUMP JUMPDEST PUSH1 0x40 MLOAD PUSH2 0x3BD SWAP13 SWAP12 SWAP11 SWAP10 SWAP9 SWAP8 SWAP7 SWAP6 SWAP5 SWAP4 SWAP3 SWAP2 SWAP1 PUSH2 0x513D JUMP JUMPDEST PUSH2 0x4AF PUSH2 0x822 CALLDATASIZE PUSH1 0x4 PUSH2 0x4B74 JUMP JUMPDEST PUSH1 0xB PUSH1 0x20 MSTORE PUSH1 0x0 SWAP1 DUP2 MSTORE PUSH1 0x40 SWAP1 KECCAK256 SLOAD DUP2 JUMP JUMPDEST PUSH2 0x83C PUSH2 0x345D JUMP JUMPDEST PUSH1 0x40 MLOAD PUSH2 0x3BD SWAP2 SWAP1 PUSH2 0x51F9 JUMP JUMPDEST PUSH2 0x4AF PUSH2 0x857 CALLDATASIZE PUSH1 0x4 PUSH2 0x4B5B JUMP JUMPDEST PUSH2 0x3536 JUMP JUMPDEST PUSH2 0x86F PUSH2 0x86A CALLDATASIZE PUSH1 0x4 PUSH2 0x4B5B JUMP JUMPDEST PUSH2 0x3557 JUMP JUMPDEST PUSH1 0x40 MLOAD PUSH2 0x3BD SWAP2 SWAP1 PUSH2 0x525B JUMP JUMPDEST PUSH2 0x4AF PUSH2 0x88A CALLDATASIZE PUSH1 0x4 PUSH2 0x4B5B JUMP JUMPDEST PUSH1 0x0 SWAP1 DUP2 MSTORE PUSH1 0xE PUSH1 0x20 MSTORE PUSH1 0x40 SWAP1 KECCAK256 PUSH1 0x3 ADD SLOAD SWAP1 JUMP JUMPDEST PUSH2 0x3D9 PUSH2 0x8AD CALLDATASIZE PUSH1 0x4 PUSH2 0x52E6 JUMP JUMPDEST PUSH2 0x379D JUMP JUMPDEST PUSH2 0x3D9 PUSH2 0x8C0 CALLDATASIZE PUSH1 0x4 PUSH2 0x4B91 JUMP JUMPDEST PUSH2 0x3822 JUMP JUMPDEST PUSH2 0x3D9 PUSH2 0x8D3 CALLDATASIZE PUSH1 0x4 PUSH2 0x5342 JUMP JUMPDEST PUSH2 0x3847 JUMP JUMPDEST PUSH2 0x8EB PUSH2 0x8E6 CALLDATASIZE PUSH1 0x4 PUSH2 0x4B5B JUMP JUMPDEST PUSH2 0x3C3D JUMP JUMPDEST PUSH1 0x40 MLOAD PUSH2 0x3BD SWAP7 SWAP6 SWAP5 SWAP4 SWAP3 SWAP2 SWAP1 PUSH2 0x5367 JUMP JUMPDEST PUSH2 0x3D9 PUSH2 0x90B CALLDATASIZE PUSH1 0x4 PUSH2 0x53CB JUMP JUMPDEST PUSH2 0x3E14 JUMP JUMPDEST PUSH2 0x3D9 PUSH2 0x91E CALLDATASIZE PUSH1 0x4 PUSH2 0x4EA8 JUMP JUMPDEST PUSH2 0x3E6D JUMP JUMPDEST PUSH2 0x3D9 PUSH2 0x931 CALLDATASIZE PUSH1 0x4 PUSH2 0x540D JUMP JUMPDEST PUSH2 0x427A JUMP JUMPDEST PUSH2 0x949 PUSH2 0x944 CALLDATASIZE PUSH1 0x4 PUSH2 0x4ECA JUMP JUMPDEST PUSH2 0x4304 JUMP JUMPDEST PUSH1 0x40 DUP1 MLOAD DUP3 MLOAD DUP2 MSTORE PUSH1 0x20 SWAP3 DUP4 ADD MLOAD ISZERO ISZERO SWAP3 DUP2 ADD SWAP3 SWAP1 SWAP3 MSTORE ADD PUSH2 0x3BD JUMP JUMPDEST PUSH2 0x594 PUSH2 0x974 CALLDATASIZE PUSH1 0x4 PUSH2 0x4B5B JUMP JUMPDEST PUSH2 0x435D JUMP JUMPDEST PUSH2 0x3D9 PUSH2 0x987 CALLDATASIZE PUSH1 0x4 PUSH2 0x4B5B JUMP JUMPDEST PUSH2 0x439B JUMP JUMPDEST PUSH2 0x99F PUSH2 0x99A CALLDATASIZE PUSH1 0x4 PUSH2 0x4ADC JUMP JUMPDEST PUSH2 0x43F1 JUMP JUMPDEST PUSH1 0x40 MLOAD PUSH2 0x3BD SWAP3 SWAP2 SWAP1 PUSH2 0x543B JUMP JUMPDEST PUSH2 0x3D9 PUSH2 0x9BB CALLDATASIZE PUSH1 0x4 PUSH2 0x545F JUMP JUMPDEST PUSH2 0x44A3 JUMP JUMPDEST PUSH1 0x15 SLOAD PUSH1 0x16 SLOAD PUSH2 0x9CE SWAP2 SWAP1 DUP3 JUMP JUMPDEST PUSH1 0x40 DUP1 MLOAD SWAP3 DUP4 MSTORE PUSH1 0x20 DUP4 ADD SWAP2 SWAP1 SWAP2 MSTORE ADD PUSH2 0x3BD JUMP JUMPDEST PUSH1 0x0 PUSH1 0x1 PUSH1 0x1 PUSH1 0xE0 SHL SUB NOT DUP3 AND PUSH4 0x7965DB0B PUSH1 0xE0 SHL EQ DUP1 PUSH2 0xA14 JUMPI POP PUSH4 0x1FFC9A7 PUSH1 0xE0 SHL PUSH1 0x1 PUSH1 0x1 PUSH1 0xE0 SHL SUB NOT DUP4 AND EQ JUMPDEST SWAP3 SWAP2 POP POP JUMP JUMPDEST PUSH1 0xF SLOAD PUSH1 0x1 PUSH1 0x1 PUSH1 0xA0 SHL SUB AND CALLER EQ DUP1 PUSH2 0xA3D JUMPI POP PUSH1 0x10 SLOAD PUSH1 0x1 PUSH1 0x1 PUSH1 0xA0 SHL SUB AND CALLER EQ JUMPDEST PUSH2 0xA62 JUMPI PUSH1 0x40 MLOAD PUSH3 0x461BCD PUSH1 0xE5 SHL DUP2 MSTORE PUSH1 0x4 ADD PUSH2 0xA59 SWAP1 PUSH2 0x54C3 JUMP JUMPDEST PUSH1 0x40 MLOAD DUP1 SWAP2 SUB SWAP1 REVERT JUMPDEST PUSH1 0x40 DUP1 MLOAD DUP1 DUP3 ADD DUP3 MSTORE DUP3 DUP2 MSTORE PUSH1 0x1 PUSH1 0x20 DUP3 ADD MSTORE SWAP1 MLOAD PUSH1 0x3 SWAP1 PUSH2 0xA87 SWAP1 DUP7 SWAP1 DUP7 SWAP1 PUSH2 0x54E9 JUMP JUMPDEST SWAP1 DUP2 MSTORE PUSH1 0x40 MLOAD PUSH1 0x20 SWAP2 DUP2 SWAP1 SUB DUP3 ADD SWAP1 KECCAK256 DUP3 MLOAD DUP2 SSTORE SWAP2 ADD MLOAD PUSH1 0x1 SWAP1 SWAP2 ADD DUP1 SLOAD PUSH1 0xFF NOT AND SWAP2 ISZERO ISZERO SWAP2 SWAP1 SWAP2 OR SWAP1 SSTORE POP POP POP JUMP JUMPDEST PUSH1 0xF SLOAD PUSH1 0x1 PUSH1 0x1 PUSH1 0xA0 SHL SUB AND CALLER EQ DUP1 PUSH2 0xADA JUMPI POP PUSH1 0x10 SLOAD PUSH1 0x1 PUSH1 0x1 PUSH1 0xA0 SHL SUB AND CALLER EQ JUMPDEST PUSH2 0xAF6 JUMPI PUSH1 0x40 MLOAD PUSH3 0x461BCD PUSH1 0xE5 SHL DUP2 MSTORE PUSH1 0x4 ADD PUSH2 0xA59 SWAP1 PUSH2 0x54C3 JUMP JUMPDEST PUSH1 0x40 DUP1 MLOAD DUP1 DUP3 ADD DUP3 MSTORE DUP4 DUP2 MSTORE PUSH1 0x1 PUSH1 0x20 DUP1 DUP4 ADD DUP3 DUP2 MSTORE PUSH1 0x0 DUP9 DUP2 MSTORE DUP4 DUP4 MSTORE DUP6 DUP2 KECCAK256 SWAP5 MLOAD DUP6 SSTORE SWAP1 MLOAD SWAP4 DUP4 ADD DUP1 SLOAD PUSH1 0xFF NOT AND SWAP5 ISZERO ISZERO SWAP5 SWAP1 SWAP5 OR SWAP1 SWAP4 SSTORE PUSH1 0x9 DUP1 SLOAD DUP1 DUP5 ADD SWAP1 SWAP2 SSTORE PUSH32 0x6E1540171B6C0C960B71A7020D9F60077F6AF931A8BBF590DA0223DACF75C7AF ADD DUP8 SWAP1 SSTORE DUP4 MLOAD PUSH1 0xC0 DUP2 ADD DUP6 MSTORE DUP8 DUP2 MSTORE PUSH1 0x1 PUSH1 0x1 PUSH1 0xA0 SHL SUB DUP7 DUP2 AND DUP3 DUP5 ADD SWAP1 DUP2 MSTORE DUP7 MLOAD DUP1 DUP6 ADD DUP9 MSTORE DUP7 DUP2 MSTORE DUP4 DUP9 ADD SWAP1 DUP2 MSTORE DUP8 MLOAD DUP1 DUP7 ADD DUP10 MSTORE DUP8 DUP2 MSTORE PUSH1 0x60 DUP6 ADD MSTORE DUP8 MLOAD DUP1 DUP7 ADD DUP10 MSTORE DUP8 DUP2 MSTORE PUSH1 0x80 DUP6 ADD MSTORE PUSH1 0xA0 DUP5 ADD DUP8 SWAP1 MSTORE DUP11 DUP8 MSTORE PUSH1 0xA SWAP1 SWAP5 MSTORE SWAP6 SWAP1 SWAP5 KECCAK256 DUP2 MLOAD DUP2 SSTORE SWAP5 MLOAD SWAP3 DUP6 ADD DUP1 SLOAD PUSH1 0x1 PUSH1 0x1 PUSH1 0xA0 SHL SUB NOT AND SWAP4 SWAP1 SWAP5 AND SWAP3 SWAP1 SWAP3 OR SWAP1 SWAP3 SSTORE SWAP1 MLOAD SWAP1 SWAP2 SWAP1 PUSH1 0x2 DUP3 ADD SWAP1 PUSH2 0xBF0 SWAP1 DUP3 PUSH2 0x5596 JUMP JUMPDEST POP PUSH1 0x60 DUP3 ADD MLOAD PUSH1 0x3 DUP3 ADD SWAP1 PUSH2 0xC05 SWAP1 DUP3 PUSH2 0x5596 JUMP JUMPDEST POP PUSH1 0x80 DUP3 ADD MLOAD PUSH1 0x4 DUP3 ADD SWAP1 PUSH2 0xC1A SWAP1 DUP3 PUSH2 0x5596 JUMP JUMPDEST POP PUSH1 0xA0 DUP3 ADD MLOAD DUP2 PUSH1 0x5 ADD SSTORE SWAP1 POP POP POP POP POP JUMP JUMPDEST PUSH1 0x2 DUP1 SLOAD PUSH1 0x1 DUP2 ADD DUP3 SSTORE PUSH1 0x0 SWAP2 SWAP1 SWAP2 MSTORE DUP2 SWAP1 PUSH1 0xB MUL PUSH32 0x405787FA12A823E0F2B7631CC41B3BA8828B3321CA811111FA75CD3AA3BB5ACE ADD PUSH2 0xC6E DUP3 DUP3 PUSH2 0x5902 JUMP JUMPDEST POP POP POP JUMP JUMPDEST PUSH1 0x0 PUSH2 0xA14 DUP2 DUP4 PUSH2 0x2800 JUMP JUMPDEST PUSH1 0x11 SLOAD PUSH1 0x1 PUSH1 0x1 PUSH1 0xA0 SHL SUB AND CALLER EQ PUSH2 0xCD4 JUMPI PUSH1 0x40 MLOAD PUSH3 0x461BCD PUSH1 0xE5 SHL DUP2 MSTORE PUSH1 0x20 PUSH1 0x4 DUP3 ADD MSTORE PUSH1 0x18 PUSH1 0x24 DUP3 ADD MSTORE PUSH24 0x13DB9B1E4819DBDD995C9B985B98D94818D85B8818D85B1B PUSH1 0x42 SHL PUSH1 0x44 DUP3 ADD MSTORE PUSH1 0x64 ADD PUSH2 0xA59 JUMP JUMPDEST PUSH1 0x1 PUSH1 0x1 PUSH1 0xA0 SHL SUB AND PUSH1 0x0 SWAP1 DUP2 MSTORE PUSH1 0xD PUSH1 0x20 MSTORE PUSH1 0x40 SWAP1 KECCAK256 DUP1 SLOAD PUSH1 0xFF NOT AND PUSH1 0x1 OR SWAP1 SSTORE JUMP JUMPDEST PUSH1 0x0 DUP3 DUP2 MSTORE PUSH1 0x20 DUP2 SWAP1 MSTORE PUSH1 0x40 SWAP1 KECCAK256 PUSH1 0x1 ADD SLOAD PUSH2 0xD13 DUP2 PUSH2 0x450E JUMP JUMPDEST PUSH2 0xC6E DUP4 DUP4 PUSH2 0x451B JUMP JUMPDEST PUSH2 0xD25 PUSH2 0x480A JUMP JUMPDEST PUSH1 0x0 DUP3 DUP2 MSTORE PUSH1 0x1 PUSH1 0x20 DUP2 DUP2 MSTORE PUSH1 0x40 SWAP3 DUP4 SWAP1 KECCAK256 DUP4 MLOAD DUP1 DUP6 ADD SWAP1 SWAP5 MSTORE DUP1 SLOAD DUP5 MSTORE SWAP1 SWAP2 ADD SLOAD PUSH1 0xFF AND ISZERO ISZERO SWAP1 DUP3 ADD DUP2 SWAP1 MSTORE PUSH2 0xD9E JUMPI PUSH1 0x40 MLOAD PUSH3 0x461BCD PUSH1 0xE5 SHL DUP2 MSTORE PUSH1 0x20 PUSH1 0x4 DUP3 ADD MSTORE PUSH1 0x18 PUSH1 0x24 DUP3 ADD MSTORE PUSH32 0x70726F706F73616C4964206E6F7420617661696C61626C650000000000000000 PUSH1 0x44 DUP3 ADD MSTORE PUSH1 0x64 ADD PUSH2 0xA59 JUMP JUMPDEST PUSH1 0x2 DUP2 PUSH1 0x0 ADD MLOAD DUP2 SLOAD DUP2 LT PUSH2 0xDB5 JUMPI PUSH2 0xDB5 PUSH2 0x5A38 JUMP JUMPDEST SWAP1 PUSH1 0x0 MSTORE PUSH1 0x20 PUSH1 0x0 KECCAK256 SWAP1 PUSH1 0xB MUL ADD PUSH1 0x40 MLOAD DUP1 PUSH2 0x180 ADD PUSH1 0x40 MSTORE SWAP1 DUP2 PUSH1 0x0 DUP3 ADD DUP1 SLOAD PUSH2 0xDDF SWAP1 PUSH2 0x54F9 JUMP JUMPDEST DUP1 PUSH1 0x1F ADD PUSH1 0x20 DUP1 SWAP2 DIV MUL PUSH1 0x20 ADD PUSH1 0x40 MLOAD SWAP1 DUP2 ADD PUSH1 0x40 MSTORE DUP1 SWAP3 SWAP2 SWAP1 DUP2 DUP2 MSTORE PUSH1 0x20 ADD DUP3 DUP1 SLOAD PUSH2 0xE0B SWAP1 PUSH2 0x54F9 JUMP JUMPDEST DUP1 ISZERO PUSH2 0xE58 JUMPI DUP1 PUSH1 0x1F LT PUSH2 0xE2D JUMPI PUSH2 0x100 DUP1 DUP4 SLOAD DIV MUL DUP4 MSTORE SWAP2 PUSH1 0x20 ADD SWAP2 PUSH2 0xE58 JUMP JUMPDEST DUP3 ADD SWAP2 SWAP1 PUSH1 0x0 MSTORE PUSH1 0x20 PUSH1 0x0 KECCAK256 SWAP1 JUMPDEST DUP2 SLOAD DUP2 MSTORE SWAP1 PUSH1 0x1 ADD SWAP1 PUSH1 0x20 ADD DUP1 DUP4 GT PUSH2 0xE3B JUMPI DUP3 SWAP1 SUB PUSH1 0x1F AND DUP3 ADD SWAP2 JUMPDEST POP POP POP SWAP2 DUP4 MSTORE POP POP PUSH1 0x1 DUP3 ADD SLOAD PUSH1 0x1 PUSH1 0x1 PUSH1 0x40 SHL SUB DUP2 AND PUSH1 0x20 DUP4 ADD MSTORE PUSH1 0x1 PUSH1 0x40 SHL SWAP1 DIV PUSH1 0xFF AND ISZERO ISZERO PUSH1 0x40 DUP3 ADD MSTORE PUSH1 0x2 DUP3 ADD DUP1 SLOAD PUSH1 0x60 SWAP1 SWAP3 ADD SWAP2 PUSH2 0xE9A SWAP1 PUSH2 0x54F9 JUMP JUMPDEST DUP1 PUSH1 0x1F ADD PUSH1 0x20 DUP1 SWAP2 DIV MUL PUSH1 0x20 ADD PUSH1 0x40 MLOAD SWAP1 DUP2 ADD PUSH1 0x40 MSTORE DUP1 SWAP3 SWAP2 SWAP1 DUP2 DUP2 MSTORE PUSH1 0x20 ADD DUP3 DUP1 SLOAD PUSH2 0xEC6 SWAP1 PUSH2 0x54F9 JUMP JUMPDEST DUP1 ISZERO PUSH2 0xF13 JUMPI DUP1 PUSH1 0x1F LT PUSH2 0xEE8 JUMPI PUSH2 0x100 DUP1 DUP4 SLOAD DIV MUL DUP4 MSTORE SWAP2 PUSH1 0x20 ADD SWAP2 PUSH2 0xF13 JUMP JUMPDEST DUP3 ADD SWAP2 SWAP1 PUSH1 0x0 MSTORE PUSH1 0x20 PUSH1 0x0 KECCAK256 SWAP1 JUMPDEST DUP2 SLOAD DUP2 MSTORE SWAP1 PUSH1 0x1 ADD SWAP1 PUSH1 0x20 ADD DUP1 DUP4 GT PUSH2 0xEF6 JUMPI DUP3 SWAP1 SUB PUSH1 0x1F AND DUP3 ADD SWAP2 JUMPDEST POP POP POP SWAP2 DUP4 MSTORE POP POP PUSH1 0x3 DUP3 ADD SLOAD PUSH1 0x7 DUP2 DUP2 SIGNEXTEND PUSH1 0x20 DUP5 ADD MSTORE PUSH1 0x1 PUSH1 0x40 SHL SWAP1 SWAP2 DIV DUP2 SIGNEXTEND PUSH1 0x40 DUP4 ADD MSTORE PUSH1 0x4 DUP4 ADD SLOAD PUSH1 0x60 DUP4 ADD MSTORE PUSH1 0x5 DUP4 ADD SLOAD PUSH1 0x80 DUP4 ADD MSTORE PUSH1 0x6 DUP4 ADD SLOAD PUSH1 0xA0 DUP4 ADD MSTORE DUP3 ADD DUP1 SLOAD PUSH1 0xC0 SWAP1 SWAP3 ADD SWAP2 PUSH2 0xF6A SWAP1 PUSH2 0x54F9 JUMP JUMPDEST DUP1 PUSH1 0x1F ADD PUSH1 0x20 DUP1 SWAP2 DIV MUL PUSH1 0x20 ADD PUSH1 0x40 MLOAD SWAP1 DUP2 ADD PUSH1 0x40 MSTORE DUP1 SWAP3 SWAP2 SWAP1 DUP2 DUP2 MSTORE PUSH1 0x20 ADD DUP3 DUP1 SLOAD PUSH2 0xF96 SWAP1 PUSH2 0x54F9 JUMP JUMPDEST DUP1 ISZERO PUSH2 0xFE3 JUMPI DUP1 PUSH1 0x1F LT PUSH2 0xFB8 JUMPI PUSH2 0x100 DUP1 DUP4 SLOAD DIV MUL DUP4 MSTORE SWAP2 PUSH1 0x20 ADD SWAP2 PUSH2 0xFE3 JUMP JUMPDEST DUP3 ADD SWAP2 SWAP1 PUSH1 0x0 MSTORE PUSH1 0x20 PUSH1 0x0 KECCAK256 SWAP1 JUMPDEST DUP2 SLOAD DUP2 MSTORE SWAP1 PUSH1 0x1 ADD SWAP1 PUSH1 0x20 ADD DUP1 DUP4 GT PUSH2 0xFC6 JUMPI DUP3 SWAP1 SUB PUSH1 0x1F AND DUP3 ADD SWAP2 JUMPDEST POP POP POP SWAP2 DUP4 MSTORE POP POP PUSH1 0x8 DUP3 ADD SLOAD PUSH1 0x1 PUSH1 0x1 PUSH1 0x40 SHL SUB AND PUSH1 0x20 DUP3 ADD MSTORE PUSH1 0x40 DUP1 MLOAD PUSH1 0x80 DUP2 ADD DUP3 MSTORE PUSH1 0x9 DUP5 ADD DUP1 SLOAD SWAP3 SWAP1 SWAP4 ADD SWAP3 SWAP1 SWAP2 DUP3 SWAP1 DUP3 SWAP1 PUSH2 0x1022 SWAP1 PUSH2 0x54F9 JUMP JUMPDEST DUP1 PUSH1 0x1F ADD PUSH1 0x20 DUP1 SWAP2 DIV MUL PUSH1 0x20 ADD PUSH1 0x40 MLOAD SWAP1 DUP2 ADD PUSH1 0x40 MSTORE DUP1 SWAP3 SWAP2 SWAP1 DUP2 DUP2 MSTORE PUSH1 0x20 ADD DUP3 DUP1 SLOAD PUSH2 0x104E SWAP1 PUSH2 0x54F9 JUMP JUMPDEST DUP1 ISZERO PUSH2 0x109B JUMPI DUP1 PUSH1 0x1F LT PUSH2 0x1070 JUMPI PUSH2 0x100 DUP1 DUP4 SLOAD DIV MUL DUP4 MSTORE SWAP2 PUSH1 0x20 ADD SWAP2 PUSH2 0x109B JUMP JUMPDEST DUP3 ADD SWAP2 SWAP1 PUSH1 0x0 MSTORE PUSH1 0x20 PUSH1 0x0 KECCAK256 SWAP1 JUMPDEST DUP2 SLOAD DUP2 MSTORE SWAP1 PUSH1 0x1 ADD SWAP1 PUSH1 0x20 ADD DUP1 DUP4 GT PUSH2 0x107E JUMPI DUP3 SWAP1 SUB PUSH1 0x1F AND DUP3 ADD SWAP2 JUMPDEST POP POP POP SWAP2 DUP4 MSTORE POP POP PUSH1 0x1 SWAP2 SWAP1 SWAP2 ADD SLOAD PUSH1 0x1 PUSH1 0x1 PUSH1 0x40 SHL SUB DUP2 AND PUSH1 0x20 DUP4 ADD MSTORE PUSH1 0xFF PUSH1 0x1 PUSH1 0x40 SHL DUP3 DIV DUP2 AND ISZERO ISZERO PUSH1 0x40 DUP5 ADD MSTORE PUSH1 0x1 PUSH1 0x48 SHL SWAP1 SWAP2 DIV AND ISZERO ISZERO PUSH1 0x60 SWAP1 SWAP2 ADD MSTORE SWAP1 MSTORE POP SWAP4 SWAP3 POP POP POP JUMP JUMPDEST PUSH1 0x1 PUSH1 0x1 PUSH1 0xA0 SHL SUB DUP2 AND CALLER EQ PUSH2 0x1156 JUMPI PUSH1 0x40 MLOAD PUSH3 0x461BCD PUSH1 0xE5 SHL DUP2 MSTORE PUSH1 0x20 PUSH1 0x4 DUP3 ADD MSTORE PUSH1 0x2F PUSH1 0x24 DUP3 ADD MSTORE PUSH32 0x416363657373436F6E74726F6C3A2063616E206F6E6C792072656E6F756E6365 PUSH1 0x44 DUP3 ADD MSTORE PUSH15 0x103937B632B9903337B91039B2B633 PUSH1 0x89 SHL PUSH1 0x64 DUP3 ADD MSTORE PUSH1 0x84 ADD PUSH2 0xA59 JUMP JUMPDEST PUSH2 0x1160 DUP3 DUP3 PUSH2 0x459F JUMP JUMPDEST POP POP JUMP JUMPDEST PUSH1 0x60 PUSH1 0x0 PUSH2 0x1171 DUP4 PUSH2 0xD1D JUMP JUMPDEST PUSH1 0x12 SLOAD PUSH2 0x160 DUP3 ADD MLOAD PUSH1 0x40 MLOAD PUSH4 0xD96A5D11 PUSH1 0xE0 SHL DUP2 MSTORE SWAP3 SWAP4 POP PUSH1 0x1 PUSH1 0x1 PUSH1 0xA0 SHL SUB SWAP1 SWAP2 AND SWAP2 PUSH4 0xD96A5D11 SWAP2 PUSH2 0x11A8 SWAP2 PUSH1 0x4 ADD PUSH2 0x5A4E JUMP JUMPDEST PUSH1 0x0 PUSH1 0x40 MLOAD DUP1 DUP4 SUB DUP2 DUP7 GAS STATICCALL ISZERO DUP1 ISZERO PUSH2 0x11C5 JUMPI RETURNDATASIZE PUSH1 0x0 DUP1 RETURNDATACOPY RETURNDATASIZE PUSH1 0x0 REVERT JUMPDEST POP POP POP POP PUSH1 0x40 MLOAD RETURNDATASIZE PUSH1 0x0 DUP3 RETURNDATACOPY PUSH1 0x1F RETURNDATASIZE SWAP1 DUP2 ADD PUSH1 0x1F NOT AND DUP3 ADD PUSH1 0x40 MSTORE PUSH2 0x11ED SWAP2 SWAP1 DUP2 ADD SWAP1 PUSH2 0x5A61 JUMP JUMPDEST SWAP4 SWAP3 POP POP POP JUMP JUMPDEST PUSH1 0xF SLOAD PUSH1 0x1 PUSH1 0x1 PUSH1 0xA0 SHL SUB AND CALLER EQ DUP1 PUSH2 0x1217 JUMPI POP PUSH1 0x10 SLOAD PUSH1 0x1 PUSH1 0x1 PUSH1 0xA0 SHL SUB AND CALLER EQ JUMPDEST PUSH2 0x1233 JUMPI PUSH1 0x40 MLOAD PUSH3 0x461BCD PUSH1 0xE5 SHL DUP2 MSTORE PUSH1 0x4 ADD PUSH2 0xA59 SWAP1 PUSH2 0x54C3 JUMP JUMPDEST PUSH1 0x1 PUSH1 0x1 PUSH1 0xA0 SHL SUB SWAP1 SWAP2 AND PUSH1 0x0 SWAP1 DUP2 MSTORE PUSH1 0xB PUSH1 0x20 MSTORE PUSH1 0x40 SWAP1 KECCAK256 SSTORE JUMP JUMPDEST PUSH1 0xF SLOAD PUSH1 0x1 PUSH1 0x1 PUSH1 0xA0 SHL SUB AND CALLER EQ DUP1 PUSH2 0x1272 JUMPI POP PUSH1 0x10 SLOAD PUSH1 0x1 PUSH1 0x1 PUSH1 0xA0 SHL SUB AND CALLER EQ JUMPDEST PUSH2 0x128E JUMPI PUSH1 0x40 MLOAD PUSH3 0x461BCD PUSH1 0xE5 SHL DUP2 MSTORE PUSH1 0x4 ADD PUSH2 0xA59 SWAP1 PUSH2 0x54C3 JUMP JUMPDEST PUSH1 0x14 SSTORE JUMP JUMPDEST PUSH1 0xF SLOAD PUSH1 0x1 PUSH1 0x1 PUSH1 0xA0 SHL SUB AND CALLER EQ DUP1 PUSH2 0x12B6 JUMPI POP PUSH1 0x10 SLOAD PUSH1 0x1 PUSH1 0x1 PUSH1 0xA0 SHL SUB AND CALLER EQ JUMPDEST PUSH2 0x12D2 JUMPI PUSH1 0x40 MLOAD PUSH3 0x461BCD PUSH1 0xE5 SHL DUP2 MSTORE PUSH1 0x4 ADD PUSH2 0xA59 SWAP1 PUSH2 0x54C3 JUMP JUMPDEST PUSH1 0x0 DUP4 DUP2 MSTORE PUSH1 0xE PUSH1 0x20 SWAP1 DUP2 MSTORE PUSH1 0x40 DUP1 DUP4 KECCAK256 PUSH1 0x1 PUSH1 0x1 PUSH1 0xA0 SHL SUB DUP7 AND DUP5 MSTORE PUSH1 0x4 DUP2 ADD SWAP1 SWAP3 MSTORE SWAP1 SWAP2 KECCAK256 SLOAD PUSH1 0xFF AND ISZERO PUSH2 0x133E JUMPI PUSH1 0x40 MLOAD PUSH3 0x461BCD PUSH1 0xE5 SHL DUP2 MSTORE PUSH1 0x20 PUSH1 0x4 DUP3 ADD MSTORE PUSH1 0x11 PUSH1 0x24 DUP3 ADD MSTORE PUSH17 0x159BDD1948185B1C9958591E4818D85CDD PUSH1 0x7A SHL PUSH1 0x44 DUP3 ADD MSTORE PUSH1 0x64 ADD PUSH2 0xA59 JUMP JUMPDEST PUSH1 0x1 PUSH1 0x1 PUSH1 0xA0 SHL SUB DUP4 AND PUSH1 0x0 SWAP1 DUP2 MSTORE PUSH1 0x4 DUP3 ADD PUSH1 0x20 MSTORE PUSH1 0x40 DUP2 KECCAK256 DUP1 SLOAD PUSH1 0xFF NOT AND PUSH1 0x1 OR SWAP1 SSTORE DUP3 PUSH1 0x2 DUP2 GT ISZERO PUSH2 0x1375 JUMPI PUSH2 0x1375 PUSH2 0x4DF3 JUMP JUMPDEST SUB PUSH2 0x139A JUMPI PUSH1 0x1 DUP2 PUSH1 0x1 ADD PUSH1 0x0 DUP3 DUP3 SLOAD PUSH2 0x138F SWAP2 SWAP1 PUSH2 0x5AED JUMP JUMPDEST SWAP1 SWAP2 SSTORE POP PUSH2 0x13FC SWAP1 POP JUMP JUMPDEST PUSH1 0x1 DUP3 PUSH1 0x2 DUP2 GT ISZERO PUSH2 0x13AE JUMPI PUSH2 0x13AE PUSH2 0x4DF3 JUMP JUMPDEST SUB PUSH2 0x13C8 JUMPI PUSH1 0x1 DUP2 PUSH1 0x0 ADD PUSH1 0x0 DUP3 DUP3 SLOAD PUSH2 0x138F SWAP2 SWAP1 PUSH2 0x5AED JUMP JUMPDEST PUSH1 0x2 DUP3 PUSH1 0x2 DUP2 GT ISZERO PUSH2 0x13DC JUMPI PUSH2 0x13DC PUSH2 0x4DF3 JUMP JUMPDEST SUB PUSH2 0x13FC JUMPI PUSH1 0x1 DUP2 PUSH1 0x2 ADD PUSH1 0x0 DUP3 DUP3 SLOAD PUSH2 0x13F6 SWAP2 SWAP1 PUSH2 0x5AED JUMP JUMPDEST SWAP1 SWAP2 SSTORE POP POP JUMPDEST POP POP POP POP JUMP JUMPDEST PUSH1 0xC PUSH1 0x20 MSTORE PUSH1 0x0 SWAP1 DUP2 MSTORE PUSH1 0x40 SWAP1 KECCAK256 DUP1 SLOAD PUSH1 0x1 DUP3 ADD SLOAD PUSH1 0x2 DUP4 ADD DUP1 SLOAD SWAP3 SWAP4 PUSH1 0x1 PUSH1 0x1 PUSH1 0xA0 SHL SUB DUP4 AND SWAP4 PUSH1 0x1 PUSH1 0xA0 SHL SWAP1 SWAP4 DIV PUSH1 0xFF AND SWAP3 SWAP1 SWAP2 SWAP1 PUSH2 0x1442 SWAP1 PUSH2 0x54F9 JUMP JUMPDEST DUP1 PUSH1 0x1F ADD PUSH1 0x20 DUP1 SWAP2 DIV MUL PUSH1 0x20 ADD PUSH1 0x40 MLOAD SWAP1 DUP2 ADD PUSH1 0x40 MSTORE DUP1 SWAP3 SWAP2 SWAP1 DUP2 DUP2 MSTORE PUSH1 0x20 ADD DUP3 DUP1 SLOAD PUSH2 0x146E SWAP1 PUSH2 0x54F9 JUMP JUMPDEST DUP1 ISZERO PUSH2 0x14BB JUMPI DUP1 PUSH1 0x1F LT PUSH2 0x1490 JUMPI PUSH2 0x100 DUP1 DUP4 SLOAD DIV MUL DUP4 MSTORE SWAP2 PUSH1 0x20 ADD SWAP2 PUSH2 0x14BB JUMP JUMPDEST DUP3 ADD SWAP2 SWAP1 PUSH1 0x0 MSTORE PUSH1 0x20 PUSH1 0x0 KECCAK256 SWAP1 JUMPDEST DUP2 SLOAD DUP2 MSTORE SWAP1 PUSH1 0x1 ADD SWAP1 PUSH1 0x20 ADD DUP1 DUP4 GT PUSH2 0x149E JUMPI DUP3 SWAP1 SUB PUSH1 0x1F AND DUP3 ADD SWAP2 JUMPDEST POP POP POP POP POP SWAP1 DUP1 PUSH1 0x3 ADD DUP1 SLOAD PUSH2 0x14D0 SWAP1 PUSH2 0x54F9 JUMP JUMPDEST DUP1 PUSH1 0x1F ADD PUSH1 0x20 DUP1 SWAP2 DIV MUL PUSH1 0x20 ADD PUSH1 0x40 MLOAD SWAP1 DUP2 ADD PUSH1 0x40 MSTORE DUP1 SWAP3 SWAP2 SWAP1 DUP2 DUP2 MSTORE PUSH1 0x20 ADD DUP3 DUP1 SLOAD PUSH2 0x14FC SWAP1 PUSH2 0x54F9 JUMP JUMPDEST DUP1 ISZERO PUSH2 0x1549 JUMPI DUP1 PUSH1 0x1F LT PUSH2 0x151E JUMPI PUSH2 0x100 DUP1 DUP4 SLOAD DIV MUL DUP4 MSTORE SWAP2 PUSH1 0x20 ADD SWAP2 PUSH2 0x1549 JUMP JUMPDEST DUP3 ADD SWAP2 SWAP1 PUSH1 0x0 MSTORE PUSH1 0x20 PUSH1 0x0 KECCAK256 SWAP1 JUMPDEST DUP2 SLOAD DUP2 MSTORE SWAP1 PUSH1 0x1 ADD SWAP1 PUSH1 0x20 ADD DUP1 DUP4 GT PUSH2 0x152C JUMPI DUP3 SWAP1 SUB PUSH1 0x1F AND DUP3 ADD SWAP2 JUMPDEST POP POP POP POP PUSH1 0x4 DUP4 ADD SLOAD PUSH1 0x5 DUP5 ADD SLOAD PUSH1 0x6 DUP6 ADD SLOAD PUSH1 0x7 DUP7 ADD SLOAD PUSH1 0x8 DUP8 ADD SLOAD PUSH1 0x9 DUP9 ADD SLOAD PUSH1 0xA SWAP1 SWAP9 ADD SLOAD SWAP7 SWAP8 PUSH1 0x1 PUSH1 0x1 PUSH1 0xA0 SHL SUB SWAP1 SWAP6 AND SWAP7 SWAP4 SWAP6 POP SWAP2 SWAP4 SWAP1 SWAP3 DUP13 JUMP JUMPDEST PUSH1 0x11 SLOAD PUSH1 0x1 PUSH1 0x1 PUSH1 0xA0 SHL SUB AND CALLER EQ PUSH2 0x15DE JUMPI PUSH1 0x40 MLOAD PUSH3 0x461BCD PUSH1 0xE5 SHL DUP2 MSTORE PUSH1 0x20 PUSH1 0x4 DUP3 ADD MSTORE PUSH1 0x18 PUSH1 0x24 DUP3 ADD MSTORE PUSH24 0x13DB9B1E4819DBDD995C9B985B98D94818D85B8818D85B1B PUSH1 0x42 SHL PUSH1 0x44 DUP3 ADD MSTORE PUSH1 0x64 ADD PUSH2 0xA59 JUMP JUMPDEST PUSH1 0x1 PUSH1 0x1 PUSH1 0xA0 SHL SUB AND PUSH1 0x0 SWAP1 DUP2 MSTORE PUSH1 0xD PUSH1 0x20 MSTORE PUSH1 0x40 SWAP1 KECCAK256 DUP1 SLOAD PUSH1 0xFF NOT AND SWAP1 SSTORE JUMP JUMPDEST PUSH1 0xF SLOAD PUSH1 0x1 PUSH1 0x1 PUSH1 0xA0 SHL SUB AND CALLER EQ DUP1 PUSH2 0x1622 JUMPI POP PUSH1 0x10 SLOAD PUSH1 0x1 PUSH1 0x1 PUSH1 0xA0 SHL SUB AND CALLER EQ JUMPDEST PUSH2 0x163E JUMPI PUSH1 0x40 MLOAD PUSH3 0x461BCD PUSH1 0xE5 SHL DUP2 MSTORE PUSH1 0x4 ADD PUSH2 0xA59 SWAP1 PUSH2 0x54C3 JUMP JUMPDEST PUSH1 0x0 DUP2 DUP2 MSTORE PUSH1 0xE PUSH1 0x20 SWAP1 DUP2 MSTORE PUSH1 0x40 DUP1 DUP4 KECCAK256 PUSH1 0xC DUP4 MSTORE DUP2 DUP5 KECCAK256 DUP3 MLOAD PUSH2 0x1A0 DUP2 ADD DUP5 MSTORE DUP2 SLOAD DUP2 MSTORE PUSH1 0x1 DUP3 ADD SLOAD PUSH1 0x1 PUSH1 0x1 PUSH1 0xA0 SHL SUB DUP2 AND SWAP6 DUP3 ADD SWAP6 SWAP1 SWAP6 MSTORE PUSH1 0x5 SWAP6 SWAP3 SWAP5 SWAP3 SWAP4 SWAP1 SWAP3 SWAP1 DUP4 ADD SWAP1 PUSH1 0x1 PUSH1 0xA0 SHL SWAP1 DIV PUSH1 0xFF AND DUP7 DUP2 GT ISZERO PUSH2 0x16A0 JUMPI PUSH2 0x16A0 PUSH2 0x4DF3 JUMP JUMPDEST PUSH1 0x5 DUP2 GT ISZERO PUSH2 0x16B1 JUMPI PUSH2 0x16B1 PUSH2 0x4DF3 JUMP JUMPDEST DUP2 MSTORE PUSH1 0x20 ADD PUSH1 0x2 DUP3 ADD DUP1 SLOAD PUSH2 0x16C5 SWAP1 PUSH2 0x54F9 JUMP JUMPDEST DUP1 PUSH1 0x1F ADD PUSH1 0x20 DUP1 SWAP2 DIV MUL PUSH1 0x20 ADD PUSH1 0x40 MLOAD SWAP1 DUP2 ADD PUSH1 0x40 MSTORE DUP1 SWAP3 SWAP2 SWAP1 DUP2 DUP2 MSTORE PUSH1 0x20 ADD DUP3 DUP1 SLOAD PUSH2 0x16F1 SWAP1 PUSH2 0x54F9 JUMP JUMPDEST DUP1 ISZERO PUSH2 0x173E JUMPI DUP1 PUSH1 0x1F LT PUSH2 0x1713 JUMPI PUSH2 0x100 DUP1 DUP4 SLOAD DIV MUL DUP4 MSTORE SWAP2 PUSH1 0x20 ADD SWAP2 PUSH2 0x173E JUMP JUMPDEST DUP3 ADD SWAP2 SWAP1 PUSH1 0x0 MSTORE PUSH1 0x20 PUSH1 0x0 KECCAK256 SWAP1 JUMPDEST DUP2 SLOAD DUP2 MSTORE SWAP1 PUSH1 0x1 ADD SWAP1 PUSH1 0x20 ADD DUP1 DUP4 GT PUSH2 0x1721 JUMPI DUP3 SWAP1 SUB PUSH1 0x1F AND DUP3 ADD SWAP2 JUMPDEST POP POP POP POP POP DUP2 MSTORE PUSH1 0x20 ADD PUSH1 0x3 DUP3 ADD DUP1 SLOAD PUSH2 0x1757 SWAP1 PUSH2 0x54F9 JUMP JUMPDEST DUP1 PUSH1 0x1F ADD PUSH1 0x20 DUP1 SWAP2 DIV MUL PUSH1 0x20 ADD PUSH1 0x40 MLOAD SWAP1 DUP2 ADD PUSH1 0x40 MSTORE DUP1 SWAP3 SWAP2 SWAP1 DUP2 DUP2 MSTORE PUSH1 0x20 ADD DUP3 DUP1 SLOAD PUSH2 0x1783 SWAP1 PUSH2 0x54F9 JUMP JUMPDEST DUP1 ISZERO PUSH2 0x17D0 JUMPI DUP1 PUSH1 0x1F LT PUSH2 0x17A5 JUMPI PUSH2 0x100 DUP1 DUP4 SLOAD DIV MUL DUP4 MSTORE SWAP2 PUSH1 0x20 ADD SWAP2 PUSH2 0x17D0 JUMP JUMPDEST DUP3 ADD SWAP2 SWAP1 PUSH1 0x0 MSTORE PUSH1 0x20 PUSH1 0x0 KECCAK256 SWAP1 JUMPDEST DUP2 SLOAD DUP2 MSTORE SWAP1 PUSH1 0x1 ADD SWAP1 PUSH1 0x20 ADD DUP1 DUP4 GT PUSH2 0x17B3 JUMPI DUP3 SWAP1 SUB PUSH1 0x1F AND DUP3 ADD SWAP2 JUMPDEST POP POP POP POP POP DUP2 MSTORE PUSH1 0x20 ADD PUSH1 0x4 DUP3 ADD PUSH1 0x0 SWAP1 SLOAD SWAP1 PUSH2 0x100 EXP SWAP1 DIV PUSH1 0x1 PUSH1 0x1 PUSH1 0xA0 SHL SUB AND PUSH1 0x1 PUSH1 0x1 PUSH1 0xA0 SHL SUB AND PUSH1 0x1 PUSH1 0x1 PUSH1 0xA0 SHL SUB AND DUP2 MSTORE PUSH1 0x20 ADD PUSH1 0x5 DUP3 ADD SLOAD DUP2 MSTORE PUSH1 0x20 ADD PUSH1 0x6 DUP3 ADD SLOAD DUP2 MSTORE PUSH1 0x20 ADD PUSH1 0x7 DUP3 ADD SLOAD DUP2 MSTORE PUSH1 0x20 ADD PUSH1 0x8 DUP3 ADD SLOAD DUP2 MSTORE PUSH1 0x20 ADD PUSH1 0x9 DUP3 ADD SLOAD DUP2 MSTORE PUSH1 0x20 ADD PUSH1 0xA DUP3 ADD SLOAD DUP2 MSTORE PUSH1 0x20 ADD PUSH1 0xB DUP3 ADD DUP1 SLOAD DUP1 PUSH1 0x20 MUL PUSH1 0x20 ADD PUSH1 0x40 MLOAD SWAP1 DUP2 ADD PUSH1 0x40 MSTORE DUP1 SWAP3 SWAP2 SWAP1 DUP2 DUP2 MSTORE PUSH1 0x20 ADD DUP3 DUP1 SLOAD DUP1 ISZERO PUSH2 0x1893 JUMPI PUSH1 0x20 MUL DUP3 ADD SWAP2 SWAP1 PUSH1 0x0 MSTORE PUSH1 0x20 PUSH1 0x0 KECCAK256 SWAP1 JUMPDEST DUP2 SLOAD DUP2 MSTORE PUSH1 0x20 ADD SWAP1 PUSH1 0x1 ADD SWAP1 DUP1 DUP4 GT PUSH2 0x187F JUMPI JUMPDEST POP POP POP POP POP DUP2 MSTORE POP POP SWAP1 POP DUP2 PUSH1 0x0 ADD SLOAD DUP3 PUSH1 0x1 ADD SLOAD LT ISZERO DUP1 ISZERO PUSH2 0x18BE JUMPI POP DUP2 PUSH1 0x2 ADD SLOAD DUP3 PUSH1 0x1 ADD SLOAD LT ISZERO JUMPDEST ISZERO PUSH2 0x18E1 JUMPI PUSH1 0x13 DUP1 SLOAD PUSH1 0x4 SWAP5 POP SWAP1 PUSH1 0x0 PUSH2 0x18D7 DUP4 PUSH2 0x5B00 JUMP JUMPDEST SWAP2 SWAP1 POP SSTORE POP PUSH2 0x1908 JUMP JUMPDEST DUP2 PUSH1 0x1 ADD SLOAD DUP3 PUSH1 0x2 ADD SLOAD LT ISZERO DUP1 ISZERO PUSH2 0x18FE JUMPI POP DUP2 SLOAD PUSH1 0x2 DUP4 ADD SLOAD LT ISZERO JUMPDEST ISZERO PUSH2 0x1908 JUMPI PUSH1 0x1 SWAP3 POP JUMPDEST PUSH1 0x40 DUP2 ADD DUP4 PUSH1 0x5 DUP2 GT ISZERO PUSH2 0x191E JUMPI PUSH2 0x191E PUSH2 0x4DF3 JUMP JUMPDEST SWAP1 DUP2 PUSH1 0x5 DUP2 GT ISZERO PUSH2 0x1931 JUMPI PUSH2 0x1931 PUSH2 0x4DF3 JUMP JUMPDEST SWAP1 MSTORE POP PUSH1 0x0 DUP5 DUP2 MSTORE PUSH1 0xC PUSH1 0x20 SWAP1 DUP2 MSTORE PUSH1 0x40 SWAP2 DUP3 SWAP1 KECCAK256 DUP4 MLOAD DUP2 SSTORE SWAP1 DUP4 ADD MLOAD PUSH1 0x1 DUP3 ADD DUP1 SLOAD PUSH1 0x1 PUSH1 0x1 PUSH1 0xA0 SHL SUB SWAP1 SWAP3 AND PUSH1 0x1 PUSH1 0x1 PUSH1 0xA0 SHL SUB NOT DUP4 AND DUP2 OR DUP3 SSTORE SWAP4 DUP6 ADD MLOAD DUP6 SWAP5 SWAP1 SWAP3 PUSH1 0x1 PUSH1 0x1 PUSH1 0xA8 SHL SUB NOT AND OR PUSH1 0x1 PUSH1 0xA0 SHL DUP4 PUSH1 0x5 DUP2 GT ISZERO PUSH2 0x1998 JUMPI PUSH2 0x1998 PUSH2 0x4DF3 JUMP JUMPDEST MUL OR SWAP1 SSTORE POP PUSH1 0x60 DUP3 ADD MLOAD PUSH1 0x2 DUP3 ADD SWAP1 PUSH2 0x19B1 SWAP1 DUP3 PUSH2 0x5596 JUMP JUMPDEST POP PUSH1 0x80 DUP3 ADD MLOAD PUSH1 0x3 DUP3 ADD SWAP1 PUSH2 0x19C6 SWAP1 DUP3 PUSH2 0x5596 JUMP JUMPDEST POP PUSH1 0xA0 DUP3 ADD MLOAD PUSH1 0x4 DUP3 ADD DUP1 SLOAD PUSH1 0x1 PUSH1 0x1 PUSH1 0xA0 SHL SUB NOT AND PUSH1 0x1 PUSH1 0x1 PUSH1 0xA0 SHL SUB SWAP1 SWAP3 AND SWAP2 SWAP1 SWAP2 OR SWAP1 SSTORE PUSH1 0xC0 DUP3 ADD MLOAD PUSH1 0x5 DUP3 ADD SSTORE PUSH1 0xE0 DUP3 ADD MLOAD PUSH1 0x6 DUP3 ADD SSTORE PUSH2 0x100 DUP3 ADD MLOAD PUSH1 0x7 DUP3 ADD SSTORE PUSH2 0x120 DUP3 ADD MLOAD PUSH1 0x8 DUP3 ADD SSTORE PUSH2 0x140 DUP3 ADD MLOAD PUSH1 0x9 DUP3 ADD SSTORE PUSH2 0x160 DUP3 ADD MLOAD PUSH1 0xA DUP3 ADD SSTORE PUSH2 0x180 DUP3 ADD MLOAD DUP1 MLOAD PUSH2 0x1A49 SWAP2 PUSH1 0xB DUP5 ADD SWAP2 PUSH1 0x20 SWAP1 SWAP2 ADD SWAP1 PUSH2 0x4889 JUMP JUMPDEST POP POP POP POP POP POP POP JUMP JUMPDEST PUSH1 0xF SLOAD PUSH1 0x1 PUSH1 0x1 PUSH1 0xA0 SHL SUB AND CALLER EQ DUP1 PUSH2 0x1A75 JUMPI POP PUSH1 0x10 SLOAD PUSH1 0x1 PUSH1 0x1 PUSH1 0xA0 SHL SUB AND CALLER EQ JUMPDEST PUSH2 0x1A91 JUMPI PUSH1 0x40 MLOAD PUSH3 0x461BCD PUSH1 0xE5 SHL DUP2 MSTORE PUSH1 0x4 ADD PUSH2 0xA59 SWAP1 PUSH2 0x54C3 JUMP JUMPDEST PUSH1 0x0 DUP3 DUP2 MSTORE PUSH1 0xC PUSH1 0x20 MSTORE PUSH1 0x40 DUP2 KECCAK256 DUP1 SLOAD SWAP1 SWAP2 SUB PUSH2 0x1AC0 JUMPI PUSH1 0x40 MLOAD PUSH3 0x461BCD PUSH1 0xE5 SHL DUP2 MSTORE PUSH1 0x4 ADD PUSH2 0xA59 SWAP1 PUSH2 0x5B19 JUMP JUMPDEST PUSH1 0xB DUP2 ADD DUP1 SLOAD PUSH1 0x1 DUP2 DUP2 ADD DUP4 SSTORE PUSH1 0x0 SWAP3 DUP4 MSTORE PUSH1 0x20 DUP1 DUP5 KECCAK256 SWAP1 SWAP3 ADD DUP6 SWAP1 SSTORE DUP6 DUP4 MSTORE PUSH1 0xC SWAP1 SWAP2 MSTORE PUSH1 0x40 SWAP1 SWAP2 KECCAK256 DUP3 SLOAD DUP2 SSTORE DUP2 DUP4 ADD DUP1 SLOAD SWAP3 DUP3 ADD DUP1 SLOAD PUSH1 0x1 PUSH1 0x1 PUSH1 0xA0 SHL SUB NOT DUP2 AND PUSH1 0x1 PUSH1 0x1 PUSH1 0xA0 SHL SUB SWAP1 SWAP6 AND SWAP5 DUP6 OR DUP3 SSTORE SWAP2 SLOAD DUP6 SWAP5 PUSH1 0xFF PUSH1 0x1 PUSH1 0xA0 SHL SWAP3 DUP4 SWAP1 DIV AND SWAP4 PUSH1 0x1 PUSH1 0x1 PUSH1 0xA8 SHL SUB NOT AND OR SWAP1 DUP4 PUSH1 0x5 DUP2 GT ISZERO PUSH2 0x1B42 JUMPI PUSH2 0x1B42 PUSH2 0x4DF3 JUMP JUMPDEST MUL OR SWAP1 SSTORE POP PUSH1 0x2 DUP2 DUP2 ADD SWAP1 PUSH2 0x1B59 SWAP1 DUP5 ADD DUP3 PUSH2 0x5B49 JUMP JUMPDEST POP PUSH1 0x3 DUP2 DUP2 ADD SWAP1 PUSH2 0x1B6C SWAP1 DUP5 ADD DUP3 PUSH2 0x5B49 JUMP JUMPDEST POP PUSH1 0x4 DUP3 DUP2 ADD SLOAD SWAP1 DUP3 ADD DUP1 SLOAD PUSH1 0x1 PUSH1 0x1 PUSH1 0xA0 SHL SUB NOT AND PUSH1 0x1 PUSH1 0x1 PUSH1 0xA0 SHL SUB SWAP1 SWAP3 AND SWAP2 SWAP1 SWAP2 OR SWAP1 SSTORE PUSH1 0x5 DUP1 DUP4 ADD SLOAD SWAP1 DUP3 ADD SSTORE PUSH1 0x6 DUP1 DUP4 ADD SLOAD SWAP1 DUP3 ADD SSTORE PUSH1 0x7 DUP1 DUP4 ADD SLOAD SWAP1 DUP3 ADD SSTORE PUSH1 0x8 DUP1 DUP4 ADD SLOAD SWAP1 DUP3 ADD SSTORE PUSH1 0x9 DUP1 DUP4 ADD SLOAD SWAP1 DUP3 ADD SSTORE PUSH1 0xA DUP1 DUP4 ADD SLOAD SWAP1 DUP3 ADD SSTORE PUSH1 0xB DUP1 DUP4 ADD DUP1 SLOAD PUSH2 0x1BE3 SWAP3 DUP5 ADD SWAP2 SWAP1 PUSH2 0x48D4 JUMP JUMPDEST POP POP POP POP POP POP JUMP JUMPDEST PUSH1 0xF SLOAD PUSH1 0x1 PUSH1 0x1 PUSH1 0xA0 SHL SUB AND CALLER EQ DUP1 PUSH2 0x1C0E JUMPI POP PUSH1 0x10 SLOAD PUSH1 0x1 PUSH1 0x1 PUSH1 0xA0 SHL SUB AND CALLER EQ JUMPDEST PUSH2 0x1C2A JUMPI PUSH1 0x40 MLOAD PUSH3 0x461BCD PUSH1 0xE5 SHL DUP2 MSTORE PUSH1 0x4 ADD PUSH2 0xA59 SWAP1 PUSH2 0x54C3 JUMP JUMPDEST PUSH1 0x0 DUP2 DUP2 MSTORE PUSH1 0xC PUSH1 0x20 SWAP1 DUP2 MSTORE PUSH1 0x40 DUP1 DUP4 KECCAK256 DUP2 MLOAD PUSH2 0x1A0 DUP2 ADD DUP4 MSTORE DUP2 SLOAD DUP2 MSTORE PUSH1 0x1 DUP3 ADD SLOAD PUSH1 0x1 PUSH1 0x1 PUSH1 0xA0 SHL SUB DUP2 AND SWAP5 DUP3 ADD SWAP5 SWAP1 SWAP5 MSTORE SWAP3 SWAP1 SWAP2 DUP4 ADD SWAP1 PUSH1 0x1 PUSH1 0xA0 SHL SWAP1 DIV PUSH1 0xFF AND PUSH1 0x5 DUP2 GT ISZERO PUSH2 0x1C7F JUMPI PUSH2 0x1C7F PUSH2 0x4DF3 JUMP JUMPDEST PUSH1 0x5 DUP2 GT ISZERO PUSH2 0x1C90 JUMPI PUSH2 0x1C90 PUSH2 0x4DF3 JUMP JUMPDEST DUP2 MSTORE PUSH1 0x20 ADD PUSH1 0x2 DUP3 ADD DUP1 SLOAD PUSH2 0x1CA4 SWAP1 PUSH2 0x54F9 JUMP JUMPDEST DUP1 PUSH1 0x1F ADD PUSH1 0x20 DUP1 SWAP2 DIV MUL PUSH1 0x20 ADD PUSH1 0x40 MLOAD SWAP1 DUP2 ADD PUSH1 0x40 MSTORE DUP1 SWAP3 SWAP2 SWAP1 DUP2 DUP2 MSTORE PUSH1 0x20 ADD DUP3 DUP1 SLOAD PUSH2 0x1CD0 SWAP1 PUSH2 0x54F9 JUMP JUMPDEST DUP1 ISZERO PUSH2 0x1D1D JUMPI DUP1 PUSH1 0x1F LT PUSH2 0x1CF2 JUMPI PUSH2 0x100 DUP1 DUP4 SLOAD DIV MUL DUP4 MSTORE SWAP2 PUSH1 0x20 ADD SWAP2 PUSH2 0x1D1D JUMP JUMPDEST DUP3 ADD SWAP2 SWAP1 PUSH1 0x0 MSTORE PUSH1 0x20 PUSH1 0x0 KECCAK256 SWAP1 JUMPDEST DUP2 SLOAD DUP2 MSTORE SWAP1 PUSH1 0x1 ADD SWAP1 PUSH1 0x20 ADD DUP1 DUP4 GT PUSH2 0x1D00 JUMPI DUP3 SWAP1 SUB PUSH1 0x1F AND DUP3 ADD SWAP2 JUMPDEST POP POP POP POP POP DUP2 MSTORE PUSH1 0x20 ADD PUSH1 0x3 DUP3 ADD DUP1 SLOAD PUSH2 0x1D36 SWAP1 PUSH2 0x54F9 JUMP JUMPDEST DUP1 PUSH1 0x1F ADD PUSH1 0x20 DUP1 SWAP2 DIV MUL PUSH1 0x20 ADD PUSH1 0x40 MLOAD SWAP1 DUP2 ADD PUSH1 0x40 MSTORE DUP1 SWAP3 SWAP2 SWAP1 DUP2 DUP2 MSTORE PUSH1 0x20 ADD DUP3 DUP1 SLOAD PUSH2 0x1D62 SWAP1 PUSH2 0x54F9 JUMP JUMPDEST DUP1 ISZERO PUSH2 0x1DAF JUMPI DUP1 PUSH1 0x1F LT PUSH2 0x1D84 JUMPI PUSH2 0x100 DUP1 DUP4 SLOAD DIV MUL DUP4 MSTORE SWAP2 PUSH1 0x20 ADD SWAP2 PUSH2 0x1DAF JUMP JUMPDEST DUP3 ADD SWAP2 SWAP1 PUSH1 0x0 MSTORE PUSH1 0x20 PUSH1 0x0 KECCAK256 SWAP1 JUMPDEST DUP2 SLOAD DUP2 MSTORE SWAP1 PUSH1 0x1 ADD SWAP1 PUSH1 0x20 ADD DUP1 DUP4 GT PUSH2 0x1D92 JUMPI DUP3 SWAP1 SUB PUSH1 0x1F AND DUP3 ADD SWAP2 JUMPDEST POP POP POP POP POP DUP2 MSTORE PUSH1 0x20 ADD PUSH1 0x4 DUP3 ADD PUSH1 0x0 SWAP1 SLOAD SWAP1 PUSH2 0x100 EXP SWAP1 DIV PUSH1 0x1 PUSH1 0x1 PUSH1 0xA0 SHL SUB AND PUSH1 0x1 PUSH1 0x1 PUSH1 0xA0 SHL SUB AND PUSH1 0x1 PUSH1 0x1 PUSH1 0xA0 SHL SUB AND DUP2 MSTORE PUSH1 0x20 ADD PUSH1 0x5 DUP3 ADD SLOAD DUP2 MSTORE PUSH1 0x20 ADD PUSH1 0x6 DUP3 ADD SLOAD DUP2 MSTORE PUSH1 0x20 ADD PUSH1 0x7 DUP3 ADD SLOAD DUP2 MSTORE PUSH1 0x20 ADD PUSH1 0x8 DUP3 ADD SLOAD DUP2 MSTORE PUSH1 0x20 ADD PUSH1 0x9 DUP3 ADD SLOAD DUP2 MSTORE PUSH1 0x20 ADD PUSH1 0xA DUP3 ADD SLOAD DUP2 MSTORE PUSH1 0x20 ADD PUSH1 0xB DUP3 ADD DUP1 SLOAD DUP1 PUSH1 0x20 MUL PUSH1 0x20 ADD PUSH1 0x40 MLOAD SWAP1 DUP2 ADD PUSH1 0x40 MSTORE DUP1 SWAP3 SWAP2 SWAP1 DUP2 DUP2 MSTORE PUSH1 0x20 ADD DUP3 DUP1 SLOAD DUP1 ISZERO PUSH2 0x1E72 JUMPI PUSH1 0x20 MUL DUP3 ADD SWAP2 SWAP1 PUSH1 0x0 MSTORE PUSH1 0x20 PUSH1 0x0 KECCAK256 SWAP1 JUMPDEST DUP2 SLOAD DUP2 MSTORE PUSH1 0x20 ADD SWAP1 PUSH1 0x1 ADD SWAP1 DUP1 DUP4 GT PUSH2 0x1E5E JUMPI JUMPDEST POP POP POP SWAP2 SWAP1 SWAP3 MSTORE POP POP DUP2 MLOAD SWAP2 SWAP3 POP POP PUSH1 0x0 SUB PUSH2 0x1EA0 JUMPI PUSH1 0x40 MLOAD PUSH3 0x461BCD PUSH1 0xE5 SHL DUP2 MSTORE PUSH1 0x4 ADD PUSH2 0xA59 SWAP1 PUSH2 0x5B19 JUMP JUMPDEST PUSH1 0x1 PUSH1 0x40 DUP3 DUP2 ADD DUP3 DUP2 MSTORE TIMESTAMP PUSH2 0x140 DUP6 ADD MSTORE PUSH1 0x0 DUP6 DUP2 MSTORE PUSH1 0xC PUSH1 0x20 SWAP1 DUP2 MSTORE SWAP3 SWAP1 KECCAK256 DUP5 MLOAD DUP2 SSTORE SWAP2 DUP5 ADD MLOAD SWAP3 DUP3 ADD DUP1 SLOAD PUSH1 0x1 PUSH1 0x1 PUSH1 0xA0 SHL SUB NOT DUP2 AND PUSH1 0x1 PUSH1 0x1 PUSH1 0xA0 SHL SUB SWAP1 SWAP6 AND SWAP5 DUP6 OR DUP3 SSTORE SWAP2 MLOAD DUP6 SWAP5 SWAP1 SWAP3 PUSH1 0x1 PUSH1 0x1 PUSH1 0xA8 SHL SUB NOT AND OR PUSH1 0x1 PUSH1 0xA0 SHL DUP4 PUSH1 0x5 DUP2 GT ISZERO PUSH2 0x1F10 JUMPI PUSH2 0x1F10 PUSH2 0x4DF3 JUMP JUMPDEST MUL OR SWAP1 SSTORE POP PUSH1 0x60 DUP3 ADD MLOAD PUSH1 0x2 DUP3 ADD SWAP1 PUSH2 0x1F29 SWAP1 DUP3 PUSH2 0x5596 JUMP JUMPDEST POP PUSH1 0x80 DUP3 ADD MLOAD PUSH1 0x3 DUP3 ADD SWAP1 PUSH2 0x1F3E SWAP1 DUP3 PUSH2 0x5596 JUMP JUMPDEST POP PUSH1 0xA0 DUP3 ADD MLOAD PUSH1 0x4 DUP3 ADD DUP1 SLOAD PUSH1 0x1 PUSH1 0x1 PUSH1 0xA0 SHL SUB NOT AND PUSH1 0x1 PUSH1 0x1 PUSH1 0xA0 SHL SUB SWAP1 SWAP3 AND SWAP2 SWAP1 SWAP2 OR SWAP1 SSTORE PUSH1 0xC0 DUP3 ADD MLOAD PUSH1 0x5 DUP3 ADD SSTORE PUSH1 0xE0 DUP3 ADD MLOAD PUSH1 0x6 DUP3 ADD SSTORE PUSH2 0x100 DUP3 ADD MLOAD PUSH1 0x7 DUP3 ADD SSTORE PUSH2 0x120 DUP3 ADD MLOAD PUSH1 0x8 DUP3 ADD SSTORE PUSH2 0x140 DUP3 ADD MLOAD PUSH1 0x9 DUP3 ADD SSTORE PUSH2 0x160 DUP3 ADD MLOAD PUSH1 0xA DUP3 ADD SSTORE PUSH2 0x180 DUP3 ADD MLOAD DUP1 MLOAD PUSH2 0x1FC1 SWAP2 PUSH1 0xB DUP5 ADD SWAP2 PUSH1 0x20 SWAP1 SWAP2 ADD SWAP1 PUSH2 0x4889 JUMP JUMPDEST POP POP POP POP POP JUMP JUMPDEST PUSH1 0x40 DUP1 MLOAD DUP1 DUP3 ADD SWAP1 SWAP2 MSTORE PUSH1 0x60 DUP2 MSTORE PUSH1 0x0 PUSH1 0x20 DUP3 ADD MSTORE PUSH1 0x4 DUP4 DUP4 PUSH1 0x40 MLOAD PUSH2 0x1FEF SWAP3 SWAP2 SWAP1 PUSH2 0x54E9 JUMP JUMPDEST SWAP1 DUP2 MSTORE PUSH1 0x20 ADD PUSH1 0x40 MLOAD DUP1 SWAP2 SUB SWAP1 KECCAK256 PUSH1 0x40 MLOAD DUP1 PUSH1 0x40 ADD PUSH1 0x40 MSTORE SWAP1 DUP2 PUSH1 0x0 DUP3 ADD DUP1 SLOAD PUSH2 0x2018 SWAP1 PUSH2 0x54F9 JUMP JUMPDEST DUP1 PUSH1 0x1F ADD PUSH1 0x20 DUP1 SWAP2 DIV MUL PUSH1 0x20 ADD PUSH1 0x40 MLOAD SWAP1 DUP2 ADD PUSH1 0x40 MSTORE DUP1 SWAP3 SWAP2 SWAP1 DUP2 DUP2 MSTORE PUSH1 0x20 ADD DUP3 DUP1 SLOAD PUSH2 0x2044 SWAP1 PUSH2 0x54F9 JUMP JUMPDEST DUP1 ISZERO PUSH2 0x2091 JUMPI DUP1 PUSH1 0x1F LT PUSH2 0x2066 JUMPI PUSH2 0x100 DUP1 DUP4 SLOAD DIV MUL DUP4 MSTORE SWAP2 PUSH1 0x20 ADD SWAP2 PUSH2 0x2091 JUMP JUMPDEST DUP3 ADD SWAP2 SWAP1 PUSH1 0x0 MSTORE PUSH1 0x20 PUSH1 0x0 KECCAK256 SWAP1 JUMPDEST DUP2 SLOAD DUP2 MSTORE SWAP1 PUSH1 0x1 ADD SWAP1 PUSH1 0x20 ADD DUP1 DUP4 GT PUSH2 0x2074 JUMPI DUP3 SWAP1 SUB PUSH1 0x1F AND DUP3 ADD SWAP2 JUMPDEST POP POP POP SWAP2 DUP4 MSTORE POP POP PUSH1 0x1 SWAP2 SWAP1 SWAP2 ADD SLOAD PUSH1 0xFF AND ISZERO ISZERO PUSH1 0x20 SWAP1 SWAP2 ADD MSTORE SWAP4 SWAP3 POP POP POP JUMP JUMPDEST PUSH1 0xF SLOAD PUSH1 0x1 PUSH1 0x1 PUSH1 0xA0 SHL SUB AND CALLER EQ DUP1 PUSH2 0x20D5 JUMPI POP PUSH1 0x10 SLOAD PUSH1 0x1 PUSH1 0x1 PUSH1 0xA0 SHL SUB AND CALLER EQ JUMPDEST PUSH2 0x20F1 JUMPI PUSH1 0x40 MLOAD PUSH3 0x461BCD PUSH1 0xE5 SHL DUP2 MSTORE PUSH1 0x4 ADD PUSH2 0xA59 SWAP1 PUSH2 0x54C3 JUMP JUMPDEST PUSH1 0x0 PUSH1 0x3 DUP4 DUP4 PUSH1 0x40 MLOAD PUSH2 0x2105 SWAP3 SWAP2 SWAP1 PUSH2 0x54E9 JUMP JUMPDEST SWAP1 DUP2 MSTORE PUSH1 0x40 DUP1 MLOAD PUSH1 0x20 SWAP3 DUP2 SWAP1 SUB DUP4 ADD DUP2 KECCAK256 DUP2 DUP4 ADD DUP4 MSTORE DUP1 SLOAD DUP1 DUP4 MSTORE PUSH1 0x1 SWAP2 DUP3 ADD SLOAD PUSH1 0xFF SWAP1 DUP2 AND ISZERO ISZERO DUP7 DUP6 ADD MSTORE PUSH1 0x0 SWAP2 DUP3 MSTORE DUP3 DUP7 MSTORE DUP5 DUP3 KECCAK256 DUP6 MLOAD DUP1 DUP8 ADD SWAP1 SWAP7 MSTORE DUP1 SLOAD DUP1 DUP8 MSTORE SWAP4 ADD SLOAD AND ISZERO ISZERO SWAP5 DUP5 ADD SWAP5 SWAP1 SWAP5 MSTORE PUSH1 0x2 DUP1 SLOAD SWAP3 SWAP6 POP SWAP3 SWAP4 SWAP3 SWAP2 DUP2 LT PUSH2 0x216F JUMPI PUSH2 0x216F PUSH2 0x5A38 JUMP JUMPDEST SWAP1 PUSH1 0x0 MSTORE PUSH1 0x20 PUSH1 0x0 KECCAK256 SWAP1 PUSH1 0xB MUL ADD PUSH1 0x40 MLOAD DUP1 PUSH2 0x180 ADD PUSH1 0x40 MSTORE SWAP1 DUP2 PUSH1 0x0 DUP3 ADD DUP1 SLOAD PUSH2 0x2199 SWAP1 PUSH2 0x54F9 JUMP JUMPDEST DUP1 PUSH1 0x1F ADD PUSH1 0x20 DUP1 SWAP2 DIV MUL PUSH1 0x20 ADD PUSH1 0x40 MLOAD SWAP1 DUP2 ADD PUSH1 0x40 MSTORE DUP1 SWAP3 SWAP2 SWAP1 DUP2 DUP2 MSTORE PUSH1 0x20 ADD DUP3 DUP1 SLOAD PUSH2 0x21C5 SWAP1 PUSH2 0x54F9 JUMP JUMPDEST DUP1 ISZERO PUSH2 0x2212 JUMPI DUP1 PUSH1 0x1F LT PUSH2 0x21E7 JUMPI PUSH2 0x100 DUP1 DUP4 SLOAD DIV MUL DUP4 MSTORE SWAP2 PUSH1 0x20 ADD SWAP2 PUSH2 0x2212 JUMP JUMPDEST DUP3 ADD SWAP2 SWAP1 PUSH1 0x0 MSTORE PUSH1 0x20 PUSH1 0x0 KECCAK256 SWAP1 JUMPDEST DUP2 SLOAD DUP2 MSTORE SWAP1 PUSH1 0x1 ADD SWAP1 PUSH1 0x20 ADD DUP1 DUP4 GT PUSH2 0x21F5 JUMPI DUP3 SWAP1 SUB PUSH1 0x1F AND DUP3 ADD SWAP2 JUMPDEST POP POP POP SWAP2 DUP4 MSTORE POP POP PUSH1 0x1 DUP3 ADD SLOAD PUSH1 0x1 PUSH1 0x1 PUSH1 0x40 SHL SUB DUP2 AND PUSH1 0x20 DUP4 ADD MSTORE PUSH1 0x1 PUSH1 0x40 SHL SWAP1 DIV PUSH1 0xFF AND ISZERO ISZERO PUSH1 0x40 DUP3 ADD MSTORE PUSH1 0x2 DUP3 ADD DUP1 SLOAD PUSH1 0x60 SWAP1 SWAP3 ADD SWAP2 PUSH2 0x2254 SWAP1 PUSH2 0x54F9 JUMP JUMPDEST DUP1 PUSH1 0x1F ADD PUSH1 0x20 DUP1 SWAP2 DIV MUL PUSH1 0x20 ADD PUSH1 0x40 MLOAD SWAP1 DUP2 ADD PUSH1 0x40 MSTORE DUP1 SWAP3 SWAP2 SWAP1 DUP2 DUP2 MSTORE PUSH1 0x20 ADD DUP3 DUP1 SLOAD PUSH2 0x2280 SWAP1 PUSH2 0x54F9 JUMP JUMPDEST DUP1 ISZERO PUSH2 0x22CD JUMPI DUP1 PUSH1 0x1F LT PUSH2 0x22A2 JUMPI PUSH2 0x100 DUP1 DUP4 SLOAD DIV MUL DUP4 MSTORE SWAP2 PUSH1 0x20 ADD SWAP2 PUSH2 0x22CD JUMP JUMPDEST DUP3 ADD SWAP2 SWAP1 PUSH1 0x0 MSTORE PUSH1 0x20 PUSH1 0x0 KECCAK256 SWAP1 JUMPDEST DUP2 SLOAD DUP2 MSTORE SWAP1 PUSH1 0x1 ADD SWAP1 PUSH1 0x20 ADD DUP1 DUP4 GT PUSH2 0x22B0 JUMPI DUP3 SWAP1 SUB PUSH1 0x1F AND DUP3 ADD SWAP2 JUMPDEST POP POP POP SWAP2 DUP4 MSTORE POP POP PUSH1 0x3 DUP3 ADD SLOAD PUSH1 0x7 DUP2 DUP2 SIGNEXTEND PUSH1 0x20 DUP5 ADD MSTORE PUSH1 0x1 PUSH1 0x40 SHL SWAP1 SWAP2 DIV DUP2 SIGNEXTEND PUSH1 0x40 DUP4 ADD MSTORE PUSH1 0x4 DUP4 ADD SLOAD PUSH1 0x60 DUP4 ADD MSTORE PUSH1 0x5 DUP4 ADD SLOAD PUSH1 0x80 DUP4 ADD MSTORE PUSH1 0x6 DUP4 ADD SLOAD PUSH1 0xA0 DUP4 ADD MSTORE DUP3 ADD DUP1 SLOAD PUSH1 0xC0 SWAP1 SWAP3 ADD SWAP2 PUSH2 0x2324 SWAP1 PUSH2 0x54F9 JUMP JUMPDEST DUP1 PUSH1 0x1F ADD PUSH1 0x20 DUP1 SWAP2 DIV MUL PUSH1 0x20 ADD PUSH1 0x40 MLOAD SWAP1 DUP2 ADD PUSH1 0x40 MSTORE DUP1 SWAP3 SWAP2 SWAP1 DUP2 DUP2 MSTORE PUSH1 0x20 ADD DUP3 DUP1 SLOAD PUSH2 0x2350 SWAP1 PUSH2 0x54F9 JUMP JUMPDEST DUP1 ISZERO PUSH2 0x239D JUMPI DUP1 PUSH1 0x1F LT PUSH2 0x2372 JUMPI PUSH2 0x100 DUP1 DUP4 SLOAD DIV MUL DUP4 MSTORE SWAP2 PUSH1 0x20 ADD SWAP2 PUSH2 0x239D JUMP JUMPDEST DUP3 ADD SWAP2 SWAP1 PUSH1 0x0 MSTORE PUSH1 0x20 PUSH1 0x0 KECCAK256 SWAP1 JUMPDEST DUP2 SLOAD DUP2 MSTORE SWAP1 PUSH1 0x1 ADD SWAP1 PUSH1 0x20 ADD DUP1 DUP4 GT PUSH2 0x2380 JUMPI DUP3 SWAP1 SUB PUSH1 0x1F AND DUP3 ADD SWAP2 JUMPDEST POP POP POP SWAP2 DUP4 MSTORE POP POP PUSH1 0x8 DUP3 ADD SLOAD PUSH1 0x1 PUSH1 0x1 PUSH1 0x40 SHL SUB AND PUSH1 0x20 DUP3 ADD MSTORE PUSH1 0x40 DUP1 MLOAD PUSH1 0x80 DUP2 ADD DUP3 MSTORE PUSH1 0x9 DUP5 ADD DUP1 SLOAD SWAP3 SWAP1 SWAP4 ADD SWAP3 SWAP1 SWAP2 DUP3 SWAP1 DUP3 SWAP1 PUSH2 0x23DC SWAP1 PUSH2 0x54F9 JUMP JUMPDEST DUP1 PUSH1 0x1F ADD PUSH1 0x20 DUP1 SWAP2 DIV MUL PUSH1 0x20 ADD PUSH1 0x40 MLOAD SWAP1 DUP2 ADD PUSH1 0x40 MSTORE DUP1 SWAP3 SWAP2 SWAP1 DUP2 DUP2 MSTORE PUSH1 0x20 ADD DUP3 DUP1 SLOAD PUSH2 0x2408 SWAP1 PUSH2 0x54F9 JUMP JUMPDEST DUP1 ISZERO PUSH2 0x2455 JUMPI DUP1 PUSH1 0x1F LT PUSH2 0x242A JUMPI PUSH2 0x100 DUP1 DUP4 SLOAD DIV MUL DUP4 MSTORE SWAP2 PUSH1 0x20 ADD SWAP2 PUSH2 0x2455 JUMP JUMPDEST DUP3 ADD SWAP2 SWAP1 PUSH1 0x0 MSTORE PUSH1 0x20 PUSH1 0x0 KECCAK256 SWAP1 JUMPDEST DUP2 SLOAD DUP2 MSTORE SWAP1 PUSH1 0x1 ADD SWAP1 PUSH1 0x20 ADD DUP1 DUP4 GT PUSH2 0x2438 JUMPI DUP3 SWAP1 SUB PUSH1 0x1F AND DUP3 ADD SWAP2 JUMPDEST POP POP POP SWAP2 DUP4 MSTORE POP POP PUSH1 0x1 SWAP2 DUP3 ADD SLOAD PUSH1 0x1 PUSH1 0x1 PUSH1 0x40 SHL SUB DUP2 AND PUSH1 0x20 DUP4 ADD MSTORE PUSH1 0xFF PUSH1 0x1 PUSH1 0x40 SHL DUP3 DIV DUP2 AND ISZERO ISZERO PUSH1 0x40 DUP5 ADD MSTORE PUSH1 0x1 PUSH1 0x48 SHL SWAP1 SWAP2 DIV AND ISZERO ISZERO PUSH1 0x60 SWAP1 SWAP2 ADD MSTORE SWAP2 MSTORE PUSH2 0x120 DUP4 ADD MLOAD PUSH1 0x7 DUP1 SLOAD SWAP3 DUP4 ADD DUP2 SSTORE PUSH1 0x0 MSTORE SWAP3 SWAP4 POP PUSH32 0xA66CC928B5EDB82AF9BD49922954155AB7B0942694BEA4CE44661D9A8736C688 ADD SWAP2 PUSH2 0x1BE3 SWAP2 POP DUP3 PUSH2 0x5596 JUMP JUMPDEST PUSH1 0xF SLOAD PUSH1 0x1 PUSH1 0x1 PUSH1 0xA0 SHL SUB AND CALLER EQ DUP1 PUSH2 0x24FD JUMPI POP PUSH1 0x10 SLOAD PUSH1 0x1 PUSH1 0x1 PUSH1 0xA0 SHL SUB AND CALLER EQ JUMPDEST PUSH2 0x2519 JUMPI PUSH1 0x40 MLOAD PUSH3 0x461BCD PUSH1 0xE5 SHL DUP2 MSTORE PUSH1 0x4 ADD PUSH2 0xA59 SWAP1 PUSH2 0x54C3 JUMP JUMPDEST DUP1 CALLDATALOAD PUSH1 0x0 SWAP1 DUP2 MSTORE PUSH1 0xC PUSH1 0x20 SWAP1 DUP2 MSTORE PUSH1 0x40 DUP1 DUP4 KECCAK256 DUP2 MLOAD PUSH2 0x1A0 DUP2 ADD DUP4 MSTORE DUP2 SLOAD DUP2 MSTORE PUSH1 0x1 DUP3 ADD SLOAD PUSH1 0x1 PUSH1 0x1 PUSH1 0xA0 SHL SUB DUP2 AND SWAP5 DUP3 ADD SWAP5 SWAP1 SWAP5 MSTORE SWAP3 SWAP1 SWAP2 DUP4 ADD SWAP1 PUSH1 0x1 PUSH1 0xA0 SHL SWAP1 DIV PUSH1 0xFF AND PUSH1 0x5 DUP2 GT ISZERO PUSH2 0x2570 JUMPI PUSH2 0x2570 PUSH2 0x4DF3 JUMP JUMPDEST PUSH1 0x5 DUP2 GT ISZERO PUSH2 0x2581 JUMPI PUSH2 0x2581 PUSH2 0x4DF3 JUMP JUMPDEST DUP2 MSTORE PUSH1 0x20 ADD PUSH1 0x2 DUP3 ADD DUP1 SLOAD PUSH2 0x2595 SWAP1 PUSH2 0x54F9 JUMP JUMPDEST DUP1 PUSH1 0x1F ADD PUSH1 0x20 DUP1 SWAP2 DIV MUL PUSH1 0x20 ADD PUSH1 0x40 MLOAD SWAP1 DUP2 ADD PUSH1 0x40 MSTORE DUP1 SWAP3 SWAP2 SWAP1 DUP2 DUP2 MSTORE PUSH1 0x20 ADD DUP3 DUP1 SLOAD PUSH2 0x25C1 SWAP1 PUSH2 0x54F9 JUMP JUMPDEST DUP1 ISZERO PUSH2 0x260E JUMPI DUP1 PUSH1 0x1F LT PUSH2 0x25E3 JUMPI PUSH2 0x100 DUP1 DUP4 SLOAD DIV MUL DUP4 MSTORE SWAP2 PUSH1 0x20 ADD SWAP2 PUSH2 0x260E JUMP JUMPDEST DUP3 ADD SWAP2 SWAP1 PUSH1 0x0 MSTORE PUSH1 0x20 PUSH1 0x0 KECCAK256 SWAP1 JUMPDEST DUP2 SLOAD DUP2 MSTORE SWAP1 PUSH1 0x1 ADD SWAP1 PUSH1 0x20 ADD DUP1 DUP4 GT PUSH2 0x25F1 JUMPI DUP3 SWAP1 SUB PUSH1 0x1F AND DUP3 ADD SWAP2 JUMPDEST POP POP POP POP POP DUP2 MSTORE PUSH1 0x20 ADD PUSH1 0x3 DUP3 ADD DUP1 SLOAD PUSH2 0x2627 SWAP1 PUSH2 0x54F9 JUMP JUMPDEST DUP1 PUSH1 0x1F ADD PUSH1 0x20 DUP1 SWAP2 DIV MUL PUSH1 0x20 ADD PUSH1 0x40 MLOAD SWAP1 DUP2 ADD PUSH1 0x40 MSTORE DUP1 SWAP3 SWAP2 SWAP1 DUP2 DUP2 MSTORE PUSH1 0x20 ADD DUP3 DUP1 SLOAD PUSH2 0x2653 SWAP1 PUSH2 0x54F9 JUMP JUMPDEST DUP1 ISZERO PUSH2 0x26A0 JUMPI DUP1 PUSH1 0x1F LT PUSH2 0x2675 JUMPI PUSH2 0x100 DUP1 DUP4 SLOAD DIV MUL DUP4 MSTORE SWAP2 PUSH1 0x20 ADD SWAP2 PUSH2 0x26A0 JUMP JUMPDEST DUP3 ADD SWAP2 SWAP1 PUSH1 0x0 MSTORE PUSH1 0x20 PUSH1 0x0 KECCAK256 SWAP1 JUMPDEST DUP2 SLOAD DUP2 MSTORE SWAP1 PUSH1 0x1 ADD SWAP1 PUSH1 0x20 ADD DUP1 DUP4 GT PUSH2 0x2683 JUMPI DUP3 SWAP1 SUB PUSH1 0x1F AND DUP3 ADD SWAP2 JUMPDEST POP POP POP POP POP DUP2 MSTORE PUSH1 0x20 ADD PUSH1 0x4 DUP3 ADD PUSH1 0x0 SWAP1 SLOAD SWAP1 PUSH2 0x100 EXP SWAP1 DIV PUSH1 0x1 PUSH1 0x1 PUSH1 0xA0 SHL SUB AND PUSH1 0x1 PUSH1 0x1 PUSH1 0xA0 SHL SUB AND PUSH1 0x1 PUSH1 0x1 PUSH1 0xA0 SHL SUB AND DUP2 MSTORE PUSH1 0x20 ADD PUSH1 0x5 DUP3 ADD SLOAD DUP2 MSTORE PUSH1 0x20 ADD PUSH1 0x6 DUP3 ADD SLOAD DUP2 MSTORE PUSH1 0x20 ADD PUSH1 0x7 DUP3 ADD SLOAD DUP2 MSTORE PUSH1 0x20 ADD PUSH1 0x8 DUP3 ADD SLOAD DUP2 MSTORE PUSH1 0x20 ADD PUSH1 0x9 DUP3 ADD SLOAD DUP2 MSTORE PUSH1 0x20 ADD PUSH1 0xA DUP3 ADD SLOAD DUP2 MSTORE PUSH1 0x20 ADD PUSH1 0xB DUP3 ADD DUP1 SLOAD DUP1 PUSH1 0x20 MUL PUSH1 0x20 ADD PUSH1 0x40 MLOAD SWAP1 DUP2 ADD PUSH1 0x40 MSTORE DUP1 SWAP3 SWAP2 SWAP1 DUP2 DUP2 MSTORE PUSH1 0x20 ADD DUP3 DUP1 SLOAD DUP1 ISZERO PUSH2 0x2763 JUMPI PUSH1 0x20 MUL DUP3 ADD SWAP2 SWAP1 PUSH1 0x0 MSTORE PUSH1 0x20 PUSH1 0x0 KECCAK256 SWAP1 JUMPDEST DUP2 SLOAD DUP2 MSTORE PUSH1 0x20 ADD SWAP1 PUSH1 0x1 ADD SWAP1 DUP1 DUP4 GT PUSH2 0x274F JUMPI JUMPDEST POP POP POP SWAP2 SWAP1 SWAP3 MSTORE POP POP DUP2 MLOAD SWAP2 SWAP3 POP POP ISZERO PUSH2 0x27BF JUMPI PUSH1 0x40 MLOAD PUSH3 0x461BCD PUSH1 0xE5 SHL DUP2 MSTORE PUSH1 0x20 PUSH1 0x4 DUP3 ADD MSTORE PUSH1 0x17 PUSH1 0x24 DUP3 ADD MSTORE PUSH32 0x50726F706F73616C20616C726561647920657869737473000000000000000000 PUSH1 0x44 DUP3 ADD MSTORE PUSH1 0x64 ADD PUSH2 0xA59 JUMP JUMPDEST DUP2 CALLDATALOAD PUSH1 0x0 SWAP1 DUP2 MSTORE PUSH1 0xC PUSH1 0x20 MSTORE PUSH1 0x40 SWAP1 KECCAK256 DUP3 SWAP1 PUSH2 0x27DB DUP3 DUP3 PUSH2 0x5D56 JUMP JUMPDEST SWAP1 POP POP DUP2 PUSH1 0xC0 ADD CALLDATALOAD PUSH1 0x15 PUSH1 0x0 ADD PUSH1 0x0 DUP3 DUP3 SLOAD PUSH2 0x27F7 SWAP2 SWAP1 PUSH2 0x5AED JUMP JUMPDEST SWAP1 SWAP2 SSTORE POP POP POP POP JUMP JUMPDEST PUSH1 0x0 SWAP2 DUP3 MSTORE PUSH1 0x20 DUP3 DUP2 MSTORE PUSH1 0x40 DUP1 DUP5 KECCAK256 PUSH1 0x1 PUSH1 0x1 PUSH1 0xA0 SHL SUB SWAP4 SWAP1 SWAP4 AND DUP5 MSTORE SWAP2 SWAP1 MSTORE SWAP1 KECCAK256 SLOAD PUSH1 0xFF AND SWAP1 JUMP JUMPDEST PUSH2 0x2831 PUSH2 0x480A JUMP JUMPDEST PUSH1 0x2 DUP3 DUP2 SLOAD DUP2 LT PUSH2 0x2844 JUMPI PUSH2 0x2844 PUSH2 0x5A38 JUMP JUMPDEST SWAP1 PUSH1 0x0 MSTORE PUSH1 0x20 PUSH1 0x0 KECCAK256 SWAP1 PUSH1 0xB MUL ADD PUSH1 0x40 MLOAD DUP1 PUSH2 0x180 ADD PUSH1 0x40 MSTORE SWAP1 DUP2 PUSH1 0x0 DUP3 ADD DUP1 SLOAD PUSH2 0x286E SWAP1 PUSH2 0x54F9 JUMP JUMPDEST DUP1 PUSH1 0x1F ADD PUSH1 0x20 DUP1 SWAP2 DIV MUL PUSH1 0x20 ADD PUSH1 0x40 MLOAD SWAP1 DUP2 ADD PUSH1 0x40 MSTORE DUP1 SWAP3 SWAP2 SWAP1 DUP2 DUP2 MSTORE PUSH1 0x20 ADD DUP3 DUP1 SLOAD PUSH2 0x289A SWAP1 PUSH2 0x54F9 JUMP JUMPDEST DUP1 ISZERO PUSH2 0x28E7 JUMPI DUP1 PUSH1 0x1F LT PUSH2 0x28BC JUMPI PUSH2 0x100 DUP1 DUP4 SLOAD DIV MUL DUP4 MSTORE SWAP2 PUSH1 0x20 ADD SWAP2 PUSH2 0x28E7 JUMP JUMPDEST DUP3 ADD SWAP2 SWAP1 PUSH1 0x0 MSTORE PUSH1 0x20 PUSH1 0x0 KECCAK256 SWAP1 JUMPDEST DUP2 SLOAD DUP2 MSTORE SWAP1 PUSH1 0x1 ADD SWAP1 PUSH1 0x20 ADD DUP1 DUP4 GT PUSH2 0x28CA JUMPI DUP3 SWAP1 SUB PUSH1 0x1F AND DUP3 ADD SWAP2 JUMPDEST POP POP POP SWAP2 DUP4 MSTORE POP POP PUSH1 0x1 DUP3 ADD SLOAD PUSH1 0x1 PUSH1 0x1 PUSH1 0x40 SHL SUB DUP2 AND PUSH1 0x20 DUP4 ADD MSTORE PUSH1 0x1 PUSH1 0x40 SHL SWAP1 DIV PUSH1 0xFF AND ISZERO ISZERO PUSH1 0x40 DUP3 ADD MSTORE PUSH1 0x2 DUP3 ADD DUP1 SLOAD PUSH1 0x60 SWAP1 SWAP3 ADD SWAP2 PUSH2 0x2929 SWAP1 PUSH2 0x54F9 JUMP JUMPDEST DUP1 PUSH1 0x1F ADD PUSH1 0x20 DUP1 SWAP2 DIV MUL PUSH1 0x20 ADD PUSH1 0x40 MLOAD SWAP1 DUP2 ADD PUSH1 0x40 MSTORE DUP1 SWAP3 SWAP2 SWAP1 DUP2 DUP2 MSTORE PUSH1 0x20 ADD DUP3 DUP1 SLOAD PUSH2 0x2955 SWAP1 PUSH2 0x54F9 JUMP JUMPDEST DUP1 ISZERO PUSH2 0x29A2 JUMPI DUP1 PUSH1 0x1F LT PUSH2 0x2977 JUMPI PUSH2 0x100 DUP1 DUP4 SLOAD DIV MUL DUP4 MSTORE SWAP2 PUSH1 0x20 ADD SWAP2 PUSH2 0x29A2 JUMP JUMPDEST DUP3 ADD SWAP2 SWAP1 PUSH1 0x0 MSTORE PUSH1 0x20 PUSH1 0x0 KECCAK256 SWAP1 JUMPDEST DUP2 SLOAD DUP2 MSTORE SWAP1 PUSH1 0x1 ADD SWAP1 PUSH1 0x20 ADD DUP1 DUP4 GT PUSH2 0x2985 JUMPI DUP3 SWAP1 SUB PUSH1 0x1F AND DUP3 ADD SWAP2 JUMPDEST POP POP POP SWAP2 DUP4 MSTORE POP POP PUSH1 0x3 DUP3 ADD SLOAD PUSH1 0x7 DUP2 DUP2 SIGNEXTEND PUSH1 0x20 DUP5 ADD MSTORE PUSH1 0x1 PUSH1 0x40 SHL SWAP1 SWAP2 DIV DUP2 SIGNEXTEND PUSH1 0x40 DUP4 ADD MSTORE PUSH1 0x4 DUP4 ADD SLOAD PUSH1 0x60 DUP4 ADD MSTORE PUSH1 0x5 DUP4 ADD SLOAD PUSH1 0x80 DUP4 ADD MSTORE PUSH1 0x6 DUP4 ADD SLOAD PUSH1 0xA0 DUP4 ADD MSTORE DUP3 ADD DUP1 SLOAD PUSH1 0xC0 SWAP1 SWAP3 ADD SWAP2 PUSH2 0x29F9 SWAP1 PUSH2 0x54F9 JUMP JUMPDEST DUP1 PUSH1 0x1F ADD PUSH1 0x20 DUP1 SWAP2 DIV MUL PUSH1 0x20 ADD PUSH1 0x40 MLOAD SWAP1 DUP2 ADD PUSH1 0x40 MSTORE DUP1 SWAP3 SWAP2 SWAP1 DUP2 DUP2 MSTORE PUSH1 0x20 ADD DUP3 DUP1 SLOAD PUSH2 0x2A25 SWAP1 PUSH2 0x54F9 JUMP JUMPDEST DUP1 ISZERO PUSH2 0x2A72 JUMPI DUP1 PUSH1 0x1F LT PUSH2 0x2A47 JUMPI PUSH2 0x100 DUP1 DUP4 SLOAD DIV MUL DUP4 MSTORE SWAP2 PUSH1 0x20 ADD SWAP2 PUSH2 0x2A72 JUMP JUMPDEST DUP3 ADD SWAP2 SWAP1 PUSH1 0x0 MSTORE PUSH1 0x20 PUSH1 0x0 KECCAK256 SWAP1 JUMPDEST DUP2 SLOAD DUP2 MSTORE SWAP1 PUSH1 0x1 ADD SWAP1 PUSH1 0x20 ADD DUP1 DUP4 GT PUSH2 0x2A55 JUMPI DUP3 SWAP1 SUB PUSH1 0x1F AND DUP3 ADD SWAP2 JUMPDEST POP POP POP SWAP2 DUP4 MSTORE POP POP PUSH1 0x8 DUP3 ADD SLOAD PUSH1 0x1 PUSH1 0x1 PUSH1 0x40 SHL SUB AND PUSH1 0x20 DUP3 ADD MSTORE PUSH1 0x40 DUP1 MLOAD PUSH1 0x80 DUP2 ADD DUP3 MSTORE PUSH1 0x9 DUP5 ADD DUP1 SLOAD SWAP3 SWAP1 SWAP4 ADD SWAP3 SWAP1 SWAP2 DUP3 SWAP1 DUP3 SWAP1 PUSH2 0x2AB1 SWAP1 PUSH2 0x54F9 JUMP JUMPDEST DUP1 PUSH1 0x1F ADD PUSH1 0x20 DUP1 SWAP2 DIV MUL PUSH1 0x20 ADD PUSH1 0x40 MLOAD SWAP1 DUP2 ADD PUSH1 0x40 MSTORE DUP1 SWAP3 SWAP2 SWAP1 DUP2 DUP2 MSTORE PUSH1 0x20 ADD DUP3 DUP1 SLOAD PUSH2 0x2ADD SWAP1 PUSH2 0x54F9 JUMP JUMPDEST DUP1 ISZERO PUSH2 0x2B2A JUMPI DUP1 PUSH1 0x1F LT PUSH2 0x2AFF JUMPI PUSH2 0x100 DUP1 DUP4 SLOAD DIV MUL DUP4 MSTORE SWAP2 PUSH1 0x20 ADD SWAP2 PUSH2 0x2B2A JUMP JUMPDEST DUP3 ADD SWAP2 SWAP1 PUSH1 0x0 MSTORE PUSH1 0x20 PUSH1 0x0 KECCAK256 SWAP1 JUMPDEST DUP2 SLOAD DUP2 MSTORE SWAP1 PUSH1 0x1 ADD SWAP1 PUSH1 0x20 ADD DUP1 DUP4 GT PUSH2 0x2B0D JUMPI DUP3 SWAP1 SUB PUSH1 0x1F AND DUP3 ADD SWAP2 JUMPDEST POP POP POP SWAP2 DUP4 MSTORE POP POP PUSH1 0x1 SWAP2 SWAP1 SWAP2 ADD SLOAD PUSH1 0x1 PUSH1 0x1 PUSH1 0x40 SHL SUB DUP2 AND PUSH1 0x20 DUP4 ADD MSTORE PUSH1 0xFF PUSH1 0x1 PUSH1 0x40 SHL DUP3 DIV DUP2 AND ISZERO ISZERO PUSH1 0x40 DUP5 ADD MSTORE PUSH1 0x1 PUSH1 0x48 SHL SWAP1 SWAP2 DIV AND ISZERO ISZERO PUSH1 0x60 SWAP1 SWAP2 ADD MSTORE SWAP1 MSTORE POP SWAP3 SWAP2 POP POP JUMP JUMPDEST PUSH1 0xF SLOAD PUSH1 0x1 PUSH1 0x1 PUSH1 0xA0 SHL SUB AND CALLER EQ DUP1 PUSH2 0x2B97 JUMPI POP PUSH1 0x10 SLOAD PUSH1 0x1 PUSH1 0x1 PUSH1 0xA0 SHL SUB AND CALLER EQ JUMPDEST PUSH2 0x2BB3 JUMPI PUSH1 0x40 MLOAD PUSH3 0x461BCD PUSH1 0xE5 SHL DUP2 MSTORE PUSH1 0x4 ADD PUSH2 0xA59 SWAP1 PUSH2 0x54C3 JUMP JUMPDEST DUP1 PUSH1 0x5 DUP5 DUP5 PUSH1 0x40 MLOAD PUSH2 0x2BC6 SWAP3 SWAP2 SWAP1 PUSH2 0x54E9 JUMP JUMPDEST SWAP1 DUP2 MSTORE PUSH1 0x40 MLOAD SWAP1 DUP2 SWAP1 SUB PUSH1 0x20 ADD SWAP1 KECCAK256 DUP1 SLOAD PUSH1 0x1 PUSH1 0x1 PUSH1 0x40 SHL SUB SWAP3 SWAP1 SWAP3 AND PUSH8 0xFFFFFFFFFFFFFFFF NOT SWAP1 SWAP3 AND SWAP2 SWAP1 SWAP2 OR SWAP1 SSTORE POP POP POP JUMP JUMPDEST PUSH1 0x0 DUP2 DUP2 MSTORE PUSH1 0xC PUSH1 0x20 SWAP1 DUP2 MSTORE PUSH1 0x40 DUP1 DUP4 KECCAK256 DUP2 MLOAD PUSH2 0x1A0 DUP2 ADD DUP4 MSTORE DUP2 SLOAD DUP2 MSTORE PUSH1 0x1 DUP3 ADD SLOAD PUSH1 0x1 PUSH1 0x1 PUSH1 0xA0 SHL SUB DUP2 AND SWAP5 DUP3 ADD SWAP5 SWAP1 SWAP5 MSTORE PUSH1 0x60 SWAP5 SWAP4 SWAP1 SWAP3 DUP4 ADD SWAP1 PUSH1 0x1 PUSH1 0xA0 SHL SWAP1 DIV PUSH1 0xFF AND PUSH1 0x5 DUP2 GT ISZERO PUSH2 0x2C53 JUMPI PUSH2 0x2C53 PUSH2 0x4DF3 JUMP JUMPDEST PUSH1 0x5 DUP2 GT ISZERO PUSH2 0x2C64 JUMPI PUSH2 0x2C64 PUSH2 0x4DF3 JUMP JUMPDEST DUP2 MSTORE PUSH1 0x20 ADD PUSH1 0x2 DUP3 ADD DUP1 SLOAD PUSH2 0x2C78 SWAP1 PUSH2 0x54F9 JUMP JUMPDEST DUP1 PUSH1 0x1F ADD PUSH1 0x20 DUP1 SWAP2 DIV MUL PUSH1 0x20 ADD PUSH1 0x40 MLOAD SWAP1 DUP2 ADD PUSH1 0x40 MSTORE DUP1 SWAP3 SWAP2 SWAP1 DUP2 DUP2 MSTORE PUSH1 0x20 ADD DUP3 DUP1 SLOAD PUSH2 0x2CA4 SWAP1 PUSH2 0x54F9 JUMP JUMPDEST DUP1 ISZERO PUSH2 0x2CF1 JUMPI DUP1 PUSH1 0x1F LT PUSH2 0x2CC6 JUMPI PUSH2 0x100 DUP1 DUP4 SLOAD DIV MUL DUP4 MSTORE SWAP2 PUSH1 0x20 ADD SWAP2 PUSH2 0x2CF1 JUMP JUMPDEST DUP3 ADD SWAP2 SWAP1 PUSH1 0x0 MSTORE PUSH1 0x20 PUSH1 0x0 KECCAK256 SWAP1 JUMPDEST DUP2 SLOAD DUP2 MSTORE SWAP1 PUSH1 0x1 ADD SWAP1 PUSH1 0x20 ADD DUP1 DUP4 GT PUSH2 0x2CD4 JUMPI DUP3 SWAP1 SUB PUSH1 0x1F AND DUP3 ADD SWAP2 JUMPDEST POP POP POP POP POP DUP2 MSTORE PUSH1 0x20 ADD PUSH1 0x3 DUP3 ADD DUP1 SLOAD PUSH2 0x2D0A SWAP1 PUSH2 0x54F9 JUMP JUMPDEST DUP1 PUSH1 0x1F ADD PUSH1 0x20 DUP1 SWAP2 DIV MUL PUSH1 0x20 ADD PUSH1 0x40 MLOAD SWAP1 DUP2 ADD PUSH1 0x40 MSTORE DUP1 SWAP3 SWAP2 SWAP1 DUP2 DUP2 MSTORE PUSH1 0x20 ADD DUP3 DUP1 SLOAD PUSH2 0x2D36 SWAP1 PUSH2 0x54F9 JUMP JUMPDEST DUP1 ISZERO PUSH2 0x2D83 JUMPI DUP1 PUSH1 0x1F LT PUSH2 0x2D58 JUMPI PUSH2 0x100 DUP1 DUP4 SLOAD DIV MUL DUP4 MSTORE SWAP2 PUSH1 0x20 ADD SWAP2 PUSH2 0x2D83 JUMP JUMPDEST DUP3 ADD SWAP2 SWAP1 PUSH1 0x0 MSTORE PUSH1 0x20 PUSH1 0x0 KECCAK256 SWAP1 JUMPDEST DUP2 SLOAD DUP2 MSTORE SWAP1 PUSH1 0x1 ADD SWAP1 PUSH1 0x20 ADD DUP1 DUP4 GT PUSH2 0x2D66 JUMPI DUP3 SWAP1 SUB PUSH1 0x1F AND DUP3 ADD SWAP2 JUMPDEST POP POP POP POP POP DUP2 MSTORE PUSH1 0x20 ADD PUSH1 0x4 DUP3 ADD PUSH1 0x0 SWAP1 SLOAD SWAP1 PUSH2 0x100 EXP SWAP1 DIV PUSH1 0x1 PUSH1 0x1 PUSH1 0xA0 SHL SUB AND PUSH1 0x1 PUSH1 0x1 PUSH1 0xA0 SHL SUB AND PUSH1 0x1 PUSH1 0x1 PUSH1 0xA0 SHL SUB AND DUP2 MSTORE PUSH1 0x20 ADD PUSH1 0x5 DUP3 ADD SLOAD DUP2 MSTORE PUSH1 0x20 ADD PUSH1 0x6 DUP3 ADD SLOAD DUP2 MSTORE PUSH1 0x20 ADD PUSH1 0x7 DUP3 ADD SLOAD DUP2 MSTORE PUSH1 0x20 ADD PUSH1 0x8 DUP3 ADD SLOAD DUP2 MSTORE PUSH1 0x20 ADD PUSH1 0x9 DUP3 ADD SLOAD DUP2 MSTORE PUSH1 0x20 ADD PUSH1 0xA DUP3 ADD SLOAD DUP2 MSTORE PUSH1 0x20 ADD PUSH1 0xB DUP3 ADD DUP1 SLOAD DUP1 PUSH1 0x20 MUL PUSH1 0x20 ADD PUSH1 0x40 MLOAD SWAP1 DUP2 ADD PUSH1 0x40 MSTORE DUP1 SWAP3 SWAP2 SWAP1 DUP2 DUP2 MSTORE PUSH1 0x20 ADD DUP3 DUP1 SLOAD DUP1 ISZERO PUSH2 0x2E46 JUMPI PUSH1 0x20 MUL DUP3 ADD SWAP2 SWAP1 PUSH1 0x0 MSTORE PUSH1 0x20 PUSH1 0x0 KECCAK256 SWAP1 JUMPDEST DUP2 SLOAD DUP2 MSTORE PUSH1 0x20 ADD SWAP1 PUSH1 0x1 ADD SWAP1 DUP1 DUP4 GT PUSH2 0x2E32 JUMPI JUMPDEST POP POP POP SWAP2 SWAP1 SWAP3 MSTORE POP POP DUP2 MLOAD SWAP2 SWAP3 POP POP PUSH1 0x0 SUB PUSH2 0x2E74 JUMPI PUSH1 0x40 MLOAD PUSH3 0x461BCD PUSH1 0xE5 SHL DUP2 MSTORE PUSH1 0x4 ADD PUSH2 0xA59 SWAP1 PUSH2 0x5B19 JUMP JUMPDEST PUSH2 0x180 ADD MLOAD SWAP3 SWAP2 POP POP JUMP JUMPDEST PUSH2 0x2EF3 PUSH1 0x40 DUP1 MLOAD PUSH2 0x1A0 DUP2 ADD DUP3 MSTORE PUSH1 0x0 DUP1 DUP3 MSTORE PUSH1 0x20 DUP3 ADD DUP2 SWAP1 MSTORE SWAP1 SWAP2 DUP3 ADD SWAP1 DUP2 MSTORE PUSH1 0x20 ADD PUSH1 0x60 DUP2 MSTORE PUSH1 0x20 ADD PUSH1 0x60 DUP2 MSTORE PUSH1 0x20 ADD PUSH1 0x0 PUSH1 0x1 PUSH1 0x1 PUSH1 0xA0 SHL SUB AND DUP2 MSTORE PUSH1 0x20 ADD PUSH1 0x0 DUP2 MSTORE PUSH1 0x20 ADD PUSH1 0x0 DUP2 MSTORE PUSH1 0x20 ADD PUSH1 0x0 DUP2 MSTORE PUSH1 0x20 ADD PUSH1 0x0 DUP2 MSTORE PUSH1 0x20 ADD PUSH1 0x0 DUP2 MSTORE PUSH1 0x20 ADD PUSH1 0x0 DUP2 MSTORE PUSH1 0x20 ADD PUSH1 0x60 DUP2 MSTORE POP SWAP1 JUMP JUMPDEST PUSH1 0x0 DUP3 DUP2 MSTORE PUSH1 0xC PUSH1 0x20 SWAP1 DUP2 MSTORE PUSH1 0x40 SWAP2 DUP3 SWAP1 KECCAK256 DUP3 MLOAD PUSH2 0x1A0 DUP2 ADD DUP5 MSTORE DUP2 SLOAD DUP2 MSTORE PUSH1 0x1 DUP3 ADD SLOAD PUSH1 0x1 PUSH1 0x1 PUSH1 0xA0 SHL SUB DUP2 AND SWAP4 DUP3 ADD SWAP4 SWAP1 SWAP4 MSTORE SWAP3 SWAP1 SWAP2 SWAP1 DUP4 ADD SWAP1 PUSH1 0x1 PUSH1 0xA0 SHL SWAP1 DIV PUSH1 0xFF AND PUSH1 0x5 DUP2 GT ISZERO PUSH2 0x2F4A JUMPI PUSH2 0x2F4A PUSH2 0x4DF3 JUMP JUMPDEST PUSH1 0x5 DUP2 GT ISZERO PUSH2 0x2F5B JUMPI PUSH2 0x2F5B PUSH2 0x4DF3 JUMP JUMPDEST DUP2 MSTORE PUSH1 0x20 ADD PUSH1 0x2 DUP3 ADD DUP1 SLOAD PUSH2 0x2F6F SWAP1 PUSH2 0x54F9 JUMP JUMPDEST DUP1 PUSH1 0x1F ADD PUSH1 0x20 DUP1 SWAP2 DIV MUL PUSH1 0x20 ADD PUSH1 0x40 MLOAD SWAP1 DUP2 ADD PUSH1 0x40 MSTORE DUP1 SWAP3 SWAP2 SWAP1 DUP2 DUP2 MSTORE PUSH1 0x20 ADD DUP3 DUP1 SLOAD PUSH2 0x2F9B SWAP1 PUSH2 0x54F9 JUMP JUMPDEST DUP1 ISZERO PUSH2 0x2FE8 JUMPI DUP1 PUSH1 0x1F LT PUSH2 0x2FBD JUMPI PUSH2 0x100 DUP1 DUP4 SLOAD DIV MUL DUP4 MSTORE SWAP2 PUSH1 0x20 ADD SWAP2 PUSH2 0x2FE8 JUMP JUMPDEST DUP3 ADD SWAP2 SWAP1 PUSH1 0x0 MSTORE PUSH1 0x20 PUSH1 0x0 KECCAK256 SWAP1 JUMPDEST DUP2 SLOAD DUP2 MSTORE SWAP1 PUSH1 0x1 ADD SWAP1 PUSH1 0x20 ADD DUP1 DUP4 GT PUSH2 0x2FCB JUMPI DUP3 SWAP1 SUB PUSH1 0x1F AND DUP3 ADD SWAP2 JUMPDEST POP POP POP POP POP DUP2 MSTORE PUSH1 0x20 ADD PUSH1 0x3 DUP3 ADD DUP1 SLOAD PUSH2 0x3001 SWAP1 PUSH2 0x54F9 JUMP JUMPDEST DUP1 PUSH1 0x1F ADD PUSH1 0x20 DUP1 SWAP2 DIV MUL PUSH1 0x20 ADD PUSH1 0x40 MLOAD SWAP1 DUP2 ADD PUSH1 0x40 MSTORE DUP1 SWAP3 SWAP2 SWAP1 DUP2 DUP2 MSTORE PUSH1 0x20 ADD DUP3 DUP1 SLOAD PUSH2 0x302D SWAP1 PUSH2 0x54F9 JUMP JUMPDEST DUP1 ISZERO PUSH2 0x307A JUMPI DUP1 PUSH1 0x1F LT PUSH2 0x304F JUMPI PUSH2 0x100 DUP1 DUP4 SLOAD DIV MUL DUP4 MSTORE SWAP2 PUSH1 0x20 ADD SWAP2 PUSH2 0x307A JUMP JUMPDEST DUP3 ADD SWAP2 SWAP1 PUSH1 0x0 MSTORE PUSH1 0x20 PUSH1 0x0 KECCAK256 SWAP1 JUMPDEST DUP2 SLOAD DUP2 MSTORE SWAP1 PUSH1 0x1 ADD SWAP1 PUSH1 0x20 ADD DUP1 DUP4 GT PUSH2 0x305D JUMPI DUP3 SWAP1 SUB PUSH1 0x1F AND DUP3 ADD SWAP2 JUMPDEST POP POP POP POP POP DUP2 MSTORE PUSH1 0x20 ADD PUSH1 0x4 DUP3 ADD PUSH1 0x0 SWAP1 SLOAD SWAP1 PUSH2 0x100 EXP SWAP1 DIV PUSH1 0x1 PUSH1 0x1 PUSH1 0xA0 SHL SUB AND PUSH1 0x1 PUSH1 0x1 PUSH1 0xA0 SHL SUB AND PUSH1 0x1 PUSH1 0x1 PUSH1 0xA0 SHL SUB AND DUP2 MSTORE PUSH1 0x20 ADD PUSH1 0x5 DUP3 ADD SLOAD DUP2 MSTORE PUSH1 0x20 ADD PUSH1 0x6 DUP3 ADD SLOAD DUP2 MSTORE PUSH1 0x20 ADD PUSH1 0x7 DUP3 ADD SLOAD DUP2 MSTORE PUSH1 0x20 ADD PUSH1 0x8 DUP3 ADD SLOAD DUP2 MSTORE PUSH1 0x20 ADD PUSH1 0x9 DUP3 ADD SLOAD DUP2 MSTORE PUSH1 0x20 ADD PUSH1 0xA DUP3 ADD SLOAD DUP2 MSTORE PUSH1 0x20 ADD PUSH1 0xB DUP3 ADD DUP1 SLOAD DUP1 PUSH1 0x20 MUL PUSH1 0x20 ADD PUSH1 0x40 MLOAD SWAP1 DUP2 ADD PUSH1 0x40 MSTORE DUP1 SWAP3 SWAP2 SWAP1 DUP2 DUP2 MSTORE PUSH1 0x20 ADD DUP3 DUP1 SLOAD DUP1 ISZERO PUSH2 0x313D JUMPI PUSH1 0x20 MUL DUP3 ADD SWAP2 SWAP1 PUSH1 0x0 MSTORE PUSH1 0x20 PUSH1 0x0 KECCAK256 SWAP1 JUMPDEST DUP2 SLOAD DUP2 MSTORE PUSH1 0x20 ADD SWAP1 PUSH1 0x1 ADD SWAP1 DUP1 DUP4 GT PUSH2 0x3129 JUMPI JUMPDEST POP POP POP POP POP DUP2 MSTORE POP POP SWAP1 POP SWAP2 SWAP1 POP JUMP JUMPDEST PUSH1 0x2 DUP2 DUP2 SLOAD DUP2 LT PUSH2 0x315D JUMPI PUSH1 0x0 DUP1 REVERT JUMPDEST SWAP1 PUSH1 0x0 MSTORE PUSH1 0x20 PUSH1 0x0 KECCAK256 SWAP1 PUSH1 0xB MUL ADD PUSH1 0x0 SWAP2 POP SWAP1 POP DUP1 PUSH1 0x0 ADD DUP1 SLOAD PUSH2 0x3180 SWAP1 PUSH2 0x54F9 JUMP JUMPDEST DUP1 PUSH1 0x1F ADD PUSH1 0x20 DUP1 SWAP2 DIV MUL PUSH1 0x20 ADD PUSH1 0x40 MLOAD SWAP1 DUP2 ADD PUSH1 0x40 MSTORE DUP1 SWAP3 SWAP2 SWAP1 DUP2 DUP2 MSTORE PUSH1 0x20 ADD DUP3 DUP1 SLOAD PUSH2 0x31AC SWAP1 PUSH2 0x54F9 JUMP JUMPDEST DUP1 ISZERO PUSH2 0x31F9 JUMPI DUP1 PUSH1 0x1F LT PUSH2 0x31CE JUMPI PUSH2 0x100 DUP1 DUP4 SLOAD DIV MUL DUP4 MSTORE SWAP2 PUSH1 0x20 ADD SWAP2 PUSH2 0x31F9 JUMP JUMPDEST DUP3 ADD SWAP2 SWAP1 PUSH1 0x0 MSTORE PUSH1 0x20 PUSH1 0x0 KECCAK256 SWAP1 JUMPDEST DUP2 SLOAD DUP2 MSTORE SWAP1 PUSH1 0x1 ADD SWAP1 PUSH1 0x20 ADD DUP1 DUP4 GT PUSH2 0x31DC JUMPI DUP3 SWAP1 SUB PUSH1 0x1F AND DUP3 ADD SWAP2 JUMPDEST POP POP POP POP PUSH1 0x1 DUP4 ADD SLOAD PUSH1 0x2 DUP5 ADD DUP1 SLOAD SWAP4 SWAP5 PUSH1 0x1 PUSH1 0x1 PUSH1 0x40 SHL SUB DUP4 AND SWAP5 PUSH1 0x1 PUSH1 0x40 SHL SWAP1 SWAP4 DIV PUSH1 0xFF AND SWAP4 POP SWAP2 PUSH2 0x322C SWAP1 PUSH2 0x54F9 JUMP JUMPDEST DUP1 PUSH1 0x1F ADD PUSH1 0x20 DUP1 SWAP2 DIV MUL PUSH1 0x20 ADD PUSH1 0x40 MLOAD SWAP1 DUP2 ADD PUSH1 0x40 MSTORE DUP1 SWAP3 SWAP2 SWAP1 DUP2 DUP2 MSTORE PUSH1 0x20 ADD DUP3 DUP1 SLOAD PUSH2 0x3258 SWAP1 PUSH2 0x54F9 JUMP JUMPDEST DUP1 ISZERO PUSH2 0x32A5 JUMPI DUP1 PUSH1 0x1F LT PUSH2 0x327A JUMPI PUSH2 0x100 DUP1 DUP4 SLOAD DIV MUL DUP4 MSTORE SWAP2 PUSH1 0x20 ADD SWAP2 PUSH2 0x32A5 JUMP JUMPDEST DUP3 ADD SWAP2 SWAP1 PUSH1 0x0 MSTORE PUSH1 0x20 PUSH1 0x0 KECCAK256 SWAP1 JUMPDEST DUP2 SLOAD DUP2 MSTORE SWAP1 PUSH1 0x1 ADD SWAP1 PUSH1 0x20 ADD DUP1 DUP4 GT PUSH2 0x3288 JUMPI DUP3 SWAP1 SUB PUSH1 0x1F AND DUP3 ADD SWAP2 JUMPDEST POP POP POP PUSH1 0x3 DUP5 ADD SLOAD PUSH1 0x4 DUP6 ADD SLOAD PUSH1 0x5 DUP7 ADD SLOAD PUSH1 0x6 DUP8 ADD SLOAD PUSH1 0x7 DUP1 DUP10 ADD DUP1 SLOAD SWAP9 SWAP10 DUP7 DUP4 SIGNEXTEND SWAP10 PUSH1 0x1 PUSH1 0x40 SHL SWAP1 SWAP8 DIV SWAP1 SWAP3 SIGNEXTEND SWAP8 POP SWAP4 SWAP6 POP SWAP2 SWAP4 SWAP1 SWAP3 SWAP1 PUSH2 0x32E7 SWAP1 PUSH2 0x54F9 JUMP JUMPDEST DUP1 PUSH1 0x1F ADD PUSH1 0x20 DUP1 SWAP2 DIV MUL PUSH1 0x20 ADD PUSH1 0x40 MLOAD SWAP1 DUP2 ADD PUSH1 0x40 MSTORE DUP1 SWAP3 SWAP2 SWAP1 DUP2 DUP2 MSTORE PUSH1 0x20 ADD DUP3 DUP1 SLOAD PUSH2 0x3313 SWAP1 PUSH2 0x54F9 JUMP JUMPDEST DUP1 ISZERO PUSH2 0x3360 JUMPI DUP1 PUSH1 0x1F LT PUSH2 0x3335 JUMPI PUSH2 0x100 DUP1 DUP4 SLOAD DIV MUL DUP4 MSTORE SWAP2 PUSH1 0x20 ADD SWAP2 PUSH2 0x3360 JUMP JUMPDEST DUP3 ADD SWAP2 SWAP1 PUSH1 0x0 MSTORE PUSH1 0x20 PUSH1 0x0 KECCAK256 SWAP1 JUMPDEST DUP2 SLOAD DUP2 MSTORE SWAP1 PUSH1 0x1 ADD SWAP1 PUSH1 0x20 ADD DUP1 DUP4 GT PUSH2 0x3343 JUMPI DUP3 SWAP1 SUB PUSH1 0x1F AND DUP3 ADD SWAP2 JUMPDEST POP POP POP POP POP SWAP1 DUP1 PUSH1 0x8 ADD PUSH1 0x0 SWAP1 SLOAD SWAP1 PUSH2 0x100 EXP SWAP1 DIV PUSH1 0x1 PUSH1 0x1 PUSH1 0x40 SHL SUB AND SWAP1 DUP1 PUSH1 0x9 ADD PUSH1 0x40 MLOAD DUP1 PUSH1 0x80 ADD PUSH1 0x40 MSTORE SWAP1 DUP2 PUSH1 0x0 DUP3 ADD DUP1 SLOAD PUSH2 0x339E SWAP1 PUSH2 0x54F9 JUMP JUMPDEST DUP1 PUSH1 0x1F ADD PUSH1 0x20 DUP1 SWAP2 DIV MUL PUSH1 0x20 ADD PUSH1 0x40 MLOAD SWAP1 DUP2 ADD PUSH1 0x40 MSTORE DUP1 SWAP3 SWAP2 SWAP1 DUP2 DUP2 MSTORE PUSH1 0x20 ADD DUP3 DUP1 SLOAD PUSH2 0x33CA SWAP1 PUSH2 0x54F9 JUMP JUMPDEST DUP1 ISZERO PUSH2 0x3417 JUMPI DUP1 PUSH1 0x1F LT PUSH2 0x33EC JUMPI PUSH2 0x100 DUP1 DUP4 SLOAD DIV MUL DUP4 MSTORE SWAP2 PUSH1 0x20 ADD SWAP2 PUSH2 0x3417 JUMP JUMPDEST DUP3 ADD SWAP2 SWAP1 PUSH1 0x0 MSTORE PUSH1 0x20 PUSH1 0x0 KECCAK256 SWAP1 JUMPDEST DUP2 SLOAD DUP2 MSTORE SWAP1 PUSH1 0x1 ADD SWAP1 PUSH1 0x20 ADD DUP1 DUP4 GT PUSH2 0x33FA JUMPI DUP3 SWAP1 SUB PUSH1 0x1F AND DUP3 ADD SWAP2 JUMPDEST POP POP POP SWAP2 DUP4 MSTORE POP POP PUSH1 0x1 SWAP2 SWAP1 SWAP2 ADD SLOAD PUSH1 0x1 PUSH1 0x1 PUSH1 0x40 SHL SUB DUP2 AND PUSH1 0x20 DUP4 ADD MSTORE PUSH1 0xFF PUSH1 0x1 PUSH1 0x40 SHL DUP3 DIV DUP2 AND ISZERO ISZERO PUSH1 0x40 DUP5 ADD MSTORE PUSH1 0x1 PUSH1 0x48 SHL SWAP1 SWAP2 DIV AND ISZERO ISZERO PUSH1 0x60 SWAP1 SWAP2 ADD MSTORE SWAP1 POP DUP13 JUMP JUMPDEST PUSH1 0x60 PUSH1 0x7 DUP1 SLOAD DUP1 PUSH1 0x20 MUL PUSH1 0x20 ADD PUSH1 0x40 MLOAD SWAP1 DUP2 ADD PUSH1 0x40 MSTORE DUP1 SWAP3 SWAP2 SWAP1 DUP2 DUP2 MSTORE PUSH1 0x20 ADD PUSH1 0x0 SWAP1 JUMPDEST DUP3 DUP3 LT ISZERO PUSH2 0x352D JUMPI DUP4 DUP3 SWAP1 PUSH1 0x0 MSTORE PUSH1 0x20 PUSH1 0x0 KECCAK256 ADD DUP1 SLOAD PUSH2 0x34A0 SWAP1 PUSH2 0x54F9 JUMP JUMPDEST DUP1 PUSH1 0x1F ADD PUSH1 0x20 DUP1 SWAP2 DIV MUL PUSH1 0x20 ADD PUSH1 0x40 MLOAD SWAP1 DUP2 ADD PUSH1 0x40 MSTORE DUP1 SWAP3 SWAP2 SWAP1 DUP2 DUP2 MSTORE PUSH1 0x20 ADD DUP3 DUP1 SLOAD PUSH2 0x34CC SWAP1 PUSH2 0x54F9 JUMP JUMPDEST DUP1 ISZERO PUSH2 0x3519 JUMPI DUP1 PUSH1 0x1F LT PUSH2 0x34EE JUMPI PUSH2 0x100 DUP1 DUP4 SLOAD DIV MUL DUP4 MSTORE SWAP2 PUSH1 0x20 ADD SWAP2 PUSH2 0x3519 JUMP JUMPDEST DUP3 ADD SWAP2 SWAP1 PUSH1 0x0 MSTORE PUSH1 0x20 PUSH1 0x0 KECCAK256 SWAP1 JUMPDEST DUP2 SLOAD DUP2 MSTORE SWAP1 PUSH1 0x1 ADD SWAP1 PUSH1 0x20 ADD DUP1 DUP4 GT PUSH2 0x34FC JUMPI DUP3 SWAP1 SUB PUSH1 0x1F AND DUP3 ADD SWAP2 JUMPDEST POP POP POP POP POP DUP2 MSTORE PUSH1 0x20 ADD SWAP1 PUSH1 0x1 ADD SWAP1 PUSH2 0x3481 JUMP JUMPDEST POP POP POP POP SWAP1 POP SWAP1 JUMP JUMPDEST PUSH1 0x9 DUP2 DUP2 SLOAD DUP2 LT PUSH2 0x3546 JUMPI PUSH1 0x0 DUP1 REVERT JUMPDEST PUSH1 0x0 SWAP2 DUP3 MSTORE PUSH1 0x20 SWAP1 SWAP2 KECCAK256 ADD SLOAD SWAP1 POP DUP2 JUMP JUMPDEST PUSH2 0x359C PUSH1 0x40 MLOAD DUP1 PUSH1 0xC0 ADD PUSH1 0x40 MSTORE DUP1 PUSH1 0x0 DUP1 NOT AND DUP2 MSTORE PUSH1 0x20 ADD PUSH1 0x0 PUSH1 0x1 PUSH1 0x1 PUSH1 0xA0 SHL SUB AND DUP2 MSTORE PUSH1 0x20 ADD PUSH1 0x60 DUP2 MSTORE PUSH1 0x20 ADD PUSH1 0x60 DUP2 MSTORE PUSH1 0x20 ADD PUSH1 0x60 DUP2 MSTORE PUSH1 0x20 ADD PUSH1 0x0 DUP2 MSTORE POP SWAP1 JUMP JUMPDEST PUSH1 0x0 DUP3 DUP2 MSTORE PUSH1 0xA PUSH1 0x20 SWAP1 DUP2 MSTORE PUSH1 0x40 SWAP2 DUP3 SWAP1 KECCAK256 DUP3 MLOAD PUSH1 0xC0 DUP2 ADD DUP5 MSTORE DUP2 SLOAD DUP2 MSTORE PUSH1 0x1 DUP3 ADD SLOAD PUSH1 0x1 PUSH1 0x1 PUSH1 0xA0 SHL SUB AND SWAP3 DUP2 ADD SWAP3 SWAP1 SWAP3 MSTORE PUSH1 0x2 DUP2 ADD DUP1 SLOAD SWAP3 SWAP4 SWAP2 SWAP3 SWAP2 DUP5 ADD SWAP2 PUSH2 0x35E6 SWAP1 PUSH2 0x54F9 JUMP JUMPDEST DUP1 PUSH1 0x1F ADD PUSH1 0x20 DUP1 SWAP2 DIV MUL PUSH1 0x20 ADD PUSH1 0x40 MLOAD SWAP1 DUP2 ADD PUSH1 0x40 MSTORE DUP1 SWAP3 SWAP2 SWAP1 DUP2 DUP2 MSTORE PUSH1 0x20 ADD DUP3 DUP1 SLOAD PUSH2 0x3612 SWAP1 PUSH2 0x54F9 JUMP JUMPDEST DUP1 ISZERO PUSH2 0x365F JUMPI DUP1 PUSH1 0x1F LT PUSH2 0x3634 JUMPI PUSH2 0x100 DUP1 DUP4 SLOAD DIV MUL DUP4 MSTORE SWAP2 PUSH1 0x20 ADD SWAP2 PUSH2 0x365F JUMP JUMPDEST DUP3 ADD SWAP2 SWAP1 PUSH1 0x0 MSTORE PUSH1 0x20 PUSH1 0x0 KECCAK256 SWAP1 JUMPDEST DUP2 SLOAD DUP2 MSTORE SWAP1 PUSH1 0x1 ADD SWAP1 PUSH1 0x20 ADD DUP1 DUP4 GT PUSH2 0x3642 JUMPI DUP3 SWAP1 SUB PUSH1 0x1F AND DUP3 ADD SWAP2 JUMPDEST POP POP POP POP POP DUP2 MSTORE PUSH1 0x20 ADD PUSH1 0x3 DUP3 ADD DUP1 SLOAD PUSH2 0x3678 SWAP1 PUSH2 0x54F9 JUMP JUMPDEST DUP1 PUSH1 0x1F ADD PUSH1 0x20 DUP1 SWAP2 DIV MUL PUSH1 0x20 ADD PUSH1 0x40 MLOAD SWAP1 DUP2 ADD PUSH1 0x40 MSTORE DUP1 SWAP3 SWAP2 SWAP1 DUP2 DUP2 MSTORE PUSH1 0x20 ADD DUP3 DUP1 SLOAD PUSH2 0x36A4 SWAP1 PUSH2 0x54F9 JUMP JUMPDEST DUP1 ISZERO PUSH2 0x36F1 JUMPI DUP1 PUSH1 0x1F LT PUSH2 0x36C6 JUMPI PUSH2 0x100 DUP1 DUP4 SLOAD DIV MUL DUP4 MSTORE SWAP2 PUSH1 0x20 ADD SWAP2 PUSH2 0x36F1 JUMP JUMPDEST DUP3 ADD SWAP2 SWAP1 PUSH1 0x0 MSTORE PUSH1 0x20 PUSH1 0x0 KECCAK256 SWAP1 JUMPDEST DUP2 SLOAD DUP2 MSTORE SWAP1 PUSH1 0x1 ADD SWAP1 PUSH1 0x20 ADD DUP1 DUP4 GT PUSH2 0x36D4 JUMPI DUP3 SWAP1 SUB PUSH1 0x1F AND DUP3 ADD SWAP2 JUMPDEST POP POP POP POP POP DUP2 MSTORE PUSH1 0x20 ADD PUSH1 0x4 DUP3 ADD DUP1 SLOAD PUSH2 0x370A SWAP1 PUSH2 0x54F9 JUMP JUMPDEST DUP1 PUSH1 0x1F ADD PUSH1 0x20 DUP1 SWAP2 DIV MUL PUSH1 0x20 ADD PUSH1 0x40 MLOAD SWAP1 DUP2 ADD PUSH1 0x40 MSTORE DUP1 SWAP3 SWAP2 SWAP1 DUP2 DUP2 MSTORE PUSH1 0x20 ADD DUP3 DUP1 SLOAD PUSH2 0x3736 SWAP1 PUSH2 0x54F9 JUMP JUMPDEST DUP1 ISZERO PUSH2 0x3783 JUMPI DUP1 PUSH1 0x1F LT PUSH2 0x3758 JUMPI PUSH2 0x100 DUP1 DUP4 SLOAD DIV MUL DUP4 MSTORE SWAP2 PUSH1 0x20 ADD SWAP2 PUSH2 0x3783 JUMP JUMPDEST DUP3 ADD SWAP2 SWAP1 PUSH1 0x0 MSTORE PUSH1 0x20 PUSH1 0x0 KECCAK256 SWAP1 JUMPDEST DUP2 SLOAD DUP2 MSTORE SWAP1 PUSH1 0x1 ADD SWAP1 PUSH1 0x20 ADD DUP1 DUP4 GT PUSH2 0x3766 JUMPI DUP3 SWAP1 SUB PUSH1 0x1F AND DUP3 ADD SWAP2 JUMPDEST POP POP POP POP POP DUP2 MSTORE PUSH1 0x20 ADD PUSH1 0x5 DUP3 ADD SLOAD DUP2 MSTORE POP POP SWAP1 POP SWAP2 SWAP1 POP JUMP JUMPDEST PUSH1 0xF SLOAD PUSH1 0x1 PUSH1 0x1 PUSH1 0xA0 SHL SUB AND CALLER EQ DUP1 PUSH2 0x37C0 JUMPI POP PUSH1 0x10 SLOAD PUSH1 0x1 PUSH1 0x1 PUSH1 0xA0 SHL SUB AND CALLER EQ JUMPDEST PUSH2 0x37DC JUMPI PUSH1 0x40 MLOAD PUSH3 0x461BCD PUSH1 0xE5 SHL DUP2 MSTORE PUSH1 0x4 ADD PUSH2 0xA59 SWAP1 PUSH2 0x54C3 JUMP JUMPDEST DUP1 PUSH1 0x6 DUP5 DUP5 PUSH1 0x40 MLOAD PUSH2 0x37EF SWAP3 SWAP2 SWAP1 PUSH2 0x54E9 JUMP JUMPDEST SWAP1 DUP2 MSTORE PUSH1 0x40 MLOAD SWAP1 DUP2 SWAP1 SUB PUSH1 0x20 ADD SWAP1 KECCAK256 DUP1 SLOAD PUSH1 0xFF NOT AND PUSH1 0x1 DUP4 PUSH1 0x4 DUP2 GT ISZERO PUSH2 0x3818 JUMPI PUSH2 0x3818 PUSH2 0x4DF3 JUMP JUMPDEST MUL OR SWAP1 SSTORE POP POP POP POP JUMP JUMPDEST PUSH1 0x0 DUP3 DUP2 MSTORE PUSH1 0x20 DUP2 SWAP1 MSTORE PUSH1 0x40 SWAP1 KECCAK256 PUSH1 0x1 ADD SLOAD PUSH2 0x383D DUP2 PUSH2 0x450E JUMP JUMPDEST PUSH2 0xC6E DUP4 DUP4 PUSH2 0x459F JUMP JUMPDEST PUSH1 0xF SLOAD PUSH1 0x1 PUSH1 0x1 PUSH1 0xA0 SHL SUB AND CALLER EQ DUP1 PUSH2 0x386A JUMPI POP PUSH1 0x10 SLOAD PUSH1 0x1 PUSH1 0x1 PUSH1 0xA0 SHL SUB AND CALLER EQ JUMPDEST PUSH2 0x3886 JUMPI PUSH1 0x40 MLOAD PUSH3 0x461BCD PUSH1 0xE5 SHL DUP2 MSTORE PUSH1 0x4 ADD PUSH2 0xA59 SWAP1 PUSH2 0x54C3 JUMP JUMPDEST PUSH1 0x0 DUP3 DUP2 MSTORE PUSH1 0xC PUSH1 0x20 SWAP1 DUP2 MSTORE PUSH1 0x40 DUP1 DUP4 KECCAK256 DUP2 MLOAD PUSH2 0x1A0 DUP2 ADD DUP4 MSTORE DUP2 SLOAD DUP2 MSTORE PUSH1 0x1 DUP3 ADD SLOAD PUSH1 0x1 PUSH1 0x1 PUSH1 0xA0 SHL SUB DUP2 AND SWAP5 DUP3 ADD SWAP5 SWAP1 SWAP5 MSTORE SWAP3 SWAP1 SWAP2 DUP4 ADD SWAP1 PUSH1 0x1 PUSH1 0xA0 SHL SWAP1 DIV PUSH1 0xFF AND PUSH1 0x5 DUP2 GT ISZERO PUSH2 0x38DB JUMPI PUSH2 0x38DB PUSH2 0x4DF3 JUMP JUMPDEST PUSH1 0x5 DUP2 GT ISZERO PUSH2 0x38EC JUMPI PUSH2 0x38EC PUSH2 0x4DF3 JUMP JUMPDEST DUP2 MSTORE PUSH1 0x20 ADD PUSH1 0x2 DUP3 ADD DUP1 SLOAD PUSH2 0x3900 SWAP1 PUSH2 0x54F9 JUMP JUMPDEST DUP1 PUSH1 0x1F ADD PUSH1 0x20 DUP1 SWAP2 DIV MUL PUSH1 0x20 ADD PUSH1 0x40 MLOAD SWAP1 DUP2 ADD PUSH1 0x40 MSTORE DUP1 SWAP3 SWAP2 SWAP1 DUP2 DUP2 MSTORE PUSH1 0x20 ADD DUP3 DUP1 SLOAD PUSH2 0x392C SWAP1 PUSH2 0x54F9 JUMP JUMPDEST DUP1 ISZERO PUSH2 0x3979 JUMPI DUP1 PUSH1 0x1F LT PUSH2 0x394E JUMPI PUSH2 0x100 DUP1 DUP4 SLOAD DIV MUL DUP4 MSTORE SWAP2 PUSH1 0x20 ADD SWAP2 PUSH2 0x3979 JUMP JUMPDEST DUP3 ADD SWAP2 SWAP1 PUSH1 0x0 MSTORE PUSH1 0x20 PUSH1 0x0 KECCAK256 SWAP1 JUMPDEST DUP2 SLOAD DUP2 MSTORE SWAP1 PUSH1 0x1 ADD SWAP1 PUSH1 0x20 ADD DUP1 DUP4 GT PUSH2 0x395C JUMPI DUP3 SWAP1 SUB PUSH1 0x1F AND DUP3 ADD SWAP2 JUMPDEST POP POP POP POP POP DUP2 MSTORE PUSH1 0x20 ADD PUSH1 0x3 DUP3 ADD DUP1 SLOAD PUSH2 0x3992 SWAP1 PUSH2 0x54F9 JUMP JUMPDEST DUP1 PUSH1 0x1F ADD PUSH1 0x20 DUP1 SWAP2 DIV MUL PUSH1 0x20 ADD PUSH1 0x40 MLOAD SWAP1 DUP2 ADD PUSH1 0x40 MSTORE DUP1 SWAP3 SWAP2 SWAP1 DUP2 DUP2 MSTORE PUSH1 0x20 ADD DUP3 DUP1 SLOAD PUSH2 0x39BE SWAP1 PUSH2 0x54F9 JUMP JUMPDEST DUP1 ISZERO PUSH2 0x3A0B JUMPI DUP1 PUSH1 0x1F LT PUSH2 0x39E0 JUMPI PUSH2 0x100 DUP1 DUP4 SLOAD DIV MUL DUP4 MSTORE SWAP2 PUSH1 0x20 ADD SWAP2 PUSH2 0x3A0B JUMP JUMPDEST DUP3 ADD SWAP2 SWAP1 PUSH1 0x0 MSTORE PUSH1 0x20 PUSH1 0x0 KECCAK256 SWAP1 JUMPDEST DUP2 SLOAD DUP2 MSTORE SWAP1 PUSH1 0x1 ADD SWAP1 PUSH1 0x20 ADD DUP1 DUP4 GT PUSH2 0x39EE JUMPI DUP3 SWAP1 SUB PUSH1 0x1F AND DUP3 ADD SWAP2 JUMPDEST POP POP POP POP POP DUP2 MSTORE PUSH1 0x20 ADD PUSH1 0x4 DUP3 ADD PUSH1 0x0 SWAP1 SLOAD SWAP1 PUSH2 0x100 EXP SWAP1 DIV PUSH1 0x1 PUSH1 0x1 PUSH1 0xA0 SHL SUB AND PUSH1 0x1 PUSH1 0x1 PUSH1 0xA0 SHL SUB AND PUSH1 0x1 PUSH1 0x1 PUSH1 0xA0 SHL SUB AND DUP2 MSTORE PUSH1 0x20 ADD PUSH1 0x5 DUP3 ADD SLOAD DUP2 MSTORE PUSH1 0x20 ADD PUSH1 0x6 DUP3 ADD SLOAD DUP2 MSTORE PUSH1 0x20 ADD PUSH1 0x7 DUP3 ADD SLOAD DUP2 MSTORE PUSH1 0x20 ADD PUSH1 0x8 DUP3 ADD SLOAD DUP2 MSTORE PUSH1 0x20 ADD PUSH1 0x9 DUP3 ADD SLOAD DUP2 MSTORE PUSH1 0x20 ADD PUSH1 0xA DUP3 ADD SLOAD DUP2 MSTORE PUSH1 0x20 ADD PUSH1 0xB DUP3 ADD DUP1 SLOAD DUP1 PUSH1 0x20 MUL PUSH1 0x20 ADD PUSH1 0x40 MLOAD SWAP1 DUP2 ADD PUSH1 0x40 MSTORE DUP1 SWAP3 SWAP2 SWAP1 DUP2 DUP2 MSTORE PUSH1 0x20 ADD DUP3 DUP1 SLOAD DUP1 ISZERO PUSH2 0x3ACE JUMPI PUSH1 0x20 MUL DUP3 ADD SWAP2 SWAP1 PUSH1 0x0 MSTORE PUSH1 0x20 PUSH1 0x0 KECCAK256 SWAP1 JUMPDEST DUP2 SLOAD DUP2 MSTORE PUSH1 0x20 ADD SWAP1 PUSH1 0x1 ADD SWAP1 DUP1 DUP4 GT PUSH2 0x3ABA JUMPI JUMPDEST POP POP POP SWAP2 SWAP1 SWAP3 MSTORE POP POP DUP2 MLOAD SWAP2 SWAP3 POP POP PUSH1 0x0 SUB PUSH2 0x3AFC JUMPI PUSH1 0x40 MLOAD PUSH3 0x461BCD PUSH1 0xE5 SHL DUP2 MSTORE PUSH1 0x4 ADD PUSH2 0xA59 SWAP1 PUSH2 0x5B19 JUMP JUMPDEST PUSH1 0x40 DUP2 ADD DUP3 PUSH1 0x5 DUP2 GT ISZERO PUSH2 0x3B12 JUMPI PUSH2 0x3B12 PUSH2 0x4DF3 JUMP JUMPDEST SWAP1 DUP2 PUSH1 0x5 DUP2 GT ISZERO PUSH2 0x3B25 JUMPI PUSH2 0x3B25 PUSH2 0x4DF3 JUMP JUMPDEST SWAP1 MSTORE POP PUSH1 0x0 DUP4 DUP2 MSTORE PUSH1 0xC PUSH1 0x20 SWAP1 DUP2 MSTORE PUSH1 0x40 SWAP2 DUP3 SWAP1 KECCAK256 DUP4 MLOAD DUP2 SSTORE SWAP1 DUP4 ADD MLOAD PUSH1 0x1 DUP3 ADD DUP1 SLOAD PUSH1 0x1 PUSH1 0x1 PUSH1 0xA0 SHL SUB SWAP1 SWAP3 AND PUSH1 0x1 PUSH1 0x1 PUSH1 0xA0 SHL SUB NOT DUP4 AND DUP2 OR DUP3 SSTORE SWAP4 DUP6 ADD MLOAD DUP6 SWAP5 SWAP1 SWAP3 PUSH1 0x1 PUSH1 0x1 PUSH1 0xA8 SHL SUB NOT AND OR PUSH1 0x1 PUSH1 0xA0 SHL DUP4 PUSH1 0x5 DUP2 GT ISZERO PUSH2 0x3B8C JUMPI PUSH2 0x3B8C PUSH2 0x4DF3 JUMP JUMPDEST MUL OR SWAP1 SSTORE POP PUSH1 0x60 DUP3 ADD MLOAD PUSH1 0x2 DUP3 ADD SWAP1 PUSH2 0x3BA5 SWAP1 DUP3 PUSH2 0x5596 JUMP JUMPDEST POP PUSH1 0x80 DUP3 ADD MLOAD PUSH1 0x3 DUP3 ADD SWAP1 PUSH2 0x3BBA SWAP1 DUP3 PUSH2 0x5596 JUMP JUMPDEST POP PUSH1 0xA0 DUP3 ADD MLOAD PUSH1 0x4 DUP3 ADD DUP1 SLOAD PUSH1 0x1 PUSH1 0x1 PUSH1 0xA0 SHL SUB NOT AND PUSH1 0x1 PUSH1 0x1 PUSH1 0xA0 SHL SUB SWAP1 SWAP3 AND SWAP2 SWAP1 SWAP2 OR SWAP1 SSTORE PUSH1 0xC0 DUP3 ADD MLOAD PUSH1 0x5 DUP3 ADD SSTORE PUSH1 0xE0 DUP3 ADD MLOAD PUSH1 0x6 DUP3 ADD SSTORE PUSH2 0x100 DUP3 ADD MLOAD PUSH1 0x7 DUP3 ADD SSTORE PUSH2 0x120 DUP3 ADD MLOAD PUSH1 0x8 DUP3 ADD SSTORE PUSH2 0x140 DUP3 ADD MLOAD PUSH1 0x9 DUP3 ADD SSTORE PUSH2 0x160 DUP3 ADD MLOAD PUSH1 0xA DUP3 ADD SSTORE PUSH2 0x180 DUP3 ADD MLOAD DUP1 MLOAD PUSH2 0x1BE3 SWAP2 PUSH1 0xB DUP5 ADD SWAP2 PUSH1 0x20 SWAP1 SWAP2 ADD SWAP1 PUSH2 0x4889 JUMP JUMPDEST PUSH1 0xA PUSH1 0x20 MSTORE PUSH1 0x0 SWAP1 DUP2 MSTORE PUSH1 0x40 SWAP1 KECCAK256 DUP1 SLOAD PUSH1 0x1 DUP3 ADD SLOAD PUSH1 0x2 DUP4 ADD DUP1 SLOAD SWAP3 SWAP4 PUSH1 0x1 PUSH1 0x1 PUSH1 0xA0 SHL SUB SWAP1 SWAP3 AND SWAP3 PUSH2 0x3C6F SWAP1 PUSH2 0x54F9 JUMP JUMPDEST DUP1 PUSH1 0x1F ADD PUSH1 0x20 DUP1 SWAP2 DIV MUL PUSH1 0x20 ADD PUSH1 0x40 MLOAD SWAP1 DUP2 ADD PUSH1 0x40 MSTORE DUP1 SWAP3 SWAP2 SWAP1 DUP2 DUP2 MSTORE PUSH1 0x20 ADD DUP3 DUP1 SLOAD PUSH2 0x3C9B SWAP1 PUSH2 0x54F9 JUMP JUMPDEST DUP1 ISZERO PUSH2 0x3CE8 JUMPI DUP1 PUSH1 0x1F LT PUSH2 0x3CBD JUMPI PUSH2 0x100 DUP1 DUP4 SLOAD DIV MUL DUP4 MSTORE SWAP2 PUSH1 0x20 ADD SWAP2 PUSH2 0x3CE8 JUMP JUMPDEST DUP3 ADD SWAP2 SWAP1 PUSH1 0x0 MSTORE PUSH1 0x20 PUSH1 0x0 KECCAK256 SWAP1 JUMPDEST DUP2 SLOAD DUP2 MSTORE SWAP1 PUSH1 0x1 ADD SWAP1 PUSH1 0x20 ADD DUP1 DUP4 GT PUSH2 0x3CCB JUMPI DUP3 SWAP1 SUB PUSH1 0x1F AND DUP3 ADD SWAP2 JUMPDEST POP POP POP POP POP SWAP1 DUP1 PUSH1 0x3 ADD DUP1 SLOAD PUSH2 0x3CFD SWAP1 PUSH2 0x54F9 JUMP JUMPDEST DUP1 PUSH1 0x1F ADD PUSH1 0x20 DUP1 SWAP2 DIV MUL PUSH1 0x20 ADD PUSH1 0x40 MLOAD SWAP1 DUP2 ADD PUSH1 0x40 MSTORE DUP1 SWAP3 SWAP2 SWAP1 DUP2 DUP2 MSTORE PUSH1 0x20 ADD DUP3 DUP1 SLOAD PUSH2 0x3D29 SWAP1 PUSH2 0x54F9 JUMP JUMPDEST DUP1 ISZERO PUSH2 0x3D76 JUMPI DUP1 PUSH1 0x1F LT PUSH2 0x3D4B JUMPI PUSH2 0x100 DUP1 DUP4 SLOAD DIV MUL DUP4 MSTORE SWAP2 PUSH1 0x20 ADD SWAP2 PUSH2 0x3D76 JUMP JUMPDEST DUP3 ADD SWAP2 SWAP1 PUSH1 0x0 MSTORE PUSH1 0x20 PUSH1 0x0 KECCAK256 SWAP1 JUMPDEST DUP2 SLOAD DUP2 MSTORE SWAP1 PUSH1 0x1 ADD SWAP1 PUSH1 0x20 ADD DUP1 DUP4 GT PUSH2 0x3D59 JUMPI DUP3 SWAP1 SUB PUSH1 0x1F AND DUP3 ADD SWAP2 JUMPDEST POP POP POP POP POP SWAP1 DUP1 PUSH1 0x4 ADD DUP1 SLOAD PUSH2 0x3D8B SWAP1 PUSH2 0x54F9 JUMP JUMPDEST DUP1 PUSH1 0x1F ADD PUSH1 0x20 DUP1 SWAP2 DIV MUL PUSH1 0x20 ADD PUSH1 0x40 MLOAD SWAP1 DUP2 ADD PUSH1 0x40 MSTORE DUP1 SWAP3 SWAP2 SWAP1 DUP2 DUP2 MSTORE PUSH1 0x20 ADD DUP3 DUP1 SLOAD PUSH2 0x3DB7 SWAP1 PUSH2 0x54F9 JUMP JUMPDEST DUP1 ISZERO PUSH2 0x3E04 JUMPI DUP1 PUSH1 0x1F LT PUSH2 0x3DD9 JUMPI PUSH2 0x100 DUP1 DUP4 SLOAD DIV MUL DUP4 MSTORE SWAP2 PUSH1 0x20 ADD SWAP2 PUSH2 0x3E04 JUMP JUMPDEST DUP3 ADD SWAP2 SWAP1 PUSH1 0x0 MSTORE PUSH1 0x20 PUSH1 0x0 KECCAK256 SWAP1 JUMPDEST DUP2 SLOAD DUP2 MSTORE SWAP1 PUSH1 0x1 ADD SWAP1 PUSH1 0x20 ADD DUP1 DUP4 GT PUSH2 0x3DE7 JUMPI DUP3 SWAP1 SUB PUSH1 0x1F AND DUP3 ADD SWAP2 JUMPDEST POP POP POP POP POP SWAP1 DUP1 PUSH1 0x5 ADD SLOAD SWAP1 POP DUP7 JUMP JUMPDEST PUSH1 0xF SLOAD PUSH1 0x1 PUSH1 0x1 PUSH1 0xA0 SHL SUB AND CALLER EQ DUP1 PUSH2 0x3E37 JUMPI POP PUSH1 0x10 SLOAD PUSH1 0x1 PUSH1 0x1 PUSH1 0xA0 SHL SUB AND CALLER EQ JUMPDEST PUSH2 0x3E53 JUMPI PUSH1 0x40 MLOAD PUSH3 0x461BCD PUSH1 0xE5 SHL DUP2 MSTORE PUSH1 0x4 ADD PUSH2 0xA59 SWAP1 PUSH2 0x54C3 JUMP JUMPDEST PUSH1 0x0 DUP3 DUP2 MSTORE PUSH1 0xA PUSH1 0x20 MSTORE PUSH1 0x40 SWAP1 KECCAK256 DUP2 SWAP1 PUSH2 0x13FC DUP3 DUP3 PUSH2 0x5E37 JUMP JUMPDEST PUSH1 0xF SLOAD PUSH1 0x1 PUSH1 0x1 PUSH1 0xA0 SHL SUB AND CALLER EQ DUP1 PUSH2 0x3E90 JUMPI POP PUSH1 0x10 SLOAD PUSH1 0x1 PUSH1 0x1 PUSH1 0xA0 SHL SUB AND CALLER EQ JUMPDEST PUSH2 0x3EAC JUMPI PUSH1 0x40 MLOAD PUSH3 0x461BCD PUSH1 0xE5 SHL DUP2 MSTORE PUSH1 0x4 ADD PUSH2 0xA59 SWAP1 PUSH2 0x54C3 JUMP JUMPDEST PUSH1 0x0 DUP3 DUP2 MSTORE PUSH1 0xC PUSH1 0x20 SWAP1 DUP2 MSTORE PUSH1 0x40 DUP1 DUP4 KECCAK256 DUP2 MLOAD PUSH2 0x1A0 DUP2 ADD DUP4 MSTORE DUP2 SLOAD DUP2 MSTORE PUSH1 0x1 DUP3 ADD SLOAD PUSH1 0x1 PUSH1 0x1 PUSH1 0xA0 SHL SUB DUP2 AND SWAP5 DUP3 ADD SWAP5 SWAP1 SWAP5 MSTORE SWAP3 SWAP1 SWAP2 DUP4 ADD SWAP1 PUSH1 0x1 PUSH1 0xA0 SHL SWAP1 DIV PUSH1 0xFF AND PUSH1 0x5 DUP2 GT ISZERO PUSH2 0x3F01 JUMPI PUSH2 0x3F01 PUSH2 0x4DF3 JUMP JUMPDEST PUSH1 0x5 DUP2 GT ISZERO PUSH2 0x3F12 JUMPI PUSH2 0x3F12 PUSH2 0x4DF3 JUMP JUMPDEST DUP2 MSTORE PUSH1 0x20 ADD PUSH1 0x2 DUP3 ADD DUP1 SLOAD PUSH2 0x3F26 SWAP1 PUSH2 0x54F9 JUMP JUMPDEST DUP1 PUSH1 0x1F ADD PUSH1 0x20 DUP1 SWAP2 DIV MUL PUSH1 0x20 ADD PUSH1 0x40 MLOAD SWAP1 DUP2 ADD PUSH1 0x40 MSTORE DUP1 SWAP3 SWAP2 SWAP1 DUP2 DUP2 MSTORE PUSH1 0x20 ADD DUP3 DUP1 SLOAD PUSH2 0x3F52 SWAP1 PUSH2 0x54F9 JUMP JUMPDEST DUP1 ISZERO PUSH2 0x3F9F JUMPI DUP1 PUSH1 0x1F LT PUSH2 0x3F74 JUMPI PUSH2 0x100 DUP1 DUP4 SLOAD DIV MUL DUP4 MSTORE SWAP2 PUSH1 0x20 ADD SWAP2 PUSH2 0x3F9F JUMP JUMPDEST DUP3 ADD SWAP2 SWAP1 PUSH1 0x0 MSTORE PUSH1 0x20 PUSH1 0x0 KECCAK256 SWAP1 JUMPDEST DUP2 SLOAD DUP2 MSTORE SWAP1 PUSH1 0x1 ADD SWAP1 PUSH1 0x20 ADD DUP1 DUP4 GT PUSH2 0x3F82 JUMPI DUP3 SWAP1 SUB PUSH1 0x1F AND DUP3 ADD SWAP2 JUMPDEST POP POP POP POP POP DUP2 MSTORE PUSH1 0x20 ADD PUSH1 0x3 DUP3 ADD DUP1 SLOAD PUSH2 0x3FB8 SWAP1 PUSH2 0x54F9 JUMP JUMPDEST DUP1 PUSH1 0x1F ADD PUSH1 0x20 DUP1 SWAP2 DIV MUL PUSH1 0x20 ADD PUSH1 0x40 MLOAD SWAP1 DUP2 ADD PUSH1 0x40 MSTORE DUP1 SWAP3 SWAP2 SWAP1 DUP2 DUP2 MSTORE PUSH1 0x20 ADD DUP3 DUP1 SLOAD PUSH2 0x3FE4 SWAP1 PUSH2 0x54F9 JUMP JUMPDEST DUP1 ISZERO PUSH2 0x4031 JUMPI DUP1 PUSH1 0x1F LT PUSH2 0x4006 JUMPI PUSH2 0x100 DUP1 DUP4 SLOAD DIV MUL DUP4 MSTORE SWAP2 PUSH1 0x20 ADD SWAP2 PUSH2 0x4031 JUMP JUMPDEST DUP3 ADD SWAP2 SWAP1 PUSH1 0x0 MSTORE PUSH1 0x20 PUSH1 0x0 KECCAK256 SWAP1 JUMPDEST DUP2 SLOAD DUP2 MSTORE SWAP1 PUSH1 0x1 ADD SWAP1 PUSH1 0x20 ADD DUP1 DUP4 GT PUSH2 0x4014 JUMPI DUP3 SWAP1 SUB PUSH1 0x1F AND DUP3 ADD SWAP2 JUMPDEST POP POP POP POP POP DUP2 MSTORE PUSH1 0x20 ADD PUSH1 0x4 DUP3 ADD PUSH1 0x0 SWAP1 SLOAD SWAP1 PUSH2 0x100 EXP SWAP1 DIV PUSH1 0x1 PUSH1 0x1 PUSH1 0xA0 SHL SUB AND PUSH1 0x1 PUSH1 0x1 PUSH1 0xA0 SHL SUB AND PUSH1 0x1 PUSH1 0x1 PUSH1 0xA0 SHL SUB AND DUP2 MSTORE PUSH1 0x20 ADD PUSH1 0x5 DUP3 ADD SLOAD DUP2 MSTORE PUSH1 0x20 ADD PUSH1 0x6 DUP3 ADD SLOAD DUP2 MSTORE PUSH1 0x20 ADD PUSH1 0x7 DUP3 ADD SLOAD DUP2 MSTORE PUSH1 0x20 ADD PUSH1 0x8 DUP3 ADD SLOAD DUP2 MSTORE PUSH1 0x20 ADD PUSH1 0x9 DUP3 ADD SLOAD DUP2 MSTORE PUSH1 0x20 ADD PUSH1 0xA DUP3 ADD SLOAD DUP2 MSTORE PUSH1 0x20 ADD PUSH1 0xB DUP3 ADD DUP1 SLOAD DUP1 PUSH1 0x20 MUL PUSH1 0x20 ADD PUSH1 0x40 MLOAD SWAP1 DUP2 ADD PUSH1 0x40 MSTORE DUP1 SWAP3 SWAP2 SWAP1 DUP2 DUP2 MSTORE PUSH1 0x20 ADD DUP3 DUP1 SLOAD DUP1 ISZERO PUSH2 0x40F4 JUMPI PUSH1 0x20 MUL DUP3 ADD SWAP2 SWAP1 PUSH1 0x0 MSTORE PUSH1 0x20 PUSH1 0x0 KECCAK256 SWAP1 JUMPDEST DUP2 SLOAD DUP2 MSTORE PUSH1 0x20 ADD SWAP1 PUSH1 0x1 ADD SWAP1 DUP1 DUP4 GT PUSH2 0x40E0 JUMPI JUMPDEST POP POP POP SWAP2 SWAP1 SWAP3 MSTORE POP POP DUP2 MLOAD SWAP2 SWAP3 POP POP PUSH1 0x0 SUB PUSH2 0x4122 JUMPI PUSH1 0x40 MLOAD PUSH3 0x461BCD PUSH1 0xE5 SHL DUP2 MSTORE PUSH1 0x4 ADD PUSH2 0xA59 SWAP1 PUSH2 0x5B19 JUMP JUMPDEST PUSH2 0x160 DUP2 ADD DUP3 SWAP1 MSTORE PUSH1 0x0 DUP4 DUP2 MSTORE PUSH1 0xC PUSH1 0x20 SWAP1 DUP2 MSTORE PUSH1 0x40 SWAP2 DUP3 SWAP1 KECCAK256 DUP4 MLOAD DUP2 SSTORE SWAP1 DUP4 ADD MLOAD PUSH1 0x1 DUP3 ADD DUP1 SLOAD PUSH1 0x1 PUSH1 0x1 PUSH1 0xA0 SHL SUB SWAP1 SWAP3 AND PUSH1 0x1 PUSH1 0x1 PUSH1 0xA0 SHL SUB NOT DUP4 AND DUP2 OR DUP3 SSTORE SWAP4 DUP6 ADD MLOAD DUP6 SWAP5 SWAP1 SWAP3 PUSH1 0x1 PUSH1 0x1 PUSH1 0xA8 SHL SUB NOT AND OR PUSH1 0x1 PUSH1 0xA0 SHL DUP4 PUSH1 0x5 DUP2 GT ISZERO PUSH2 0x418E JUMPI PUSH2 0x418E PUSH2 0x4DF3 JUMP JUMPDEST MUL OR SWAP1 SSTORE POP PUSH1 0x60 DUP3 ADD MLOAD PUSH1 0x2 DUP3 ADD SWAP1 PUSH2 0x41A7 SWAP1 DUP3 PUSH2 0x5596 JUMP JUMPDEST POP PUSH1 0x80 DUP3 ADD MLOAD PUSH1 0x3 DUP3 ADD SWAP1 PUSH2 0x41BC SWAP1 DUP3 PUSH2 0x5596 JUMP JUMPDEST POP PUSH1 0xA0 DUP3 ADD MLOAD PUSH1 0x4 DUP3 ADD DUP1 SLOAD PUSH1 0x1 PUSH1 0x1 PUSH1 0xA0 SHL SUB NOT AND PUSH1 0x1 PUSH1 0x1 PUSH1 0xA0 SHL SUB SWAP1 SWAP3 AND SWAP2 SWAP1 SWAP2 OR SWAP1 SSTORE PUSH1 0xC0 DUP3 ADD MLOAD PUSH1 0x5 DUP3 ADD SSTORE PUSH1 0xE0 DUP3 ADD MLOAD PUSH1 0x6 DUP3 ADD SSTORE PUSH2 0x100 DUP3 ADD MLOAD PUSH1 0x7 DUP3 ADD SSTORE PUSH2 0x120 DUP3 ADD MLOAD PUSH1 0x8 DUP3 ADD SSTORE PUSH2 0x140 DUP3 ADD MLOAD PUSH1 0x9 DUP3 ADD SSTORE PUSH2 0x160 DUP3 ADD MLOAD PUSH1 0xA DUP3 ADD SSTORE PUSH2 0x180 DUP3 ADD MLOAD DUP1 MLOAD PUSH2 0x423F SWAP2 PUSH1 0xB DUP5 ADD SWAP2 PUSH1 0x20 SWAP1 SWAP2 ADD SWAP1 PUSH2 0x4889 JUMP JUMPDEST POP POP PUSH1 0x15 DUP1 SLOAD DUP5 SWAP3 POP PUSH1 0x0 SWAP1 PUSH2 0x4256 SWAP1 DUP5 SWAP1 PUSH2 0x5F61 JUMP JUMPDEST SWAP1 SWAP2 SSTORE POP POP PUSH1 0x16 DUP1 SLOAD DUP4 SWAP2 SWAP1 PUSH1 0x0 SWAP1 PUSH2 0x4270 SWAP1 DUP5 SWAP1 PUSH2 0x5AED JUMP JUMPDEST SWAP1 SWAP2 SSTORE POP POP POP POP POP JUMP JUMPDEST PUSH1 0xF SLOAD PUSH1 0x1 PUSH1 0x1 PUSH1 0xA0 SHL SUB AND ISZERO DUP1 ISZERO PUSH2 0x429C JUMPI POP PUSH1 0x10 SLOAD PUSH1 0x1 PUSH1 0x1 PUSH1 0xA0 SHL SUB AND ISZERO JUMPDEST PUSH2 0x42D6 JUMPI PUSH1 0x40 MLOAD PUSH3 0x461BCD PUSH1 0xE5 SHL DUP2 MSTORE PUSH1 0x20 PUSH1 0x4 DUP3 ADD MSTORE PUSH1 0xB PUSH1 0x24 DUP3 ADD MSTORE PUSH11 0x105B1C9958591E481CD95D PUSH1 0xAA SHL PUSH1 0x44 DUP3 ADD MSTORE PUSH1 0x64 ADD PUSH2 0xA59 JUMP JUMPDEST PUSH1 0xF DUP1 SLOAD PUSH1 0x1 PUSH1 0x1 PUSH1 0xA0 SHL SUB SWAP4 DUP5 AND PUSH1 0x1 PUSH1 0x1 PUSH1 0xA0 SHL SUB NOT SWAP2 DUP3 AND OR SWAP1 SWAP2 SSTORE PUSH1 0x10 DUP1 SLOAD SWAP3 SWAP1 SWAP4 AND SWAP2 AND OR SWAP1 SSTORE JUMP JUMPDEST PUSH1 0x40 DUP1 MLOAD DUP1 DUP3 ADD SWAP1 SWAP2 MSTORE PUSH1 0x0 DUP1 DUP3 MSTORE PUSH1 0x20 DUP3 ADD MSTORE PUSH1 0x3 DUP4 DUP4 PUSH1 0x40 MLOAD PUSH2 0x432A SWAP3 SWAP2 SWAP1 PUSH2 0x54E9 JUMP JUMPDEST SWAP1 DUP2 MSTORE PUSH1 0x40 DUP1 MLOAD SWAP2 DUP3 SWAP1 SUB PUSH1 0x20 SWAP1 DUP2 ADD DUP4 KECCAK256 DUP4 DUP4 ADD SWAP1 SWAP3 MSTORE DUP2 SLOAD DUP4 MSTORE PUSH1 0x1 SWAP1 SWAP2 ADD SLOAD PUSH1 0xFF AND ISZERO ISZERO SWAP1 DUP3 ADD MSTORE SWAP1 POP SWAP3 SWAP2 POP POP JUMP JUMPDEST PUSH1 0x60 PUSH1 0x0 PUSH2 0x436A DUP4 PUSH2 0xD1D JUMP JUMPDEST PUSH1 0x12 SLOAD PUSH1 0x40 MLOAD PUSH4 0x8485A83 PUSH1 0xE0 SHL DUP2 MSTORE SWAP2 SWAP3 POP PUSH1 0x1 PUSH1 0x1 PUSH1 0xA0 SHL SUB AND SWAP1 PUSH4 0x8485A83 SWAP1 PUSH2 0x11A8 SWAP1 DUP5 SWAP1 PUSH1 0x4 ADD PUSH2 0x4C5D JUMP JUMPDEST PUSH1 0xF SLOAD PUSH1 0x1 PUSH1 0x1 PUSH1 0xA0 SHL SUB AND CALLER EQ DUP1 PUSH2 0x43BE JUMPI POP PUSH1 0x10 SLOAD PUSH1 0x1 PUSH1 0x1 PUSH1 0xA0 SHL SUB AND CALLER EQ JUMPDEST PUSH2 0x43DA JUMPI PUSH1 0x40 MLOAD PUSH3 0x461BCD PUSH1 0xE5 SHL DUP2 MSTORE PUSH1 0x4 ADD PUSH2 0xA59 SWAP1 PUSH2 0x54C3 JUMP JUMPDEST PUSH1 0x0 SWAP1 DUP2 MSTORE PUSH1 0xE PUSH1 0x20 MSTORE PUSH1 0x40 SWAP1 KECCAK256 TIMESTAMP PUSH1 0x3 SWAP1 SWAP2 ADD SSTORE JUMP JUMPDEST DUP1 MLOAD PUSH1 0x20 DUP2 DUP4 ADD DUP2 ADD DUP1 MLOAD PUSH1 0x4 DUP3 MSTORE SWAP3 DUP3 ADD SWAP2 SWAP1 SWAP4 ADD KECCAK256 SWAP2 MSTORE DUP1 SLOAD DUP2 SWAP1 PUSH2 0x4417 SWAP1 PUSH2 0x54F9 JUMP JUMPDEST DUP1 PUSH1 0x1F ADD PUSH1 0x20 DUP1 SWAP2 DIV MUL PUSH1 0x20 ADD PUSH1 0x40 MLOAD SWAP1 DUP2 ADD PUSH1 0x40 MSTORE DUP1 SWAP3 SWAP2 SWAP1 DUP2 DUP2 MSTORE PUSH1 0x20 ADD DUP3 DUP1 SLOAD PUSH2 0x4443 SWAP1 PUSH2 0x54F9 JUMP JUMPDEST DUP1 ISZERO PUSH2 0x4490 JUMPI DUP1 PUSH1 0x1F LT PUSH2 0x4465 JUMPI PUSH2 0x100 DUP1 DUP4 SLOAD DIV MUL DUP4 MSTORE SWAP2 PUSH1 0x20 ADD SWAP2 PUSH2 0x4490 JUMP JUMPDEST DUP3 ADD SWAP2 SWAP1 PUSH1 0x0 MSTORE PUSH1 0x20 PUSH1 0x0 KECCAK256 SWAP1 JUMPDEST DUP2 SLOAD DUP2 MSTORE SWAP1 PUSH1 0x1 ADD SWAP1 PUSH1 0x20 ADD DUP1 DUP4 GT PUSH2 0x4473 JUMPI DUP3 SWAP1 SUB PUSH1 0x1F AND DUP3 ADD SWAP2 JUMPDEST POP POP POP PUSH1 0x1 SWAP1 SWAP4 ADD SLOAD SWAP2 SWAP3 POP POP PUSH1 0xFF AND DUP3 JUMP JUMPDEST PUSH1 0xF SLOAD PUSH1 0x1 PUSH1 0x1 PUSH1 0xA0 SHL SUB AND CALLER EQ DUP1 PUSH2 0x44C6 JUMPI POP PUSH1 0x10 SLOAD PUSH1 0x1 PUSH1 0x1 PUSH1 0xA0 SHL SUB AND CALLER EQ JUMPDEST PUSH2 0x44E2 JUMPI PUSH1 0x40 MLOAD PUSH3 0x461BCD PUSH1 0xE5 SHL DUP2 MSTORE PUSH1 0x4 ADD PUSH2 0xA59 SWAP1 PUSH2 0x54C3 JUMP JUMPDEST DUP1 PUSH1 0x4 DUP5 DUP5 PUSH1 0x40 MLOAD PUSH2 0x44F5 SWAP3 SWAP2 SWAP1 PUSH2 0x54E9 JUMP JUMPDEST SWAP1 DUP2 MSTORE PUSH1 0x40 MLOAD SWAP1 DUP2 SWAP1 SUB PUSH1 0x20 ADD SWAP1 KECCAK256 PUSH2 0x1FC1 DUP3 DUP3 PUSH2 0x5F74 JUMP JUMPDEST PUSH2 0x4518 DUP2 CALLER PUSH2 0x4604 JUMP JUMPDEST POP JUMP JUMPDEST PUSH2 0x4525 DUP3 DUP3 PUSH2 0x2800 JUMP JUMPDEST PUSH2 0x1160 JUMPI PUSH1 0x0 DUP3 DUP2 MSTORE PUSH1 0x20 DUP2 DUP2 MSTORE PUSH1 0x40 DUP1 DUP4 KECCAK256 PUSH1 0x1 PUSH1 0x1 PUSH1 0xA0 SHL SUB DUP6 AND DUP5 MSTORE SWAP1 SWAP2 MSTORE SWAP1 KECCAK256 DUP1 SLOAD PUSH1 0xFF NOT AND PUSH1 0x1 OR SWAP1 SSTORE PUSH2 0x455B CALLER SWAP1 JUMP JUMPDEST PUSH1 0x1 PUSH1 0x1 PUSH1 0xA0 SHL SUB AND DUP2 PUSH1 0x1 PUSH1 0x1 PUSH1 0xA0 SHL SUB AND DUP4 PUSH32 0x2F8788117E7EFF1D82E926EC794901D17C78024A50270940304540A733656F0D PUSH1 0x40 MLOAD PUSH1 0x40 MLOAD DUP1 SWAP2 SUB SWAP1 LOG4 POP POP JUMP JUMPDEST PUSH2 0x45A9 DUP3 DUP3 PUSH2 0x2800 JUMP JUMPDEST ISZERO PUSH2 0x1160 JUMPI PUSH1 0x0 DUP3 DUP2 MSTORE PUSH1 0x20 DUP2 DUP2 MSTORE PUSH1 0x40 DUP1 DUP4 KECCAK256 PUSH1 0x1 PUSH1 0x1 PUSH1 0xA0 SHL SUB DUP6 AND DUP1 DUP6 MSTORE SWAP3 MSTORE DUP1 DUP4 KECCAK256 DUP1 SLOAD PUSH1 0xFF NOT AND SWAP1 SSTORE MLOAD CALLER SWAP3 DUP6 SWAP2 PUSH32 0xF6391F5C32D9C69D2A47EA670B442974B53935D1EDC7FD64EB21E047A839171B SWAP2 SWAP1 LOG4 POP POP JUMP JUMPDEST PUSH2 0x460E DUP3 DUP3 PUSH2 0x2800 JUMP JUMPDEST PUSH2 0x1160 JUMPI PUSH2 0x461B DUP2 PUSH2 0x465D JUMP JUMPDEST PUSH2 0x4626 DUP4 PUSH1 0x20 PUSH2 0x466F JUMP JUMPDEST PUSH1 0x40 MLOAD PUSH1 0x20 ADD PUSH2 0x4637 SWAP3 SWAP2 SWAP1 PUSH2 0x6057 JUMP JUMPDEST PUSH1 0x40 DUP1 MLOAD PUSH1 0x1F NOT DUP2 DUP5 SUB ADD DUP2 MSTORE SWAP1 DUP3 SWAP1 MSTORE PUSH3 0x461BCD PUSH1 0xE5 SHL DUP3 MSTORE PUSH2 0xA59 SWAP2 PUSH1 0x4 ADD PUSH2 0x4D79 JUMP JUMPDEST PUSH1 0x60 PUSH2 0xA14 PUSH1 0x1 PUSH1 0x1 PUSH1 0xA0 SHL SUB DUP4 AND PUSH1 0x14 JUMPDEST PUSH1 0x60 PUSH1 0x0 PUSH2 0x467E DUP4 PUSH1 0x2 PUSH2 0x5CC5 JUMP JUMPDEST PUSH2 0x4689 SWAP1 PUSH1 0x2 PUSH2 0x5AED JUMP JUMPDEST PUSH1 0x1 PUSH1 0x1 PUSH1 0x40 SHL SUB DUP2 GT ISZERO PUSH2 0x46A0 JUMPI PUSH2 0x46A0 PUSH2 0x4A6F JUMP JUMPDEST PUSH1 0x40 MLOAD SWAP1 DUP1 DUP3 MSTORE DUP1 PUSH1 0x1F ADD PUSH1 0x1F NOT AND PUSH1 0x20 ADD DUP3 ADD PUSH1 0x40 MSTORE DUP1 ISZERO PUSH2 0x46CA JUMPI PUSH1 0x20 DUP3 ADD DUP2 DUP1 CALLDATASIZE DUP4 CALLDATACOPY ADD SWAP1 POP JUMPDEST POP SWAP1 POP PUSH1 0x3 PUSH1 0xFC SHL DUP2 PUSH1 0x0 DUP2 MLOAD DUP2 LT PUSH2 0x46E5 JUMPI PUSH2 0x46E5 PUSH2 0x5A38 JUMP JUMPDEST PUSH1 0x20 ADD ADD SWAP1 PUSH1 0x1 PUSH1 0x1 PUSH1 0xF8 SHL SUB NOT AND SWAP1 DUP2 PUSH1 0x0 BYTE SWAP1 MSTORE8 POP PUSH1 0xF PUSH1 0xFB SHL DUP2 PUSH1 0x1 DUP2 MLOAD DUP2 LT PUSH2 0x4714 JUMPI PUSH2 0x4714 PUSH2 0x5A38 JUMP JUMPDEST PUSH1 0x20 ADD ADD SWAP1 PUSH1 0x1 PUSH1 0x1 PUSH1 0xF8 SHL SUB NOT AND SWAP1 DUP2 PUSH1 0x0 BYTE SWAP1 MSTORE8 POP PUSH1 0x0 PUSH2 0x4738 DUP5 PUSH1 0x2 PUSH2 0x5CC5 JUMP JUMPDEST PUSH2 0x4743 SWAP1 PUSH1 0x1 PUSH2 0x5AED JUMP JUMPDEST SWAP1 POP JUMPDEST PUSH1 0x1 DUP2 GT ISZERO PUSH2 0x47BB JUMPI PUSH16 0x181899199A1A9B1B9C1CB0B131B232B3 PUSH1 0x81 SHL DUP6 PUSH1 0xF AND PUSH1 0x10 DUP2 LT PUSH2 0x4777 JUMPI PUSH2 0x4777 PUSH2 0x5A38 JUMP JUMPDEST BYTE PUSH1 0xF8 SHL DUP3 DUP3 DUP2 MLOAD DUP2 LT PUSH2 0x478D JUMPI PUSH2 0x478D PUSH2 0x5A38 JUMP JUMPDEST PUSH1 0x20 ADD ADD SWAP1 PUSH1 0x1 PUSH1 0x1 PUSH1 0xF8 SHL SUB NOT AND SWAP1 DUP2 PUSH1 0x0 BYTE SWAP1 MSTORE8 POP PUSH1 0x4 SWAP5 SWAP1 SWAP5 SHR SWAP4 PUSH2 0x47B4 DUP2 PUSH2 0x60CC JUMP JUMPDEST SWAP1 POP PUSH2 0x4746 JUMP JUMPDEST POP DUP4 ISZERO PUSH2 0x11ED JUMPI PUSH1 0x40 MLOAD PUSH3 0x461BCD PUSH1 0xE5 SHL DUP2 MSTORE PUSH1 0x20 PUSH1 0x4 DUP3 ADD DUP2 SWAP1 MSTORE PUSH1 0x24 DUP3 ADD MSTORE PUSH32 0x537472696E67733A20686578206C656E67746820696E73756666696369656E74 PUSH1 0x44 DUP3 ADD MSTORE PUSH1 0x64 ADD PUSH2 0xA59 JUMP JUMPDEST PUSH1 0x40 DUP1 MLOAD PUSH2 0x180 DUP2 ADD DUP3 MSTORE PUSH1 0x60 DUP1 DUP3 MSTORE PUSH1 0x0 PUSH1 0x20 DUP1 DUP5 ADD DUP3 SWAP1 MSTORE DUP4 DUP6 ADD DUP3 SWAP1 MSTORE DUP3 DUP5 ADD DUP4 SWAP1 MSTORE PUSH1 0x80 DUP1 DUP6 ADD DUP4 SWAP1 MSTORE PUSH1 0xA0 DUP6 ADD DUP4 SWAP1 MSTORE PUSH1 0xC0 DUP6 ADD DUP4 SWAP1 MSTORE PUSH1 0xE0 DUP6 ADD DUP4 SWAP1 MSTORE PUSH2 0x100 DUP6 ADD DUP4 SWAP1 MSTORE PUSH2 0x120 DUP6 ADD DUP5 SWAP1 MSTORE PUSH2 0x140 DUP6 ADD DUP4 SWAP1 MSTORE DUP6 MLOAD SWAP1 DUP2 ADD DUP7 MSTORE DUP4 DUP2 MSTORE SWAP1 DUP2 ADD DUP3 SWAP1 MSTORE SWAP4 DUP5 ADD DUP2 SWAP1 MSTORE SWAP1 DUP4 ADD MSTORE SWAP1 PUSH2 0x160 DUP3 ADD MSTORE SWAP1 JUMP JUMPDEST DUP3 DUP1 SLOAD DUP3 DUP3 SSTORE SWAP1 PUSH1 0x0 MSTORE PUSH1 0x20 PUSH1 0x0 KECCAK256 SWAP1 DUP2 ADD SWAP3 DUP3 ISZERO PUSH2 0x48C4 JUMPI SWAP2 PUSH1 0x20 MUL DUP3 ADD JUMPDEST DUP3 DUP2 GT ISZERO PUSH2 0x48C4 JUMPI DUP3 MLOAD DUP3 SSTORE SWAP2 PUSH1 0x20 ADD SWAP2 SWAP1 PUSH1 0x1 ADD SWAP1 PUSH2 0x48A9 JUMP JUMPDEST POP PUSH2 0x48D0 SWAP3 SWAP2 POP PUSH2 0x4914 JUMP JUMPDEST POP SWAP1 JUMP JUMPDEST DUP3 DUP1 SLOAD DUP3 DUP3 SSTORE SWAP1 PUSH1 0x0 MSTORE PUSH1 0x20 PUSH1 0x0 KECCAK256 SWAP1 DUP2 ADD SWAP3 DUP3 ISZERO PUSH2 0x48C4 JUMPI PUSH1 0x0 MSTORE PUSH1 0x20 PUSH1 0x0 KECCAK256 SWAP2 DUP3 ADD JUMPDEST DUP3 DUP2 GT ISZERO PUSH2 0x48C4 JUMPI DUP3 SLOAD DUP3 SSTORE SWAP2 PUSH1 0x1 ADD SWAP2 SWAP1 PUSH1 0x1 ADD SWAP1 PUSH2 0x48F9 JUMP JUMPDEST JUMPDEST DUP1 DUP3 GT ISZERO PUSH2 0x48D0 JUMPI PUSH1 0x0 DUP2 SSTORE PUSH1 0x1 ADD PUSH2 0x4915 JUMP JUMPDEST PUSH1 0x0 PUSH1 0x20 DUP3 DUP5 SUB SLT ISZERO PUSH2 0x493B JUMPI PUSH1 0x0 DUP1 REVERT JUMPDEST DUP2 CALLDATALOAD PUSH1 0x1 PUSH1 0x1 PUSH1 0xE0 SHL SUB NOT DUP2 AND DUP2 EQ PUSH2 0x11ED JUMPI PUSH1 0x0 DUP1 REVERT JUMPDEST PUSH1 0x0 DUP1 DUP4 PUSH1 0x1F DUP5 ADD SLT PUSH2 0x4965 JUMPI PUSH1 0x0 DUP1 REVERT JUMPDEST POP DUP2 CALLDATALOAD PUSH1 0x1 PUSH1 0x1 PUSH1 0x40 SHL SUB DUP2 GT ISZERO PUSH2 0x497C JUMPI PUSH1 0x0 DUP1 REVERT JUMPDEST PUSH1 0x20 DUP4 ADD SWAP2 POP DUP4 PUSH1 0x20 DUP3 DUP6 ADD ADD GT ISZERO PUSH2 0x4994 JUMPI PUSH1 0x0 DUP1 REVERT JUMPDEST SWAP3 POP SWAP3 SWAP1 POP JUMP JUMPDEST PUSH1 0x0 DUP1 PUSH1 0x0 PUSH1 0x40 DUP5 DUP7 SUB SLT ISZERO PUSH2 0x49B0 JUMPI PUSH1 0x0 DUP1 REVERT JUMPDEST DUP4 CALLDATALOAD PUSH1 0x1 PUSH1 0x1 PUSH1 0x40 SHL SUB DUP2 GT ISZERO PUSH2 0x49C6 JUMPI PUSH1 0x0 DUP1 REVERT JUMPDEST PUSH2 0x49D2 DUP7 DUP3 DUP8 ADD PUSH2 0x4953 JUMP JUMPDEST SWAP1 SWAP8 SWAP1 SWAP7 POP PUSH1 0x20 SWAP6 SWAP1 SWAP6 ADD CALLDATALOAD SWAP5 SWAP4 POP POP POP POP JUMP JUMPDEST PUSH1 0x1 PUSH1 0x1 PUSH1 0xA0 SHL SUB DUP2 AND DUP2 EQ PUSH2 0x4518 JUMPI PUSH1 0x0 DUP1 REVERT JUMPDEST PUSH1 0x0 DUP1 PUSH1 0x0 PUSH1 0x60 DUP5 DUP7 SUB SLT ISZERO PUSH2 0x4A10 JUMPI PUSH1 0x0 DUP1 REVERT JUMPDEST DUP4 CALLDATALOAD SWAP3 POP PUSH1 0x20 DUP5 ADD CALLDATALOAD SWAP2 POP PUSH1 0x40 DUP5 ADD CALLDATALOAD PUSH2 0x4A29 DUP2 PUSH2 0x49E6 JUMP JUMPDEST DUP1 SWAP2 POP POP SWAP3 POP SWAP3 POP SWAP3 JUMP JUMPDEST PUSH1 0x0 PUSH1 0x20 DUP3 DUP5 SUB SLT ISZERO PUSH2 0x4A46 JUMPI PUSH1 0x0 DUP1 REVERT JUMPDEST DUP2 CALLDATALOAD PUSH1 0x1 PUSH1 0x1 PUSH1 0x40 SHL SUB DUP2 GT ISZERO PUSH2 0x4A5C JUMPI PUSH1 0x0 DUP1 REVERT JUMPDEST DUP3 ADD PUSH2 0x180 DUP2 DUP6 SUB SLT ISZERO PUSH2 0x11ED JUMPI PUSH1 0x0 DUP1 REVERT JUMPDEST PUSH4 0x4E487B71 PUSH1 0xE0 SHL PUSH1 0x0 MSTORE PUSH1 0x41 PUSH1 0x4 MSTORE PUSH1 0x24 PUSH1 0x0 REVERT JUMPDEST PUSH1 0x40 MLOAD PUSH1 0x1F DUP3 ADD PUSH1 0x1F NOT AND DUP2 ADD PUSH1 0x1 PUSH1 0x1 PUSH1 0x40 SHL SUB DUP2 GT DUP3 DUP3 LT OR ISZERO PUSH2 0x4AAD JUMPI PUSH2 0x4AAD PUSH2 0x4A6F JUMP JUMPDEST PUSH1 0x40 MSTORE SWAP2 SWAP1 POP JUMP JUMPDEST PUSH1 0x0 PUSH1 0x1 PUSH1 0x1 PUSH1 0x40 SHL SUB DUP3 GT ISZERO PUSH2 0x4ACE JUMPI PUSH2 0x4ACE PUSH2 0x4A6F JUMP JUMPDEST POP PUSH1 0x1F ADD PUSH1 0x1F NOT AND PUSH1 0x20 ADD SWAP1 JUMP JUMPDEST PUSH1 0x0 PUSH1 0x20 DUP3 DUP5 SUB SLT ISZERO PUSH2 0x4AEE JUMPI PUSH1 0x0 DUP1 REVERT JUMPDEST DUP2 CALLDATALOAD PUSH1 0x1 PUSH1 0x1 PUSH1 0x40 SHL SUB DUP2 GT ISZERO PUSH2 0x4B04 JUMPI PUSH1 0x0 DUP1 REVERT JUMPDEST DUP3 ADD PUSH1 0x1F DUP2 ADD DUP5 SGT PUSH2 0x4B15 JUMPI PUSH1 0x0 DUP1 REVERT JUMPDEST DUP1 CALLDATALOAD PUSH2 0x4B28 PUSH2 0x4B23 DUP3 PUSH2 0x4AB5 JUMP JUMPDEST PUSH2 0x4A85 JUMP JUMPDEST DUP2 DUP2 MSTORE DUP6 PUSH1 0x20 DUP4 DUP6 ADD ADD GT ISZERO PUSH2 0x4B3D JUMPI PUSH1 0x0 DUP1 REVERT JUMPDEST DUP2 PUSH1 0x20 DUP5 ADD PUSH1 0x20 DUP4 ADD CALLDATACOPY PUSH1 0x0 SWAP2 DUP2 ADD PUSH1 0x20 ADD SWAP2 SWAP1 SWAP2 MSTORE SWAP5 SWAP4 POP POP POP POP JUMP JUMPDEST PUSH1 0x0 PUSH1 0x20 DUP3 DUP5 SUB SLT ISZERO PUSH2 0x4B6D JUMPI PUSH1 0x0 DUP1 REVERT JUMPDEST POP CALLDATALOAD SWAP2 SWAP1 POP JUMP JUMPDEST PUSH1 0x0 PUSH1 0x20 DUP3 DUP5 SUB SLT ISZERO PUSH2 0x4B86 JUMPI PUSH1 0x0 DUP1 REVERT JUMPDEST DUP2 CALLDATALOAD PUSH2 0x11ED DUP2 PUSH2 0x49E6 JUMP JUMPDEST PUSH1 0x0 DUP1 PUSH1 0x40 DUP4 DUP6 SUB SLT ISZERO PUSH2 0x4BA4 JUMPI PUSH1 0x0 DUP1 REVERT JUMPDEST DUP3 CALLDATALOAD SWAP2 POP PUSH1 0x20 DUP4 ADD CALLDATALOAD PUSH2 0x4BB6 DUP2 PUSH2 0x49E6 JUMP JUMPDEST DUP1 SWAP2 POP POP SWAP3 POP SWAP3 SWAP1 POP JUMP JUMPDEST PUSH1 0x0 JUMPDEST DUP4 DUP2 LT ISZERO PUSH2 0x4BDC JUMPI DUP2 DUP2 ADD MLOAD DUP4 DUP3 ADD MSTORE PUSH1 0x20 ADD PUSH2 0x4BC4 JUMP JUMPDEST POP POP PUSH1 0x0 SWAP2 ADD MSTORE JUMP JUMPDEST PUSH1 0x0 DUP2 MLOAD DUP1 DUP5 MSTORE PUSH2 0x4BFD DUP2 PUSH1 0x20 DUP7 ADD PUSH1 0x20 DUP7 ADD PUSH2 0x4BC1 JUMP JUMPDEST PUSH1 0x1F ADD PUSH1 0x1F NOT AND SWAP3 SWAP1 SWAP3 ADD PUSH1 0x20 ADD SWAP3 SWAP2 POP POP JUMP JUMPDEST PUSH1 0x0 DUP2 MLOAD PUSH1 0x80 DUP5 MSTORE PUSH2 0x4C26 PUSH1 0x80 DUP6 ADD DUP3 PUSH2 0x4BE5 JUMP JUMPDEST SWAP1 POP PUSH1 0x1 PUSH1 0x1 PUSH1 0x40 SHL SUB PUSH1 0x20 DUP5 ADD MLOAD AND PUSH1 0x20 DUP6 ADD MSTORE PUSH1 0x40 DUP4 ADD MLOAD ISZERO ISZERO PUSH1 0x40 DUP6 ADD MSTORE PUSH1 0x60 DUP4 ADD MLOAD ISZERO ISZERO PUSH1 0x60 DUP6 ADD MSTORE DUP1 SWAP2 POP POP SWAP3 SWAP2 POP POP JUMP JUMPDEST PUSH1 0x20 DUP2 MSTORE PUSH1 0x0 DUP3 MLOAD PUSH2 0x180 DUP1 PUSH1 0x20 DUP6 ADD MSTORE PUSH2 0x4C7C PUSH2 0x1A0 DUP6 ADD DUP4 PUSH2 0x4BE5 JUMP JUMPDEST SWAP2 POP PUSH1 0x20 DUP6 ADD MLOAD PUSH2 0x4C98 PUSH1 0x40 DUP7 ADD DUP3 PUSH1 0x1 PUSH1 0x1 PUSH1 0x40 SHL SUB AND SWAP1 MSTORE JUMP JUMPDEST POP PUSH1 0x40 DUP6 ADD MLOAD DUP1 ISZERO ISZERO PUSH1 0x60 DUP7 ADD MSTORE POP PUSH1 0x60 DUP6 ADD MLOAD PUSH1 0x1F NOT DUP1 DUP7 DUP6 SUB ADD PUSH1 0x80 DUP8 ADD MSTORE PUSH2 0x4CC3 DUP5 DUP4 PUSH2 0x4BE5 JUMP JUMPDEST SWAP4 POP PUSH1 0x80 DUP8 ADD MLOAD SWAP2 POP PUSH2 0x4CDB PUSH1 0xA0 DUP8 ADD DUP4 PUSH1 0x7 SIGNEXTEND SWAP1 MSTORE JUMP JUMPDEST PUSH1 0xA0 DUP8 ADD MLOAD SWAP2 POP PUSH2 0x4CF1 PUSH1 0xC0 DUP8 ADD DUP4 PUSH1 0x7 SIGNEXTEND SWAP1 MSTORE JUMP JUMPDEST PUSH1 0xC0 DUP8 ADD MLOAD PUSH1 0xE0 DUP8 ADD MSTORE PUSH1 0xE0 DUP8 ADD MLOAD SWAP2 POP PUSH2 0x100 DUP3 DUP2 DUP9 ADD MSTORE DUP1 DUP9 ADD MLOAD SWAP3 POP POP PUSH2 0x120 DUP3 DUP2 DUP9 ADD MSTORE DUP1 DUP9 ADD MLOAD SWAP3 POP POP PUSH2 0x140 DUP2 DUP8 DUP7 SUB ADD DUP2 DUP9 ADD MSTORE PUSH2 0x4D36 DUP6 DUP5 PUSH2 0x4BE5 JUMP JUMPDEST SWAP5 POP DUP1 DUP9 ADD MLOAD SWAP3 POP POP PUSH2 0x160 PUSH2 0x4D56 DUP2 DUP9 ADD DUP5 PUSH1 0x1 PUSH1 0x1 PUSH1 0x40 SHL SUB AND SWAP1 MSTORE JUMP JUMPDEST DUP8 ADD MLOAD DUP7 DUP6 SUB SWAP1 SWAP2 ADD DUP4 DUP8 ADD MSTORE SWAP1 POP PUSH2 0x4D6F DUP4 DUP3 PUSH2 0x4C11 JUMP JUMPDEST SWAP7 SWAP6 POP POP POP POP POP POP JUMP JUMPDEST PUSH1 0x20 DUP2 MSTORE PUSH1 0x0 PUSH2 0x11ED PUSH1 0x20 DUP4 ADD DUP5 PUSH2 0x4BE5 JUMP JUMPDEST PUSH1 0x0 DUP1 PUSH1 0x40 DUP4 DUP6 SUB SLT ISZERO PUSH2 0x4D9F JUMPI PUSH1 0x0 DUP1 REVERT JUMPDEST DUP3 CALLDATALOAD PUSH2 0x4DAA DUP2 PUSH2 0x49E6 JUMP JUMPDEST SWAP5 PUSH1 0x20 SWAP4 SWAP1 SWAP4 ADD CALLDATALOAD SWAP4 POP POP POP JUMP JUMPDEST PUSH1 0x0 DUP1 PUSH1 0x0 PUSH1 0x60 DUP5 DUP7 SUB SLT ISZERO PUSH2 0x4DCD JUMPI PUSH1 0x0 DUP1 REVERT JUMPDEST DUP4 CALLDATALOAD SWAP3 POP PUSH1 0x20 DUP5 ADD CALLDATALOAD PUSH2 0x4DDF DUP2 PUSH2 0x49E6 JUMP JUMPDEST SWAP2 POP PUSH1 0x40 DUP5 ADD CALLDATALOAD PUSH1 0x3 DUP2 LT PUSH2 0x4A29 JUMPI PUSH1 0x0 DUP1 REVERT JUMPDEST PUSH4 0x4E487B71 PUSH1 0xE0 SHL PUSH1 0x0 MSTORE PUSH1 0x21 PUSH1 0x4 MSTORE PUSH1 0x24 PUSH1 0x0 REVERT JUMPDEST PUSH1 0x6 DUP2 LT PUSH2 0x4E19 JUMPI PUSH2 0x4E19 PUSH2 0x4DF3 JUMP JUMPDEST SWAP1 MSTORE JUMP JUMPDEST DUP13 DUP2 MSTORE PUSH1 0x1 PUSH1 0x1 PUSH1 0xA0 SHL SUB DUP13 DUP2 AND PUSH1 0x20 DUP4 ADD MSTORE PUSH1 0x0 SWAP1 PUSH2 0x180 SWAP1 PUSH2 0x4E44 PUSH1 0x40 DUP6 ADD DUP16 PUSH2 0x4E09 JUMP JUMPDEST DUP2 PUSH1 0x60 DUP6 ADD MSTORE PUSH2 0x4E56 DUP3 DUP6 ADD DUP15 PUSH2 0x4BE5 JUMP JUMPDEST SWAP2 POP DUP4 DUP3 SUB PUSH1 0x80 DUP6 ADD MSTORE PUSH2 0x4E6A DUP3 DUP14 PUSH2 0x4BE5 JUMP JUMPDEST SWAP11 AND PUSH1 0xA0 DUP5 ADD MSTORE POP POP PUSH1 0xC0 DUP2 ADD SWAP7 SWAP1 SWAP7 MSTORE PUSH1 0xE0 DUP7 ADD SWAP5 SWAP1 SWAP5 MSTORE PUSH2 0x100 DUP6 ADD SWAP3 SWAP1 SWAP3 MSTORE PUSH2 0x120 DUP5 ADD MSTORE PUSH2 0x140 DUP4 ADD MSTORE PUSH2 0x160 SWAP1 SWAP2 ADD MSTORE SWAP6 SWAP5 POP POP POP POP POP JUMP JUMPDEST PUSH1 0x0 DUP1 PUSH1 0x40 DUP4 DUP6 SUB SLT ISZERO PUSH2 0x4EBB JUMPI PUSH1 0x0 DUP1 REVERT JUMPDEST POP POP DUP1 CALLDATALOAD SWAP3 PUSH1 0x20 SWAP1 SWAP2 ADD CALLDATALOAD SWAP2 POP JUMP JUMPDEST PUSH1 0x0 DUP1 PUSH1 0x20 DUP4 DUP6 SUB SLT ISZERO PUSH2 0x4EDD JUMPI PUSH1 0x0 DUP1 REVERT JUMPDEST DUP3 CALLDATALOAD PUSH1 0x1 PUSH1 0x1 PUSH1 0x40 SHL SUB DUP2 GT ISZERO PUSH2 0x4EF3 JUMPI PUSH1 0x0 DUP1 REVERT JUMPDEST PUSH2 0x4EFF DUP6 DUP3 DUP7 ADD PUSH2 0x4953 JUMP JUMPDEST SWAP1 SWAP7 SWAP1 SWAP6 POP SWAP4 POP POP POP POP JUMP JUMPDEST PUSH1 0x20 DUP2 MSTORE PUSH1 0x0 DUP3 MLOAD PUSH1 0x40 PUSH1 0x20 DUP5 ADD MSTORE PUSH2 0x4F27 PUSH1 0x60 DUP5 ADD DUP3 PUSH2 0x4BE5 JUMP JUMPDEST SWAP1 POP PUSH1 0x20 DUP5 ADD MLOAD ISZERO ISZERO PUSH1 0x40 DUP5 ADD MSTORE DUP1 SWAP2 POP POP SWAP3 SWAP2 POP POP JUMP JUMPDEST PUSH1 0x0 PUSH1 0x20 DUP3 DUP5 SUB SLT ISZERO PUSH2 0x4F51 JUMPI PUSH1 0x0 DUP1 REVERT JUMPDEST DUP2 CALLDATALOAD PUSH1 0x1 PUSH1 0x1 PUSH1 0x40 SHL SUB DUP2 GT ISZERO PUSH2 0x4F67 JUMPI PUSH1 0x0 DUP1 REVERT JUMPDEST DUP3 ADD PUSH2 0x1A0 DUP2 DUP6 SUB SLT ISZERO PUSH2 0x11ED JUMPI PUSH1 0x0 DUP1 REVERT JUMPDEST PUSH1 0x1 PUSH1 0x1 PUSH1 0x40 SHL SUB DUP2 AND DUP2 EQ PUSH2 0x4518 JUMPI PUSH1 0x0 DUP1 REVERT JUMPDEST PUSH1 0x0 DUP1 PUSH1 0x0 PUSH1 0x40 DUP5 DUP7 SUB SLT ISZERO PUSH2 0x4FA4 JUMPI PUSH1 0x0 DUP1 REVERT JUMPDEST DUP4 CALLDATALOAD PUSH1 0x1 PUSH1 0x1 PUSH1 0x40 SHL SUB DUP2 GT ISZERO PUSH2 0x4FBA JUMPI PUSH1 0x0 DUP1 REVERT JUMPDEST PUSH2 0x4FC6 DUP7 DUP3 DUP8 ADD PUSH2 0x4953 JUMP JUMPDEST SWAP1 SWAP5 POP SWAP3 POP POP PUSH1 0x20 DUP5 ADD CALLDATALOAD PUSH2 0x4A29 DUP2 PUSH2 0x4F7A JUMP JUMPDEST PUSH1 0x0 DUP2 MLOAD DUP1 DUP5 MSTORE PUSH1 0x20 DUP1 DUP6 ADD SWAP5 POP DUP1 DUP5 ADD PUSH1 0x0 JUMPDEST DUP4 DUP2 LT ISZERO PUSH2 0x500A JUMPI DUP2 MLOAD DUP8 MSTORE SWAP6 DUP3 ADD SWAP6 SWAP1 DUP3 ADD SWAP1 PUSH1 0x1 ADD PUSH2 0x4FEE JUMP JUMPDEST POP SWAP5 SWAP6 SWAP5 POP POP POP POP POP JUMP JUMPDEST PUSH1 0x20 DUP2 MSTORE PUSH1 0x0 PUSH2 0x11ED PUSH1 0x20 DUP4 ADD DUP5 PUSH2 0x4FDA JUMP JUMPDEST PUSH1 0x20 DUP2 MSTORE DUP2 MLOAD PUSH1 0x20 DUP3 ADD MSTORE PUSH1 0x0 PUSH1 0x20 DUP4 ADD MLOAD PUSH2 0x504F PUSH1 0x40 DUP5 ADD DUP3 PUSH1 0x1 PUSH1 0x1 PUSH1 0xA0 SHL SUB AND SWAP1 MSTORE JUMP JUMPDEST POP PUSH1 0x40 DUP4 ADD MLOAD PUSH2 0x5062 PUSH1 0x60 DUP5 ADD DUP3 PUSH2 0x4E09 JUMP JUMPDEST POP PUSH1 0x60 DUP4 ADD MLOAD PUSH2 0x1A0 DUP1 PUSH1 0x80 DUP6 ADD MSTORE PUSH2 0x507F PUSH2 0x1C0 DUP6 ADD DUP4 PUSH2 0x4BE5 JUMP JUMPDEST SWAP2 POP PUSH1 0x80 DUP6 ADD MLOAD PUSH1 0x1F NOT DUP1 DUP7 DUP6 SUB ADD PUSH1 0xA0 DUP8 ADD MSTORE PUSH2 0x509D DUP5 DUP4 PUSH2 0x4BE5 JUMP JUMPDEST SWAP4 POP PUSH1 0xA0 DUP8 ADD MLOAD SWAP2 POP PUSH2 0x50BB PUSH1 0xC0 DUP8 ADD DUP4 PUSH1 0x1 PUSH1 0x1 PUSH1 0xA0 SHL SUB AND SWAP1 MSTORE JUMP JUMPDEST PUSH1 0xC0 DUP8 ADD MLOAD PUSH1 0xE0 DUP8 DUP2 ADD SWAP2 SWAP1 SWAP2 MSTORE DUP8 ADD MLOAD PUSH2 0x100 DUP1 DUP9 ADD SWAP2 SWAP1 SWAP2 MSTORE DUP8 ADD MLOAD PUSH2 0x120 DUP1 DUP9 ADD SWAP2 SWAP1 SWAP2 MSTORE DUP8 ADD MLOAD PUSH2 0x140 DUP1 DUP9 ADD SWAP2 SWAP1 SWAP2 MSTORE DUP8 ADD MLOAD PUSH2 0x160 DUP1 DUP9 ADD SWAP2 SWAP1 SWAP2 MSTORE DUP8 ADD MLOAD PUSH2 0x180 DUP1 DUP9 ADD SWAP2 SWAP1 SWAP2 MSTORE DUP8 ADD MLOAD DUP7 DUP6 SUB SWAP1 SWAP2 ADD DUP4 DUP8 ADD MSTORE SWAP1 POP PUSH2 0x4D6F DUP4 DUP3 PUSH2 0x4FDA JUMP JUMPDEST PUSH1 0x20 DUP2 ADD PUSH1 0x5 DUP4 LT PUSH2 0x5137 JUMPI PUSH2 0x5137 PUSH2 0x4DF3 JUMP JUMPDEST SWAP2 SWAP1 MSTORE SWAP1 JUMP JUMPDEST PUSH2 0x180 DUP2 MSTORE PUSH1 0x0 PUSH2 0x5152 PUSH2 0x180 DUP4 ADD DUP16 PUSH2 0x4BE5 JUMP JUMPDEST PUSH1 0x1 PUSH1 0x1 PUSH1 0x40 SHL SUB DUP15 AND PUSH1 0x20 DUP5 ADD MSTORE DUP13 ISZERO ISZERO PUSH1 0x40 DUP5 ADD MSTORE DUP3 DUP2 SUB PUSH1 0x60 DUP5 ADD MSTORE PUSH2 0x517B DUP2 DUP14 PUSH2 0x4BE5 JUMP JUMPDEST SWAP1 POP PUSH2 0x518C PUSH1 0x80 DUP5 ADD DUP13 PUSH1 0x7 SIGNEXTEND SWAP1 MSTORE JUMP JUMPDEST PUSH2 0x519B PUSH1 0xA0 DUP5 ADD DUP12 PUSH1 0x7 SIGNEXTEND SWAP1 MSTORE JUMP JUMPDEST DUP9 PUSH1 0xC0 DUP5 ADD MSTORE DUP8 PUSH1 0xE0 DUP5 ADD MSTORE DUP7 PUSH2 0x100 DUP5 ADD MSTORE DUP3 DUP2 SUB PUSH2 0x120 DUP5 ADD MSTORE PUSH2 0x51C1 DUP2 DUP8 PUSH2 0x4BE5 JUMP JUMPDEST PUSH1 0x1 PUSH1 0x1 PUSH1 0x40 SHL SUB DUP7 AND PUSH2 0x140 DUP6 ADD MSTORE SWAP1 POP DUP3 DUP2 SUB PUSH2 0x160 DUP5 ADD MSTORE PUSH2 0x51E6 DUP2 DUP6 PUSH2 0x4C11 JUMP JUMPDEST SWAP16 SWAP15 POP POP POP POP POP POP POP POP POP POP POP POP POP POP POP JUMP JUMPDEST PUSH1 0x0 PUSH1 0x20 DUP1 DUP4 ADD DUP2 DUP5 MSTORE DUP1 DUP6 MLOAD DUP1 DUP4 MSTORE PUSH1 0x40 DUP7 ADD SWAP2 POP PUSH1 0x40 DUP2 PUSH1 0x5 SHL DUP8 ADD ADD SWAP3 POP DUP4 DUP8 ADD PUSH1 0x0 JUMPDEST DUP3 DUP2 LT ISZERO PUSH2 0x524E JUMPI PUSH1 0x3F NOT DUP9 DUP7 SUB ADD DUP5 MSTORE PUSH2 0x523C DUP6 DUP4 MLOAD PUSH2 0x4BE5 JUMP JUMPDEST SWAP5 POP SWAP3 DUP6 ADD SWAP3 SWAP1 DUP6 ADD SWAP1 PUSH1 0x1 ADD PUSH2 0x5220 JUMP JUMPDEST POP SWAP3 SWAP8 SWAP7 POP POP POP POP POP POP POP JUMP JUMPDEST PUSH1 0x20 DUP2 MSTORE DUP2 MLOAD PUSH1 0x20 DUP3 ADD MSTORE PUSH1 0x1 DUP1 PUSH1 0xA0 SHL SUB PUSH1 0x20 DUP4 ADD MLOAD AND PUSH1 0x40 DUP3 ADD MSTORE PUSH1 0x0 PUSH1 0x40 DUP4 ADD MLOAD PUSH1 0xC0 PUSH1 0x60 DUP5 ADD MSTORE PUSH2 0x5293 PUSH1 0xE0 DUP5 ADD DUP3 PUSH2 0x4BE5 JUMP JUMPDEST SWAP1 POP PUSH1 0x60 DUP5 ADD MLOAD PUSH1 0x1F NOT DUP1 DUP6 DUP5 SUB ADD PUSH1 0x80 DUP7 ADD MSTORE PUSH2 0x52B1 DUP4 DUP4 PUSH2 0x4BE5 JUMP JUMPDEST SWAP3 POP PUSH1 0x80 DUP7 ADD MLOAD SWAP2 POP DUP1 DUP6 DUP5 SUB ADD PUSH1 0xA0 DUP7 ADD MSTORE POP PUSH2 0x52CF DUP3 DUP3 PUSH2 0x4BE5 JUMP JUMPDEST SWAP2 POP POP PUSH1 0xA0 DUP5 ADD MLOAD PUSH1 0xC0 DUP5 ADD MSTORE DUP1 SWAP2 POP POP SWAP3 SWAP2 POP POP JUMP JUMPDEST PUSH1 0x0 DUP1 PUSH1 0x0 PUSH1 0x40 DUP5 DUP7 SUB SLT ISZERO PUSH2 0x52FB JUMPI PUSH1 0x0 DUP1 REVERT JUMPDEST DUP4 CALLDATALOAD PUSH1 0x1 PUSH1 0x1 PUSH1 0x40 SHL SUB DUP2 GT ISZERO PUSH2 0x5311 JUMPI PUSH1 0x0 DUP1 REVERT JUMPDEST PUSH2 0x531D DUP7 DUP3 DUP8 ADD PUSH2 0x4953 JUMP JUMPDEST SWAP1 SWAP5 POP SWAP3 POP POP PUSH1 0x20 DUP5 ADD CALLDATALOAD PUSH1 0x5 DUP2 LT PUSH2 0x4A29 JUMPI PUSH1 0x0 DUP1 REVERT JUMPDEST PUSH1 0x6 DUP2 LT PUSH2 0x4518 JUMPI PUSH1 0x0 DUP1 REVERT JUMPDEST PUSH1 0x0 DUP1 PUSH1 0x40 DUP4 DUP6 SUB SLT ISZERO PUSH2 0x5355 JUMPI PUSH1 0x0 DUP1 REVERT JUMPDEST DUP3 CALLDATALOAD SWAP2 POP PUSH1 0x20 DUP4 ADD CALLDATALOAD PUSH2 0x4BB6 DUP2 PUSH2 0x5335 JUMP JUMPDEST DUP7 DUP2 MSTORE PUSH1 0x1 PUSH1 0x1 PUSH1 0xA0 SHL SUB DUP7 AND PUSH1 0x20 DUP3 ADD MSTORE PUSH1 0xC0 PUSH1 0x40 DUP3 ADD DUP2 SWAP1 MSTORE PUSH1 0x0 SWAP1 PUSH2 0x5391 SWAP1 DUP4 ADD DUP8 PUSH2 0x4BE5 JUMP JUMPDEST DUP3 DUP2 SUB PUSH1 0x60 DUP5 ADD MSTORE PUSH2 0x53A3 DUP2 DUP8 PUSH2 0x4BE5 JUMP JUMPDEST SWAP1 POP DUP3 DUP2 SUB PUSH1 0x80 DUP5 ADD MSTORE PUSH2 0x53B7 DUP2 DUP7 PUSH2 0x4BE5 JUMP JUMPDEST SWAP2 POP POP DUP3 PUSH1 0xA0 DUP4 ADD MSTORE SWAP8 SWAP7 POP POP POP POP POP POP POP JUMP JUMPDEST PUSH1 0x0 DUP1 PUSH1 0x40 DUP4 DUP6 SUB SLT ISZERO PUSH2 0x53DE JUMPI PUSH1 0x0 DUP1 REVERT JUMPDEST DUP3 CALLDATALOAD SWAP2 POP PUSH1 0x20 DUP4 ADD CALLDATALOAD PUSH1 0x1 PUSH1 0x1 PUSH1 0x40 SHL SUB DUP2 GT ISZERO PUSH2 0x53FB JUMPI PUSH1 0x0 DUP1 REVERT JUMPDEST DUP4 ADD PUSH1 0xC0 DUP2 DUP7 SUB SLT ISZERO PUSH2 0x4BB6 JUMPI PUSH1 0x0 DUP1 REVERT JUMPDEST PUSH1 0x0 DUP1 PUSH1 0x40 DUP4 DUP6 SUB SLT ISZERO PUSH2 0x5420 JUMPI PUSH1 0x0 DUP1 REVERT JUMPDEST DUP3 CALLDATALOAD PUSH2 0x542B DUP2 PUSH2 0x49E6 JUMP JUMPDEST SWAP2 POP PUSH1 0x20 DUP4 ADD CALLDATALOAD PUSH2 0x4BB6 DUP2 PUSH2 0x49E6 JUMP JUMPDEST PUSH1 0x40 DUP2 MSTORE PUSH1 0x0 PUSH2 0x544E PUSH1 0x40 DUP4 ADD DUP6 PUSH2 0x4BE5 JUMP JUMPDEST SWAP1 POP DUP3 ISZERO ISZERO PUSH1 0x20 DUP4 ADD MSTORE SWAP4 SWAP3 POP POP POP JUMP JUMPDEST PUSH1 0x0 DUP1 PUSH1 0x0 PUSH1 0x40 DUP5 DUP7 SUB SLT ISZERO PUSH2 0x5474 JUMPI PUSH1 0x0 DUP1 REVERT JUMPDEST DUP4 CALLDATALOAD PUSH1 0x1 PUSH1 0x1 PUSH1 0x40 SHL SUB DUP1 DUP3 GT ISZERO PUSH2 0x548B JUMPI PUSH1 0x0 DUP1 REVERT JUMPDEST PUSH2 0x5497 DUP8 DUP4 DUP9 ADD PUSH2 0x4953 JUMP JUMPDEST SWAP1 SWAP6 POP SWAP4 POP PUSH1 0x20 DUP7 ADD CALLDATALOAD SWAP2 POP DUP1 DUP3 GT ISZERO PUSH2 0x54B0 JUMPI PUSH1 0x0 DUP1 REVERT JUMPDEST POP DUP5 ADD PUSH1 0x40 DUP2 DUP8 SUB SLT ISZERO PUSH2 0x4A29 JUMPI PUSH1 0x0 DUP1 REVERT JUMPDEST PUSH1 0x20 DUP1 DUP3 MSTORE PUSH1 0xC SWAP1 DUP3 ADD MSTORE PUSH12 0x155B985D5D1A1BDC9A5E9959 PUSH1 0xA2 SHL PUSH1 0x40 DUP3 ADD MSTORE PUSH1 0x60 ADD SWAP1 JUMP JUMPDEST DUP2 DUP4 DUP3 CALLDATACOPY PUSH1 0x0 SWAP2 ADD SWAP1 DUP2 MSTORE SWAP2 SWAP1 POP JUMP JUMPDEST PUSH1 0x1 DUP2 DUP2 SHR SWAP1 DUP3 AND DUP1 PUSH2 0x550D JUMPI PUSH1 0x7F DUP3 AND SWAP2 POP JUMPDEST PUSH1 0x20 DUP3 LT DUP2 SUB PUSH2 0x552D JUMPI PUSH4 0x4E487B71 PUSH1 0xE0 SHL PUSH1 0x0 MSTORE PUSH1 0x22 PUSH1 0x4 MSTORE PUSH1 0x24 PUSH1 0x0 REVERT JUMPDEST POP SWAP2 SWAP1 POP JUMP JUMPDEST JUMPDEST DUP2 DUP2 LT ISZERO PUSH2 0x1160 JUMPI PUSH1 0x0 DUP2 SSTORE PUSH1 0x1 ADD PUSH2 0x5534 JUMP JUMPDEST PUSH1 0x1F DUP3 GT ISZERO PUSH2 0xC6E JUMPI DUP1 PUSH1 0x0 MSTORE PUSH1 0x20 PUSH1 0x0 KECCAK256 PUSH1 0x1F DUP5 ADD PUSH1 0x5 SHR DUP2 ADD PUSH1 0x20 DUP6 LT ISZERO PUSH2 0x556F JUMPI POP DUP1 JUMPDEST PUSH2 0x1FC1 PUSH1 0x1F DUP6 ADD PUSH1 0x5 SHR DUP4 ADD DUP3 PUSH2 0x5533 JUMP JUMPDEST PUSH1 0x0 NOT PUSH1 0x3 DUP4 SWAP1 SHL SHR NOT AND PUSH1 0x1 SWAP2 SWAP1 SWAP2 SHL OR SWAP1 JUMP JUMPDEST DUP2 MLOAD PUSH1 0x1 PUSH1 0x1 PUSH1 0x40 SHL SUB DUP2 GT ISZERO PUSH2 0x55AF JUMPI PUSH2 0x55AF PUSH2 0x4A6F JUMP JUMPDEST PUSH2 0x55C3 DUP2 PUSH2 0x55BD DUP5 SLOAD PUSH2 0x54F9 JUMP JUMPDEST DUP5 PUSH2 0x5548 JUMP JUMPDEST PUSH1 0x20 DUP1 PUSH1 0x1F DUP4 GT PUSH1 0x1 DUP2 EQ PUSH2 0x55F2 JUMPI PUSH1 0x0 DUP5 ISZERO PUSH2 0x55E0 JUMPI POP DUP6 DUP4 ADD MLOAD JUMPDEST PUSH2 0x55EA DUP6 DUP3 PUSH2 0x5581 JUMP JUMPDEST DUP7 SSTORE POP PUSH2 0x1BE3 JUMP JUMPDEST PUSH1 0x0 DUP6 DUP2 MSTORE PUSH1 0x20 DUP2 KECCAK256 PUSH1 0x1F NOT DUP7 AND SWAP2 JUMPDEST DUP3 DUP2 LT ISZERO PUSH2 0x5621 JUMPI DUP9 DUP7 ADD MLOAD DUP3 SSTORE SWAP5 DUP5 ADD SWAP5 PUSH1 0x1 SWAP1 SWAP2 ADD SWAP1 DUP5 ADD PUSH2 0x5602 JUMP JUMPDEST POP DUP6 DUP3 LT ISZERO PUSH2 0x563F JUMPI DUP8 DUP6 ADD MLOAD PUSH1 0x0 NOT PUSH1 0x3 DUP9 SWAP1 SHL PUSH1 0xF8 AND SHR NOT AND DUP2 SSTORE JUMPDEST POP POP POP POP POP PUSH1 0x1 SWAP1 DUP2 SHL ADD SWAP1 SSTORE POP JUMP JUMPDEST PUSH1 0x0 DUP1 DUP4 CALLDATALOAD PUSH1 0x1E NOT DUP5 CALLDATASIZE SUB ADD DUP2 SLT PUSH2 0x5666 JUMPI PUSH1 0x0 DUP1 REVERT JUMPDEST DUP4 ADD DUP1 CALLDATALOAD SWAP2 POP PUSH1 0x1 PUSH1 0x1 PUSH1 0x40 SHL SUB DUP3 GT ISZERO PUSH2 0x5680 JUMPI PUSH1 0x0 DUP1 REVERT JUMPDEST PUSH1 0x20 ADD SWAP2 POP CALLDATASIZE DUP2 SWAP1 SUB DUP3 SGT ISZERO PUSH2 0x4994 JUMPI PUSH1 0x0 DUP1 REVERT JUMPDEST PUSH1 0x1 PUSH1 0x1 PUSH1 0x40 SHL SUB DUP4 GT ISZERO PUSH2 0x56AC JUMPI PUSH2 0x56AC PUSH2 0x4A6F JUMP JUMPDEST PUSH2 0x56C0 DUP4 PUSH2 0x56BA DUP4 SLOAD PUSH2 0x54F9 JUMP JUMPDEST DUP4 PUSH2 0x5548 JUMP JUMPDEST PUSH1 0x0 PUSH1 0x1F DUP5 GT PUSH1 0x1 DUP2 EQ PUSH2 0x56EE JUMPI PUSH1 0x0 DUP6 ISZERO PUSH2 0x56DC JUMPI POP DUP4 DUP3 ADD CALLDATALOAD JUMPDEST PUSH2 0x56E6 DUP7 DUP3 PUSH2 0x5581 JUMP JUMPDEST DUP5 SSTORE POP PUSH2 0x1FC1 JUMP JUMPDEST PUSH1 0x0 DUP4 DUP2 MSTORE PUSH1 0x20 SWAP1 KECCAK256 PUSH1 0x1F NOT DUP7 AND SWAP1 DUP4 JUMPDEST DUP3 DUP2 LT ISZERO PUSH2 0x571F JUMPI DUP7 DUP6 ADD CALLDATALOAD DUP3 SSTORE PUSH1 0x20 SWAP5 DUP6 ADD SWAP5 PUSH1 0x1 SWAP1 SWAP3 ADD SWAP2 ADD PUSH2 0x56FF JUMP JUMPDEST POP DUP7 DUP3 LT ISZERO PUSH2 0x573C JUMPI PUSH1 0x0 NOT PUSH1 0xF8 DUP9 PUSH1 0x3 SHL AND SHR NOT DUP5 DUP8 ADD CALLDATALOAD AND DUP2 SSTORE JUMPDEST POP POP PUSH1 0x1 DUP6 PUSH1 0x1 SHL ADD DUP4 SSTORE POP POP POP POP POP JUMP JUMPDEST PUSH1 0x0 DUP2 CALLDATALOAD PUSH2 0xA14 DUP2 PUSH2 0x4F7A JUMP JUMPDEST PUSH1 0x0 DUP2 CALLDATALOAD DUP1 ISZERO ISZERO DUP2 EQ PUSH2 0xA14 JUMPI PUSH1 0x0 DUP1 REVERT JUMPDEST PUSH1 0x0 DUP2 CALLDATALOAD DUP1 PUSH1 0x7 SIGNEXTEND DUP2 EQ PUSH2 0xA14 JUMPI PUSH1 0x0 DUP1 REVERT JUMPDEST PUSH1 0x0 DUP3 CALLDATALOAD PUSH1 0x7E NOT DUP4 CALLDATASIZE SUB ADD DUP2 SLT PUSH2 0x5796 JUMPI PUSH1 0x0 DUP1 REVERT JUMPDEST SWAP2 SWAP1 SWAP2 ADD SWAP3 SWAP2 POP POP JUMP JUMPDEST PUSH2 0x57AA DUP3 DUP4 PUSH2 0x564F JUMP JUMPDEST PUSH1 0x1 PUSH1 0x1 PUSH1 0x40 SHL SUB DUP2 GT ISZERO PUSH2 0x57C1 JUMPI PUSH2 0x57C1 PUSH2 0x4A6F JUMP JUMPDEST PUSH2 0x57D5 DUP2 PUSH2 0x57CF DUP6 SLOAD PUSH2 0x54F9 JUMP JUMPDEST DUP6 PUSH2 0x5548 JUMP JUMPDEST PUSH1 0x0 PUSH1 0x1F DUP3 GT PUSH1 0x1 DUP2 EQ PUSH2 0x5803 JUMPI PUSH1 0x0 DUP4 ISZERO PUSH2 0x57F1 JUMPI POP DUP4 DUP3 ADD CALLDATALOAD JUMPDEST PUSH2 0x57FB DUP5 DUP3 PUSH2 0x5581 JUMP JUMPDEST DUP7 SSTORE POP PUSH2 0x585D JUMP JUMPDEST PUSH1 0x0 DUP6 DUP2 MSTORE PUSH1 0x20 SWAP1 KECCAK256 PUSH1 0x1F NOT DUP5 AND SWAP1 DUP4 JUMPDEST DUP3 DUP2 LT ISZERO PUSH2 0x5834 JUMPI DUP7 DUP6 ADD CALLDATALOAD DUP3 SSTORE PUSH1 0x20 SWAP5 DUP6 ADD SWAP5 PUSH1 0x1 SWAP1 SWAP3 ADD SWAP2 ADD PUSH2 0x5814 JUMP JUMPDEST POP DUP5 DUP3 LT ISZERO PUSH2 0x5851 JUMPI PUSH1 0x0 NOT PUSH1 0xF8 DUP7 PUSH1 0x3 SHL AND SHR NOT DUP5 DUP8 ADD CALLDATALOAD AND DUP2 SSTORE JUMPDEST POP POP PUSH1 0x1 DUP4 PUSH1 0x1 SHL ADD DUP6 SSTORE JUMPDEST POP POP POP POP PUSH1 0x1 DUP2 ADD PUSH2 0x5892 PUSH2 0x5874 PUSH1 0x20 DUP6 ADD PUSH2 0x574E JUMP JUMPDEST DUP3 SLOAD PUSH8 0xFFFFFFFFFFFFFFFF NOT AND PUSH1 0x1 PUSH1 0x1 PUSH1 0x40 SHL SUB SWAP2 SWAP1 SWAP2 AND OR DUP3 SSTORE JUMP JUMPDEST PUSH2 0x58C9 PUSH2 0x58A1 PUSH1 0x40 DUP6 ADD PUSH2 0x575B JUMP JUMPDEST DUP3 DUP1 SLOAD PUSH9 0xFF0000000000000000 NOT AND SWAP2 ISZERO ISZERO PUSH1 0x40 SHL PUSH9 0xFF0000000000000000 AND SWAP2 SWAP1 SWAP2 OR SWAP1 SSTORE JUMP JUMPDEST PUSH2 0xC6E PUSH2 0x58D8 PUSH1 0x60 DUP6 ADD PUSH2 0x575B JUMP JUMPDEST DUP3 DUP1 SLOAD PUSH10 0xFF000000000000000000 NOT AND SWAP2 ISZERO ISZERO PUSH1 0x48 SHL PUSH10 0xFF000000000000000000 AND SWAP2 SWAP1 SWAP2 OR SWAP1 SSTORE JUMP JUMPDEST PUSH2 0x590C DUP3 DUP4 PUSH2 0x564F JUMP JUMPDEST PUSH2 0x5917 DUP2 DUP4 DUP6 PUSH2 0x5695 JUMP JUMPDEST POP POP PUSH1 0x1 DUP2 ADD PUSH2 0x592C PUSH2 0x5874 PUSH1 0x20 DUP6 ADD PUSH2 0x574E JUMP JUMPDEST PUSH2 0x593B PUSH2 0x58A1 PUSH1 0x40 DUP6 ADD PUSH2 0x575B JUMP JUMPDEST POP PUSH2 0x5949 PUSH1 0x60 DUP4 ADD DUP4 PUSH2 0x564F JUMP JUMPDEST PUSH2 0x5957 DUP2 DUP4 PUSH1 0x2 DUP7 ADD PUSH2 0x5695 JUMP JUMPDEST POP POP PUSH1 0x3 DUP2 ADD PUSH2 0x596C PUSH2 0x5874 PUSH1 0x80 DUP6 ADD PUSH2 0x576D JUMP JUMPDEST PUSH2 0x59AF PUSH2 0x597B PUSH1 0xA0 DUP6 ADD PUSH2 0x576D JUMP JUMPDEST DUP3 SLOAD PUSH1 0x40 SWAP2 SWAP1 SWAP2 SHL PUSH16 0xFFFFFFFFFFFFFFFF0000000000000000 AND PUSH16 0xFFFFFFFFFFFFFFFF0000000000000000 NOT SWAP1 SWAP2 AND OR DUP3 SSTORE JUMP JUMPDEST POP PUSH1 0xC0 DUP3 ADD CALLDATALOAD PUSH1 0x4 DUP3 ADD SSTORE PUSH1 0xE0 DUP3 ADD CALLDATALOAD PUSH1 0x5 DUP3 ADD SSTORE PUSH2 0x100 DUP3 ADD CALLDATALOAD PUSH1 0x6 DUP3 ADD SSTORE PUSH2 0x59DD PUSH2 0x120 DUP4 ADD DUP4 PUSH2 0x564F JUMP JUMPDEST PUSH2 0x59EB DUP2 DUP4 PUSH1 0x7 DUP7 ADD PUSH2 0x5695 JUMP JUMPDEST POP POP PUSH2 0x5A1E PUSH2 0x59FD PUSH2 0x140 DUP5 ADD PUSH2 0x574E JUMP JUMPDEST PUSH1 0x8 DUP4 ADD PUSH1 0x1 PUSH1 0x1 PUSH1 0x40 SHL SUB DUP3 AND PUSH1 0x1 PUSH1 0x1 PUSH1 0x40 SHL SUB NOT DUP3 SLOAD AND OR DUP2 SSTORE POP POP JUMP JUMPDEST PUSH2 0x1160 PUSH2 0x5A2F PUSH2 0x160 DUP5 ADD DUP5 PUSH2 0x5780 JUMP JUMPDEST PUSH1 0x9 DUP4 ADD PUSH2 0x57A0 JUMP JUMPDEST PUSH4 0x4E487B71 PUSH1 0xE0 SHL PUSH1 0x0 MSTORE PUSH1 0x32 PUSH1 0x4 MSTORE PUSH1 0x24 PUSH1 0x0 REVERT JUMPDEST PUSH1 0x20 DUP2 MSTORE PUSH1 0x0 PUSH2 0x11ED PUSH1 0x20 DUP4 ADD DUP5 PUSH2 0x4C11 JUMP JUMPDEST PUSH1 0x0 PUSH1 0x20 DUP3 DUP5 SUB SLT ISZERO PUSH2 0x5A73 JUMPI PUSH1 0x0 DUP1 REVERT JUMPDEST DUP2 MLOAD PUSH1 0x1 PUSH1 0x1 PUSH1 0x40 SHL SUB DUP2 GT ISZERO PUSH2 0x5A89 JUMPI PUSH1 0x0 DUP1 REVERT JUMPDEST DUP3 ADD PUSH1 0x1F DUP2 ADD DUP5 SGT PUSH2 0x5A9A JUMPI PUSH1 0x0 DUP1 REVERT JUMPDEST DUP1 MLOAD PUSH2 0x5AA8 PUSH2 0x4B23 DUP3 PUSH2 0x4AB5 JUMP JUMPDEST DUP2 DUP2 MSTORE DUP6 PUSH1 0x20 DUP4 DUP6 ADD ADD GT ISZERO PUSH2 0x5ABD JUMPI PUSH1 0x0 DUP1 REVERT JUMPDEST PUSH2 0x5ACE DUP3 PUSH1 0x20 DUP4 ADD PUSH1 0x20 DUP7 ADD PUSH2 0x4BC1 JUMP JUMPDEST SWAP6 SWAP5 POP POP POP POP POP JUMP JUMPDEST PUSH4 0x4E487B71 PUSH1 0xE0 SHL PUSH1 0x0 MSTORE PUSH1 0x11 PUSH1 0x4 MSTORE PUSH1 0x24 PUSH1 0x0 REVERT JUMPDEST DUP1 DUP3 ADD DUP1 DUP3 GT ISZERO PUSH2 0xA14 JUMPI PUSH2 0xA14 PUSH2 0x5AD7 JUMP JUMPDEST PUSH1 0x0 PUSH1 0x1 DUP3 ADD PUSH2 0x5B12 JUMPI PUSH2 0x5B12 PUSH2 0x5AD7 JUMP JUMPDEST POP PUSH1 0x1 ADD SWAP1 JUMP JUMPDEST PUSH1 0x20 DUP1 DUP3 MSTORE PUSH1 0x16 SWAP1 DUP3 ADD MSTORE PUSH22 0x141C9BDC1BDCD85B08191BD95CDB89DD08195E1A5CDD PUSH1 0x52 SHL PUSH1 0x40 DUP3 ADD MSTORE PUSH1 0x60 ADD SWAP1 JUMP JUMPDEST DUP2 DUP2 SUB PUSH2 0x5B54 JUMPI POP POP JUMP JUMPDEST PUSH2 0x5B5E DUP3 SLOAD PUSH2 0x54F9 JUMP JUMPDEST PUSH1 0x1 PUSH1 0x1 PUSH1 0x40 SHL SUB DUP2 GT ISZERO PUSH2 0x5B75 JUMPI PUSH2 0x5B75 PUSH2 0x4A6F JUMP JUMPDEST PUSH2 0x5B83 DUP2 PUSH2 0x55BD DUP5 SLOAD PUSH2 0x54F9 JUMP JUMPDEST PUSH1 0x0 PUSH1 0x1F DUP3 GT PUSH1 0x1 DUP2 EQ PUSH2 0x5BB1 JUMPI PUSH1 0x0 DUP4 ISZERO PUSH2 0x5B9F JUMPI POP DUP5 DUP3 ADD SLOAD JUMPDEST PUSH2 0x5BA9 DUP5 DUP3 PUSH2 0x5581 JUMP JUMPDEST DUP6 SSTORE POP PUSH2 0x1FC1 JUMP JUMPDEST PUSH1 0x0 DUP6 DUP2 MSTORE PUSH1 0x20 SWAP1 KECCAK256 PUSH1 0x1F NOT DUP5 AND SWAP1 PUSH1 0x0 DUP7 DUP2 MSTORE PUSH1 0x20 SWAP1 KECCAK256 DUP5 JUMPDEST DUP4 DUP2 LT ISZERO PUSH2 0x5BEB JUMPI DUP3 DUP7 ADD SLOAD DUP3 SSTORE PUSH1 0x1 SWAP6 DUP7 ADD SWAP6 SWAP1 SWAP2 ADD SWAP1 PUSH1 0x20 ADD PUSH2 0x5BCB JUMP JUMPDEST POP DUP6 DUP4 LT ISZERO PUSH2 0x563F JUMPI SWAP4 ADD SLOAD PUSH1 0x0 NOT PUSH1 0xF8 PUSH1 0x3 DUP8 SWAP1 SHL AND SHR NOT AND SWAP1 SWAP3 SSTORE POP POP PUSH1 0x1 SWAP1 DUP2 SHL ADD SWAP1 SSTORE POP JUMP JUMPDEST PUSH1 0x0 DUP2 CALLDATALOAD PUSH2 0xA14 DUP2 PUSH2 0x49E6 JUMP JUMPDEST DUP1 SLOAD PUSH1 0x1 PUSH1 0x1 PUSH1 0xA0 SHL SUB NOT AND PUSH1 0x1 PUSH1 0x1 PUSH1 0xA0 SHL SUB SWAP3 SWAP1 SWAP3 AND SWAP2 SWAP1 SWAP2 OR SWAP1 SSTORE JUMP JUMPDEST PUSH1 0x0 DUP2 CALLDATALOAD PUSH2 0xA14 DUP2 PUSH2 0x5335 JUMP JUMPDEST PUSH1 0x6 DUP3 LT PUSH2 0x5C5F JUMPI PUSH2 0x5C5F PUSH2 0x4DF3 JUMP JUMPDEST DUP1 SLOAD PUSH1 0xFF PUSH1 0xA0 SHL NOT AND PUSH1 0xA0 SWAP3 SWAP1 SWAP3 SHL PUSH1 0xFF PUSH1 0xA0 SHL AND SWAP2 SWAP1 SWAP2 OR SWAP1 SSTORE JUMP JUMPDEST PUSH1 0x0 DUP1 DUP4 CALLDATALOAD PUSH1 0x1E NOT DUP5 CALLDATASIZE SUB ADD DUP2 SLT PUSH2 0x5C93 JUMPI PUSH1 0x0 DUP1 REVERT JUMPDEST DUP4 ADD DUP1 CALLDATALOAD SWAP2 POP PUSH1 0x1 PUSH1 0x1 PUSH1 0x40 SHL SUB DUP3 GT ISZERO PUSH2 0x5CAD JUMPI PUSH1 0x0 DUP1 REVERT JUMPDEST PUSH1 0x20 ADD SWAP2 POP PUSH1 0x5 DUP2 SWAP1 SHL CALLDATASIZE SUB DUP3 SGT ISZERO PUSH2 0x4994 JUMPI PUSH1 0x0 DUP1 REVERT JUMPDEST DUP1 DUP3 MUL DUP2 ISZERO DUP3 DUP3 DIV DUP5 EQ OR PUSH2 0xA14 JUMPI PUSH2 0xA14 PUSH2 0x5AD7 JUMP JUMPDEST PUSH1 0x1 PUSH1 0x1 PUSH1 0x40 SHL SUB DUP4 GT ISZERO PUSH2 0x5CF3 JUMPI PUSH2 0x5CF3 PUSH2 0x4A6F JUMP JUMPDEST PUSH1 0x1 PUSH1 0x40 SHL DUP4 GT ISZERO PUSH2 0x5D07 JUMPI PUSH2 0x5D07 PUSH2 0x4A6F JUMP JUMPDEST DUP1 SLOAD DUP4 DUP3 SSTORE DUP1 DUP5 LT ISZERO PUSH2 0x5D2D JUMPI DUP2 PUSH1 0x0 MSTORE PUSH1 0x20 PUSH1 0x0 KECCAK256 PUSH2 0x5D2B DUP3 DUP3 ADD DUP7 DUP4 ADD PUSH2 0x5533 JUMP JUMPDEST POP JUMPDEST POP DUP2 DUP2 PUSH1 0x0 MSTORE PUSH1 0x20 DUP1 PUSH1 0x0 KECCAK256 PUSH1 0x0 JUMPDEST DUP7 DUP2 LT ISZERO PUSH2 0x1A49 JUMPI DUP4 CALLDATALOAD DUP3 DUP3 ADD SSTORE SWAP3 DUP3 ADD SWAP3 PUSH1 0x1 ADD PUSH2 0x5D3C JUMP JUMPDEST DUP2 CALLDATALOAD DUP2 SSTORE PUSH1 0x1 DUP2 ADD PUSH2 0x5D73 PUSH2 0x5D6D PUSH1 0x20 DUP6 ADD PUSH2 0x5C15 JUMP JUMPDEST DUP3 PUSH2 0x5C22 JUMP JUMPDEST PUSH2 0x5D88 PUSH2 0x5D82 PUSH1 0x40 DUP6 ADD PUSH2 0x5C42 JUMP JUMPDEST DUP3 PUSH2 0x5C4F JUMP JUMPDEST POP PUSH2 0x5D96 PUSH1 0x60 DUP4 ADD DUP4 PUSH2 0x564F JUMP JUMPDEST PUSH2 0x5DA4 DUP2 DUP4 PUSH1 0x2 DUP7 ADD PUSH2 0x5695 JUMP JUMPDEST POP POP PUSH2 0x5DB3 PUSH1 0x80 DUP4 ADD DUP4 PUSH2 0x564F JUMP JUMPDEST PUSH2 0x5DC1 DUP2 DUP4 PUSH1 0x3 DUP7 ADD PUSH2 0x5695 JUMP JUMPDEST POP POP PUSH2 0x5DDB PUSH2 0x5DD2 PUSH1 0xA0 DUP5 ADD PUSH2 0x5C15 JUMP JUMPDEST PUSH1 0x4 DUP4 ADD PUSH2 0x5C22 JUMP JUMPDEST PUSH1 0xC0 DUP3 ADD CALLDATALOAD PUSH1 0x5 DUP3 ADD SSTORE PUSH1 0xE0 DUP3 ADD CALLDATALOAD PUSH1 0x6 DUP3 ADD SSTORE PUSH2 0x100 DUP3 ADD CALLDATALOAD PUSH1 0x7 DUP3 ADD SSTORE PUSH2 0x120 DUP3 ADD CALLDATALOAD PUSH1 0x8 DUP3 ADD SSTORE PUSH2 0x140 DUP3 ADD CALLDATALOAD PUSH1 0x9 DUP3 ADD SSTORE PUSH2 0x160 DUP3 ADD CALLDATALOAD PUSH1 0xA DUP3 ADD SSTORE PUSH2 0x5E29 PUSH2 0x180 DUP4 ADD DUP4 PUSH2 0x5C7C JUMP JUMPDEST PUSH2 0x13FC DUP2 DUP4 PUSH1 0xB DUP7 ADD PUSH2 0x5CDC JUMP JUMPDEST DUP2 CALLDATALOAD DUP2 SSTORE PUSH1 0x1 PUSH1 0x20 DUP1 DUP5 ADD CALLDATALOAD PUSH2 0x5E4C DUP2 PUSH2 0x49E6 JUMP JUMPDEST PUSH2 0x5E58 DUP2 DUP5 DUP7 ADD PUSH2 0x5C22 JUMP JUMPDEST POP PUSH1 0x2 DUP4 ADD PUSH2 0x5E6A PUSH1 0x40 DUP7 ADD DUP7 PUSH2 0x564F JUMP JUMPDEST PUSH1 0x1 PUSH1 0x1 PUSH1 0x40 SHL SUB DUP2 GT ISZERO PUSH2 0x5E81 JUMPI PUSH2 0x5E81 PUSH2 0x4A6F JUMP JUMPDEST PUSH2 0x5E8F DUP2 PUSH2 0x57CF DUP6 SLOAD PUSH2 0x54F9 JUMP JUMPDEST PUSH1 0x0 PUSH1 0x1F DUP3 GT PUSH1 0x1 DUP2 EQ PUSH2 0x5EBD JUMPI PUSH1 0x0 DUP4 ISZERO PUSH2 0x5EAB JUMPI POP DUP4 DUP3 ADD CALLDATALOAD JUMPDEST PUSH2 0x5EB5 DUP5 DUP3 PUSH2 0x5581 JUMP JUMPDEST DUP7 SSTORE POP PUSH2 0x5F12 JUMP JUMPDEST PUSH1 0x0 DUP6 DUP2 MSTORE PUSH1 0x20 SWAP1 KECCAK256 PUSH1 0x1F NOT DUP5 AND SWAP1 DUP4 JUMPDEST DUP3 DUP2 LT ISZERO PUSH2 0x5EEB JUMPI DUP7 DUP6 ADD CALLDATALOAD DUP3 SSTORE SWAP4 DUP9 ADD SWAP4 SWAP1 DUP10 ADD SWAP1 DUP9 ADD PUSH2 0x5ECE JUMP JUMPDEST POP DUP5 DUP3 LT ISZERO PUSH2 0x5F08 JUMPI PUSH1 0x0 NOT PUSH1 0xF8 DUP7 PUSH1 0x3 SHL AND SHR NOT DUP5 DUP8 ADD CALLDATALOAD AND DUP2 SSTORE JUMPDEST POP POP DUP7 DUP4 DUP9 SHL ADD DUP6 SSTORE JUMPDEST POP POP POP POP POP POP POP PUSH2 0x5F26 PUSH1 0x60 DUP4 ADD DUP4 PUSH2 0x564F JUMP JUMPDEST PUSH2 0x5F34 DUP2 DUP4 PUSH1 0x3 DUP7 ADD PUSH2 0x5695 JUMP JUMPDEST POP POP PUSH2 0x5F43 PUSH1 0x80 DUP4 ADD DUP4 PUSH2 0x564F JUMP JUMPDEST PUSH2 0x5F51 DUP2 DUP4 PUSH1 0x4 DUP7 ADD PUSH2 0x5695 JUMP JUMPDEST POP POP PUSH1 0xA0 DUP3 ADD CALLDATALOAD PUSH1 0x5 DUP3 ADD SSTORE POP POP JUMP JUMPDEST DUP2 DUP2 SUB DUP2 DUP2 GT ISZERO PUSH2 0xA14 JUMPI PUSH2 0xA14 PUSH2 0x5AD7 JUMP JUMPDEST PUSH2 0x5F7E DUP3 DUP4 PUSH2 0x564F JUMP JUMPDEST PUSH1 0x1 PUSH1 0x1 PUSH1 0x40 SHL SUB DUP2 GT ISZERO PUSH2 0x5F95 JUMPI PUSH2 0x5F95 PUSH2 0x4A6F JUMP JUMPDEST PUSH2 0x5FA3 DUP2 PUSH2 0x57CF DUP6 SLOAD PUSH2 0x54F9 JUMP JUMPDEST PUSH1 0x0 PUSH1 0x1F DUP3 GT PUSH1 0x1 DUP2 EQ PUSH2 0x5FD1 JUMPI PUSH1 0x0 DUP4 ISZERO PUSH2 0x5FBF JUMPI POP DUP4 DUP3 ADD CALLDATALOAD JUMPDEST PUSH2 0x5FC9 DUP5 DUP3 PUSH2 0x5581 JUMP JUMPDEST DUP7 SSTORE POP PUSH2 0x602B JUMP JUMPDEST PUSH1 0x0 DUP6 DUP2 MSTORE PUSH1 0x20 SWAP1 KECCAK256 PUSH1 0x1F NOT DUP5 AND SWAP1 DUP4 JUMPDEST DUP3 DUP2 LT ISZERO PUSH2 0x6002 JUMPI DUP7 DUP6 ADD CALLDATALOAD DUP3 SSTORE PUSH1 0x20 SWAP5 DUP6 ADD SWAP5 PUSH1 0x1 SWAP1 SWAP3 ADD SWAP2 ADD PUSH2 0x5FE2 JUMP JUMPDEST POP DUP5 DUP3 LT ISZERO PUSH2 0x601F JUMPI PUSH1 0x0 NOT PUSH1 0xF8 DUP7 PUSH1 0x3 SHL AND SHR NOT DUP5 DUP8 ADD CALLDATALOAD AND DUP2 SSTORE JUMPDEST POP POP PUSH1 0x1 DUP4 PUSH1 0x1 SHL ADD DUP6 SSTORE JUMPDEST POP POP POP POP PUSH2 0x1160 PUSH2 0x603E PUSH1 0x20 DUP5 ADD PUSH2 0x575B JUMP JUMPDEST PUSH1 0x1 DUP4 ADD PUSH1 0xFF NOT DUP2 SLOAD AND PUSH1 0xFF DUP4 ISZERO ISZERO AND DUP2 OR DUP3 SSTORE POP POP POP JUMP JUMPDEST PUSH32 0x416363657373436F6E74726F6C3A206163636F756E7420000000000000000000 DUP2 MSTORE PUSH1 0x0 DUP4 MLOAD PUSH2 0x608F DUP2 PUSH1 0x17 DUP6 ADD PUSH1 0x20 DUP9 ADD PUSH2 0x4BC1 JUMP JUMPDEST PUSH17 0x1034B99036B4B9B9B4B733903937B6329 PUSH1 0x7D SHL PUSH1 0x17 SWAP2 DUP5 ADD SWAP2 DUP3 ADD MSTORE DUP4 MLOAD PUSH2 0x60C0 DUP2 PUSH1 0x28 DUP5 ADD PUSH1 0x20 DUP9 ADD PUSH2 0x4BC1 JUMP JUMPDEST ADD PUSH1 0x28 ADD SWAP5 SWAP4 POP POP POP POP JUMP JUMPDEST PUSH1 0x0 DUP2 PUSH2 0x60DB JUMPI PUSH2 0x60DB PUSH2 0x5AD7 JUMP JUMPDEST POP PUSH1 0x0 NOT ADD SWAP1 JUMP INVALID LOG2 PUSH5 0x6970667358 0x22 SLT KECCAK256 GASPRICE 0xF 0xF6 EXTCODECOPY XOR SWAP16 0xF 0xCC 0xCE SLOAD GAS SWAP4 0xB1 PUSH22 0xB6AAA4B0AEA313AA620E549C3F0FC2A2D38E64736F6C PUSH4 0x43000812 STOP CALLER "
		},
		"gasEstimates": {
			"creation": {
				"codeDepositCost": "4971400",
				"executionCost": "infinite",
				"totalCost": "infinite"
			},
			"external": {
				"DEFAULT_ADMIN_ROLE()": "285",
				"activateCid(bytes)": "infinite",
				"addDealRequest((bytes,uint64,bool,string,int64,int64,uint256,uint256,uint256,string,uint64,(string,uint64,bool,bool)))": "infinite",
				"addInvestorTokenToProposal(bytes32,uint256)": "infinite",
				"dealIds(uint256)": "4686",
				"dealRequestIdx(bytes32)": "4699",
				"dealRequests(uint256)": "infinite",
				"dealsLength()": "2405",
				"endVotingOnResearchResult(bytes32)": "infinite",
				"filDeposits(address)": "2580",
				"getActiveCids()": "infinite",
				"getActiveCidsLength()": "2383",
				"getDealByIndex(uint256)": "infinite",
				"getDealProposal(bytes32)": "infinite",
				"getDealRequest(bytes32)": "infinite",
				"getDealRequestsLength()": "2381",
				"getExtraParams(bytes32)": "infinite",
				"getInvestorTokensForProposal(bytes32)": "infinite",
				"getProposalIdSet(bytes)": "infinite",
				"getProviderSet(bytes)": "infinite",
				"getResearchDeal(bytes32)": "infinite",
				"getResearchProposal(bytes32)": "infinite",
				"getRoleAdmin(bytes32)": "2582",
				"getVoteStartForResarchProposal(bytes32)": "2512",
				"getVotesforResearchProposal(bytes32)": "6797",
				"grantRole(bytes32,address)": "infinite",
				"hasRole(bytes32,address)": "2718",
				"isAdmin(address)": "2731",
				"isTokenSupported(address)": "2665",
				"lockedAmount()": "2384",
				"numberOfSuccessfulProposals()": "2407",
				"pieceDeals(bytes)": "infinite",
				"pieceProviders(bytes)": "infinite",
				"pieceRequests(bytes)": "infinite",
				"pieceStatus(bytes)": "infinite",
				"removeToken(address)": "26828",
				"renounceRole(bytes32,address)": "29063",
				"researchDeals(bytes32)": "infinite",
				"researchProposals(bytes32)": "infinite",
				"revokeRole(bytes32,address)": "infinite",
				"setAuth(address,address)": "infinite",
				"setDealRequestIdx(bytes32,uint256,address)": "infinite",
				"setFilDeposit(address,uint256)": "26908",
				"setLockedAmount(uint256)": "26699",
				"setPieceDeal(bytes,uint64)": "infinite",
				"setPieceProvider(bytes,(bytes,bool))": "infinite",
				"setPieceRequest(bytes,bytes32)": "infinite",
				"setPieceStatus(bytes,uint8)": "infinite",
				"setResearchDeal(bytes32,(bytes32,address,string,string,string,uint256))": "infinite",
				"setResearchProposal((bytes32,address,uint8,string,string,address,uint256,uint256,uint256,uint256,uint256,uint256,uint256[]))": "infinite",
				"startResearch(bytes32)": "infinite",
				"startVotingOnResearchResult(bytes32)": "26755",
				"supportToken(address)": "26812",
				"supportedTokens(address)": "2581",
				"supportsInterface(bytes4)": "496",
				"totalFunding()": "4560",
				"updateResearchProposalInvestedAmount(bytes32,uint256)": "infinite",
				"updateResearchProposalState(bytes32,uint8)": "infinite",
				"voteOnResearch(bytes32,address,uint8)": "55858"
			}
		},
		"methodIdentifiers": {
			"DEFAULT_ADMIN_ROLE()": "a217fddf",
			"activateCid(bytes)": "85271d9b",
			"addDealRequest((bytes,uint64,bool,string,int64,int64,uint256,uint256,uint256,string,uint64,(string,uint64,bool,bool)))": "09346948",
			"addInvestorTokenToProposal(bytes32,uint256)": "66972219",
			"dealIds(uint256)": "c6620db3",
			"dealRequestIdx(bytes32)": "1adf7eb1",
			"dealRequests(uint256)": "bad79de9",
			"dealsLength()": "297ab486",
			"endVotingOnResearchResult(bytes32)": "6024dffb",
			"filDeposits(address)": "baebdd0a",
			"getActiveCids()": "be4f199f",
			"getActiveCidsLength()": "28d92146",
			"getDealByIndex(uint256)": "96925ae6",
			"getDealProposal(bytes32)": "f4b2e4d8",
			"getDealRequest(bytes32)": "342c89b4",
			"getDealRequestsLength()": "e059bb72",
			"getExtraParams(bytes32)": "4634aed5",
			"getInvestorTokensForProposal(bytes32)": "9dd5cf22",
			"getProposalIdSet(bytes)": "f44a8903",
			"getProviderSet(bytes)": "78133bb2",
			"getResearchDeal(bytes32)": "cc6f85d7",
			"getResearchProposal(bytes32)": "a165809c",
			"getRoleAdmin(bytes32)": "248a9ca3",
			"getVoteStartForResarchProposal(bytes32)": "d117658f",
			"getVotesforResearchProposal(bytes32)": "2de1cb0e",
			"grantRole(bytes32,address)": "2f2ff15d",
			"hasRole(bytes32,address)": "91d14854",
			"isAdmin(address)": "24d7806c",
			"isTokenSupported(address)": "75151b63",
			"lockedAmount()": "6ab28bc8",
			"numberOfSuccessfulProposals()": "58e7f0b8",
			"pieceDeals(bytes)": "0a0e0c91",
			"pieceProviders(bytes)": "f82704f0",
			"pieceRequests(bytes)": "4e8a3ca4",
			"pieceStatus(bytes)": "a6d1b7b8",
			"removeToken(address)": "5fa7b584",
			"renounceRole(bytes32,address)": "36568abe",
			"researchDeals(bytes32)": "e4be98f2",
			"researchProposals(bytes32)": "5ab1275b",
			"revokeRole(bytes32,address)": "d547741f",
			"setAuth(address,address)": "f10a7798",
			"setDealRequestIdx(bytes32,uint256,address)": "0347e8c2",
			"setFilDeposit(address,uint256)": "476c6cbc",
			"setLockedAmount(uint256)": "584e4336",
			"setPieceDeal(bytes,uint64)": "9aa09dfe",
			"setPieceProvider(bytes,(bytes,bool))": "fb2a0b32",
			"setPieceRequest(bytes,bytes32)": "0230e927",
			"setPieceStatus(bytes,uint8)": "d15bcbe3",
			"setResearchDeal(bytes32,(bytes32,address,string,string,string,uint256))": "e7e1a573",
			"setResearchProposal((bytes32,address,uint8,string,string,address,uint256,uint256,uint256,uint256,uint256,uint256,uint256[]))": "88a9bb2d",
			"startResearch(bytes32)": "6da9fc85",
			"startVotingOnResearchResult(bytes32)": "f63aa288",
			"supportToken(address)": "2a4f1621",
			"supportedTokens(address)": "68c4ac26",
			"supportsInterface(bytes4)": "01ffc9a7",
			"totalFunding()": "fe47a8a7",
			"updateResearchProposalInvestedAmount(bytes32,uint256)": "ed5db190",
			"updateResearchProposalState(bytes32,uint8)": "d77907df",
			"voteOnResearch(bytes32,address,uint8)": "598e8f0b"
		}
	},
	"abi": [
		{
			"inputs": [
				{
					"internalType": "address",
					"name": "_governance",
					"type": "address"
				},
				{
					"internalType": "contract IUtils",
					"name": "_utils",
					"type": "address"
				}
			],
			"stateMutability": "nonpayable",
			"type": "constructor"
		},
		{
			"anonymous": false,
			"inputs": [
				{
					"indexed": true,
					"internalType": "bytes32",
					"name": "role",
					"type": "bytes32"
				},
				{
					"indexed": true,
					"internalType": "bytes32",
					"name": "previousAdminRole",
					"type": "bytes32"
				},
				{
					"indexed": true,
					"internalType": "bytes32",
					"name": "newAdminRole",
					"type": "bytes32"
				}
			],
			"name": "RoleAdminChanged",
			"type": "event"
		},
		{
			"anonymous": false,
			"inputs": [
				{
					"indexed": true,
					"internalType": "bytes32",
					"name": "role",
					"type": "bytes32"
				},
				{
					"indexed": true,
					"internalType": "address",
					"name": "account",
					"type": "address"
				},
				{
					"indexed": true,
					"internalType": "address",
					"name": "sender",
					"type": "address"
				}
			],
			"name": "RoleGranted",
			"type": "event"
		},
		{
			"anonymous": false,
			"inputs": [
				{
					"indexed": true,
					"internalType": "bytes32",
					"name": "role",
					"type": "bytes32"
				},
				{
					"indexed": true,
					"internalType": "address",
					"name": "account",
					"type": "address"
				},
				{
					"indexed": true,
					"internalType": "address",
					"name": "sender",
					"type": "address"
				}
			],
			"name": "RoleRevoked",
			"type": "event"
		},
		{
			"inputs": [],
			"name": "DEFAULT_ADMIN_ROLE",
			"outputs": [
				{
					"internalType": "bytes32",
					"name": "",
					"type": "bytes32"
				}
			],
			"stateMutability": "view",
			"type": "function"
		},
		{
			"inputs": [
				{
					"internalType": "bytes",
					"name": "pieceCid",
					"type": "bytes"
				}
			],
			"name": "activateCid",
			"outputs": [],
			"stateMutability": "nonpayable",
			"type": "function"
		},
		{
			"inputs": [
				{
					"components": [
						{
							"internalType": "bytes",
							"name": "piece_cid",
							"type": "bytes"
						},
						{
							"internalType": "uint64",
							"name": "piece_size",
							"type": "uint64"
						},
						{
							"internalType": "bool",
							"name": "verified_deal",
							"type": "bool"
						},
						{
							"internalType": "string",
							"name": "label",
							"type": "string"
						},
						{
							"internalType": "int64",
							"name": "start_epoch",
							"type": "int64"
						},
						{
							"internalType": "int64",
							"name": "end_epoch",
							"type": "int64"
						},
						{
							"internalType": "uint256",
							"name": "storage_price_per_epoch",
							"type": "uint256"
						},
						{
							"internalType": "uint256",
							"name": "provider_collateral",
							"type": "uint256"
						},
						{
							"internalType": "uint256",
							"name": "client_collateral",
							"type": "uint256"
						},
						{
							"internalType": "string",
							"name": "dataCid",
							"type": "string"
						},
						{
							"internalType": "uint64",
							"name": "extra_params_version",
							"type": "uint64"
						},
						{
							"components": [
								{
									"internalType": "string",
									"name": "location_ref",
									"type": "string"
								},
								{
									"internalType": "uint64",
									"name": "car_size",
									"type": "uint64"
								},
								{
									"internalType": "bool",
									"name": "skip_ipni_announce",
									"type": "bool"
								},
								{
									"internalType": "bool",
									"name": "remove_unsealed_copy",
									"type": "bool"
								}
							],
							"internalType": "struct Structs.ExtraParamsV1",
							"name": "extra_params",
							"type": "tuple"
						}
					],
					"internalType": "struct Structs.DealRequest",
					"name": "deal",
					"type": "tuple"
				}
			],
			"name": "addDealRequest",
			"outputs": [],
			"stateMutability": "nonpayable",
			"type": "function"
		},
		{
			"inputs": [
				{
					"internalType": "bytes32",
					"name": "_proposalId",
					"type": "bytes32"
				},
				{
					"internalType": "uint256",
					"name": "_tokenId",
					"type": "uint256"
				}
			],
			"name": "addInvestorTokenToProposal",
			"outputs": [],
			"stateMutability": "nonpayable",
			"type": "function"
		},
		{
			"inputs": [
				{
					"internalType": "uint256",
					"name": "",
					"type": "uint256"
				}
			],
			"name": "dealIds",
			"outputs": [
				{
					"internalType": "bytes32",
					"name": "",
					"type": "bytes32"
				}
			],
			"stateMutability": "view",
			"type": "function"
		},
		{
			"inputs": [
				{
					"internalType": "bytes32",
					"name": "",
					"type": "bytes32"
				}
			],
			"name": "dealRequestIdx",
			"outputs": [
				{
					"internalType": "uint256",
					"name": "idx",
					"type": "uint256"
				},
				{
					"internalType": "bool",
					"name": "valid",
					"type": "bool"
				}
			],
			"stateMutability": "view",
			"type": "function"
		},
		{
			"inputs": [
				{
					"internalType": "uint256",
					"name": "",
					"type": "uint256"
				}
			],
			"name": "dealRequests",
			"outputs": [
				{
					"internalType": "bytes",
					"name": "piece_cid",
					"type": "bytes"
				},
				{
					"internalType": "uint64",
					"name": "piece_size",
					"type": "uint64"
				},
				{
					"internalType": "bool",
					"name": "verified_deal",
					"type": "bool"
				},
				{
					"internalType": "string",
					"name": "label",
					"type": "string"
				},
				{
					"internalType": "int64",
					"name": "start_epoch",
					"type": "int64"
				},
				{
					"internalType": "int64",
					"name": "end_epoch",
					"type": "int64"
				},
				{
					"internalType": "uint256",
					"name": "storage_price_per_epoch",
					"type": "uint256"
				},
				{
					"internalType": "uint256",
					"name": "provider_collateral",
					"type": "uint256"
				},
				{
					"internalType": "uint256",
					"name": "client_collateral",
					"type": "uint256"
				},
				{
					"internalType": "string",
					"name": "dataCid",
					"type": "string"
				},
				{
					"internalType": "uint64",
					"name": "extra_params_version",
					"type": "uint64"
				},
				{
					"components": [
						{
							"internalType": "string",
							"name": "location_ref",
							"type": "string"
						},
						{
							"internalType": "uint64",
							"name": "car_size",
							"type": "uint64"
						},
						{
							"internalType": "bool",
							"name": "skip_ipni_announce",
							"type": "bool"
						},
						{
							"internalType": "bool",
							"name": "remove_unsealed_copy",
							"type": "bool"
						}
					],
					"internalType": "struct Structs.ExtraParamsV1",
					"name": "extra_params",
					"type": "tuple"
				}
			],
			"stateMutability": "view",
			"type": "function"
		},
		{
			"inputs": [],
			"name": "dealsLength",
			"outputs": [
				{
					"internalType": "uint256",
					"name": "",
					"type": "uint256"
				}
			],
			"stateMutability": "view",
			"type": "function"
		},
		{
			"inputs": [
				{
					"internalType": "bytes32",
					"name": "_proposalId",
					"type": "bytes32"
				}
			],
			"name": "endVotingOnResearchResult",
			"outputs": [],
			"stateMutability": "nonpayable",
			"type": "function"
		},
		{
			"inputs": [
				{
					"internalType": "address",
					"name": "",
					"type": "address"
				}
			],
			"name": "filDeposits",
			"outputs": [
				{
					"internalType": "uint256",
					"name": "",
					"type": "uint256"
				}
			],
			"stateMutability": "view",
			"type": "function"
		},
		{
			"inputs": [],
			"name": "getActiveCids",
			"outputs": [
				{
					"internalType": "string[]",
					"name": "",
					"type": "string[]"
				}
			],
			"stateMutability": "view",
			"type": "function"
		},
		{
			"inputs": [],
			"name": "getActiveCidsLength",
			"outputs": [
				{
					"internalType": "uint256",
					"name": "",
					"type": "uint256"
				}
			],
			"stateMutability": "view",
			"type": "function"
		},
		{
			"inputs": [
				{
					"internalType": "uint256",
					"name": "index",
					"type": "uint256"
				}
			],
			"name": "getDealByIndex",
			"outputs": [
				{
					"components": [
						{
							"internalType": "bytes",
							"name": "piece_cid",
							"type": "bytes"
						},
						{
							"internalType": "uint64",
							"name": "piece_size",
							"type": "uint64"
						},
						{
							"internalType": "bool",
							"name": "verified_deal",
							"type": "bool"
						},
						{
							"internalType": "string",
							"name": "label",
							"type": "string"
						},
						{
							"internalType": "int64",
							"name": "start_epoch",
							"type": "int64"
						},
						{
							"internalType": "int64",
							"name": "end_epoch",
							"type": "int64"
						},
						{
							"internalType": "uint256",
							"name": "storage_price_per_epoch",
							"type": "uint256"
						},
						{
							"internalType": "uint256",
							"name": "provider_collateral",
							"type": "uint256"
						},
						{
							"internalType": "uint256",
							"name": "client_collateral",
							"type": "uint256"
						},
						{
							"internalType": "string",
							"name": "dataCid",
							"type": "string"
						},
						{
							"internalType": "uint64",
							"name": "extra_params_version",
							"type": "uint64"
						},
						{
							"components": [
								{
									"internalType": "string",
									"name": "location_ref",
									"type": "string"
								},
								{
									"internalType": "uint64",
									"name": "car_size",
									"type": "uint64"
								},
								{
									"internalType": "bool",
									"name": "skip_ipni_announce",
									"type": "bool"
								},
								{
									"internalType": "bool",
									"name": "remove_unsealed_copy",
									"type": "bool"
								}
							],
							"internalType": "struct Structs.ExtraParamsV1",
							"name": "extra_params",
							"type": "tuple"
						}
					],
					"internalType": "struct Structs.DealRequest",
					"name": "",
					"type": "tuple"
				}
			],
			"stateMutability": "view",
			"type": "function"
		},
		{
			"inputs": [
				{
					"internalType": "bytes32",
					"name": "proposalId",
					"type": "bytes32"
				}
			],
			"name": "getDealProposal",
			"outputs": [
				{
					"internalType": "bytes",
					"name": "",
					"type": "bytes"
				}
			],
			"stateMutability": "view",
			"type": "function"
		},
		{
			"inputs": [
				{
					"internalType": "bytes32",
					"name": "requestId",
					"type": "bytes32"
				}
			],
			"name": "getDealRequest",
			"outputs": [
				{
					"components": [
						{
							"internalType": "bytes",
							"name": "piece_cid",
							"type": "bytes"
						},
						{
							"internalType": "uint64",
							"name": "piece_size",
							"type": "uint64"
						},
						{
							"internalType": "bool",
							"name": "verified_deal",
							"type": "bool"
						},
						{
							"internalType": "string",
							"name": "label",
							"type": "string"
						},
						{
							"internalType": "int64",
							"name": "start_epoch",
							"type": "int64"
						},
						{
							"internalType": "int64",
							"name": "end_epoch",
							"type": "int64"
						},
						{
							"internalType": "uint256",
							"name": "storage_price_per_epoch",
							"type": "uint256"
						},
						{
							"internalType": "uint256",
							"name": "provider_collateral",
							"type": "uint256"
						},
						{
							"internalType": "uint256",
							"name": "client_collateral",
							"type": "uint256"
						},
						{
							"internalType": "string",
							"name": "dataCid",
							"type": "string"
						},
						{
							"internalType": "uint64",
							"name": "extra_params_version",
							"type": "uint64"
						},
						{
							"components": [
								{
									"internalType": "string",
									"name": "location_ref",
									"type": "string"
								},
								{
									"internalType": "uint64",
									"name": "car_size",
									"type": "uint64"
								},
								{
									"internalType": "bool",
									"name": "skip_ipni_announce",
									"type": "bool"
								},
								{
									"internalType": "bool",
									"name": "remove_unsealed_copy",
									"type": "bool"
								}
							],
							"internalType": "struct Structs.ExtraParamsV1",
							"name": "extra_params",
							"type": "tuple"
						}
					],
					"internalType": "struct Structs.DealRequest",
					"name": "",
					"type": "tuple"
				}
			],
			"stateMutability": "view",
			"type": "function"
		},
		{
			"inputs": [],
			"name": "getDealRequestsLength",
			"outputs": [
				{
					"internalType": "uint256",
					"name": "",
					"type": "uint256"
				}
			],
			"stateMutability": "view",
			"type": "function"
		},
		{
			"inputs": [
				{
					"internalType": "bytes32",
					"name": "proposalId",
					"type": "bytes32"
				}
			],
			"name": "getExtraParams",
			"outputs": [
				{
					"internalType": "bytes",
					"name": "extra_params",
					"type": "bytes"
				}
			],
			"stateMutability": "view",
			"type": "function"
		},
		{
			"inputs": [
				{
					"internalType": "bytes32",
					"name": "_proposalId",
					"type": "bytes32"
				}
			],
			"name": "getInvestorTokensForProposal",
			"outputs": [
				{
					"internalType": "uint256[]",
					"name": "",
					"type": "uint256[]"
				}
			],
			"stateMutability": "view",
			"type": "function"
		},
		{
			"inputs": [
				{
					"internalType": "bytes",
					"name": "cid",
					"type": "bytes"
				}
			],
			"name": "getProposalIdSet",
			"outputs": [
				{
					"components": [
						{
							"internalType": "bytes32",
							"name": "requestId",
							"type": "bytes32"
						},
						{
							"internalType": "bool",
							"name": "valid",
							"type": "bool"
						}
					],
					"internalType": "struct Structs.RequestId",
					"name": "",
					"type": "tuple"
				}
			],
			"stateMutability": "view",
			"type": "function"
		},
		{
			"inputs": [
				{
					"internalType": "bytes",
					"name": "cid",
					"type": "bytes"
				}
			],
			"name": "getProviderSet",
			"outputs": [
				{
					"components": [
						{
							"internalType": "bytes",
							"name": "provider",
							"type": "bytes"
						},
						{
							"internalType": "bool",
							"name": "valid",
							"type": "bool"
						}
					],
					"internalType": "struct Structs.ProviderSet",
					"name": "",
					"type": "tuple"
				}
			],
			"stateMutability": "view",
			"type": "function"
		},
		{
			"inputs": [
				{
					"internalType": "bytes32",
					"name": "_id",
					"type": "bytes32"
				}
			],
			"name": "getResearchDeal",
			"outputs": [
				{
					"components": [
						{
							"internalType": "bytes32",
							"name": "dealId",
							"type": "bytes32"
						},
						{
							"internalType": "address",
							"name": "uploader",
							"type": "address"
						},
						{
							"internalType": "string",
							"name": "cid",
							"type": "string"
						},
						{
							"internalType": "string",
							"name": "title",
							"type": "string"
						},
						{
							"internalType": "string",
							"name": "description",
							"type": "string"
						},
						{
							"internalType": "uint256",
							"name": "price",
							"type": "uint256"
						}
					],
					"internalType": "struct Structs.Research",
					"name": "",
					"type": "tuple"
				}
			],
			"stateMutability": "view",
			"type": "function"
		},
		{
			"inputs": [
				{
					"internalType": "bytes32",
					"name": "proposalId",
					"type": "bytes32"
				}
			],
			"name": "getResearchProposal",
			"outputs": [
				{
					"components": [
						{
							"internalType": "bytes32",
							"name": "id",
							"type": "bytes32"
						},
						{
							"internalType": "address",
							"name": "creator",
							"type": "address"
						},
						{
							"internalType": "enum ResearchState",
							"name": "state",
							"type": "uint8"
						},
						{
							"internalType": "string",
							"name": "title",
							"type": "string"
						},
						{
							"internalType": "string",
							"name": "descriptionUrl",
							"type": "string"
						},
						{
							"internalType": "address",
							"name": "fundingToken",
							"type": "address"
						},
						{
							"internalType": "uint256",
							"name": "fundingAmount",
							"type": "uint256"
						},
						{
							"internalType": "uint256",
							"name": "fundingDuration",
							"type": "uint256"
						},
						{
							"internalType": "uint256",
							"name": "researchDuration",
							"type": "uint256"
						},
						{
							"internalType": "uint256",
							"name": "fundingStartedAt",
							"type": "uint256"
						},
						{
							"internalType": "uint256",
							"name": "researchStartedAt",
							"type": "uint256"
						},
						{
							"internalType": "uint256",
							"name": "amountInvested",
							"type": "uint256"
						},
						{
							"internalType": "uint256[]",
							"name": "investorTokens",
							"type": "uint256[]"
						}
					],
					"internalType": "struct Structs.ResearchProposal",
					"name": "",
					"type": "tuple"
				}
			],
			"stateMutability": "view",
			"type": "function"
		},
		{
			"inputs": [
				{
					"internalType": "bytes32",
					"name": "role",
					"type": "bytes32"
				}
			],
			"name": "getRoleAdmin",
			"outputs": [
				{
					"internalType": "bytes32",
					"name": "",
					"type": "bytes32"
				}
			],
			"stateMutability": "view",
			"type": "function"
		},
		{
			"inputs": [
				{
					"internalType": "bytes32",
					"name": "_proposalId",
					"type": "bytes32"
				}
			],
			"name": "getVoteStartForResarchProposal",
			"outputs": [
				{
					"internalType": "uint256",
					"name": "",
					"type": "uint256"
				}
			],
			"stateMutability": "view",
			"type": "function"
		},
		{
			"inputs": [
				{
					"internalType": "bytes32",
					"name": "_proposalId",
					"type": "bytes32"
				}
			],
			"name": "getVotesforResearchProposal",
			"outputs": [
				{
					"internalType": "uint256",
					"name": "",
					"type": "uint256"
				},
				{
					"internalType": "uint256",
					"name": "",
					"type": "uint256"
				},
				{
					"internalType": "uint256",
					"name": "",
					"type": "uint256"
				}
			],
			"stateMutability": "view",
			"type": "function"
		},
		{
			"inputs": [
				{
					"internalType": "bytes32",
					"name": "role",
					"type": "bytes32"
				},
				{
					"internalType": "address",
					"name": "account",
					"type": "address"
				}
			],
			"name": "grantRole",
			"outputs": [],
			"stateMutability": "nonpayable",
			"type": "function"
		},
		{
			"inputs": [
				{
					"internalType": "bytes32",
					"name": "role",
					"type": "bytes32"
				},
				{
					"internalType": "address",
					"name": "account",
					"type": "address"
				}
			],
			"name": "hasRole",
			"outputs": [
				{
					"internalType": "bool",
					"name": "",
					"type": "bool"
				}
			],
			"stateMutability": "view",
			"type": "function"
		},
		{
			"inputs": [
				{
					"internalType": "address",
					"name": "account",
					"type": "address"
				}
			],
			"name": "isAdmin",
			"outputs": [
				{
					"internalType": "bool",
					"name": "",
					"type": "bool"
				}
			],
			"stateMutability": "view",
			"type": "function"
		},
		{
			"inputs": [
				{
					"internalType": "address",
					"name": "_token",
					"type": "address"
				}
			],
			"name": "isTokenSupported",
			"outputs": [
				{
					"internalType": "bool",
					"name": "",
					"type": "bool"
				}
			],
			"stateMutability": "view",
			"type": "function"
		},
		{
			"inputs": [],
			"name": "lockedAmount",
			"outputs": [
				{
					"internalType": "uint256",
					"name": "",
					"type": "uint256"
				}
			],
			"stateMutability": "view",
			"type": "function"
		},
		{
			"inputs": [],
			"name": "numberOfSuccessfulProposals",
			"outputs": [
				{
					"internalType": "uint256",
					"name": "",
					"type": "uint256"
				}
			],
			"stateMutability": "view",
			"type": "function"
		},
		{
			"inputs": [
				{
					"internalType": "bytes",
					"name": "",
					"type": "bytes"
				}
			],
			"name": "pieceDeals",
			"outputs": [
				{
					"internalType": "uint64",
					"name": "",
					"type": "uint64"
				}
			],
			"stateMutability": "view",
			"type": "function"
		},
		{
			"inputs": [
				{
					"internalType": "bytes",
					"name": "",
					"type": "bytes"
				}
			],
			"name": "pieceProviders",
			"outputs": [
				{
					"internalType": "bytes",
					"name": "provider",
					"type": "bytes"
				},
				{
					"internalType": "bool",
					"name": "valid",
					"type": "bool"
				}
			],
			"stateMutability": "view",
			"type": "function"
		},
		{
			"inputs": [
				{
					"internalType": "bytes",
					"name": "",
					"type": "bytes"
				}
			],
			"name": "pieceRequests",
			"outputs": [
				{
					"internalType": "bytes32",
					"name": "requestId",
					"type": "bytes32"
				},
				{
					"internalType": "bool",
					"name": "valid",
					"type": "bool"
				}
			],
			"stateMutability": "view",
			"type": "function"
		},
		{
			"inputs": [
				{
					"internalType": "bytes",
					"name": "",
					"type": "bytes"
				}
			],
			"name": "pieceStatus",
			"outputs": [
				{
					"internalType": "enum Status",
					"name": "",
					"type": "uint8"
				}
			],
			"stateMutability": "view",
			"type": "function"
		},
		{
			"inputs": [
				{
					"internalType": "address",
					"name": "_token",
					"type": "address"
				}
			],
			"name": "removeToken",
			"outputs": [],
			"stateMutability": "nonpayable",
			"type": "function"
		},
		{
			"inputs": [
				{
					"internalType": "bytes32",
					"name": "role",
					"type": "bytes32"
				},
				{
					"internalType": "address",
					"name": "account",
					"type": "address"
				}
			],
			"name": "renounceRole",
			"outputs": [],
			"stateMutability": "nonpayable",
			"type": "function"
		},
		{
			"inputs": [
				{
					"internalType": "bytes32",
					"name": "",
					"type": "bytes32"
				}
			],
			"name": "researchDeals",
			"outputs": [
				{
					"internalType": "bytes32",
					"name": "dealId",
					"type": "bytes32"
				},
				{
					"internalType": "address",
					"name": "uploader",
					"type": "address"
				},
				{
					"internalType": "string",
					"name": "cid",
					"type": "string"
				},
				{
					"internalType": "string",
					"name": "title",
					"type": "string"
				},
				{
					"internalType": "string",
					"name": "description",
					"type": "string"
				},
				{
					"internalType": "uint256",
					"name": "price",
					"type": "uint256"
				}
			],
			"stateMutability": "view",
			"type": "function"
		},
		{
			"inputs": [
				{
					"internalType": "bytes32",
					"name": "",
					"type": "bytes32"
				}
			],
			"name": "researchProposals",
			"outputs": [
				{
					"internalType": "bytes32",
					"name": "id",
					"type": "bytes32"
				},
				{
					"internalType": "address",
					"name": "creator",
					"type": "address"
				},
				{
					"internalType": "enum ResearchState",
					"name": "state",
					"type": "uint8"
				},
				{
					"internalType": "string",
					"name": "title",
					"type": "string"
				},
				{
					"internalType": "string",
					"name": "descriptionUrl",
					"type": "string"
				},
				{
					"internalType": "address",
					"name": "fundingToken",
					"type": "address"
				},
				{
					"internalType": "uint256",
					"name": "fundingAmount",
					"type": "uint256"
				},
				{
					"internalType": "uint256",
					"name": "fundingDuration",
					"type": "uint256"
				},
				{
					"internalType": "uint256",
					"name": "researchDuration",
					"type": "uint256"
				},
				{
					"internalType": "uint256",
					"name": "fundingStartedAt",
					"type": "uint256"
				},
				{
					"internalType": "uint256",
					"name": "researchStartedAt",
					"type": "uint256"
				},
				{
					"internalType": "uint256",
					"name": "amountInvested",
					"type": "uint256"
				}
			],
			"stateMutability": "view",
			"type": "function"
		},
		{
			"inputs": [
				{
					"internalType": "bytes32",
					"name": "role",
					"type": "bytes32"
				},
				{
					"internalType": "address",
					"name": "account",
					"type": "address"
				}
			],
			"name": "revokeRole",
			"outputs": [],
			"stateMutability": "nonpayable",
			"type": "function"
		},
		{
			"inputs": [
				{
					"internalType": "address",
					"name": "_client",
					"type": "address"
				},
				{
					"internalType": "address",
					"name": "_dao",
					"type": "address"
				}
			],
			"name": "setAuth",
			"outputs": [],
			"stateMutability": "nonpayable",
			"type": "function"
		},
		{
			"inputs": [
				{
					"internalType": "bytes32",
					"name": "id",
					"type": "bytes32"
				},
				{
					"internalType": "uint256",
					"name": "index",
					"type": "uint256"
				},
				{
					"internalType": "address",
					"name": "uploader",
					"type": "address"
				}
			],
			"name": "setDealRequestIdx",
			"outputs": [],
			"stateMutability": "nonpayable",
			"type": "function"
		},
		{
			"inputs": [
				{
					"internalType": "address",
					"name": "user",
					"type": "address"
				},
				{
					"internalType": "uint256",
					"name": "amount",
					"type": "uint256"
				}
			],
			"name": "setFilDeposit",
			"outputs": [],
			"stateMutability": "nonpayable",
			"type": "function"
		},
		{
			"inputs": [
				{
					"internalType": "uint256",
					"name": "_amount",
					"type": "uint256"
				}
			],
			"name": "setLockedAmount",
			"outputs": [],
			"stateMutability": "nonpayable",
			"type": "function"
		},
		{
			"inputs": [
				{
					"internalType": "bytes",
					"name": "cid",
					"type": "bytes"
				},
				{
					"internalType": "uint64",
					"name": "dealId",
					"type": "uint64"
				}
			],
			"name": "setPieceDeal",
			"outputs": [],
			"stateMutability": "nonpayable",
			"type": "function"
		},
		{
			"inputs": [
				{
					"internalType": "bytes",
					"name": "cid",
					"type": "bytes"
				},
				{
					"components": [
						{
							"internalType": "bytes",
							"name": "provider",
							"type": "bytes"
						},
						{
							"internalType": "bool",
							"name": "valid",
							"type": "bool"
						}
					],
					"internalType": "struct Structs.ProviderSet",
					"name": "pieceProvider",
					"type": "tuple"
				}
			],
			"name": "setPieceProvider",
			"outputs": [],
			"stateMutability": "nonpayable",
			"type": "function"
		},
		{
			"inputs": [
				{
					"internalType": "bytes",
					"name": "pieceCid",
					"type": "bytes"
				},
				{
					"internalType": "bytes32",
					"name": "requestId",
					"type": "bytes32"
				}
			],
			"name": "setPieceRequest",
			"outputs": [],
			"stateMutability": "nonpayable",
			"type": "function"
		},
		{
			"inputs": [
				{
					"internalType": "bytes",
					"name": "pieceCid",
					"type": "bytes"
				},
				{
					"internalType": "enum Status",
					"name": "status",
					"type": "uint8"
				}
			],
			"name": "setPieceStatus",
			"outputs": [],
			"stateMutability": "nonpayable",
			"type": "function"
		},
		{
			"inputs": [
				{
					"internalType": "bytes32",
					"name": "_id",
					"type": "bytes32"
				},
				{
					"components": [
						{
							"internalType": "bytes32",
							"name": "dealId",
							"type": "bytes32"
						},
						{
							"internalType": "address",
							"name": "uploader",
							"type": "address"
						},
						{
							"internalType": "string",
							"name": "cid",
							"type": "string"
						},
						{
							"internalType": "string",
							"name": "title",
							"type": "string"
						},
						{
							"internalType": "string",
							"name": "description",
							"type": "string"
						},
						{
							"internalType": "uint256",
							"name": "price",
							"type": "uint256"
						}
					],
					"internalType": "struct Structs.Research",
					"name": "_researchDeal",
					"type": "tuple"
				}
			],
			"name": "setResearchDeal",
			"outputs": [],
			"stateMutability": "nonpayable",
			"type": "function"
		},
		{
			"inputs": [
				{
					"components": [
						{
							"internalType": "bytes32",
							"name": "id",
							"type": "bytes32"
						},
						{
							"internalType": "address",
							"name": "creator",
							"type": "address"
						},
						{
							"internalType": "enum ResearchState",
							"name": "state",
							"type": "uint8"
						},
						{
							"internalType": "string",
							"name": "title",
							"type": "string"
						},
						{
							"internalType": "string",
							"name": "descriptionUrl",
							"type": "string"
						},
						{
							"internalType": "address",
							"name": "fundingToken",
							"type": "address"
						},
						{
							"internalType": "uint256",
							"name": "fundingAmount",
							"type": "uint256"
						},
						{
							"internalType": "uint256",
							"name": "fundingDuration",
							"type": "uint256"
						},
						{
							"internalType": "uint256",
							"name": "researchDuration",
							"type": "uint256"
						},
						{
							"internalType": "uint256",
							"name": "fundingStartedAt",
							"type": "uint256"
						},
						{
							"internalType": "uint256",
							"name": "researchStartedAt",
							"type": "uint256"
						},
						{
							"internalType": "uint256",
							"name": "amountInvested",
							"type": "uint256"
						},
						{
							"internalType": "uint256[]",
							"name": "investorTokens",
							"type": "uint256[]"
						}
					],
					"internalType": "struct Structs.ResearchProposal",
					"name": "proposal",
					"type": "tuple"
				}
			],
			"name": "setResearchProposal",
			"outputs": [],
			"stateMutability": "nonpayable",
			"type": "function"
		},
		{
			"inputs": [
				{
					"internalType": "bytes32",
					"name": "_proposalId",
					"type": "bytes32"
				}
			],
			"name": "startResearch",
			"outputs": [],
			"stateMutability": "nonpayable",
			"type": "function"
		},
		{
			"inputs": [
				{
					"internalType": "bytes32",
					"name": "_proposalId",
					"type": "bytes32"
				}
			],
			"name": "startVotingOnResearchResult",
			"outputs": [],
			"stateMutability": "nonpayable",
			"type": "function"
		},
		{
			"inputs": [
				{
					"internalType": "address",
					"name": "_token",
					"type": "address"
				}
			],
			"name": "supportToken",
			"outputs": [],
			"stateMutability": "nonpayable",
			"type": "function"
		},
		{
			"inputs": [
				{
					"internalType": "address",
					"name": "",
					"type": "address"
				}
			],
			"name": "supportedTokens",
			"outputs": [
				{
					"internalType": "bool",
					"name": "",
					"type": "bool"
				}
			],
			"stateMutability": "view",
			"type": "function"
		},
		{
			"inputs": [
				{
					"internalType": "bytes4",
					"name": "interfaceId",
					"type": "bytes4"
				}
			],
			"name": "supportsInterface",
			"outputs": [
				{
					"internalType": "bool",
					"name": "",
					"type": "bool"
				}
			],
			"stateMutability": "view",
			"type": "function"
		},
		{
			"inputs": [],
			"name": "totalFunding",
			"outputs": [
				{
					"internalType": "uint256",
					"name": "inRequest",
					"type": "uint256"
				},
				{
					"internalType": "uint256",
					"name": "paidOut",
					"type": "uint256"
				}
			],
			"stateMutability": "view",
			"type": "function"
		},
		{
			"inputs": [
				{
					"internalType": "bytes32",
					"name": "_proposalId",
					"type": "bytes32"
				},
				{
					"internalType": "uint256",
					"name": "_amount",
					"type": "uint256"
				}
			],
			"name": "updateResearchProposalInvestedAmount",
			"outputs": [],
			"stateMutability": "nonpayable",
			"type": "function"
		},
		{
			"inputs": [
				{
					"internalType": "bytes32",
					"name": "_proposalId",
					"type": "bytes32"
				},
				{
					"internalType": "enum ResearchState",
					"name": "_state",
					"type": "uint8"
				}
			],
			"name": "updateResearchProposalState",
			"outputs": [],
			"stateMutability": "nonpayable",
			"type": "function"
		},
		{
			"inputs": [
				{
					"internalType": "bytes32",
					"name": "_proposalId",
					"type": "bytes32"
				},
				{
					"internalType": "address",
					"name": "account",
					"type": "address"
				},
				{
					"internalType": "enum ResearchVote",
					"name": "vote",
					"type": "uint8"
				}
			],
			"name": "voteOnResearch",
			"outputs": [],
			"stateMutability": "nonpayable",
			"type": "function"
		}
	]
}