{
	"src/core/Registry.sol": {
		"Registry": {
			"abi": [
				{
					"inputs": [
						{
							"internalType": "address",
							"name": "",
							"type": "address"
						}
					],
					"name": "daoInfos",
					"outputs": [
						{
							"internalType": "address",
							"name": "dao",
							"type": "address"
						},
						{
							"internalType": "uint256",
							"name": "createdAt",
							"type": "uint256"
						},
						{
							"internalType": "address",
							"name": "creator",
							"type": "address"
						},
						{
							"internalType": "address",
							"name": "accessToken",
							"type": "address"
						},
						{
							"internalType": "address",
							"name": "investorToken",
							"type": "address"
						},
						{
							"internalType": "address",
							"name": "memberToken",
							"type": "address"
						}
					],
					"stateMutability": "view",
					"type": "function"
				},
				{
					"inputs": [
						{
							"internalType": "uint256",
							"name": "",
							"type": "uint256"
						}
					],
					"name": "daos",
					"outputs": [
						{
							"internalType": "address",
							"name": "",
							"type": "address"
						}
					],
					"stateMutability": "view",
					"type": "function"
				},
				{
					"inputs": [
						{
							"internalType": "address",
							"name": "_dao",
							"type": "address"
						}
					],
					"name": "getDaoInfo",
					"outputs": [
						{
							"components": [
								{
									"internalType": "address",
									"name": "dao",
									"type": "address"
								},
								{
									"internalType": "uint256",
									"name": "createdAt",
									"type": "uint256"
								},
								{
									"internalType": "address",
									"name": "creator",
									"type": "address"
								},
								{
									"internalType": "address",
									"name": "accessToken",
									"type": "address"
								},
								{
									"internalType": "address",
									"name": "investorToken",
									"type": "address"
								},
								{
									"internalType": "address",
									"name": "memberToken",
									"type": "address"
								}
							],
							"internalType": "struct DaoInfo",
							"name": "",
							"type": "tuple"
						}
					],
					"stateMutability": "view",
					"type": "function"
				},
				{
					"inputs": [],
					"name": "getTotalAmountInvested",
					"outputs": [
						{
							"internalType": "uint256",
							"name": "",
							"type": "uint256"
						}
					],
					"stateMutability": "view",
					"type": "function"
				},
				{
					"inputs": [
						{
							"internalType": "address",
							"name": "_investor",
							"type": "address"
						}
					],
					"name": "getTotalAmountInvestedByInvestor",
					"outputs": [
						{
							"internalType": "uint256",
							"name": "",
							"type": "uint256"
						}
					],
					"stateMutability": "view",
					"type": "function"
				},
				{
					"inputs": [],
					"name": "getTotalNumberOfDaos",
					"outputs": [
						{
							"internalType": "uint256",
							"name": "",
							"type": "uint256"
						}
					],
					"stateMutability": "view",
					"type": "function"
				},
				{
					"inputs": [
						{
							"internalType": "address",
							"name": "",
							"type": "address"
						}
					],
					"name": "investmentsByUser",
					"outputs": [
						{
							"internalType": "uint256",
							"name": "",
							"type": "uint256"
						}
					],
					"stateMutability": "view",
					"type": "function"
				},
				{
					"inputs": [
						{
							"internalType": "address",
							"name": "_dao",
							"type": "address"
						}
					],
					"name": "isValidDao",
					"outputs": [
						{
							"internalType": "bool",
							"name": "",
							"type": "bool"
						}
					],
					"stateMutability": "view",
					"type": "function"
				},
				{
					"inputs": [],
					"name": "totalInvested",
					"outputs": [
						{
							"internalType": "uint256",
							"name": "",
							"type": "uint256"
						}
					],
					"stateMutability": "view",
					"type": "function"
				}
			],
			"devdoc": {
				"kind": "dev",
				"methods": {},
				"version": 1
			},
			"evm": {
				"assembly": "    /* \"src/core/Registry.sol\":90:1086  contract Registry {... */\n  mstore(0x40, 0x80)\n  callvalue\n  dup1\n  iszero\n  tag_1\n  jumpi\n  0x00\n  dup1\n  revert\ntag_1:\n  pop\n  dataSize(sub_0)\n  dup1\n  dataOffset(sub_0)\n  0x00\n  codecopy\n  0x00\n  return\nstop\n\nsub_0: assembly {\n        /* \"src/core/Registry.sol\":90:1086  contract Registry {... */\n      mstore(0x40, 0x80)\n      callvalue\n      dup1\n      iszero\n      tag_1\n      jumpi\n      0x00\n      dup1\n      revert\n    tag_1:\n      pop\n      jumpi(tag_2, lt(calldatasize, 0x04))\n      shr(0xe0, calldataload(0x00))\n      dup1\n      0x727e0f59\n      gt\n      tag_12\n      jumpi\n      dup1\n      0x727e0f59\n      eq\n      tag_7\n      jumpi\n      dup1\n      0xa18ba05d\n      eq\n      tag_8\n      jumpi\n      dup1\n      0xccbbd260\n      eq\n      tag_9\n      jumpi\n      dup1\n      0xd1a7cbe0\n      eq\n      tag_10\n      jumpi\n      dup1\n      0xebeefbb7\n      eq\n      tag_11\n      jumpi\n      0x00\n      dup1\n      revert\n    tag_12:\n      dup1\n      0x33f2c679\n      eq\n      tag_3\n      jumpi\n      dup1\n      0x4f69f5e5\n      eq\n      tag_4\n      jumpi\n      dup1\n      0x5216aeec\n      eq\n      tag_5\n      jumpi\n      dup1\n      0x6a6ce6b2\n      eq\n      tag_6\n      jumpi\n    tag_2:\n      0x00\n      dup1\n      revert\n        /* \"src/core/Registry.sol\":594:697  function getTotalAmountInvested() external view returns (uint256) {... */\n    tag_3:\n        /* \"src/core/Registry.sol\":677:690  totalInvested */\n      sload(0x03)\n        /* \"src/core/Registry.sol\":594:697  function getTotalAmountInvested() external view returns (uint256) {... */\n    tag_13:\n      mload(0x40)\n        /* \"#utility.yul\":160:185   */\n      swap1\n      dup2\n      mstore\n        /* \"#utility.yul\":148:150   */\n      0x20\n        /* \"#utility.yul\":133:151   */\n      add\n        /* \"src/core/Registry.sol\":594:697  function getTotalAmountInvested() external view returns (uint256) {... */\n    tag_15:\n      mload(0x40)\n      dup1\n      swap2\n      sub\n      swap1\n      return\n        /* \"src/core/Registry.sol\":854:965  function getDaoInfo(address _dao) external view returns (DaoInfo memory) {... */\n    tag_4:\n      tag_17\n      tag_18\n      calldatasize\n      0x04\n      tag_19\n      jump\t// in\n    tag_18:\n      0x40\n      dup1\n      mload\n      0xc0\n      dup2\n      add\n      dup3\n      mstore\n      0x00\n      dup1\n      dup3\n      mstore\n      0x20\n      dup3\n      add\n      dup2\n      swap1\n      mstore\n      swap2\n      dup2\n      add\n      dup3\n      swap1\n      mstore\n      0x60\n      dup2\n      add\n      dup3\n      swap1\n      mstore\n      0x80\n      dup2\n      add\n      dup3\n      swap1\n      mstore\n      0xa0\n      dup2\n      add\n      swap2\n      swap1\n      swap2\n      mstore\n      pop\n      sub(shl(0xa0, 0x01), 0x01)\n        /* \"src/core/Registry.sol\":944:958  daoInfos[_dao] */\n      swap1\n      dup2\n      and\n      0x00\n      swap1\n      dup2\n      mstore\n        /* \"src/core/Registry.sol\":944:952  daoInfos */\n      0x01\n        /* \"src/core/Registry.sol\":944:958  daoInfos[_dao] */\n      0x20\n      dup2\n      dup2\n      mstore\n      0x40\n      swap3\n      dup4\n      swap1\n      keccak256\n        /* \"src/core/Registry.sol\":937:958  return daoInfos[_dao] */\n      dup4\n      mload\n      0xc0\n      dup2\n      add\n      dup6\n      mstore\n      dup2\n      sload\n      dup7\n      and\n      dup2\n      mstore\n      swap3\n      dup2\n      add\n      sload\n      swap2\n      dup4\n      add\n      swap2\n      swap1\n      swap2\n      mstore\n      0x02\n      dup2\n      add\n      sload\n      dup5\n      and\n      swap3\n      dup3\n      add\n      swap3\n      swap1\n      swap3\n      mstore\n      0x03\n      dup3\n      add\n      sload\n      dup4\n      and\n      0x60\n      dup3\n      add\n      mstore\n      0x04\n      dup3\n      add\n      sload\n      dup4\n      and\n      0x80\n      dup3\n      add\n      mstore\n      0x05\n      swap1\n      swap2\n      add\n      sload\n      swap1\n      swap2\n      and\n      0xa0\n      dup3\n      add\n      mstore\n      swap1\n        /* \"src/core/Registry.sol\":854:965  function getDaoInfo(address _dao) external view returns (DaoInfo memory) {... */\n      jump\n    tag_17:\n      mload(0x40)\n      tag_15\n      swap2\n      swap1\n        /* \"#utility.yul\":742:755   */\n      dup2\n      mload\n      sub(shl(0xa0, 0x01), 0x01)\n        /* \"#utility.yul\":738:760   */\n      swap1\n      dup2\n      and\n        /* \"#utility.yul\":720:761   */\n      dup3\n      mstore\n        /* \"#utility.yul\":817:821   */\n      0x20\n        /* \"#utility.yul\":805:822   */\n      dup1\n      dup5\n      add\n        /* \"#utility.yul\":799:823   */\n      mload\n        /* \"#utility.yul\":777:797   */\n      swap1\n      dup4\n      add\n        /* \"#utility.yul\":770:824   */\n      mstore\n        /* \"#utility.yul\":884:888   */\n      0x40\n        /* \"#utility.yul\":872:889   */\n      dup1\n      dup5\n      add\n        /* \"#utility.yul\":866:890   */\n      mload\n        /* \"#utility.yul\":862:895   */\n      dup3\n      and\n        /* \"#utility.yul\":840:860   */\n      swap1\n      dup4\n      add\n        /* \"#utility.yul\":833:896   */\n      mstore\n        /* \"#utility.yul\":956:960   */\n      0x60\n        /* \"#utility.yul\":944:961   */\n      dup1\n      dup5\n      add\n        /* \"#utility.yul\":938:962   */\n      mload\n        /* \"#utility.yul\":934:967   */\n      dup3\n      and\n        /* \"#utility.yul\":912:932   */\n      swap1\n      dup4\n      add\n        /* \"#utility.yul\":905:968   */\n      mstore\n        /* \"#utility.yul\":1028:1032   */\n      0x80\n        /* \"#utility.yul\":1016:1033   */\n      dup1\n      dup5\n      add\n        /* \"#utility.yul\":1010:1034   */\n      mload\n        /* \"#utility.yul\":1006:1039   */\n      dup3\n      and\n        /* \"#utility.yul\":984:1004   */\n      swap1\n      dup4\n      add\n        /* \"#utility.yul\":977:1040   */\n      mstore\n        /* \"#utility.yul\":700:703   */\n      0xa0\n        /* \"#utility.yul\":1088:1105   */\n      swap3\n      dup4\n      add\n        /* \"#utility.yul\":1082:1106   */\n      mload\n        /* \"#utility.yul\":1078:1111   */\n      and\n        /* \"#utility.yul\":1056:1076   */\n      swap2\n      dup2\n      add\n        /* \"#utility.yul\":1049:1112   */\n      swap2\n      swap1\n      swap2\n      mstore\n        /* \"#utility.yul\":669:672   */\n      0xc0\n        /* \"#utility.yul\":654:673   */\n      add\n      swap1\n        /* \"#utility.yul\":487:1118   */\n      jump\n        /* \"src/core/Registry.sol\":322:350  uint256 public totalInvested */\n    tag_5:\n      tag_13\n      sload(0x03)\n      dup2\n      jump\n        /* \"src/core/Registry.sol\":213:256  mapping(address => DaoInfo) public daoInfos */\n    tag_6:\n      tag_26\n      tag_27\n      calldatasize\n      0x04\n      tag_19\n      jump\t// in\n    tag_27:\n      0x01\n      0x20\n      dup2\n      swap1\n      mstore\n      0x00\n      swap2\n      dup3\n      mstore\n      0x40\n      swap1\n      swap2\n      keccak256\n      dup1\n      sload\n      swap2\n      dup2\n      add\n      sload\n      0x02\n      dup3\n      add\n      sload\n      0x03\n      dup4\n      add\n      sload\n      0x04\n      dup5\n      add\n      sload\n      0x05\n      swap1\n      swap5\n      add\n      sload\n      sub(shl(0xa0, 0x01), 0x01)\n      swap6\n      dup7\n      and\n      swap6\n      swap4\n      swap5\n      swap3\n      dup5\n      and\n      swap4\n      swap2\n      dup3\n      and\n      swap3\n      dup3\n      and\n      swap2\n      and\n      dup7\n      jump\n    tag_26:\n      0x40\n      dup1\n      mload\n      sub(shl(0xa0, 0x01), 0x01)\n        /* \"#utility.yul\":1466:1481   */\n      swap8\n      dup9\n      and\n        /* \"#utility.yul\":1448:1482   */\n      dup2\n      mstore\n        /* \"#utility.yul\":1513:1515   */\n      0x20\n        /* \"#utility.yul\":1498:1516   */\n      dup2\n      add\n        /* \"#utility.yul\":1491:1525   */\n      swap7\n      swap1\n      swap7\n      mstore\n        /* \"#utility.yul\":1561:1576   */\n      swap4\n      dup7\n      and\n        /* \"#utility.yul\":1541:1559   */\n      swap4\n      dup6\n      add\n        /* \"#utility.yul\":1534:1577   */\n      swap4\n      swap1\n      swap4\n      mstore\n        /* \"#utility.yul\":1613:1628   */\n      swap1\n      dup5\n      and\n        /* \"#utility.yul\":1608:1610   */\n      0x60\n        /* \"#utility.yul\":1593:1611   */\n      dup5\n      add\n        /* \"#utility.yul\":1586:1629   */\n      mstore\n        /* \"#utility.yul\":1666:1681   */\n      dup4\n      and\n        /* \"#utility.yul\":1660:1663   */\n      0x80\n        /* \"#utility.yul\":1645:1664   */\n      dup4\n      add\n        /* \"#utility.yul\":1638:1682   */\n      mstore\n        /* \"#utility.yul\":1719:1734   */\n      swap1\n      swap2\n      and\n        /* \"#utility.yul\":1428:1431   */\n      0xa0\n        /* \"#utility.yul\":1698:1717   */\n      dup3\n      add\n        /* \"#utility.yul\":1691:1735   */\n      mstore\n        /* \"#utility.yul\":1397:1400   */\n      0xc0\n        /* \"#utility.yul\":1382:1401   */\n      add\n        /* \"src/core/Registry.sol\":213:256  mapping(address => DaoInfo) public daoInfos */\n      tag_15\n        /* \"#utility.yul\":1123:1741   */\n      jump\n        /* \"src/core/Registry.sol\":263:315  mapping(address => uint256) public investmentsByUser */\n    tag_7:\n      tag_13\n      tag_32\n      calldatasize\n      0x04\n      tag_19\n      jump\t// in\n    tag_32:\n      mstore(0x20, 0x02)\n      0x00\n      swap1\n      dup2\n      mstore\n      0x40\n      swap1\n      keccak256\n      sload\n      dup2\n      jump\n        /* \"src/core/Registry.sol\":489:588  function getTotalNumberOfDaos() external view returns (uint256) {... */\n    tag_8:\n        /* \"src/core/Registry.sol\":544:551  uint256 */\n      0x00\n        /* \"src/core/Registry.sol\":570:581  daos.length */\n      sload\n        /* \"src/core/Registry.sol\":489:588  function getTotalNumberOfDaos() external view returns (uint256) {... */\n      jump(tag_13)\n        /* \"src/core/Registry.sol\":186:207  address[] public daos */\n    tag_9:\n      tag_38\n      tag_39\n      calldatasize\n      0x04\n      tag_40\n      jump\t// in\n    tag_39:\n      tag_41\n      jump\t// in\n    tag_38:\n      mload(0x40)\n      sub(shl(0xa0, 0x01), 0x01)\n        /* \"#utility.yul\":2095:2127   */\n      swap1\n      swap2\n      and\n        /* \"#utility.yul\":2077:2128   */\n      dup2\n      mstore\n        /* \"#utility.yul\":2065:2067   */\n      0x20\n        /* \"#utility.yul\":2050:2068   */\n      add\n        /* \"src/core/Registry.sol\":186:207  address[] public daos */\n      tag_15\n        /* \"#utility.yul\":1931:2134   */\n      jump\n        /* \"src/core/Registry.sol\":703:848  function getTotalAmountInvestedByInvestor(address _investor) external view returns (uint256) {... */\n    tag_10:\n      tag_13\n      tag_45\n      calldatasize\n      0x04\n      tag_19\n      jump\t// in\n    tag_45:\n      sub(shl(0xa0, 0x01), 0x01)\n        /* \"src/core/Registry.sol\":813:841  investmentsByUser[_investor] */\n      and\n        /* \"src/core/Registry.sol\":787:794  uint256 */\n      0x00\n        /* \"src/core/Registry.sol\":813:841  investmentsByUser[_investor] */\n      swap1\n      dup2\n      mstore\n        /* \"src/core/Registry.sol\":813:830  investmentsByUser */\n      0x02\n        /* \"src/core/Registry.sol\":813:841  investmentsByUser[_investor] */\n      0x20\n      mstore\n      0x40\n      swap1\n      keccak256\n      sload\n      swap1\n        /* \"src/core/Registry.sol\":703:848  function getTotalAmountInvestedByInvestor(address _investor) external view returns (uint256) {... */\n      jump\n        /* \"src/core/Registry.sol\":971:1084  function isValidDao(address _dao) external view returns (bool) {... */\n    tag_11:\n      tag_48\n      tag_49\n      calldatasize\n      0x04\n      tag_19\n      jump\t// in\n    tag_49:\n      sub(shl(0xa0, 0x01), 0x01)\n        /* \"src/core/Registry.sol\":1051:1077  daoInfos[_dao].dao == _dao */\n      swap1\n      dup2\n      and\n        /* \"src/core/Registry.sol\":1028:1032  bool */\n      0x00\n        /* \"src/core/Registry.sol\":1051:1065  daoInfos[_dao] */\n      dup2\n      dup2\n      mstore\n        /* \"src/core/Registry.sol\":1051:1059  daoInfos */\n      0x01\n        /* \"src/core/Registry.sol\":1051:1065  daoInfos[_dao] */\n      0x20\n      mstore\n      0x40\n      swap1\n      keccak256\n        /* \"src/core/Registry.sol\":1051:1069  daoInfos[_dao].dao */\n      sload\n      swap1\n      swap2\n      and\n        /* \"src/core/Registry.sol\":1051:1077  daoInfos[_dao].dao == _dao */\n      eq\n      swap1\n        /* \"src/core/Registry.sol\":971:1084  function isValidDao(address _dao) external view returns (bool) {... */\n      jump\n    tag_48:\n      mload(0x40)\n        /* \"#utility.yul\":2304:2318   */\n      swap1\n      iszero\n        /* \"#utility.yul\":2297:2319   */\n      iszero\n        /* \"#utility.yul\":2279:2320   */\n      dup2\n      mstore\n        /* \"#utility.yul\":2267:2269   */\n      0x20\n        /* \"#utility.yul\":2252:2270   */\n      add\n        /* \"src/core/Registry.sol\":971:1084  function isValidDao(address _dao) external view returns (bool) {... */\n      tag_15\n        /* \"#utility.yul\":2139:2326   */\n      jump\n        /* \"src/core/Registry.sol\":186:207  address[] public daos */\n    tag_41:\n      0x00\n      dup2\n      dup2\n      sload\n      dup2\n      lt\n      tag_58\n      jumpi\n      0x00\n      dup1\n      revert\n    tag_58:\n      0x00\n      swap2\n      dup3\n      mstore\n      0x20\n      swap1\n      swap2\n      keccak256\n      add\n      sload\n      sub(shl(0xa0, 0x01), 0x01)\n      and\n      swap1\n      pop\n      dup2\n      jump\t// out\n        /* \"#utility.yul\":196:482   */\n    tag_19:\n        /* \"#utility.yul\":255:261   */\n      0x00\n        /* \"#utility.yul\":308:310   */\n      0x20\n        /* \"#utility.yul\":296:305   */\n      dup3\n        /* \"#utility.yul\":287:294   */\n      dup5\n        /* \"#utility.yul\":283:306   */\n      sub\n        /* \"#utility.yul\":279:311   */\n      slt\n        /* \"#utility.yul\":276:328   */\n      iszero\n      tag_65\n      jumpi\n        /* \"#utility.yul\":324:325   */\n      0x00\n        /* \"#utility.yul\":321:322   */\n      dup1\n        /* \"#utility.yul\":314:326   */\n      revert\n        /* \"#utility.yul\":276:328   */\n    tag_65:\n        /* \"#utility.yul\":350:373   */\n      dup2\n      calldataload\n      sub(shl(0xa0, 0x01), 0x01)\n        /* \"#utility.yul\":402:433   */\n      dup2\n      and\n        /* \"#utility.yul\":392:434   */\n      dup2\n      eq\n        /* \"#utility.yul\":382:452   */\n      tag_66\n      jumpi\n        /* \"#utility.yul\":448:449   */\n      0x00\n        /* \"#utility.yul\":445:446   */\n      dup1\n        /* \"#utility.yul\":438:450   */\n      revert\n        /* \"#utility.yul\":382:452   */\n    tag_66:\n        /* \"#utility.yul\":471:476   */\n      swap4\n        /* \"#utility.yul\":196:482   */\n      swap3\n      pop\n      pop\n      pop\n      jump\t// out\n        /* \"#utility.yul\":1746:1926   */\n    tag_40:\n        /* \"#utility.yul\":1805:1811   */\n      0x00\n        /* \"#utility.yul\":1858:1860   */\n      0x20\n        /* \"#utility.yul\":1846:1855   */\n      dup3\n        /* \"#utility.yul\":1837:1844   */\n      dup5\n        /* \"#utility.yul\":1833:1856   */\n      sub\n        /* \"#utility.yul\":1829:1861   */\n      slt\n        /* \"#utility.yul\":1826:1878   */\n      iszero\n      tag_70\n      jumpi\n        /* \"#utility.yul\":1874:1875   */\n      0x00\n        /* \"#utility.yul\":1871:1872   */\n      dup1\n        /* \"#utility.yul\":1864:1876   */\n      revert\n        /* \"#utility.yul\":1826:1878   */\n    tag_70:\n      pop\n        /* \"#utility.yul\":1897:1920   */\n      calldataload\n      swap2\n        /* \"#utility.yul\":1746:1926   */\n      swap1\n      pop\n      jump\t// out\n\n    auxdata: 0xa264697066735822122018c80093f9e7d196106bd1d548fcbdcec3704b7d546eccd4bf87ad6af921220964736f6c63430008110033\n}\n",
				"bytecode": {
					"linkReferences": {},
					"object": "608060405234801561001057600080fd5b506103bc806100206000396000f3fe608060405234801561001057600080fd5b50600436106100935760003560e01c8063727e0f5911610066578063727e0f5914610258578063a18ba05d14610278578063ccbbd26014610280578063d1a7cbe0146102ab578063ebeefbb7146102d457600080fd5b806333f2c679146100985780634f69f5e5146100af5780635216aeec146101b65780636a6ce6b2146101bf575b600080fd5b6003545b6040519081526020015b60405180910390f35b61015d6100bd36600461033d565b6040805160c081018252600080825260208201819052918101829052606081018290526080810182905260a0810191909152506001600160a01b03908116600090815260016020818152604092839020835160c0810185528154861681529281015491830191909152600281015484169282019290925260038201548316606082015260048201548316608082015260059091015490911660a082015290565b6040516100a6919081516001600160a01b0390811682526020808401519083015260408084015182169083015260608084015182169083015260808084015182169083015260a092830151169181019190915260c00190565b61009c60035481565b6102166101cd36600461033d565b60016020819052600091825260409091208054918101546002820154600383015460048401546005909401546001600160a01b0395861695939492841693918216928216911686565b604080516001600160a01b03978816815260208101969096529386169385019390935290841660608401528316608083015290911660a082015260c0016100a6565b61009c61026636600461033d565b60026020526000908152604090205481565b60005461009c565b61029361028e36600461036d565b610313565b6040516001600160a01b0390911681526020016100a6565b61009c6102b936600461033d565b6001600160a01b031660009081526002602052604090205490565b6103036102e236600461033d565b6001600160a01b039081166000818152600160205260409020549091161490565b60405190151581526020016100a6565b6000818154811061032357600080fd5b6000918252602090912001546001600160a01b0316905081565b60006020828403121561034f57600080fd5b81356001600160a01b038116811461036657600080fd5b9392505050565b60006020828403121561037f57600080fd5b503591905056fea264697066735822122018c80093f9e7d196106bd1d548fcbdcec3704b7d546eccd4bf87ad6af921220964736f6c63430008110033",
					"opcodes": "PUSH1 0x80 PUSH1 0x40 MSTORE CALLVALUE DUP1 ISZERO PUSH2 0x10 JUMPI PUSH1 0x0 DUP1 REVERT JUMPDEST POP PUSH2 0x3BC DUP1 PUSH2 0x20 PUSH1 0x0 CODECOPY PUSH1 0x0 RETURN INVALID PUSH1 0x80 PUSH1 0x40 MSTORE CALLVALUE DUP1 ISZERO PUSH2 0x10 JUMPI PUSH1 0x0 DUP1 REVERT JUMPDEST POP PUSH1 0x4 CALLDATASIZE LT PUSH2 0x93 JUMPI PUSH1 0x0 CALLDATALOAD PUSH1 0xE0 SHR DUP1 PUSH4 0x727E0F59 GT PUSH2 0x66 JUMPI DUP1 PUSH4 0x727E0F59 EQ PUSH2 0x258 JUMPI DUP1 PUSH4 0xA18BA05D EQ PUSH2 0x278 JUMPI DUP1 PUSH4 0xCCBBD260 EQ PUSH2 0x280 JUMPI DUP1 PUSH4 0xD1A7CBE0 EQ PUSH2 0x2AB JUMPI DUP1 PUSH4 0xEBEEFBB7 EQ PUSH2 0x2D4 JUMPI PUSH1 0x0 DUP1 REVERT JUMPDEST DUP1 PUSH4 0x33F2C679 EQ PUSH2 0x98 JUMPI DUP1 PUSH4 0x4F69F5E5 EQ PUSH2 0xAF JUMPI DUP1 PUSH4 0x5216AEEC EQ PUSH2 0x1B6 JUMPI DUP1 PUSH4 0x6A6CE6B2 EQ PUSH2 0x1BF JUMPI JUMPDEST PUSH1 0x0 DUP1 REVERT JUMPDEST PUSH1 0x3 SLOAD JUMPDEST PUSH1 0x40 MLOAD SWAP1 DUP2 MSTORE PUSH1 0x20 ADD JUMPDEST PUSH1 0x40 MLOAD DUP1 SWAP2 SUB SWAP1 RETURN JUMPDEST PUSH2 0x15D PUSH2 0xBD CALLDATASIZE PUSH1 0x4 PUSH2 0x33D JUMP JUMPDEST PUSH1 0x40 DUP1 MLOAD PUSH1 0xC0 DUP2 ADD DUP3 MSTORE PUSH1 0x0 DUP1 DUP3 MSTORE PUSH1 0x20 DUP3 ADD DUP2 SWAP1 MSTORE SWAP2 DUP2 ADD DUP3 SWAP1 MSTORE PUSH1 0x60 DUP2 ADD DUP3 SWAP1 MSTORE PUSH1 0x80 DUP2 ADD DUP3 SWAP1 MSTORE PUSH1 0xA0 DUP2 ADD SWAP2 SWAP1 SWAP2 MSTORE POP PUSH1 0x1 PUSH1 0x1 PUSH1 0xA0 SHL SUB SWAP1 DUP2 AND PUSH1 0x0 SWAP1 DUP2 MSTORE PUSH1 0x1 PUSH1 0x20 DUP2 DUP2 MSTORE PUSH1 0x40 SWAP3 DUP4 SWAP1 KECCAK256 DUP4 MLOAD PUSH1 0xC0 DUP2 ADD DUP6 MSTORE DUP2 SLOAD DUP7 AND DUP2 MSTORE SWAP3 DUP2 ADD SLOAD SWAP2 DUP4 ADD SWAP2 SWAP1 SWAP2 MSTORE PUSH1 0x2 DUP2 ADD SLOAD DUP5 AND SWAP3 DUP3 ADD SWAP3 SWAP1 SWAP3 MSTORE PUSH1 0x3 DUP3 ADD SLOAD DUP4 AND PUSH1 0x60 DUP3 ADD MSTORE PUSH1 0x4 DUP3 ADD SLOAD DUP4 AND PUSH1 0x80 DUP3 ADD MSTORE PUSH1 0x5 SWAP1 SWAP2 ADD SLOAD SWAP1 SWAP2 AND PUSH1 0xA0 DUP3 ADD MSTORE SWAP1 JUMP JUMPDEST PUSH1 0x40 MLOAD PUSH2 0xA6 SWAP2 SWAP1 DUP2 MLOAD PUSH1 0x1 PUSH1 0x1 PUSH1 0xA0 SHL SUB SWAP1 DUP2 AND DUP3 MSTORE PUSH1 0x20 DUP1 DUP5 ADD MLOAD SWAP1 DUP4 ADD MSTORE PUSH1 0x40 DUP1 DUP5 ADD MLOAD DUP3 AND SWAP1 DUP4 ADD MSTORE PUSH1 0x60 DUP1 DUP5 ADD MLOAD DUP3 AND SWAP1 DUP4 ADD MSTORE PUSH1 0x80 DUP1 DUP5 ADD MLOAD DUP3 AND SWAP1 DUP4 ADD MSTORE PUSH1 0xA0 SWAP3 DUP4 ADD MLOAD AND SWAP2 DUP2 ADD SWAP2 SWAP1 SWAP2 MSTORE PUSH1 0xC0 ADD SWAP1 JUMP JUMPDEST PUSH2 0x9C PUSH1 0x3 SLOAD DUP2 JUMP JUMPDEST PUSH2 0x216 PUSH2 0x1CD CALLDATASIZE PUSH1 0x4 PUSH2 0x33D JUMP JUMPDEST PUSH1 0x1 PUSH1 0x20 DUP2 SWAP1 MSTORE PUSH1 0x0 SWAP2 DUP3 MSTORE PUSH1 0x40 SWAP1 SWAP2 KECCAK256 DUP1 SLOAD SWAP2 DUP2 ADD SLOAD PUSH1 0x2 DUP3 ADD SLOAD PUSH1 0x3 DUP4 ADD SLOAD PUSH1 0x4 DUP5 ADD SLOAD PUSH1 0x5 SWAP1 SWAP5 ADD SLOAD PUSH1 0x1 PUSH1 0x1 PUSH1 0xA0 SHL SUB SWAP6 DUP7 AND SWAP6 SWAP4 SWAP5 SWAP3 DUP5 AND SWAP4 SWAP2 DUP3 AND SWAP3 DUP3 AND SWAP2 AND DUP7 JUMP JUMPDEST PUSH1 0x40 DUP1 MLOAD PUSH1 0x1 PUSH1 0x1 PUSH1 0xA0 SHL SUB SWAP8 DUP9 AND DUP2 MSTORE PUSH1 0x20 DUP2 ADD SWAP7 SWAP1 SWAP7 MSTORE SWAP4 DUP7 AND SWAP4 DUP6 ADD SWAP4 SWAP1 SWAP4 MSTORE SWAP1 DUP5 AND PUSH1 0x60 DUP5 ADD MSTORE DUP4 AND PUSH1 0x80 DUP4 ADD MSTORE SWAP1 SWAP2 AND PUSH1 0xA0 DUP3 ADD MSTORE PUSH1 0xC0 ADD PUSH2 0xA6 JUMP JUMPDEST PUSH2 0x9C PUSH2 0x266 CALLDATASIZE PUSH1 0x4 PUSH2 0x33D JUMP JUMPDEST PUSH1 0x2 PUSH1 0x20 MSTORE PUSH1 0x0 SWAP1 DUP2 MSTORE PUSH1 0x40 SWAP1 KECCAK256 SLOAD DUP2 JUMP JUMPDEST PUSH1 0x0 SLOAD PUSH2 0x9C JUMP JUMPDEST PUSH2 0x293 PUSH2 0x28E CALLDATASIZE PUSH1 0x4 PUSH2 0x36D JUMP JUMPDEST PUSH2 0x313 JUMP JUMPDEST PUSH1 0x40 MLOAD PUSH1 0x1 PUSH1 0x1 PUSH1 0xA0 SHL SUB SWAP1 SWAP2 AND DUP2 MSTORE PUSH1 0x20 ADD PUSH2 0xA6 JUMP JUMPDEST PUSH2 0x9C PUSH2 0x2B9 CALLDATASIZE PUSH1 0x4 PUSH2 0x33D JUMP JUMPDEST PUSH1 0x1 PUSH1 0x1 PUSH1 0xA0 SHL SUB AND PUSH1 0x0 SWAP1 DUP2 MSTORE PUSH1 0x2 PUSH1 0x20 MSTORE PUSH1 0x40 SWAP1 KECCAK256 SLOAD SWAP1 JUMP JUMPDEST PUSH2 0x303 PUSH2 0x2E2 CALLDATASIZE PUSH1 0x4 PUSH2 0x33D JUMP JUMPDEST PUSH1 0x1 PUSH1 0x1 PUSH1 0xA0 SHL SUB SWAP1 DUP2 AND PUSH1 0x0 DUP2 DUP2 MSTORE PUSH1 0x1 PUSH1 0x20 MSTORE PUSH1 0x40 SWAP1 KECCAK256 SLOAD SWAP1 SWAP2 AND EQ SWAP1 JUMP JUMPDEST PUSH1 0x40 MLOAD SWAP1 ISZERO ISZERO DUP2 MSTORE PUSH1 0x20 ADD PUSH2 0xA6 JUMP JUMPDEST PUSH1 0x0 DUP2 DUP2 SLOAD DUP2 LT PUSH2 0x323 JUMPI PUSH1 0x0 DUP1 REVERT JUMPDEST PUSH1 0x0 SWAP2 DUP3 MSTORE PUSH1 0x20 SWAP1 SWAP2 KECCAK256 ADD SLOAD PUSH1 0x1 PUSH1 0x1 PUSH1 0xA0 SHL SUB AND SWAP1 POP DUP2 JUMP JUMPDEST PUSH1 0x0 PUSH1 0x20 DUP3 DUP5 SUB SLT ISZERO PUSH2 0x34F JUMPI PUSH1 0x0 DUP1 REVERT JUMPDEST DUP2 CALLDATALOAD PUSH1 0x1 PUSH1 0x1 PUSH1 0xA0 SHL SUB DUP2 AND DUP2 EQ PUSH2 0x366 JUMPI PUSH1 0x0 DUP1 REVERT JUMPDEST SWAP4 SWAP3 POP POP POP JUMP JUMPDEST PUSH1 0x0 PUSH1 0x20 DUP3 DUP5 SUB SLT ISZERO PUSH2 0x37F JUMPI PUSH1 0x0 DUP1 REVERT JUMPDEST POP CALLDATALOAD SWAP2 SWAP1 POP JUMP INVALID LOG2 PUSH5 0x6970667358 0x22 SLT KECCAK256 XOR 0xC8 STOP SWAP4 0xF9 0xE7 0xD1 SWAP7 LT PUSH12 0xD1D548FCBDCEC3704B7D546E 0xCC 0xD4 0xBF DUP8 0xAD PUSH11 0xF921220964736F6C634300 ADDMOD GT STOP CALLER "
				},
				"gasEstimates": {
					"creation": {
						"codeDepositCost": "191200",
						"executionCost": "232",
						"totalCost": "191432"
					},
					"external": {
						"daoInfos(address)": "13330",
						"daos(uint256)": "4658",
						"getDaoInfo(address)": "13615",
						"getTotalAmountInvested()": "2271",
						"getTotalAmountInvestedByInvestor(address)": "2557",
						"getTotalNumberOfDaos()": "2303",
						"investmentsByUser(address)": "2473",
						"isValidDao(address)": "2614",
						"totalInvested()": "2329"
					},
					"internal": {
						"_registerNewDao(struct DaoInfo memory)": "infinite"
					}
				},
				"methodIdentifiers": {
					"daoInfos(address)": "6a6ce6b2",
					"daos(uint256)": "ccbbd260",
					"getDaoInfo(address)": "4f69f5e5",
					"getTotalAmountInvested()": "33f2c679",
					"getTotalAmountInvestedByInvestor(address)": "d1a7cbe0",
					"getTotalNumberOfDaos()": "a18ba05d",
					"investmentsByUser(address)": "727e0f59",
					"isValidDao(address)": "ebeefbb7",
					"totalInvested()": "5216aeec"
				}
			},
			"storageLayout": {
				"storage": [
					{
						"astId": 5,
						"contract": "src/core/Registry.sol:Registry",
						"label": "daos",
						"offset": 0,
						"slot": "0",
						"type": "t_array(t_address)dyn_storage"
					},
					{
						"astId": 10,
						"contract": "src/core/Registry.sol:Registry",
						"label": "daoInfos",
						"offset": 0,
						"slot": "1",
						"type": "t_mapping(t_address,t_struct(DaoInfo)273_storage)"
					},
					{
						"astId": 14,
						"contract": "src/core/Registry.sol:Registry",
						"label": "investmentsByUser",
						"offset": 0,
						"slot": "2",
						"type": "t_mapping(t_address,t_uint256)"
					},
					{
						"astId": 16,
						"contract": "src/core/Registry.sol:Registry",
						"label": "totalInvested",
						"offset": 0,
						"slot": "3",
						"type": "t_uint256"
					}
				],
				"types": {
					"t_address": {
						"encoding": "inplace",
						"label": "address",
						"numberOfBytes": "20"
					},
					"t_array(t_address)dyn_storage": {
						"base": "t_address",
						"encoding": "dynamic_array",
						"label": "address[]",
						"numberOfBytes": "32"
					},
					"t_mapping(t_address,t_struct(DaoInfo)273_storage)": {
						"encoding": "mapping",
						"key": "t_address",
						"label": "mapping(address => struct DaoInfo)",
						"numberOfBytes": "32",
						"value": "t_struct(DaoInfo)273_storage"
					},
					"t_mapping(t_address,t_uint256)": {
						"encoding": "mapping",
						"key": "t_address",
						"label": "mapping(address => uint256)",
						"numberOfBytes": "32",
						"value": "t_uint256"
					},
					"t_struct(DaoInfo)273_storage": {
						"encoding": "inplace",
						"label": "struct DaoInfo",
						"members": [
							{
								"astId": 262,
								"contract": "src/core/Registry.sol:Registry",
								"label": "dao",
								"offset": 0,
								"slot": "0",
								"type": "t_address"
							},
							{
								"astId": 264,
								"contract": "src/core/Registry.sol:Registry",
								"label": "createdAt",
								"offset": 0,
								"slot": "1",
								"type": "t_uint256"
							},
							{
								"astId": 266,
								"contract": "src/core/Registry.sol:Registry",
								"label": "creator",
								"offset": 0,
								"slot": "2",
								"type": "t_address"
							},
							{
								"astId": 268,
								"contract": "src/core/Registry.sol:Registry",
								"label": "accessToken",
								"offset": 0,
								"slot": "3",
								"type": "t_address"
							},
							{
								"astId": 270,
								"contract": "src/core/Registry.sol:Registry",
								"label": "investorToken",
								"offset": 0,
								"slot": "4",
								"type": "t_address"
							},
							{
								"astId": 272,
								"contract": "src/core/Registry.sol:Registry",
								"label": "memberToken",
								"offset": 0,
								"slot": "5",
								"type": "t_address"
							}
						],
						"numberOfBytes": "192"
					},
					"t_uint256": {
						"encoding": "inplace",
						"label": "uint256",
						"numberOfBytes": "32"
					}
				}
			},
			"userdoc": {
				"kind": "user",
				"methods": {},
				"version": 1
			}
		}
	}
}