{
	"data": {
		"bytecode": {
			"linkReferences": {},
			"object": "608060405234801561001057600080fd5b506154a8806100206000396000f3fe6080604052600436106100c35760003560e01c80630cf20cc9146100c857806310c88e74146100fb5780631adf7eb11461011057806348474f561461015c5780635001f3b51461017c5780635a29638d146101a9578063617fbb9e146101c957806366263735146101fb578063868e10c41461021b578063b163cc381461024a578063bad79de914610252578063c0c53b8b1461028a578063c529eae3146102aa578063c6620db3146102ca578063e243c5fb146102ea578063e4be98f214610310575b600080fd5b3480156100d457600080fd5b506100e86100e3366004614312565b610342565b6040519081526020015b60405180910390f35b61010e61010936600461433e565b610560565b005b34801561011c57600080fd5b5061014761012b36600461433e565b6003602052600090815260409020805460019091015460ff1682565b604080519283529015156020830152016100f2565b34801561016857600080fd5b506100e8610177366004614357565b610c6e565b34801561018857600080fd5b5060025461019c906001600160a01b031681565b6040516100f291906143ae565b3480156101b557600080fd5b5060015461019c906001600160a01b031681565b3480156101d557600080fd5b506101e96101e4366004614485565b6110ea565b6040516100f29695949392919061451f565b34801561020757600080fd5b5061010e610216366004614485565b6111c8565b34801561022757600080fd5b5061023b61023636600461459d565b6112fe565b6040516100f2939291906145fe565b61010e611499565b34801561025e57600080fd5b5061027261026d36600461433e565b611518565b6040516100f29c9b9a99989796959493929190614678565b34801561029657600080fd5b5061010e6102a5366004614734565b611828565b3480156102b657600080fd5b5061010e6102c53660046147c0565b611985565b3480156102d657600080fd5b506100e86102e536600461433e565b611b34565b3480156102f657600080fd5b5060005461019c906201000090046001600160a01b031681565b34801561031c57600080fd5b5061033061032b36600461433e565b611b55565b6040516100f296959493929190614863565b6002546000906001600160a01b031633146103785760405162461bcd60e51b815260040161036f906148c7565b60405180910390fd5b604080518082019182905260015463119ce18d60e31b90925260009181906001600160a01b0316638ce70c686103b188604485016143ae565b600060405180830381865afa1580156103ce573d6000803e3d6000fd5b505050506040513d6000823e601f3d908101601f191682016040526103f69190810190614941565b8152600154604051636f03897160e01b8152600481018790526020909201916001600160a01b0390911690636f03897190602401600060405180830381865afa158015610447573d6000803e3d6000fd5b505050506040513d6000823e601f3d908101601f1916820160405261046f91908101906149d1565b90529050600061047e82611d2c565b6002546040519192506000916001600160a01b039091169086908381818185875af1925050503d80600081146104d0576040519150601f19603f3d011682016040523d82523d6000602084013e6104d5565b606091505b50509050806104e357600080fd5b60015460405163441e139960e11b81526001600160a01b039091169063883c273290610513908590600401614a6a565b602060405180830381865afa158015610530573d6000803e3d6000fd5b505050506040513d601f19601f820116820180604052508101906105549190614a9e565b93505050505b92915050565b6000818152600660209081526040808320815160c0810183528154815260018201546001600160a01b03169381019390935260028101805491928401916105a690614ab7565b80601f01602080910402602001604051908101604052809291908181526020018280546105d290614ab7565b801561061f5780601f106105f45761010080835404028352916020019161061f565b820191906000526020600020905b81548152906001019060200180831161060257829003601f168201915b5050505050815260200160038201805461063890614ab7565b80601f016020809104026020016040519081016040528092919081815260200182805461066490614ab7565b80156106b15780601f10610686576101008083540402835291602001916106b1565b820191906000526020600020905b81548152906001019060200180831161069457829003601f168201915b505050505081526020016004820180546106ca90614ab7565b80601f01602080910402602001604051908101604052809291908181526020018280546106f690614ab7565b80156107435780601f1061071857610100808354040283529160200191610743565b820191906000526020600020905b81548152906001019060200180831161072657829003601f168201915b505050505081526020016005820154815250509050818160000151146107a55760405162461bcd60e51b8152602060048201526017602482015276141c9bdc1bdcd85b08191bd95cc81b9bdd08195e1a5cdd604a1b604482015260640161036f565b8060a0015134146107ee5760405162461bcd60e51b8152602060048201526013602482015272125b9d985b1a5908185b5bdd5b9d081cd95b9d606a1b604482015260640161036f565b60008281526003602090815260408083208151808301909252805480835260019091015460ff16151592820192909252600480549193929091811061083557610835614af1565b90600052602060002090600b02016040518061018001604052908160008201805461085f90614ab7565b80601f016020809104026020016040519081016040528092919081815260200182805461088b90614ab7565b80156108d85780601f106108ad576101008083540402835291602001916108d8565b820191906000526020600020905b8154815290600101906020018083116108bb57829003601f168201915b505050918352505060018201546001600160401b0381166020830152600160401b900460ff161515604082015260028201805460609092019161091a90614ab7565b80601f016020809104026020016040519081016040528092919081815260200182805461094690614ab7565b80156109935780601f1061096857610100808354040283529160200191610993565b820191906000526020600020905b81548152906001019060200180831161097657829003601f168201915b50505091835250506003820154600781810b6020840152600160401b909104810b60408301526004830154606083015260058301546080830152600683015460a08301528201805460c0909201916109ea90614ab7565b80601f0160208091040260200160405190810160405280929190818152602001828054610a1690614ab7565b8015610a635780601f10610a3857610100808354040283529160200191610a63565b820191906000526020600020905b815481529060010190602001808311610a4657829003601f168201915b505050918352505060088201546001600160401b03166020820152604080516080810182526009840180549290930192909182908290610aa290614ab7565b80601f0160208091040260200160405190810160405280929190818152602001828054610ace90614ab7565b8015610b1b5780601f10610af057610100808354040283529160200191610b1b565b820191906000526020600020905b815481529060010190602001808311610afe57829003601f168201915b5050509183525050600191909101546001600160401b038116602083015260ff600160401b8204811615156040840152600160481b909104161515606090910152905250905060028151604051600791610b7491614b07565b9081526040519081900360200190206003015460ff600160481b909104166004811115610ba357610ba3614509565b14610be95760405162461bcd60e51b81526020600482015260166024820152751119585b081b9bdd081c1d589b1a5cda1959081e595d60521b604482015260640161036f565b600054604084810151905163d0def52160e01b8152620100009092046001600160a01b03169163d0def52191610c2491339190600401614b23565b6020604051808303816000875af1158015610c43573d6000803e3d6000fd5b505050506040513d601f19601f82011682018060405250810190610c679190614a9e565b5050505050565b6002546000906001600160a01b03163314610c9b5760405162461bcd60e51b815260040161036f906148c7565b60006007610ca98580614b47565b604051610cb7929190614b8d565b90815260408051918290036020908101832060c08401835280548452600181015460ff161515918401919091526002810180549192840191610cf890614ab7565b80601f0160208091040260200160405190810160405280929190818152602001828054610d2490614ab7565b8015610d715780601f10610d4657610100808354040283529160200191610d71565b820191906000526020600020905b815481529060010190602001808311610d5457829003601f168201915b5050509183525050600382015460ff808216151560208401526001600160401b036101008304166040840152606090920191600160481b909104166004811115610dbd57610dbd614509565b6004811115610dce57610dce614509565b905250905060028160a001516004811115610deb57610deb614509565b1480610e0c575060038160a001516004811115610e0a57610e0a614509565b145b610e585760405162461bcd60e51b815260206004820152601e60248201527f4e6f74207075626c6973686564206f7220616374697661746564207965740000604482015260640161036f565b600083610e69610120870187614b47565b604051602001610e7b93929190614b9d565b60408051601f198184030181529181528151602092830120600081815260069093529120549091508114610ef15760405162461bcd60e51b815260206004820152601e60248201527f5265736561726368206465616c206e6f74207265636f72646564207965740000604482015260640161036f565b600480546001810182556000919091528590600b027f8a35acfbc15ff81a39ae7d344fd709f28e8600b4aa8c65c6b64bfe7fe36bd19b01610f328282614e75565b5050600454604080518082018252828152600160208083018281526000878152600383529485209351845551928201805460ff19169315159390931790925560058054808301825593527f036b6384b5eca791c62761152d0c79bb0604c104a5fb6f4eb0703f3154bb3db0909201849055838552840181905260a0840152826007610fbd8880614b47565b604051610fcb929190614b8d565b9081526040805160209281900383019020835181559183015160018301805460ff191691151591909117905582015160028201906110099082614fa7565b50606082015160038201805460808501516001600160401b031661010002610100600160481b0319931515939093166001600160481b0319909116179190911780825560a0840151919060ff60481b1916600160481b83600481111561107157611071614509565b02179055506110899150506060870160408801615060565b1515827ffd6419d07e4c269e58d0c63969756c2124155b4a8d6dd08b8cd46e3a9acbf6256110bd60408a0160208b0161507d565b604080516001600160401b03909216825260c08b013560208301520160405180910390a350949350505050565b8051602081830181018051600782529282019190930120915280546001820154600283018054929360ff9092169261112190614ab7565b80601f016020809104026020016040519081016040528092919081815260200182805461114d90614ab7565b801561119a5780601f1061116f5761010080835404028352916020019161119a565b820191906000526020600020905b81548152906001019060200180831161117d57829003601f168201915b5050506003909301549192505060ff808216916001600160401b0361010082041691600160481b9091041686565b60006007826040516111da9190614b07565b908152604051908190036020019020600301546001600160401b03610100909104161161123d5760405162461bcd60e51b8152602060048201526011602482015270125b9d985b1a59081c1a5958d94818da59607a1b604482015260640161036f565b60006112796007836040516112529190614b07565b908152604051908190036020019020600301546001600160401b0361010090910416611d6b565b90506000816020015160070b13156112d857600460078360405161129d9190614b07565b908152604051908190036020019020600301805460ff60481b1916600160481b8360048111156112cf576112cf614509565b02179055505050565b6000816000015160070b13156112fa57600360078360405161129d9190614b07565b5050565b60008060608082639d8b0677196001600160401b038916016113515761132386611db8565b600061132f600161220e565b905061133c81600161222f565b61134581612246565b92506051915050611489565b63f98c9965196001600160401b038916016113745761136f86612291565b611489565b63de180de2196001600160401b038916016114505733600760ff60981b01146113f05760405162461bcd60e51b815260206004820152602860248201527f6d73672e73656e646572206e6565647320746f2062652064617461636170206160448201526763746f722066303760c01b606482015260840161036f565b7f10aa319ed8cad9bceb033c0c2788c4ae17469ac844e4c6e2c2e20e74ca8a7be860405161144390602080825260119082015270446174614361702052656365697665642160781b604082015260600190565b60405180910390a1611489565b60405162461bcd60e51b815260206004820152600e60248201526d125b9d985b1a59081b595d1a1bd960921b604482015260640161036f565b6000989097509095509350505050565b60015460405163119ce18d60e31b8152611516916001600160a01b031690638ce70c68906114cb9030906004016143ae565b600060405180830381865afa1580156114e8573d6000803e3d6000fd5b505050506040513d6000823e601f3d908101601f191682016040526115109190810190614941565b3461253f565b565b6004818154811061152857600080fd5b90600052602060002090600b020160009150905080600001805461154b90614ab7565b80601f016020809104026020016040519081016040528092919081815260200182805461157790614ab7565b80156115c45780601f10611599576101008083540402835291602001916115c4565b820191906000526020600020905b8154815290600101906020018083116115a757829003601f168201915b50505050600183015460028401805493946001600160401b03831694600160401b90930460ff169350916115f790614ab7565b80601f016020809104026020016040519081016040528092919081815260200182805461162390614ab7565b80156116705780601f1061164557610100808354040283529160200191611670565b820191906000526020600020905b81548152906001019060200180831161165357829003601f168201915b505050600384015460048501546005860154600687015460078089018054989986830b99600160401b90970490920b975093955091939092906116b290614ab7565b80601f01602080910402602001604051908101604052809291908181526020018280546116de90614ab7565b801561172b5780601f106117005761010080835404028352916020019161172b565b820191906000526020600020905b81548152906001019060200180831161170e57829003601f168201915b5050505050908060080160009054906101000a90046001600160401b0316908060090160405180608001604052908160008201805461176990614ab7565b80601f016020809104026020016040519081016040528092919081815260200182805461179590614ab7565b80156117e25780601f106117b7576101008083540402835291602001916117e2565b820191906000526020600020905b8154815290600101906020018083116117c557829003601f168201915b5050509183525050600191909101546001600160401b038116602083015260ff600160401b8204811615156040840152600160481b90910416151560609091015290508c565b600054610100900460ff16158080156118485750600054600160ff909116105b806118625750303b158015611862575060005460ff166001145b6118c55760405162461bcd60e51b815260206004820152602e60248201527f496e697469616c697a61626c653a20636f6e747261637420697320616c72656160448201526d191e481a5b9a5d1a585b1a5e995960921b606482015260840161036f565b6000805460ff1916600117905580156118e8576000805461ff0019166101001790555b600080546001600160a01b03808716620100000262010000600160b01b031990921691909117909155600180548583166001600160a01b0319918216179091556002805492851692909116919091179055801561197f576000805461ff0019169055604051600181527f7f26b83ff96e1f2b6a682f133852f6798a09c465da95921460cefb38474024989060200160405180910390a15b50505050565b6002546001600160a01b031633146119af5760405162461bcd60e51b815260040161036f906148c7565b60003383836040516020016119c693929190614b9d565b60408051601f19818403018152828252805160209182012060c08401835280845233848301528251601f87018390048302810183018452868152909450600093928301918790879081908401838280828437600092019190915250505090825250604080516020601f8d018190048102820181019092528b815291810191908c908c9081908401838280828437600092019190915250505090825250604080516020601f8b0181900481028201810190925289815291810191908a908a9081908401838280828437600092018290525093855250505060209182018890528481526006825260409081902083518155918301516001830180546001600160a01b0319166001600160a01b0390921691909117905582015191925082916002820190611af19082614fa7565b5060608201516003820190611b069082614fa7565b5060808201516004820190611b1b9082614fa7565b5060a08201518160050155905050505050505050505050565b60058181548110611b4457600080fd5b600091825260209091200154905081565b60066020526000908152604090208054600182015460028301805492936001600160a01b0390921692611b8790614ab7565b80601f0160208091040260200160405190810160405280929190818152602001828054611bb390614ab7565b8015611c005780601f10611bd557610100808354040283529160200191611c00565b820191906000526020600020905b815481529060010190602001808311611be357829003601f168201915b505050505090806003018054611c1590614ab7565b80601f0160208091040260200160405190810160405280929190818152602001828054611c4190614ab7565b8015611c8e5780601f10611c6357610100808354040283529160200191611c8e565b820191906000526020600020905b815481529060010190602001808311611c7157829003601f168201915b505050505090806004018054611ca390614ab7565b80601f0160208091040260200160405190810160405280929190818152602001828054611ccf90614ab7565b8015611d1c5780601f10611cf157610100808354040283529160200191611d1c565b820191906000526020600020905b815481529060010190602001808311611cff57829003601f168201915b5050505050908060050154905086565b611d34614212565b6000611d3f83612587565b90506000611d5860056387ed0a64605185600080612621565b9050611d63816126fb565b949350505050565b60408051808201909152600080825260208201526000611d93836001600160401b0316612755565b90506000611dad6005639904f2ff60518560006001612621565b9050611d638161278d565b33600560ff60981b0114611dde5760405162461bcd60e51b815260040161036f9061509a565b6000611de9826127f1565b90506000611dfa826020015161284d565b80515160405191925090600090600790611e15908490614b07565b90815260408051918290036020908101832060c08401835280548452600181015460ff161515918401919091526002810180549192840191611e5690614ab7565b80601f0160208091040260200160405190810160405280929190818152602001828054611e8290614ab7565b8015611ecf5780601f10611ea457610100808354040283529160200191611ecf565b820191906000526020600020905b815481529060010190602001808311611eb257829003601f168201915b5050509183525050600382015460ff808216151560208401526001600160401b036101008304166040840152606090920191600160481b909104166004811115611f1b57611f1b614509565b6004811115611f2c57611f2c614509565b8152505090508060200151611f535760405162461bcd60e51b815260040161036f906150e1565b806060015115611f755760405162461bcd60e51b815260040161036f9061512b565b6000611f9f600784604051611f8a9190614b07565b9081526040519081900360200190205461299a565b9050806040015115158460400151151514611ffb5760405162461bcd60e51b815260206004820152601c60248201527b0eccae4d2ccd2cac8bec8cac2d840e0c2e4c2da40dad2e6dac2e8c6d60231b604482015260640161036f565b6001546101008501516040516341df65c760e11b815260009283926001600160a01b03909116916383becb8e9161203491600401614a6a565b6040805180830381865afa158015612050573d6000803e3d6000fd5b505050506040513d601f19601f820116820180604052508101906120749190615186565b9150915080156120965760405162461bcd60e51b815260040161036f906151ab565b6001546101408701516040516341df65c760e11b815260009283926001600160a01b03909116916383becb8e916120cf91600401614a6a565b6040805180830381865afa1580156120eb573d6000803e3d6000fd5b505050506040513d601f19601f8201168201806040525081019061210f9190615186565b9150915080156121315760405162461bcd60e51b815260040161036f906151ab565b8460c001518411156121975760405162461bcd60e51b815260206004820152602960248201527f73746f726167652070726963652067726561746572207468616e2072657175656044820152681cdd08185b5bdd5b9d60ba1b606482015260840161036f565b8461010001518211156122025760405162461bcd60e51b815260206004820152602d60248201527f636c69656e7420636f6c6c61746572616c2067726561746572207468616e207260448201526c195c5d595cdd08185b5bdd5b9d609a1b606482015260840161036f565b50505050505050505050565b61221661422a565b80516122229083612dd8565b5060006020820152919050565b6112fa828261223f576014612e42565b6015612e42565b6060816020015160001461228b5760405162461bcd60e51b815260206004820152600c60248201526b24b73b30b634b21021a127a960a11b604482015260640161036f565b50515190565b33600560ff60981b01146122b75760405162461bcd60e51b815260040161036f9061509a565b60006122c282612e56565b905060006122d3826000015161284d565b8051516040519192506000916007916122eb91614b07565b90815260408051918290036020908101832060c08401835280548452600181015460ff16151591840191909152600281018054919284019161232c90614ab7565b80601f016020809104026020016040519081016040528092919081815260200182805461235890614ab7565b80156123a55780601f1061237a576101008083540402835291602001916123a5565b820191906000526020600020905b81548152906001019060200180831161238857829003601f168201915b5050509183525050600382015460ff808216151560208401526001600160401b036101008304166040840152606090920191600160481b9091041660048111156123f1576123f1614509565b600481111561240257612402614509565b81525050905080602001516124295760405162461bcd60e51b815260040161036f906150e1565b80606001511561244b5760405162461bcd60e51b815260040161036f9061512b565b81515160408201526001606082015260208301516001600160401b03166080820152600260a0820181905250815151604051829160079161248c9190614b07565b9081526040805160209281900383019020835181559183015160018301805460ff191691151591909117905582015160028201906124ca9082614fa7565b50606082015160038201805460808501516001600160401b031661010002610100600160481b0319931515939093166001600160481b0319909116179190911780825560a0840151919060ff60481b1916600160481b83600481111561253257612532614509565b0217905550505050505050565b600061254a83612ebc565b905060006125636005633105f1a6605185876000612621565b9050805160001461197f57604051630e74990760e01b815260040160405180910390fd5b60606000806125998460200151612eea565b90506125a56002613009565b6125af9083615228565b8451519092506125be90613057565b6125c89083615228565b91506125d381613057565b6125dd9083615228565b915060006125ea8361220e565b90506125f781600261306f565b84515161260590829061307b565b61260f818361307b565b61261881612246565b95945050505050565b60606126346005607f60991b0184613094565b6000806005607f60991b0188868661264d576000612650565b60015b8a8a8e6040516020016126689695949392919061523b565b60408051601f198184030181529082905261268291614b07565b600060405180830381855af49150503d80600081146126bd576040519150601f19603f3d011682016040523d82523d6000602084013e6126c2565b606091505b5091509150816126e557604051638a7db5bf60e01b815260040160405180910390fd5b6126ee816130e2565b9998505050505050505050565b612703614212565b60606000808451111561272f5761271a84826131c5565b815191935091501561272f57611d638261337b565b505060408051600081830181815260608301909352918152602081019190915292915050565b6060600061276b836001600160401b0316613009565b905060006127788261220e565b905061278481856134ca565b611d6381612246565b60408051808201909152600080825260208201526000806127ae84826134d6565b92509050600281146127c2576127c261528a565b6127cc8483613552565b60079190910b845291506127e08483613552565b5060070b6020840152509092915050565b604080518082019091526060808252602082015260008061281284826134d6565b92509050600281146128265761282661528a565b61283084836131c5565b908452915061283f84836131c5565b506020840152509092915050565b61285561424a565b600080606061286485836134d6565b93509150600b82146128785761287861528a565b612882858461356c565b908552925061289185846137ba565b6001600160401b03909116602086015292506128ad8584613839565b901515604086015292506128c185846131c5565b935090506128ce816138d4565b60608501526128dd85846131c5565b935090506128ea816138d4565b60808501526128f98584613910565b60a0860191909152925061290d8584613552565b60079190910b60c086015292506129248584613552565b60079190910b60e08601529250606061293d86856131c5565b9450905061294a8161337b565b610100860152606061295c87866131c5565b955090506129698161337b565b610120870152606061297b88876131c5565b965090506129888161337b565b61014088015250949695505050505050565b612a1c6040805161018081018252606080825260006020808401829052838501829052828401839052608080850183905260a0850183905260c0850183905260e0850183905261010085018390526101208501849052610140850183905285519081018652838152908101829052938401819052908301529061016082015290565b6000828152600360209081526040918290208251808401909352805483526001015460ff161515908201819052612a905760405162461bcd60e51b815260206004820152601860248201527770726f706f73616c4964206e6f7420617661696c61626c6560401b604482015260640161036f565b6004816000015181548110612aa757612aa7614af1565b90600052602060002090600b020160405180610180016040529081600082018054612ad190614ab7565b80601f0160208091040260200160405190810160405280929190818152602001828054612afd90614ab7565b8015612b4a5780601f10612b1f57610100808354040283529160200191612b4a565b820191906000526020600020905b815481529060010190602001808311612b2d57829003601f168201915b505050918352505060018201546001600160401b0381166020830152600160401b900460ff1615156040820152600282018054606090920191612b8c90614ab7565b80601f0160208091040260200160405190810160405280929190818152602001828054612bb890614ab7565b8015612c055780601f10612bda57610100808354040283529160200191612c05565b820191906000526020600020905b815481529060010190602001808311612be857829003601f168201915b50505091835250506003820154600781810b6020840152600160401b909104810b60408301526004830154606083015260058301546080830152600683015460a08301528201805460c090920191612c5c90614ab7565b80601f0160208091040260200160405190810160405280929190818152602001828054612c8890614ab7565b8015612cd55780601f10612caa57610100808354040283529160200191612cd5565b820191906000526020600020905b815481529060010190602001808311612cb857829003601f168201915b505050918352505060088201546001600160401b03166020820152604080516080810182526009840180549290930192909182908290612d1490614ab7565b80601f0160208091040260200160405190810160405280929190818152602001828054612d4090614ab7565b8015612d8d5780601f10612d6257610100808354040283529160200191612d8d565b820191906000526020600020905b815481529060010190602001808311612d7057829003601f168201915b5050509183525050600191909101546001600160401b038116602083015260ff600160401b8204811615156040840152600160481b9091041615156060909101529052509392505050565b612de06142cd565b612deb6020836152a0565b15612e1357612dfb6020836152a0565b612e069060206152c2565b612e109083615228565b91505b602080840183905260405180855260008152908184010181811015612e3757600080fd5b604052509192915050565b8151612e519060e08317613aa1565b505050565b604080518082019091526060815260006020820152600080612e7884826134d6565b9250905060028114612e8c57612e8c61528a565b612e9684836131c5565b9084529150612ea584836137ba565b506001600160401b03166020840152509092915050565b60606000612ecd8360000151613057565b90506000612eda8261220e565b845190915061278490829061307b565b805151606090600090612efe906001615228565b6001600160401b03811115612f1557612f156143c2565b6040519080825280601f01601f191660200182016040528015612f3f576020820181803683370190505b509050826020015115156001151514612f59576000612f5f565b600160f81b5b81600081518110612f7257612f72614af1565b60200101906001600160f81b031916908160001a905350600160005b845151811015613000578451805182908110612fac57612fac614af1565b602001015160f81c60f81b838381518110612fc957612fc9614af1565b60200101906001600160f81b031916908160001a90535081612fea816152d5565b9250508080612ff8906152d5565b915050612f8e565b50909392505050565b60006017821161301b57506001919050565b60ff821161302b57506002919050565b61ffff821161303c57506003919050565b63ffffffff821161304f57506005919050565b506009919050565b600081516130658351613009565b61055a9190615228565b6112fa82600483613afd565b6130888260028351613b04565b8151612e519082613c1d565b47818110156130c057604051634787a10360e11b8152600481018290526024810183905260440161036f565b823f15158061197f5760405163064d954b60e41b815260040160405180910390fd5b60606000806000848060200190518101906130fd91906152ee565b919450925090506001600160401b0382166131375780511561313257604051630e74990760e01b815260040160405180910390fd5b6131a3565b6001600160401b0382166051148061315857506001600160401b0382166071145b1561317f57805160000361313257604051630e74990760e01b815260040160405180910390fd5b60405163f1f6bced60e01b81526001600160401b038316600482015260240161036f565b8215611d635760405163d4bb667160e01b81526004810184905260240161036f565b606060008060006131d68686613c38565b96509092506001600160401b0316905060ff8216600614806131fb575060ff82166002145b61325e5760405162461bcd60e51b815260206004820152602e60248201527f696e76616c6964206d616a20286578706563746564204d616a546167206f722060448201526d4d616a42797465537472696e672960901b606482015260840161036f565b60051960ff831601613297576132748686613c38565b96509092506001600160401b0316905060ff82166002146132975761329761528a565b60006132a38287615228565b90506000826001600160401b038111156132bf576132bf6143c2565b6040519080825280601f01601f1916602001820160405280156132e9576020820181803683370190505b5090506000875b8381101561335e5789818151811061330a5761330a614af1565b602001015160f81c60f81b83838151811061332757613327614af1565b60200101906001600160f81b031916908160001a90535081613348816152d5565b9250508080613356906152d5565b9150506132f0565b508161336a858a615228565b9650965050505050505b9250929050565b613383614212565b81516000036133b7575050604080516080810182526001918101918252600060608201819052918152602081019190915290565b6000600183516133c791906152c2565b6001600160401b038111156133de576133de6143c2565b6040519080825280601f01601f191660200182016040528015613408576020820181803683370190505b50905060008360008151811061342057613420614af1565b01602001516001600160f81b031916600160f81b0361343d575060015b60015b84518110156134af5784818151811061345b5761345b614af1565b01602001516001600160f81b031916836134766001846152c2565b8151811061348657613486614af1565b60200101906001600160f81b031916908160001a905350806134a7816152d5565b915050613440565b50604080518082019091529182521515602082015292915050565b6112fa82600083613b04565b6000806000806134e68686613c38565b96509092506001600160401b0316905060ff82166004146135495760405162461bcd60e51b815260206004820152601f60248201527f696e76616c6964206d616a20286578706563746564204d616a41727261792900604482015260640161036f565b95939450505050565b600080806135608585613e12565b90969095509350505050565b6135746142e7565b600080806135828686613c38565b96509092506001600160401b0316905060ff82166006146135f65760405162461bcd60e51b815260206004820152602860248201527f6578706563746564206d616a6f72207479706520746167207768656e207061726044820152671cda5b99c818da5960c21b606482015260840161036f565b602a81146136465760405162461bcd60e51b815260206004820181905260248201527f657870656374656420746167203432207768656e2070617273696e6720636964604482015260640161036f565b606061365287876131c5565b80975081925050508060008151811061366d5761366d614af1565b01602001516001600160f81b031916156136de5760405162461bcd60e51b815260206004820152602c60248201527f6578706563746564206669727374206279746520746f2062652030207768656e60448201526b081c185c9cda5b99c818da5960a21b606482015260840161036f565b6136e66142e7565b600182516136f491906152c2565b6001600160401b0381111561370b5761370b6143c2565b6040519080825280601f01601f191660200182016040528015613735576020820181803683370190505b50815260015b82518110156137ae5782818151811061375657613756614af1565b016020015182516001600160f81b0319909116906137756001846152c2565b8151811061378557613785614af1565b60200101906001600160f81b031916908160001a905350806137a6816152d5565b91505061373b565b50979596505050505050565b6000806000806137ca8686613c38565b96509092506001600160401b0316905060ff8216156135495760405162461bcd60e51b815260206004820152602560248201527f696e76616c6964206d616a20286578706563746564204d616a556e7369676e6560448201526464496e742960d81b606482015260840161036f565b6000806000806138498686613c38565b96509092506001600160401b0316905060ff82166007146138ac5760405162461bcd60e51b815260206004820152601f60248201527f696e76616c6964206d616a20286578706563746564204d616a4f746865722900604482015260640161036f565b60158114806138bb5750601481145b6138c7576138c761528a565b6014141595939450505050565b6138dc6142e7565b60408051602081019091528281526138f381613eaf565b61055a5760405163e6c4247b60e01b815260040160405180910390fd5b613918614212565b60008060006139278686613c38565b96509092506001600160401b0316905060ff82166002148061394c575060ff82166003145b6139b65760405162461bcd60e51b815260206004820152603560248201527f696e76616c6964206d616a20286578706563746564204d616a42797465537472604482015274696e67206f72204d616a54657874537472696e672960581b606482015260840161036f565b60006139c28287615228565b90506000826001600160401b038111156139de576139de6143c2565b6040519080825280601f01601f191660200182016040528015613a08576020820181803683370190505b5090506000875b83811015613a7d57898181518110613a2957613a29614af1565b602001015160f81c60f81b838381518110613a4657613a46614af1565b60200101906001600160f81b031916908160001a90535081613a67816152d5565b9250508080613a75906152d5565b915050613a0f565b506040805180820190915282815260ff8616600314602082015261336a858a615228565b613aa96142cd565b8251516000613ab9826001615228565b905084602001518210613ada57613ada85613ad583600261533d565b613fc5565b8451602083820101858153508051821115613af3578181525b5093949350505050565b612e518383835b6017816001600160401b031611613b2a57825161197f9060e0600585901b168317613aa1565b60ff816001600160401b031611613b6a578251613b52906018611fe0600586901b1617613aa1565b50825161197f906001600160401b0383166001613fdc565b61ffff816001600160401b031611613bab578251613b93906019611fe0600586901b1617613aa1565b50825161197f906001600160401b0383166002613fdc565b63ffffffff816001600160401b031611613bee578251613bd690601a611fe0600586901b1617613aa1565b50825161197f906001600160401b0383166004613fdc565b8251613c0590601b611fe0600586901b1617613aa1565b50825161197f906001600160401b0383166008613fdc565b613c256142cd565b613c3183838451614054565b9392505050565b600080600080613c488686614118565b9050613c55600186615228565b94506007600582901c16601f8216601c8110613cc15760405162461bcd60e51b815260206004820152602560248201527f63616e6e6f742068616e646c6520686561646572732077697468206578747261604482015264203e20323760d81b606482015260840161036f565b60188160ff161015613cdf5790945060ff169250849150613e0b9050565b8060ff16601803613d5b576000613cf68989614118565b9050613d03600189615228565b975060188160ff161015613d485760405162461bcd60e51b815260206004820152600c60248201526b34b73b30b634b21031b137b960a11b604482015260640161036f565b9195505060ff169250849150613e0b9050565b8060ff16601903613d95576000613d728989614167565b9050613d7f600289615228565b97509195505061ffff169250849150613e0b9050565b8060ff16601a03613dd1576000613dac89896141a0565b9050613db9600489615228565b97509195505063ffffffff169250849150613e0b9050565b8060ff16601b14613de457613de461528a565b6000613df089896141d9565b9050613dfd600889615228565b975091955090935085925050505b9250925092565b600080600080613e228686613c38565b96509092506001600160401b0316905060ff821660011480613e45575060ff8216155b6135495760405162461bcd60e51b815260206004820152603560248201527f696e76616c6964206d616a20286578706563746564204d616a5369676e6564496044820152746e74206f72204d616a556e7369676e6564496e742960581b606482015260840161036f565b60008160000151600081518110613ec857613ec8614af1565b01602001516001600160f81b031916600003613ee857505151600a101590565b81518051600090613efb57613efb614af1565b6020910101516001600160f81b031916600160f81b1480613f41575081518051600090613f2a57613f2a614af1565b6020910101516001600160f81b031916600160f91b145b15613f4f5750515160151490565b81518051600090613f6257613f62614af1565b01602001516001600160f81b031916600360f81b03613f845750515160311490565b81518051600090613f9757613f97614af1565b01602001516001600160f81b031916600160fa1b03613fba575051516040101590565b505151610100101590565b8151613fd18383612dd8565b5061197f8382613c1d565b613fe46142cd565b8351516000613ff38285615228565b905085602001518111156140105761401086613ad583600261533d565b6000600161402086610100615438565b61402a91906152c2565b90508651828101878319825116178152508051831115614048578281525b50959695505050505050565b61405c6142cd565b825182111561406a57600080fd5b83515160006140798483615228565b905085602001518111156140965761409686613ad583600261533d565b8551805183820160200191600091808511156140b0578482525b505050602086015b602086106140f057805182526140cf602083615228565b91506140dc602082615228565b90506140e96020876152c2565b95506140b8565b51815160001960208890036101000a0190811690199190911617905250849150509392505050565b6000614125826001615228565b835110156141455760405162461bcd60e51b815260040161036f90615444565b82828151811061415757614157614af1565b016020015160f81c905092915050565b6000614174826002615228565b835110156141945760405162461bcd60e51b815260040161036f90615444565b50016020015160f01c90565b60006141ad826004615228565b835110156141cd5760405162461bcd60e51b815260040161036f90615444565b50016020015160e01c90565b60006141e6826008615228565b835110156142065760405162461bcd60e51b815260040161036f90615444565b50016020015160c01c90565b60408051808201909152606081526000602082015290565b604051806040016040528061423d6142cd565b8152602001600081525090565b60405180610160016040528061425e6142e7565b815260006020820181905260408201526060016142796142e7565b81526020016142866142e7565b8152602001614293614212565b815260006020820181905260408201526060016142ae614212565b81526020016142bb614212565b81526020016142c8614212565b905290565b604051806040016040528060608152602001600081525090565b6040518060200160405280606081525090565b6001600160a01b038116811461430f57600080fd5b50565b6000806040838503121561432557600080fd5b8235614330816142fa565b946020939093013593505050565b60006020828403121561435057600080fd5b5035919050565b6000806040838503121561436a57600080fd5b82356001600160401b0381111561438057600080fd5b8301610180818603121561439357600080fd5b915060208301356143a3816142fa565b809150509250929050565b6001600160a01b0391909116815260200190565b634e487b7160e01b600052604160045260246000fd5b604051601f8201601f191681016001600160401b0381118282101715614400576144006143c2565b604052919050565b60006001600160401b03821115614421576144216143c2565b50601f01601f191660200190565b600082601f83011261444057600080fd5b813561445361444e82614408565b6143d8565b81815284602083860101111561446857600080fd5b816020850160208301376000918101602001919091529392505050565b60006020828403121561449757600080fd5b81356001600160401b038111156144ad57600080fd5b611d638482850161442f565b60005b838110156144d45781810151838201526020016144bc565b50506000910152565b600081518084526144f58160208601602086016144b9565b601f01601f19169290920160200192915050565b634e487b7160e01b600052602160045260246000fd5b868152851515602082015260c06040820152600061454060c08301876144dd565b905084151560608301526001600160401b03841660808301526005831061457757634e487b7160e01b600052602160045260246000fd5b8260a0830152979650505050505050565b6001600160401b038116811461430f57600080fd5b6000806000606084860312156145b257600080fd5b83356145bd81614588565b925060208401356145cd81614588565b915060408401356001600160401b038111156145e857600080fd5b6145f48682870161442f565b9150509250925092565b63ffffffff841681526001600160401b038316602082015260606040820152600061261860608301846144dd565b600081516080845261464160808501826144dd565b90506001600160401b0360208401511660208501526040830151151560408501526060830151151560608501528091505092915050565b6101808152600061468d61018083018f6144dd565b6001600160401b038e1660208401528c1515604084015282810360608401526146b6818d6144dd565b90506146c7608084018c60070b9052565b6146d660a084018b60070b9052565b8860c08401528760e0840152866101008401528281036101208401526146fc81876144dd565b6001600160401b0386166101408501529050828103610160840152614721818561462c565b9f9e505050505050505050505050505050565b60008060006060848603121561474957600080fd5b8335614754816142fa565b92506020840135614764816142fa565b91506040840135614774816142fa565b809150509250925092565b60008083601f84011261479157600080fd5b5081356001600160401b038111156147a857600080fd5b60208301915083602082850101111561337457600080fd5b60008060008060008060006080888a0312156147db57600080fd5b87356001600160401b03808211156147f257600080fd5b6147fe8b838c0161477f565b909950975060208a013591508082111561481757600080fd5b6148238b838c0161477f565b909750955060408a0135945060608a013591508082111561484357600080fd5b506148508a828b0161477f565b989b979a50959850939692959293505050565b8681526001600160a01b038616602082015260c06040820181905260009061488d908301876144dd565b828103606084015261489f81876144dd565b905082810360808401526148b381866144dd565b9150508260a0830152979650505050505050565b6020808252601b908201527a13db9b1e4818985cd94818dbdb9d1c9858dd0818d85b8818d85b1b602a1b604082015260600190565b600082601f83011261490d57600080fd5b815161491b61444e82614408565b81815284602083860101111561493057600080fd5b611d638260208301602087016144b9565b60006020828403121561495357600080fd5b81516001600160401b038082111561496a57600080fd5b908301906020828603121561497e57600080fd5b604051602081018181108382111715614999576149996143c2565b6040528251828111156149ab57600080fd5b6149b7878286016148fc565b82525095945050505050565b801515811461430f57600080fd5b6000602082840312156149e357600080fd5b81516001600160401b03808211156149fa57600080fd5b9083019060408286031215614a0e57600080fd5b604051604081018181108382111715614a2957614a296143c2565b604052825182811115614a3b57600080fd5b614a47878286016148fc565b82525060208301519250614a5a836149c3565b6020810192909252509392505050565b602081526000825160406020840152614a8660608401826144dd565b90506020840151151560408401528091505092915050565b600060208284031215614ab057600080fd5b5051919050565b600181811c90821680614acb57607f821691505b602082108103614aeb57634e487b7160e01b600052602260045260246000fd5b50919050565b634e487b7160e01b600052603260045260246000fd5b60008251614b198184602087016144b9565b9190910192915050565b6001600160a01b0383168152604060208201819052600090611d63908301846144dd565b6000808335601e19843603018112614b5e57600080fd5b8301803591506001600160401b03821115614b7857600080fd5b60200191503681900382131561337457600080fd5b8183823760009101908152919050565b606084901b6001600160601b0319168152818360148301376000910160140190815292915050565b601f821115612e5157600081815260208120601f850160051c81016020861015614bec5750805b601f850160051c820191505b81811015614c0b57828155600101614bf8565b505050505050565b600019600383901b1c191660019190911b1790565b6001600160401b03831115614c3f57614c3f6143c2565b614c5383614c4d8354614ab7565b83614bc5565b6000601f841160018114614c815760008515614c6f5750838201355b614c798682614c13565b845550610c67565b600083815260209020601f19861690835b82811015614cb25786850135825560209485019460019092019101614c92565b5086821015614ccf5760001960f88860031b161c19848701351681555b505060018560011b0183555050505050565b6000813561055a81614588565b6001600160401b0382166001600160401b03198254161781555050565b6000813561055a816149c3565b600081358060070b811461055a57600080fd5b60008235607e19833603018112614b1957600080fd5b614d4b8283614b47565b6001600160401b03811115614d6257614d626143c2565b614d7681614d708554614ab7565b85614bc5565b6000601f821160018114614da45760008315614d925750838201355b614d9c8482614c13565b865550614dfe565b600085815260209020601f19841690835b82811015614dd55786850135825560209485019460019092019101614db5565b5084821015614df25760001960f88660031b161c19848701351681555b505060018360011b0185555b5050505060018101614e1b614e1560208501614ce1565b82614cee565b614e48614e2a60408501614d0b565b82805460ff60401b191691151560401b60ff60401b16919091179055565b612e51614e5760608501614d0b565b82805460ff60481b191691151560481b60ff60481b16919091179055565b614e7f8283614b47565b614e8a818385614c28565b505060018101614e9f614e1560208501614ce1565b614eae614e2a60408501614d0b565b50614ebc6060830183614b47565b614eca818360028601614c28565b505060038101614efd614edf60808501614d18565b825467ffffffffffffffff19166001600160401b0391909116178255565b614f36614f0c60a08501614d18565b825460409190911b67ffffffffffffffff60401b1667ffffffffffffffff60401b19909116178255565b5060c0820135600482015560e082013560058201556101008201356006820155614f64610120830183614b47565b614f72818360078601614c28565b5050614f8d614f846101408401614ce1565b60088301614cee565b6112fa614f9e610160840184614d2b565b60098301614d41565b81516001600160401b03811115614fc057614fc06143c2565b614fd481614fce8454614ab7565b84614bc5565b602080601f8311600181146150035760008415614ff15750858301515b614ffb8582614c13565b865550614c0b565b600085815260208120601f198616915b8281101561503257888601518255948401946001909101908401615013565b50858210156150505787850151600019600388901b60f8161c191681555b5050505050600190811b01905550565b60006020828403121561507257600080fd5b8135613c31816149c3565b60006020828403121561508f57600080fd5b8135613c3181614588565b60208082526027908201527f6d73672e73656e646572206e6565647320746f206265206d61726b6574206163604082015266746f722066303560c81b606082015260800190565b6020808252602a908201527f706965636520636964206d757374206265206164646564206265666f726520616040820152697574686f72697a696e6760b01b606082015260800190565b6020808252603b908201527f6465616c206661696c656420706f6c69637920636865636b3a2070726f76696460408201527a195c88185b1c9958591e4818db185a5b5959081d1a1a5cc818da59602a1b606082015260800190565b6000806040838503121561519957600080fd5b8251915060208301516143a3816149c3565b60208082526041908201527f49737375657320636f6e76657274696e672075696e7432353620746f2042696760408201527f496e742c206d6179206e6f7420686176652061636375726174652076616c75656060820152607360f81b608082015260a00190565b634e487b7160e01b600052601160045260246000fd5b8082018082111561055a5761055a615212565b60006001600160401b0380891683528760208401528087166040840152808616606084015260c0608084015261527460c08401866144dd565b915080841660a084015250979650505050505050565b634e487b7160e01b600052600160045260246000fd5b6000826152bd57634e487b7160e01b600052601260045260246000fd5b500690565b8181038181111561055a5761055a615212565b6000600182016152e7576152e7615212565b5060010190565b60008060006060848603121561530357600080fd5b83519250602084015161531581614588565b60408501519092506001600160401b0381111561533157600080fd5b6145f4868287016148fc565b808202811582820484141761055a5761055a615212565b600181815b8085111561538f57816000190482111561537557615375615212565b8085161561538257918102915b93841c9390800290615359565b509250929050565b6000826153a65750600161055a565b816153b35750600061055a565b81600181146153c957600281146153d3576153ef565b600191505061055a565b60ff8411156153e4576153e4615212565b50506001821b61055a565b5060208310610133831016604e8410600b8410161715615412575081810a61055a565b61541c8383615354565b806000190482111561543057615430615212565b029392505050565b6000613c318383615397565b602080825260149082015273736c6963696e67206f7574206f662072616e676560601b60408201526060019056fea2646970667358221220a04af7c3f7c086ccd2fc84c69218c62ee05a590e4dfd773e4f1d6355560905c264736f6c63430008120033",
			"opcodes": "PUSH1 0x80 PUSH1 0x40 MSTORE CALLVALUE DUP1 ISZERO PUSH2 0x10 JUMPI PUSH1 0x0 DUP1 REVERT JUMPDEST POP PUSH2 0x54A8 DUP1 PUSH2 0x20 PUSH1 0x0 CODECOPY PUSH1 0x0 RETURN INVALID PUSH1 0x80 PUSH1 0x40 MSTORE PUSH1 0x4 CALLDATASIZE LT PUSH2 0xC3 JUMPI PUSH1 0x0 CALLDATALOAD PUSH1 0xE0 SHR DUP1 PUSH4 0xCF20CC9 EQ PUSH2 0xC8 JUMPI DUP1 PUSH4 0x10C88E74 EQ PUSH2 0xFB JUMPI DUP1 PUSH4 0x1ADF7EB1 EQ PUSH2 0x110 JUMPI DUP1 PUSH4 0x48474F56 EQ PUSH2 0x15C JUMPI DUP1 PUSH4 0x5001F3B5 EQ PUSH2 0x17C JUMPI DUP1 PUSH4 0x5A29638D EQ PUSH2 0x1A9 JUMPI DUP1 PUSH4 0x617FBB9E EQ PUSH2 0x1C9 JUMPI DUP1 PUSH4 0x66263735 EQ PUSH2 0x1FB JUMPI DUP1 PUSH4 0x868E10C4 EQ PUSH2 0x21B JUMPI DUP1 PUSH4 0xB163CC38 EQ PUSH2 0x24A JUMPI DUP1 PUSH4 0xBAD79DE9 EQ PUSH2 0x252 JUMPI DUP1 PUSH4 0xC0C53B8B EQ PUSH2 0x28A JUMPI DUP1 PUSH4 0xC529EAE3 EQ PUSH2 0x2AA JUMPI DUP1 PUSH4 0xC6620DB3 EQ PUSH2 0x2CA JUMPI DUP1 PUSH4 0xE243C5FB EQ PUSH2 0x2EA JUMPI DUP1 PUSH4 0xE4BE98F2 EQ PUSH2 0x310 JUMPI JUMPDEST PUSH1 0x0 DUP1 REVERT JUMPDEST CALLVALUE DUP1 ISZERO PUSH2 0xD4 JUMPI PUSH1 0x0 DUP1 REVERT JUMPDEST POP PUSH2 0xE8 PUSH2 0xE3 CALLDATASIZE PUSH1 0x4 PUSH2 0x4312 JUMP JUMPDEST PUSH2 0x342 JUMP JUMPDEST PUSH1 0x40 MLOAD SWAP1 DUP2 MSTORE PUSH1 0x20 ADD JUMPDEST PUSH1 0x40 MLOAD DUP1 SWAP2 SUB SWAP1 RETURN JUMPDEST PUSH2 0x10E PUSH2 0x109 CALLDATASIZE PUSH1 0x4 PUSH2 0x433E JUMP JUMPDEST PUSH2 0x560 JUMP JUMPDEST STOP JUMPDEST CALLVALUE DUP1 ISZERO PUSH2 0x11C JUMPI PUSH1 0x0 DUP1 REVERT JUMPDEST POP PUSH2 0x147 PUSH2 0x12B CALLDATASIZE PUSH1 0x4 PUSH2 0x433E JUMP JUMPDEST PUSH1 0x3 PUSH1 0x20 MSTORE PUSH1 0x0 SWAP1 DUP2 MSTORE PUSH1 0x40 SWAP1 KECCAK256 DUP1 SLOAD PUSH1 0x1 SWAP1 SWAP2 ADD SLOAD PUSH1 0xFF AND DUP3 JUMP JUMPDEST PUSH1 0x40 DUP1 MLOAD SWAP3 DUP4 MSTORE SWAP1 ISZERO ISZERO PUSH1 0x20 DUP4 ADD MSTORE ADD PUSH2 0xF2 JUMP JUMPDEST CALLVALUE DUP1 ISZERO PUSH2 0x168 JUMPI PUSH1 0x0 DUP1 REVERT JUMPDEST POP PUSH2 0xE8 PUSH2 0x177 CALLDATASIZE PUSH1 0x4 PUSH2 0x4357 JUMP JUMPDEST PUSH2 0xC6E JUMP JUMPDEST CALLVALUE DUP1 ISZERO PUSH2 0x188 JUMPI PUSH1 0x0 DUP1 REVERT JUMPDEST POP PUSH1 0x2 SLOAD PUSH2 0x19C SWAP1 PUSH1 0x1 PUSH1 0x1 PUSH1 0xA0 SHL SUB AND DUP2 JUMP JUMPDEST PUSH1 0x40 MLOAD PUSH2 0xF2 SWAP2 SWAP1 PUSH2 0x43AE JUMP JUMPDEST CALLVALUE DUP1 ISZERO PUSH2 0x1B5 JUMPI PUSH1 0x0 DUP1 REVERT JUMPDEST POP PUSH1 0x1 SLOAD PUSH2 0x19C SWAP1 PUSH1 0x1 PUSH1 0x1 PUSH1 0xA0 SHL SUB AND DUP2 JUMP JUMPDEST CALLVALUE DUP1 ISZERO PUSH2 0x1D5 JUMPI PUSH1 0x0 DUP1 REVERT JUMPDEST POP PUSH2 0x1E9 PUSH2 0x1E4 CALLDATASIZE PUSH1 0x4 PUSH2 0x4485 JUMP JUMPDEST PUSH2 0x10EA JUMP JUMPDEST PUSH1 0x40 MLOAD PUSH2 0xF2 SWAP7 SWAP6 SWAP5 SWAP4 SWAP3 SWAP2 SWAP1 PUSH2 0x451F JUMP JUMPDEST CALLVALUE DUP1 ISZERO PUSH2 0x207 JUMPI PUSH1 0x0 DUP1 REVERT JUMPDEST POP PUSH2 0x10E PUSH2 0x216 CALLDATASIZE PUSH1 0x4 PUSH2 0x4485 JUMP JUMPDEST PUSH2 0x11C8 JUMP JUMPDEST CALLVALUE DUP1 ISZERO PUSH2 0x227 JUMPI PUSH1 0x0 DUP1 REVERT JUMPDEST POP PUSH2 0x23B PUSH2 0x236 CALLDATASIZE PUSH1 0x4 PUSH2 0x459D JUMP JUMPDEST PUSH2 0x12FE JUMP JUMPDEST PUSH1 0x40 MLOAD PUSH2 0xF2 SWAP4 SWAP3 SWAP2 SWAP1 PUSH2 0x45FE JUMP JUMPDEST PUSH2 0x10E PUSH2 0x1499 JUMP JUMPDEST CALLVALUE DUP1 ISZERO PUSH2 0x25E JUMPI PUSH1 0x0 DUP1 REVERT JUMPDEST POP PUSH2 0x272 PUSH2 0x26D CALLDATASIZE PUSH1 0x4 PUSH2 0x433E JUMP JUMPDEST PUSH2 0x1518 JUMP JUMPDEST PUSH1 0x40 MLOAD PUSH2 0xF2 SWAP13 SWAP12 SWAP11 SWAP10 SWAP9 SWAP8 SWAP7 SWAP6 SWAP5 SWAP4 SWAP3 SWAP2 SWAP1 PUSH2 0x4678 JUMP JUMPDEST CALLVALUE DUP1 ISZERO PUSH2 0x296 JUMPI PUSH1 0x0 DUP1 REVERT JUMPDEST POP PUSH2 0x10E PUSH2 0x2A5 CALLDATASIZE PUSH1 0x4 PUSH2 0x4734 JUMP JUMPDEST PUSH2 0x1828 JUMP JUMPDEST CALLVALUE DUP1 ISZERO PUSH2 0x2B6 JUMPI PUSH1 0x0 DUP1 REVERT JUMPDEST POP PUSH2 0x10E PUSH2 0x2C5 CALLDATASIZE PUSH1 0x4 PUSH2 0x47C0 JUMP JUMPDEST PUSH2 0x1985 JUMP JUMPDEST CALLVALUE DUP1 ISZERO PUSH2 0x2D6 JUMPI PUSH1 0x0 DUP1 REVERT JUMPDEST POP PUSH2 0xE8 PUSH2 0x2E5 CALLDATASIZE PUSH1 0x4 PUSH2 0x433E JUMP JUMPDEST PUSH2 0x1B34 JUMP JUMPDEST CALLVALUE DUP1 ISZERO PUSH2 0x2F6 JUMPI PUSH1 0x0 DUP1 REVERT JUMPDEST POP PUSH1 0x0 SLOAD PUSH2 0x19C SWAP1 PUSH3 0x10000 SWAP1 DIV PUSH1 0x1 PUSH1 0x1 PUSH1 0xA0 SHL SUB AND DUP2 JUMP JUMPDEST CALLVALUE DUP1 ISZERO PUSH2 0x31C JUMPI PUSH1 0x0 DUP1 REVERT JUMPDEST POP PUSH2 0x330 PUSH2 0x32B CALLDATASIZE PUSH1 0x4 PUSH2 0x433E JUMP JUMPDEST PUSH2 0x1B55 JUMP JUMPDEST PUSH1 0x40 MLOAD PUSH2 0xF2 SWAP7 SWAP6 SWAP5 SWAP4 SWAP3 SWAP2 SWAP1 PUSH2 0x4863 JUMP JUMPDEST PUSH1 0x2 SLOAD PUSH1 0x0 SWAP1 PUSH1 0x1 PUSH1 0x1 PUSH1 0xA0 SHL SUB AND CALLER EQ PUSH2 0x378 JUMPI PUSH1 0x40 MLOAD PUSH3 0x461BCD PUSH1 0xE5 SHL DUP2 MSTORE PUSH1 0x4 ADD PUSH2 0x36F SWAP1 PUSH2 0x48C7 JUMP JUMPDEST PUSH1 0x40 MLOAD DUP1 SWAP2 SUB SWAP1 REVERT JUMPDEST PUSH1 0x40 DUP1 MLOAD DUP1 DUP3 ADD SWAP2 DUP3 SWAP1 MSTORE PUSH1 0x1 SLOAD PUSH4 0x119CE18D PUSH1 0xE3 SHL SWAP1 SWAP3 MSTORE PUSH1 0x0 SWAP2 DUP2 SWAP1 PUSH1 0x1 PUSH1 0x1 PUSH1 0xA0 SHL SUB AND PUSH4 0x8CE70C68 PUSH2 0x3B1 DUP9 PUSH1 0x44 DUP6 ADD PUSH2 0x43AE JUMP JUMPDEST PUSH1 0x0 PUSH1 0x40 MLOAD DUP1 DUP4 SUB DUP2 DUP7 GAS STATICCALL ISZERO DUP1 ISZERO PUSH2 0x3CE JUMPI RETURNDATASIZE PUSH1 0x0 DUP1 RETURNDATACOPY RETURNDATASIZE PUSH1 0x0 REVERT JUMPDEST POP POP POP POP PUSH1 0x40 MLOAD RETURNDATASIZE PUSH1 0x0 DUP3 RETURNDATACOPY PUSH1 0x1F RETURNDATASIZE SWAP1 DUP2 ADD PUSH1 0x1F NOT AND DUP3 ADD PUSH1 0x40 MSTORE PUSH2 0x3F6 SWAP2 SWAP1 DUP2 ADD SWAP1 PUSH2 0x4941 JUMP JUMPDEST DUP2 MSTORE PUSH1 0x1 SLOAD PUSH1 0x40 MLOAD PUSH4 0x6F038971 PUSH1 0xE0 SHL DUP2 MSTORE PUSH1 0x4 DUP2 ADD DUP8 SWAP1 MSTORE PUSH1 0x20 SWAP1 SWAP3 ADD SWAP2 PUSH1 0x1 PUSH1 0x1 PUSH1 0xA0 SHL SUB SWAP1 SWAP2 AND SWAP1 PUSH4 0x6F038971 SWAP1 PUSH1 0x24 ADD PUSH1 0x0 PUSH1 0x40 MLOAD DUP1 DUP4 SUB DUP2 DUP7 GAS STATICCALL ISZERO DUP1 ISZERO PUSH2 0x447 JUMPI RETURNDATASIZE PUSH1 0x0 DUP1 RETURNDATACOPY RETURNDATASIZE PUSH1 0x0 REVERT JUMPDEST POP POP POP POP PUSH1 0x40 MLOAD RETURNDATASIZE PUSH1 0x0 DUP3 RETURNDATACOPY PUSH1 0x1F RETURNDATASIZE SWAP1 DUP2 ADD PUSH1 0x1F NOT AND DUP3 ADD PUSH1 0x40 MSTORE PUSH2 0x46F SWAP2 SWAP1 DUP2 ADD SWAP1 PUSH2 0x49D1 JUMP JUMPDEST SWAP1 MSTORE SWAP1 POP PUSH1 0x0 PUSH2 0x47E DUP3 PUSH2 0x1D2C JUMP JUMPDEST PUSH1 0x2 SLOAD PUSH1 0x40 MLOAD SWAP2 SWAP3 POP PUSH1 0x0 SWAP2 PUSH1 0x1 PUSH1 0x1 PUSH1 0xA0 SHL SUB SWAP1 SWAP2 AND SWAP1 DUP7 SWAP1 DUP4 DUP2 DUP2 DUP2 DUP6 DUP8 GAS CALL SWAP3 POP POP POP RETURNDATASIZE DUP1 PUSH1 0x0 DUP2 EQ PUSH2 0x4D0 JUMPI PUSH1 0x40 MLOAD SWAP2 POP PUSH1 0x1F NOT PUSH1 0x3F RETURNDATASIZE ADD AND DUP3 ADD PUSH1 0x40 MSTORE RETURNDATASIZE DUP3 MSTORE RETURNDATASIZE PUSH1 0x0 PUSH1 0x20 DUP5 ADD RETURNDATACOPY PUSH2 0x4D5 JUMP JUMPDEST PUSH1 0x60 SWAP2 POP JUMPDEST POP POP SWAP1 POP DUP1 PUSH2 0x4E3 JUMPI PUSH1 0x0 DUP1 REVERT JUMPDEST PUSH1 0x1 SLOAD PUSH1 0x40 MLOAD PUSH4 0x441E1399 PUSH1 0xE1 SHL DUP2 MSTORE PUSH1 0x1 PUSH1 0x1 PUSH1 0xA0 SHL SUB SWAP1 SWAP2 AND SWAP1 PUSH4 0x883C2732 SWAP1 PUSH2 0x513 SWAP1 DUP6 SWAP1 PUSH1 0x4 ADD PUSH2 0x4A6A JUMP JUMPDEST PUSH1 0x20 PUSH1 0x40 MLOAD DUP1 DUP4 SUB DUP2 DUP7 GAS STATICCALL ISZERO DUP1 ISZERO PUSH2 0x530 JUMPI RETURNDATASIZE PUSH1 0x0 DUP1 RETURNDATACOPY RETURNDATASIZE PUSH1 0x0 REVERT JUMPDEST POP POP POP POP PUSH1 0x40 MLOAD RETURNDATASIZE PUSH1 0x1F NOT PUSH1 0x1F DUP3 ADD AND DUP3 ADD DUP1 PUSH1 0x40 MSTORE POP DUP2 ADD SWAP1 PUSH2 0x554 SWAP2 SWAP1 PUSH2 0x4A9E JUMP JUMPDEST SWAP4 POP POP POP POP JUMPDEST SWAP3 SWAP2 POP POP JUMP JUMPDEST PUSH1 0x0 DUP2 DUP2 MSTORE PUSH1 0x6 PUSH1 0x20 SWAP1 DUP2 MSTORE PUSH1 0x40 DUP1 DUP4 KECCAK256 DUP2 MLOAD PUSH1 0xC0 DUP2 ADD DUP4 MSTORE DUP2 SLOAD DUP2 MSTORE PUSH1 0x1 DUP3 ADD SLOAD PUSH1 0x1 PUSH1 0x1 PUSH1 0xA0 SHL SUB AND SWAP4 DUP2 ADD SWAP4 SWAP1 SWAP4 MSTORE PUSH1 0x2 DUP2 ADD DUP1 SLOAD SWAP2 SWAP3 DUP5 ADD SWAP2 PUSH2 0x5A6 SWAP1 PUSH2 0x4AB7 JUMP JUMPDEST DUP1 PUSH1 0x1F ADD PUSH1 0x20 DUP1 SWAP2 DIV MUL PUSH1 0x20 ADD PUSH1 0x40 MLOAD SWAP1 DUP2 ADD PUSH1 0x40 MSTORE DUP1 SWAP3 SWAP2 SWAP1 DUP2 DUP2 MSTORE PUSH1 0x20 ADD DUP3 DUP1 SLOAD PUSH2 0x5D2 SWAP1 PUSH2 0x4AB7 JUMP JUMPDEST DUP1 ISZERO PUSH2 0x61F JUMPI DUP1 PUSH1 0x1F LT PUSH2 0x5F4 JUMPI PUSH2 0x100 DUP1 DUP4 SLOAD DIV MUL DUP4 MSTORE SWAP2 PUSH1 0x20 ADD SWAP2 PUSH2 0x61F JUMP JUMPDEST DUP3 ADD SWAP2 SWAP1 PUSH1 0x0 MSTORE PUSH1 0x20 PUSH1 0x0 KECCAK256 SWAP1 JUMPDEST DUP2 SLOAD DUP2 MSTORE SWAP1 PUSH1 0x1 ADD SWAP1 PUSH1 0x20 ADD DUP1 DUP4 GT PUSH2 0x602 JUMPI DUP3 SWAP1 SUB PUSH1 0x1F AND DUP3 ADD SWAP2 JUMPDEST POP POP POP POP POP DUP2 MSTORE PUSH1 0x20 ADD PUSH1 0x3 DUP3 ADD DUP1 SLOAD PUSH2 0x638 SWAP1 PUSH2 0x4AB7 JUMP JUMPDEST DUP1 PUSH1 0x1F ADD PUSH1 0x20 DUP1 SWAP2 DIV MUL PUSH1 0x20 ADD PUSH1 0x40 MLOAD SWAP1 DUP2 ADD PUSH1 0x40 MSTORE DUP1 SWAP3 SWAP2 SWAP1 DUP2 DUP2 MSTORE PUSH1 0x20 ADD DUP3 DUP1 SLOAD PUSH2 0x664 SWAP1 PUSH2 0x4AB7 JUMP JUMPDEST DUP1 ISZERO PUSH2 0x6B1 JUMPI DUP1 PUSH1 0x1F LT PUSH2 0x686 JUMPI PUSH2 0x100 DUP1 DUP4 SLOAD DIV MUL DUP4 MSTORE SWAP2 PUSH1 0x20 ADD SWAP2 PUSH2 0x6B1 JUMP JUMPDEST DUP3 ADD SWAP2 SWAP1 PUSH1 0x0 MSTORE PUSH1 0x20 PUSH1 0x0 KECCAK256 SWAP1 JUMPDEST DUP2 SLOAD DUP2 MSTORE SWAP1 PUSH1 0x1 ADD SWAP1 PUSH1 0x20 ADD DUP1 DUP4 GT PUSH2 0x694 JUMPI DUP3 SWAP1 SUB PUSH1 0x1F AND DUP3 ADD SWAP2 JUMPDEST POP POP POP POP POP DUP2 MSTORE PUSH1 0x20 ADD PUSH1 0x4 DUP3 ADD DUP1 SLOAD PUSH2 0x6CA SWAP1 PUSH2 0x4AB7 JUMP JUMPDEST DUP1 PUSH1 0x1F ADD PUSH1 0x20 DUP1 SWAP2 DIV MUL PUSH1 0x20 ADD PUSH1 0x40 MLOAD SWAP1 DUP2 ADD PUSH1 0x40 MSTORE DUP1 SWAP3 SWAP2 SWAP1 DUP2 DUP2 MSTORE PUSH1 0x20 ADD DUP3 DUP1 SLOAD PUSH2 0x6F6 SWAP1 PUSH2 0x4AB7 JUMP JUMPDEST DUP1 ISZERO PUSH2 0x743 JUMPI DUP1 PUSH1 0x1F LT PUSH2 0x718 JUMPI PUSH2 0x100 DUP1 DUP4 SLOAD DIV MUL DUP4 MSTORE SWAP2 PUSH1 0x20 ADD SWAP2 PUSH2 0x743 JUMP JUMPDEST DUP3 ADD SWAP2 SWAP1 PUSH1 0x0 MSTORE PUSH1 0x20 PUSH1 0x0 KECCAK256 SWAP1 JUMPDEST DUP2 SLOAD DUP2 MSTORE SWAP1 PUSH1 0x1 ADD SWAP1 PUSH1 0x20 ADD DUP1 DUP4 GT PUSH2 0x726 JUMPI DUP3 SWAP1 SUB PUSH1 0x1F AND DUP3 ADD SWAP2 JUMPDEST POP POP POP POP POP DUP2 MSTORE PUSH1 0x20 ADD PUSH1 0x5 DUP3 ADD SLOAD DUP2 MSTORE POP POP SWAP1 POP DUP2 DUP2 PUSH1 0x0 ADD MLOAD EQ PUSH2 0x7A5 JUMPI PUSH1 0x40 MLOAD PUSH3 0x461BCD PUSH1 0xE5 SHL DUP2 MSTORE PUSH1 0x20 PUSH1 0x4 DUP3 ADD MSTORE PUSH1 0x17 PUSH1 0x24 DUP3 ADD MSTORE PUSH23 0x141C9BDC1BDCD85B08191BD95CC81B9BDD08195E1A5CDD PUSH1 0x4A SHL PUSH1 0x44 DUP3 ADD MSTORE PUSH1 0x64 ADD PUSH2 0x36F JUMP JUMPDEST DUP1 PUSH1 0xA0 ADD MLOAD CALLVALUE EQ PUSH2 0x7EE JUMPI PUSH1 0x40 MLOAD PUSH3 0x461BCD PUSH1 0xE5 SHL DUP2 MSTORE PUSH1 0x20 PUSH1 0x4 DUP3 ADD MSTORE PUSH1 0x13 PUSH1 0x24 DUP3 ADD MSTORE PUSH19 0x125B9D985B1A5908185B5BDD5B9D081CD95B9D PUSH1 0x6A SHL PUSH1 0x44 DUP3 ADD MSTORE PUSH1 0x64 ADD PUSH2 0x36F JUMP JUMPDEST PUSH1 0x0 DUP3 DUP2 MSTORE PUSH1 0x3 PUSH1 0x20 SWAP1 DUP2 MSTORE PUSH1 0x40 DUP1 DUP4 KECCAK256 DUP2 MLOAD DUP1 DUP4 ADD SWAP1 SWAP3 MSTORE DUP1 SLOAD DUP1 DUP4 MSTORE PUSH1 0x1 SWAP1 SWAP2 ADD SLOAD PUSH1 0xFF AND ISZERO ISZERO SWAP3 DUP3 ADD SWAP3 SWAP1 SWAP3 MSTORE PUSH1 0x4 DUP1 SLOAD SWAP2 SWAP4 SWAP3 SWAP1 SWAP2 DUP2 LT PUSH2 0x835 JUMPI PUSH2 0x835 PUSH2 0x4AF1 JUMP JUMPDEST SWAP1 PUSH1 0x0 MSTORE PUSH1 0x20 PUSH1 0x0 KECCAK256 SWAP1 PUSH1 0xB MUL ADD PUSH1 0x40 MLOAD DUP1 PUSH2 0x180 ADD PUSH1 0x40 MSTORE SWAP1 DUP2 PUSH1 0x0 DUP3 ADD DUP1 SLOAD PUSH2 0x85F SWAP1 PUSH2 0x4AB7 JUMP JUMPDEST DUP1 PUSH1 0x1F ADD PUSH1 0x20 DUP1 SWAP2 DIV MUL PUSH1 0x20 ADD PUSH1 0x40 MLOAD SWAP1 DUP2 ADD PUSH1 0x40 MSTORE DUP1 SWAP3 SWAP2 SWAP1 DUP2 DUP2 MSTORE PUSH1 0x20 ADD DUP3 DUP1 SLOAD PUSH2 0x88B SWAP1 PUSH2 0x4AB7 JUMP JUMPDEST DUP1 ISZERO PUSH2 0x8D8 JUMPI DUP1 PUSH1 0x1F LT PUSH2 0x8AD JUMPI PUSH2 0x100 DUP1 DUP4 SLOAD DIV MUL DUP4 MSTORE SWAP2 PUSH1 0x20 ADD SWAP2 PUSH2 0x8D8 JUMP JUMPDEST DUP3 ADD SWAP2 SWAP1 PUSH1 0x0 MSTORE PUSH1 0x20 PUSH1 0x0 KECCAK256 SWAP1 JUMPDEST DUP2 SLOAD DUP2 MSTORE SWAP1 PUSH1 0x1 ADD SWAP1 PUSH1 0x20 ADD DUP1 DUP4 GT PUSH2 0x8BB JUMPI DUP3 SWAP1 SUB PUSH1 0x1F AND DUP3 ADD SWAP2 JUMPDEST POP POP POP SWAP2 DUP4 MSTORE POP POP PUSH1 0x1 DUP3 ADD SLOAD PUSH1 0x1 PUSH1 0x1 PUSH1 0x40 SHL SUB DUP2 AND PUSH1 0x20 DUP4 ADD MSTORE PUSH1 0x1 PUSH1 0x40 SHL SWAP1 DIV PUSH1 0xFF AND ISZERO ISZERO PUSH1 0x40 DUP3 ADD MSTORE PUSH1 0x2 DUP3 ADD DUP1 SLOAD PUSH1 0x60 SWAP1 SWAP3 ADD SWAP2 PUSH2 0x91A SWAP1 PUSH2 0x4AB7 JUMP JUMPDEST DUP1 PUSH1 0x1F ADD PUSH1 0x20 DUP1 SWAP2 DIV MUL PUSH1 0x20 ADD PUSH1 0x40 MLOAD SWAP1 DUP2 ADD PUSH1 0x40 MSTORE DUP1 SWAP3 SWAP2 SWAP1 DUP2 DUP2 MSTORE PUSH1 0x20 ADD DUP3 DUP1 SLOAD PUSH2 0x946 SWAP1 PUSH2 0x4AB7 JUMP JUMPDEST DUP1 ISZERO PUSH2 0x993 JUMPI DUP1 PUSH1 0x1F LT PUSH2 0x968 JUMPI PUSH2 0x100 DUP1 DUP4 SLOAD DIV MUL DUP4 MSTORE SWAP2 PUSH1 0x20 ADD SWAP2 PUSH2 0x993 JUMP JUMPDEST DUP3 ADD SWAP2 SWAP1 PUSH1 0x0 MSTORE PUSH1 0x20 PUSH1 0x0 KECCAK256 SWAP1 JUMPDEST DUP2 SLOAD DUP2 MSTORE SWAP1 PUSH1 0x1 ADD SWAP1 PUSH1 0x20 ADD DUP1 DUP4 GT PUSH2 0x976 JUMPI DUP3 SWAP1 SUB PUSH1 0x1F AND DUP3 ADD SWAP2 JUMPDEST POP POP POP SWAP2 DUP4 MSTORE POP POP PUSH1 0x3 DUP3 ADD SLOAD PUSH1 0x7 DUP2 DUP2 SIGNEXTEND PUSH1 0x20 DUP5 ADD MSTORE PUSH1 0x1 PUSH1 0x40 SHL SWAP1 SWAP2 DIV DUP2 SIGNEXTEND PUSH1 0x40 DUP4 ADD MSTORE PUSH1 0x4 DUP4 ADD SLOAD PUSH1 0x60 DUP4 ADD MSTORE PUSH1 0x5 DUP4 ADD SLOAD PUSH1 0x80 DUP4 ADD MSTORE PUSH1 0x6 DUP4 ADD SLOAD PUSH1 0xA0 DUP4 ADD MSTORE DUP3 ADD DUP1 SLOAD PUSH1 0xC0 SWAP1 SWAP3 ADD SWAP2 PUSH2 0x9EA SWAP1 PUSH2 0x4AB7 JUMP JUMPDEST DUP1 PUSH1 0x1F ADD PUSH1 0x20 DUP1 SWAP2 DIV MUL PUSH1 0x20 ADD PUSH1 0x40 MLOAD SWAP1 DUP2 ADD PUSH1 0x40 MSTORE DUP1 SWAP3 SWAP2 SWAP1 DUP2 DUP2 MSTORE PUSH1 0x20 ADD DUP3 DUP1 SLOAD PUSH2 0xA16 SWAP1 PUSH2 0x4AB7 JUMP JUMPDEST DUP1 ISZERO PUSH2 0xA63 JUMPI DUP1 PUSH1 0x1F LT PUSH2 0xA38 JUMPI PUSH2 0x100 DUP1 DUP4 SLOAD DIV MUL DUP4 MSTORE SWAP2 PUSH1 0x20 ADD SWAP2 PUSH2 0xA63 JUMP JUMPDEST DUP3 ADD SWAP2 SWAP1 PUSH1 0x0 MSTORE PUSH1 0x20 PUSH1 0x0 KECCAK256 SWAP1 JUMPDEST DUP2 SLOAD DUP2 MSTORE SWAP1 PUSH1 0x1 ADD SWAP1 PUSH1 0x20 ADD DUP1 DUP4 GT PUSH2 0xA46 JUMPI DUP3 SWAP1 SUB PUSH1 0x1F AND DUP3 ADD SWAP2 JUMPDEST POP POP POP SWAP2 DUP4 MSTORE POP POP PUSH1 0x8 DUP3 ADD SLOAD PUSH1 0x1 PUSH1 0x1 PUSH1 0x40 SHL SUB AND PUSH1 0x20 DUP3 ADD MSTORE PUSH1 0x40 DUP1 MLOAD PUSH1 0x80 DUP2 ADD DUP3 MSTORE PUSH1 0x9 DUP5 ADD DUP1 SLOAD SWAP3 SWAP1 SWAP4 ADD SWAP3 SWAP1 SWAP2 DUP3 SWAP1 DUP3 SWAP1 PUSH2 0xAA2 SWAP1 PUSH2 0x4AB7 JUMP JUMPDEST DUP1 PUSH1 0x1F ADD PUSH1 0x20 DUP1 SWAP2 DIV MUL PUSH1 0x20 ADD PUSH1 0x40 MLOAD SWAP1 DUP2 ADD PUSH1 0x40 MSTORE DUP1 SWAP3 SWAP2 SWAP1 DUP2 DUP2 MSTORE PUSH1 0x20 ADD DUP3 DUP1 SLOAD PUSH2 0xACE SWAP1 PUSH2 0x4AB7 JUMP JUMPDEST DUP1 ISZERO PUSH2 0xB1B JUMPI DUP1 PUSH1 0x1F LT PUSH2 0xAF0 JUMPI PUSH2 0x100 DUP1 DUP4 SLOAD DIV MUL DUP4 MSTORE SWAP2 PUSH1 0x20 ADD SWAP2 PUSH2 0xB1B JUMP JUMPDEST DUP3 ADD SWAP2 SWAP1 PUSH1 0x0 MSTORE PUSH1 0x20 PUSH1 0x0 KECCAK256 SWAP1 JUMPDEST DUP2 SLOAD DUP2 MSTORE SWAP1 PUSH1 0x1 ADD SWAP1 PUSH1 0x20 ADD DUP1 DUP4 GT PUSH2 0xAFE JUMPI DUP3 SWAP1 SUB PUSH1 0x1F AND DUP3 ADD SWAP2 JUMPDEST POP POP POP SWAP2 DUP4 MSTORE POP POP PUSH1 0x1 SWAP2 SWAP1 SWAP2 ADD SLOAD PUSH1 0x1 PUSH1 0x1 PUSH1 0x40 SHL SUB DUP2 AND PUSH1 0x20 DUP4 ADD MSTORE PUSH1 0xFF PUSH1 0x1 PUSH1 0x40 SHL DUP3 DIV DUP2 AND ISZERO ISZERO PUSH1 0x40 DUP5 ADD MSTORE PUSH1 0x1 PUSH1 0x48 SHL SWAP1 SWAP2 DIV AND ISZERO ISZERO PUSH1 0x60 SWAP1 SWAP2 ADD MSTORE SWAP1 MSTORE POP SWAP1 POP PUSH1 0x2 DUP2 MLOAD PUSH1 0x40 MLOAD PUSH1 0x7 SWAP2 PUSH2 0xB74 SWAP2 PUSH2 0x4B07 JUMP JUMPDEST SWAP1 DUP2 MSTORE PUSH1 0x40 MLOAD SWAP1 DUP2 SWAP1 SUB PUSH1 0x20 ADD SWAP1 KECCAK256 PUSH1 0x3 ADD SLOAD PUSH1 0xFF PUSH1 0x1 PUSH1 0x48 SHL SWAP1 SWAP2 DIV AND PUSH1 0x4 DUP2 GT ISZERO PUSH2 0xBA3 JUMPI PUSH2 0xBA3 PUSH2 0x4509 JUMP JUMPDEST EQ PUSH2 0xBE9 JUMPI PUSH1 0x40 MLOAD PUSH3 0x461BCD PUSH1 0xE5 SHL DUP2 MSTORE PUSH1 0x20 PUSH1 0x4 DUP3 ADD MSTORE PUSH1 0x16 PUSH1 0x24 DUP3 ADD MSTORE PUSH22 0x1119585B081B9BDD081C1D589B1A5CDA1959081E595D PUSH1 0x52 SHL PUSH1 0x44 DUP3 ADD MSTORE PUSH1 0x64 ADD PUSH2 0x36F JUMP JUMPDEST PUSH1 0x0 SLOAD PUSH1 0x40 DUP5 DUP2 ADD MLOAD SWAP1 MLOAD PUSH4 0xD0DEF521 PUSH1 0xE0 SHL DUP2 MSTORE PUSH3 0x10000 SWAP1 SWAP3 DIV PUSH1 0x1 PUSH1 0x1 PUSH1 0xA0 SHL SUB AND SWAP2 PUSH4 0xD0DEF521 SWAP2 PUSH2 0xC24 SWAP2 CALLER SWAP2 SWAP1 PUSH1 0x4 ADD PUSH2 0x4B23 JUMP JUMPDEST PUSH1 0x20 PUSH1 0x40 MLOAD DUP1 DUP4 SUB DUP2 PUSH1 0x0 DUP8 GAS CALL ISZERO DUP1 ISZERO PUSH2 0xC43 JUMPI RETURNDATASIZE PUSH1 0x0 DUP1 RETURNDATACOPY RETURNDATASIZE PUSH1 0x0 REVERT JUMPDEST POP POP POP POP PUSH1 0x40 MLOAD RETURNDATASIZE PUSH1 0x1F NOT PUSH1 0x1F DUP3 ADD AND DUP3 ADD DUP1 PUSH1 0x40 MSTORE POP DUP2 ADD SWAP1 PUSH2 0xC67 SWAP2 SWAP1 PUSH2 0x4A9E JUMP JUMPDEST POP POP POP POP POP JUMP JUMPDEST PUSH1 0x2 SLOAD PUSH1 0x0 SWAP1 PUSH1 0x1 PUSH1 0x1 PUSH1 0xA0 SHL SUB AND CALLER EQ PUSH2 0xC9B JUMPI PUSH1 0x40 MLOAD PUSH3 0x461BCD PUSH1 0xE5 SHL DUP2 MSTORE PUSH1 0x4 ADD PUSH2 0x36F SWAP1 PUSH2 0x48C7 JUMP JUMPDEST PUSH1 0x0 PUSH1 0x7 PUSH2 0xCA9 DUP6 DUP1 PUSH2 0x4B47 JUMP JUMPDEST PUSH1 0x40 MLOAD PUSH2 0xCB7 SWAP3 SWAP2 SWAP1 PUSH2 0x4B8D JUMP JUMPDEST SWAP1 DUP2 MSTORE PUSH1 0x40 DUP1 MLOAD SWAP2 DUP3 SWAP1 SUB PUSH1 0x20 SWAP1 DUP2 ADD DUP4 KECCAK256 PUSH1 0xC0 DUP5 ADD DUP4 MSTORE DUP1 SLOAD DUP5 MSTORE PUSH1 0x1 DUP2 ADD SLOAD PUSH1 0xFF AND ISZERO ISZERO SWAP2 DUP5 ADD SWAP2 SWAP1 SWAP2 MSTORE PUSH1 0x2 DUP2 ADD DUP1 SLOAD SWAP2 SWAP3 DUP5 ADD SWAP2 PUSH2 0xCF8 SWAP1 PUSH2 0x4AB7 JUMP JUMPDEST DUP1 PUSH1 0x1F ADD PUSH1 0x20 DUP1 SWAP2 DIV MUL PUSH1 0x20 ADD PUSH1 0x40 MLOAD SWAP1 DUP2 ADD PUSH1 0x40 MSTORE DUP1 SWAP3 SWAP2 SWAP1 DUP2 DUP2 MSTORE PUSH1 0x20 ADD DUP3 DUP1 SLOAD PUSH2 0xD24 SWAP1 PUSH2 0x4AB7 JUMP JUMPDEST DUP1 ISZERO PUSH2 0xD71 JUMPI DUP1 PUSH1 0x1F LT PUSH2 0xD46 JUMPI PUSH2 0x100 DUP1 DUP4 SLOAD DIV MUL DUP4 MSTORE SWAP2 PUSH1 0x20 ADD SWAP2 PUSH2 0xD71 JUMP JUMPDEST DUP3 ADD SWAP2 SWAP1 PUSH1 0x0 MSTORE PUSH1 0x20 PUSH1 0x0 KECCAK256 SWAP1 JUMPDEST DUP2 SLOAD DUP2 MSTORE SWAP1 PUSH1 0x1 ADD SWAP1 PUSH1 0x20 ADD DUP1 DUP4 GT PUSH2 0xD54 JUMPI DUP3 SWAP1 SUB PUSH1 0x1F AND DUP3 ADD SWAP2 JUMPDEST POP POP POP SWAP2 DUP4 MSTORE POP POP PUSH1 0x3 DUP3 ADD SLOAD PUSH1 0xFF DUP1 DUP3 AND ISZERO ISZERO PUSH1 0x20 DUP5 ADD MSTORE PUSH1 0x1 PUSH1 0x1 PUSH1 0x40 SHL SUB PUSH2 0x100 DUP4 DIV AND PUSH1 0x40 DUP5 ADD MSTORE PUSH1 0x60 SWAP1 SWAP3 ADD SWAP2 PUSH1 0x1 PUSH1 0x48 SHL SWAP1 SWAP2 DIV AND PUSH1 0x4 DUP2 GT ISZERO PUSH2 0xDBD JUMPI PUSH2 0xDBD PUSH2 0x4509 JUMP JUMPDEST PUSH1 0x4 DUP2 GT ISZERO PUSH2 0xDCE JUMPI PUSH2 0xDCE PUSH2 0x4509 JUMP JUMPDEST SWAP1 MSTORE POP SWAP1 POP PUSH1 0x2 DUP2 PUSH1 0xA0 ADD MLOAD PUSH1 0x4 DUP2 GT ISZERO PUSH2 0xDEB JUMPI PUSH2 0xDEB PUSH2 0x4509 JUMP JUMPDEST EQ DUP1 PUSH2 0xE0C JUMPI POP PUSH1 0x3 DUP2 PUSH1 0xA0 ADD MLOAD PUSH1 0x4 DUP2 GT ISZERO PUSH2 0xE0A JUMPI PUSH2 0xE0A PUSH2 0x4509 JUMP JUMPDEST EQ JUMPDEST PUSH2 0xE58 JUMPI PUSH1 0x40 MLOAD PUSH3 0x461BCD PUSH1 0xE5 SHL DUP2 MSTORE PUSH1 0x20 PUSH1 0x4 DUP3 ADD MSTORE PUSH1 0x1E PUSH1 0x24 DUP3 ADD MSTORE PUSH32 0x4E6F74207075626C6973686564206F7220616374697661746564207965740000 PUSH1 0x44 DUP3 ADD MSTORE PUSH1 0x64 ADD PUSH2 0x36F JUMP JUMPDEST PUSH1 0x0 DUP4 PUSH2 0xE69 PUSH2 0x120 DUP8 ADD DUP8 PUSH2 0x4B47 JUMP JUMPDEST PUSH1 0x40 MLOAD PUSH1 0x20 ADD PUSH2 0xE7B SWAP4 SWAP3 SWAP2 SWAP1 PUSH2 0x4B9D JUMP JUMPDEST PUSH1 0x40 DUP1 MLOAD PUSH1 0x1F NOT DUP2 DUP5 SUB ADD DUP2 MSTORE SWAP2 DUP2 MSTORE DUP2 MLOAD PUSH1 0x20 SWAP3 DUP4 ADD KECCAK256 PUSH1 0x0 DUP2 DUP2 MSTORE PUSH1 0x6 SWAP1 SWAP4 MSTORE SWAP2 KECCAK256 SLOAD SWAP1 SWAP2 POP DUP2 EQ PUSH2 0xEF1 JUMPI PUSH1 0x40 MLOAD PUSH3 0x461BCD PUSH1 0xE5 SHL DUP2 MSTORE PUSH1 0x20 PUSH1 0x4 DUP3 ADD MSTORE PUSH1 0x1E PUSH1 0x24 DUP3 ADD MSTORE PUSH32 0x5265736561726368206465616C206E6F74207265636F72646564207965740000 PUSH1 0x44 DUP3 ADD MSTORE PUSH1 0x64 ADD PUSH2 0x36F JUMP JUMPDEST PUSH1 0x4 DUP1 SLOAD PUSH1 0x1 DUP2 ADD DUP3 SSTORE PUSH1 0x0 SWAP2 SWAP1 SWAP2 MSTORE DUP6 SWAP1 PUSH1 0xB MUL PUSH32 0x8A35ACFBC15FF81A39AE7D344FD709F28E8600B4AA8C65C6B64BFE7FE36BD19B ADD PUSH2 0xF32 DUP3 DUP3 PUSH2 0x4E75 JUMP JUMPDEST POP POP PUSH1 0x4 SLOAD PUSH1 0x40 DUP1 MLOAD DUP1 DUP3 ADD DUP3 MSTORE DUP3 DUP2 MSTORE PUSH1 0x1 PUSH1 0x20 DUP1 DUP4 ADD DUP3 DUP2 MSTORE PUSH1 0x0 DUP8 DUP2 MSTORE PUSH1 0x3 DUP4 MSTORE SWAP5 DUP6 KECCAK256 SWAP4 MLOAD DUP5 SSTORE MLOAD SWAP3 DUP3 ADD DUP1 SLOAD PUSH1 0xFF NOT AND SWAP4 ISZERO ISZERO SWAP4 SWAP1 SWAP4 OR SWAP1 SWAP3 SSTORE PUSH1 0x5 DUP1 SLOAD DUP1 DUP4 ADD DUP3 SSTORE SWAP4 MSTORE PUSH32 0x36B6384B5ECA791C62761152D0C79BB0604C104A5FB6F4EB0703F3154BB3DB0 SWAP1 SWAP3 ADD DUP5 SWAP1 SSTORE DUP4 DUP6 MSTORE DUP5 ADD DUP2 SWAP1 MSTORE PUSH1 0xA0 DUP5 ADD MSTORE DUP3 PUSH1 0x7 PUSH2 0xFBD DUP9 DUP1 PUSH2 0x4B47 JUMP JUMPDEST PUSH1 0x40 MLOAD PUSH2 0xFCB SWAP3 SWAP2 SWAP1 PUSH2 0x4B8D JUMP JUMPDEST SWAP1 DUP2 MSTORE PUSH1 0x40 DUP1 MLOAD PUSH1 0x20 SWAP3 DUP2 SWAP1 SUB DUP4 ADD SWAP1 KECCAK256 DUP4 MLOAD DUP2 SSTORE SWAP2 DUP4 ADD MLOAD PUSH1 0x1 DUP4 ADD DUP1 SLOAD PUSH1 0xFF NOT AND SWAP2 ISZERO ISZERO SWAP2 SWAP1 SWAP2 OR SWAP1 SSTORE DUP3 ADD MLOAD PUSH1 0x2 DUP3 ADD SWAP1 PUSH2 0x1009 SWAP1 DUP3 PUSH2 0x4FA7 JUMP JUMPDEST POP PUSH1 0x60 DUP3 ADD MLOAD PUSH1 0x3 DUP3 ADD DUP1 SLOAD PUSH1 0x80 DUP6 ADD MLOAD PUSH1 0x1 PUSH1 0x1 PUSH1 0x40 SHL SUB AND PUSH2 0x100 MUL PUSH2 0x100 PUSH1 0x1 PUSH1 0x48 SHL SUB NOT SWAP4 ISZERO ISZERO SWAP4 SWAP1 SWAP4 AND PUSH1 0x1 PUSH1 0x1 PUSH1 0x48 SHL SUB NOT SWAP1 SWAP2 AND OR SWAP2 SWAP1 SWAP2 OR DUP1 DUP3 SSTORE PUSH1 0xA0 DUP5 ADD MLOAD SWAP2 SWAP1 PUSH1 0xFF PUSH1 0x48 SHL NOT AND PUSH1 0x1 PUSH1 0x48 SHL DUP4 PUSH1 0x4 DUP2 GT ISZERO PUSH2 0x1071 JUMPI PUSH2 0x1071 PUSH2 0x4509 JUMP JUMPDEST MUL OR SWAP1 SSTORE POP PUSH2 0x1089 SWAP2 POP POP PUSH1 0x60 DUP8 ADD PUSH1 0x40 DUP9 ADD PUSH2 0x5060 JUMP JUMPDEST ISZERO ISZERO DUP3 PUSH32 0xFD6419D07E4C269E58D0C63969756C2124155B4A8D6DD08B8CD46E3A9ACBF625 PUSH2 0x10BD PUSH1 0x40 DUP11 ADD PUSH1 0x20 DUP12 ADD PUSH2 0x507D JUMP JUMPDEST PUSH1 0x40 DUP1 MLOAD PUSH1 0x1 PUSH1 0x1 PUSH1 0x40 SHL SUB SWAP1 SWAP3 AND DUP3 MSTORE PUSH1 0xC0 DUP12 ADD CALLDATALOAD PUSH1 0x20 DUP4 ADD MSTORE ADD PUSH1 0x40 MLOAD DUP1 SWAP2 SUB SWAP1 LOG3 POP SWAP5 SWAP4 POP POP POP POP JUMP JUMPDEST DUP1 MLOAD PUSH1 0x20 DUP2 DUP4 ADD DUP2 ADD DUP1 MLOAD PUSH1 0x7 DUP3 MSTORE SWAP3 DUP3 ADD SWAP2 SWAP1 SWAP4 ADD KECCAK256 SWAP2 MSTORE DUP1 SLOAD PUSH1 0x1 DUP3 ADD SLOAD PUSH1 0x2 DUP4 ADD DUP1 SLOAD SWAP3 SWAP4 PUSH1 0xFF SWAP1 SWAP3 AND SWAP3 PUSH2 0x1121 SWAP1 PUSH2 0x4AB7 JUMP JUMPDEST DUP1 PUSH1 0x1F ADD PUSH1 0x20 DUP1 SWAP2 DIV MUL PUSH1 0x20 ADD PUSH1 0x40 MLOAD SWAP1 DUP2 ADD PUSH1 0x40 MSTORE DUP1 SWAP3 SWAP2 SWAP1 DUP2 DUP2 MSTORE PUSH1 0x20 ADD DUP3 DUP1 SLOAD PUSH2 0x114D SWAP1 PUSH2 0x4AB7 JUMP JUMPDEST DUP1 ISZERO PUSH2 0x119A JUMPI DUP1 PUSH1 0x1F LT PUSH2 0x116F JUMPI PUSH2 0x100 DUP1 DUP4 SLOAD DIV MUL DUP4 MSTORE SWAP2 PUSH1 0x20 ADD SWAP2 PUSH2 0x119A JUMP JUMPDEST DUP3 ADD SWAP2 SWAP1 PUSH1 0x0 MSTORE PUSH1 0x20 PUSH1 0x0 KECCAK256 SWAP1 JUMPDEST DUP2 SLOAD DUP2 MSTORE SWAP1 PUSH1 0x1 ADD SWAP1 PUSH1 0x20 ADD DUP1 DUP4 GT PUSH2 0x117D JUMPI DUP3 SWAP1 SUB PUSH1 0x1F AND DUP3 ADD SWAP2 JUMPDEST POP POP POP PUSH1 0x3 SWAP1 SWAP4 ADD SLOAD SWAP2 SWAP3 POP POP PUSH1 0xFF DUP1 DUP3 AND SWAP2 PUSH1 0x1 PUSH1 0x1 PUSH1 0x40 SHL SUB PUSH2 0x100 DUP3 DIV AND SWAP2 PUSH1 0x1 PUSH1 0x48 SHL SWAP1 SWAP2 DIV AND DUP7 JUMP JUMPDEST PUSH1 0x0 PUSH1 0x7 DUP3 PUSH1 0x40 MLOAD PUSH2 0x11DA SWAP2 SWAP1 PUSH2 0x4B07 JUMP JUMPDEST SWAP1 DUP2 MSTORE PUSH1 0x40 MLOAD SWAP1 DUP2 SWAP1 SUB PUSH1 0x20 ADD SWAP1 KECCAK256 PUSH1 0x3 ADD SLOAD PUSH1 0x1 PUSH1 0x1 PUSH1 0x40 SHL SUB PUSH2 0x100 SWAP1 SWAP2 DIV AND GT PUSH2 0x123D JUMPI PUSH1 0x40 MLOAD PUSH3 0x461BCD PUSH1 0xE5 SHL DUP2 MSTORE PUSH1 0x20 PUSH1 0x4 DUP3 ADD MSTORE PUSH1 0x11 PUSH1 0x24 DUP3 ADD MSTORE PUSH17 0x125B9D985B1A59081C1A5958D94818DA59 PUSH1 0x7A SHL PUSH1 0x44 DUP3 ADD MSTORE PUSH1 0x64 ADD PUSH2 0x36F JUMP JUMPDEST PUSH1 0x0 PUSH2 0x1279 PUSH1 0x7 DUP4 PUSH1 0x40 MLOAD PUSH2 0x1252 SWAP2 SWAP1 PUSH2 0x4B07 JUMP JUMPDEST SWAP1 DUP2 MSTORE PUSH1 0x40 MLOAD SWAP1 DUP2 SWAP1 SUB PUSH1 0x20 ADD SWAP1 KECCAK256 PUSH1 0x3 ADD SLOAD PUSH1 0x1 PUSH1 0x1 PUSH1 0x40 SHL SUB PUSH2 0x100 SWAP1 SWAP2 DIV AND PUSH2 0x1D6B JUMP JUMPDEST SWAP1 POP PUSH1 0x0 DUP2 PUSH1 0x20 ADD MLOAD PUSH1 0x7 SIGNEXTEND SGT ISZERO PUSH2 0x12D8 JUMPI PUSH1 0x4 PUSH1 0x7 DUP4 PUSH1 0x40 MLOAD PUSH2 0x129D SWAP2 SWAP1 PUSH2 0x4B07 JUMP JUMPDEST SWAP1 DUP2 MSTORE PUSH1 0x40 MLOAD SWAP1 DUP2 SWAP1 SUB PUSH1 0x20 ADD SWAP1 KECCAK256 PUSH1 0x3 ADD DUP1 SLOAD PUSH1 0xFF PUSH1 0x48 SHL NOT AND PUSH1 0x1 PUSH1 0x48 SHL DUP4 PUSH1 0x4 DUP2 GT ISZERO PUSH2 0x12CF JUMPI PUSH2 0x12CF PUSH2 0x4509 JUMP JUMPDEST MUL OR SWAP1 SSTORE POP POP POP JUMP JUMPDEST PUSH1 0x0 DUP2 PUSH1 0x0 ADD MLOAD PUSH1 0x7 SIGNEXTEND SGT ISZERO PUSH2 0x12FA JUMPI PUSH1 0x3 PUSH1 0x7 DUP4 PUSH1 0x40 MLOAD PUSH2 0x129D SWAP2 SWAP1 PUSH2 0x4B07 JUMP JUMPDEST POP POP JUMP JUMPDEST PUSH1 0x0 DUP1 PUSH1 0x60 DUP1 DUP3 PUSH4 0x9D8B0677 NOT PUSH1 0x1 PUSH1 0x1 PUSH1 0x40 SHL SUB DUP10 AND ADD PUSH2 0x1351 JUMPI PUSH2 0x1323 DUP7 PUSH2 0x1DB8 JUMP JUMPDEST PUSH1 0x0 PUSH2 0x132F PUSH1 0x1 PUSH2 0x220E JUMP JUMPDEST SWAP1 POP PUSH2 0x133C DUP2 PUSH1 0x1 PUSH2 0x222F JUMP JUMPDEST PUSH2 0x1345 DUP2 PUSH2 0x2246 JUMP JUMPDEST SWAP3 POP PUSH1 0x51 SWAP2 POP POP PUSH2 0x1489 JUMP JUMPDEST PUSH4 0xF98C9965 NOT PUSH1 0x1 PUSH1 0x1 PUSH1 0x40 SHL SUB DUP10 AND ADD PUSH2 0x1374 JUMPI PUSH2 0x136F DUP7 PUSH2 0x2291 JUMP JUMPDEST PUSH2 0x1489 JUMP JUMPDEST PUSH4 0xDE180DE2 NOT PUSH1 0x1 PUSH1 0x1 PUSH1 0x40 SHL SUB DUP10 AND ADD PUSH2 0x1450 JUMPI CALLER PUSH1 0x7 PUSH1 0xFF PUSH1 0x98 SHL ADD EQ PUSH2 0x13F0 JUMPI PUSH1 0x40 MLOAD PUSH3 0x461BCD PUSH1 0xE5 SHL DUP2 MSTORE PUSH1 0x20 PUSH1 0x4 DUP3 ADD MSTORE PUSH1 0x28 PUSH1 0x24 DUP3 ADD MSTORE PUSH32 0x6D73672E73656E646572206E6565647320746F20626520646174616361702061 PUSH1 0x44 DUP3 ADD MSTORE PUSH8 0x63746F7220663037 PUSH1 0xC0 SHL PUSH1 0x64 DUP3 ADD MSTORE PUSH1 0x84 ADD PUSH2 0x36F JUMP JUMPDEST PUSH32 0x10AA319ED8CAD9BCEB033C0C2788C4AE17469AC844E4C6E2C2E20E74CA8A7BE8 PUSH1 0x40 MLOAD PUSH2 0x1443 SWAP1 PUSH1 0x20 DUP1 DUP3 MSTORE PUSH1 0x11 SWAP1 DUP3 ADD MSTORE PUSH17 0x4461746143617020526563656976656421 PUSH1 0x78 SHL PUSH1 0x40 DUP3 ADD MSTORE PUSH1 0x60 ADD SWAP1 JUMP JUMPDEST PUSH1 0x40 MLOAD DUP1 SWAP2 SUB SWAP1 LOG1 PUSH2 0x1489 JUMP JUMPDEST PUSH1 0x40 MLOAD PUSH3 0x461BCD PUSH1 0xE5 SHL DUP2 MSTORE PUSH1 0x20 PUSH1 0x4 DUP3 ADD MSTORE PUSH1 0xE PUSH1 0x24 DUP3 ADD MSTORE PUSH14 0x125B9D985B1A59081B595D1A1BD9 PUSH1 0x92 SHL PUSH1 0x44 DUP3 ADD MSTORE PUSH1 0x64 ADD PUSH2 0x36F JUMP JUMPDEST PUSH1 0x0 SWAP9 SWAP1 SWAP8 POP SWAP1 SWAP6 POP SWAP4 POP POP POP POP JUMP JUMPDEST PUSH1 0x1 SLOAD PUSH1 0x40 MLOAD PUSH4 0x119CE18D PUSH1 0xE3 SHL DUP2 MSTORE PUSH2 0x1516 SWAP2 PUSH1 0x1 PUSH1 0x1 PUSH1 0xA0 SHL SUB AND SWAP1 PUSH4 0x8CE70C68 SWAP1 PUSH2 0x14CB SWAP1 ADDRESS SWAP1 PUSH1 0x4 ADD PUSH2 0x43AE JUMP JUMPDEST PUSH1 0x0 PUSH1 0x40 MLOAD DUP1 DUP4 SUB DUP2 DUP7 GAS STATICCALL ISZERO DUP1 ISZERO PUSH2 0x14E8 JUMPI RETURNDATASIZE PUSH1 0x0 DUP1 RETURNDATACOPY RETURNDATASIZE PUSH1 0x0 REVERT JUMPDEST POP POP POP POP PUSH1 0x40 MLOAD RETURNDATASIZE PUSH1 0x0 DUP3 RETURNDATACOPY PUSH1 0x1F RETURNDATASIZE SWAP1 DUP2 ADD PUSH1 0x1F NOT AND DUP3 ADD PUSH1 0x40 MSTORE PUSH2 0x1510 SWAP2 SWAP1 DUP2 ADD SWAP1 PUSH2 0x4941 JUMP JUMPDEST CALLVALUE PUSH2 0x253F JUMP JUMPDEST JUMP JUMPDEST PUSH1 0x4 DUP2 DUP2 SLOAD DUP2 LT PUSH2 0x1528 JUMPI PUSH1 0x0 DUP1 REVERT JUMPDEST SWAP1 PUSH1 0x0 MSTORE PUSH1 0x20 PUSH1 0x0 KECCAK256 SWAP1 PUSH1 0xB MUL ADD PUSH1 0x0 SWAP2 POP SWAP1 POP DUP1 PUSH1 0x0 ADD DUP1 SLOAD PUSH2 0x154B SWAP1 PUSH2 0x4AB7 JUMP JUMPDEST DUP1 PUSH1 0x1F ADD PUSH1 0x20 DUP1 SWAP2 DIV MUL PUSH1 0x20 ADD PUSH1 0x40 MLOAD SWAP1 DUP2 ADD PUSH1 0x40 MSTORE DUP1 SWAP3 SWAP2 SWAP1 DUP2 DUP2 MSTORE PUSH1 0x20 ADD DUP3 DUP1 SLOAD PUSH2 0x1577 SWAP1 PUSH2 0x4AB7 JUMP JUMPDEST DUP1 ISZERO PUSH2 0x15C4 JUMPI DUP1 PUSH1 0x1F LT PUSH2 0x1599 JUMPI PUSH2 0x100 DUP1 DUP4 SLOAD DIV MUL DUP4 MSTORE SWAP2 PUSH1 0x20 ADD SWAP2 PUSH2 0x15C4 JUMP JUMPDEST DUP3 ADD SWAP2 SWAP1 PUSH1 0x0 MSTORE PUSH1 0x20 PUSH1 0x0 KECCAK256 SWAP1 JUMPDEST DUP2 SLOAD DUP2 MSTORE SWAP1 PUSH1 0x1 ADD SWAP1 PUSH1 0x20 ADD DUP1 DUP4 GT PUSH2 0x15A7 JUMPI DUP3 SWAP1 SUB PUSH1 0x1F AND DUP3 ADD SWAP2 JUMPDEST POP POP POP POP PUSH1 0x1 DUP4 ADD SLOAD PUSH1 0x2 DUP5 ADD DUP1 SLOAD SWAP4 SWAP5 PUSH1 0x1 PUSH1 0x1 PUSH1 0x40 SHL SUB DUP4 AND SWAP5 PUSH1 0x1 PUSH1 0x40 SHL SWAP1 SWAP4 DIV PUSH1 0xFF AND SWAP4 POP SWAP2 PUSH2 0x15F7 SWAP1 PUSH2 0x4AB7 JUMP JUMPDEST DUP1 PUSH1 0x1F ADD PUSH1 0x20 DUP1 SWAP2 DIV MUL PUSH1 0x20 ADD PUSH1 0x40 MLOAD SWAP1 DUP2 ADD PUSH1 0x40 MSTORE DUP1 SWAP3 SWAP2 SWAP1 DUP2 DUP2 MSTORE PUSH1 0x20 ADD DUP3 DUP1 SLOAD PUSH2 0x1623 SWAP1 PUSH2 0x4AB7 JUMP JUMPDEST DUP1 ISZERO PUSH2 0x1670 JUMPI DUP1 PUSH1 0x1F LT PUSH2 0x1645 JUMPI PUSH2 0x100 DUP1 DUP4 SLOAD DIV MUL DUP4 MSTORE SWAP2 PUSH1 0x20 ADD SWAP2 PUSH2 0x1670 JUMP JUMPDEST DUP3 ADD SWAP2 SWAP1 PUSH1 0x0 MSTORE PUSH1 0x20 PUSH1 0x0 KECCAK256 SWAP1 JUMPDEST DUP2 SLOAD DUP2 MSTORE SWAP1 PUSH1 0x1 ADD SWAP1 PUSH1 0x20 ADD DUP1 DUP4 GT PUSH2 0x1653 JUMPI DUP3 SWAP1 SUB PUSH1 0x1F AND DUP3 ADD SWAP2 JUMPDEST POP POP POP PUSH1 0x3 DUP5 ADD SLOAD PUSH1 0x4 DUP6 ADD SLOAD PUSH1 0x5 DUP7 ADD SLOAD PUSH1 0x6 DUP8 ADD SLOAD PUSH1 0x7 DUP1 DUP10 ADD DUP1 SLOAD SWAP9 SWAP10 DUP7 DUP4 SIGNEXTEND SWAP10 PUSH1 0x1 PUSH1 0x40 SHL SWAP1 SWAP8 DIV SWAP1 SWAP3 SIGNEXTEND SWAP8 POP SWAP4 SWAP6 POP SWAP2 SWAP4 SWAP1 SWAP3 SWAP1 PUSH2 0x16B2 SWAP1 PUSH2 0x4AB7 JUMP JUMPDEST DUP1 PUSH1 0x1F ADD PUSH1 0x20 DUP1 SWAP2 DIV MUL PUSH1 0x20 ADD PUSH1 0x40 MLOAD SWAP1 DUP2 ADD PUSH1 0x40 MSTORE DUP1 SWAP3 SWAP2 SWAP1 DUP2 DUP2 MSTORE PUSH1 0x20 ADD DUP3 DUP1 SLOAD PUSH2 0x16DE SWAP1 PUSH2 0x4AB7 JUMP JUMPDEST DUP1 ISZERO PUSH2 0x172B JUMPI DUP1 PUSH1 0x1F LT PUSH2 0x1700 JUMPI PUSH2 0x100 DUP1 DUP4 SLOAD DIV MUL DUP4 MSTORE SWAP2 PUSH1 0x20 ADD SWAP2 PUSH2 0x172B JUMP JUMPDEST DUP3 ADD SWAP2 SWAP1 PUSH1 0x0 MSTORE PUSH1 0x20 PUSH1 0x0 KECCAK256 SWAP1 JUMPDEST DUP2 SLOAD DUP2 MSTORE SWAP1 PUSH1 0x1 ADD SWAP1 PUSH1 0x20 ADD DUP1 DUP4 GT PUSH2 0x170E JUMPI DUP3 SWAP1 SUB PUSH1 0x1F AND DUP3 ADD SWAP2 JUMPDEST POP POP POP POP POP SWAP1 DUP1 PUSH1 0x8 ADD PUSH1 0x0 SWAP1 SLOAD SWAP1 PUSH2 0x100 EXP SWAP1 DIV PUSH1 0x1 PUSH1 0x1 PUSH1 0x40 SHL SUB AND SWAP1 DUP1 PUSH1 0x9 ADD PUSH1 0x40 MLOAD DUP1 PUSH1 0x80 ADD PUSH1 0x40 MSTORE SWAP1 DUP2 PUSH1 0x0 DUP3 ADD DUP1 SLOAD PUSH2 0x1769 SWAP1 PUSH2 0x4AB7 JUMP JUMPDEST DUP1 PUSH1 0x1F ADD PUSH1 0x20 DUP1 SWAP2 DIV MUL PUSH1 0x20 ADD PUSH1 0x40 MLOAD SWAP1 DUP2 ADD PUSH1 0x40 MSTORE DUP1 SWAP3 SWAP2 SWAP1 DUP2 DUP2 MSTORE PUSH1 0x20 ADD DUP3 DUP1 SLOAD PUSH2 0x1795 SWAP1 PUSH2 0x4AB7 JUMP JUMPDEST DUP1 ISZERO PUSH2 0x17E2 JUMPI DUP1 PUSH1 0x1F LT PUSH2 0x17B7 JUMPI PUSH2 0x100 DUP1 DUP4 SLOAD DIV MUL DUP4 MSTORE SWAP2 PUSH1 0x20 ADD SWAP2 PUSH2 0x17E2 JUMP JUMPDEST DUP3 ADD SWAP2 SWAP1 PUSH1 0x0 MSTORE PUSH1 0x20 PUSH1 0x0 KECCAK256 SWAP1 JUMPDEST DUP2 SLOAD DUP2 MSTORE SWAP1 PUSH1 0x1 ADD SWAP1 PUSH1 0x20 ADD DUP1 DUP4 GT PUSH2 0x17C5 JUMPI DUP3 SWAP1 SUB PUSH1 0x1F AND DUP3 ADD SWAP2 JUMPDEST POP POP POP SWAP2 DUP4 MSTORE POP POP PUSH1 0x1 SWAP2 SWAP1 SWAP2 ADD SLOAD PUSH1 0x1 PUSH1 0x1 PUSH1 0x40 SHL SUB DUP2 AND PUSH1 0x20 DUP4 ADD MSTORE PUSH1 0xFF PUSH1 0x1 PUSH1 0x40 SHL DUP3 DIV DUP2 AND ISZERO ISZERO PUSH1 0x40 DUP5 ADD MSTORE PUSH1 0x1 PUSH1 0x48 SHL SWAP1 SWAP2 DIV AND ISZERO ISZERO PUSH1 0x60 SWAP1 SWAP2 ADD MSTORE SWAP1 POP DUP13 JUMP JUMPDEST PUSH1 0x0 SLOAD PUSH2 0x100 SWAP1 DIV PUSH1 0xFF AND ISZERO DUP1 DUP1 ISZERO PUSH2 0x1848 JUMPI POP PUSH1 0x0 SLOAD PUSH1 0x1 PUSH1 0xFF SWAP1 SWAP2 AND LT JUMPDEST DUP1 PUSH2 0x1862 JUMPI POP ADDRESS EXTCODESIZE ISZERO DUP1 ISZERO PUSH2 0x1862 JUMPI POP PUSH1 0x0 SLOAD PUSH1 0xFF AND PUSH1 0x1 EQ JUMPDEST PUSH2 0x18C5 JUMPI PUSH1 0x40 MLOAD PUSH3 0x461BCD PUSH1 0xE5 SHL DUP2 MSTORE PUSH1 0x20 PUSH1 0x4 DUP3 ADD MSTORE PUSH1 0x2E PUSH1 0x24 DUP3 ADD MSTORE PUSH32 0x496E697469616C697A61626C653A20636F6E747261637420697320616C726561 PUSH1 0x44 DUP3 ADD MSTORE PUSH14 0x191E481A5B9A5D1A585B1A5E9959 PUSH1 0x92 SHL PUSH1 0x64 DUP3 ADD MSTORE PUSH1 0x84 ADD PUSH2 0x36F JUMP JUMPDEST PUSH1 0x0 DUP1 SLOAD PUSH1 0xFF NOT AND PUSH1 0x1 OR SWAP1 SSTORE DUP1 ISZERO PUSH2 0x18E8 JUMPI PUSH1 0x0 DUP1 SLOAD PUSH2 0xFF00 NOT AND PUSH2 0x100 OR SWAP1 SSTORE JUMPDEST PUSH1 0x0 DUP1 SLOAD PUSH1 0x1 PUSH1 0x1 PUSH1 0xA0 SHL SUB DUP1 DUP8 AND PUSH3 0x10000 MUL PUSH3 0x10000 PUSH1 0x1 PUSH1 0xB0 SHL SUB NOT SWAP1 SWAP3 AND SWAP2 SWAP1 SWAP2 OR SWAP1 SWAP2 SSTORE PUSH1 0x1 DUP1 SLOAD DUP6 DUP4 AND PUSH1 0x1 PUSH1 0x1 PUSH1 0xA0 SHL SUB NOT SWAP2 DUP3 AND OR SWAP1 SWAP2 SSTORE PUSH1 0x2 DUP1 SLOAD SWAP3 DUP6 AND SWAP3 SWAP1 SWAP2 AND SWAP2 SWAP1 SWAP2 OR SWAP1 SSTORE DUP1 ISZERO PUSH2 0x197F JUMPI PUSH1 0x0 DUP1 SLOAD PUSH2 0xFF00 NOT AND SWAP1 SSTORE PUSH1 0x40 MLOAD PUSH1 0x1 DUP2 MSTORE PUSH32 0x7F26B83FF96E1F2B6A682F133852F6798A09C465DA95921460CEFB3847402498 SWAP1 PUSH1 0x20 ADD PUSH1 0x40 MLOAD DUP1 SWAP2 SUB SWAP1 LOG1 JUMPDEST POP POP POP POP JUMP JUMPDEST PUSH1 0x2 SLOAD PUSH1 0x1 PUSH1 0x1 PUSH1 0xA0 SHL SUB AND CALLER EQ PUSH2 0x19AF JUMPI PUSH1 0x40 MLOAD PUSH3 0x461BCD PUSH1 0xE5 SHL DUP2 MSTORE PUSH1 0x4 ADD PUSH2 0x36F SWAP1 PUSH2 0x48C7 JUMP JUMPDEST PUSH1 0x0 CALLER DUP4 DUP4 PUSH1 0x40 MLOAD PUSH1 0x20 ADD PUSH2 0x19C6 SWAP4 SWAP3 SWAP2 SWAP1 PUSH2 0x4B9D JUMP JUMPDEST PUSH1 0x40 DUP1 MLOAD PUSH1 0x1F NOT DUP2 DUP5 SUB ADD DUP2 MSTORE DUP3 DUP3 MSTORE DUP1 MLOAD PUSH1 0x20 SWAP2 DUP3 ADD KECCAK256 PUSH1 0xC0 DUP5 ADD DUP4 MSTORE DUP1 DUP5 MSTORE CALLER DUP5 DUP4 ADD MSTORE DUP3 MLOAD PUSH1 0x1F DUP8 ADD DUP4 SWAP1 DIV DUP4 MUL DUP2 ADD DUP4 ADD DUP5 MSTORE DUP7 DUP2 MSTORE SWAP1 SWAP5 POP PUSH1 0x0 SWAP4 SWAP3 DUP4 ADD SWAP2 DUP8 SWAP1 DUP8 SWAP1 DUP2 SWAP1 DUP5 ADD DUP4 DUP3 DUP1 DUP3 DUP5 CALLDATACOPY PUSH1 0x0 SWAP3 ADD SWAP2 SWAP1 SWAP2 MSTORE POP POP POP SWAP1 DUP3 MSTORE POP PUSH1 0x40 DUP1 MLOAD PUSH1 0x20 PUSH1 0x1F DUP14 ADD DUP2 SWAP1 DIV DUP2 MUL DUP3 ADD DUP2 ADD SWAP1 SWAP3 MSTORE DUP12 DUP2 MSTORE SWAP2 DUP2 ADD SWAP2 SWAP1 DUP13 SWAP1 DUP13 SWAP1 DUP2 SWAP1 DUP5 ADD DUP4 DUP3 DUP1 DUP3 DUP5 CALLDATACOPY PUSH1 0x0 SWAP3 ADD SWAP2 SWAP1 SWAP2 MSTORE POP POP POP SWAP1 DUP3 MSTORE POP PUSH1 0x40 DUP1 MLOAD PUSH1 0x20 PUSH1 0x1F DUP12 ADD DUP2 SWAP1 DIV DUP2 MUL DUP3 ADD DUP2 ADD SWAP1 SWAP3 MSTORE DUP10 DUP2 MSTORE SWAP2 DUP2 ADD SWAP2 SWAP1 DUP11 SWAP1 DUP11 SWAP1 DUP2 SWAP1 DUP5 ADD DUP4 DUP3 DUP1 DUP3 DUP5 CALLDATACOPY PUSH1 0x0 SWAP3 ADD DUP3 SWAP1 MSTORE POP SWAP4 DUP6 MSTORE POP POP POP PUSH1 0x20 SWAP2 DUP3 ADD DUP9 SWAP1 MSTORE DUP5 DUP2 MSTORE PUSH1 0x6 DUP3 MSTORE PUSH1 0x40 SWAP1 DUP2 SWAP1 KECCAK256 DUP4 MLOAD DUP2 SSTORE SWAP2 DUP4 ADD MLOAD PUSH1 0x1 DUP4 ADD DUP1 SLOAD PUSH1 0x1 PUSH1 0x1 PUSH1 0xA0 SHL SUB NOT AND PUSH1 0x1 PUSH1 0x1 PUSH1 0xA0 SHL SUB SWAP1 SWAP3 AND SWAP2 SWAP1 SWAP2 OR SWAP1 SSTORE DUP3 ADD MLOAD SWAP2 SWAP3 POP DUP3 SWAP2 PUSH1 0x2 DUP3 ADD SWAP1 PUSH2 0x1AF1 SWAP1 DUP3 PUSH2 0x4FA7 JUMP JUMPDEST POP PUSH1 0x60 DUP3 ADD MLOAD PUSH1 0x3 DUP3 ADD SWAP1 PUSH2 0x1B06 SWAP1 DUP3 PUSH2 0x4FA7 JUMP JUMPDEST POP PUSH1 0x80 DUP3 ADD MLOAD PUSH1 0x4 DUP3 ADD SWAP1 PUSH2 0x1B1B SWAP1 DUP3 PUSH2 0x4FA7 JUMP JUMPDEST POP PUSH1 0xA0 DUP3 ADD MLOAD DUP2 PUSH1 0x5 ADD SSTORE SWAP1 POP POP POP POP POP POP POP POP POP POP POP JUMP JUMPDEST PUSH1 0x5 DUP2 DUP2 SLOAD DUP2 LT PUSH2 0x1B44 JUMPI PUSH1 0x0 DUP1 REVERT JUMPDEST PUSH1 0x0 SWAP2 DUP3 MSTORE PUSH1 0x20 SWAP1 SWAP2 KECCAK256 ADD SLOAD SWAP1 POP DUP2 JUMP JUMPDEST PUSH1 0x6 PUSH1 0x20 MSTORE PUSH1 0x0 SWAP1 DUP2 MSTORE PUSH1 0x40 SWAP1 KECCAK256 DUP1 SLOAD PUSH1 0x1 DUP3 ADD SLOAD PUSH1 0x2 DUP4 ADD DUP1 SLOAD SWAP3 SWAP4 PUSH1 0x1 PUSH1 0x1 PUSH1 0xA0 SHL SUB SWAP1 SWAP3 AND SWAP3 PUSH2 0x1B87 SWAP1 PUSH2 0x4AB7 JUMP JUMPDEST DUP1 PUSH1 0x1F ADD PUSH1 0x20 DUP1 SWAP2 DIV MUL PUSH1 0x20 ADD PUSH1 0x40 MLOAD SWAP1 DUP2 ADD PUSH1 0x40 MSTORE DUP1 SWAP3 SWAP2 SWAP1 DUP2 DUP2 MSTORE PUSH1 0x20 ADD DUP3 DUP1 SLOAD PUSH2 0x1BB3 SWAP1 PUSH2 0x4AB7 JUMP JUMPDEST DUP1 ISZERO PUSH2 0x1C00 JUMPI DUP1 PUSH1 0x1F LT PUSH2 0x1BD5 JUMPI PUSH2 0x100 DUP1 DUP4 SLOAD DIV MUL DUP4 MSTORE SWAP2 PUSH1 0x20 ADD SWAP2 PUSH2 0x1C00 JUMP JUMPDEST DUP3 ADD SWAP2 SWAP1 PUSH1 0x0 MSTORE PUSH1 0x20 PUSH1 0x0 KECCAK256 SWAP1 JUMPDEST DUP2 SLOAD DUP2 MSTORE SWAP1 PUSH1 0x1 ADD SWAP1 PUSH1 0x20 ADD DUP1 DUP4 GT PUSH2 0x1BE3 JUMPI DUP3 SWAP1 SUB PUSH1 0x1F AND DUP3 ADD SWAP2 JUMPDEST POP POP POP POP POP SWAP1 DUP1 PUSH1 0x3 ADD DUP1 SLOAD PUSH2 0x1C15 SWAP1 PUSH2 0x4AB7 JUMP JUMPDEST DUP1 PUSH1 0x1F ADD PUSH1 0x20 DUP1 SWAP2 DIV MUL PUSH1 0x20 ADD PUSH1 0x40 MLOAD SWAP1 DUP2 ADD PUSH1 0x40 MSTORE DUP1 SWAP3 SWAP2 SWAP1 DUP2 DUP2 MSTORE PUSH1 0x20 ADD DUP3 DUP1 SLOAD PUSH2 0x1C41 SWAP1 PUSH2 0x4AB7 JUMP JUMPDEST DUP1 ISZERO PUSH2 0x1C8E JUMPI DUP1 PUSH1 0x1F LT PUSH2 0x1C63 JUMPI PUSH2 0x100 DUP1 DUP4 SLOAD DIV MUL DUP4 MSTORE SWAP2 PUSH1 0x20 ADD SWAP2 PUSH2 0x1C8E JUMP JUMPDEST DUP3 ADD SWAP2 SWAP1 PUSH1 0x0 MSTORE PUSH1 0x20 PUSH1 0x0 KECCAK256 SWAP1 JUMPDEST DUP2 SLOAD DUP2 MSTORE SWAP1 PUSH1 0x1 ADD SWAP1 PUSH1 0x20 ADD DUP1 DUP4 GT PUSH2 0x1C71 JUMPI DUP3 SWAP1 SUB PUSH1 0x1F AND DUP3 ADD SWAP2 JUMPDEST POP POP POP POP POP SWAP1 DUP1 PUSH1 0x4 ADD DUP1 SLOAD PUSH2 0x1CA3 SWAP1 PUSH2 0x4AB7 JUMP JUMPDEST DUP1 PUSH1 0x1F ADD PUSH1 0x20 DUP1 SWAP2 DIV MUL PUSH1 0x20 ADD PUSH1 0x40 MLOAD SWAP1 DUP2 ADD PUSH1 0x40 MSTORE DUP1 SWAP3 SWAP2 SWAP1 DUP2 DUP2 MSTORE PUSH1 0x20 ADD DUP3 DUP1 SLOAD PUSH2 0x1CCF SWAP1 PUSH2 0x4AB7 JUMP JUMPDEST DUP1 ISZERO PUSH2 0x1D1C JUMPI DUP1 PUSH1 0x1F LT PUSH2 0x1CF1 JUMPI PUSH2 0x100 DUP1 DUP4 SLOAD DIV MUL DUP4 MSTORE SWAP2 PUSH1 0x20 ADD SWAP2 PUSH2 0x1D1C JUMP JUMPDEST DUP3 ADD SWAP2 SWAP1 PUSH1 0x0 MSTORE PUSH1 0x20 PUSH1 0x0 KECCAK256 SWAP1 JUMPDEST DUP2 SLOAD DUP2 MSTORE SWAP1 PUSH1 0x1 ADD SWAP1 PUSH1 0x20 ADD DUP1 DUP4 GT PUSH2 0x1CFF JUMPI DUP3 SWAP1 SUB PUSH1 0x1F AND DUP3 ADD SWAP2 JUMPDEST POP POP POP POP POP SWAP1 DUP1 PUSH1 0x5 ADD SLOAD SWAP1 POP DUP7 JUMP JUMPDEST PUSH2 0x1D34 PUSH2 0x4212 JUMP JUMPDEST PUSH1 0x0 PUSH2 0x1D3F DUP4 PUSH2 0x2587 JUMP JUMPDEST SWAP1 POP PUSH1 0x0 PUSH2 0x1D58 PUSH1 0x5 PUSH4 0x87ED0A64 PUSH1 0x51 DUP6 PUSH1 0x0 DUP1 PUSH2 0x2621 JUMP JUMPDEST SWAP1 POP PUSH2 0x1D63 DUP2 PUSH2 0x26FB JUMP JUMPDEST SWAP5 SWAP4 POP POP POP POP JUMP JUMPDEST PUSH1 0x40 DUP1 MLOAD DUP1 DUP3 ADD SWAP1 SWAP2 MSTORE PUSH1 0x0 DUP1 DUP3 MSTORE PUSH1 0x20 DUP3 ADD MSTORE PUSH1 0x0 PUSH2 0x1D93 DUP4 PUSH1 0x1 PUSH1 0x1 PUSH1 0x40 SHL SUB AND PUSH2 0x2755 JUMP JUMPDEST SWAP1 POP PUSH1 0x0 PUSH2 0x1DAD PUSH1 0x5 PUSH4 0x9904F2FF PUSH1 0x51 DUP6 PUSH1 0x0 PUSH1 0x1 PUSH2 0x2621 JUMP JUMPDEST SWAP1 POP PUSH2 0x1D63 DUP2 PUSH2 0x278D JUMP JUMPDEST CALLER PUSH1 0x5 PUSH1 0xFF PUSH1 0x98 SHL ADD EQ PUSH2 0x1DDE JUMPI PUSH1 0x40 MLOAD PUSH3 0x461BCD PUSH1 0xE5 SHL DUP2 MSTORE PUSH1 0x4 ADD PUSH2 0x36F SWAP1 PUSH2 0x509A JUMP JUMPDEST PUSH1 0x0 PUSH2 0x1DE9 DUP3 PUSH2 0x27F1 JUMP JUMPDEST SWAP1 POP PUSH1 0x0 PUSH2 0x1DFA DUP3 PUSH1 0x20 ADD MLOAD PUSH2 0x284D JUMP JUMPDEST DUP1 MLOAD MLOAD PUSH1 0x40 MLOAD SWAP2 SWAP3 POP SWAP1 PUSH1 0x0 SWAP1 PUSH1 0x7 SWAP1 PUSH2 0x1E15 SWAP1 DUP5 SWAP1 PUSH2 0x4B07 JUMP JUMPDEST SWAP1 DUP2 MSTORE PUSH1 0x40 DUP1 MLOAD SWAP2 DUP3 SWAP1 SUB PUSH1 0x20 SWAP1 DUP2 ADD DUP4 KECCAK256 PUSH1 0xC0 DUP5 ADD DUP4 MSTORE DUP1 SLOAD DUP5 MSTORE PUSH1 0x1 DUP2 ADD SLOAD PUSH1 0xFF AND ISZERO ISZERO SWAP2 DUP5 ADD SWAP2 SWAP1 SWAP2 MSTORE PUSH1 0x2 DUP2 ADD DUP1 SLOAD SWAP2 SWAP3 DUP5 ADD SWAP2 PUSH2 0x1E56 SWAP1 PUSH2 0x4AB7 JUMP JUMPDEST DUP1 PUSH1 0x1F ADD PUSH1 0x20 DUP1 SWAP2 DIV MUL PUSH1 0x20 ADD PUSH1 0x40 MLOAD SWAP1 DUP2 ADD PUSH1 0x40 MSTORE DUP1 SWAP3 SWAP2 SWAP1 DUP2 DUP2 MSTORE PUSH1 0x20 ADD DUP3 DUP1 SLOAD PUSH2 0x1E82 SWAP1 PUSH2 0x4AB7 JUMP JUMPDEST DUP1 ISZERO PUSH2 0x1ECF JUMPI DUP1 PUSH1 0x1F LT PUSH2 0x1EA4 JUMPI PUSH2 0x100 DUP1 DUP4 SLOAD DIV MUL DUP4 MSTORE SWAP2 PUSH1 0x20 ADD SWAP2 PUSH2 0x1ECF JUMP JUMPDEST DUP3 ADD SWAP2 SWAP1 PUSH1 0x0 MSTORE PUSH1 0x20 PUSH1 0x0 KECCAK256 SWAP1 JUMPDEST DUP2 SLOAD DUP2 MSTORE SWAP1 PUSH1 0x1 ADD SWAP1 PUSH1 0x20 ADD DUP1 DUP4 GT PUSH2 0x1EB2 JUMPI DUP3 SWAP1 SUB PUSH1 0x1F AND DUP3 ADD SWAP2 JUMPDEST POP POP POP SWAP2 DUP4 MSTORE POP POP PUSH1 0x3 DUP3 ADD SLOAD PUSH1 0xFF DUP1 DUP3 AND ISZERO ISZERO PUSH1 0x20 DUP5 ADD MSTORE PUSH1 0x1 PUSH1 0x1 PUSH1 0x40 SHL SUB PUSH2 0x100 DUP4 DIV AND PUSH1 0x40 DUP5 ADD MSTORE PUSH1 0x60 SWAP1 SWAP3 ADD SWAP2 PUSH1 0x1 PUSH1 0x48 SHL SWAP1 SWAP2 DIV AND PUSH1 0x4 DUP2 GT ISZERO PUSH2 0x1F1B JUMPI PUSH2 0x1F1B PUSH2 0x4509 JUMP JUMPDEST PUSH1 0x4 DUP2 GT ISZERO PUSH2 0x1F2C JUMPI PUSH2 0x1F2C PUSH2 0x4509 JUMP JUMPDEST DUP2 MSTORE POP POP SWAP1 POP DUP1 PUSH1 0x20 ADD MLOAD PUSH2 0x1F53 JUMPI PUSH1 0x40 MLOAD PUSH3 0x461BCD PUSH1 0xE5 SHL DUP2 MSTORE PUSH1 0x4 ADD PUSH2 0x36F SWAP1 PUSH2 0x50E1 JUMP JUMPDEST DUP1 PUSH1 0x60 ADD MLOAD ISZERO PUSH2 0x1F75 JUMPI PUSH1 0x40 MLOAD PUSH3 0x461BCD PUSH1 0xE5 SHL DUP2 MSTORE PUSH1 0x4 ADD PUSH2 0x36F SWAP1 PUSH2 0x512B JUMP JUMPDEST PUSH1 0x0 PUSH2 0x1F9F PUSH1 0x7 DUP5 PUSH1 0x40 MLOAD PUSH2 0x1F8A SWAP2 SWAP1 PUSH2 0x4B07 JUMP JUMPDEST SWAP1 DUP2 MSTORE PUSH1 0x40 MLOAD SWAP1 DUP2 SWAP1 SUB PUSH1 0x20 ADD SWAP1 KECCAK256 SLOAD PUSH2 0x299A JUMP JUMPDEST SWAP1 POP DUP1 PUSH1 0x40 ADD MLOAD ISZERO ISZERO DUP5 PUSH1 0x40 ADD MLOAD ISZERO ISZERO EQ PUSH2 0x1FFB JUMPI PUSH1 0x40 MLOAD PUSH3 0x461BCD PUSH1 0xE5 SHL DUP2 MSTORE PUSH1 0x20 PUSH1 0x4 DUP3 ADD MSTORE PUSH1 0x1C PUSH1 0x24 DUP3 ADD MSTORE PUSH28 0xECCAE4D2CCD2CAC8BEC8CAC2D840E0C2E4C2DA40DAD2E6DAC2E8C6D PUSH1 0x23 SHL PUSH1 0x44 DUP3 ADD MSTORE PUSH1 0x64 ADD PUSH2 0x36F JUMP JUMPDEST PUSH1 0x1 SLOAD PUSH2 0x100 DUP6 ADD MLOAD PUSH1 0x40 MLOAD PUSH4 0x41DF65C7 PUSH1 0xE1 SHL DUP2 MSTORE PUSH1 0x0 SWAP3 DUP4 SWAP3 PUSH1 0x1 PUSH1 0x1 PUSH1 0xA0 SHL SUB SWAP1 SWAP2 AND SWAP2 PUSH4 0x83BECB8E SWAP2 PUSH2 0x2034 SWAP2 PUSH1 0x4 ADD PUSH2 0x4A6A JUMP JUMPDEST PUSH1 0x40 DUP1 MLOAD DUP1 DUP4 SUB DUP2 DUP7 GAS STATICCALL ISZERO DUP1 ISZERO PUSH2 0x2050 JUMPI RETURNDATASIZE PUSH1 0x0 DUP1 RETURNDATACOPY RETURNDATASIZE PUSH1 0x0 REVERT JUMPDEST POP POP POP POP PUSH1 0x40 MLOAD RETURNDATASIZE PUSH1 0x1F NOT PUSH1 0x1F DUP3 ADD AND DUP3 ADD DUP1 PUSH1 0x40 MSTORE POP DUP2 ADD SWAP1 PUSH2 0x2074 SWAP2 SWAP1 PUSH2 0x5186 JUMP JUMPDEST SWAP2 POP SWAP2 POP DUP1 ISZERO PUSH2 0x2096 JUMPI PUSH1 0x40 MLOAD PUSH3 0x461BCD PUSH1 0xE5 SHL DUP2 MSTORE PUSH1 0x4 ADD PUSH2 0x36F SWAP1 PUSH2 0x51AB JUMP JUMPDEST PUSH1 0x1 SLOAD PUSH2 0x140 DUP8 ADD MLOAD PUSH1 0x40 MLOAD PUSH4 0x41DF65C7 PUSH1 0xE1 SHL DUP2 MSTORE PUSH1 0x0 SWAP3 DUP4 SWAP3 PUSH1 0x1 PUSH1 0x1 PUSH1 0xA0 SHL SUB SWAP1 SWAP2 AND SWAP2 PUSH4 0x83BECB8E SWAP2 PUSH2 0x20CF SWAP2 PUSH1 0x4 ADD PUSH2 0x4A6A JUMP JUMPDEST PUSH1 0x40 DUP1 MLOAD DUP1 DUP4 SUB DUP2 DUP7 GAS STATICCALL ISZERO DUP1 ISZERO PUSH2 0x20EB JUMPI RETURNDATASIZE PUSH1 0x0 DUP1 RETURNDATACOPY RETURNDATASIZE PUSH1 0x0 REVERT JUMPDEST POP POP POP POP PUSH1 0x40 MLOAD RETURNDATASIZE PUSH1 0x1F NOT PUSH1 0x1F DUP3 ADD AND DUP3 ADD DUP1 PUSH1 0x40 MSTORE POP DUP2 ADD SWAP1 PUSH2 0x210F SWAP2 SWAP1 PUSH2 0x5186 JUMP JUMPDEST SWAP2 POP SWAP2 POP DUP1 ISZERO PUSH2 0x2131 JUMPI PUSH1 0x40 MLOAD PUSH3 0x461BCD PUSH1 0xE5 SHL DUP2 MSTORE PUSH1 0x4 ADD PUSH2 0x36F SWAP1 PUSH2 0x51AB JUMP JUMPDEST DUP5 PUSH1 0xC0 ADD MLOAD DUP5 GT ISZERO PUSH2 0x2197 JUMPI PUSH1 0x40 MLOAD PUSH3 0x461BCD PUSH1 0xE5 SHL DUP2 MSTORE PUSH1 0x20 PUSH1 0x4 DUP3 ADD MSTORE PUSH1 0x29 PUSH1 0x24 DUP3 ADD MSTORE PUSH32 0x73746F726167652070726963652067726561746572207468616E207265717565 PUSH1 0x44 DUP3 ADD MSTORE PUSH9 0x1CDD08185B5BDD5B9D PUSH1 0xBA SHL PUSH1 0x64 DUP3 ADD MSTORE PUSH1 0x84 ADD PUSH2 0x36F JUMP JUMPDEST DUP5 PUSH2 0x100 ADD MLOAD DUP3 GT ISZERO PUSH2 0x2202 JUMPI PUSH1 0x40 MLOAD PUSH3 0x461BCD PUSH1 0xE5 SHL DUP2 MSTORE PUSH1 0x20 PUSH1 0x4 DUP3 ADD MSTORE PUSH1 0x2D PUSH1 0x24 DUP3 ADD MSTORE PUSH32 0x636C69656E7420636F6C6C61746572616C2067726561746572207468616E2072 PUSH1 0x44 DUP3 ADD MSTORE PUSH13 0x195C5D595CDD08185B5BDD5B9D PUSH1 0x9A SHL PUSH1 0x64 DUP3 ADD MSTORE PUSH1 0x84 ADD PUSH2 0x36F JUMP JUMPDEST POP POP POP POP POP POP POP POP POP POP JUMP JUMPDEST PUSH2 0x2216 PUSH2 0x422A JUMP JUMPDEST DUP1 MLOAD PUSH2 0x2222 SWAP1 DUP4 PUSH2 0x2DD8 JUMP JUMPDEST POP PUSH1 0x0 PUSH1 0x20 DUP3 ADD MSTORE SWAP2 SWAP1 POP JUMP JUMPDEST PUSH2 0x12FA DUP3 DUP3 PUSH2 0x223F JUMPI PUSH1 0x14 PUSH2 0x2E42 JUMP JUMPDEST PUSH1 0x15 PUSH2 0x2E42 JUMP JUMPDEST PUSH1 0x60 DUP2 PUSH1 0x20 ADD MLOAD PUSH1 0x0 EQ PUSH2 0x228B JUMPI PUSH1 0x40 MLOAD PUSH3 0x461BCD PUSH1 0xE5 SHL DUP2 MSTORE PUSH1 0x20 PUSH1 0x4 DUP3 ADD MSTORE PUSH1 0xC PUSH1 0x24 DUP3 ADD MSTORE PUSH12 0x24B73B30B634B21021A127A9 PUSH1 0xA1 SHL PUSH1 0x44 DUP3 ADD MSTORE PUSH1 0x64 ADD PUSH2 0x36F JUMP JUMPDEST POP MLOAD MLOAD SWAP1 JUMP JUMPDEST CALLER PUSH1 0x5 PUSH1 0xFF PUSH1 0x98 SHL ADD EQ PUSH2 0x22B7 JUMPI PUSH1 0x40 MLOAD PUSH3 0x461BCD PUSH1 0xE5 SHL DUP2 MSTORE PUSH1 0x4 ADD PUSH2 0x36F SWAP1 PUSH2 0x509A JUMP JUMPDEST PUSH1 0x0 PUSH2 0x22C2 DUP3 PUSH2 0x2E56 JUMP JUMPDEST SWAP1 POP PUSH1 0x0 PUSH2 0x22D3 DUP3 PUSH1 0x0 ADD MLOAD PUSH2 0x284D JUMP JUMPDEST DUP1 MLOAD MLOAD PUSH1 0x40 MLOAD SWAP2 SWAP3 POP PUSH1 0x0 SWAP2 PUSH1 0x7 SWAP2 PUSH2 0x22EB SWAP2 PUSH2 0x4B07 JUMP JUMPDEST SWAP1 DUP2 MSTORE PUSH1 0x40 DUP1 MLOAD SWAP2 DUP3 SWAP1 SUB PUSH1 0x20 SWAP1 DUP2 ADD DUP4 KECCAK256 PUSH1 0xC0 DUP5 ADD DUP4 MSTORE DUP1 SLOAD DUP5 MSTORE PUSH1 0x1 DUP2 ADD SLOAD PUSH1 0xFF AND ISZERO ISZERO SWAP2 DUP5 ADD SWAP2 SWAP1 SWAP2 MSTORE PUSH1 0x2 DUP2 ADD DUP1 SLOAD SWAP2 SWAP3 DUP5 ADD SWAP2 PUSH2 0x232C SWAP1 PUSH2 0x4AB7 JUMP JUMPDEST DUP1 PUSH1 0x1F ADD PUSH1 0x20 DUP1 SWAP2 DIV MUL PUSH1 0x20 ADD PUSH1 0x40 MLOAD SWAP1 DUP2 ADD PUSH1 0x40 MSTORE DUP1 SWAP3 SWAP2 SWAP1 DUP2 DUP2 MSTORE PUSH1 0x20 ADD DUP3 DUP1 SLOAD PUSH2 0x2358 SWAP1 PUSH2 0x4AB7 JUMP JUMPDEST DUP1 ISZERO PUSH2 0x23A5 JUMPI DUP1 PUSH1 0x1F LT PUSH2 0x237A JUMPI PUSH2 0x100 DUP1 DUP4 SLOAD DIV MUL DUP4 MSTORE SWAP2 PUSH1 0x20 ADD SWAP2 PUSH2 0x23A5 JUMP JUMPDEST DUP3 ADD SWAP2 SWAP1 PUSH1 0x0 MSTORE PUSH1 0x20 PUSH1 0x0 KECCAK256 SWAP1 JUMPDEST DUP2 SLOAD DUP2 MSTORE SWAP1 PUSH1 0x1 ADD SWAP1 PUSH1 0x20 ADD DUP1 DUP4 GT PUSH2 0x2388 JUMPI DUP3 SWAP1 SUB PUSH1 0x1F AND DUP3 ADD SWAP2 JUMPDEST POP POP POP SWAP2 DUP4 MSTORE POP POP PUSH1 0x3 DUP3 ADD SLOAD PUSH1 0xFF DUP1 DUP3 AND ISZERO ISZERO PUSH1 0x20 DUP5 ADD MSTORE PUSH1 0x1 PUSH1 0x1 PUSH1 0x40 SHL SUB PUSH2 0x100 DUP4 DIV AND PUSH1 0x40 DUP5 ADD MSTORE PUSH1 0x60 SWAP1 SWAP3 ADD SWAP2 PUSH1 0x1 PUSH1 0x48 SHL SWAP1 SWAP2 DIV AND PUSH1 0x4 DUP2 GT ISZERO PUSH2 0x23F1 JUMPI PUSH2 0x23F1 PUSH2 0x4509 JUMP JUMPDEST PUSH1 0x4 DUP2 GT ISZERO PUSH2 0x2402 JUMPI PUSH2 0x2402 PUSH2 0x4509 JUMP JUMPDEST DUP2 MSTORE POP POP SWAP1 POP DUP1 PUSH1 0x20 ADD MLOAD PUSH2 0x2429 JUMPI PUSH1 0x40 MLOAD PUSH3 0x461BCD PUSH1 0xE5 SHL DUP2 MSTORE PUSH1 0x4 ADD PUSH2 0x36F SWAP1 PUSH2 0x50E1 JUMP JUMPDEST DUP1 PUSH1 0x60 ADD MLOAD ISZERO PUSH2 0x244B JUMPI PUSH1 0x40 MLOAD PUSH3 0x461BCD PUSH1 0xE5 SHL DUP2 MSTORE PUSH1 0x4 ADD PUSH2 0x36F SWAP1 PUSH2 0x512B JUMP JUMPDEST DUP2 MLOAD MLOAD PUSH1 0x40 DUP3 ADD MSTORE PUSH1 0x1 PUSH1 0x60 DUP3 ADD MSTORE PUSH1 0x20 DUP4 ADD MLOAD PUSH1 0x1 PUSH1 0x1 PUSH1 0x40 SHL SUB AND PUSH1 0x80 DUP3 ADD MSTORE PUSH1 0x2 PUSH1 0xA0 DUP3 ADD DUP2 SWAP1 MSTORE POP DUP2 MLOAD MLOAD PUSH1 0x40 MLOAD DUP3 SWAP2 PUSH1 0x7 SWAP2 PUSH2 0x248C SWAP2 SWAP1 PUSH2 0x4B07 JUMP JUMPDEST SWAP1 DUP2 MSTORE PUSH1 0x40 DUP1 MLOAD PUSH1 0x20 SWAP3 DUP2 SWAP1 SUB DUP4 ADD SWAP1 KECCAK256 DUP4 MLOAD DUP2 SSTORE SWAP2 DUP4 ADD MLOAD PUSH1 0x1 DUP4 ADD DUP1 SLOAD PUSH1 0xFF NOT AND SWAP2 ISZERO ISZERO SWAP2 SWAP1 SWAP2 OR SWAP1 SSTORE DUP3 ADD MLOAD PUSH1 0x2 DUP3 ADD SWAP1 PUSH2 0x24CA SWAP1 DUP3 PUSH2 0x4FA7 JUMP JUMPDEST POP PUSH1 0x60 DUP3 ADD MLOAD PUSH1 0x3 DUP3 ADD DUP1 SLOAD PUSH1 0x80 DUP6 ADD MLOAD PUSH1 0x1 PUSH1 0x1 PUSH1 0x40 SHL SUB AND PUSH2 0x100 MUL PUSH2 0x100 PUSH1 0x1 PUSH1 0x48 SHL SUB NOT SWAP4 ISZERO ISZERO SWAP4 SWAP1 SWAP4 AND PUSH1 0x1 PUSH1 0x1 PUSH1 0x48 SHL SUB NOT SWAP1 SWAP2 AND OR SWAP2 SWAP1 SWAP2 OR DUP1 DUP3 SSTORE PUSH1 0xA0 DUP5 ADD MLOAD SWAP2 SWAP1 PUSH1 0xFF PUSH1 0x48 SHL NOT AND PUSH1 0x1 PUSH1 0x48 SHL DUP4 PUSH1 0x4 DUP2 GT ISZERO PUSH2 0x2532 JUMPI PUSH2 0x2532 PUSH2 0x4509 JUMP JUMPDEST MUL OR SWAP1 SSTORE POP POP POP POP POP POP POP JUMP JUMPDEST PUSH1 0x0 PUSH2 0x254A DUP4 PUSH2 0x2EBC JUMP JUMPDEST SWAP1 POP PUSH1 0x0 PUSH2 0x2563 PUSH1 0x5 PUSH4 0x3105F1A6 PUSH1 0x51 DUP6 DUP8 PUSH1 0x0 PUSH2 0x2621 JUMP JUMPDEST SWAP1 POP DUP1 MLOAD PUSH1 0x0 EQ PUSH2 0x197F JUMPI PUSH1 0x40 MLOAD PUSH4 0xE749907 PUSH1 0xE0 SHL DUP2 MSTORE PUSH1 0x4 ADD PUSH1 0x40 MLOAD DUP1 SWAP2 SUB SWAP1 REVERT JUMPDEST PUSH1 0x60 PUSH1 0x0 DUP1 PUSH2 0x2599 DUP5 PUSH1 0x20 ADD MLOAD PUSH2 0x2EEA JUMP JUMPDEST SWAP1 POP PUSH2 0x25A5 PUSH1 0x2 PUSH2 0x3009 JUMP JUMPDEST PUSH2 0x25AF SWAP1 DUP4 PUSH2 0x5228 JUMP JUMPDEST DUP5 MLOAD MLOAD SWAP1 SWAP3 POP PUSH2 0x25BE SWAP1 PUSH2 0x3057 JUMP JUMPDEST PUSH2 0x25C8 SWAP1 DUP4 PUSH2 0x5228 JUMP JUMPDEST SWAP2 POP PUSH2 0x25D3 DUP2 PUSH2 0x3057 JUMP JUMPDEST PUSH2 0x25DD SWAP1 DUP4 PUSH2 0x5228 JUMP JUMPDEST SWAP2 POP PUSH1 0x0 PUSH2 0x25EA DUP4 PUSH2 0x220E JUMP JUMPDEST SWAP1 POP PUSH2 0x25F7 DUP2 PUSH1 0x2 PUSH2 0x306F JUMP JUMPDEST DUP5 MLOAD MLOAD PUSH2 0x2605 SWAP1 DUP3 SWAP1 PUSH2 0x307B JUMP JUMPDEST PUSH2 0x260F DUP2 DUP4 PUSH2 0x307B JUMP JUMPDEST PUSH2 0x2618 DUP2 PUSH2 0x2246 JUMP JUMPDEST SWAP6 SWAP5 POP POP POP POP POP JUMP JUMPDEST PUSH1 0x60 PUSH2 0x2634 PUSH1 0x5 PUSH1 0x7F PUSH1 0x99 SHL ADD DUP5 PUSH2 0x3094 JUMP JUMPDEST PUSH1 0x0 DUP1 PUSH1 0x5 PUSH1 0x7F PUSH1 0x99 SHL ADD DUP9 DUP7 DUP7 PUSH2 0x264D JUMPI PUSH1 0x0 PUSH2 0x2650 JUMP JUMPDEST PUSH1 0x1 JUMPDEST DUP11 DUP11 DUP15 PUSH1 0x40 MLOAD PUSH1 0x20 ADD PUSH2 0x2668 SWAP7 SWAP6 SWAP5 SWAP4 SWAP3 SWAP2 SWAP1 PUSH2 0x523B JUMP JUMPDEST PUSH1 0x40 DUP1 MLOAD PUSH1 0x1F NOT DUP2 DUP5 SUB ADD DUP2 MSTORE SWAP1 DUP3 SWAP1 MSTORE PUSH2 0x2682 SWAP2 PUSH2 0x4B07 JUMP JUMPDEST PUSH1 0x0 PUSH1 0x40 MLOAD DUP1 DUP4 SUB DUP2 DUP6 GAS DELEGATECALL SWAP2 POP POP RETURNDATASIZE DUP1 PUSH1 0x0 DUP2 EQ PUSH2 0x26BD JUMPI PUSH1 0x40 MLOAD SWAP2 POP PUSH1 0x1F NOT PUSH1 0x3F RETURNDATASIZE ADD AND DUP3 ADD PUSH1 0x40 MSTORE RETURNDATASIZE DUP3 MSTORE RETURNDATASIZE PUSH1 0x0 PUSH1 0x20 DUP5 ADD RETURNDATACOPY PUSH2 0x26C2 JUMP JUMPDEST PUSH1 0x60 SWAP2 POP JUMPDEST POP SWAP2 POP SWAP2 POP DUP2 PUSH2 0x26E5 JUMPI PUSH1 0x40 MLOAD PUSH4 0x8A7DB5BF PUSH1 0xE0 SHL DUP2 MSTORE PUSH1 0x4 ADD PUSH1 0x40 MLOAD DUP1 SWAP2 SUB SWAP1 REVERT JUMPDEST PUSH2 0x26EE DUP2 PUSH2 0x30E2 JUMP JUMPDEST SWAP10 SWAP9 POP POP POP POP POP POP POP POP POP JUMP JUMPDEST PUSH2 0x2703 PUSH2 0x4212 JUMP JUMPDEST PUSH1 0x60 PUSH1 0x0 DUP1 DUP5 MLOAD GT ISZERO PUSH2 0x272F JUMPI PUSH2 0x271A DUP5 DUP3 PUSH2 0x31C5 JUMP JUMPDEST DUP2 MLOAD SWAP2 SWAP4 POP SWAP2 POP ISZERO PUSH2 0x272F JUMPI PUSH2 0x1D63 DUP3 PUSH2 0x337B JUMP JUMPDEST POP POP PUSH1 0x40 DUP1 MLOAD PUSH1 0x0 DUP2 DUP4 ADD DUP2 DUP2 MSTORE PUSH1 0x60 DUP4 ADD SWAP1 SWAP4 MSTORE SWAP2 DUP2 MSTORE PUSH1 0x20 DUP2 ADD SWAP2 SWAP1 SWAP2 MSTORE SWAP3 SWAP2 POP POP JUMP JUMPDEST PUSH1 0x60 PUSH1 0x0 PUSH2 0x276B DUP4 PUSH1 0x1 PUSH1 0x1 PUSH1 0x40 SHL SUB AND PUSH2 0x3009 JUMP JUMPDEST SWAP1 POP PUSH1 0x0 PUSH2 0x2778 DUP3 PUSH2 0x220E JUMP JUMPDEST SWAP1 POP PUSH2 0x2784 DUP2 DUP6 PUSH2 0x34CA JUMP JUMPDEST PUSH2 0x1D63 DUP2 PUSH2 0x2246 JUMP JUMPDEST PUSH1 0x40 DUP1 MLOAD DUP1 DUP3 ADD SWAP1 SWAP2 MSTORE PUSH1 0x0 DUP1 DUP3 MSTORE PUSH1 0x20 DUP3 ADD MSTORE PUSH1 0x0 DUP1 PUSH2 0x27AE DUP5 DUP3 PUSH2 0x34D6 JUMP JUMPDEST SWAP3 POP SWAP1 POP PUSH1 0x2 DUP2 EQ PUSH2 0x27C2 JUMPI PUSH2 0x27C2 PUSH2 0x528A JUMP JUMPDEST PUSH2 0x27CC DUP5 DUP4 PUSH2 0x3552 JUMP JUMPDEST PUSH1 0x7 SWAP2 SWAP1 SWAP2 SIGNEXTEND DUP5 MSTORE SWAP2 POP PUSH2 0x27E0 DUP5 DUP4 PUSH2 0x3552 JUMP JUMPDEST POP PUSH1 0x7 SIGNEXTEND PUSH1 0x20 DUP5 ADD MSTORE POP SWAP1 SWAP3 SWAP2 POP POP JUMP JUMPDEST PUSH1 0x40 DUP1 MLOAD DUP1 DUP3 ADD SWAP1 SWAP2 MSTORE PUSH1 0x60 DUP1 DUP3 MSTORE PUSH1 0x20 DUP3 ADD MSTORE PUSH1 0x0 DUP1 PUSH2 0x2812 DUP5 DUP3 PUSH2 0x34D6 JUMP JUMPDEST SWAP3 POP SWAP1 POP PUSH1 0x2 DUP2 EQ PUSH2 0x2826 JUMPI PUSH2 0x2826 PUSH2 0x528A JUMP JUMPDEST PUSH2 0x2830 DUP5 DUP4 PUSH2 0x31C5 JUMP JUMPDEST SWAP1 DUP5 MSTORE SWAP2 POP PUSH2 0x283F DUP5 DUP4 PUSH2 0x31C5 JUMP JUMPDEST POP PUSH1 0x20 DUP5 ADD MSTORE POP SWAP1 SWAP3 SWAP2 POP POP JUMP JUMPDEST PUSH2 0x2855 PUSH2 0x424A JUMP JUMPDEST PUSH1 0x0 DUP1 PUSH1 0x60 PUSH2 0x2864 DUP6 DUP4 PUSH2 0x34D6 JUMP JUMPDEST SWAP4 POP SWAP2 POP PUSH1 0xB DUP3 EQ PUSH2 0x2878 JUMPI PUSH2 0x2878 PUSH2 0x528A JUMP JUMPDEST PUSH2 0x2882 DUP6 DUP5 PUSH2 0x356C JUMP JUMPDEST SWAP1 DUP6 MSTORE SWAP3 POP PUSH2 0x2891 DUP6 DUP5 PUSH2 0x37BA JUMP JUMPDEST PUSH1 0x1 PUSH1 0x1 PUSH1 0x40 SHL SUB SWAP1 SWAP2 AND PUSH1 0x20 DUP7 ADD MSTORE SWAP3 POP PUSH2 0x28AD DUP6 DUP5 PUSH2 0x3839 JUMP JUMPDEST SWAP1 ISZERO ISZERO PUSH1 0x40 DUP7 ADD MSTORE SWAP3 POP PUSH2 0x28C1 DUP6 DUP5 PUSH2 0x31C5 JUMP JUMPDEST SWAP4 POP SWAP1 POP PUSH2 0x28CE DUP2 PUSH2 0x38D4 JUMP JUMPDEST PUSH1 0x60 DUP6 ADD MSTORE PUSH2 0x28DD DUP6 DUP5 PUSH2 0x31C5 JUMP JUMPDEST SWAP4 POP SWAP1 POP PUSH2 0x28EA DUP2 PUSH2 0x38D4 JUMP JUMPDEST PUSH1 0x80 DUP6 ADD MSTORE PUSH2 0x28F9 DUP6 DUP5 PUSH2 0x3910 JUMP JUMPDEST PUSH1 0xA0 DUP7 ADD SWAP2 SWAP1 SWAP2 MSTORE SWAP3 POP PUSH2 0x290D DUP6 DUP5 PUSH2 0x3552 JUMP JUMPDEST PUSH1 0x7 SWAP2 SWAP1 SWAP2 SIGNEXTEND PUSH1 0xC0 DUP7 ADD MSTORE SWAP3 POP PUSH2 0x2924 DUP6 DUP5 PUSH2 0x3552 JUMP JUMPDEST PUSH1 0x7 SWAP2 SWAP1 SWAP2 SIGNEXTEND PUSH1 0xE0 DUP7 ADD MSTORE SWAP3 POP PUSH1 0x60 PUSH2 0x293D DUP7 DUP6 PUSH2 0x31C5 JUMP JUMPDEST SWAP5 POP SWAP1 POP PUSH2 0x294A DUP2 PUSH2 0x337B JUMP JUMPDEST PUSH2 0x100 DUP7 ADD MSTORE PUSH1 0x60 PUSH2 0x295C DUP8 DUP7 PUSH2 0x31C5 JUMP JUMPDEST SWAP6 POP SWAP1 POP PUSH2 0x2969 DUP2 PUSH2 0x337B JUMP JUMPDEST PUSH2 0x120 DUP8 ADD MSTORE PUSH1 0x60 PUSH2 0x297B DUP9 DUP8 PUSH2 0x31C5 JUMP JUMPDEST SWAP7 POP SWAP1 POP PUSH2 0x2988 DUP2 PUSH2 0x337B JUMP JUMPDEST PUSH2 0x140 DUP9 ADD MSTORE POP SWAP5 SWAP7 SWAP6 POP POP POP POP POP POP JUMP JUMPDEST PUSH2 0x2A1C PUSH1 0x40 DUP1 MLOAD PUSH2 0x180 DUP2 ADD DUP3 MSTORE PUSH1 0x60 DUP1 DUP3 MSTORE PUSH1 0x0 PUSH1 0x20 DUP1 DUP5 ADD DUP3 SWAP1 MSTORE DUP4 DUP6 ADD DUP3 SWAP1 MSTORE DUP3 DUP5 ADD DUP4 SWAP1 MSTORE PUSH1 0x80 DUP1 DUP6 ADD DUP4 SWAP1 MSTORE PUSH1 0xA0 DUP6 ADD DUP4 SWAP1 MSTORE PUSH1 0xC0 DUP6 ADD DUP4 SWAP1 MSTORE PUSH1 0xE0 DUP6 ADD DUP4 SWAP1 MSTORE PUSH2 0x100 DUP6 ADD DUP4 SWAP1 MSTORE PUSH2 0x120 DUP6 ADD DUP5 SWAP1 MSTORE PUSH2 0x140 DUP6 ADD DUP4 SWAP1 MSTORE DUP6 MLOAD SWAP1 DUP2 ADD DUP7 MSTORE DUP4 DUP2 MSTORE SWAP1 DUP2 ADD DUP3 SWAP1 MSTORE SWAP4 DUP5 ADD DUP2 SWAP1 MSTORE SWAP1 DUP4 ADD MSTORE SWAP1 PUSH2 0x160 DUP3 ADD MSTORE SWAP1 JUMP JUMPDEST PUSH1 0x0 DUP3 DUP2 MSTORE PUSH1 0x3 PUSH1 0x20 SWAP1 DUP2 MSTORE PUSH1 0x40 SWAP2 DUP3 SWAP1 KECCAK256 DUP3 MLOAD DUP1 DUP5 ADD SWAP1 SWAP4 MSTORE DUP1 SLOAD DUP4 MSTORE PUSH1 0x1 ADD SLOAD PUSH1 0xFF AND ISZERO ISZERO SWAP1 DUP3 ADD DUP2 SWAP1 MSTORE PUSH2 0x2A90 JUMPI PUSH1 0x40 MLOAD PUSH3 0x461BCD PUSH1 0xE5 SHL DUP2 MSTORE PUSH1 0x20 PUSH1 0x4 DUP3 ADD MSTORE PUSH1 0x18 PUSH1 0x24 DUP3 ADD MSTORE PUSH24 0x70726F706F73616C4964206E6F7420617661696C61626C65 PUSH1 0x40 SHL PUSH1 0x44 DUP3 ADD MSTORE PUSH1 0x64 ADD PUSH2 0x36F JUMP JUMPDEST PUSH1 0x4 DUP2 PUSH1 0x0 ADD MLOAD DUP2 SLOAD DUP2 LT PUSH2 0x2AA7 JUMPI PUSH2 0x2AA7 PUSH2 0x4AF1 JUMP JUMPDEST SWAP1 PUSH1 0x0 MSTORE PUSH1 0x20 PUSH1 0x0 KECCAK256 SWAP1 PUSH1 0xB MUL ADD PUSH1 0x40 MLOAD DUP1 PUSH2 0x180 ADD PUSH1 0x40 MSTORE SWAP1 DUP2 PUSH1 0x0 DUP3 ADD DUP1 SLOAD PUSH2 0x2AD1 SWAP1 PUSH2 0x4AB7 JUMP JUMPDEST DUP1 PUSH1 0x1F ADD PUSH1 0x20 DUP1 SWAP2 DIV MUL PUSH1 0x20 ADD PUSH1 0x40 MLOAD SWAP1 DUP2 ADD PUSH1 0x40 MSTORE DUP1 SWAP3 SWAP2 SWAP1 DUP2 DUP2 MSTORE PUSH1 0x20 ADD DUP3 DUP1 SLOAD PUSH2 0x2AFD SWAP1 PUSH2 0x4AB7 JUMP JUMPDEST DUP1 ISZERO PUSH2 0x2B4A JUMPI DUP1 PUSH1 0x1F LT PUSH2 0x2B1F JUMPI PUSH2 0x100 DUP1 DUP4 SLOAD DIV MUL DUP4 MSTORE SWAP2 PUSH1 0x20 ADD SWAP2 PUSH2 0x2B4A JUMP JUMPDEST DUP3 ADD SWAP2 SWAP1 PUSH1 0x0 MSTORE PUSH1 0x20 PUSH1 0x0 KECCAK256 SWAP1 JUMPDEST DUP2 SLOAD DUP2 MSTORE SWAP1 PUSH1 0x1 ADD SWAP1 PUSH1 0x20 ADD DUP1 DUP4 GT PUSH2 0x2B2D JUMPI DUP3 SWAP1 SUB PUSH1 0x1F AND DUP3 ADD SWAP2 JUMPDEST POP POP POP SWAP2 DUP4 MSTORE POP POP PUSH1 0x1 DUP3 ADD SLOAD PUSH1 0x1 PUSH1 0x1 PUSH1 0x40 SHL SUB DUP2 AND PUSH1 0x20 DUP4 ADD MSTORE PUSH1 0x1 PUSH1 0x40 SHL SWAP1 DIV PUSH1 0xFF AND ISZERO ISZERO PUSH1 0x40 DUP3 ADD MSTORE PUSH1 0x2 DUP3 ADD DUP1 SLOAD PUSH1 0x60 SWAP1 SWAP3 ADD SWAP2 PUSH2 0x2B8C SWAP1 PUSH2 0x4AB7 JUMP JUMPDEST DUP1 PUSH1 0x1F ADD PUSH1 0x20 DUP1 SWAP2 DIV MUL PUSH1 0x20 ADD PUSH1 0x40 MLOAD SWAP1 DUP2 ADD PUSH1 0x40 MSTORE DUP1 SWAP3 SWAP2 SWAP1 DUP2 DUP2 MSTORE PUSH1 0x20 ADD DUP3 DUP1 SLOAD PUSH2 0x2BB8 SWAP1 PUSH2 0x4AB7 JUMP JUMPDEST DUP1 ISZERO PUSH2 0x2C05 JUMPI DUP1 PUSH1 0x1F LT PUSH2 0x2BDA JUMPI PUSH2 0x100 DUP1 DUP4 SLOAD DIV MUL DUP4 MSTORE SWAP2 PUSH1 0x20 ADD SWAP2 PUSH2 0x2C05 JUMP JUMPDEST DUP3 ADD SWAP2 SWAP1 PUSH1 0x0 MSTORE PUSH1 0x20 PUSH1 0x0 KECCAK256 SWAP1 JUMPDEST DUP2 SLOAD DUP2 MSTORE SWAP1 PUSH1 0x1 ADD SWAP1 PUSH1 0x20 ADD DUP1 DUP4 GT PUSH2 0x2BE8 JUMPI DUP3 SWAP1 SUB PUSH1 0x1F AND DUP3 ADD SWAP2 JUMPDEST POP POP POP SWAP2 DUP4 MSTORE POP POP PUSH1 0x3 DUP3 ADD SLOAD PUSH1 0x7 DUP2 DUP2 SIGNEXTEND PUSH1 0x20 DUP5 ADD MSTORE PUSH1 0x1 PUSH1 0x40 SHL SWAP1 SWAP2 DIV DUP2 SIGNEXTEND PUSH1 0x40 DUP4 ADD MSTORE PUSH1 0x4 DUP4 ADD SLOAD PUSH1 0x60 DUP4 ADD MSTORE PUSH1 0x5 DUP4 ADD SLOAD PUSH1 0x80 DUP4 ADD MSTORE PUSH1 0x6 DUP4 ADD SLOAD PUSH1 0xA0 DUP4 ADD MSTORE DUP3 ADD DUP1 SLOAD PUSH1 0xC0 SWAP1 SWAP3 ADD SWAP2 PUSH2 0x2C5C SWAP1 PUSH2 0x4AB7 JUMP JUMPDEST DUP1 PUSH1 0x1F ADD PUSH1 0x20 DUP1 SWAP2 DIV MUL PUSH1 0x20 ADD PUSH1 0x40 MLOAD SWAP1 DUP2 ADD PUSH1 0x40 MSTORE DUP1 SWAP3 SWAP2 SWAP1 DUP2 DUP2 MSTORE PUSH1 0x20 ADD DUP3 DUP1 SLOAD PUSH2 0x2C88 SWAP1 PUSH2 0x4AB7 JUMP JUMPDEST DUP1 ISZERO PUSH2 0x2CD5 JUMPI DUP1 PUSH1 0x1F LT PUSH2 0x2CAA JUMPI PUSH2 0x100 DUP1 DUP4 SLOAD DIV MUL DUP4 MSTORE SWAP2 PUSH1 0x20 ADD SWAP2 PUSH2 0x2CD5 JUMP JUMPDEST DUP3 ADD SWAP2 SWAP1 PUSH1 0x0 MSTORE PUSH1 0x20 PUSH1 0x0 KECCAK256 SWAP1 JUMPDEST DUP2 SLOAD DUP2 MSTORE SWAP1 PUSH1 0x1 ADD SWAP1 PUSH1 0x20 ADD DUP1 DUP4 GT PUSH2 0x2CB8 JUMPI DUP3 SWAP1 SUB PUSH1 0x1F AND DUP3 ADD SWAP2 JUMPDEST POP POP POP SWAP2 DUP4 MSTORE POP POP PUSH1 0x8 DUP3 ADD SLOAD PUSH1 0x1 PUSH1 0x1 PUSH1 0x40 SHL SUB AND PUSH1 0x20 DUP3 ADD MSTORE PUSH1 0x40 DUP1 MLOAD PUSH1 0x80 DUP2 ADD DUP3 MSTORE PUSH1 0x9 DUP5 ADD DUP1 SLOAD SWAP3 SWAP1 SWAP4 ADD SWAP3 SWAP1 SWAP2 DUP3 SWAP1 DUP3 SWAP1 PUSH2 0x2D14 SWAP1 PUSH2 0x4AB7 JUMP JUMPDEST DUP1 PUSH1 0x1F ADD PUSH1 0x20 DUP1 SWAP2 DIV MUL PUSH1 0x20 ADD PUSH1 0x40 MLOAD SWAP1 DUP2 ADD PUSH1 0x40 MSTORE DUP1 SWAP3 SWAP2 SWAP1 DUP2 DUP2 MSTORE PUSH1 0x20 ADD DUP3 DUP1 SLOAD PUSH2 0x2D40 SWAP1 PUSH2 0x4AB7 JUMP JUMPDEST DUP1 ISZERO PUSH2 0x2D8D JUMPI DUP1 PUSH1 0x1F LT PUSH2 0x2D62 JUMPI PUSH2 0x100 DUP1 DUP4 SLOAD DIV MUL DUP4 MSTORE SWAP2 PUSH1 0x20 ADD SWAP2 PUSH2 0x2D8D JUMP JUMPDEST DUP3 ADD SWAP2 SWAP1 PUSH1 0x0 MSTORE PUSH1 0x20 PUSH1 0x0 KECCAK256 SWAP1 JUMPDEST DUP2 SLOAD DUP2 MSTORE SWAP1 PUSH1 0x1 ADD SWAP1 PUSH1 0x20 ADD DUP1 DUP4 GT PUSH2 0x2D70 JUMPI DUP3 SWAP1 SUB PUSH1 0x1F AND DUP3 ADD SWAP2 JUMPDEST POP POP POP SWAP2 DUP4 MSTORE POP POP PUSH1 0x1 SWAP2 SWAP1 SWAP2 ADD SLOAD PUSH1 0x1 PUSH1 0x1 PUSH1 0x40 SHL SUB DUP2 AND PUSH1 0x20 DUP4 ADD MSTORE PUSH1 0xFF PUSH1 0x1 PUSH1 0x40 SHL DUP3 DIV DUP2 AND ISZERO ISZERO PUSH1 0x40 DUP5 ADD MSTORE PUSH1 0x1 PUSH1 0x48 SHL SWAP1 SWAP2 DIV AND ISZERO ISZERO PUSH1 0x60 SWAP1 SWAP2 ADD MSTORE SWAP1 MSTORE POP SWAP4 SWAP3 POP POP POP JUMP JUMPDEST PUSH2 0x2DE0 PUSH2 0x42CD JUMP JUMPDEST PUSH2 0x2DEB PUSH1 0x20 DUP4 PUSH2 0x52A0 JUMP JUMPDEST ISZERO PUSH2 0x2E13 JUMPI PUSH2 0x2DFB PUSH1 0x20 DUP4 PUSH2 0x52A0 JUMP JUMPDEST PUSH2 0x2E06 SWAP1 PUSH1 0x20 PUSH2 0x52C2 JUMP JUMPDEST PUSH2 0x2E10 SWAP1 DUP4 PUSH2 0x5228 JUMP JUMPDEST SWAP2 POP JUMPDEST PUSH1 0x20 DUP1 DUP5 ADD DUP4 SWAP1 MSTORE PUSH1 0x40 MLOAD DUP1 DUP6 MSTORE PUSH1 0x0 DUP2 MSTORE SWAP1 DUP2 DUP5 ADD ADD DUP2 DUP2 LT ISZERO PUSH2 0x2E37 JUMPI PUSH1 0x0 DUP1 REVERT JUMPDEST PUSH1 0x40 MSTORE POP SWAP2 SWAP3 SWAP2 POP POP JUMP JUMPDEST DUP2 MLOAD PUSH2 0x2E51 SWAP1 PUSH1 0xE0 DUP4 OR PUSH2 0x3AA1 JUMP JUMPDEST POP POP POP JUMP JUMPDEST PUSH1 0x40 DUP1 MLOAD DUP1 DUP3 ADD SWAP1 SWAP2 MSTORE PUSH1 0x60 DUP2 MSTORE PUSH1 0x0 PUSH1 0x20 DUP3 ADD MSTORE PUSH1 0x0 DUP1 PUSH2 0x2E78 DUP5 DUP3 PUSH2 0x34D6 JUMP JUMPDEST SWAP3 POP SWAP1 POP PUSH1 0x2 DUP2 EQ PUSH2 0x2E8C JUMPI PUSH2 0x2E8C PUSH2 0x528A JUMP JUMPDEST PUSH2 0x2E96 DUP5 DUP4 PUSH2 0x31C5 JUMP JUMPDEST SWAP1 DUP5 MSTORE SWAP2 POP PUSH2 0x2EA5 DUP5 DUP4 PUSH2 0x37BA JUMP JUMPDEST POP PUSH1 0x1 PUSH1 0x1 PUSH1 0x40 SHL SUB AND PUSH1 0x20 DUP5 ADD MSTORE POP SWAP1 SWAP3 SWAP2 POP POP JUMP JUMPDEST PUSH1 0x60 PUSH1 0x0 PUSH2 0x2ECD DUP4 PUSH1 0x0 ADD MLOAD PUSH2 0x3057 JUMP JUMPDEST SWAP1 POP PUSH1 0x0 PUSH2 0x2EDA DUP3 PUSH2 0x220E JUMP JUMPDEST DUP5 MLOAD SWAP1 SWAP2 POP PUSH2 0x2784 SWAP1 DUP3 SWAP1 PUSH2 0x307B JUMP JUMPDEST DUP1 MLOAD MLOAD PUSH1 0x60 SWAP1 PUSH1 0x0 SWAP1 PUSH2 0x2EFE SWAP1 PUSH1 0x1 PUSH2 0x5228 JUMP JUMPDEST PUSH1 0x1 PUSH1 0x1 PUSH1 0x40 SHL SUB DUP2 GT ISZERO PUSH2 0x2F15 JUMPI PUSH2 0x2F15 PUSH2 0x43C2 JUMP JUMPDEST PUSH1 0x40 MLOAD SWAP1 DUP1 DUP3 MSTORE DUP1 PUSH1 0x1F ADD PUSH1 0x1F NOT AND PUSH1 0x20 ADD DUP3 ADD PUSH1 0x40 MSTORE DUP1 ISZERO PUSH2 0x2F3F JUMPI PUSH1 0x20 DUP3 ADD DUP2 DUP1 CALLDATASIZE DUP4 CALLDATACOPY ADD SWAP1 POP JUMPDEST POP SWAP1 POP DUP3 PUSH1 0x20 ADD MLOAD ISZERO ISZERO PUSH1 0x1 ISZERO ISZERO EQ PUSH2 0x2F59 JUMPI PUSH1 0x0 PUSH2 0x2F5F JUMP JUMPDEST PUSH1 0x1 PUSH1 0xF8 SHL JUMPDEST DUP2 PUSH1 0x0 DUP2 MLOAD DUP2 LT PUSH2 0x2F72 JUMPI PUSH2 0x2F72 PUSH2 0x4AF1 JUMP JUMPDEST PUSH1 0x20 ADD ADD SWAP1 PUSH1 0x1 PUSH1 0x1 PUSH1 0xF8 SHL SUB NOT AND SWAP1 DUP2 PUSH1 0x0 BYTE SWAP1 MSTORE8 POP PUSH1 0x1 PUSH1 0x0 JUMPDEST DUP5 MLOAD MLOAD DUP2 LT ISZERO PUSH2 0x3000 JUMPI DUP5 MLOAD DUP1 MLOAD DUP3 SWAP1 DUP2 LT PUSH2 0x2FAC JUMPI PUSH2 0x2FAC PUSH2 0x4AF1 JUMP JUMPDEST PUSH1 0x20 ADD ADD MLOAD PUSH1 0xF8 SHR PUSH1 0xF8 SHL DUP4 DUP4 DUP2 MLOAD DUP2 LT PUSH2 0x2FC9 JUMPI PUSH2 0x2FC9 PUSH2 0x4AF1 JUMP JUMPDEST PUSH1 0x20 ADD ADD SWAP1 PUSH1 0x1 PUSH1 0x1 PUSH1 0xF8 SHL SUB NOT AND SWAP1 DUP2 PUSH1 0x0 BYTE SWAP1 MSTORE8 POP DUP2 PUSH2 0x2FEA DUP2 PUSH2 0x52D5 JUMP JUMPDEST SWAP3 POP POP DUP1 DUP1 PUSH2 0x2FF8 SWAP1 PUSH2 0x52D5 JUMP JUMPDEST SWAP2 POP POP PUSH2 0x2F8E JUMP JUMPDEST POP SWAP1 SWAP4 SWAP3 POP POP POP JUMP JUMPDEST PUSH1 0x0 PUSH1 0x17 DUP3 GT PUSH2 0x301B JUMPI POP PUSH1 0x1 SWAP2 SWAP1 POP JUMP JUMPDEST PUSH1 0xFF DUP3 GT PUSH2 0x302B JUMPI POP PUSH1 0x2 SWAP2 SWAP1 POP JUMP JUMPDEST PUSH2 0xFFFF DUP3 GT PUSH2 0x303C JUMPI POP PUSH1 0x3 SWAP2 SWAP1 POP JUMP JUMPDEST PUSH4 0xFFFFFFFF DUP3 GT PUSH2 0x304F JUMPI POP PUSH1 0x5 SWAP2 SWAP1 POP JUMP JUMPDEST POP PUSH1 0x9 SWAP2 SWAP1 POP JUMP JUMPDEST PUSH1 0x0 DUP2 MLOAD PUSH2 0x3065 DUP4 MLOAD PUSH2 0x3009 JUMP JUMPDEST PUSH2 0x55A SWAP2 SWAP1 PUSH2 0x5228 JUMP JUMPDEST PUSH2 0x12FA DUP3 PUSH1 0x4 DUP4 PUSH2 0x3AFD JUMP JUMPDEST PUSH2 0x3088 DUP3 PUSH1 0x2 DUP4 MLOAD PUSH2 0x3B04 JUMP JUMPDEST DUP2 MLOAD PUSH2 0x2E51 SWAP1 DUP3 PUSH2 0x3C1D JUMP JUMPDEST SELFBALANCE DUP2 DUP2 LT ISZERO PUSH2 0x30C0 JUMPI PUSH1 0x40 MLOAD PUSH4 0x4787A103 PUSH1 0xE1 SHL DUP2 MSTORE PUSH1 0x4 DUP2 ADD DUP3 SWAP1 MSTORE PUSH1 0x24 DUP2 ADD DUP4 SWAP1 MSTORE PUSH1 0x44 ADD PUSH2 0x36F JUMP JUMPDEST DUP3 EXTCODEHASH ISZERO ISZERO DUP1 PUSH2 0x197F JUMPI PUSH1 0x40 MLOAD PUSH4 0x64D954B PUSH1 0xE4 SHL DUP2 MSTORE PUSH1 0x4 ADD PUSH1 0x40 MLOAD DUP1 SWAP2 SUB SWAP1 REVERT JUMPDEST PUSH1 0x60 PUSH1 0x0 DUP1 PUSH1 0x0 DUP5 DUP1 PUSH1 0x20 ADD SWAP1 MLOAD DUP2 ADD SWAP1 PUSH2 0x30FD SWAP2 SWAP1 PUSH2 0x52EE JUMP JUMPDEST SWAP2 SWAP5 POP SWAP3 POP SWAP1 POP PUSH1 0x1 PUSH1 0x1 PUSH1 0x40 SHL SUB DUP3 AND PUSH2 0x3137 JUMPI DUP1 MLOAD ISZERO PUSH2 0x3132 JUMPI PUSH1 0x40 MLOAD PUSH4 0xE749907 PUSH1 0xE0 SHL DUP2 MSTORE PUSH1 0x4 ADD PUSH1 0x40 MLOAD DUP1 SWAP2 SUB SWAP1 REVERT JUMPDEST PUSH2 0x31A3 JUMP JUMPDEST PUSH1 0x1 PUSH1 0x1 PUSH1 0x40 SHL SUB DUP3 AND PUSH1 0x51 EQ DUP1 PUSH2 0x3158 JUMPI POP PUSH1 0x1 PUSH1 0x1 PUSH1 0x40 SHL SUB DUP3 AND PUSH1 0x71 EQ JUMPDEST ISZERO PUSH2 0x317F JUMPI DUP1 MLOAD PUSH1 0x0 SUB PUSH2 0x3132 JUMPI PUSH1 0x40 MLOAD PUSH4 0xE749907 PUSH1 0xE0 SHL DUP2 MSTORE PUSH1 0x4 ADD PUSH1 0x40 MLOAD DUP1 SWAP2 SUB SWAP1 REVERT JUMPDEST PUSH1 0x40 MLOAD PUSH4 0xF1F6BCED PUSH1 0xE0 SHL DUP2 MSTORE PUSH1 0x1 PUSH1 0x1 PUSH1 0x40 SHL SUB DUP4 AND PUSH1 0x4 DUP3 ADD MSTORE PUSH1 0x24 ADD PUSH2 0x36F JUMP JUMPDEST DUP3 ISZERO PUSH2 0x1D63 JUMPI PUSH1 0x40 MLOAD PUSH4 0xD4BB6671 PUSH1 0xE0 SHL DUP2 MSTORE PUSH1 0x4 DUP2 ADD DUP5 SWAP1 MSTORE PUSH1 0x24 ADD PUSH2 0x36F JUMP JUMPDEST PUSH1 0x60 PUSH1 0x0 DUP1 PUSH1 0x0 PUSH2 0x31D6 DUP7 DUP7 PUSH2 0x3C38 JUMP JUMPDEST SWAP7 POP SWAP1 SWAP3 POP PUSH1 0x1 PUSH1 0x1 PUSH1 0x40 SHL SUB AND SWAP1 POP PUSH1 0xFF DUP3 AND PUSH1 0x6 EQ DUP1 PUSH2 0x31FB JUMPI POP PUSH1 0xFF DUP3 AND PUSH1 0x2 EQ JUMPDEST PUSH2 0x325E JUMPI PUSH1 0x40 MLOAD PUSH3 0x461BCD PUSH1 0xE5 SHL DUP2 MSTORE PUSH1 0x20 PUSH1 0x4 DUP3 ADD MSTORE PUSH1 0x2E PUSH1 0x24 DUP3 ADD MSTORE PUSH32 0x696E76616C6964206D616A20286578706563746564204D616A546167206F7220 PUSH1 0x44 DUP3 ADD MSTORE PUSH14 0x4D616A42797465537472696E6729 PUSH1 0x90 SHL PUSH1 0x64 DUP3 ADD MSTORE PUSH1 0x84 ADD PUSH2 0x36F JUMP JUMPDEST PUSH1 0x5 NOT PUSH1 0xFF DUP4 AND ADD PUSH2 0x3297 JUMPI PUSH2 0x3274 DUP7 DUP7 PUSH2 0x3C38 JUMP JUMPDEST SWAP7 POP SWAP1 SWAP3 POP PUSH1 0x1 PUSH1 0x1 PUSH1 0x40 SHL SUB AND SWAP1 POP PUSH1 0xFF DUP3 AND PUSH1 0x2 EQ PUSH2 0x3297 JUMPI PUSH2 0x3297 PUSH2 0x528A JUMP JUMPDEST PUSH1 0x0 PUSH2 0x32A3 DUP3 DUP8 PUSH2 0x5228 JUMP JUMPDEST SWAP1 POP PUSH1 0x0 DUP3 PUSH1 0x1 PUSH1 0x1 PUSH1 0x40 SHL SUB DUP2 GT ISZERO PUSH2 0x32BF JUMPI PUSH2 0x32BF PUSH2 0x43C2 JUMP JUMPDEST PUSH1 0x40 MLOAD SWAP1 DUP1 DUP3 MSTORE DUP1 PUSH1 0x1F ADD PUSH1 0x1F NOT AND PUSH1 0x20 ADD DUP3 ADD PUSH1 0x40 MSTORE DUP1 ISZERO PUSH2 0x32E9 JUMPI PUSH1 0x20 DUP3 ADD DUP2 DUP1 CALLDATASIZE DUP4 CALLDATACOPY ADD SWAP1 POP JUMPDEST POP SWAP1 POP PUSH1 0x0 DUP8 JUMPDEST DUP4 DUP2 LT ISZERO PUSH2 0x335E JUMPI DUP10 DUP2 DUP2 MLOAD DUP2 LT PUSH2 0x330A JUMPI PUSH2 0x330A PUSH2 0x4AF1 JUMP JUMPDEST PUSH1 0x20 ADD ADD MLOAD PUSH1 0xF8 SHR PUSH1 0xF8 SHL DUP4 DUP4 DUP2 MLOAD DUP2 LT PUSH2 0x3327 JUMPI PUSH2 0x3327 PUSH2 0x4AF1 JUMP JUMPDEST PUSH1 0x20 ADD ADD SWAP1 PUSH1 0x1 PUSH1 0x1 PUSH1 0xF8 SHL SUB NOT AND SWAP1 DUP2 PUSH1 0x0 BYTE SWAP1 MSTORE8 POP DUP2 PUSH2 0x3348 DUP2 PUSH2 0x52D5 JUMP JUMPDEST SWAP3 POP POP DUP1 DUP1 PUSH2 0x3356 SWAP1 PUSH2 0x52D5 JUMP JUMPDEST SWAP2 POP POP PUSH2 0x32F0 JUMP JUMPDEST POP DUP2 PUSH2 0x336A DUP6 DUP11 PUSH2 0x5228 JUMP JUMPDEST SWAP7 POP SWAP7 POP POP POP POP POP POP JUMPDEST SWAP3 POP SWAP3 SWAP1 POP JUMP JUMPDEST PUSH2 0x3383 PUSH2 0x4212 JUMP JUMPDEST DUP2 MLOAD PUSH1 0x0 SUB PUSH2 0x33B7 JUMPI POP POP PUSH1 0x40 DUP1 MLOAD PUSH1 0x80 DUP2 ADD DUP3 MSTORE PUSH1 0x1 SWAP2 DUP2 ADD SWAP2 DUP3 MSTORE PUSH1 0x0 PUSH1 0x60 DUP3 ADD DUP2 SWAP1 MSTORE SWAP2 DUP2 MSTORE PUSH1 0x20 DUP2 ADD SWAP2 SWAP1 SWAP2 MSTORE SWAP1 JUMP JUMPDEST PUSH1 0x0 PUSH1 0x1 DUP4 MLOAD PUSH2 0x33C7 SWAP2 SWAP1 PUSH2 0x52C2 JUMP JUMPDEST PUSH1 0x1 PUSH1 0x1 PUSH1 0x40 SHL SUB DUP2 GT ISZERO PUSH2 0x33DE JUMPI PUSH2 0x33DE PUSH2 0x43C2 JUMP JUMPDEST PUSH1 0x40 MLOAD SWAP1 DUP1 DUP3 MSTORE DUP1 PUSH1 0x1F ADD PUSH1 0x1F NOT AND PUSH1 0x20 ADD DUP3 ADD PUSH1 0x40 MSTORE DUP1 ISZERO PUSH2 0x3408 JUMPI PUSH1 0x20 DUP3 ADD DUP2 DUP1 CALLDATASIZE DUP4 CALLDATACOPY ADD SWAP1 POP JUMPDEST POP SWAP1 POP PUSH1 0x0 DUP4 PUSH1 0x0 DUP2 MLOAD DUP2 LT PUSH2 0x3420 JUMPI PUSH2 0x3420 PUSH2 0x4AF1 JUMP JUMPDEST ADD PUSH1 0x20 ADD MLOAD PUSH1 0x1 PUSH1 0x1 PUSH1 0xF8 SHL SUB NOT AND PUSH1 0x1 PUSH1 0xF8 SHL SUB PUSH2 0x343D JUMPI POP PUSH1 0x1 JUMPDEST PUSH1 0x1 JUMPDEST DUP5 MLOAD DUP2 LT ISZERO PUSH2 0x34AF JUMPI DUP5 DUP2 DUP2 MLOAD DUP2 LT PUSH2 0x345B JUMPI PUSH2 0x345B PUSH2 0x4AF1 JUMP JUMPDEST ADD PUSH1 0x20 ADD MLOAD PUSH1 0x1 PUSH1 0x1 PUSH1 0xF8 SHL SUB NOT AND DUP4 PUSH2 0x3476 PUSH1 0x1 DUP5 PUSH2 0x52C2 JUMP JUMPDEST DUP2 MLOAD DUP2 LT PUSH2 0x3486 JUMPI PUSH2 0x3486 PUSH2 0x4AF1 JUMP JUMPDEST PUSH1 0x20 ADD ADD SWAP1 PUSH1 0x1 PUSH1 0x1 PUSH1 0xF8 SHL SUB NOT AND SWAP1 DUP2 PUSH1 0x0 BYTE SWAP1 MSTORE8 POP DUP1 PUSH2 0x34A7 DUP2 PUSH2 0x52D5 JUMP JUMPDEST SWAP2 POP POP PUSH2 0x3440 JUMP JUMPDEST POP PUSH1 0x40 DUP1 MLOAD DUP1 DUP3 ADD SWAP1 SWAP2 MSTORE SWAP2 DUP3 MSTORE ISZERO ISZERO PUSH1 0x20 DUP3 ADD MSTORE SWAP3 SWAP2 POP POP JUMP JUMPDEST PUSH2 0x12FA DUP3 PUSH1 0x0 DUP4 PUSH2 0x3B04 JUMP JUMPDEST PUSH1 0x0 DUP1 PUSH1 0x0 DUP1 PUSH2 0x34E6 DUP7 DUP7 PUSH2 0x3C38 JUMP JUMPDEST SWAP7 POP SWAP1 SWAP3 POP PUSH1 0x1 PUSH1 0x1 PUSH1 0x40 SHL SUB AND SWAP1 POP PUSH1 0xFF DUP3 AND PUSH1 0x4 EQ PUSH2 0x3549 JUMPI PUSH1 0x40 MLOAD PUSH3 0x461BCD PUSH1 0xE5 SHL DUP2 MSTORE PUSH1 0x20 PUSH1 0x4 DUP3 ADD MSTORE PUSH1 0x1F PUSH1 0x24 DUP3 ADD MSTORE PUSH32 0x696E76616C6964206D616A20286578706563746564204D616A41727261792900 PUSH1 0x44 DUP3 ADD MSTORE PUSH1 0x64 ADD PUSH2 0x36F JUMP JUMPDEST SWAP6 SWAP4 SWAP5 POP POP POP POP JUMP JUMPDEST PUSH1 0x0 DUP1 DUP1 PUSH2 0x3560 DUP6 DUP6 PUSH2 0x3E12 JUMP JUMPDEST SWAP1 SWAP7 SWAP1 SWAP6 POP SWAP4 POP POP POP POP JUMP JUMPDEST PUSH2 0x3574 PUSH2 0x42E7 JUMP JUMPDEST PUSH1 0x0 DUP1 DUP1 PUSH2 0x3582 DUP7 DUP7 PUSH2 0x3C38 JUMP JUMPDEST SWAP7 POP SWAP1 SWAP3 POP PUSH1 0x1 PUSH1 0x1 PUSH1 0x40 SHL SUB AND SWAP1 POP PUSH1 0xFF DUP3 AND PUSH1 0x6 EQ PUSH2 0x35F6 JUMPI PUSH1 0x40 MLOAD PUSH3 0x461BCD PUSH1 0xE5 SHL DUP2 MSTORE PUSH1 0x20 PUSH1 0x4 DUP3 ADD MSTORE PUSH1 0x28 PUSH1 0x24 DUP3 ADD MSTORE PUSH32 0x6578706563746564206D616A6F72207479706520746167207768656E20706172 PUSH1 0x44 DUP3 ADD MSTORE PUSH8 0x1CDA5B99C818DA59 PUSH1 0xC2 SHL PUSH1 0x64 DUP3 ADD MSTORE PUSH1 0x84 ADD PUSH2 0x36F JUMP JUMPDEST PUSH1 0x2A DUP2 EQ PUSH2 0x3646 JUMPI PUSH1 0x40 MLOAD PUSH3 0x461BCD PUSH1 0xE5 SHL DUP2 MSTORE PUSH1 0x20 PUSH1 0x4 DUP3 ADD DUP2 SWAP1 MSTORE PUSH1 0x24 DUP3 ADD MSTORE PUSH32 0x657870656374656420746167203432207768656E2070617273696E6720636964 PUSH1 0x44 DUP3 ADD MSTORE PUSH1 0x64 ADD PUSH2 0x36F JUMP JUMPDEST PUSH1 0x60 PUSH2 0x3652 DUP8 DUP8 PUSH2 0x31C5 JUMP JUMPDEST DUP1 SWAP8 POP DUP2 SWAP3 POP POP POP DUP1 PUSH1 0x0 DUP2 MLOAD DUP2 LT PUSH2 0x366D JUMPI PUSH2 0x366D PUSH2 0x4AF1 JUMP JUMPDEST ADD PUSH1 0x20 ADD MLOAD PUSH1 0x1 PUSH1 0x1 PUSH1 0xF8 SHL SUB NOT AND ISZERO PUSH2 0x36DE JUMPI PUSH1 0x40 MLOAD PUSH3 0x461BCD PUSH1 0xE5 SHL DUP2 MSTORE PUSH1 0x20 PUSH1 0x4 DUP3 ADD MSTORE PUSH1 0x2C PUSH1 0x24 DUP3 ADD MSTORE PUSH32 0x6578706563746564206669727374206279746520746F2062652030207768656E PUSH1 0x44 DUP3 ADD MSTORE PUSH12 0x81C185C9CDA5B99C818DA59 PUSH1 0xA2 SHL PUSH1 0x64 DUP3 ADD MSTORE PUSH1 0x84 ADD PUSH2 0x36F JUMP JUMPDEST PUSH2 0x36E6 PUSH2 0x42E7 JUMP JUMPDEST PUSH1 0x1 DUP3 MLOAD PUSH2 0x36F4 SWAP2 SWAP1 PUSH2 0x52C2 JUMP JUMPDEST PUSH1 0x1 PUSH1 0x1 PUSH1 0x40 SHL SUB DUP2 GT ISZERO PUSH2 0x370B JUMPI PUSH2 0x370B PUSH2 0x43C2 JUMP JUMPDEST PUSH1 0x40 MLOAD SWAP1 DUP1 DUP3 MSTORE DUP1 PUSH1 0x1F ADD PUSH1 0x1F NOT AND PUSH1 0x20 ADD DUP3 ADD PUSH1 0x40 MSTORE DUP1 ISZERO PUSH2 0x3735 JUMPI PUSH1 0x20 DUP3 ADD DUP2 DUP1 CALLDATASIZE DUP4 CALLDATACOPY ADD SWAP1 POP JUMPDEST POP DUP2 MSTORE PUSH1 0x1 JUMPDEST DUP3 MLOAD DUP2 LT ISZERO PUSH2 0x37AE JUMPI DUP3 DUP2 DUP2 MLOAD DUP2 LT PUSH2 0x3756 JUMPI PUSH2 0x3756 PUSH2 0x4AF1 JUMP JUMPDEST ADD PUSH1 0x20 ADD MLOAD DUP3 MLOAD PUSH1 0x1 PUSH1 0x1 PUSH1 0xF8 SHL SUB NOT SWAP1 SWAP2 AND SWAP1 PUSH2 0x3775 PUSH1 0x1 DUP5 PUSH2 0x52C2 JUMP JUMPDEST DUP2 MLOAD DUP2 LT PUSH2 0x3785 JUMPI PUSH2 0x3785 PUSH2 0x4AF1 JUMP JUMPDEST PUSH1 0x20 ADD ADD SWAP1 PUSH1 0x1 PUSH1 0x1 PUSH1 0xF8 SHL SUB NOT AND SWAP1 DUP2 PUSH1 0x0 BYTE SWAP1 MSTORE8 POP DUP1 PUSH2 0x37A6 DUP2 PUSH2 0x52D5 JUMP JUMPDEST SWAP2 POP POP PUSH2 0x373B JUMP JUMPDEST POP SWAP8 SWAP6 SWAP7 POP POP POP POP POP POP JUMP JUMPDEST PUSH1 0x0 DUP1 PUSH1 0x0 DUP1 PUSH2 0x37CA DUP7 DUP7 PUSH2 0x3C38 JUMP JUMPDEST SWAP7 POP SWAP1 SWAP3 POP PUSH1 0x1 PUSH1 0x1 PUSH1 0x40 SHL SUB AND SWAP1 POP PUSH1 0xFF DUP3 AND ISZERO PUSH2 0x3549 JUMPI PUSH1 0x40 MLOAD PUSH3 0x461BCD PUSH1 0xE5 SHL DUP2 MSTORE PUSH1 0x20 PUSH1 0x4 DUP3 ADD MSTORE PUSH1 0x25 PUSH1 0x24 DUP3 ADD MSTORE PUSH32 0x696E76616C6964206D616A20286578706563746564204D616A556E7369676E65 PUSH1 0x44 DUP3 ADD MSTORE PUSH5 0x64496E7429 PUSH1 0xD8 SHL PUSH1 0x64 DUP3 ADD MSTORE PUSH1 0x84 ADD PUSH2 0x36F JUMP JUMPDEST PUSH1 0x0 DUP1 PUSH1 0x0 DUP1 PUSH2 0x3849 DUP7 DUP7 PUSH2 0x3C38 JUMP JUMPDEST SWAP7 POP SWAP1 SWAP3 POP PUSH1 0x1 PUSH1 0x1 PUSH1 0x40 SHL SUB AND SWAP1 POP PUSH1 0xFF DUP3 AND PUSH1 0x7 EQ PUSH2 0x38AC JUMPI PUSH1 0x40 MLOAD PUSH3 0x461BCD PUSH1 0xE5 SHL DUP2 MSTORE PUSH1 0x20 PUSH1 0x4 DUP3 ADD MSTORE PUSH1 0x1F PUSH1 0x24 DUP3 ADD MSTORE PUSH32 0x696E76616C6964206D616A20286578706563746564204D616A4F746865722900 PUSH1 0x44 DUP3 ADD MSTORE PUSH1 0x64 ADD PUSH2 0x36F JUMP JUMPDEST PUSH1 0x15 DUP2 EQ DUP1 PUSH2 0x38BB JUMPI POP PUSH1 0x14 DUP2 EQ JUMPDEST PUSH2 0x38C7 JUMPI PUSH2 0x38C7 PUSH2 0x528A JUMP JUMPDEST PUSH1 0x14 EQ ISZERO SWAP6 SWAP4 SWAP5 POP POP POP POP JUMP JUMPDEST PUSH2 0x38DC PUSH2 0x42E7 JUMP JUMPDEST PUSH1 0x40 DUP1 MLOAD PUSH1 0x20 DUP2 ADD SWAP1 SWAP2 MSTORE DUP3 DUP2 MSTORE PUSH2 0x38F3 DUP2 PUSH2 0x3EAF JUMP JUMPDEST PUSH2 0x55A JUMPI PUSH1 0x40 MLOAD PUSH4 0xE6C4247B PUSH1 0xE0 SHL DUP2 MSTORE PUSH1 0x4 ADD PUSH1 0x40 MLOAD DUP1 SWAP2 SUB SWAP1 REVERT JUMPDEST PUSH2 0x3918 PUSH2 0x4212 JUMP JUMPDEST PUSH1 0x0 DUP1 PUSH1 0x0 PUSH2 0x3927 DUP7 DUP7 PUSH2 0x3C38 JUMP JUMPDEST SWAP7 POP SWAP1 SWAP3 POP PUSH1 0x1 PUSH1 0x1 PUSH1 0x40 SHL SUB AND SWAP1 POP PUSH1 0xFF DUP3 AND PUSH1 0x2 EQ DUP1 PUSH2 0x394C JUMPI POP PUSH1 0xFF DUP3 AND PUSH1 0x3 EQ JUMPDEST PUSH2 0x39B6 JUMPI PUSH1 0x40 MLOAD PUSH3 0x461BCD PUSH1 0xE5 SHL DUP2 MSTORE PUSH1 0x20 PUSH1 0x4 DUP3 ADD MSTORE PUSH1 0x35 PUSH1 0x24 DUP3 ADD MSTORE PUSH32 0x696E76616C6964206D616A20286578706563746564204D616A42797465537472 PUSH1 0x44 DUP3 ADD MSTORE PUSH21 0x696E67206F72204D616A54657874537472696E6729 PUSH1 0x58 SHL PUSH1 0x64 DUP3 ADD MSTORE PUSH1 0x84 ADD PUSH2 0x36F JUMP JUMPDEST PUSH1 0x0 PUSH2 0x39C2 DUP3 DUP8 PUSH2 0x5228 JUMP JUMPDEST SWAP1 POP PUSH1 0x0 DUP3 PUSH1 0x1 PUSH1 0x1 PUSH1 0x40 SHL SUB DUP2 GT ISZERO PUSH2 0x39DE JUMPI PUSH2 0x39DE PUSH2 0x43C2 JUMP JUMPDEST PUSH1 0x40 MLOAD SWAP1 DUP1 DUP3 MSTORE DUP1 PUSH1 0x1F ADD PUSH1 0x1F NOT AND PUSH1 0x20 ADD DUP3 ADD PUSH1 0x40 MSTORE DUP1 ISZERO PUSH2 0x3A08 JUMPI PUSH1 0x20 DUP3 ADD DUP2 DUP1 CALLDATASIZE DUP4 CALLDATACOPY ADD SWAP1 POP JUMPDEST POP SWAP1 POP PUSH1 0x0 DUP8 JUMPDEST DUP4 DUP2 LT ISZERO PUSH2 0x3A7D JUMPI DUP10 DUP2 DUP2 MLOAD DUP2 LT PUSH2 0x3A29 JUMPI PUSH2 0x3A29 PUSH2 0x4AF1 JUMP JUMPDEST PUSH1 0x20 ADD ADD MLOAD PUSH1 0xF8 SHR PUSH1 0xF8 SHL DUP4 DUP4 DUP2 MLOAD DUP2 LT PUSH2 0x3A46 JUMPI PUSH2 0x3A46 PUSH2 0x4AF1 JUMP JUMPDEST PUSH1 0x20 ADD ADD SWAP1 PUSH1 0x1 PUSH1 0x1 PUSH1 0xF8 SHL SUB NOT AND SWAP1 DUP2 PUSH1 0x0 BYTE SWAP1 MSTORE8 POP DUP2 PUSH2 0x3A67 DUP2 PUSH2 0x52D5 JUMP JUMPDEST SWAP3 POP POP DUP1 DUP1 PUSH2 0x3A75 SWAP1 PUSH2 0x52D5 JUMP JUMPDEST SWAP2 POP POP PUSH2 0x3A0F JUMP JUMPDEST POP PUSH1 0x40 DUP1 MLOAD DUP1 DUP3 ADD SWAP1 SWAP2 MSTORE DUP3 DUP2 MSTORE PUSH1 0xFF DUP7 AND PUSH1 0x3 EQ PUSH1 0x20 DUP3 ADD MSTORE PUSH2 0x336A DUP6 DUP11 PUSH2 0x5228 JUMP JUMPDEST PUSH2 0x3AA9 PUSH2 0x42CD JUMP JUMPDEST DUP3 MLOAD MLOAD PUSH1 0x0 PUSH2 0x3AB9 DUP3 PUSH1 0x1 PUSH2 0x5228 JUMP JUMPDEST SWAP1 POP DUP5 PUSH1 0x20 ADD MLOAD DUP3 LT PUSH2 0x3ADA JUMPI PUSH2 0x3ADA DUP6 PUSH2 0x3AD5 DUP4 PUSH1 0x2 PUSH2 0x533D JUMP JUMPDEST PUSH2 0x3FC5 JUMP JUMPDEST DUP5 MLOAD PUSH1 0x20 DUP4 DUP3 ADD ADD DUP6 DUP2 MSTORE8 POP DUP1 MLOAD DUP3 GT ISZERO PUSH2 0x3AF3 JUMPI DUP2 DUP2 MSTORE JUMPDEST POP SWAP4 SWAP5 SWAP4 POP POP POP POP JUMP JUMPDEST PUSH2 0x2E51 DUP4 DUP4 DUP4 JUMPDEST PUSH1 0x17 DUP2 PUSH1 0x1 PUSH1 0x1 PUSH1 0x40 SHL SUB AND GT PUSH2 0x3B2A JUMPI DUP3 MLOAD PUSH2 0x197F SWAP1 PUSH1 0xE0 PUSH1 0x5 DUP6 SWAP1 SHL AND DUP4 OR PUSH2 0x3AA1 JUMP JUMPDEST PUSH1 0xFF DUP2 PUSH1 0x1 PUSH1 0x1 PUSH1 0x40 SHL SUB AND GT PUSH2 0x3B6A JUMPI DUP3 MLOAD PUSH2 0x3B52 SWAP1 PUSH1 0x18 PUSH2 0x1FE0 PUSH1 0x5 DUP7 SWAP1 SHL AND OR PUSH2 0x3AA1 JUMP JUMPDEST POP DUP3 MLOAD PUSH2 0x197F SWAP1 PUSH1 0x1 PUSH1 0x1 PUSH1 0x40 SHL SUB DUP4 AND PUSH1 0x1 PUSH2 0x3FDC JUMP JUMPDEST PUSH2 0xFFFF DUP2 PUSH1 0x1 PUSH1 0x1 PUSH1 0x40 SHL SUB AND GT PUSH2 0x3BAB JUMPI DUP3 MLOAD PUSH2 0x3B93 SWAP1 PUSH1 0x19 PUSH2 0x1FE0 PUSH1 0x5 DUP7 SWAP1 SHL AND OR PUSH2 0x3AA1 JUMP JUMPDEST POP DUP3 MLOAD PUSH2 0x197F SWAP1 PUSH1 0x1 PUSH1 0x1 PUSH1 0x40 SHL SUB DUP4 AND PUSH1 0x2 PUSH2 0x3FDC JUMP JUMPDEST PUSH4 0xFFFFFFFF DUP2 PUSH1 0x1 PUSH1 0x1 PUSH1 0x40 SHL SUB AND GT PUSH2 0x3BEE JUMPI DUP3 MLOAD PUSH2 0x3BD6 SWAP1 PUSH1 0x1A PUSH2 0x1FE0 PUSH1 0x5 DUP7 SWAP1 SHL AND OR PUSH2 0x3AA1 JUMP JUMPDEST POP DUP3 MLOAD PUSH2 0x197F SWAP1 PUSH1 0x1 PUSH1 0x1 PUSH1 0x40 SHL SUB DUP4 AND PUSH1 0x4 PUSH2 0x3FDC JUMP JUMPDEST DUP3 MLOAD PUSH2 0x3C05 SWAP1 PUSH1 0x1B PUSH2 0x1FE0 PUSH1 0x5 DUP7 SWAP1 SHL AND OR PUSH2 0x3AA1 JUMP JUMPDEST POP DUP3 MLOAD PUSH2 0x197F SWAP1 PUSH1 0x1 PUSH1 0x1 PUSH1 0x40 SHL SUB DUP4 AND PUSH1 0x8 PUSH2 0x3FDC JUMP JUMPDEST PUSH2 0x3C25 PUSH2 0x42CD JUMP JUMPDEST PUSH2 0x3C31 DUP4 DUP4 DUP5 MLOAD PUSH2 0x4054 JUMP JUMPDEST SWAP4 SWAP3 POP POP POP JUMP JUMPDEST PUSH1 0x0 DUP1 PUSH1 0x0 DUP1 PUSH2 0x3C48 DUP7 DUP7 PUSH2 0x4118 JUMP JUMPDEST SWAP1 POP PUSH2 0x3C55 PUSH1 0x1 DUP7 PUSH2 0x5228 JUMP JUMPDEST SWAP5 POP PUSH1 0x7 PUSH1 0x5 DUP3 SWAP1 SHR AND PUSH1 0x1F DUP3 AND PUSH1 0x1C DUP2 LT PUSH2 0x3CC1 JUMPI PUSH1 0x40 MLOAD PUSH3 0x461BCD PUSH1 0xE5 SHL DUP2 MSTORE PUSH1 0x20 PUSH1 0x4 DUP3 ADD MSTORE PUSH1 0x25 PUSH1 0x24 DUP3 ADD MSTORE PUSH32 0x63616E6E6F742068616E646C6520686561646572732077697468206578747261 PUSH1 0x44 DUP3 ADD MSTORE PUSH5 0x203E203237 PUSH1 0xD8 SHL PUSH1 0x64 DUP3 ADD MSTORE PUSH1 0x84 ADD PUSH2 0x36F JUMP JUMPDEST PUSH1 0x18 DUP2 PUSH1 0xFF AND LT ISZERO PUSH2 0x3CDF JUMPI SWAP1 SWAP5 POP PUSH1 0xFF AND SWAP3 POP DUP5 SWAP2 POP PUSH2 0x3E0B SWAP1 POP JUMP JUMPDEST DUP1 PUSH1 0xFF AND PUSH1 0x18 SUB PUSH2 0x3D5B JUMPI PUSH1 0x0 PUSH2 0x3CF6 DUP10 DUP10 PUSH2 0x4118 JUMP JUMPDEST SWAP1 POP PUSH2 0x3D03 PUSH1 0x1 DUP10 PUSH2 0x5228 JUMP JUMPDEST SWAP8 POP PUSH1 0x18 DUP2 PUSH1 0xFF AND LT ISZERO PUSH2 0x3D48 JUMPI PUSH1 0x40 MLOAD PUSH3 0x461BCD PUSH1 0xE5 SHL DUP2 MSTORE PUSH1 0x20 PUSH1 0x4 DUP3 ADD MSTORE PUSH1 0xC PUSH1 0x24 DUP3 ADD MSTORE PUSH12 0x34B73B30B634B21031B137B9 PUSH1 0xA1 SHL PUSH1 0x44 DUP3 ADD MSTORE PUSH1 0x64 ADD PUSH2 0x36F JUMP JUMPDEST SWAP2 SWAP6 POP POP PUSH1 0xFF AND SWAP3 POP DUP5 SWAP2 POP PUSH2 0x3E0B SWAP1 POP JUMP JUMPDEST DUP1 PUSH1 0xFF AND PUSH1 0x19 SUB PUSH2 0x3D95 JUMPI PUSH1 0x0 PUSH2 0x3D72 DUP10 DUP10 PUSH2 0x4167 JUMP JUMPDEST SWAP1 POP PUSH2 0x3D7F PUSH1 0x2 DUP10 PUSH2 0x5228 JUMP JUMPDEST SWAP8 POP SWAP2 SWAP6 POP POP PUSH2 0xFFFF AND SWAP3 POP DUP5 SWAP2 POP PUSH2 0x3E0B SWAP1 POP JUMP JUMPDEST DUP1 PUSH1 0xFF AND PUSH1 0x1A SUB PUSH2 0x3DD1 JUMPI PUSH1 0x0 PUSH2 0x3DAC DUP10 DUP10 PUSH2 0x41A0 JUMP JUMPDEST SWAP1 POP PUSH2 0x3DB9 PUSH1 0x4 DUP10 PUSH2 0x5228 JUMP JUMPDEST SWAP8 POP SWAP2 SWAP6 POP POP PUSH4 0xFFFFFFFF AND SWAP3 POP DUP5 SWAP2 POP PUSH2 0x3E0B SWAP1 POP JUMP JUMPDEST DUP1 PUSH1 0xFF AND PUSH1 0x1B EQ PUSH2 0x3DE4 JUMPI PUSH2 0x3DE4 PUSH2 0x528A JUMP JUMPDEST PUSH1 0x0 PUSH2 0x3DF0 DUP10 DUP10 PUSH2 0x41D9 JUMP JUMPDEST SWAP1 POP PUSH2 0x3DFD PUSH1 0x8 DUP10 PUSH2 0x5228 JUMP JUMPDEST SWAP8 POP SWAP2 SWAP6 POP SWAP1 SWAP4 POP DUP6 SWAP3 POP POP POP JUMPDEST SWAP3 POP SWAP3 POP SWAP3 JUMP JUMPDEST PUSH1 0x0 DUP1 PUSH1 0x0 DUP1 PUSH2 0x3E22 DUP7 DUP7 PUSH2 0x3C38 JUMP JUMPDEST SWAP7 POP SWAP1 SWAP3 POP PUSH1 0x1 PUSH1 0x1 PUSH1 0x40 SHL SUB AND SWAP1 POP PUSH1 0xFF DUP3 AND PUSH1 0x1 EQ DUP1 PUSH2 0x3E45 JUMPI POP PUSH1 0xFF DUP3 AND ISZERO JUMPDEST PUSH2 0x3549 JUMPI PUSH1 0x40 MLOAD PUSH3 0x461BCD PUSH1 0xE5 SHL DUP2 MSTORE PUSH1 0x20 PUSH1 0x4 DUP3 ADD MSTORE PUSH1 0x35 PUSH1 0x24 DUP3 ADD MSTORE PUSH32 0x696E76616C6964206D616A20286578706563746564204D616A5369676E656449 PUSH1 0x44 DUP3 ADD MSTORE PUSH21 0x6E74206F72204D616A556E7369676E6564496E7429 PUSH1 0x58 SHL PUSH1 0x64 DUP3 ADD MSTORE PUSH1 0x84 ADD PUSH2 0x36F JUMP JUMPDEST PUSH1 0x0 DUP2 PUSH1 0x0 ADD MLOAD PUSH1 0x0 DUP2 MLOAD DUP2 LT PUSH2 0x3EC8 JUMPI PUSH2 0x3EC8 PUSH2 0x4AF1 JUMP JUMPDEST ADD PUSH1 0x20 ADD MLOAD PUSH1 0x1 PUSH1 0x1 PUSH1 0xF8 SHL SUB NOT AND PUSH1 0x0 SUB PUSH2 0x3EE8 JUMPI POP MLOAD MLOAD PUSH1 0xA LT ISZERO SWAP1 JUMP JUMPDEST DUP2 MLOAD DUP1 MLOAD PUSH1 0x0 SWAP1 PUSH2 0x3EFB JUMPI PUSH2 0x3EFB PUSH2 0x4AF1 JUMP JUMPDEST PUSH1 0x20 SWAP2 ADD ADD MLOAD PUSH1 0x1 PUSH1 0x1 PUSH1 0xF8 SHL SUB NOT AND PUSH1 0x1 PUSH1 0xF8 SHL EQ DUP1 PUSH2 0x3F41 JUMPI POP DUP2 MLOAD DUP1 MLOAD PUSH1 0x0 SWAP1 PUSH2 0x3F2A JUMPI PUSH2 0x3F2A PUSH2 0x4AF1 JUMP JUMPDEST PUSH1 0x20 SWAP2 ADD ADD MLOAD PUSH1 0x1 PUSH1 0x1 PUSH1 0xF8 SHL SUB NOT AND PUSH1 0x1 PUSH1 0xF9 SHL EQ JUMPDEST ISZERO PUSH2 0x3F4F JUMPI POP MLOAD MLOAD PUSH1 0x15 EQ SWAP1 JUMP JUMPDEST DUP2 MLOAD DUP1 MLOAD PUSH1 0x0 SWAP1 PUSH2 0x3F62 JUMPI PUSH2 0x3F62 PUSH2 0x4AF1 JUMP JUMPDEST ADD PUSH1 0x20 ADD MLOAD PUSH1 0x1 PUSH1 0x1 PUSH1 0xF8 SHL SUB NOT AND PUSH1 0x3 PUSH1 0xF8 SHL SUB PUSH2 0x3F84 JUMPI POP MLOAD MLOAD PUSH1 0x31 EQ SWAP1 JUMP JUMPDEST DUP2 MLOAD DUP1 MLOAD PUSH1 0x0 SWAP1 PUSH2 0x3F97 JUMPI PUSH2 0x3F97 PUSH2 0x4AF1 JUMP JUMPDEST ADD PUSH1 0x20 ADD MLOAD PUSH1 0x1 PUSH1 0x1 PUSH1 0xF8 SHL SUB NOT AND PUSH1 0x1 PUSH1 0xFA SHL SUB PUSH2 0x3FBA JUMPI POP MLOAD MLOAD PUSH1 0x40 LT ISZERO SWAP1 JUMP JUMPDEST POP MLOAD MLOAD PUSH2 0x100 LT ISZERO SWAP1 JUMP JUMPDEST DUP2 MLOAD PUSH2 0x3FD1 DUP4 DUP4 PUSH2 0x2DD8 JUMP JUMPDEST POP PUSH2 0x197F DUP4 DUP3 PUSH2 0x3C1D JUMP JUMPDEST PUSH2 0x3FE4 PUSH2 0x42CD JUMP JUMPDEST DUP4 MLOAD MLOAD PUSH1 0x0 PUSH2 0x3FF3 DUP3 DUP6 PUSH2 0x5228 JUMP JUMPDEST SWAP1 POP DUP6 PUSH1 0x20 ADD MLOAD DUP2 GT ISZERO PUSH2 0x4010 JUMPI PUSH2 0x4010 DUP7 PUSH2 0x3AD5 DUP4 PUSH1 0x2 PUSH2 0x533D JUMP JUMPDEST PUSH1 0x0 PUSH1 0x1 PUSH2 0x4020 DUP7 PUSH2 0x100 PUSH2 0x5438 JUMP JUMPDEST PUSH2 0x402A SWAP2 SWAP1 PUSH2 0x52C2 JUMP JUMPDEST SWAP1 POP DUP7 MLOAD DUP3 DUP2 ADD DUP8 DUP4 NOT DUP3 MLOAD AND OR DUP2 MSTORE POP DUP1 MLOAD DUP4 GT ISZERO PUSH2 0x4048 JUMPI DUP3 DUP2 MSTORE JUMPDEST POP SWAP6 SWAP7 SWAP6 POP POP POP POP POP POP JUMP JUMPDEST PUSH2 0x405C PUSH2 0x42CD JUMP JUMPDEST DUP3 MLOAD DUP3 GT ISZERO PUSH2 0x406A JUMPI PUSH1 0x0 DUP1 REVERT JUMPDEST DUP4 MLOAD MLOAD PUSH1 0x0 PUSH2 0x4079 DUP5 DUP4 PUSH2 0x5228 JUMP JUMPDEST SWAP1 POP DUP6 PUSH1 0x20 ADD MLOAD DUP2 GT ISZERO PUSH2 0x4096 JUMPI PUSH2 0x4096 DUP7 PUSH2 0x3AD5 DUP4 PUSH1 0x2 PUSH2 0x533D JUMP JUMPDEST DUP6 MLOAD DUP1 MLOAD DUP4 DUP3 ADD PUSH1 0x20 ADD SWAP2 PUSH1 0x0 SWAP2 DUP1 DUP6 GT ISZERO PUSH2 0x40B0 JUMPI DUP5 DUP3 MSTORE JUMPDEST POP POP POP PUSH1 0x20 DUP7 ADD JUMPDEST PUSH1 0x20 DUP7 LT PUSH2 0x40F0 JUMPI DUP1 MLOAD DUP3 MSTORE PUSH2 0x40CF PUSH1 0x20 DUP4 PUSH2 0x5228 JUMP JUMPDEST SWAP2 POP PUSH2 0x40DC PUSH1 0x20 DUP3 PUSH2 0x5228 JUMP JUMPDEST SWAP1 POP PUSH2 0x40E9 PUSH1 0x20 DUP8 PUSH2 0x52C2 JUMP JUMPDEST SWAP6 POP PUSH2 0x40B8 JUMP JUMPDEST MLOAD DUP2 MLOAD PUSH1 0x0 NOT PUSH1 0x20 DUP9 SWAP1 SUB PUSH2 0x100 EXP ADD SWAP1 DUP2 AND SWAP1 NOT SWAP2 SWAP1 SWAP2 AND OR SWAP1 MSTORE POP DUP5 SWAP2 POP POP SWAP4 SWAP3 POP POP POP JUMP JUMPDEST PUSH1 0x0 PUSH2 0x4125 DUP3 PUSH1 0x1 PUSH2 0x5228 JUMP JUMPDEST DUP4 MLOAD LT ISZERO PUSH2 0x4145 JUMPI PUSH1 0x40 MLOAD PUSH3 0x461BCD PUSH1 0xE5 SHL DUP2 MSTORE PUSH1 0x4 ADD PUSH2 0x36F SWAP1 PUSH2 0x5444 JUMP JUMPDEST DUP3 DUP3 DUP2 MLOAD DUP2 LT PUSH2 0x4157 JUMPI PUSH2 0x4157 PUSH2 0x4AF1 JUMP JUMPDEST ADD PUSH1 0x20 ADD MLOAD PUSH1 0xF8 SHR SWAP1 POP SWAP3 SWAP2 POP POP JUMP JUMPDEST PUSH1 0x0 PUSH2 0x4174 DUP3 PUSH1 0x2 PUSH2 0x5228 JUMP JUMPDEST DUP4 MLOAD LT ISZERO PUSH2 0x4194 JUMPI PUSH1 0x40 MLOAD PUSH3 0x461BCD PUSH1 0xE5 SHL DUP2 MSTORE PUSH1 0x4 ADD PUSH2 0x36F SWAP1 PUSH2 0x5444 JUMP JUMPDEST POP ADD PUSH1 0x20 ADD MLOAD PUSH1 0xF0 SHR SWAP1 JUMP JUMPDEST PUSH1 0x0 PUSH2 0x41AD DUP3 PUSH1 0x4 PUSH2 0x5228 JUMP JUMPDEST DUP4 MLOAD LT ISZERO PUSH2 0x41CD JUMPI PUSH1 0x40 MLOAD PUSH3 0x461BCD PUSH1 0xE5 SHL DUP2 MSTORE PUSH1 0x4 ADD PUSH2 0x36F SWAP1 PUSH2 0x5444 JUMP JUMPDEST POP ADD PUSH1 0x20 ADD MLOAD PUSH1 0xE0 SHR SWAP1 JUMP JUMPDEST PUSH1 0x0 PUSH2 0x41E6 DUP3 PUSH1 0x8 PUSH2 0x5228 JUMP JUMPDEST DUP4 MLOAD LT ISZERO PUSH2 0x4206 JUMPI PUSH1 0x40 MLOAD PUSH3 0x461BCD PUSH1 0xE5 SHL DUP2 MSTORE PUSH1 0x4 ADD PUSH2 0x36F SWAP1 PUSH2 0x5444 JUMP JUMPDEST POP ADD PUSH1 0x20 ADD MLOAD PUSH1 0xC0 SHR SWAP1 JUMP JUMPDEST PUSH1 0x40 DUP1 MLOAD DUP1 DUP3 ADD SWAP1 SWAP2 MSTORE PUSH1 0x60 DUP2 MSTORE PUSH1 0x0 PUSH1 0x20 DUP3 ADD MSTORE SWAP1 JUMP JUMPDEST PUSH1 0x40 MLOAD DUP1 PUSH1 0x40 ADD PUSH1 0x40 MSTORE DUP1 PUSH2 0x423D PUSH2 0x42CD JUMP JUMPDEST DUP2 MSTORE PUSH1 0x20 ADD PUSH1 0x0 DUP2 MSTORE POP SWAP1 JUMP JUMPDEST PUSH1 0x40 MLOAD DUP1 PUSH2 0x160 ADD PUSH1 0x40 MSTORE DUP1 PUSH2 0x425E PUSH2 0x42E7 JUMP JUMPDEST DUP2 MSTORE PUSH1 0x0 PUSH1 0x20 DUP3 ADD DUP2 SWAP1 MSTORE PUSH1 0x40 DUP3 ADD MSTORE PUSH1 0x60 ADD PUSH2 0x4279 PUSH2 0x42E7 JUMP JUMPDEST DUP2 MSTORE PUSH1 0x20 ADD PUSH2 0x4286 PUSH2 0x42E7 JUMP JUMPDEST DUP2 MSTORE PUSH1 0x20 ADD PUSH2 0x4293 PUSH2 0x4212 JUMP JUMPDEST DUP2 MSTORE PUSH1 0x0 PUSH1 0x20 DUP3 ADD DUP2 SWAP1 MSTORE PUSH1 0x40 DUP3 ADD MSTORE PUSH1 0x60 ADD PUSH2 0x42AE PUSH2 0x4212 JUMP JUMPDEST DUP2 MSTORE PUSH1 0x20 ADD PUSH2 0x42BB PUSH2 0x4212 JUMP JUMPDEST DUP2 MSTORE PUSH1 0x20 ADD PUSH2 0x42C8 PUSH2 0x4212 JUMP JUMPDEST SWAP1 MSTORE SWAP1 JUMP JUMPDEST PUSH1 0x40 MLOAD DUP1 PUSH1 0x40 ADD PUSH1 0x40 MSTORE DUP1 PUSH1 0x60 DUP2 MSTORE PUSH1 0x20 ADD PUSH1 0x0 DUP2 MSTORE POP SWAP1 JUMP JUMPDEST PUSH1 0x40 MLOAD DUP1 PUSH1 0x20 ADD PUSH1 0x40 MSTORE DUP1 PUSH1 0x60 DUP2 MSTORE POP SWAP1 JUMP JUMPDEST PUSH1 0x1 PUSH1 0x1 PUSH1 0xA0 SHL SUB DUP2 AND DUP2 EQ PUSH2 0x430F JUMPI PUSH1 0x0 DUP1 REVERT JUMPDEST POP JUMP JUMPDEST PUSH1 0x0 DUP1 PUSH1 0x40 DUP4 DUP6 SUB SLT ISZERO PUSH2 0x4325 JUMPI PUSH1 0x0 DUP1 REVERT JUMPDEST DUP3 CALLDATALOAD PUSH2 0x4330 DUP2 PUSH2 0x42FA JUMP JUMPDEST SWAP5 PUSH1 0x20 SWAP4 SWAP1 SWAP4 ADD CALLDATALOAD SWAP4 POP POP POP JUMP JUMPDEST PUSH1 0x0 PUSH1 0x20 DUP3 DUP5 SUB SLT ISZERO PUSH2 0x4350 JUMPI PUSH1 0x0 DUP1 REVERT JUMPDEST POP CALLDATALOAD SWAP2 SWAP1 POP JUMP JUMPDEST PUSH1 0x0 DUP1 PUSH1 0x40 DUP4 DUP6 SUB SLT ISZERO PUSH2 0x436A JUMPI PUSH1 0x0 DUP1 REVERT JUMPDEST DUP3 CALLDATALOAD PUSH1 0x1 PUSH1 0x1 PUSH1 0x40 SHL SUB DUP2 GT ISZERO PUSH2 0x4380 JUMPI PUSH1 0x0 DUP1 REVERT JUMPDEST DUP4 ADD PUSH2 0x180 DUP2 DUP7 SUB SLT ISZERO PUSH2 0x4393 JUMPI PUSH1 0x0 DUP1 REVERT JUMPDEST SWAP2 POP PUSH1 0x20 DUP4 ADD CALLDATALOAD PUSH2 0x43A3 DUP2 PUSH2 0x42FA JUMP JUMPDEST DUP1 SWAP2 POP POP SWAP3 POP SWAP3 SWAP1 POP JUMP JUMPDEST PUSH1 0x1 PUSH1 0x1 PUSH1 0xA0 SHL SUB SWAP2 SWAP1 SWAP2 AND DUP2 MSTORE PUSH1 0x20 ADD SWAP1 JUMP JUMPDEST PUSH4 0x4E487B71 PUSH1 0xE0 SHL PUSH1 0x0 MSTORE PUSH1 0x41 PUSH1 0x4 MSTORE PUSH1 0x24 PUSH1 0x0 REVERT JUMPDEST PUSH1 0x40 MLOAD PUSH1 0x1F DUP3 ADD PUSH1 0x1F NOT AND DUP2 ADD PUSH1 0x1 PUSH1 0x1 PUSH1 0x40 SHL SUB DUP2 GT DUP3 DUP3 LT OR ISZERO PUSH2 0x4400 JUMPI PUSH2 0x4400 PUSH2 0x43C2 JUMP JUMPDEST PUSH1 0x40 MSTORE SWAP2 SWAP1 POP JUMP JUMPDEST PUSH1 0x0 PUSH1 0x1 PUSH1 0x1 PUSH1 0x40 SHL SUB DUP3 GT ISZERO PUSH2 0x4421 JUMPI PUSH2 0x4421 PUSH2 0x43C2 JUMP JUMPDEST POP PUSH1 0x1F ADD PUSH1 0x1F NOT AND PUSH1 0x20 ADD SWAP1 JUMP JUMPDEST PUSH1 0x0 DUP3 PUSH1 0x1F DUP4 ADD SLT PUSH2 0x4440 JUMPI PUSH1 0x0 DUP1 REVERT JUMPDEST DUP2 CALLDATALOAD PUSH2 0x4453 PUSH2 0x444E DUP3 PUSH2 0x4408 JUMP JUMPDEST PUSH2 0x43D8 JUMP JUMPDEST DUP2 DUP2 MSTORE DUP5 PUSH1 0x20 DUP4 DUP7 ADD ADD GT ISZERO PUSH2 0x4468 JUMPI PUSH1 0x0 DUP1 REVERT JUMPDEST DUP2 PUSH1 0x20 DUP6 ADD PUSH1 0x20 DUP4 ADD CALLDATACOPY PUSH1 0x0 SWAP2 DUP2 ADD PUSH1 0x20 ADD SWAP2 SWAP1 SWAP2 MSTORE SWAP4 SWAP3 POP POP POP JUMP JUMPDEST PUSH1 0x0 PUSH1 0x20 DUP3 DUP5 SUB SLT ISZERO PUSH2 0x4497 JUMPI PUSH1 0x0 DUP1 REVERT JUMPDEST DUP2 CALLDATALOAD PUSH1 0x1 PUSH1 0x1 PUSH1 0x40 SHL SUB DUP2 GT ISZERO PUSH2 0x44AD JUMPI PUSH1 0x0 DUP1 REVERT JUMPDEST PUSH2 0x1D63 DUP5 DUP3 DUP6 ADD PUSH2 0x442F JUMP JUMPDEST PUSH1 0x0 JUMPDEST DUP4 DUP2 LT ISZERO PUSH2 0x44D4 JUMPI DUP2 DUP2 ADD MLOAD DUP4 DUP3 ADD MSTORE PUSH1 0x20 ADD PUSH2 0x44BC JUMP JUMPDEST POP POP PUSH1 0x0 SWAP2 ADD MSTORE JUMP JUMPDEST PUSH1 0x0 DUP2 MLOAD DUP1 DUP5 MSTORE PUSH2 0x44F5 DUP2 PUSH1 0x20 DUP7 ADD PUSH1 0x20 DUP7 ADD PUSH2 0x44B9 JUMP JUMPDEST PUSH1 0x1F ADD PUSH1 0x1F NOT AND SWAP3 SWAP1 SWAP3 ADD PUSH1 0x20 ADD SWAP3 SWAP2 POP POP JUMP JUMPDEST PUSH4 0x4E487B71 PUSH1 0xE0 SHL PUSH1 0x0 MSTORE PUSH1 0x21 PUSH1 0x4 MSTORE PUSH1 0x24 PUSH1 0x0 REVERT JUMPDEST DUP7 DUP2 MSTORE DUP6 ISZERO ISZERO PUSH1 0x20 DUP3 ADD MSTORE PUSH1 0xC0 PUSH1 0x40 DUP3 ADD MSTORE PUSH1 0x0 PUSH2 0x4540 PUSH1 0xC0 DUP4 ADD DUP8 PUSH2 0x44DD JUMP JUMPDEST SWAP1 POP DUP5 ISZERO ISZERO PUSH1 0x60 DUP4 ADD MSTORE PUSH1 0x1 PUSH1 0x1 PUSH1 0x40 SHL SUB DUP5 AND PUSH1 0x80 DUP4 ADD MSTORE PUSH1 0x5 DUP4 LT PUSH2 0x4577 JUMPI PUSH4 0x4E487B71 PUSH1 0xE0 SHL PUSH1 0x0 MSTORE PUSH1 0x21 PUSH1 0x4 MSTORE PUSH1 0x24 PUSH1 0x0 REVERT JUMPDEST DUP3 PUSH1 0xA0 DUP4 ADD MSTORE SWAP8 SWAP7 POP POP POP POP POP POP POP JUMP JUMPDEST PUSH1 0x1 PUSH1 0x1 PUSH1 0x40 SHL SUB DUP2 AND DUP2 EQ PUSH2 0x430F JUMPI PUSH1 0x0 DUP1 REVERT JUMPDEST PUSH1 0x0 DUP1 PUSH1 0x0 PUSH1 0x60 DUP5 DUP7 SUB SLT ISZERO PUSH2 0x45B2 JUMPI PUSH1 0x0 DUP1 REVERT JUMPDEST DUP4 CALLDATALOAD PUSH2 0x45BD DUP2 PUSH2 0x4588 JUMP JUMPDEST SWAP3 POP PUSH1 0x20 DUP5 ADD CALLDATALOAD PUSH2 0x45CD DUP2 PUSH2 0x4588 JUMP JUMPDEST SWAP2 POP PUSH1 0x40 DUP5 ADD CALLDATALOAD PUSH1 0x1 PUSH1 0x1 PUSH1 0x40 SHL SUB DUP2 GT ISZERO PUSH2 0x45E8 JUMPI PUSH1 0x0 DUP1 REVERT JUMPDEST PUSH2 0x45F4 DUP7 DUP3 DUP8 ADD PUSH2 0x442F JUMP JUMPDEST SWAP2 POP POP SWAP3 POP SWAP3 POP SWAP3 JUMP JUMPDEST PUSH4 0xFFFFFFFF DUP5 AND DUP2 MSTORE PUSH1 0x1 PUSH1 0x1 PUSH1 0x40 SHL SUB DUP4 AND PUSH1 0x20 DUP3 ADD MSTORE PUSH1 0x60 PUSH1 0x40 DUP3 ADD MSTORE PUSH1 0x0 PUSH2 0x2618 PUSH1 0x60 DUP4 ADD DUP5 PUSH2 0x44DD JUMP JUMPDEST PUSH1 0x0 DUP2 MLOAD PUSH1 0x80 DUP5 MSTORE PUSH2 0x4641 PUSH1 0x80 DUP6 ADD DUP3 PUSH2 0x44DD JUMP JUMPDEST SWAP1 POP PUSH1 0x1 PUSH1 0x1 PUSH1 0x40 SHL SUB PUSH1 0x20 DUP5 ADD MLOAD AND PUSH1 0x20 DUP6 ADD MSTORE PUSH1 0x40 DUP4 ADD MLOAD ISZERO ISZERO PUSH1 0x40 DUP6 ADD MSTORE PUSH1 0x60 DUP4 ADD MLOAD ISZERO ISZERO PUSH1 0x60 DUP6 ADD MSTORE DUP1 SWAP2 POP POP SWAP3 SWAP2 POP POP JUMP JUMPDEST PUSH2 0x180 DUP2 MSTORE PUSH1 0x0 PUSH2 0x468D PUSH2 0x180 DUP4 ADD DUP16 PUSH2 0x44DD JUMP JUMPDEST PUSH1 0x1 PUSH1 0x1 PUSH1 0x40 SHL SUB DUP15 AND PUSH1 0x20 DUP5 ADD MSTORE DUP13 ISZERO ISZERO PUSH1 0x40 DUP5 ADD MSTORE DUP3 DUP2 SUB PUSH1 0x60 DUP5 ADD MSTORE PUSH2 0x46B6 DUP2 DUP14 PUSH2 0x44DD JUMP JUMPDEST SWAP1 POP PUSH2 0x46C7 PUSH1 0x80 DUP5 ADD DUP13 PUSH1 0x7 SIGNEXTEND SWAP1 MSTORE JUMP JUMPDEST PUSH2 0x46D6 PUSH1 0xA0 DUP5 ADD DUP12 PUSH1 0x7 SIGNEXTEND SWAP1 MSTORE JUMP JUMPDEST DUP9 PUSH1 0xC0 DUP5 ADD MSTORE DUP8 PUSH1 0xE0 DUP5 ADD MSTORE DUP7 PUSH2 0x100 DUP5 ADD MSTORE DUP3 DUP2 SUB PUSH2 0x120 DUP5 ADD MSTORE PUSH2 0x46FC DUP2 DUP8 PUSH2 0x44DD JUMP JUMPDEST PUSH1 0x1 PUSH1 0x1 PUSH1 0x40 SHL SUB DUP7 AND PUSH2 0x140 DUP6 ADD MSTORE SWAP1 POP DUP3 DUP2 SUB PUSH2 0x160 DUP5 ADD MSTORE PUSH2 0x4721 DUP2 DUP6 PUSH2 0x462C JUMP JUMPDEST SWAP16 SWAP15 POP POP POP POP POP POP POP POP POP POP POP POP POP POP POP JUMP JUMPDEST PUSH1 0x0 DUP1 PUSH1 0x0 PUSH1 0x60 DUP5 DUP7 SUB SLT ISZERO PUSH2 0x4749 JUMPI PUSH1 0x0 DUP1 REVERT JUMPDEST DUP4 CALLDATALOAD PUSH2 0x4754 DUP2 PUSH2 0x42FA JUMP JUMPDEST SWAP3 POP PUSH1 0x20 DUP5 ADD CALLDATALOAD PUSH2 0x4764 DUP2 PUSH2 0x42FA JUMP JUMPDEST SWAP2 POP PUSH1 0x40 DUP5 ADD CALLDATALOAD PUSH2 0x4774 DUP2 PUSH2 0x42FA JUMP JUMPDEST DUP1 SWAP2 POP POP SWAP3 POP SWAP3 POP SWAP3 JUMP JUMPDEST PUSH1 0x0 DUP1 DUP4 PUSH1 0x1F DUP5 ADD SLT PUSH2 0x4791 JUMPI PUSH1 0x0 DUP1 REVERT JUMPDEST POP DUP2 CALLDATALOAD PUSH1 0x1 PUSH1 0x1 PUSH1 0x40 SHL SUB DUP2 GT ISZERO PUSH2 0x47A8 JUMPI PUSH1 0x0 DUP1 REVERT JUMPDEST PUSH1 0x20 DUP4 ADD SWAP2 POP DUP4 PUSH1 0x20 DUP3 DUP6 ADD ADD GT ISZERO PUSH2 0x3374 JUMPI PUSH1 0x0 DUP1 REVERT JUMPDEST PUSH1 0x0 DUP1 PUSH1 0x0 DUP1 PUSH1 0x0 DUP1 PUSH1 0x0 PUSH1 0x80 DUP9 DUP11 SUB SLT ISZERO PUSH2 0x47DB JUMPI PUSH1 0x0 DUP1 REVERT JUMPDEST DUP8 CALLDATALOAD PUSH1 0x1 PUSH1 0x1 PUSH1 0x40 SHL SUB DUP1 DUP3 GT ISZERO PUSH2 0x47F2 JUMPI PUSH1 0x0 DUP1 REVERT JUMPDEST PUSH2 0x47FE DUP12 DUP4 DUP13 ADD PUSH2 0x477F JUMP JUMPDEST SWAP1 SWAP10 POP SWAP8 POP PUSH1 0x20 DUP11 ADD CALLDATALOAD SWAP2 POP DUP1 DUP3 GT ISZERO PUSH2 0x4817 JUMPI PUSH1 0x0 DUP1 REVERT JUMPDEST PUSH2 0x4823 DUP12 DUP4 DUP13 ADD PUSH2 0x477F JUMP JUMPDEST SWAP1 SWAP8 POP SWAP6 POP PUSH1 0x40 DUP11 ADD CALLDATALOAD SWAP5 POP PUSH1 0x60 DUP11 ADD CALLDATALOAD SWAP2 POP DUP1 DUP3 GT ISZERO PUSH2 0x4843 JUMPI PUSH1 0x0 DUP1 REVERT JUMPDEST POP PUSH2 0x4850 DUP11 DUP3 DUP12 ADD PUSH2 0x477F JUMP JUMPDEST SWAP9 SWAP12 SWAP8 SWAP11 POP SWAP6 SWAP9 POP SWAP4 SWAP7 SWAP3 SWAP6 SWAP3 SWAP4 POP POP POP JUMP JUMPDEST DUP7 DUP2 MSTORE PUSH1 0x1 PUSH1 0x1 PUSH1 0xA0 SHL SUB DUP7 AND PUSH1 0x20 DUP3 ADD MSTORE PUSH1 0xC0 PUSH1 0x40 DUP3 ADD DUP2 SWAP1 MSTORE PUSH1 0x0 SWAP1 PUSH2 0x488D SWAP1 DUP4 ADD DUP8 PUSH2 0x44DD JUMP JUMPDEST DUP3 DUP2 SUB PUSH1 0x60 DUP5 ADD MSTORE PUSH2 0x489F DUP2 DUP8 PUSH2 0x44DD JUMP JUMPDEST SWAP1 POP DUP3 DUP2 SUB PUSH1 0x80 DUP5 ADD MSTORE PUSH2 0x48B3 DUP2 DUP7 PUSH2 0x44DD JUMP JUMPDEST SWAP2 POP POP DUP3 PUSH1 0xA0 DUP4 ADD MSTORE SWAP8 SWAP7 POP POP POP POP POP POP POP JUMP JUMPDEST PUSH1 0x20 DUP1 DUP3 MSTORE PUSH1 0x1B SWAP1 DUP3 ADD MSTORE PUSH27 0x13DB9B1E4818985CD94818DBDB9D1C9858DD0818D85B8818D85B1B PUSH1 0x2A SHL PUSH1 0x40 DUP3 ADD MSTORE PUSH1 0x60 ADD SWAP1 JUMP JUMPDEST PUSH1 0x0 DUP3 PUSH1 0x1F DUP4 ADD SLT PUSH2 0x490D JUMPI PUSH1 0x0 DUP1 REVERT JUMPDEST DUP2 MLOAD PUSH2 0x491B PUSH2 0x444E DUP3 PUSH2 0x4408 JUMP JUMPDEST DUP2 DUP2 MSTORE DUP5 PUSH1 0x20 DUP4 DUP7 ADD ADD GT ISZERO PUSH2 0x4930 JUMPI PUSH1 0x0 DUP1 REVERT JUMPDEST PUSH2 0x1D63 DUP3 PUSH1 0x20 DUP4 ADD PUSH1 0x20 DUP8 ADD PUSH2 0x44B9 JUMP JUMPDEST PUSH1 0x0 PUSH1 0x20 DUP3 DUP5 SUB SLT ISZERO PUSH2 0x4953 JUMPI PUSH1 0x0 DUP1 REVERT JUMPDEST DUP2 MLOAD PUSH1 0x1 PUSH1 0x1 PUSH1 0x40 SHL SUB DUP1 DUP3 GT ISZERO PUSH2 0x496A JUMPI PUSH1 0x0 DUP1 REVERT JUMPDEST SWAP1 DUP4 ADD SWAP1 PUSH1 0x20 DUP3 DUP7 SUB SLT ISZERO PUSH2 0x497E JUMPI PUSH1 0x0 DUP1 REVERT JUMPDEST PUSH1 0x40 MLOAD PUSH1 0x20 DUP2 ADD DUP2 DUP2 LT DUP4 DUP3 GT OR ISZERO PUSH2 0x4999 JUMPI PUSH2 0x4999 PUSH2 0x43C2 JUMP JUMPDEST PUSH1 0x40 MSTORE DUP3 MLOAD DUP3 DUP2 GT ISZERO PUSH2 0x49AB JUMPI PUSH1 0x0 DUP1 REVERT JUMPDEST PUSH2 0x49B7 DUP8 DUP3 DUP7 ADD PUSH2 0x48FC JUMP JUMPDEST DUP3 MSTORE POP SWAP6 SWAP5 POP POP POP POP POP JUMP JUMPDEST DUP1 ISZERO ISZERO DUP2 EQ PUSH2 0x430F JUMPI PUSH1 0x0 DUP1 REVERT JUMPDEST PUSH1 0x0 PUSH1 0x20 DUP3 DUP5 SUB SLT ISZERO PUSH2 0x49E3 JUMPI PUSH1 0x0 DUP1 REVERT JUMPDEST DUP2 MLOAD PUSH1 0x1 PUSH1 0x1 PUSH1 0x40 SHL SUB DUP1 DUP3 GT ISZERO PUSH2 0x49FA JUMPI PUSH1 0x0 DUP1 REVERT JUMPDEST SWAP1 DUP4 ADD SWAP1 PUSH1 0x40 DUP3 DUP7 SUB SLT ISZERO PUSH2 0x4A0E JUMPI PUSH1 0x0 DUP1 REVERT JUMPDEST PUSH1 0x40 MLOAD PUSH1 0x40 DUP2 ADD DUP2 DUP2 LT DUP4 DUP3 GT OR ISZERO PUSH2 0x4A29 JUMPI PUSH2 0x4A29 PUSH2 0x43C2 JUMP JUMPDEST PUSH1 0x40 MSTORE DUP3 MLOAD DUP3 DUP2 GT ISZERO PUSH2 0x4A3B JUMPI PUSH1 0x0 DUP1 REVERT JUMPDEST PUSH2 0x4A47 DUP8 DUP3 DUP7 ADD PUSH2 0x48FC JUMP JUMPDEST DUP3 MSTORE POP PUSH1 0x20 DUP4 ADD MLOAD SWAP3 POP PUSH2 0x4A5A DUP4 PUSH2 0x49C3 JUMP JUMPDEST PUSH1 0x20 DUP2 ADD SWAP3 SWAP1 SWAP3 MSTORE POP SWAP4 SWAP3 POP POP POP JUMP JUMPDEST PUSH1 0x20 DUP2 MSTORE PUSH1 0x0 DUP3 MLOAD PUSH1 0x40 PUSH1 0x20 DUP5 ADD MSTORE PUSH2 0x4A86 PUSH1 0x60 DUP5 ADD DUP3 PUSH2 0x44DD JUMP JUMPDEST SWAP1 POP PUSH1 0x20 DUP5 ADD MLOAD ISZERO ISZERO PUSH1 0x40 DUP5 ADD MSTORE DUP1 SWAP2 POP POP SWAP3 SWAP2 POP POP JUMP JUMPDEST PUSH1 0x0 PUSH1 0x20 DUP3 DUP5 SUB SLT ISZERO PUSH2 0x4AB0 JUMPI PUSH1 0x0 DUP1 REVERT JUMPDEST POP MLOAD SWAP2 SWAP1 POP JUMP JUMPDEST PUSH1 0x1 DUP2 DUP2 SHR SWAP1 DUP3 AND DUP1 PUSH2 0x4ACB JUMPI PUSH1 0x7F DUP3 AND SWAP2 POP JUMPDEST PUSH1 0x20 DUP3 LT DUP2 SUB PUSH2 0x4AEB JUMPI PUSH4 0x4E487B71 PUSH1 0xE0 SHL PUSH1 0x0 MSTORE PUSH1 0x22 PUSH1 0x4 MSTORE PUSH1 0x24 PUSH1 0x0 REVERT JUMPDEST POP SWAP2 SWAP1 POP JUMP JUMPDEST PUSH4 0x4E487B71 PUSH1 0xE0 SHL PUSH1 0x0 MSTORE PUSH1 0x32 PUSH1 0x4 MSTORE PUSH1 0x24 PUSH1 0x0 REVERT JUMPDEST PUSH1 0x0 DUP3 MLOAD PUSH2 0x4B19 DUP2 DUP5 PUSH1 0x20 DUP8 ADD PUSH2 0x44B9 JUMP JUMPDEST SWAP2 SWAP1 SWAP2 ADD SWAP3 SWAP2 POP POP JUMP JUMPDEST PUSH1 0x1 PUSH1 0x1 PUSH1 0xA0 SHL SUB DUP4 AND DUP2 MSTORE PUSH1 0x40 PUSH1 0x20 DUP3 ADD DUP2 SWAP1 MSTORE PUSH1 0x0 SWAP1 PUSH2 0x1D63 SWAP1 DUP4 ADD DUP5 PUSH2 0x44DD JUMP JUMPDEST PUSH1 0x0 DUP1 DUP4 CALLDATALOAD PUSH1 0x1E NOT DUP5 CALLDATASIZE SUB ADD DUP2 SLT PUSH2 0x4B5E JUMPI PUSH1 0x0 DUP1 REVERT JUMPDEST DUP4 ADD DUP1 CALLDATALOAD SWAP2 POP PUSH1 0x1 PUSH1 0x1 PUSH1 0x40 SHL SUB DUP3 GT ISZERO PUSH2 0x4B78 JUMPI PUSH1 0x0 DUP1 REVERT JUMPDEST PUSH1 0x20 ADD SWAP2 POP CALLDATASIZE DUP2 SWAP1 SUB DUP3 SGT ISZERO PUSH2 0x3374 JUMPI PUSH1 0x0 DUP1 REVERT JUMPDEST DUP2 DUP4 DUP3 CALLDATACOPY PUSH1 0x0 SWAP2 ADD SWAP1 DUP2 MSTORE SWAP2 SWAP1 POP JUMP JUMPDEST PUSH1 0x60 DUP5 SWAP1 SHL PUSH1 0x1 PUSH1 0x1 PUSH1 0x60 SHL SUB NOT AND DUP2 MSTORE DUP2 DUP4 PUSH1 0x14 DUP4 ADD CALLDATACOPY PUSH1 0x0 SWAP2 ADD PUSH1 0x14 ADD SWAP1 DUP2 MSTORE SWAP3 SWAP2 POP POP JUMP JUMPDEST PUSH1 0x1F DUP3 GT ISZERO PUSH2 0x2E51 JUMPI PUSH1 0x0 DUP2 DUP2 MSTORE PUSH1 0x20 DUP2 KECCAK256 PUSH1 0x1F DUP6 ADD PUSH1 0x5 SHR DUP2 ADD PUSH1 0x20 DUP7 LT ISZERO PUSH2 0x4BEC JUMPI POP DUP1 JUMPDEST PUSH1 0x1F DUP6 ADD PUSH1 0x5 SHR DUP3 ADD SWAP2 POP JUMPDEST DUP2 DUP2 LT ISZERO PUSH2 0x4C0B JUMPI DUP3 DUP2 SSTORE PUSH1 0x1 ADD PUSH2 0x4BF8 JUMP JUMPDEST POP POP POP POP POP POP JUMP JUMPDEST PUSH1 0x0 NOT PUSH1 0x3 DUP4 SWAP1 SHL SHR NOT AND PUSH1 0x1 SWAP2 SWAP1 SWAP2 SHL OR SWAP1 JUMP JUMPDEST PUSH1 0x1 PUSH1 0x1 PUSH1 0x40 SHL SUB DUP4 GT ISZERO PUSH2 0x4C3F JUMPI PUSH2 0x4C3F PUSH2 0x43C2 JUMP JUMPDEST PUSH2 0x4C53 DUP4 PUSH2 0x4C4D DUP4 SLOAD PUSH2 0x4AB7 JUMP JUMPDEST DUP4 PUSH2 0x4BC5 JUMP JUMPDEST PUSH1 0x0 PUSH1 0x1F DUP5 GT PUSH1 0x1 DUP2 EQ PUSH2 0x4C81 JUMPI PUSH1 0x0 DUP6 ISZERO PUSH2 0x4C6F JUMPI POP DUP4 DUP3 ADD CALLDATALOAD JUMPDEST PUSH2 0x4C79 DUP7 DUP3 PUSH2 0x4C13 JUMP JUMPDEST DUP5 SSTORE POP PUSH2 0xC67 JUMP JUMPDEST PUSH1 0x0 DUP4 DUP2 MSTORE PUSH1 0x20 SWAP1 KECCAK256 PUSH1 0x1F NOT DUP7 AND SWAP1 DUP4 JUMPDEST DUP3 DUP2 LT ISZERO PUSH2 0x4CB2 JUMPI DUP7 DUP6 ADD CALLDATALOAD DUP3 SSTORE PUSH1 0x20 SWAP5 DUP6 ADD SWAP5 PUSH1 0x1 SWAP1 SWAP3 ADD SWAP2 ADD PUSH2 0x4C92 JUMP JUMPDEST POP DUP7 DUP3 LT ISZERO PUSH2 0x4CCF JUMPI PUSH1 0x0 NOT PUSH1 0xF8 DUP9 PUSH1 0x3 SHL AND SHR NOT DUP5 DUP8 ADD CALLDATALOAD AND DUP2 SSTORE JUMPDEST POP POP PUSH1 0x1 DUP6 PUSH1 0x1 SHL ADD DUP4 SSTORE POP POP POP POP POP JUMP JUMPDEST PUSH1 0x0 DUP2 CALLDATALOAD PUSH2 0x55A DUP2 PUSH2 0x4588 JUMP JUMPDEST PUSH1 0x1 PUSH1 0x1 PUSH1 0x40 SHL SUB DUP3 AND PUSH1 0x1 PUSH1 0x1 PUSH1 0x40 SHL SUB NOT DUP3 SLOAD AND OR DUP2 SSTORE POP POP JUMP JUMPDEST PUSH1 0x0 DUP2 CALLDATALOAD PUSH2 0x55A DUP2 PUSH2 0x49C3 JUMP JUMPDEST PUSH1 0x0 DUP2 CALLDATALOAD DUP1 PUSH1 0x7 SIGNEXTEND DUP2 EQ PUSH2 0x55A JUMPI PUSH1 0x0 DUP1 REVERT JUMPDEST PUSH1 0x0 DUP3 CALLDATALOAD PUSH1 0x7E NOT DUP4 CALLDATASIZE SUB ADD DUP2 SLT PUSH2 0x4B19 JUMPI PUSH1 0x0 DUP1 REVERT JUMPDEST PUSH2 0x4D4B DUP3 DUP4 PUSH2 0x4B47 JUMP JUMPDEST PUSH1 0x1 PUSH1 0x1 PUSH1 0x40 SHL SUB DUP2 GT ISZERO PUSH2 0x4D62 JUMPI PUSH2 0x4D62 PUSH2 0x43C2 JUMP JUMPDEST PUSH2 0x4D76 DUP2 PUSH2 0x4D70 DUP6 SLOAD PUSH2 0x4AB7 JUMP JUMPDEST DUP6 PUSH2 0x4BC5 JUMP JUMPDEST PUSH1 0x0 PUSH1 0x1F DUP3 GT PUSH1 0x1 DUP2 EQ PUSH2 0x4DA4 JUMPI PUSH1 0x0 DUP4 ISZERO PUSH2 0x4D92 JUMPI POP DUP4 DUP3 ADD CALLDATALOAD JUMPDEST PUSH2 0x4D9C DUP5 DUP3 PUSH2 0x4C13 JUMP JUMPDEST DUP7 SSTORE POP PUSH2 0x4DFE JUMP JUMPDEST PUSH1 0x0 DUP6 DUP2 MSTORE PUSH1 0x20 SWAP1 KECCAK256 PUSH1 0x1F NOT DUP5 AND SWAP1 DUP4 JUMPDEST DUP3 DUP2 LT ISZERO PUSH2 0x4DD5 JUMPI DUP7 DUP6 ADD CALLDATALOAD DUP3 SSTORE PUSH1 0x20 SWAP5 DUP6 ADD SWAP5 PUSH1 0x1 SWAP1 SWAP3 ADD SWAP2 ADD PUSH2 0x4DB5 JUMP JUMPDEST POP DUP5 DUP3 LT ISZERO PUSH2 0x4DF2 JUMPI PUSH1 0x0 NOT PUSH1 0xF8 DUP7 PUSH1 0x3 SHL AND SHR NOT DUP5 DUP8 ADD CALLDATALOAD AND DUP2 SSTORE JUMPDEST POP POP PUSH1 0x1 DUP4 PUSH1 0x1 SHL ADD DUP6 SSTORE JUMPDEST POP POP POP POP PUSH1 0x1 DUP2 ADD PUSH2 0x4E1B PUSH2 0x4E15 PUSH1 0x20 DUP6 ADD PUSH2 0x4CE1 JUMP JUMPDEST DUP3 PUSH2 0x4CEE JUMP JUMPDEST PUSH2 0x4E48 PUSH2 0x4E2A PUSH1 0x40 DUP6 ADD PUSH2 0x4D0B JUMP JUMPDEST DUP3 DUP1 SLOAD PUSH1 0xFF PUSH1 0x40 SHL NOT AND SWAP2 ISZERO ISZERO PUSH1 0x40 SHL PUSH1 0xFF PUSH1 0x40 SHL AND SWAP2 SWAP1 SWAP2 OR SWAP1 SSTORE JUMP JUMPDEST PUSH2 0x2E51 PUSH2 0x4E57 PUSH1 0x60 DUP6 ADD PUSH2 0x4D0B JUMP JUMPDEST DUP3 DUP1 SLOAD PUSH1 0xFF PUSH1 0x48 SHL NOT AND SWAP2 ISZERO ISZERO PUSH1 0x48 SHL PUSH1 0xFF PUSH1 0x48 SHL AND SWAP2 SWAP1 SWAP2 OR SWAP1 SSTORE JUMP JUMPDEST PUSH2 0x4E7F DUP3 DUP4 PUSH2 0x4B47 JUMP JUMPDEST PUSH2 0x4E8A DUP2 DUP4 DUP6 PUSH2 0x4C28 JUMP JUMPDEST POP POP PUSH1 0x1 DUP2 ADD PUSH2 0x4E9F PUSH2 0x4E15 PUSH1 0x20 DUP6 ADD PUSH2 0x4CE1 JUMP JUMPDEST PUSH2 0x4EAE PUSH2 0x4E2A PUSH1 0x40 DUP6 ADD PUSH2 0x4D0B JUMP JUMPDEST POP PUSH2 0x4EBC PUSH1 0x60 DUP4 ADD DUP4 PUSH2 0x4B47 JUMP JUMPDEST PUSH2 0x4ECA DUP2 DUP4 PUSH1 0x2 DUP7 ADD PUSH2 0x4C28 JUMP JUMPDEST POP POP PUSH1 0x3 DUP2 ADD PUSH2 0x4EFD PUSH2 0x4EDF PUSH1 0x80 DUP6 ADD PUSH2 0x4D18 JUMP JUMPDEST DUP3 SLOAD PUSH8 0xFFFFFFFFFFFFFFFF NOT AND PUSH1 0x1 PUSH1 0x1 PUSH1 0x40 SHL SUB SWAP2 SWAP1 SWAP2 AND OR DUP3 SSTORE JUMP JUMPDEST PUSH2 0x4F36 PUSH2 0x4F0C PUSH1 0xA0 DUP6 ADD PUSH2 0x4D18 JUMP JUMPDEST DUP3 SLOAD PUSH1 0x40 SWAP2 SWAP1 SWAP2 SHL PUSH8 0xFFFFFFFFFFFFFFFF PUSH1 0x40 SHL AND PUSH8 0xFFFFFFFFFFFFFFFF PUSH1 0x40 SHL NOT SWAP1 SWAP2 AND OR DUP3 SSTORE JUMP JUMPDEST POP PUSH1 0xC0 DUP3 ADD CALLDATALOAD PUSH1 0x4 DUP3 ADD SSTORE PUSH1 0xE0 DUP3 ADD CALLDATALOAD PUSH1 0x5 DUP3 ADD SSTORE PUSH2 0x100 DUP3 ADD CALLDATALOAD PUSH1 0x6 DUP3 ADD SSTORE PUSH2 0x4F64 PUSH2 0x120 DUP4 ADD DUP4 PUSH2 0x4B47 JUMP JUMPDEST PUSH2 0x4F72 DUP2 DUP4 PUSH1 0x7 DUP7 ADD PUSH2 0x4C28 JUMP JUMPDEST POP POP PUSH2 0x4F8D PUSH2 0x4F84 PUSH2 0x140 DUP5 ADD PUSH2 0x4CE1 JUMP JUMPDEST PUSH1 0x8 DUP4 ADD PUSH2 0x4CEE JUMP JUMPDEST PUSH2 0x12FA PUSH2 0x4F9E PUSH2 0x160 DUP5 ADD DUP5 PUSH2 0x4D2B JUMP JUMPDEST PUSH1 0x9 DUP4 ADD PUSH2 0x4D41 JUMP JUMPDEST DUP2 MLOAD PUSH1 0x1 PUSH1 0x1 PUSH1 0x40 SHL SUB DUP2 GT ISZERO PUSH2 0x4FC0 JUMPI PUSH2 0x4FC0 PUSH2 0x43C2 JUMP JUMPDEST PUSH2 0x4FD4 DUP2 PUSH2 0x4FCE DUP5 SLOAD PUSH2 0x4AB7 JUMP JUMPDEST DUP5 PUSH2 0x4BC5 JUMP JUMPDEST PUSH1 0x20 DUP1 PUSH1 0x1F DUP4 GT PUSH1 0x1 DUP2 EQ PUSH2 0x5003 JUMPI PUSH1 0x0 DUP5 ISZERO PUSH2 0x4FF1 JUMPI POP DUP6 DUP4 ADD MLOAD JUMPDEST PUSH2 0x4FFB DUP6 DUP3 PUSH2 0x4C13 JUMP JUMPDEST DUP7 SSTORE POP PUSH2 0x4C0B JUMP JUMPDEST PUSH1 0x0 DUP6 DUP2 MSTORE PUSH1 0x20 DUP2 KECCAK256 PUSH1 0x1F NOT DUP7 AND SWAP2 JUMPDEST DUP3 DUP2 LT ISZERO PUSH2 0x5032 JUMPI DUP9 DUP7 ADD MLOAD DUP3 SSTORE SWAP5 DUP5 ADD SWAP5 PUSH1 0x1 SWAP1 SWAP2 ADD SWAP1 DUP5 ADD PUSH2 0x5013 JUMP JUMPDEST POP DUP6 DUP3 LT ISZERO PUSH2 0x5050 JUMPI DUP8 DUP6 ADD MLOAD PUSH1 0x0 NOT PUSH1 0x3 DUP9 SWAP1 SHL PUSH1 0xF8 AND SHR NOT AND DUP2 SSTORE JUMPDEST POP POP POP POP POP PUSH1 0x1 SWAP1 DUP2 SHL ADD SWAP1 SSTORE POP JUMP JUMPDEST PUSH1 0x0 PUSH1 0x20 DUP3 DUP5 SUB SLT ISZERO PUSH2 0x5072 JUMPI PUSH1 0x0 DUP1 REVERT JUMPDEST DUP2 CALLDATALOAD PUSH2 0x3C31 DUP2 PUSH2 0x49C3 JUMP JUMPDEST PUSH1 0x0 PUSH1 0x20 DUP3 DUP5 SUB SLT ISZERO PUSH2 0x508F JUMPI PUSH1 0x0 DUP1 REVERT JUMPDEST DUP2 CALLDATALOAD PUSH2 0x3C31 DUP2 PUSH2 0x4588 JUMP JUMPDEST PUSH1 0x20 DUP1 DUP3 MSTORE PUSH1 0x27 SWAP1 DUP3 ADD MSTORE PUSH32 0x6D73672E73656E646572206E6565647320746F206265206D61726B6574206163 PUSH1 0x40 DUP3 ADD MSTORE PUSH7 0x746F7220663035 PUSH1 0xC8 SHL PUSH1 0x60 DUP3 ADD MSTORE PUSH1 0x80 ADD SWAP1 JUMP JUMPDEST PUSH1 0x20 DUP1 DUP3 MSTORE PUSH1 0x2A SWAP1 DUP3 ADD MSTORE PUSH32 0x706965636520636964206D757374206265206164646564206265666F72652061 PUSH1 0x40 DUP3 ADD MSTORE PUSH10 0x7574686F72697A696E67 PUSH1 0xB0 SHL PUSH1 0x60 DUP3 ADD MSTORE PUSH1 0x80 ADD SWAP1 JUMP JUMPDEST PUSH1 0x20 DUP1 DUP3 MSTORE PUSH1 0x3B SWAP1 DUP3 ADD MSTORE PUSH32 0x6465616C206661696C656420706F6C69637920636865636B3A2070726F766964 PUSH1 0x40 DUP3 ADD MSTORE PUSH27 0x195C88185B1C9958591E4818DB185A5B5959081D1A1A5CC818DA59 PUSH1 0x2A SHL PUSH1 0x60 DUP3 ADD MSTORE PUSH1 0x80 ADD SWAP1 JUMP JUMPDEST PUSH1 0x0 DUP1 PUSH1 0x40 DUP4 DUP6 SUB SLT ISZERO PUSH2 0x5199 JUMPI PUSH1 0x0 DUP1 REVERT JUMPDEST DUP3 MLOAD SWAP2 POP PUSH1 0x20 DUP4 ADD MLOAD PUSH2 0x43A3 DUP2 PUSH2 0x49C3 JUMP JUMPDEST PUSH1 0x20 DUP1 DUP3 MSTORE PUSH1 0x41 SWAP1 DUP3 ADD MSTORE PUSH32 0x49737375657320636F6E76657274696E672075696E7432353620746F20426967 PUSH1 0x40 DUP3 ADD MSTORE PUSH32 0x496E742C206D6179206E6F7420686176652061636375726174652076616C7565 PUSH1 0x60 DUP3 ADD MSTORE PUSH1 0x73 PUSH1 0xF8 SHL PUSH1 0x80 DUP3 ADD MSTORE PUSH1 0xA0 ADD SWAP1 JUMP JUMPDEST PUSH4 0x4E487B71 PUSH1 0xE0 SHL PUSH1 0x0 MSTORE PUSH1 0x11 PUSH1 0x4 MSTORE PUSH1 0x24 PUSH1 0x0 REVERT JUMPDEST DUP1 DUP3 ADD DUP1 DUP3 GT ISZERO PUSH2 0x55A JUMPI PUSH2 0x55A PUSH2 0x5212 JUMP JUMPDEST PUSH1 0x0 PUSH1 0x1 PUSH1 0x1 PUSH1 0x40 SHL SUB DUP1 DUP10 AND DUP4 MSTORE DUP8 PUSH1 0x20 DUP5 ADD MSTORE DUP1 DUP8 AND PUSH1 0x40 DUP5 ADD MSTORE DUP1 DUP7 AND PUSH1 0x60 DUP5 ADD MSTORE PUSH1 0xC0 PUSH1 0x80 DUP5 ADD MSTORE PUSH2 0x5274 PUSH1 0xC0 DUP5 ADD DUP7 PUSH2 0x44DD JUMP JUMPDEST SWAP2 POP DUP1 DUP5 AND PUSH1 0xA0 DUP5 ADD MSTORE POP SWAP8 SWAP7 POP POP POP POP POP POP POP JUMP JUMPDEST PUSH4 0x4E487B71 PUSH1 0xE0 SHL PUSH1 0x0 MSTORE PUSH1 0x1 PUSH1 0x4 MSTORE PUSH1 0x24 PUSH1 0x0 REVERT JUMPDEST PUSH1 0x0 DUP3 PUSH2 0x52BD JUMPI PUSH4 0x4E487B71 PUSH1 0xE0 SHL PUSH1 0x0 MSTORE PUSH1 0x12 PUSH1 0x4 MSTORE PUSH1 0x24 PUSH1 0x0 REVERT JUMPDEST POP MOD SWAP1 JUMP JUMPDEST DUP2 DUP2 SUB DUP2 DUP2 GT ISZERO PUSH2 0x55A JUMPI PUSH2 0x55A PUSH2 0x5212 JUMP JUMPDEST PUSH1 0x0 PUSH1 0x1 DUP3 ADD PUSH2 0x52E7 JUMPI PUSH2 0x52E7 PUSH2 0x5212 JUMP JUMPDEST POP PUSH1 0x1 ADD SWAP1 JUMP JUMPDEST PUSH1 0x0 DUP1 PUSH1 0x0 PUSH1 0x60 DUP5 DUP7 SUB SLT ISZERO PUSH2 0x5303 JUMPI PUSH1 0x0 DUP1 REVERT JUMPDEST DUP4 MLOAD SWAP3 POP PUSH1 0x20 DUP5 ADD MLOAD PUSH2 0x5315 DUP2 PUSH2 0x4588 JUMP JUMPDEST PUSH1 0x40 DUP6 ADD MLOAD SWAP1 SWAP3 POP PUSH1 0x1 PUSH1 0x1 PUSH1 0x40 SHL SUB DUP2 GT ISZERO PUSH2 0x5331 JUMPI PUSH1 0x0 DUP1 REVERT JUMPDEST PUSH2 0x45F4 DUP7 DUP3 DUP8 ADD PUSH2 0x48FC JUMP JUMPDEST DUP1 DUP3 MUL DUP2 ISZERO DUP3 DUP3 DIV DUP5 EQ OR PUSH2 0x55A JUMPI PUSH2 0x55A PUSH2 0x5212 JUMP JUMPDEST PUSH1 0x1 DUP2 DUP2 JUMPDEST DUP1 DUP6 GT ISZERO PUSH2 0x538F JUMPI DUP2 PUSH1 0x0 NOT DIV DUP3 GT ISZERO PUSH2 0x5375 JUMPI PUSH2 0x5375 PUSH2 0x5212 JUMP JUMPDEST DUP1 DUP6 AND ISZERO PUSH2 0x5382 JUMPI SWAP2 DUP2 MUL SWAP2 JUMPDEST SWAP4 DUP5 SHR SWAP4 SWAP1 DUP1 MUL SWAP1 PUSH2 0x5359 JUMP JUMPDEST POP SWAP3 POP SWAP3 SWAP1 POP JUMP JUMPDEST PUSH1 0x0 DUP3 PUSH2 0x53A6 JUMPI POP PUSH1 0x1 PUSH2 0x55A JUMP JUMPDEST DUP2 PUSH2 0x53B3 JUMPI POP PUSH1 0x0 PUSH2 0x55A JUMP JUMPDEST DUP2 PUSH1 0x1 DUP2 EQ PUSH2 0x53C9 JUMPI PUSH1 0x2 DUP2 EQ PUSH2 0x53D3 JUMPI PUSH2 0x53EF JUMP JUMPDEST PUSH1 0x1 SWAP2 POP POP PUSH2 0x55A JUMP JUMPDEST PUSH1 0xFF DUP5 GT ISZERO PUSH2 0x53E4 JUMPI PUSH2 0x53E4 PUSH2 0x5212 JUMP JUMPDEST POP POP PUSH1 0x1 DUP3 SHL PUSH2 0x55A JUMP JUMPDEST POP PUSH1 0x20 DUP4 LT PUSH2 0x133 DUP4 LT AND PUSH1 0x4E DUP5 LT PUSH1 0xB DUP5 LT AND OR ISZERO PUSH2 0x5412 JUMPI POP DUP2 DUP2 EXP PUSH2 0x55A JUMP JUMPDEST PUSH2 0x541C DUP4 DUP4 PUSH2 0x5354 JUMP JUMPDEST DUP1 PUSH1 0x0 NOT DIV DUP3 GT ISZERO PUSH2 0x5430 JUMPI PUSH2 0x5430 PUSH2 0x5212 JUMP JUMPDEST MUL SWAP4 SWAP3 POP POP POP JUMP JUMPDEST PUSH1 0x0 PUSH2 0x3C31 DUP4 DUP4 PUSH2 0x5397 JUMP JUMPDEST PUSH1 0x20 DUP1 DUP3 MSTORE PUSH1 0x14 SWAP1 DUP3 ADD MSTORE PUSH20 0x736C6963696E67206F7574206F662072616E6765 PUSH1 0x60 SHL PUSH1 0x40 DUP3 ADD MSTORE PUSH1 0x60 ADD SWAP1 JUMP INVALID LOG2 PUSH5 0x6970667358 0x22 SLT KECCAK256 LOG0 0x4A 0xF7 0xC3 0xF7 0xC0 DUP7 0xCC 0xD2 0xFC DUP5 0xC6 SWAP3 XOR 0xC6 0x2E 0xE0 GAS MSIZE 0xE 0x4D REVERT PUSH24 0x3E4F1D6355560905C264736F6C6343000812003300000000 "
		},
		"gasEstimates": {
			"creation": {
				"codeDepositCost": "4334400",
				"executionCost": "5016",
				"totalCost": "4339416"
			},
			"external": {
				"accessToken()": "2658",
				"addBalance()": "infinite",
				"base()": "2427",
				"buyResearchDeal(bytes32)": "infinite",
				"createResarchDeal(string,string,uint256,string)": "infinite",
				"dealIds(uint256)": "4828",
				"dealRequestIdx(bytes32)": "4605",
				"dealRequests(uint256)": "infinite",
				"handle_filecoin_method(uint64,uint64,bytes)": "infinite",
				"initialize(address,address,address)": "infinite",
				"makeDealProposal((bytes,uint64,bool,string,int64,int64,uint256,uint256,uint256,string,uint64,(string,uint64,bool,bool)),address)": "infinite",
				"pieceInfos(bytes)": "infinite",
				"researchDeals(bytes32)": "infinite",
				"updateActivationStatus(bytes)": "infinite",
				"utils()": "2449",
				"withdrawBalance(address,uint256)": "infinite"
			},
			"internal": {
				"authenticateMessage(bytes memory)": "infinite",
				"dealNotify(bytes memory)": "infinite",
				"getDealRequest(bytes32)": "infinite"
			}
		},
		"methodIdentifiers": {
			"accessToken()": "e243c5fb",
			"addBalance()": "b163cc38",
			"base()": "5001f3b5",
			"buyResearchDeal(bytes32)": "10c88e74",
			"createResarchDeal(string,string,uint256,string)": "c529eae3",
			"dealIds(uint256)": "c6620db3",
			"dealRequestIdx(bytes32)": "1adf7eb1",
			"dealRequests(uint256)": "bad79de9",
			"handle_filecoin_method(uint64,uint64,bytes)": "868e10c4",
			"initialize(address,address,address)": "c0c53b8b",
			"makeDealProposal((bytes,uint64,bool,string,int64,int64,uint256,uint256,uint256,string,uint64,(string,uint64,bool,bool)),address)": "48474f56",
			"pieceInfos(bytes)": "617fbb9e",
			"researchDeals(bytes32)": "e4be98f2",
			"updateActivationStatus(bytes)": "66263735",
			"utils()": "5a29638d",
			"withdrawBalance(address,uint256)": "0cf20cc9"
		}
	},
	"abi": [
		{
			"inputs": [
				{
					"internalType": "int256",
					"name": "errorCode",
					"type": "int256"
				}
			],
			"name": "ActorError",
			"type": "error"
		},
		{
			"inputs": [],
			"name": "ActorNotFound",
			"type": "error"
		},
		{
			"inputs": [],
			"name": "FailToCallActor",
			"type": "error"
		},
		{
			"inputs": [],
			"name": "InvalidAddress",
			"type": "error"
		},
		{
			"inputs": [
				{
					"internalType": "uint64",
					"name": "",
					"type": "uint64"
				}
			],
			"name": "InvalidCodec",
			"type": "error"
		},
		{
			"inputs": [],
			"name": "InvalidResponseLength",
			"type": "error"
		},
		{
			"inputs": [
				{
					"internalType": "uint256",
					"name": "balance",
					"type": "uint256"
				},
				{
					"internalType": "uint256",
					"name": "value",
					"type": "uint256"
				}
			],
			"name": "NotEnoughBalance",
			"type": "error"
		},
		{
			"anonymous": false,
			"inputs": [
				{
					"indexed": true,
					"internalType": "bytes32",
					"name": "id",
					"type": "bytes32"
				},
				{
					"indexed": false,
					"internalType": "uint64",
					"name": "size",
					"type": "uint64"
				},
				{
					"indexed": true,
					"internalType": "bool",
					"name": "verified",
					"type": "bool"
				},
				{
					"indexed": false,
					"internalType": "uint256",
					"name": "price",
					"type": "uint256"
				}
			],
			"name": "DealProposalCreate",
			"type": "event"
		},
		{
			"anonymous": false,
			"inputs": [
				{
					"indexed": false,
					"internalType": "uint8",
					"name": "version",
					"type": "uint8"
				}
			],
			"name": "Initialized",
			"type": "event"
		},
		{
			"anonymous": false,
			"inputs": [
				{
					"indexed": false,
					"internalType": "string",
					"name": "received",
					"type": "string"
				}
			],
			"name": "ReceivedDataCap",
			"type": "event"
		},
		{
			"inputs": [],
			"name": "accessToken",
			"outputs": [
				{
					"internalType": "contract AccessToken",
					"name": "",
					"type": "address"
				}
			],
			"stateMutability": "view",
			"type": "function"
		},
		{
			"inputs": [],
			"name": "addBalance",
			"outputs": [],
			"stateMutability": "payable",
			"type": "function"
		},
		{
			"inputs": [],
			"name": "base",
			"outputs": [
				{
					"internalType": "address",
					"name": "",
					"type": "address"
				}
			],
			"stateMutability": "view",
			"type": "function"
		},
		{
			"inputs": [
				{
					"internalType": "bytes32",
					"name": "_id",
					"type": "bytes32"
				}
			],
			"name": "buyResearchDeal",
			"outputs": [],
			"stateMutability": "payable",
			"type": "function"
		},
		{
			"inputs": [
				{
					"internalType": "string",
					"name": "_title",
					"type": "string"
				},
				{
					"internalType": "string",
					"name": "_description",
					"type": "string"
				},
				{
					"internalType": "uint256",
					"name": "_price",
					"type": "uint256"
				},
				{
					"internalType": "string",
					"name": "_dataCid",
					"type": "string"
				}
			],
			"name": "createResarchDeal",
			"outputs": [],
			"stateMutability": "nonpayable",
			"type": "function"
		},
		{
			"inputs": [
				{
					"internalType": "uint256",
					"name": "",
					"type": "uint256"
				}
			],
			"name": "dealIds",
			"outputs": [
				{
					"internalType": "bytes32",
					"name": "",
					"type": "bytes32"
				}
			],
			"stateMutability": "view",
			"type": "function"
		},
		{
			"inputs": [
				{
					"internalType": "bytes32",
					"name": "",
					"type": "bytes32"
				}
			],
			"name": "dealRequestIdx",
			"outputs": [
				{
					"internalType": "uint256",
					"name": "idx",
					"type": "uint256"
				},
				{
					"internalType": "bool",
					"name": "valid",
					"type": "bool"
				}
			],
			"stateMutability": "view",
			"type": "function"
		},
		{
			"inputs": [
				{
					"internalType": "uint256",
					"name": "",
					"type": "uint256"
				}
			],
			"name": "dealRequests",
			"outputs": [
				{
					"internalType": "bytes",
					"name": "piece_cid",
					"type": "bytes"
				},
				{
					"internalType": "uint64",
					"name": "piece_size",
					"type": "uint64"
				},
				{
					"internalType": "bool",
					"name": "verified_deal",
					"type": "bool"
				},
				{
					"internalType": "string",
					"name": "label",
					"type": "string"
				},
				{
					"internalType": "int64",
					"name": "start_epoch",
					"type": "int64"
				},
				{
					"internalType": "int64",
					"name": "end_epoch",
					"type": "int64"
				},
				{
					"internalType": "uint256",
					"name": "storage_price_per_epoch",
					"type": "uint256"
				},
				{
					"internalType": "uint256",
					"name": "provider_collateral",
					"type": "uint256"
				},
				{
					"internalType": "uint256",
					"name": "client_collateral",
					"type": "uint256"
				},
				{
					"internalType": "string",
					"name": "dataCid",
					"type": "string"
				},
				{
					"internalType": "uint64",
					"name": "extra_params_version",
					"type": "uint64"
				},
				{
					"components": [
						{
							"internalType": "string",
							"name": "location_ref",
							"type": "string"
						},
						{
							"internalType": "uint64",
							"name": "car_size",
							"type": "uint64"
						},
						{
							"internalType": "bool",
							"name": "skip_ipni_announce",
							"type": "bool"
						},
						{
							"internalType": "bool",
							"name": "remove_unsealed_copy",
							"type": "bool"
						}
					],
					"internalType": "struct ExtraParamsV1",
					"name": "extra_params",
					"type": "tuple"
				}
			],
			"stateMutability": "view",
			"type": "function"
		},
		{
			"inputs": [
				{
					"internalType": "uint64",
					"name": "method",
					"type": "uint64"
				},
				{
					"internalType": "uint64",
					"name": "",
					"type": "uint64"
				},
				{
					"internalType": "bytes",
					"name": "params",
					"type": "bytes"
				}
			],
			"name": "handle_filecoin_method",
			"outputs": [
				{
					"internalType": "uint32",
					"name": "",
					"type": "uint32"
				},
				{
					"internalType": "uint64",
					"name": "",
					"type": "uint64"
				},
				{
					"internalType": "bytes",
					"name": "",
					"type": "bytes"
				}
			],
			"stateMutability": "nonpayable",
			"type": "function"
		},
		{
			"inputs": [
				{
					"internalType": "contract AccessToken",
					"name": "_accessToken",
					"type": "address"
				},
				{
					"internalType": "contract IUtils",
					"name": "_utils",
					"type": "address"
				},
				{
					"internalType": "address",
					"name": "_base",
					"type": "address"
				}
			],
			"name": "initialize",
			"outputs": [],
			"stateMutability": "nonpayable",
			"type": "function"
		},
		{
			"inputs": [
				{
					"components": [
						{
							"internalType": "bytes",
							"name": "piece_cid",
							"type": "bytes"
						},
						{
							"internalType": "uint64",
							"name": "piece_size",
							"type": "uint64"
						},
						{
							"internalType": "bool",
							"name": "verified_deal",
							"type": "bool"
						},
						{
							"internalType": "string",
							"name": "label",
							"type": "string"
						},
						{
							"internalType": "int64",
							"name": "start_epoch",
							"type": "int64"
						},
						{
							"internalType": "int64",
							"name": "end_epoch",
							"type": "int64"
						},
						{
							"internalType": "uint256",
							"name": "storage_price_per_epoch",
							"type": "uint256"
						},
						{
							"internalType": "uint256",
							"name": "provider_collateral",
							"type": "uint256"
						},
						{
							"internalType": "uint256",
							"name": "client_collateral",
							"type": "uint256"
						},
						{
							"internalType": "string",
							"name": "dataCid",
							"type": "string"
						},
						{
							"internalType": "uint64",
							"name": "extra_params_version",
							"type": "uint64"
						},
						{
							"components": [
								{
									"internalType": "string",
									"name": "location_ref",
									"type": "string"
								},
								{
									"internalType": "uint64",
									"name": "car_size",
									"type": "uint64"
								},
								{
									"internalType": "bool",
									"name": "skip_ipni_announce",
									"type": "bool"
								},
								{
									"internalType": "bool",
									"name": "remove_unsealed_copy",
									"type": "bool"
								}
							],
							"internalType": "struct ExtraParamsV1",
							"name": "extra_params",
							"type": "tuple"
						}
					],
					"internalType": "struct DealRequest",
					"name": "deal",
					"type": "tuple"
				},
				{
					"internalType": "address",
					"name": "uploader",
					"type": "address"
				}
			],
			"name": "makeDealProposal",
			"outputs": [
				{
					"internalType": "bytes32",
					"name": "",
					"type": "bytes32"
				}
			],
			"stateMutability": "nonpayable",
			"type": "function"
		},
		{
			"inputs": [
				{
					"internalType": "bytes",
					"name": "",
					"type": "bytes"
				}
			],
			"name": "pieceInfos",
			"outputs": [
				{
					"internalType": "bytes32",
					"name": "requestId",
					"type": "bytes32"
				},
				{
					"internalType": "bool",
					"name": "isRequestIdValid",
					"type": "bool"
				},
				{
					"internalType": "bytes",
					"name": "isProviderSet",
					"type": "bytes"
				},
				{
					"internalType": "bool",
					"name": "isProviderSetValid",
					"type": "bool"
				},
				{
					"internalType": "uint64",
					"name": "dealId",
					"type": "uint64"
				},
				{
					"internalType": "enum Status",
					"name": "pieceStatus",
					"type": "uint8"
				}
			],
			"stateMutability": "view",
			"type": "function"
		},
		{
			"inputs": [
				{
					"internalType": "bytes32",
					"name": "",
					"type": "bytes32"
				}
			],
			"name": "researchDeals",
			"outputs": [
				{
					"internalType": "bytes32",
					"name": "dealId",
					"type": "bytes32"
				},
				{
					"internalType": "address",
					"name": "uploader",
					"type": "address"
				},
				{
					"internalType": "string",
					"name": "cid",
					"type": "string"
				},
				{
					"internalType": "string",
					"name": "title",
					"type": "string"
				},
				{
					"internalType": "string",
					"name": "description",
					"type": "string"
				},
				{
					"internalType": "uint256",
					"name": "price",
					"type": "uint256"
				}
			],
			"stateMutability": "view",
			"type": "function"
		},
		{
			"inputs": [
				{
					"internalType": "bytes",
					"name": "pieceCid",
					"type": "bytes"
				}
			],
			"name": "updateActivationStatus",
			"outputs": [],
			"stateMutability": "nonpayable",
			"type": "function"
		},
		{
			"inputs": [],
			"name": "utils",
			"outputs": [
				{
					"internalType": "contract IUtils",
					"name": "",
					"type": "address"
				}
			],
			"stateMutability": "view",
			"type": "function"
		},
		{
			"inputs": [
				{
					"internalType": "address",
					"name": "client",
					"type": "address"
				},
				{
					"internalType": "uint256",
					"name": "value",
					"type": "uint256"
				}
			],
			"name": "withdrawBalance",
			"outputs": [
				{
					"internalType": "uint256",
					"name": "",
					"type": "uint256"
				}
			],
			"stateMutability": "nonpayable",
			"type": "function"
		}
	]
}